{
  "contractName": "BitsWrapper",
  "abi": [
    {
      "constant": true,
      "inputs": [
        {
          "internalType": "uint256",
          "name": "_self",
          "type": "uint256"
        },
        {
          "internalType": "uint8",
          "name": "_index",
          "type": "uint8"
        }
      ],
      "name": "setBit",
      "outputs": [
        {
          "internalType": "uint256",
          "name": "",
          "type": "uint256"
        }
      ],
      "payable": false,
      "stateMutability": "pure",
      "type": "function"
    },
    {
      "constant": true,
      "inputs": [
        {
          "internalType": "uint256",
          "name": "_self",
          "type": "uint256"
        },
        {
          "internalType": "uint8",
          "name": "_index",
          "type": "uint8"
        }
      ],
      "name": "clearBit",
      "outputs": [
        {
          "internalType": "uint256",
          "name": "",
          "type": "uint256"
        }
      ],
      "payable": false,
      "stateMutability": "pure",
      "type": "function"
    },
    {
      "constant": true,
      "inputs": [
        {
          "internalType": "uint256",
          "name": "_self",
          "type": "uint256"
        },
        {
          "internalType": "uint8",
          "name": "_index",
          "type": "uint8"
        }
      ],
      "name": "bitSet",
      "outputs": [
        {
          "internalType": "bool",
          "name": "",
          "type": "bool"
        }
      ],
      "payable": false,
      "stateMutability": "pure",
      "type": "function"
    }
  ],
  "bytecode": "0x608060405234801561001057600080fd5b5061017d806100206000396000f3fe608060405234801561001057600080fd5b50600436106100415760003560e01c80634ee29090146100465780635fc781e41461007e578063e3f9c6c4146100a4575b600080fd5b61006c6004803603604081101561005c57600080fd5b508035906020013560ff166100de565b60408051918252519081900360200190f35b61006c6004803603604081101561009457600080fd5b508035906020013560ff166100f1565b6100ca600480360360408110156100ba57600080fd5b508035906020013560ff166100fd565b604080519115158252519081900360200190f35b60006100ea8383610109565b9392505050565b60006100ea8383610116565b60006100ea8383610124565b600160ff919091161b1790565b600160ff919091161b191690565b6000610130838361013e565b60ff16600114905092915050565b60ff161c6001169056fea265627a7a723158201713e09855152e18d6f4ea39c0b909bc5f2f4aff970a5179ff74ab8126ba69da64736f6c634300050b0032",
  "source": "pragma solidity 0.5.11;\n\nimport \"../../src/utils/Bits.sol\";\n\ncontract BitsWrapper {\n    function setBit(uint _self, uint8 _index) public pure returns (uint)\n    {\n        return Bits.setBit(_self, _index);\n    }\n\n    function clearBit(uint _self, uint8 _index) public pure returns (uint)\n    {\n        return Bits.clearBit(_self, _index);\n    }\n\n    /**\n     * @dev It makes sense to expose just `bitSet` to be able to test both of Bits `getBit` and `bitSet`\n     */\n    function bitSet(uint _self, uint8 _index) public pure returns (bool)\n    {\n        return Bits.bitSet(_self, _index);\n    }\n}\n",
  "sourcePath": "/home/node/plasma-contracts/plasma_framework/contracts/mocks/utils/BitsWrapper.sol",
  "compiler": {
    "name": "solc",
    "version": "0.5.11+commit.c082d0b4.Emscripten.clang"
  },
  "schemaVersion": "3.0.16",
  "updatedAt": "2020-04-07T14:07:49.605Z",
  "devdoc": {
    "methods": {
      "bitSet(uint256,uint8)": {
        "details": "It makes sense to expose just `bitSet` to be able to test both of Bits `getBit` and `bitSet`"
      }
    }
  },
  "userdoc": {
    "methods": {}
  }
}