{
  "contractName": "BlockControllerMock",
  "abi": [
    {
      "constant": true,
      "inputs": [],
      "name": "isChildChainActivated",
      "outputs": [
        {
          "internalType": "bool",
          "name": "",
          "type": "bool"
        }
      ],
      "payable": false,
      "stateMutability": "view",
      "type": "function"
    },
    {
      "constant": true,
      "inputs": [],
      "name": "childBlockInterval",
      "outputs": [
        {
          "internalType": "uint256",
          "name": "",
          "type": "uint256"
        }
      ],
      "payable": false,
      "stateMutability": "view",
      "type": "function"
    },
    {
      "constant": true,
      "inputs": [],
      "name": "nextChildBlock",
      "outputs": [
        {
          "internalType": "uint256",
          "name": "",
          "type": "uint256"
        }
      ],
      "payable": false,
      "stateMutability": "view",
      "type": "function"
    },
    {
      "constant": false,
      "inputs": [
        {
          "internalType": "uint256",
          "name": "_vaultId",
          "type": "uint256"
        },
        {
          "internalType": "address",
          "name": "_vaultAddress",
          "type": "address"
        }
      ],
      "name": "registerVault",
      "outputs": [],
      "payable": false,
      "stateMutability": "nonpayable",
      "type": "function"
    },
    {
      "constant": true,
      "inputs": [],
      "name": "nextDepositBlock",
      "outputs": [
        {
          "internalType": "uint256",
          "name": "",
          "type": "uint256"
        }
      ],
      "payable": false,
      "stateMutability": "view",
      "type": "function"
    },
    {
      "constant": true,
      "inputs": [
        {
          "internalType": "uint256",
          "name": "_vaultId",
          "type": "uint256"
        }
      ],
      "name": "vaults",
      "outputs": [
        {
          "internalType": "address",
          "name": "",
          "type": "address"
        }
      ],
      "payable": false,
      "stateMutability": "view",
      "type": "function"
    },
    {
      "constant": false,
      "inputs": [],
      "name": "activateChildChain",
      "outputs": [],
      "payable": false,
      "stateMutability": "nonpayable",
      "type": "function"
    },
    {
      "constant": true,
      "inputs": [],
      "name": "nextDeposit",
      "outputs": [
        {
          "internalType": "uint256",
          "name": "",
          "type": "uint256"
        }
      ],
      "payable": false,
      "stateMutability": "view",
      "type": "function"
    },
    {
      "constant": false,
      "inputs": [
        {
          "internalType": "bytes32",
          "name": "_blockRoot",
          "type": "bytes32"
        }
      ],
      "name": "submitBlock",
      "outputs": [],
      "payable": false,
      "stateMutability": "nonpayable",
      "type": "function"
    },
    {
      "constant": false,
      "inputs": [
        {
          "internalType": "bytes32",
          "name": "_blockRoot",
          "type": "bytes32"
        }
      ],
      "name": "submitDepositBlock",
      "outputs": [
        {
          "internalType": "uint256",
          "name": "",
          "type": "uint256"
        }
      ],
      "payable": false,
      "stateMutability": "nonpayable",
      "type": "function"
    },
    {
      "constant": true,
      "inputs": [],
      "name": "authority",
      "outputs": [
        {
          "internalType": "address",
          "name": "",
          "type": "address"
        }
      ],
      "payable": false,
      "stateMutability": "view",
      "type": "function"
    },
    {
      "constant": true,
      "inputs": [
        {
          "internalType": "address",
          "name": "_vaultAddress",
          "type": "address"
        }
      ],
      "name": "vaultToId",
      "outputs": [
        {
          "internalType": "uint256",
          "name": "",
          "type": "uint256"
        }
      ],
      "payable": false,
      "stateMutability": "view",
      "type": "function"
    },
    {
      "constant": true,
      "inputs": [
        {
          "internalType": "uint256",
          "name": "blockNum",
          "type": "uint256"
        }
      ],
      "name": "isDeposit",
      "outputs": [
        {
          "internalType": "bool",
          "name": "",
          "type": "bool"
        }
      ],
      "payable": false,
      "stateMutability": "view",
      "type": "function"
    },
    {
      "constant": true,
      "inputs": [
        {
          "internalType": "uint256",
          "name": "",
          "type": "uint256"
        }
      ],
      "name": "blocks",
      "outputs": [
        {
          "internalType": "bytes32",
          "name": "root",
          "type": "bytes32"
        },
        {
          "internalType": "uint256",
          "name": "timestamp",
          "type": "uint256"
        }
      ],
      "payable": false,
      "stateMutability": "view",
      "type": "function"
    },
    {
      "inputs": [
        {
          "internalType": "uint256",
          "name": "interval",
          "type": "uint256"
        },
        {
          "internalType": "uint256",
          "name": "minExitPeriod",
          "type": "uint256"
        },
        {
          "internalType": "uint256",
          "name": "initialImmuneVaults",
          "type": "uint256"
        },
        {
          "internalType": "address",
          "name": "authority",
          "type": "address"
        }
      ],
      "payable": false,
      "stateMutability": "nonpayable",
      "type": "constructor"
    },
    {
      "anonymous": false,
      "inputs": [
        {
          "indexed": false,
          "internalType": "uint256",
          "name": "blknum",
          "type": "uint256"
        }
      ],
      "name": "BlockSubmitted",
      "type": "event"
    },
    {
      "anonymous": false,
      "inputs": [
        {
          "indexed": false,
          "internalType": "address",
          "name": "authority",
          "type": "address"
        }
      ],
      "name": "ChildChainActivated",
      "type": "event"
    },
    {
      "anonymous": false,
      "inputs": [
        {
          "indexed": false,
          "internalType": "uint256",
          "name": "vaultId",
          "type": "uint256"
        },
        {
          "indexed": false,
          "internalType": "address",
          "name": "vaultAddress",
          "type": "address"
        }
      ],
      "name": "VaultRegistered",
      "type": "event"
    },
    {
      "constant": true,
      "inputs": [],
      "name": "getMaintainer",
      "outputs": [
        {
          "internalType": "address",
          "name": "",
          "type": "address"
        }
      ],
      "payable": false,
      "stateMutability": "view",
      "type": "function"
    },
    {
      "constant": false,
      "inputs": [
        {
          "internalType": "uint256",
          "name": "_blockNum",
          "type": "uint256"
        },
        {
          "internalType": "bytes32",
          "name": "_root",
          "type": "bytes32"
        },
        {
          "internalType": "uint256",
          "name": "_timestamp",
          "type": "uint256"
        }
      ],
      "name": "setBlock",
      "outputs": [],
      "payable": false,
      "stateMutability": "nonpayable",
      "type": "function"
    }
  ],
  "bytecode": "0x60806040523480156200001157600080fd5b5060405162000f4038038062000f408339810160408190526200003491620000a8565b6002909202600355600455600580546001600160a01b039092166001600160a01b0319928316179055600682905560079190915560016008556009805460ff19169055600b8054909116331790556200014c565b8051620000958162000127565b92915050565b8051620000958162000141565b60008060008060808587031215620000bf57600080fd5b6000620000cd87876200009b565b9450506020620000e0878288016200009b565b9350506040620000f3878288016200009b565b9250506060620001068782880162000088565b91505092959194509250565b60006001600160a01b03821662000095565b90565b620001328162000112565b81146200013e57600080fd5b50565b620001328162000124565b610de4806200015c6000396000f3fe608060405234801561001057600080fd5b50600436106101005760003560e01c8063a11dcc3411610097578063bf7e214f11610066578063bf7e214f146101ce578063dfb494f0146101d6578063ebde2ec9146101e9578063f25b3f99146101fc57610100565b8063a11dcc3414610198578063a8cabcd5146101a0578063baa47694146101a8578063be5ac698146101bb57610100565b80634ca8714f116100d35780634ca8714f146101625780636a51fd631461016a5780638701fc5d1461017d5780638c64ea4a1461018557610100565b80630e71ee02146101055780630f71c9fd1461012357806338a9e0bc146101385780634b0a72bc1461014d575b600080fd5b61010d61021d565b60405161011a9190610c30565b60405180910390f35b610136610131366004610834565b610226565b005b610140610254565b60405161011a9190610d30565b61015561025a565b60405161011a9190610c22565b610140610269565b6101366101783660046107fa565b61026f565b6101406103d5565b6101556101933660046107dc565b6103e3565b6101366103fe565b6101406104a1565b6101366101b63660046107dc565b6104a7565b6101406101c93660046107dc565b610568565b610155610655565b6101406101e43660046107b6565b610664565b61010d6101f73660046107dc565b61067f565b61020f61020a3660046107dc565b6106c1565b60405161011a929190610c3e565b60095460ff1681565b60408051808201825292835260208084019283526000948552600a9052909220905181559051600190910155565b60065481565b600b546001600160a01b031690565b60075481565b61027761025a565b336001600160a01b038216146102a85760405162461bcd60e51b815260040161029f90610cb0565b60405180910390fd5b826102c55760405162461bcd60e51b815260040161029f90610c90565b6102ce826106da565b6102ea5760405162461bcd60e51b815260040161029f90610ce0565b6000838152602081905260409020546001600160a01b03161561031f5760405162461bcd60e51b815260040161029f90610d10565b6001600160a01b038216600090815260016020526040902054156103555760405162461bcd60e51b815260040161029f90610cf0565b60008381526020818152604080832080546001600160a01b0319166001600160a01b0387169081179091558352600190915290208390556103976002836106e0565b7f7051aac27f9b76ec8f37bd5796f2dcf402bd840a1c45c952a6eeb0e11bde099683836040516103c8929190610d3e565b60405180910390a1505050565b600854600654600754030190565b6000908152602081905260409020546001600160a01b031690565b6005546001600160a01b03163381146104295760405162461bcd60e51b815260040161029f90610cb0565b60095460ff161561044c5760405162461bcd60e51b815260040161029f90610cc0565b6009805460ff191660011790556005546040517fb8421a1acb5f1e701a4f11ecaad76fa438b3947e8dfd6960b6086130e68e0aed91610496916001600160a01b0390911690610c22565b60405180910390a150565b60085481565b6005546001600160a01b03163381146104d25760405162461bcd60e51b815260040161029f90610cb0565b60095460ff1615156001146104f95760405162461bcd60e51b815260040161029f90610c70565b600780546040805180820182528581524260208083019182526000858152600a909152839020915182555160019182015560065484540190935560089290925590517f5a978f4723b249ccf79cd7a658a8601ce1ff8b89fc770251a6be35216351ce32906103c8908390610d30565b336000908152600160205260408120546105945760405162461bcd60e51b815260040161029f90610cd0565b6105a560023363ffffffff61077e16565b156105c25760405162461bcd60e51b815260040161029f90610d20565b60095460ff1615156001146105e95760405162461bcd60e51b815260040161029f90610c70565b6006546008541061060c5760405162461bcd60e51b815260040161029f90610d00565b60006106166103d5565b6040805180820182529485524260208087019182526000848152600a909152919091209451855551600194850155600880549094019093555090919050565b6005546001600160a01b031681565b6001600160a01b031660009081526001602052604090205490565b6000818152600a60205260408120600101546106ad5760405162461bcd60e51b815260040161029f90610c60565b60065482816106b857fe5b06151592915050565b600a602052600090815260409020805460019091015482565b3b151590565b6001600160a01b0381166107065760405162461bcd60e51b815260040161029f90610ca0565b6001600160a01b0381166000908152602083905260409020541561073c5760405162461bcd60e51b815260040161029f90610c80565b600282015461076d5760018201546001600160a01b038216600090815260208490526040902042909101905561077a565b6002820180546000190190555b5050565b6001600160a01b03811660009081526020839052604090205442105b92915050565b803561079a81610d81565b803561079a81610d98565b6000602082840312156107c857600080fd5b60006107d484846107a0565b949350505050565b6000602082840312156107ee57600080fd5b60006107d484846107ab565b6000806040838503121561080d57600080fd5b600061081985856107ab565b925050602061082a858286016107a0565b9150509250929050565b60008060006060848603121561084957600080fd5b600061085586866107ab565b9350506020610866868287016107ab565b9250506040610877868287016107ab565b9150509250925092565b61088a81610d62565b82525050565b61088a81610d6d565b61088a81610d72565b60006108af601483610d59565b73109b1bd8dac8191bd95cc81b9bdd08195e1a5cdd60621b815260200192915050565b60006108df603b83610d59565b7f4368696c6420636861696e20686173206e6f74206265656e206163746976617481527f656420627920617574686f726974792061646472657373207965740000000000602082015260400192915050565b600061093e602383610d59565b7f54686520636f6e747261637420697320616c72656164792071756172616e74698152621b995960ea1b602082015260400192915050565b6000610983602383610d59565b7f53686f756c64206e6f742072656769737465722077697468207661756c74204981526204420360ec1b602082015260400192915050565b60006109c8602683610d59565b7f416e20656d70747920616464726573732063616e6e6f742062652071756172618152651b9d1a5b995960d21b602082015260400192915050565b6000610a10601e83610d59565b7f43616c6c6572206164647265737320697320756e617574686f72697a65640000815260200192915050565b6000610a49601d83610d59565b7f4368696c6420636861696e20616c726561647920616374697661746564000000815260200192915050565b6000610a82602783610d59565b7f5468652063616c6c206973206e6f742066726f6d20612072656769737465726581526619081d985d5b1d60ca1b602082015260400192915050565b6000610acb602f83610d59565b7f53686f756c64206e6f7420726567697374657220776974682061206e6f6e2d6381526e6f6e7472616374206164647265737360881b602082015260400192915050565b6000610b1c602883610d59565b7f546865207661756c7420636f6e747261637420697320616c726561647920726581526719da5cdd195c995960c21b602082015260400192915050565b6000610b66603383610d59565b7f4578636565646564206c696d6974206f66206465706f736974732070657220638152721a1a5b1908189b1bd8dac81a5b9d195c9d985b606a1b602082015260400192915050565b6000610bbb602283610d59565b7f546865207661756c7420494420697320616c7265616479207265676973746572815261195960f21b602082015260400192915050565b6000610bff601483610d59565b7315985d5b1d081a5cc81c5d585c985b9d1a5b995960621b815260200192915050565b6020810161079a8284610881565b6020810161079a8284610890565b60408101610c4c8285610899565b610c596020830184610899565b9392505050565b6020808252810161079a816108a2565b6020808252810161079a816108d2565b6020808252810161079a81610931565b6020808252810161079a81610976565b6020808252810161079a816109bb565b6020808252810161079a81610a03565b6020808252810161079a81610a3c565b6020808252810161079a81610a75565b6020808252810161079a81610abe565b6020808252810161079a81610b0f565b6020808252810161079a81610b59565b6020808252810161079a81610bae565b6020808252810161079a81610bf2565b6020810161079a8284610899565b60408101610d4c8285610899565b610c596020830184610881565b90815260200190565b600061079a82610d75565b151590565b90565b6001600160a01b031690565b610d8a81610d62565b8114610d9557600080fd5b50565b610d8a81610d7256fea365627a7a72315820f8e57464f1451fdc7c9b352b3635bd654cd04ee1d6d6dff3688a7db73ee874c26c6578706572696d656e74616cf564736f6c634300050b0040",
  "source": "pragma solidity 0.5.11;\npragma experimental ABIEncoderV2;\n\nimport \"../../src/framework/BlockController.sol\";\n\ncontract BlockControllerMock is BlockController {\n    address private maintainer;\n\n    constructor(\n        uint256 interval,\n        uint256 minExitPeriod,\n        uint256 initialImmuneVaults,\n        address authority\n    )\n        public\n        BlockController(\n            interval,\n            minExitPeriod,\n            initialImmuneVaults,\n            authority\n        )\n    {\n        maintainer = msg.sender;\n    }\n\n    /**\n     * override to make it non-abstract contract\n     * this mock file set the user that deploys the contract as maintainer to simplify the test.\n     */\n    function getMaintainer() public view returns (address) {\n        return maintainer;\n    }\n\n    function setBlock(uint256 _blockNum, bytes32 _root, uint256 _timestamp) external {\n        blocks[_blockNum] = BlockModel.Block(_root, _timestamp);\n    }\n}\n",
  "sourcePath": "/home/node/plasma-contracts/plasma_framework/contracts/mocks/framework/BlockControllerMock.sol",
  "compiler": {
    "name": "solc",
    "version": "0.5.11+commit.c082d0b4.Emscripten.clang"
  },
  "schemaVersion": "3.0.16",
  "updatedAt": "2020-04-07T14:07:49.530Z",
  "devdoc": {
    "methods": {
      "activateChildChain()": {
        "details": "This is a preserved action for authority account to start its nonce with 1.     Child chain rely ethereum nonce to protect re-org: https://git.io/JecDG     see discussion: https://git.io/JenaT, https://git.io/JecDO"
      },
      "registerVault(uint256,address)": {
        "details": "emits VaultRegistered event to notify clients",
        "params": {
          "_vaultAddress": "Address of the vault contract",
          "_vaultId": "The ID for the vault contract to register"
        }
      },
      "submitBlock(bytes32)": {
        "details": "emit BlockSubmitted eventBlock number jumps 'childBlockInterval' per submissionSee discussion in https://github.com/omisego/plasma-contracts/issues/233",
        "params": {
          "_blockRoot": "Merkle root of the Plasma block"
        }
      },
      "submitDepositBlock(bytes32)": {
        "details": "Block number adds 1 per submission; it's possible to have at most 'childBlockInterval' deposit blocks between two child chain blocks",
        "params": {
          "_blockRoot": "Merkle root of the Plasma block"
        },
        "return": "The deposit block number"
      }
    }
  },
  "userdoc": {
    "methods": {
      "activateChildChain()": {
        "notice": "Activates the child chain so that child chain can start to submit child blocks to root chainCan only be called once by the authority.Sets isChildChainActivated to true and emits the ChildChainActivated event."
      },
      "getMaintainer()": {
        "notice": "override to make it non-abstract contract this mock file set the user that deploys the contract as maintainer to simplify the test."
      },
      "registerVault(uint256,address)": {
        "notice": "Register a vault within the PlasmaFramework. Only a maintainer can make the call."
      },
      "submitBlock(bytes32)": {
        "notice": "Allows the authority to submit the Merkle root of a Plasma block"
      },
      "submitDepositBlock(bytes32)": {
        "notice": "Submits a block for deposit"
      },
      "vaultToId(address)": {
        "notice": "Public getter for retrieving vault ID with vault address"
      },
      "vaults(uint256)": {
        "notice": "Public getter for retrieving vault address with vault ID"
      }
    }
  }
}