{
  "contractName": "BondSize",
  "abi": [
    {
      "constant": true,
      "inputs": [],
      "name": "WAITING_PERIOD",
      "outputs": [
        {
          "internalType": "uint64",
          "name": "",
          "type": "uint64"
        }
      ],
      "payable": false,
      "stateMutability": "view",
      "type": "function"
    }
  ],
  "bytecode": "0x6097610024600b82828239805160001a607314601757fe5b30600052607381538281f3fe730000000000000000000000000000000000000000301460806040526004361060335760003560e01c80636f85c7e4146038575b600080fd5b603e605b565b6040805167ffffffffffffffff9092168252519081900360200190f35b6202a3008156fea265627a7a72315820e87671b832ffe49e4c482e25f434b0a3ba5c652bdfbea8c4cfccbe78013adb2364736f6c634300050b0032",
  "source": "pragma solidity 0.5.11;\n\n/**\n * @notice Stores an updateable bond size\n * @dev Bond design details at https://github.com/omisego/research/issues/107#issuecomment-525267486\n * @dev Security depends on the min/max value, which can be updated to compare to the current bond size, plus the waiting period\n *      Min/max value of the next bond size prevents the possibility to set bond size too low or too high, which risks breaking the system\n *      Waiting period ensures that a user does not get an unexpected bond without notice.\n */\nlibrary BondSize {\n    uint64 constant public WAITING_PERIOD = 2 days;\n\n    /**\n     * @dev Struct is designed to be packed into two 32-bytes storage slots\n     * @param previousBondSize The bond size prior to upgrade, which should remain the same until the waiting period completes\n     * @param updatedBondSize The bond size to use once the waiting period completes\n     * @param effectiveUpdateTime A timestamp for the end of the waiting period, when the updated bond size is implemented\n     * @param lowerBoundDivisor The divisor that checks the lower bound for an update. Each update cannot be lower than (current bond / lowerBoundDivisor)\n     * @param upperBoundMultiplier The multiplier that checks the upper bound for an update. Each update cannot be larger than (current bond * upperBoundMultiplier)\n     */\n    struct Params {\n        uint128 previousBondSize;\n        uint128 updatedBondSize;\n        uint128 effectiveUpdateTime;\n        uint16 lowerBoundDivisor;\n        uint16 upperBoundMultiplier;\n    }\n\n    function buildParams(uint128 initialBondSize, uint16 lowerBoundDivisor, uint16 upperBoundMultiplier)\n        internal\n        pure\n        returns (Params memory)\n    {\n        // Set the initial value far into the future\n        uint128 initialEffectiveUpdateTime = 2 ** 63;\n        return Params({\n            previousBondSize: initialBondSize,\n            updatedBondSize: 0,\n            effectiveUpdateTime: initialEffectiveUpdateTime,\n            lowerBoundDivisor: lowerBoundDivisor,\n            upperBoundMultiplier: upperBoundMultiplier\n        });\n    }\n\n    /**\n    * @notice Updates the bond size\n    * @dev The new bond size value updates once the two day waiting period completes\n    * @param newBondSize The new bond size\n    */\n    function updateBondSize(Params storage self, uint128 newBondSize) internal {\n        validateBondSize(self, newBondSize);\n\n        if (self.updatedBondSize != 0 && now >= self.effectiveUpdateTime) {\n            self.previousBondSize = self.updatedBondSize;\n        }\n        self.updatedBondSize = newBondSize;\n        self.effectiveUpdateTime = uint64(now) + WAITING_PERIOD;\n    }\n\n    /**\n    * @notice Returns the current bond size\n    */\n    function bondSize(Params memory self) internal view returns (uint128) {\n        if (now < self.effectiveUpdateTime) {\n            return self.previousBondSize;\n        } else {\n            return self.updatedBondSize;\n        }\n    }\n\n    function validateBondSize(Params memory self, uint128 newBondSize) private view {\n        uint128 currentBondSize = bondSize(self);\n        require(newBondSize > 0, \"Bond size cannot be zero\");\n        require(newBondSize >= currentBondSize / self.lowerBoundDivisor, \"Bond size is too low\");\n        require(uint256(newBondSize) <= uint256(currentBondSize) * self.upperBoundMultiplier, \"Bond size is too high\");\n    }\n}\n",
  "sourcePath": "/home/node/plasma-contracts/plasma_framework/contracts/src/exits/utils/BondSize.sol",
  "compiler": {
    "name": "solc",
    "version": "0.5.11+commit.c082d0b4.Emscripten.clang"
  },
  "schemaVersion": "3.0.16",
  "updatedAt": "2020-04-07T14:07:49.772Z",
  "devdoc": {
    "details": "Bond design details at https://github.com/omisego/research/issues/107#issuecomment-525267486Security depends on the min/max value, which can be updated to compare to the current bond size, plus the waiting period     Min/max value of the next bond size prevents the possibility to set bond size too low or too high, which risks breaking the system     Waiting period ensures that a user does not get an unexpected bond without notice.",
    "methods": {}
  },
  "userdoc": {
    "methods": {},
    "notice": "Stores an updateable bond size"
  }
}