{
  "contractName": "BondSizeMock",
  "abi": [
    {
      "constant": true,
      "inputs": [],
      "name": "bond",
      "outputs": [
        {
          "internalType": "uint128",
          "name": "previousBondSize",
          "type": "uint128"
        },
        {
          "internalType": "uint128",
          "name": "updatedBondSize",
          "type": "uint128"
        },
        {
          "internalType": "uint128",
          "name": "effectiveUpdateTime",
          "type": "uint128"
        },
        {
          "internalType": "uint16",
          "name": "lowerBoundDivisor",
          "type": "uint16"
        },
        {
          "internalType": "uint16",
          "name": "upperBoundMultiplier",
          "type": "uint16"
        }
      ],
      "payable": false,
      "stateMutability": "view",
      "type": "function"
    },
    {
      "inputs": [
        {
          "internalType": "uint128",
          "name": "initialBondSize",
          "type": "uint128"
        },
        {
          "internalType": "uint16",
          "name": "lowerBoundDivisor",
          "type": "uint16"
        },
        {
          "internalType": "uint16",
          "name": "upperBoundMultiplier",
          "type": "uint16"
        }
      ],
      "payable": false,
      "stateMutability": "nonpayable",
      "type": "constructor"
    },
    {
      "constant": true,
      "inputs": [],
      "name": "bondSize",
      "outputs": [
        {
          "internalType": "uint128",
          "name": "",
          "type": "uint128"
        }
      ],
      "payable": false,
      "stateMutability": "view",
      "type": "function"
    },
    {
      "constant": false,
      "inputs": [
        {
          "internalType": "uint128",
          "name": "newBondSize",
          "type": "uint128"
        }
      ],
      "name": "updateBondSize",
      "outputs": [],
      "payable": false,
      "stateMutability": "nonpayable",
      "type": "function"
    }
  ],
  "bytecode": "0x608060405234801561001057600080fd5b506040516106263803806106268339818101604052606081101561003357600080fd5b5080516020808301516040909301519192919061005d908490849084906103f4610100821b17901c565b80516000805460208401516001600160801b03199182166001600160801b0394851617841670010000000000000000000000000000000091851682021790925560408401516001805460608701516080909701519316919094161761ffff60801b191661ffff9485169092029190911761ffff60901b19167201000000000000000000000000000000000000939091169290920291909117905550610177915050565b610108610149565b506040805160a0810182526001600160801b03949094168452600060208501526780000000000000009084015261ffff918216606084015216608082015290565b6040805160a08101825260008082526020820181905291810182905260608101829052608081019190915290565b6104a0806101866000396000f3fe608060405234801561001057600080fd5b50600436106100415760003560e01c80635faded721461004657806364c9ec6f1461006e5780637099c581146100b7575b600080fd5b61006c6004803603602081101561005c57600080fd5b50356001600160801b03166100db565b005b6100766100ef565b604080516001600160801b0396871681529486166020860152929094168383015261ffff908116606084015292909216608082015290519081900360a00190f35b6100bf610126565b604080516001600160801b039092168252519081900360200190f35b6100ec60008263ffffffff61018916565b50565b6000546001546001600160801b0380831692600160801b908190048216929182169161ffff918104821691600160901b9091041685565b6040805160a081018252600080546001600160801b038082168452600160801b91829004811660208501526001549081169484019490945261ffff90840481166060840152600160901b909304909216608082015261018490610278565b905090565b6040805160a08101825283546001600160801b038082168352600160801b918290048116602084015260018601549081169383019390935261ffff90830481166060830152600160901b90920490911660808201526101e890826102a3565b8154600160801b90046001600160801b031615801590610215575060018201546001600160801b03164210155b1561023c578154600160801b81046001600160801b03166001600160801b03199091161782555b81546001600160801b03918216600160801b02911617815560010180546001600160801b03191667ffffffffffffffff426202a3000116179055565b600081604001516001600160801b03164210156102975750805161029e565b5060208101515b919050565b60006102ae83610278565b90506000826001600160801b03161161030e576040805162461bcd60e51b815260206004820152601860248201527f426f6e642073697a652063616e6e6f74206265207a65726f0000000000000000604482015290519081900360640190fd5b826060015161ffff16816001600160801b03168161032857fe5b046001600160801b0316826001600160801b03161015610386576040805162461bcd60e51b8152602060048201526014602482015273426f6e642073697a6520697320746f6f206c6f7760601b604482015290519081900360640190fd5b826080015161ffff16816001600160801b031602826001600160801b031611156103ef576040805162461bcd60e51b8152602060048201526015602482015274084dedcc840e6d2f4ca40d2e640e8dede40d0d2ced605b1b604482015290519081900360640190fd5b505050565b6103fc61043d565b506040805160a0810182526001600160801b03949094168452600060208501526780000000000000009084015261ffff918216606084015216608082015290565b6040805160a0810182526000808252602082018190529181018290526060810182905260808101919091529056fea265627a7a72315820af5d0ff2aa44293f45097dd157c45154531bf1cbb8a3a971b3cc431029fc433e64736f6c634300050b0032",
  "source": "pragma solidity 0.5.11;\n\nimport \"../../src/exits/utils/BondSize.sol\";\n\ncontract BondSizeMock {\n    using BondSize for BondSize.Params;\n\n    BondSize.Params public bond;\n\n    constructor (uint128 initialBondSize, uint16 lowerBoundDivisor, uint16 upperBoundMultiplier) public {\n        bond = BondSize.buildParams(initialBondSize, lowerBoundDivisor, upperBoundMultiplier);\n    }\n\n    function bondSize() public view returns (uint128) {\n        return bond.bondSize();\n    }\n\n    function updateBondSize(uint128 newBondSize) public {\n        bond.updateBondSize(newBondSize);\n    }\n}\n",
  "sourcePath": "/home/node/plasma-contracts/plasma_framework/contracts/mocks/utils/BondSizeMock.sol",
  "compiler": {
    "name": "solc",
    "version": "0.5.11+commit.c082d0b4.Emscripten.clang"
  },
  "schemaVersion": "3.0.16",
  "updatedAt": "2020-04-07T14:07:49.606Z",
  "devdoc": {
    "methods": {}
  },
  "userdoc": {
    "methods": {}
  }
}