{
  "contractName": "DummyVault",
  "abi": [
    {
      "constant": false,
      "inputs": [
        {
          "internalType": "address",
          "name": "_contract",
          "type": "address"
        }
      ],
      "name": "setVaultRegistry",
      "outputs": [],
      "payable": false,
      "stateMutability": "nonpayable",
      "type": "function"
    },
    {
      "constant": true,
      "inputs": [],
      "name": "checkOnlyFromNonQuarantinedVault",
      "outputs": [
        {
          "internalType": "bool",
          "name": "",
          "type": "bool"
        }
      ],
      "payable": false,
      "stateMutability": "view",
      "type": "function"
    },
    {
      "constant": false,
      "inputs": [
        {
          "internalType": "address",
          "name": "_contract",
          "type": "address"
        }
      ],
      "name": "setBlockController",
      "outputs": [],
      "payable": false,
      "stateMutability": "nonpayable",
      "type": "function"
    },
    {
      "constant": false,
      "inputs": [
        {
          "internalType": "bytes32",
          "name": "_blockRoot",
          "type": "bytes32"
        }
      ],
      "name": "submitDepositBlock",
      "outputs": [],
      "payable": false,
      "stateMutability": "nonpayable",
      "type": "function"
    }
  ],
  "bytecode": "0x608060405234801561001057600080fd5b5061024e806100206000396000f3fe608060405234801561001057600080fd5b506004361061004c5760003560e01c80630971f0e0146100515780638b7c7ebe1461006d578063be5ac69814610095578063cb91dd7b146100b2575b600080fd5b6100596100d8565b604080519115158252519081900360200190f35b6100936004803603602081101561008357600080fd5b50356001600160a01b0316610158565b005b610093600480360360208110156100ab57600080fd5b503561017a565b610093600480360360208110156100c857600080fd5b50356001600160a01b03166101f7565b60008060009054906101000a90046001600160a01b03166001600160a01b0316630971f0e06040518163ffffffff1660e01b815260040160206040518083038186803b15801561012757600080fd5b505afa15801561013b573d6000803e3d6000fd5b505050506040513d602081101561015157600080fd5b5051905090565b600180546001600160a01b0319166001600160a01b0392909216919091179055565b600154604080516317cb58d360e31b81526004810184905290516001600160a01b039092169163be5ac698916024808201926020929091908290030181600087803b1580156101c857600080fd5b505af11580156101dc573d6000803e3d6000fd5b505050506040513d60208110156101f257600080fd5b505050565b600080546001600160a01b0319166001600160a01b039290921691909117905556fea265627a7a7231582049b61fe0099563340a6cfef88cc2869e37bb0acc01e54ac71d800c0530db617764736f6c634300050b0032",
  "source": "pragma solidity 0.5.11;\n\nimport \"./registries/VaultRegistryMock.sol\";\nimport \"../../src/framework/BlockController.sol\";\n\ncontract DummyVault {\n    VaultRegistryMock internal vaultRegistry;\n    BlockController internal blockController;\n\n    // setter function only for test, not a real Vault function\n    function setVaultRegistry(address _contract) public {\n        vaultRegistry = VaultRegistryMock(_contract);\n    }\n\n    function checkOnlyFromNonQuarantinedVault() public view returns (bool) {\n        return vaultRegistry.checkOnlyFromNonQuarantinedVault();\n    }\n\n    // setter function only for test, not a real Vault function\n    function setBlockController(address _contract) public {\n        blockController = BlockController(_contract);\n    }\n\n    function submitDepositBlock(bytes32 _blockRoot) public {\n        blockController.submitDepositBlock(_blockRoot);\n    }\n}\n",
  "sourcePath": "/home/node/plasma-contracts/plasma_framework/contracts/mocks/framework/DummyVault.sol",
  "compiler": {
    "name": "solc",
    "version": "0.5.11+commit.c082d0b4.Emscripten.clang"
  },
  "schemaVersion": "3.0.16",
  "updatedAt": "2020-04-07T14:07:49.536Z",
  "devdoc": {
    "methods": {}
  },
  "userdoc": {
    "methods": {}
  }
}