{
  "contractName": "DummyExitGame",
  "abi": [
    {
      "constant": true,
      "inputs": [],
      "name": "erc20Vault",
      "outputs": [
        {
          "internalType": "contract Erc20Vault",
          "name": "",
          "type": "address"
        }
      ],
      "payable": false,
      "stateMutability": "view",
      "type": "function"
    },
    {
      "constant": true,
      "inputs": [],
      "name": "exitGameController",
      "outputs": [
        {
          "internalType": "contract ExitGameController",
          "name": "",
          "type": "address"
        }
      ],
      "payable": false,
      "stateMutability": "view",
      "type": "function"
    },
    {
      "constant": true,
      "inputs": [],
      "name": "exitGameRegistry",
      "outputs": [
        {
          "internalType": "contract ExitGameRegistryMock",
          "name": "",
          "type": "address"
        }
      ],
      "payable": false,
      "stateMutability": "view",
      "type": "function"
    },
    {
      "constant": true,
      "inputs": [],
      "name": "priorityFromEnqueue",
      "outputs": [
        {
          "internalType": "uint256",
          "name": "",
          "type": "uint256"
        }
      ],
      "payable": false,
      "stateMutability": "view",
      "type": "function"
    },
    {
      "constant": true,
      "inputs": [],
      "name": "ethVault",
      "outputs": [
        {
          "internalType": "contract EthVault",
          "name": "",
          "type": "address"
        }
      ],
      "payable": false,
      "stateMutability": "view",
      "type": "function"
    },
    {
      "anonymous": false,
      "inputs": [
        {
          "indexed": true,
          "internalType": "uint256",
          "name": "exitId",
          "type": "uint256"
        },
        {
          "indexed": false,
          "internalType": "uint256",
          "name": "vaultId",
          "type": "uint256"
        },
        {
          "indexed": false,
          "internalType": "address",
          "name": "ercContract",
          "type": "address"
        }
      ],
      "name": "ExitFinalizedFromDummyExitGame",
      "type": "event"
    },
    {
      "constant": false,
      "inputs": [
        {
          "internalType": "uint160",
          "name": "exitId",
          "type": "uint160"
        },
        {
          "internalType": "uint256",
          "name": "vaultId",
          "type": "uint256"
        },
        {
          "internalType": "address",
          "name": "ercContract",
          "type": "address"
        }
      ],
      "name": "processExit",
      "outputs": [],
      "payable": false,
      "stateMutability": "nonpayable",
      "type": "function"
    },
    {
      "constant": false,
      "inputs": [
        {
          "internalType": "address",
          "name": "_contract",
          "type": "address"
        }
      ],
      "name": "setExitGameRegistry",
      "outputs": [],
      "payable": false,
      "stateMutability": "nonpayable",
      "type": "function"
    },
    {
      "constant": true,
      "inputs": [],
      "name": "checkOnlyFromNonQuarantinedExitGame",
      "outputs": [
        {
          "internalType": "bool",
          "name": "",
          "type": "bool"
        }
      ],
      "payable": false,
      "stateMutability": "view",
      "type": "function"
    },
    {
      "constant": false,
      "inputs": [
        {
          "internalType": "address",
          "name": "_contract",
          "type": "address"
        }
      ],
      "name": "setExitGameController",
      "outputs": [],
      "payable": false,
      "stateMutability": "nonpayable",
      "type": "function"
    },
    {
      "constant": false,
      "inputs": [
        {
          "internalType": "uint256",
          "name": "vaultId",
          "type": "uint256"
        },
        {
          "internalType": "address",
          "name": "token",
          "type": "address"
        },
        {
          "internalType": "uint64",
          "name": "exitableAt",
          "type": "uint64"
        },
        {
          "internalType": "uint256",
          "name": "txPos",
          "type": "uint256"
        },
        {
          "internalType": "uint160",
          "name": "exitId",
          "type": "uint160"
        },
        {
          "internalType": "contract IExitProcessor",
          "name": "exitProcessor",
          "type": "address"
        }
      ],
      "name": "enqueue",
      "outputs": [],
      "payable": false,
      "stateMutability": "nonpayable",
      "type": "function"
    },
    {
      "constant": false,
      "inputs": [
        {
          "internalType": "bytes32[]",
          "name": "outputIds",
          "type": "bytes32[]"
        },
        {
          "internalType": "uint160",
          "name": "exitId",
          "type": "uint160"
        }
      ],
      "name": "proxyBatchFlagOutputsFinalized",
      "outputs": [],
      "payable": false,
      "stateMutability": "nonpayable",
      "type": "function"
    },
    {
      "constant": false,
      "inputs": [
        {
          "internalType": "bytes32",
          "name": "outputId",
          "type": "bytes32"
        },
        {
          "internalType": "uint160",
          "name": "exitId",
          "type": "uint160"
        }
      ],
      "name": "proxyFlagOutputFinalized",
      "outputs": [],
      "payable": false,
      "stateMutability": "nonpayable",
      "type": "function"
    },
    {
      "constant": false,
      "inputs": [
        {
          "internalType": "contract EthVault",
          "name": "vault",
          "type": "address"
        }
      ],
      "name": "setEthVault",
      "outputs": [],
      "payable": false,
      "stateMutability": "nonpayable",
      "type": "function"
    },
    {
      "constant": false,
      "inputs": [
        {
          "internalType": "address payable",
          "name": "target",
          "type": "address"
        },
        {
          "internalType": "uint256",
          "name": "amount",
          "type": "uint256"
        }
      ],
      "name": "proxyEthWithdraw",
      "outputs": [],
      "payable": false,
      "stateMutability": "nonpayable",
      "type": "function"
    },
    {
      "constant": false,
      "inputs": [
        {
          "internalType": "contract Erc20Vault",
          "name": "vault",
          "type": "address"
        }
      ],
      "name": "setErc20Vault",
      "outputs": [],
      "payable": false,
      "stateMutability": "nonpayable",
      "type": "function"
    },
    {
      "constant": false,
      "inputs": [
        {
          "internalType": "address payable",
          "name": "target",
          "type": "address"
        },
        {
          "internalType": "address",
          "name": "token",
          "type": "address"
        },
        {
          "internalType": "uint256",
          "name": "amount",
          "type": "uint256"
        }
      ],
      "name": "proxyErc20Withdraw",
      "outputs": [],
      "payable": false,
      "stateMutability": "nonpayable",
      "type": "function"
    }
  ],
  "bytecode": "0x608060405234801561001057600080fd5b50610d40806100206000396000f3fe608060405234801561001057600080fd5b50600436106101005760003560e01c80636849635111610097578063ca98528211610066578063ca985282146101d7578063d8da49a7146101ea578063e2236915146101fd578063fe2a58311461021257610100565b8063684963511461018b5780636cc10b6b1461019e5780638829c38d146101b1578063a107adf6146101c457610100565b80633a6f7405116100d35780633a6f74051461014857806352772a371461015d5780635a20329c146101705780635b7fa1e31461017857610100565b806304d6028d14610105578063090f92211461011a5780632babfe60146101385780632c4439fd14610140575b600080fd5b61011861011336600461084c565b610225565b005b610122610247565b60405161012f9190610b6e565b60405180910390f35b610122610256565b610122610265565b610150610274565b60405161012f9190610b9c565b61011861016b36600461071b565b61027a565b61012261029c565b610118610186366004610741565b6102ab565b61011861019936600461086a565b610315565b6101186101ac3660046108cb565b61035d565b6101186101bf36600461071b565b6103fa565b6101186101d236600461078e565b61041c565b6101186101e536600461084c565b610484565b6101186101f836600461082d565b6104a6565b6102056104d8565b60405161012f9190610b45565b6101186102203660046107c8565b61055a565b600380546001600160a01b0319166001600160a01b0392909216919091179055565b6004546001600160a01b031681565b6002546001600160a01b031681565b6001546001600160a01b031681565b60005481565b600180546001600160a01b0319166001600160a01b0392909216919091179055565b6003546001600160a01b031681565b60048054604051636ce5768960e11b81526001600160a01b039091169163d9caed12916102de9187918791879101610adb565b600060405180830381600087803b1580156102f857600080fd5b505af115801561030c573d6000803e3d6000fd5b50505050505050565b826001600160a01b03167ffab4397a982a8c2a5c2546ec85d53fcff484a002948abbfb39479a3a475bd0908383604051610350929190610baa565b60405180910390a2505050565b6002546001600160a01b0316637f8523d187878761037a8861058c565b87876040518763ffffffff1660e01b815260040161039d96959493929190610bc5565b602060405180830381600087803b1580156103b757600080fd5b505af11580156103cb573d6000803e3d6000fd5b505050506040513d601f19601f820116820180604052506103ef91908101906108ad565b600055505050505050565b600280546001600160a01b0319166001600160a01b0392909216919091179055565b60035460405163f3fef3a360e01b81526001600160a01b039091169063f3fef3a39061044e9085908590600401610b03565b600060405180830381600087803b15801561046857600080fd5b505af115801561047c573d6000803e3d6000fd5b505050505050565b600480546001600160a01b0319166001600160a01b0392909216919091179055565b600254604051630e5ae5c760e31b81526001600160a01b03909116906372d72e389061044e9085908590600401610b53565b6001546040805163e223691560e01b815290516000926001600160a01b03169163e2236915916004808301926020929190829003018186803b15801561051d57600080fd5b505afa158015610531573d6000803e3d6000fd5b505050506040513d601f19601f82011682018060405250610555919081019061080f565b905090565b600254604051634e7132d360e11b81526001600160a01b0390911690639ce265a69061044e9085908590600401610b25565b610594610629565b633b9aca00808304906127109084068190049084066429f16b11c68311156105d75760405162461bcd60e51b81526004016105ce90610b7c565b60405180910390fd5b61ffff8211156105f95760405162461bcd60e51b81526004016105ce90610b8c565b6040805160608101825267ffffffffffffffff909416845261ffff92831660208501529116908201529050919050565b604080516060810182526000808252602082018190529181019190915290565b803561065481610cb9565b92915050565b600082601f83011261066b57600080fd5b813561067e61067982610c47565b610c20565b915081818352602084019350602081019050838560208402820111156106a357600080fd5b60005b838110156106cf57816106b988826106e4565b84525060209283019291909101906001016106a6565b5050505092915050565b805161065481610cd0565b803561065481610cd9565b803561065481610ce2565b803561065481610ceb565b805161065481610cd9565b803561065481610cf4565b60006020828403121561072d57600080fd5b60006107398484610649565b949350505050565b60008060006060848603121561075657600080fd5b60006107628686610649565b935050602061077386828701610649565b9250506040610784868287016106e4565b9150509250925092565b600080604083850312156107a157600080fd5b60006107ad8585610649565b92505060206107be858286016106e4565b9150509250929050565b600080604083850312156107db57600080fd5b823567ffffffffffffffff8111156107f257600080fd5b6107fe8582860161065a565b92505060206107be858286016106fa565b60006020828403121561082157600080fd5b600061073984846106d9565b6000806040838503121561084057600080fd5b60006107fe85856106e4565b60006020828403121561085e57600080fd5b600061073984846106ef565b60008060006060848603121561087f57600080fd5b600061088b86866106fa565b935050602061089c868287016106e4565b925050604061078486828701610649565b6000602082840312156108bf57600080fd5b60006107398484610705565b60008060008060008060c087890312156108e457600080fd5b60006108f089896106e4565b965050602061090189828a01610649565b955050604061091289828a01610710565b945050606061092389828a016106e4565b935050608061093489828a016106fa565b92505060a061094589828a016106ef565b9150509295509295509295565b600061095e83836109d7565b505060200190565b61096f81610c7b565b82525050565b600061098082610c6e565b61098a8185610c72565b935061099583610c68565b8060005b838110156109c35781516109ad8882610952565b97506109b883610c68565b925050600101610999565b509495945050505050565b61096f81610c86565b61096f81610c8b565b61096f81610c8e565b60006109f6603483610c72565b7f626c6f636b4e756d2065786365656473206d61782073697a6520616c6c6f77658152736420696e20506c61736d614672616d65776f726b60601b602082015260400192915050565b6000610a4c602283610c72565b7f7478496e6465782065786365656473207468652073697a65206f662075696e74815261189b60f11b602082015260400192915050565b80516060830190610a948482610ad2565b506020820151610aa76020850182610ac9565b506040820151610aba6040850182610ac9565b50505050565b61096f81610ca0565b61096f81610c99565b61096f81610cac565b60608101610ae98286610966565b610af66020830185610966565b61073960408301846109d7565b60408101610b118285610966565b610b1e60208301846109d7565b9392505050565b60408082528101610b368185610975565b9050610b1e6020830184610ac0565b6020810161065482846109ce565b60408101610b6182856109d7565b610b1e6020830184610ac0565b6020810161065482846109e0565b60208082528101610654816109e9565b6020808252810161065481610a3f565b6020810161065482846109d7565b60408101610bb882856109d7565b610b1e6020830184610966565b6101008101610bd482896109d7565b610be16020830188610966565b610bee6040830187610ad2565b610bfb6060830186610a83565b610c0860c0830185610ac0565b610c1560e08301846109e0565b979650505050505050565b60405181810167ffffffffffffffff81118282101715610c3f57600080fd5b604052919050565b600067ffffffffffffffff821115610c5e57600080fd5b5060209081020190565b60200190565b5190565b90815260200190565b600061065482610ca0565b151590565b90565b600061065482610c7b565b61ffff1690565b6001600160a01b031690565b67ffffffffffffffff1690565b610cc281610c7b565b8114610ccd57600080fd5b50565b610cc281610c86565b610cc281610c8b565b610cc281610c8e565b610cc281610ca0565b610cc281610cac56fea365627a7a72315820c62cd63085ac93f95e5f7796244897bb470cb880acf5a7a6fafbe6f7450c66676c6578706572696d656e74616cf564736f6c634300050b0040",
  "source": "pragma solidity 0.5.11;\npragma experimental ABIEncoderV2;\n\nimport \"./registries/ExitGameRegistryMock.sol\";\nimport \"../../src/framework/ExitGameController.sol\";\nimport \"../../src/framework/interfaces/IExitProcessor.sol\";\nimport \"../../src/vaults/Erc20Vault.sol\";\nimport \"../../src/vaults/EthVault.sol\";\nimport \"../../src/utils/PosLib.sol\";\n\ncontract DummyExitGame is IExitProcessor {\n    uint256 public priorityFromEnqueue;\n\n    ExitGameRegistryMock public exitGameRegistry;\n    ExitGameController public exitGameController;\n    EthVault public ethVault;\n    Erc20Vault public erc20Vault;\n\n    event ExitFinalizedFromDummyExitGame (\n        uint256 indexed exitId,\n        uint256 vaultId,\n        address ercContract\n    );\n\n    // override ExitProcessor interface\n    function processExit(uint160 exitId, uint256 vaultId, address ercContract) public {\n        emit ExitFinalizedFromDummyExitGame(exitId, vaultId, ercContract);\n    }\n\n    // setter function only for test, not a real Exit Game function\n    function setExitGameRegistry(address _contract) public {\n        exitGameRegistry = ExitGameRegistryMock(_contract);\n    }\n\n    function checkOnlyFromNonQuarantinedExitGame() public view returns (bool) {\n        return exitGameRegistry.checkOnlyFromNonQuarantinedExitGame();\n    }\n\n    // setter function only for test, not a real Exit Game function\n    function setExitGameController(address _contract) public {\n        exitGameController = ExitGameController(_contract);\n    }\n\n    function enqueue(uint256 vaultId, address token, uint64 exitableAt, uint256 txPos, uint160 exitId, IExitProcessor exitProcessor)\n        public\n    {\n        priorityFromEnqueue = exitGameController.enqueue(vaultId, token, exitableAt, PosLib.decode(txPos), exitId, exitProcessor);\n    }\n\n    function proxyBatchFlagOutputsFinalized(bytes32[] memory outputIds, uint160 exitId) public {\n        exitGameController.batchFlagOutputsFinalized(outputIds, exitId);\n    }\n\n    function proxyFlagOutputFinalized(bytes32 outputId, uint160 exitId) public {\n        exitGameController.flagOutputFinalized(outputId, exitId);\n    }\n\n    // setter function only for test, not a real Exit Game function\n    function setEthVault(EthVault vault) public {\n        ethVault = vault;\n    }\n\n    function proxyEthWithdraw(address payable target, uint256 amount) public {\n        ethVault.withdraw(target, amount);\n    }\n\n    // setter function only for test, not a real Exit Game function\n    function setErc20Vault(Erc20Vault vault) public {\n        erc20Vault = vault;\n    }\n\n    function proxyErc20Withdraw(address payable target, address token, uint256 amount) public {\n        erc20Vault.withdraw(target, token, amount);\n    }\n}\n",
  "sourcePath": "/home/node/plasma-contracts/plasma_framework/contracts/mocks/framework/DummyExitGame.sol",
  "compiler": {
    "name": "solc",
    "version": "0.5.11+commit.c082d0b4.Emscripten.clang"
  },
  "schemaVersion": "3.0.16",
  "updatedAt": "2020-04-07T14:07:49.532Z",
  "devdoc": {
    "methods": {}
  },
  "userdoc": {
    "methods": {}
  }
}