{
  "contractName": "Erc20DepositVerifier",
  "abi": [
    {
      "constant": true,
      "inputs": [],
      "name": "depositTxType",
      "outputs": [
        {
          "internalType": "uint256",
          "name": "",
          "type": "uint256"
        }
      ],
      "payable": false,
      "stateMutability": "view",
      "type": "function"
    },
    {
      "constant": true,
      "inputs": [],
      "name": "supportedOutputType",
      "outputs": [
        {
          "internalType": "uint256",
          "name": "",
          "type": "uint256"
        }
      ],
      "payable": false,
      "stateMutability": "view",
      "type": "function"
    },
    {
      "inputs": [
        {
          "internalType": "uint256",
          "name": "txType",
          "type": "uint256"
        },
        {
          "internalType": "uint256",
          "name": "outputType",
          "type": "uint256"
        }
      ],
      "payable": false,
      "stateMutability": "nonpayable",
      "type": "constructor"
    },
    {
      "constant": true,
      "inputs": [
        {
          "internalType": "bytes",
          "name": "depositTx",
          "type": "bytes"
        },
        {
          "internalType": "address",
          "name": "sender",
          "type": "address"
        },
        {
          "internalType": "address",
          "name": "vault",
          "type": "address"
        }
      ],
      "name": "verify",
      "outputs": [
        {
          "internalType": "address",
          "name": "owner",
          "type": "address"
        },
        {
          "internalType": "address",
          "name": "token",
          "type": "address"
        },
        {
          "internalType": "uint256",
          "name": "amount",
          "type": "uint256"
        }
      ],
      "payable": false,
      "stateMutability": "view",
      "type": "function"
    }
  ],
  "bytecode": "0x608060405234801561001057600080fd5b5060405161194c38038061194c8339818101604052604081101561003357600080fd5b5080516020909101516000919091556001556118f8806100546000396000f3fe608060405234801561001057600080fd5b50600436106100415760003560e01c806303c4de6d14610046578063411de05b14610060578063b2e1cd3e14610068575b600080fd5b61004e610113565b60408051918252519081900360200190f35b61004e610119565b6100e96004803603606081101561007e57600080fd5b81019060208101813564010000000081111561009957600080fd5b8201836020820111156100ab57600080fd5b803590602001918460018302840111640100000000831117156100cd57600080fd5b91935091506001600160a01b038135811691602001351661011f565b604080516001600160a01b0394851681529290931660208301528183015290519081900360600190f35b60005481565b60015481565b600080600061012c6115cf565b61016b88888080601f01602080910402602001604051908101604052809392919081815260200183838082843760009201919091525061053d92505050565b6000548151919250146101c5576040805162461bcd60e51b815260206004820152601860248201527f496e76616c6964207472616e73616374696f6e20747970650000000000000000604482015290519081900360640190fd5b6020810151511561021d576040805162461bcd60e51b815260206004820152601b60248201527f4465706f736974206d7573742068617665206e6f20696e707574730000000000604482015290519081900360640190fd5b8060400151516001146102615760405162461bcd60e51b815260040180806020018281038252602481526020018061180a6024913960400191505060405180910390fd5b60006001600160a01b0316816040015160008151811061027d57fe5b6020026020010151604001516001600160a01b031614156102e5576040805162461bcd60e51b815260206004820152601d60248201527f496e76616c6964206f75747075742063757272656e6379202845544829000000604482015290519081900360640190fd5b60015481604001516000815181106102f957fe5b6020026020010151600001511461034d576040805162461bcd60e51b8152602060048201526013602482015272496e76616c6964206f7574707574207479706560681b604482015290519081900360640190fd5b6000610370826040015160008151811061036357fe5b602002602001015161055e565b9050866001600160a01b0316816001600160a01b0316146103c25760405162461bcd60e51b815260040180806020018281038252602f81526020018061182e602f913960400191505060405180910390fd5b600082604001516000815181106103d557fe5b602002602001015160400151905082604001516000815181106103f457fe5b602002602001015160600151816001600160a01b031663dd62ed3e848a6040518363ffffffff1660e01b815260040180836001600160a01b03166001600160a01b03168152602001826001600160a01b03166001600160a01b031681526020019250505060206040518083038186803b15801561047057600080fd5b505afa158015610484573d6000803e3d6000fd5b505050506040513d602081101561049a57600080fd5b505110156104ef576040805162461bcd60e51b815260206004820152601d60248201527f546f6b656e732068617665206e6f74206265656e20617070726f766564000000604482015290519081900360640190fd5b81836040015160008151811061050157fe5b602002602001015160400151846040015160008151811061051e57fe5b6020026020010151606001519550955095505050509450945094915050565b6105456115cf565b61055661055183610568565b610772565b90505b919050565b6020015160601c90565b610570611601565b606061058361057e84610a24565b610a49565b80519091506005146105dc576040805162461bcd60e51b815260206004820152601f60248201527f496e76616c696420656e636f64696e67206f66207472616e73616374696f6e00604482015290519081900360640190fd5b60006105fb826000815181106105ee57fe5b6020026020010151610ba1565b905060008111610652576040805162461bcd60e51b815260206004820152601e60248201527f5472616e73616374696f6e2074797065206d757374206e6f7420626520300000604482015290519081900360640190fd5b60606106718360028151811061066457fe5b6020026020010151610a49565b9050606081516040519080825280602002602001820160405280156106b057816020015b61069d611636565b8152602001906001900390816106955790505b50905060005b82518110156106fa576106db8382815181106106ce57fe5b6020026020010151610d78565b8282815181106106e757fe5b60209081029190910101526001016106b6565b50600061071a8560048151811061070d57fe5b6020026020010151610e86565b90506040518060a0016040528085815260200161073d8760018151811061066457fe5b81526020018381526020018660038151811061075557fe5b602002602001015181526020018281525095505050505050919050565b61077a6115cf565b602082015151600410156107bf5760405162461bcd60e51b815260040180806020018281038252602481526020018061173d6024913960400191505060405180910390fd5b6040820151516108005760405162461bcd60e51b81526004018080602001828103825260218152602001806116976021913960400191505060405180910390fd5b604082015151600410156108455760405162461bcd60e51b81526004018080602001828103825260258152602001806117186025913960400191505060405180910390fd5b6060826020015151604051908082528060200260200182016040528015610876578160200160208202803883390190505b50905060005b83602001515181101561090c57600061089e8560200151838151811061070d57fe5b9050806108eb576040805162461bcd60e51b8152602060048201526016602482015275139d5b1b081a5b9c1d5d081b9bdd08185b1b1bddd95960521b604482015290519081900360640190fd5b808383815181106108f857fe5b60209081029190910101525060010161087c565b50606083604001515160405190808252806020026020018201604052801561094e57816020015b61093b611655565b8152602001906001900390816109335790505b50905060005b8460400151518110156109a0576109818560400151828151811061097457fe5b6020026020010151610fa5565b82828151811061098d57fe5b6020908102919091010152600101610954565b506109ae8460600151610ba1565b156109f3576040805162461bcd60e51b815260206004820152601060248201526f0747844617461206d75737420626520360841b604482015290519081900360640190fd5b6040805160a08101825285518152602081019390935282015260006060820152608080840151908201529050919050565b610a2c61167c565b506040805180820190915281518152602082810190820152919050565b6060610a5482611153565b610a9a576040805162461bcd60e51b8152602060048201526012602482015271125d195b481a5cc81b9bdd0818481b1a5cdd60721b604482015290519081900360640190fd5b600080610aaa846020015161118d565b855191935091508214610aee5760405162461bcd60e51b81526004018080602001828103825260268152602001806116f26026913960400191505060405180910390fd5b6000610af985611413565b9050606081604051908082528060200260200182016040528015610b3757816020015b610b2461167c565b815260200190600190039081610b1c5790505b50602087015190915083016000805b84811015610b9457610b578361118d565b5080925050604051806040016040528083815260200184815250848281518110610b7d57fe5b602090810291909101015291810191600101610b46565b5091979650505050505050565b805160009015801590610bb657508151602110155b610bf15760405162461bcd60e51b815260040180806020018281038252602a81526020018061189a602a913960400191505060405180910390fd5b610bfa82611153565b15610c46576040805162461bcd60e51b8152602060048201526017602482015276125d195b481b5d5cdd081b9bdd0818994818481b1a5cdd604a1b604482015290519081900360640190fd5b600080610c56846020015161118d565b855191935091508214610c9a5760405162461bcd60e51b815260040180806020018281038252603a8152602001806116b8603a913960400191505060405180910390fd5b60208085015182018051838503929091600083901a91841015610cc457836020036101000a830492505b81158015610cd0575084155b15610d0c5760405162461bcd60e51b81526004018080602001828103825260228152602001806117a06022913960400191505060405180910390fd5b81158015610d1a5750600184115b15610d6c576040805162461bcd60e51b815260206004820152601960248201527f4c656164696e67207a65726f732061726520696e76616c696400000000000000604482015290519081900360640190fd5b50909695505050505050565b610d80611636565b6060610d8b83610a49565b90508051600214610de3576040805162461bcd60e51b815260206004820152601860248201527f4f7574707574206d75737420686176652032206974656d730000000000000000604482015290519081900360640190fd5b610deb611636565b6040518060400160405280610e06846000815181106105ee57fe5b815260200183600181518110610e1857fe5b60200260200101518152509050806000015160001415610e7f576040805162461bcd60e51b815260206004820152601960248201527f4f75747075742074797065206d757374206e6f74206265203000000000000000604482015290519081900360640190fd5b9392505050565b8051600090602114610ed8576040805162461bcd60e51b81526020600482015260166024820152754974656d206c656e677468206d75737420626520333360501b604482015290519081900360640190fd5b610ee182611153565b15610f2d576040805162461bcd60e51b8152602060048201526017602482015276125d195b481b5d5cdd081b9bdd0818994818481b1a5cdd604a1b604482015290519081900360640190fd5b600080610f3d846020015161118d565b9150915081602114610f96576040805162461bcd60e51b815260206004820152601e60248201527f4465636f646564206974656d206c656e677468206d7573742062652033330000604482015290519081900360640190fd5b60208401510151915050919050565b610fad611655565b6060610fbc8360200151610a49565b90508051600314611014576040805162461bcd60e51b815260206004820152601d60248201527f4f75747075742064617461206d75737420686176652033206974656d73000000604482015290519081900360640190fd5b61101c611655565b60405180608001604052808560000151815260200161104e8460008151811061104157fe5b60200260200101516114a9565b60601b6bffffffffffffffffffffffff191681526020016110758460018151811061104157fe5b6001600160a01b03168152602001611093846002815181106105ee57fe5b905260608101519091506110ee576040805162461bcd60e51b815260206004820152601b60248201527f4f757470757420616d6f756e74206d757374206e6f7420626520300000000000604482015290519081900360640190fd5b60208101516bffffffffffffffffffffffff1916610e7f576040805162461bcd60e51b815260206004820181905260248201527f4f7574707574206f75747075744775617264206d757374206e6f742062652030604482015290519081900360640190fd5b805160009061116457506000610559565b6020820151805160001a9060c082101561118357600092505050610559565b5060019392505050565b8051600090819081908190811a60808110156111b0576001925060009150611408565b608081108015906111c1575060b881105b1561123f57607e1981019250600283141561123657600186015160001a6080811015611234576040805162461bcd60e51b815260206004820152601d60248201527f496e76616c69642073686f727420737472696e6720656e636f64696e67000000604482015290519081900360640190fd5b505b60019150611408565b60b88110801590611250575060c081105b1561131e5760019590950180519095602081900360b7016101000a820480820160b519019450909160001a60b6198301816112bc5760405162461bcd60e51b815260040180806020018281038252603f815260200180611761603f913960400191505060405180910390fd5b60378311611311576040805162461bcd60e51b815260206004820181905260248201527f496e76616c6964206c656e67746820666f722061206c6f6e6720737472696e67604482015290519081900360640190fd5b6001019350611408915050565b60c0811080159061132f575060f881105b156113445760be198101925060019150611408565b60019590950180519095602081900360f7016101000a820480820160f519019450909160001a60f6198301816113ab5760405162461bcd60e51b815260040180806020018281038252603d81526020018061185d603d913960400191505060405180910390fd5b60378311611400576040805162461bcd60e51b815260206004820152601e60248201527f496e76616c6964206c656e67746820666f722061206c6f6e67206c6973740000604482015290519081900360640190fd5b600101935050505b509092509050915091565b600080600090506000611429846020015161118d565b602086015186519193508084019250015b8082101561149f57600061144d8361118d565b50928301929050818311156114935760405162461bcd60e51b81526004018080602001828103825260488152602001806117c26048913960600191505060405180910390fd5b5060019093019261143a565b5091949350505050565b80516000906015146114fb576040805162461bcd60e51b81526020600482015260166024820152754974656d206c656e677468206d75737420626520323160501b604482015290519081900360640190fd5b61150482611153565b15611550576040805162461bcd60e51b8152602060048201526017602482015276125d195b481b5d5cdd081b9bdd0818994818481b1a5cdd604a1b604482015290519081900360640190fd5b600080611560846020015161118d565b91509150816015146115b9576040805162461bcd60e51b815260206004820152601e60248201527f4465636f646564206974656d206c656e677468206d7573742062652032310000604482015290519081900360640190fd5b60208401510151600160601b9004915050919050565b6040518060a0016040528060008152602001606081526020016060815260200160008152602001600080191681525090565b6040518060a0016040528060008152602001606081526020016060815260200161162961167c565b8152600060209091015290565b60405180604001604052806000815260200161165061167c565b905290565b60408051608081018252600080825260208201819052918101829052606081019190915290565b60405180604001604052806000815260200160008152509056fe5472616e73616374696f6e2063616e6e6f7420686176652030206f7574707574734465636f646564206974656d206c656e677468206d75737420626520657175616c20746f2074686520696e7075742064617461206c656e6774684465636f64656420524c50206c656e67746820666f72206c69737420697320696e76616c69645472616e73616374696f6e206f757470757473206e756d2065786365656473206c696d69745472616e73616374696f6e20696e70757473206e756d2065786365656473206c696d6974496e76616c6964206c656164696e67207a65726f7320696e206c656e677468206f6620746865206c656e67746820666f722061206c6f6e6720737472696e675363616c617220302073686f756c6420626520656e636f6465642061732030783830496e76616c6964206465636f646564206c656e677468206f6620524c50206974656d20666f756e6420647572696e6720636f756e74696e67206974656d7320696e2061206c6973744465706f736974206d75737420686176652065786163746c79206f6e65206f75747075744465706f7369746f7227732061646472657373206d757374206d617463682073656e64657227732061646472657373496e76616c6964206c656164696e67207a65726f7320696e206c656e677468206f6620746865206c656e67746820666f722061206c6f6e67206c6973744974656d206c656e677468206d757374206265206265747765656e203120616e64203333206279746573a265627a7a72315820adf1cf9ccc30f6d3c8cfdd90e819fd955099e53aefb4bcf84dc7dd71e2dfcc1e64736f6c634300050b0032",
  "source": "pragma solidity 0.5.11;\n\nimport \"openzeppelin-solidity/contracts/token/ERC20/IERC20.sol\";\n\nimport \"./IErc20DepositVerifier.sol\";\nimport {PaymentTransactionModel as DepositTx} from \"../../transactions/PaymentTransactionModel.sol\";\n\n/**\n * @notice Implementation of Erc20 deposit verifier using payment transaction as the deposit tx\n */\ncontract Erc20DepositVerifier is IErc20DepositVerifier {\n    uint256 public depositTxType;\n    uint256 public supportedOutputType;\n\n    constructor(uint256 txType, uint256 outputType) public {\n        depositTxType = txType;\n        supportedOutputType = outputType;\n    }\n\n    /**\n     * @notice Overrides the function of IErc20DepositVerifier and implements the verification logic\n     *         for payment transaction\n     * @dev Vault address must be approved to transfer from the sender address before doing the deposit\n     * @return Verified (owner, token, amount) of the deposit ERC20 token data\n     */\n    function verify(bytes calldata depositTx, address sender, address vault)\n        external\n        view\n        returns (\n            address owner,\n            address token,\n            uint256 amount\n        )\n    {\n        DepositTx.Transaction memory decodedTx = DepositTx.decode(depositTx);\n\n        require(decodedTx.txType == depositTxType, \"Invalid transaction type\");\n\n        require(decodedTx.inputs.length == 0, \"Deposit must have no inputs\");\n\n        require(decodedTx.outputs.length == 1, \"Deposit must have exactly one output\");\n        require(decodedTx.outputs[0].token != address(0), \"Invalid output currency (ETH)\");\n        require(decodedTx.outputs[0].outputType == supportedOutputType, \"Invalid output type\");\n\n        address depositorsAddress = DepositTx.getOutputOwner(decodedTx.outputs[0]);\n        require(depositorsAddress == sender, \"Depositor's address must match sender's address\");\n\n        IERC20 erc20 = IERC20(decodedTx.outputs[0].token);\n        require(erc20.allowance(depositorsAddress, vault) >= decodedTx.outputs[0].amount, \"Tokens have not been approved\");\n\n        return (depositorsAddress, decodedTx.outputs[0].token, decodedTx.outputs[0].amount);\n    }\n}\n",
  "sourcePath": "/home/node/plasma-contracts/plasma_framework/contracts/src/vaults/verifiers/Erc20DepositVerifier.sol",
  "compiler": {
    "name": "solc",
    "version": "0.5.11+commit.c082d0b4.Emscripten.clang"
  },
  "schemaVersion": "3.0.16",
  "updatedAt": "2020-04-07T14:08:27.576Z",
  "devdoc": {
    "methods": {
      "verify(bytes,address,address)": {
        "details": "Vault address must be approved to transfer from the sender address before doing the deposit",
        "return": "Verified (owner, token, amount) of the deposit ERC20 token data"
      }
    }
  },
  "userdoc": {
    "methods": {
      "verify(bytes,address,address)": {
        "notice": "Overrides the function of IErc20DepositVerifier and implements the verification logic        for payment transaction"
      }
    },
    "notice": "Implementation of Erc20 deposit verifier using payment transaction as the deposit tx"
  }
}