{
  "contractName": "EthDepositVerifier",
  "abi": [
    {
      "constant": true,
      "inputs": [],
      "name": "depositTxType",
      "outputs": [
        {
          "internalType": "uint256",
          "name": "",
          "type": "uint256"
        }
      ],
      "payable": false,
      "stateMutability": "view",
      "type": "function"
    },
    {
      "constant": true,
      "inputs": [],
      "name": "supportedOutputType",
      "outputs": [
        {
          "internalType": "uint256",
          "name": "",
          "type": "uint256"
        }
      ],
      "payable": false,
      "stateMutability": "view",
      "type": "function"
    },
    {
      "inputs": [
        {
          "internalType": "uint256",
          "name": "txType",
          "type": "uint256"
        },
        {
          "internalType": "uint256",
          "name": "outputType",
          "type": "uint256"
        }
      ],
      "payable": false,
      "stateMutability": "nonpayable",
      "type": "constructor"
    },
    {
      "constant": true,
      "inputs": [
        {
          "internalType": "bytes",
          "name": "depositTx",
          "type": "bytes"
        },
        {
          "internalType": "uint256",
          "name": "amount",
          "type": "uint256"
        },
        {
          "internalType": "address",
          "name": "sender",
          "type": "address"
        }
      ],
      "name": "verify",
      "outputs": [],
      "payable": false,
      "stateMutability": "view",
      "type": "function"
    }
  ],
  "bytecode": "0x608060405234801561001057600080fd5b506040516118393803806118398339818101604052604081101561003357600080fd5b5080516020909101516000919091556001556117e5806100546000396000f3fe608060405234801561001057600080fd5b50600436106100415760003560e01c806303c4de6d14610046578063411de05b14610060578063aee150c714610068575b600080fd5b61004e6100e9565b60408051918252519081900360200190f35b61004e6100ef565b6100e76004803603606081101561007e57600080fd5b81019060208101813564010000000081111561009957600080fd5b8201836020820111156100ab57600080fd5b803590602001918460018302840111640100000000831117156100cd57600080fd5b9193509150803590602001356001600160a01b03166100f5565b005b60005481565b60015481565b6100fd611470565b61013c85858080601f0160208091040260200160405190810160405280939291908181526020018383808284376000920191909152506103de92505050565b600054815191925014610196576040805162461bcd60e51b815260206004820152601860248201527f496e76616c6964207472616e73616374696f6e20747970650000000000000000604482015290519081900360640190fd5b602081015151156101ee576040805162461bcd60e51b815260206004820152601b60248201527f4465706f736974206d7573742068617665206e6f20696e707574730000000000604482015290519081900360640190fd5b8060400151516001146102325760405162461bcd60e51b81526004018080602001828103825260248152602001806116d16024913960400191505060405180910390fd5b82816040015160008151811061024457fe5b6020026020010151606001511461028c5760405162461bcd60e51b81526004018080602001828103825260268152602001806116ab6026913960400191505060405180910390fd5b60006001600160a01b031681604001516000815181106102a857fe5b6020026020010151604001516001600160a01b0316146102f95760405162461bcd60e51b81526004018080602001828103825260268152602001806117616026913960400191505060405180910390fd5b600154816040015160008151811061030d57fe5b60200260200101516000015114610361576040805162461bcd60e51b8152602060048201526013602482015272496e76616c6964206f7574707574207479706560681b604482015290519081900360640190fd5b6000610384826040015160008151811061037757fe5b60200260200101516103ff565b9050826001600160a01b0316816001600160a01b0316146103d65760405162461bcd60e51b815260040180806020018281038252602f8152602001806116f5602f913960400191505060405180910390fd5b505050505050565b6103e6611470565b6103f76103f283610409565b610613565b90505b919050565b6020015160601c90565b6104116114a2565b606061042461041f846108c5565b6108ea565b805190915060051461047d576040805162461bcd60e51b815260206004820152601f60248201527f496e76616c696420656e636f64696e67206f66207472616e73616374696f6e00604482015290519081900360640190fd5b600061049c8260008151811061048f57fe5b6020026020010151610a42565b9050600081116104f3576040805162461bcd60e51b815260206004820152601e60248201527f5472616e73616374696f6e2074797065206d757374206e6f7420626520300000604482015290519081900360640190fd5b60606105128360028151811061050557fe5b60200260200101516108ea565b90506060815160405190808252806020026020018201604052801561055157816020015b61053e6114d7565b8152602001906001900390816105365790505b50905060005b825181101561059b5761057c83828151811061056f57fe5b6020026020010151610c19565b82828151811061058857fe5b6020908102919091010152600101610557565b5060006105bb856004815181106105ae57fe5b6020026020010151610d27565b90506040518060a001604052808581526020016105de8760018151811061050557fe5b8152602001838152602001866003815181106105f657fe5b602002602001015181526020018281525095505050505050919050565b61061b611470565b602082015151600410156106605760405162461bcd60e51b81526004018080602001828103825260248152602001806115de6024913960400191505060405180910390fd5b6040820151516106a15760405162461bcd60e51b81526004018080602001828103825260218152602001806115386021913960400191505060405180910390fd5b604082015151600410156106e65760405162461bcd60e51b81526004018080602001828103825260258152602001806115b96025913960400191505060405180910390fd5b6060826020015151604051908082528060200260200182016040528015610717578160200160208202803883390190505b50905060005b8360200151518110156107ad57600061073f856020015183815181106105ae57fe5b90508061078c576040805162461bcd60e51b8152602060048201526016602482015275139d5b1b081a5b9c1d5d081b9bdd08185b1b1bddd95960521b604482015290519081900360640190fd5b8083838151811061079957fe5b60209081029190910101525060010161071d565b5060608360400151516040519080825280602002602001820160405280156107ef57816020015b6107dc6114f6565b8152602001906001900390816107d45790505b50905060005b846040015151811015610841576108228560400151828151811061081557fe5b6020026020010151610e46565b82828151811061082e57fe5b60209081029190910101526001016107f5565b5061084f8460600151610a42565b15610894576040805162461bcd60e51b815260206004820152601060248201526f0747844617461206d75737420626520360841b604482015290519081900360640190fd5b6040805160a08101825285518152602081019390935282015260006060820152608080840151908201529050919050565b6108cd61151d565b506040805180820190915281518152602082810190820152919050565b60606108f582610ff4565b61093b576040805162461bcd60e51b8152602060048201526012602482015271125d195b481a5cc81b9bdd0818481b1a5cdd60721b604482015290519081900360640190fd5b60008061094b846020015161102e565b85519193509150821461098f5760405162461bcd60e51b81526004018080602001828103825260268152602001806115936026913960400191505060405180910390fd5b600061099a856112b4565b90506060816040519080825280602002602001820160405280156109d857816020015b6109c561151d565b8152602001906001900390816109bd5790505b50602087015190915083016000805b84811015610a35576109f88361102e565b5080925050604051806040016040528083815260200184815250848281518110610a1e57fe5b6020908102919091010152918101916001016109e7565b5091979650505050505050565b805160009015801590610a5757508151602110155b610a925760405162461bcd60e51b815260040180806020018281038252602a815260200180611787602a913960400191505060405180910390fd5b610a9b82610ff4565b15610ae7576040805162461bcd60e51b8152602060048201526017602482015276125d195b481b5d5cdd081b9bdd0818994818481b1a5cdd604a1b604482015290519081900360640190fd5b600080610af7846020015161102e565b855191935091508214610b3b5760405162461bcd60e51b815260040180806020018281038252603a815260200180611559603a913960400191505060405180910390fd5b60208085015182018051838503929091600083901a91841015610b6557836020036101000a830492505b81158015610b71575084155b15610bad5760405162461bcd60e51b81526004018080602001828103825260228152602001806116416022913960400191505060405180910390fd5b81158015610bbb5750600184115b15610c0d576040805162461bcd60e51b815260206004820152601960248201527f4c656164696e67207a65726f732061726520696e76616c696400000000000000604482015290519081900360640190fd5b50909695505050505050565b610c216114d7565b6060610c2c836108ea565b90508051600214610c84576040805162461bcd60e51b815260206004820152601860248201527f4f7574707574206d75737420686176652032206974656d730000000000000000604482015290519081900360640190fd5b610c8c6114d7565b6040518060400160405280610ca78460008151811061048f57fe5b815260200183600181518110610cb957fe5b60200260200101518152509050806000015160001415610d20576040805162461bcd60e51b815260206004820152601960248201527f4f75747075742074797065206d757374206e6f74206265203000000000000000604482015290519081900360640190fd5b9392505050565b8051600090602114610d79576040805162461bcd60e51b81526020600482015260166024820152754974656d206c656e677468206d75737420626520333360501b604482015290519081900360640190fd5b610d8282610ff4565b15610dce576040805162461bcd60e51b8152602060048201526017602482015276125d195b481b5d5cdd081b9bdd0818994818481b1a5cdd604a1b604482015290519081900360640190fd5b600080610dde846020015161102e565b9150915081602114610e37576040805162461bcd60e51b815260206004820152601e60248201527f4465636f646564206974656d206c656e677468206d7573742062652033330000604482015290519081900360640190fd5b60208401510151915050919050565b610e4e6114f6565b6060610e5d83602001516108ea565b90508051600314610eb5576040805162461bcd60e51b815260206004820152601d60248201527f4f75747075742064617461206d75737420686176652033206974656d73000000604482015290519081900360640190fd5b610ebd6114f6565b604051806080016040528085600001518152602001610eef84600081518110610ee257fe5b602002602001015161134a565b60601b6bffffffffffffffffffffffff19168152602001610f1684600181518110610ee257fe5b6001600160a01b03168152602001610f348460028151811061048f57fe5b90526060810151909150610f8f576040805162461bcd60e51b815260206004820152601b60248201527f4f757470757420616d6f756e74206d757374206e6f7420626520300000000000604482015290519081900360640190fd5b60208101516bffffffffffffffffffffffff1916610d20576040805162461bcd60e51b815260206004820181905260248201527f4f7574707574206f75747075744775617264206d757374206e6f742062652030604482015290519081900360640190fd5b8051600090611005575060006103fa565b6020820151805160001a9060c0821015611024576000925050506103fa565b5060019392505050565b8051600090819081908190811a60808110156110515760019250600091506112a9565b60808110801590611062575060b881105b156110e057607e198101925060028314156110d757600186015160001a60808110156110d5576040805162461bcd60e51b815260206004820152601d60248201527f496e76616c69642073686f727420737472696e6720656e636f64696e67000000604482015290519081900360640190fd5b505b600191506112a9565b60b881108015906110f1575060c081105b156111bf5760019590950180519095602081900360b7016101000a820480820160b519019450909160001a60b61983018161115d5760405162461bcd60e51b815260040180806020018281038252603f815260200180611602603f913960400191505060405180910390fd5b603783116111b2576040805162461bcd60e51b815260206004820181905260248201527f496e76616c6964206c656e67746820666f722061206c6f6e6720737472696e67604482015290519081900360640190fd5b60010193506112a9915050565b60c081108015906111d0575060f881105b156111e55760be1981019250600191506112a9565b60019590950180519095602081900360f7016101000a820480820160f519019450909160001a60f61983018161124c5760405162461bcd60e51b815260040180806020018281038252603d815260200180611724603d913960400191505060405180910390fd5b603783116112a1576040805162461bcd60e51b815260206004820152601e60248201527f496e76616c6964206c656e67746820666f722061206c6f6e67206c6973740000604482015290519081900360640190fd5b600101935050505b509092509050915091565b6000806000905060006112ca846020015161102e565b602086015186519193508084019250015b808210156113405760006112ee8361102e565b50928301929050818311156113345760405162461bcd60e51b81526004018080602001828103825260488152602001806116636048913960600191505060405180910390fd5b506001909301926112db565b5091949350505050565b805160009060151461139c576040805162461bcd60e51b81526020600482015260166024820152754974656d206c656e677468206d75737420626520323160501b604482015290519081900360640190fd5b6113a582610ff4565b156113f1576040805162461bcd60e51b8152602060048201526017602482015276125d195b481b5d5cdd081b9bdd0818994818481b1a5cdd604a1b604482015290519081900360640190fd5b600080611401846020015161102e565b915091508160151461145a576040805162461bcd60e51b815260206004820152601e60248201527f4465636f646564206974656d206c656e677468206d7573742062652032310000604482015290519081900360640190fd5b60208401510151600160601b9004915050919050565b6040518060a0016040528060008152602001606081526020016060815260200160008152602001600080191681525090565b6040518060a001604052806000815260200160608152602001606081526020016114ca61151d565b8152600060209091015290565b6040518060400160405280600081526020016114f161151d565b905290565b60408051608081018252600080825260208201819052918101829052606081019190915290565b60405180604001604052806000815260200160008152509056fe5472616e73616374696f6e2063616e6e6f7420686176652030206f7574707574734465636f646564206974656d206c656e677468206d75737420626520657175616c20746f2074686520696e7075742064617461206c656e6774684465636f64656420524c50206c656e67746820666f72206c69737420697320696e76616c69645472616e73616374696f6e206f757470757473206e756d2065786365656473206c696d69745472616e73616374696f6e20696e70757473206e756d2065786365656473206c696d6974496e76616c6964206c656164696e67207a65726f7320696e206c656e677468206f6620746865206c656e67746820666f722061206c6f6e6720737472696e675363616c617220302073686f756c6420626520656e636f6465642061732030783830496e76616c6964206465636f646564206c656e677468206f6620524c50206974656d20666f756e6420647572696e6720636f756e74696e67206974656d7320696e2061206c6973744465706f73697465642076616c7565206d757374206d617463682073656e7420616d6f756e744465706f736974206d75737420686176652065786163746c79206f6e65206f75747075744465706f7369746f7227732061646472657373206d757374206d617463682073656e64657227732061646472657373496e76616c6964206c656164696e67207a65726f7320696e206c656e677468206f6620746865206c656e67746820666f722061206c6f6e67206c6973744f757470757420726571756972657320636f72726563742063757272656e63792028455448294974656d206c656e677468206d757374206265206265747765656e203120616e64203333206279746573a265627a7a72315820d008d197e57600effcf9249c00926480af4e0f90281ec57a5a4a84ce2046373d64736f6c634300050b0032",
  "source": "pragma solidity 0.5.11;\n\nimport \"./IEthDepositVerifier.sol\";\nimport {PaymentTransactionModel as DepositTx} from \"../../transactions/PaymentTransactionModel.sol\";\n\n/**\n * @notice Implementation of ETH deposit verifier using payment transaction as the deposit transaction\n */\ncontract EthDepositVerifier is IEthDepositVerifier {\n    uint256 public depositTxType;\n    uint256 public supportedOutputType;\n\n    constructor(uint256 txType, uint256 outputType) public {\n        depositTxType = txType;\n        supportedOutputType = outputType;\n    }\n\n    /**\n     * @notice Overrides the function of IEthDepositVerifier and implements the verification logic\n     *         for payment transaction\n     */\n    function verify(bytes calldata depositTx, uint256 amount, address sender) external view {\n        DepositTx.Transaction memory decodedTx = DepositTx.decode(depositTx);\n\n        require(decodedTx.txType == depositTxType, \"Invalid transaction type\");\n\n        require(decodedTx.inputs.length == 0, \"Deposit must have no inputs\");\n\n        require(decodedTx.outputs.length == 1, \"Deposit must have exactly one output\");\n        require(decodedTx.outputs[0].amount == amount, \"Deposited value must match sent amount\");\n        require(decodedTx.outputs[0].token == address(0), \"Output requires correct currency (ETH)\");\n        require(decodedTx.outputs[0].outputType == supportedOutputType, \"Invalid output type\");\n\n        address depositorsAddress = DepositTx.getOutputOwner(decodedTx.outputs[0]);\n        require(depositorsAddress == sender, \"Depositor's address must match sender's address\");\n    }\n}\n",
  "sourcePath": "/home/node/plasma-contracts/plasma_framework/contracts/src/vaults/verifiers/EthDepositVerifier.sol",
  "compiler": {
    "name": "solc",
    "version": "0.5.11+commit.c082d0b4.Emscripten.clang"
  },
  "schemaVersion": "3.0.16",
  "updatedAt": "2020-04-07T14:08:16.528Z",
  "devdoc": {
    "methods": {}
  },
  "userdoc": {
    "methods": {
      "verify(bytes,uint256,address)": {
        "notice": "Overrides the function of IEthDepositVerifier and implements the verification logic        for payment transaction"
      }
    },
    "notice": "Implementation of ETH deposit verifier using payment transaction as the deposit transaction"
  }
}