{
  "contractName": "ExitGameControllerMock",
  "abi": [
    {
      "constant": true,
      "inputs": [
        {
          "internalType": "uint256",
          "name": "vaultId",
          "type": "uint256"
        },
        {
          "internalType": "address",
          "name": "token",
          "type": "address"
        }
      ],
      "name": "getNextExit",
      "outputs": [
        {
          "internalType": "uint256",
          "name": "",
          "type": "uint256"
        }
      ],
      "payable": false,
      "stateMutability": "view",
      "type": "function"
    },
    {
      "constant": true,
      "inputs": [
        {
          "internalType": "bytes32",
          "name": "",
          "type": "bytes32"
        }
      ],
      "name": "exitsQueues",
      "outputs": [
        {
          "internalType": "contract PriorityQueue",
          "name": "",
          "type": "address"
        }
      ],
      "payable": false,
      "stateMutability": "view",
      "type": "function"
    },
    {
      "constant": false,
      "inputs": [
        {
          "internalType": "uint256",
          "name": "vaultId",
          "type": "uint256"
        },
        {
          "internalType": "address",
          "name": "token",
          "type": "address"
        }
      ],
      "name": "addExitQueue",
      "outputs": [],
      "payable": false,
      "stateMutability": "nonpayable",
      "type": "function"
    },
    {
      "constant": false,
      "inputs": [],
      "name": "deactivateNonReentrant",
      "outputs": [],
      "payable": false,
      "stateMutability": "nonpayable",
      "type": "function"
    },
    {
      "constant": true,
      "inputs": [
        {
          "internalType": "address",
          "name": "_contract",
          "type": "address"
        }
      ],
      "name": "isExitGameSafeToUse",
      "outputs": [
        {
          "internalType": "bool",
          "name": "",
          "type": "bool"
        }
      ],
      "payable": false,
      "stateMutability": "view",
      "type": "function"
    },
    {
      "constant": false,
      "inputs": [
        {
          "internalType": "bytes32",
          "name": "outputId",
          "type": "bytes32"
        },
        {
          "internalType": "uint160",
          "name": "exitId",
          "type": "uint160"
        }
      ],
      "name": "flagOutputFinalized",
      "outputs": [],
      "payable": false,
      "stateMutability": "nonpayable",
      "type": "function"
    },
    {
      "constant": true,
      "inputs": [
        {
          "internalType": "bytes32",
          "name": "",
          "type": "bytes32"
        }
      ],
      "name": "outputsFinalizations",
      "outputs": [
        {
          "internalType": "uint160",
          "name": "",
          "type": "uint160"
        }
      ],
      "payable": false,
      "stateMutability": "view",
      "type": "function"
    },
    {
      "constant": false,
      "inputs": [
        {
          "internalType": "uint256",
          "name": "vaultId",
          "type": "uint256"
        },
        {
          "internalType": "address",
          "name": "token",
          "type": "address"
        },
        {
          "internalType": "uint64",
          "name": "exitableAt",
          "type": "uint64"
        },
        {
          "components": [
            {
              "internalType": "uint64",
              "name": "blockNum",
              "type": "uint64"
            },
            {
              "internalType": "uint16",
              "name": "txIndex",
              "type": "uint16"
            },
            {
              "internalType": "uint16",
              "name": "outputIndex",
              "type": "uint16"
            }
          ],
          "internalType": "struct PosLib.Position",
          "name": "txPos",
          "type": "tuple"
        },
        {
          "internalType": "uint160",
          "name": "exitId",
          "type": "uint160"
        },
        {
          "internalType": "contract IExitProcessor",
          "name": "exitProcessor",
          "type": "address"
        }
      ],
      "name": "enqueue",
      "outputs": [
        {
          "internalType": "uint256",
          "name": "",
          "type": "uint256"
        }
      ],
      "payable": false,
      "stateMutability": "nonpayable",
      "type": "function"
    },
    {
      "constant": true,
      "inputs": [
        {
          "internalType": "uint256",
          "name": "_txType",
          "type": "uint256"
        }
      ],
      "name": "protocols",
      "outputs": [
        {
          "internalType": "uint8",
          "name": "",
          "type": "uint8"
        }
      ],
      "payable": false,
      "stateMutability": "view",
      "type": "function"
    },
    {
      "constant": true,
      "inputs": [
        {
          "internalType": "bytes32",
          "name": "outputId",
          "type": "bytes32"
        }
      ],
      "name": "isOutputFinalized",
      "outputs": [
        {
          "internalType": "bool",
          "name": "",
          "type": "bool"
        }
      ],
      "payable": false,
      "stateMutability": "view",
      "type": "function"
    },
    {
      "constant": false,
      "inputs": [
        {
          "internalType": "bytes32[]",
          "name": "outputIds",
          "type": "bytes32[]"
        },
        {
          "internalType": "uint160",
          "name": "exitId",
          "type": "uint160"
        }
      ],
      "name": "batchFlagOutputsFinalized",
      "outputs": [],
      "payable": false,
      "stateMutability": "nonpayable",
      "type": "function"
    },
    {
      "constant": true,
      "inputs": [
        {
          "internalType": "address",
          "name": "_exitGame",
          "type": "address"
        }
      ],
      "name": "exitGameToTxType",
      "outputs": [
        {
          "internalType": "uint256",
          "name": "",
          "type": "uint256"
        }
      ],
      "payable": false,
      "stateMutability": "view",
      "type": "function"
    },
    {
      "constant": true,
      "inputs": [
        {
          "internalType": "uint256",
          "name": "_txType",
          "type": "uint256"
        }
      ],
      "name": "exitGames",
      "outputs": [
        {
          "internalType": "address",
          "name": "",
          "type": "address"
        }
      ],
      "payable": false,
      "stateMutability": "view",
      "type": "function"
    },
    {
      "constant": true,
      "inputs": [
        {
          "internalType": "bytes32[]",
          "name": "_outputIds",
          "type": "bytes32[]"
        },
        {
          "internalType": "uint160",
          "name": "exitId",
          "type": "uint160"
        }
      ],
      "name": "isAnyInputFinalizedByOtherExit",
      "outputs": [
        {
          "internalType": "bool",
          "name": "",
          "type": "bool"
        }
      ],
      "payable": false,
      "stateMutability": "view",
      "type": "function"
    },
    {
      "constant": true,
      "inputs": [
        {
          "internalType": "uint256",
          "name": "vaultId",
          "type": "uint256"
        },
        {
          "internalType": "address",
          "name": "token",
          "type": "address"
        }
      ],
      "name": "hasExitQueue",
      "outputs": [
        {
          "internalType": "bool",
          "name": "",
          "type": "bool"
        }
      ],
      "payable": false,
      "stateMutability": "view",
      "type": "function"
    },
    {
      "constant": true,
      "inputs": [
        {
          "internalType": "bytes32",
          "name": "",
          "type": "bytes32"
        }
      ],
      "name": "delegations",
      "outputs": [
        {
          "internalType": "contract IExitProcessor",
          "name": "",
          "type": "address"
        }
      ],
      "payable": false,
      "stateMutability": "view",
      "type": "function"
    },
    {
      "constant": false,
      "inputs": [
        {
          "internalType": "uint256",
          "name": "vaultId",
          "type": "uint256"
        },
        {
          "internalType": "address",
          "name": "token",
          "type": "address"
        },
        {
          "internalType": "uint160",
          "name": "topExitId",
          "type": "uint160"
        },
        {
          "internalType": "uint256",
          "name": "maxExitsToProcess",
          "type": "uint256"
        }
      ],
      "name": "processExits",
      "outputs": [],
      "payable": false,
      "stateMutability": "nonpayable",
      "type": "function"
    },
    {
      "constant": false,
      "inputs": [
        {
          "internalType": "uint256",
          "name": "_txType",
          "type": "uint256"
        },
        {
          "internalType": "address",
          "name": "_contract",
          "type": "address"
        },
        {
          "internalType": "uint8",
          "name": "_protocol",
          "type": "uint8"
        }
      ],
      "name": "registerExitGame",
      "outputs": [],
      "payable": false,
      "stateMutability": "nonpayable",
      "type": "function"
    },
    {
      "constant": false,
      "inputs": [],
      "name": "activateNonReentrant",
      "outputs": [],
      "payable": false,
      "stateMutability": "nonpayable",
      "type": "function"
    },
    {
      "inputs": [
        {
          "internalType": "uint256",
          "name": "_minExitPeriod",
          "type": "uint256"
        },
        {
          "internalType": "uint256",
          "name": "_initialImmuneExitGames",
          "type": "uint256"
        }
      ],
      "payable": false,
      "stateMutability": "nonpayable",
      "type": "constructor"
    },
    {
      "anonymous": false,
      "inputs": [
        {
          "indexed": false,
          "internalType": "uint256",
          "name": "vaultId",
          "type": "uint256"
        },
        {
          "indexed": false,
          "internalType": "address",
          "name": "token",
          "type": "address"
        }
      ],
      "name": "ExitQueueAdded",
      "type": "event"
    },
    {
      "anonymous": false,
      "inputs": [
        {
          "indexed": false,
          "internalType": "uint256",
          "name": "processedNum",
          "type": "uint256"
        },
        {
          "indexed": false,
          "internalType": "uint256",
          "name": "vaultId",
          "type": "uint256"
        },
        {
          "indexed": false,
          "internalType": "address",
          "name": "token",
          "type": "address"
        }
      ],
      "name": "ProcessedExitsNum",
      "type": "event"
    },
    {
      "anonymous": false,
      "inputs": [
        {
          "indexed": true,
          "internalType": "uint160",
          "name": "exitId",
          "type": "uint160"
        },
        {
          "indexed": false,
          "internalType": "uint256",
          "name": "priority",
          "type": "uint256"
        }
      ],
      "name": "ExitQueued",
      "type": "event"
    },
    {
      "anonymous": false,
      "inputs": [
        {
          "indexed": false,
          "internalType": "uint256",
          "name": "txType",
          "type": "uint256"
        },
        {
          "indexed": false,
          "internalType": "address",
          "name": "exitGameAddress",
          "type": "address"
        },
        {
          "indexed": false,
          "internalType": "uint8",
          "name": "protocol",
          "type": "uint8"
        }
      ],
      "name": "ExitGameRegistered",
      "type": "event"
    },
    {
      "constant": true,
      "inputs": [],
      "name": "getMaintainer",
      "outputs": [
        {
          "internalType": "address",
          "name": "",
          "type": "address"
        }
      ],
      "payable": false,
      "stateMutability": "view",
      "type": "function"
    }
  ],
  "bytecode": "0x60806040526009805460ff191690553480156200001b57600080fd5b5060405162002d2738038062002d278339810160408190526200003e9162000079565b600491820290915560055560098054610100600160a81b0319163361010002179055620000d5565b80516200007381620000bb565b92915050565b600080604083850312156200008d57600080fd5b60006200009b858562000066565b9250506020620000ae8582860162000066565b9150509250929050565b90565b620000c681620000b8565b8114620000d257600080fd5b50565b612c4280620000e56000396000f3fe60806040523480156200001157600080fd5b5060043610620001485760003560e01c80638e29be3111620000bd578063c77b1ed6116200007b578063c77b1ed614620002f1578063cf049cad1462000308578063d9aa4b24146200031f578063f2e208e71462000336578063ff27b189146200034d5762000148565b80638e29be31146200027e5780639ce265a61462000295578063a239e5a214620002ac578063af07976414620002c3578063c3ead42814620002da5762000148565b80635a102dae116200010b5780635a102dae14620001de57806372d72e38146200020457806377672b5e146200021b5780637f8523d114620002415780638c39622014620002585762000148565b8063296d5427146200014d5780633701b5ca146200017c57806345f2093514620001a25780634b0a72bc14620001bb5780634e0f743614620001d4575b600080fd5b620001646200015e36600462001711565b62000357565b604051620001739190620020fe565b60405180910390f35b620001936200018d3660046200166f565b620003fc565b60405162000173919062001f2e565b620001b9620001b336600462001711565b62000417565b005b620001c562000515565b60405162000173919062001f0e565b620001b962000529565b620001f5620001ef366004620015f3565b620005a4565b60405162000173919062001f1e565b620001b96200021536600462001690565b620005e1565b620002326200022c3660046200166f565b620006ac565b604051620001739190620020b8565b6200016462000252366004620017b0565b620006c7565b6200026f620002693660046200166f565b620008c1565b6040516200017391906200216b565b620001f56200028f3660046200166f565b620008d6565b620001b9620002a636600462001614565b620008f3565b62000164620002bd366004620015f3565b62000a2c565b620001c5620002d43660046200166f565b62000a47565b620001f5620002eb36600462001614565b62000a62565b620001f56200030236600462001711565b62000af2565b62000193620003193660046200166f565b62000b0e565b620001b96200033036600462001746565b62000b29565b620001b96200034736600462001845565b62001006565b620001b9620011be565b60008062000366848462001255565b60008181526007602090815260409182902054825163d6362e9760e01b815292519394506001600160a01b03169263d6362e97926004808201939291829003018186803b158015620003b757600080fd5b505afa158015620003cc573d6000803e3d6000fd5b505050506040513d601f19601f82011682018060405250620003f29190810190620016f0565b9150505b92915050565b6007602052600090815260409020546001600160a01b031681565b81620004405760405162461bcd60e51b81526004016200043790620020a6565b60405180910390fd5b60006200044e838362001255565b90506200045b816200128a565b156200047b5760405162461bcd60e51b8152600401620004379062001f3e565b6040516200048990620014b4565b604051809103906000f080158015620004a6573d6000803e3d6000fd5b506000828152600760205260409081902080546001600160a01b0319166001600160a01b039390931692909217909155517f0a925273fd754a41a580f8214815d5ae8a37367f561b3bd9d91a96730a418a17906200050890859085906200210e565b60405180910390a1505050565b60095461010090046001600160a01b031690565b33600090815260016020526040902054620005585760405162461bcd60e51b8152600401620004379062001fce565b6200056b60033363ffffffff620012a716565b156200058b5760405162461bcd60e51b8152600401620004379062001f98565b60095460ff166200059857fe5b6009805460ff19169055565b6001600160a01b03811660009081526001602052604081205415801590620003f65750620005da60038363ffffffff620012a716565b1592915050565b33600090815260016020526040902054620006105760405162461bcd60e51b8152600401620004379062001fce565b6200062360033363ffffffff620012a716565b15620006435760405162461bcd60e51b8152600401620004379062001f98565b81620006635760405162461bcd60e51b8152600401620004379062001fe0565b6000828152600860205260409020546001600160a01b0316620006a857600082815260086020526040902080546001600160a01b0319166001600160a01b0383161790555b5050565b6008602052600090815260409020546001600160a01b031681565b33600090815260016020526040812054620006f65760405162461bcd60e51b8152600401620004379062001fce565b6200070960033363ffffffff620012a716565b15620007295760405162461bcd60e51b8152600401620004379062001f98565b600062000737888862001255565b905062000744816200128a565b620007635760405162461bcd60e51b8152600401620004379062001f86565b6000818152600760205260408120546001600160a01b031690620007998862000792368a90038a018a620016cf565b88620012c5565b6040516390b5561d60e01b81529091506001600160a01b038316906390b5561d90620007ca908490600401620020fe565b600060405180830381600087803b158015620007e557600080fd5b505af1158015620007fa573d6000803e3d6000fd5b5050505060006200080d828c8c620012fa565b6000818152600660205260409020549091506001600160a01b031615620008485760405162461bcd60e51b8152600401620004379062001f74565b6000818152600660205260409081902080546001600160a01b0319166001600160a01b03898116919091179091559051908816907fe15a4f223f922b625f5fdd941101a23fa0c097e522233d47a7cbea2167e9270190620008ab908590620020fe565b60405180910390a2509998505050505050505050565b60009081526002602052604090205460ff1690565b6000908152600860205260409020546001600160a01b0316151590565b33600090815260016020526040902054620009225760405162461bcd60e51b8152600401620004379062001fce565b6200093560033363ffffffff620012a716565b15620009555760405162461bcd60e51b8152600401620004379062001f98565b60005b8281101562000a265760008484838181106200097057fe5b905060200201351415620009985760405162461bcd60e51b8152600401620004379062001fe0565b60086000858584818110620009a957fe5b60209081029290920135835250810191909152604001600020546001600160a01b031662000a1d578160086000868685818110620009e357fe5b90506020020135815260200190815260200160002060006101000a8154816001600160a01b0302191690836001600160a01b031602179055505b60010162000958565b50505050565b6001600160a01b031660009081526001602052604090205490565b6000908152602081905260409020546001600160a01b031690565b6000805b8381101562000ae55760006008600087878581811062000a8257fe5b60209081029290920135835250810191909152604001600020546001600160a01b03169050801580159062000ac95750836001600160a01b0316816001600160a01b031614155b1562000adb5760019250505062000aeb565b5060010162000a66565b50600090505b9392505050565b60008062000b01848462001255565b9050620003f2816200128a565b6006602052600090815260409020546001600160a01b031681565b60095460ff161562000b4f5760405162461bcd60e51b815260040162000437906200203a565b6009805460ff19166001179055600062000b6a858562001255565b905062000b77816200128a565b62000b965760405162461bcd60e51b8152600401620004379062002070565b600081815260076020908152604080832054815163bda1504b60e01b815291516001600160a01b039091169392849263bda1504b9260048083019392829003018186803b15801562000be757600080fd5b505afa15801562000bfc573d6000803e3d6000fd5b505050506040513d601f19601f8201168201806040525062000c229190810190620016f0565b1162000c425760405162461bcd60e51b8152600401620004379062002094565b6000816001600160a01b031663d6362e976040518163ffffffff1660e01b815260040160206040518083038186803b15801562000c7e57600080fd5b505afa15801562000c93573d6000803e3d6000fd5b505050506040513d601f19601f8201168201806040525062000cb99190810190620016f0565b9050600062000cc88262001332565b90506001600160a01b038616158062000cf25750856001600160a01b0316816001600160a01b0316145b62000d115760405162461bcd60e51b8152600401620004379062001ff2565b600062000d20838a8a620012fa565b6000818152600660205260408120549192506001600160a01b03909116905b878110801562000d6257504262000d568662001335565b67ffffffffffffffff16105b1562000fa357600083815260066020908152604080832080546001600160a01b03191690558051632c1d5dab60e21b815290516001600160a01b038a169363b07576ac93600480850194919392918390030190829087803b15801562000dc757600080fd5b505af115801562000ddc573d6000803e3d6000fd5b505050506040513d601f19601f8201168201806040525062000e029190810190620016f0565b50604051636849635160e01b81526001909101906001600160a01b0383169063684963519062000e3b9087908f908f90600401620020c8565b600060405180830381600087803b15801562000e5657600080fd5b505af115801562000e6b573d6000803e3d6000fd5b50505050856001600160a01b031663bda1504b6040518163ffffffff1660e01b815260040160206040518083038186803b15801562000ea957600080fd5b505afa15801562000ebe573d6000803e3d6000fd5b505050506040513d601f19601f8201168201806040525062000ee49190810190620016f0565b62000eef5762000fa3565b856001600160a01b031663d6362e976040518163ffffffff1660e01b815260040160206040518083038186803b15801562000f2957600080fd5b505afa15801562000f3e573d6000803e3d6000fd5b505050506040513d601f19601f8201168201806040525062000f649190810190620016f0565b945062000f73858c8c620012fa565b925062000f808562001332565b6000848152600660205260409020549094506001600160a01b0316915062000d3f565b7f7e35599fe450e626673ce6c37179ef9820aed16f76c1b350618ef7a612d13005818c8c60405162000fd8939291906200215b565b60405180910390a1505060095460ff16945062000ff6935050505057fe5b50506009805460ff191690555050565b6200101062000515565b336001600160a01b038216146200103b5760405162461bcd60e51b8152600401620004379062002028565b836200105b5760405162461bcd60e51b8152600401620004379062002004565b62001066836200133b565b620010855760405162461bcd60e51b8152600401620004379062002082565b6000848152602081905260409020546001600160a01b031615620010bd5760405162461bcd60e51b815260040162000437906200204c565b6001600160a01b03831660009081526001602052604090205415620010f65760405162461bcd60e51b8152600401620004379062001f50565b620011018262001341565b620011205760405162461bcd60e51b8152600401620004379062001f62565b60008481526020818152604080832080546001600160a01b0319166001600160a01b03881690811790915583526001825280832087905586835260029091529020805460ff191660ff84161790556200117b6003846200135b565b7f0ceb02f7474c01f5959171cead2f5fb2a44d9c16fe480725a2110b601b19db82848484604051620011b0939291906200212d565b60405180910390a150505050565b33600090815260016020526040902054620011ed5760405162461bcd60e51b8152600401620004379062001fce565b6200120060033363ffffffff620012a716565b15620012205760405162461bcd60e51b8152600401620004379062001f98565b60095460ff1615620012465760405162461bcd60e51b815260040162000437906200203a565b6009805460ff19166001179055565b600082826040516020016200126c92919062001ea7565b60405160208183030381529060405280519060200120905092915050565b6000908152600760205260409020546001600160a01b0316151590565b6001600160a01b031660009081526020919091526040902054421090565b6000816001600160a01b031660a0620012de85620013fe565b901b60d68667ffffffffffffffff16901b171790509392505050565b6000838383604051602001620013139392919062001ed1565b6040516020818303038152906040528051906020012090509392505050565b90565b60d61c90565b3b151590565b600060ff821660011480620003f657505060ff1660021490565b6001600160a01b038116620013845760405162461bcd60e51b8152600401620004379062002016565b6001600160a01b03811660009081526020839052604090205415620013bd5760405162461bcd60e51b8152600401620004379062001faa565b6002820154620013f05760018201546001600160a01b0382166000908152602084905260409020429091019055620006a8565b506002018054600019019055565b60006127106200140e836200141d565b816200141657fe5b0492915050565b6000600161271003826040015161ffff1611156200144f5760405162461bcd60e51b8152600401620004379062001fbc565b81516429f16b11c667ffffffffffffffff9091161115620014845760405162461bcd60e51b815260040162000437906200205e565b5060408101516020820151825167ffffffffffffffff16633b9aca000261ffff9182166127100201911601919050565b61099e806200226283390190565b8035620003f68162002205565b60008083601f840112620014e257600080fd5b50813567ffffffffffffffff811115620014fb57600080fd5b6020830191508360208202830111156200151457600080fd5b9250929050565b8035620003f6816200221f565b8035620003f6816200222a565b6000606082840312156200154857600080fd5b50919050565b6000606082840312156200156157600080fd5b6200156d60606200217b565b905060006200157d8484620015d9565b82525060206200159084848301620015b2565b6020830152506040620015a684828501620015b2565b60408301525092915050565b8035620003f68162002235565b8035620003f68162002240565b8051620003f6816200221f565b8035620003f6816200224b565b8035620003f68162002256565b6000602082840312156200160657600080fd5b6000620003f28484620014c2565b6000806000604084860312156200162a57600080fd5b833567ffffffffffffffff8111156200164257600080fd5b6200165086828701620014cf565b935093505060206200166586828701620015bf565b9150509250925092565b6000602082840312156200168257600080fd5b6000620003f284846200151b565b60008060408385031215620016a457600080fd5b6000620016b285856200151b565b9250506020620016c585828601620015bf565b9150509250929050565b600060608284031215620016e257600080fd5b6000620003f284846200154e565b6000602082840312156200170357600080fd5b6000620003f28484620015cc565b600080604083850312156200172557600080fd5b60006200173385856200151b565b9250506020620016c585828601620014c2565b600080600080608085870312156200175d57600080fd5b60006200176b87876200151b565b94505060206200177e87828801620014c2565b93505060406200179187828801620015bf565b9250506060620017a4878288016200151b565b91505092959194509250565b6000806000806000806101008789031215620017cb57600080fd5b6000620017d989896200151b565b9650506020620017ec89828a01620014c2565b9550506040620017ff89828a01620015d9565b94505060606200181289828a0162001535565b93505060c06200182589828a01620015bf565b92505060e06200183889828a0162001528565b9150509295509295509295565b6000806000606084860312156200185b57600080fd5b60006200186986866200151b565b93505060206200187c86828701620014c2565b92505060406200166586828701620015e6565b6200189a81620021ac565b82525050565b6200189a620018af82620021ac565b620021f1565b6200189a81620021b9565b6200189a81620021be565b6000620018da601183620021a3565b70457869742071756575652065786973747360781b815260200192915050565b600062001909602c83620021a3565b7f54686520657869742067616d6520636f6e747261637420697320616c7265616481526b1e481c9959da5cdd195c995960a21b602082015260400192915050565b600062001959601683620021a3565b75496e76616c69642070726f746f636f6c2076616c756560501b815260200192915050565b60006200198d602583620021a3565b7f5468652073616d65207072696f7269747920697320616c726561647920656e718152641d595d595960da1b602082015260400192915050565b6000620019d6605083620021a3565b7f54686520717565756520666f722074686520287661756c7449642c20746f6b6581527f6e292070616972206973206e6f742079657420616464656420746f207468652060208201526f506c61736d61206672616d65776f726b60801b604082015260600192915050565b600062001a50601783620021a3565b7f4578697447616d652069732071756172616e74696e6564000000000000000000815260200192915050565b600062001a8b602383620021a3565b7f54686520636f6e747261637420697320616c72656164792071756172616e74698152621b995960ea1b602082015260400192915050565b600062001ad2601483620021a3565b73092dcecc2d8d2c840deeae8e0eae840d2dcc8caf60631b815260200192915050565b600062001b04603483620021a3565b7f5468652063616c6c206973206e6f742066726f6d2061207265676973746572658152731908195e1a5d0819d85b594818dbdb9d1c9858dd60621b602082015260400192915050565b600062001b5c602383620021a3565b7f53686f756c64206e6f7420666c6167207769746820656d707479206f757470758152621d125960ea1b602082015260400192915050565b600062001ba3603a83620021a3565b7f546f702065786974204944206f6620746865207175657565206973206469666681527f6572656e7420746f20746865206f6e6520737065636966696564000000000000602082015260400192915050565b600062001c04602283620021a3565b7f53686f756c64206e6f7420726567697374657220776974682074782074797065815261020360f41b602082015260400192915050565b600062001c4a602683620021a3565b7f416e20656d70747920616464726573732063616e6e6f742062652071756172618152651b9d1a5b995960d21b602082015260400192915050565b600062001c94601e83620021a3565b7f43616c6c6572206164647265737320697320756e617574686f72697a65640000815260200192915050565b600062001ccf600e83620021a3565b6d1499595b9d1c985b9d0818d85b1b60921b815260200192915050565b600062001cfb602183620021a3565b7f546865207478207479706520697320616c7265616479207265676973746572658152601960fa1b602082015260400192915050565b600062001d40601483620021a3565b7324b73b30b634b210313637b1b590373ab6b132b960611b815260200192915050565b600062001d72603283620021a3565b7f54686520746f6b656e206973206e6f742079657420616464656420746f2074688152716520506c61736d61206672616d65776f726b60701b602082015260400192915050565b600062001dc8602f83620021a3565b7f53686f756c64206e6f7420726567697374657220776974682061206e6f6e2d6381526e6f6e7472616374206164647265737360881b602082015260400192915050565b600062001e1b601383620021a3565b724578697420717565756520697320656d70747960681b815260200192915050565b600062001e4c601683620021a3565b7505661756c74204944206d757374206e6f7420626520360541b815260200192915050565b6200189a81620021d2565b6200189a8162001332565b6200189a62001e968262001332565b62001332565b6200189a81620021eb565b600062001eb5828562001e87565b60208201915062001ec78284620018a0565b5060140192915050565b600062001edf828662001e87565b60208201915062001ef1828562001e87565b60208201915062001f038284620018a0565b506014019392505050565b60208101620003f682846200188f565b60208101620003f68284620018b5565b60208101620003f68284620018c0565b60208082528101620003f681620018cb565b60208082528101620003f681620018fa565b60208082528101620003f6816200194a565b60208082528101620003f6816200197e565b60208082528101620003f681620019c7565b60208082528101620003f68162001a41565b60208082528101620003f68162001a7c565b60208082528101620003f68162001ac3565b60208082528101620003f68162001af5565b60208082528101620003f68162001b4d565b60208082528101620003f68162001b94565b60208082528101620003f68162001bf5565b60208082528101620003f68162001c3b565b60208082528101620003f68162001c85565b60208082528101620003f68162001cc0565b60208082528101620003f68162001cec565b60208082528101620003f68162001d31565b60208082528101620003f68162001d63565b60208082528101620003f68162001db9565b60208082528101620003f68162001e0c565b60208082528101620003f68162001e3d565b60208101620003f6828462001e71565b60608101620020d8828662001e71565b620020e7602083018562001e7c565b620020f660408301846200188f565b949350505050565b60208101620003f6828462001e7c565b604081016200211e828562001e7c565b62000aeb60208301846200188f565b606081016200213d828662001e7c565b6200214c60208301856200188f565b620020f6604083018462001e9c565b60608101620020d8828662001e7c565b60208101620003f6828462001e9c565b60405181810167ffffffffffffffff811182821017156200219b57600080fd5b604052919050565b90815260200190565b6000620003f682620021d2565b151590565b6000620003f682620021ac565b61ffff1690565b6001600160a01b031690565b67ffffffffffffffff1690565b60ff1690565b6000620003f6826000620003f68260601b90565b6200221081620021ac565b81146200221c57600080fd5b50565b620022108162001332565b6200221081620021be565b6200221081620021cb565b6200221081620021d2565b6200221081620021de565b6200221081620021eb56fe608060405234801561001057600080fd5b506040805160208101909152600080825261002c916001610049565b506000600155600280546001600160a01b031916331790556100b6565b828054828255906000526020600020908101928215610089579160200282015b82811115610089578251829060ff16905591602001919060010190610069565b50610095929150610099565b5090565b6100b391905b80821115610095576000815560010161009f565b90565b6108d9806100c56000396000f3fe608060405234801561001057600080fd5b506004361061007d5760003560e01c8063bda1504b1161005b578063bda1504b14610113578063d6362e971461011b578063e10d29ee14610123578063e9de55531461012b5761007d565b8063446b2f881461008257806390b5561d146100da578063b07576ac146100f9575b600080fd5b61008a61014f565b60408051602080825283518183015283519192839290830191858101910280838360005b838110156100c65781810151838201526020016100ae565b505050509050019250505060405180910390f35b6100f7600480360360208110156100f057600080fd5b50356101aa565b005b610101610263565b60408051918252519081900360200190f35b6101016103c5565b6101016103cb565b610101610432565b610133610438565b604080516001600160a01b039092168252519081900360200190f35b60606000800180548060200260200160405190810160405280929190818152602001828054801561019f57602002820191906000526020600020905b81548152602001906001019080831161018b575b505050505090505b90565b6002546001600160a01b031633811461020a576040805162461bcd60e51b815260206004820152601e60248201527f43616c6c6572206164647265737320697320756e617574686f72697a65640000604482015290519081900360640190fd5b60008054600181810183559180527f290decd9548b62a8d60345a988386fc84ba6bc95484008f6362f93160ef3e56301839055805461024e9163ffffffff61044716565b600181905561025f906000906104aa565b5050565b6002546000906001600160a01b03163381146102c6576040805162461bcd60e51b815260206004820152601e60248201527f43616c6c6572206164647265737320697320756e617574686f72697a65640000604482015290519081900360640190fd5b60015461030b576040805162461bcd60e51b815260206004820152600e60248201526d517565756520697320656d70747960901b604482015290519081900360640190fd5b60008060000160018154811061031d57fe5b6000918252602082200154600154825491935090811061033957fe5b90600052602060002001546000800160018154811061035457fe5b60009182526020822001919091556001548154811061036f57fe5b60009182526020822001556001805461038d9163ffffffff61058016565b600190815561039e906000906105dd565b6000546103b290600163ffffffff61058016565b6103bd600082610840565b5091505b5090565b60015490565b600154600090610413576040805162461bcd60e51b815260206004820152600e60248201526d517565756520697320656d70747960901b604482015290519081900360640190fd5b60008054600190811061042257fe5b9060005260206000200154905090565b60015481565b6002546001600160a01b031681565b6000828201838110156104a1576040805162461bcd60e51b815260206004820152601b60248201527f536166654d6174683a206164646974696f6e206f766572666c6f770000000000604482015290519081900360640190fd5b90505b92915050565b8154819081906000908590839081106104bf57fe5b906000526020600020015490505b846104df84600263ffffffff6106b416565b815481106104e957fe5b9060005260206000200154811015610555578461050d84600263ffffffff6106b416565b8154811061051757fe5b906000526020600020015485600001848154811061053157fe5b60009182526020909120015561054e83600263ffffffff6106b416565b92506104cd565b818314610579578085600001848154811061056c57fe5b6000918252602090912001555b5050505050565b6000828211156105d7576040805162461bcd60e51b815260206004820152601e60248201527f536166654d6174683a207375627472616374696f6e206f766572666c6f770000604482015290519081900360640190fd5b50900390565b8154819081906000908590839081106105f257fe5b90600052602060002001549050600061060b868561071e565b90505b8560010154811115801561063a575085600001818154811061062c57fe5b906000526020600020015482115b156106885785600001818154811061064e57fe5b906000526020600020015486600001858154811061066857fe5b600091825260209091200155925082610681868261071e565b905061060e565b8284146106ac578186600001858154811061069f57fe5b6000918252602090912001555b505050505050565b600080821161070a576040805162461bcd60e51b815260206004820152601a60248201527f536166654d6174683a206469766973696f6e206279207a65726f000000000000604482015290519081900360640190fd5b600082848161071557fe5b04949350505050565b6001808301546000916107489061073c85600263ffffffff6107e716565b9063ffffffff61044716565b11156107665761075f82600263ffffffff6107e716565b90506104a4565b8261077d600161073c85600263ffffffff6107e716565b8154811061078757fe5b600091825260209091200154836107a584600263ffffffff6107e716565b815481106107af57fe5b906000526020600020015410156107d15761075f82600263ffffffff6107e716565b61075f600161073c84600263ffffffff6107e716565b6000826107f6575060006104a4565b8282028284828161080357fe5b04146104a15760405162461bcd60e51b81526004018080602001828103825260218152602001806108846021913960400191505060405180910390fd5b81548183558181111561086457600083815260209020610864918101908301610869565b505050565b6101a791905b808211156103c1576000815560010161086f56fe536166654d6174683a206d756c7469706c69636174696f6e206f766572666c6f77a265627a7a7231582000c2a197da5a1f7f2d4f2ae081774fd5cd7f91e47e9f9ed0e75c94a291ab1a8864736f6c634300050b0032a365627a7a7231582015e1b3c4d6d149670850e1ec22a15cadb609739d194c621ca3483a52a45548686c6578706572696d656e74616cf564736f6c634300050b0040",
  "source": "pragma solidity 0.5.11;\npragma experimental ABIEncoderV2;\n\nimport \"../../src/framework/ExitGameController.sol\";\n\ncontract ExitGameControllerMock is ExitGameController {\n    address private maintainer;\n\n    constructor(uint256 _minExitPeriod, uint256 _initialImmuneExitGames)\n        public\n        ExitGameController(_minExitPeriod, _initialImmuneExitGames)\n    {\n        maintainer = msg.sender;\n    }\n\n    /**\n     * override to make it non-abstract contract\n     * this mock file set the user that deploys the contract as maintainer to simplify the test.\n     */\n    function getMaintainer() public view returns (address) {\n        return maintainer;\n    }\n}\n",
  "sourcePath": "/home/node/plasma-contracts/plasma_framework/contracts/mocks/framework/ExitGameControllerMock.sol",
  "compiler": {
    "name": "solc",
    "version": "0.5.11+commit.c082d0b4.Emscripten.clang"
  },
  "schemaVersion": "3.0.16",
  "updatedAt": "2020-04-07T14:07:49.537Z",
  "devdoc": {
    "methods": {
      "activateNonReentrant()": {
        "details": "Accessible only from non quarantined exit games, uses a mutex"
      },
      "addExitQueue(uint256,address)": {
        "details": "The queue is created as a new contract instance",
        "params": {
          "token": "Address of the token",
          "vaultId": "ID of the vault"
        }
      },
      "batchFlagOutputsFinalized(bytes32[],uint160)": {
        "params": {
          "outputIds": "Output IDs to flag"
        }
      },
      "deactivateNonReentrant()": {
        "details": "Accessible only from non quarantined exit games, uses a mutex"
      },
      "enqueue(uint256,address,uint64,(uint64,uint16,uint16),uint160,address)": {
        "details": "emits ExitQueued event, which can be used to back trace the priority inside the queueCaller of this function should add \"pragma experimental ABIEncoderV2;\" on top of filePriority (exitableAt, txPos, exitId) must be unique per queue. Do not enqueue when the same priority is already in the queue.",
        "params": {
          "exitId": "ID used by the exit processor contract to determine how to process the exit",
          "exitProcessor": "The exit processor contract, called during \"processExits\"",
          "exitableAt": "The earliest time a specified exit can be processed",
          "token": "Token for the exit",
          "txPos": "Transaction position for the exit priority. For SE it should be the exit tx, for IFE it should be the youngest input tx position.",
          "vaultId": "Vault ID of the vault that stores exiting funds"
        },
        "return": "A unique priority number computed for the exit"
      },
      "flagOutputFinalized(bytes32,uint160)": {
        "params": {
          "outputId": "The output ID to flag as spent"
        }
      },
      "hasExitQueue(uint256,address)": {
        "params": {
          "token": "Address of the token",
          "vaultId": "ID of the vault that handles the token"
        },
        "return": "bool Defines whether the queue for a token was created"
      },
      "isAnyInputFinalizedByOtherExit(bytes32[],uint160)": {
        "params": {
          "_outputIds": "Output IDs to check"
        }
      },
      "isExitGameSafeToUse(address)": {
        "details": "Exposes information about exit games quarantine",
        "params": {
          "_contract": "Address of the exit game contract"
        },
        "return": "boolean Whether the contract is safe to use and is not under quarantine"
      },
      "isOutputFinalized(bytes32)": {
        "params": {
          "outputId": "Output ID to check"
        }
      },
      "processExits(uint256,address,uint160,uint256)": {
        "details": "Emits ProcessedExitsNum event",
        "params": {
          "maxExitsToProcess": "Maximum number of exits to process",
          "token": "The token type to process",
          "topExitId": "Unique identifier for prioritizing the first exit to process. Set to zero to skip this check.",
          "vaultId": "Vault ID of the vault that stores exiting funds"
        },
        "return": "Total number of processed exits"
      },
      "registerExitGame(uint256,address,uint8)": {
        "details": "Emits ExitGameRegistered event to notify clients",
        "params": {
          "_contract": "Address of the exit game contract",
          "_protocol": "The transaction protocol, either 1 for MVP or 2 for MoreVP",
          "_txType": "The tx type where the exit game wants to register"
        }
      }
    }
  },
  "userdoc": {
    "methods": {
      "activateNonReentrant()": {
        "notice": "Activates non reentrancy mode        Guards against reentering into publicly accessible code that modifies state related to exits"
      },
      "addExitQueue(uint256,address)": {
        "notice": "Adds queue to the Plasma framework"
      },
      "batchFlagOutputsFinalized(bytes32[],uint160)": {
        "notice": "Batch flags already spent outputs (only not already spent)"
      },
      "deactivateNonReentrant()": {
        "notice": "Deactivates non reentrancy mode"
      },
      "enqueue(uint256,address,uint64,(uint64,uint16,uint16),uint160,address)": {
        "notice": "Enqueue exits from exit game contracts is a function that places the exit into the        priority queue to enforce the priority of exit during 'processExits'"
      },
      "exitGameToTxType(address)": {
        "notice": "Public getter for retrieving tx type with exit game address"
      },
      "exitGames(uint256)": {
        "notice": "Public getter for retrieving exit game address with tx type"
      },
      "flagOutputFinalized(bytes32,uint160)": {
        "notice": "Flags a single output as spent if it is not flagged already"
      },
      "getMaintainer()": {
        "notice": "override to make it non-abstract contract this mock file set the user that deploys the contract as maintainer to simplify the test."
      },
      "hasExitQueue(uint256,address)": {
        "notice": "Checks if the queue for a specified token was created"
      },
      "isAnyInputFinalizedByOtherExit(bytes32[],uint160)": {
        "notice": "Checks whether any of the output with the given outputIds is already spent"
      },
      "isExitGameSafeToUse(address)": {
        "notice": "Checks whether the contract is safe to use and is not under quarantine"
      },
      "isOutputFinalized(bytes32)": {
        "notice": "Checks whether output with a given outputId is finalized"
      },
      "processExits(uint256,address,uint160,uint256)": {
        "notice": "Processes any exits that have completed the challenge period. Exits are processed according to the exit priority."
      },
      "protocols(uint256)": {
        "notice": "Public getter for retrieving protocol with tx type"
      },
      "registerExitGame(uint256,address,uint8)": {
        "notice": "Registers an exit game within the PlasmaFramework. Only the maintainer can call the function."
      }
    }
  }
}