{
  "contractName": "ExitIdWrapper",
  "abi": [
    {
      "constant": true,
      "inputs": [
        {
          "internalType": "uint160",
          "name": "_exitId",
          "type": "uint160"
        }
      ],
      "name": "isStandardExit",
      "outputs": [
        {
          "internalType": "bool",
          "name": "",
          "type": "bool"
        }
      ],
      "payable": false,
      "stateMutability": "pure",
      "type": "function"
    },
    {
      "constant": true,
      "inputs": [
        {
          "internalType": "bool",
          "name": "_isDeposit",
          "type": "bool"
        },
        {
          "internalType": "bytes",
          "name": "_txBytes",
          "type": "bytes"
        },
        {
          "internalType": "uint256",
          "name": "_utxoPos",
          "type": "uint256"
        }
      ],
      "name": "getStandardExitId",
      "outputs": [
        {
          "internalType": "uint160",
          "name": "",
          "type": "uint160"
        }
      ],
      "payable": false,
      "stateMutability": "pure",
      "type": "function"
    },
    {
      "constant": true,
      "inputs": [
        {
          "internalType": "bytes",
          "name": "_txBytes",
          "type": "bytes"
        }
      ],
      "name": "getInFlightExitId",
      "outputs": [
        {
          "internalType": "uint160",
          "name": "",
          "type": "uint160"
        }
      ],
      "payable": false,
      "stateMutability": "pure",
      "type": "function"
    }
  ],
  "bytecode": "0x608060405234801561001057600080fd5b5061061d806100206000396000f3fe608060405234801561001057600080fd5b50600436106100415760003560e01c8063839c78f914610046578063b22d3e1414610108578063c3fa0edf146101b9575b600080fd5b6100ec6004803603602081101561005c57600080fd5b81019060208101813564010000000081111561007757600080fd5b82018360208201111561008957600080fd5b803590602001918460018302840111640100000000831117156100ab57600080fd5b91908080601f0160208091040260200160405190810160405280939291908181526020018383808284376000920191909152509295506101f3945050505050565b604080516001600160a01b039092168252519081900360200190f35b6100ec6004803603606081101561011e57600080fd5b81351515919081019060408101602082013564010000000081111561014257600080fd5b82018360208201111561015457600080fd5b8035906020019184600183028401116401000000008311171561017657600080fd5b91908080601f0160208091040260200160405190810160405280939291908181526020018383808284376000920191909152509295505091359250610204915050565b6101df600480360360208110156101cf57600080fd5b50356001600160a01b031661022f565b604080519115158252519081900360200190f35b60006101fe8261023a565b92915050565b600061020e610572565b61021783610258565b905061022485858361032a565b9150505b9392505050565b60006101fe826103e7565b805160208201206000906101fe9060691c609763ffffffff61040d16565b610260610572565b633b9aca00808304906127109084068190049084066429f16b11c68311156102b95760405162461bcd60e51b81526004018080602001828103825260348152602001806105936034913960400191505060405180910390fd5b61ffff8211156102fa5760405162461bcd60e51b81526004018080602001828103825260228152602001806105c76022913960400191505060405180910390fd5b6040805160608101825267ffffffffffffffff909416845261ffff92831660208501529116908201529050919050565b600083156103ca5760008361033e8461041a565b6040516020018083805190602001908083835b602083106103705780518252601f199092019160209182019101610351565b6001836020036101000a038019825116818451168082178552505050505050905001828152602001925050506040516020818303038152906040528051906020012090506103c2818460400151610503565b915050610228565b6103df83805190602001208360400151610503565b949350505050565b60006104036001600160a01b038316609763ffffffff61056816565b60ff161592915050565b600160ff919091161b1790565b6000600161271003826040015161ffff161115610475576040805162461bcd60e51b8152602060048201526014602482015273092dcecc2d8d2c840deeae8e0eae840d2dcc8caf60631b604482015290519081900360640190fd5b81516429f16b11c667ffffffffffffffff90911611156104d3576040805162461bcd60e51b815260206004820152601460248201527324b73b30b634b210313637b1b590373ab6b132b960611b604482015290519081900360640190fd5b5060408101516020820151825167ffffffffffffffff16633b9aca000261ffff9182166127100201911601919050565b6000606983901c61ffff60981b609884901b1617806001600160a01b03811681146103df576040805162461bcd60e51b815260206004820152601060248201526f457869744964206f766572666c6f777360801b604482015290519081900360640190fd5b60ff161c60011690565b60408051606081018252600080825260208201819052918101919091529056fe626c6f636b4e756d2065786365656473206d61782073697a6520616c6c6f77656420696e20506c61736d614672616d65776f726b7478496e6465782065786365656473207468652073697a65206f662075696e743136a265627a7a72315820dd4effa5acfa4b48a01b61381f8d72aec7db5460dabf954bcc9c85b4bafa80c064736f6c634300050b0032",
  "source": "pragma solidity 0.5.11;\n\nimport \"../../../src/utils/PosLib.sol\";\nimport \"../../../src/exits/utils/ExitId.sol\";\n\ncontract ExitIdWrapper {\n    function isStandardExit(uint160 _exitId) public pure returns (bool) {\n        return ExitId.isStandardExit(_exitId);\n    }\n\n    function getStandardExitId(bool _isDeposit, bytes memory _txBytes, uint256 _utxoPos)\n        public\n        pure\n        returns (uint160)\n    {\n        PosLib.Position memory utxoPos = PosLib.decode(_utxoPos);\n        return ExitId.getStandardExitId(_isDeposit, _txBytes, utxoPos);\n    }\n\n    function getInFlightExitId(bytes memory _txBytes)\n        public\n        pure\n        returns (uint160)\n    {\n        return ExitId.getInFlightExitId(_txBytes);\n    }\n}\n",
  "sourcePath": "/home/node/plasma-contracts/plasma_framework/contracts/mocks/exits/utils/ExitIdWrapper.sol",
  "compiler": {
    "name": "solc",
    "version": "0.5.11+commit.c082d0b4.Emscripten.clang"
  },
  "schemaVersion": "3.0.16",
  "updatedAt": "2020-04-07T14:07:49.523Z",
  "devdoc": {
    "methods": {}
  },
  "userdoc": {
    "methods": {}
  }
}