{
  "contractName": "ExitGameRegistryMock",
  "abi": [
    {
      "constant": true,
      "inputs": [
        {
          "internalType": "address",
          "name": "_contract",
          "type": "address"
        }
      ],
      "name": "isExitGameSafeToUse",
      "outputs": [
        {
          "internalType": "bool",
          "name": "",
          "type": "bool"
        }
      ],
      "payable": false,
      "stateMutability": "view",
      "type": "function"
    },
    {
      "constant": true,
      "inputs": [
        {
          "internalType": "uint256",
          "name": "_txType",
          "type": "uint256"
        }
      ],
      "name": "protocols",
      "outputs": [
        {
          "internalType": "uint8",
          "name": "",
          "type": "uint8"
        }
      ],
      "payable": false,
      "stateMutability": "view",
      "type": "function"
    },
    {
      "constant": true,
      "inputs": [
        {
          "internalType": "address",
          "name": "_exitGame",
          "type": "address"
        }
      ],
      "name": "exitGameToTxType",
      "outputs": [
        {
          "internalType": "uint256",
          "name": "",
          "type": "uint256"
        }
      ],
      "payable": false,
      "stateMutability": "view",
      "type": "function"
    },
    {
      "constant": true,
      "inputs": [
        {
          "internalType": "uint256",
          "name": "_txType",
          "type": "uint256"
        }
      ],
      "name": "exitGames",
      "outputs": [
        {
          "internalType": "address",
          "name": "",
          "type": "address"
        }
      ],
      "payable": false,
      "stateMutability": "view",
      "type": "function"
    },
    {
      "constant": false,
      "inputs": [
        {
          "internalType": "uint256",
          "name": "_txType",
          "type": "uint256"
        },
        {
          "internalType": "address",
          "name": "_contract",
          "type": "address"
        },
        {
          "internalType": "uint8",
          "name": "_protocol",
          "type": "uint8"
        }
      ],
      "name": "registerExitGame",
      "outputs": [],
      "payable": false,
      "stateMutability": "nonpayable",
      "type": "function"
    },
    {
      "inputs": [
        {
          "internalType": "uint256",
          "name": "_minExitPeriod",
          "type": "uint256"
        },
        {
          "internalType": "uint256",
          "name": "_initialImmuneExitGames",
          "type": "uint256"
        }
      ],
      "payable": false,
      "stateMutability": "nonpayable",
      "type": "constructor"
    },
    {
      "anonymous": false,
      "inputs": [
        {
          "indexed": false,
          "internalType": "uint256",
          "name": "txType",
          "type": "uint256"
        },
        {
          "indexed": false,
          "internalType": "address",
          "name": "exitGameAddress",
          "type": "address"
        },
        {
          "indexed": false,
          "internalType": "uint8",
          "name": "protocol",
          "type": "uint8"
        }
      ],
      "name": "ExitGameRegistered",
      "type": "event"
    },
    {
      "constant": true,
      "inputs": [],
      "name": "getMaintainer",
      "outputs": [
        {
          "internalType": "address",
          "name": "",
          "type": "address"
        }
      ],
      "payable": false,
      "stateMutability": "view",
      "type": "function"
    },
    {
      "constant": false,
      "inputs": [
        {
          "internalType": "address",
          "name": "maintainerToSet",
          "type": "address"
        }
      ],
      "name": "setMaintainer",
      "outputs": [],
      "payable": false,
      "stateMutability": "nonpayable",
      "type": "function"
    },
    {
      "constant": true,
      "inputs": [],
      "name": "checkOnlyFromNonQuarantinedExitGame",
      "outputs": [
        {
          "internalType": "bool",
          "name": "",
          "type": "bool"
        }
      ],
      "payable": false,
      "stateMutability": "view",
      "type": "function"
    }
  ],
  "bytecode": "0x608060405234801561001057600080fd5b5060405161088c38038061088c8339818101604052604081101561003357600080fd5b5080516020909101516004918202909155600555610836806100566000396000f3fe608060405234801561001057600080fd5b50600436106100885760003560e01c8063a239e5a21161005b578063a239e5a214610146578063af0797641461017e578063e22369151461019b578063f2e208e7146101a357610088565b806313ea5d291461008d5780634b0a72bc146100b55780635a102dae146100d95780638c39622014610113575b600080fd5b6100b3600480360360208110156100a357600080fd5b50356001600160a01b03166101d8565b005b6100bd6101fa565b604080516001600160a01b039092168252519081900360200190f35b6100ff600480360360208110156100ef57600080fd5b50356001600160a01b0316610209565b604080519115158252519081900360200190f35b6101306004803603602081101561012957600080fd5b5035610244565b6040805160ff9092168252519081900360200190f35b61016c6004803603602081101561015c57600080fd5b50356001600160a01b0316610259565b60408051918252519081900360200190f35b6100bd6004803603602081101561019457600080fd5b5035610274565b6100ff61028f565b6100b3600480360360608110156101b957600080fd5b5080359060208101356001600160a01b0316906040013560ff16610343565b600680546001600160a01b0319166001600160a01b0392909216919091179055565b6006546001600160a01b031690565b6001600160a01b0381166000908152600160205260408120541580159061023e575061023c60038363ffffffff6105cd16565b155b92915050565b60009081526002602052604090205460ff1690565b6001600160a01b031660009081526001602052604090205490565b6000908152602081905260409020546001600160a01b031690565b336000908152600160205260408120546102da5760405162461bcd60e51b81526004018080602001828103825260348152602001806107366034913960400191505060405180910390fd5b6102eb60033363ffffffff6105cd16565b1561033d576040805162461bcd60e51b815260206004820152601760248201527f4578697447616d652069732071756172616e74696e6564000000000000000000604482015290519081900360640190fd5b50600190565b61034b6101fa565b336001600160a01b038216146103a8576040805162461bcd60e51b815260206004820152601e60248201527f43616c6c6572206164647265737320697320756e617574686f72697a65640000604482015290519081900360640190fd5b836103e45760405162461bcd60e51b815260040180806020018281038252602281526020018061076a6022913960400191505060405180910390fd5b6103ed836105eb565b6104285760405162461bcd60e51b815260040180806020018281038252602f8152602001806107d3602f913960400191505060405180910390fd5b6000848152602081905260409020546001600160a01b03161561047c5760405162461bcd60e51b81526004018080602001828103825260218152602001806107b26021913960400191505060405180910390fd5b6001600160a01b038316600090815260016020526040902054156104d15760405162461bcd60e51b815260040180806020018281038252602c8152602001806106e7602c913960400191505060405180910390fd5b6104da826105f1565b610524576040805162461bcd60e51b8152602060048201526016602482015275496e76616c69642070726f746f636f6c2076616c756560501b604482015290519081900360640190fd5b60008481526020818152604080832080546001600160a01b0319166001600160a01b03881690811790915583526001825280832087905586835260029091529020805460ff191660ff841617905561057d60038461060a565b604080518581526001600160a01b038516602082015260ff84168183015290517f0ceb02f7474c01f5959171cead2f5fb2a44d9c16fe480725a2110b601b19db829181900360600190a150505050565b6001600160a01b031660009081526020919091526040902054421090565b3b151590565b600060ff82166001148061023e57505060ff1660021490565b6001600160a01b03811661064f5760405162461bcd60e51b815260040180806020018281038252602681526020018061078c6026913960400191505060405180910390fd5b6001600160a01b038116600090815260208390526040902054156106a45760405162461bcd60e51b81526004018080602001828103825260238152602001806107136023913960400191505060405180910390fd5b60028201546106d55760018201546001600160a01b03821660009081526020849052604090204290910190556106e2565b6002820180546000190190555b505056fe54686520657869742067616d6520636f6e747261637420697320616c7265616479207265676973746572656454686520636f6e747261637420697320616c72656164792071756172616e74696e65645468652063616c6c206973206e6f742066726f6d2061207265676973746572656420657869742067616d6520636f6e747261637453686f756c64206e6f74207265676973746572207769746820747820747970652030416e20656d70747920616464726573732063616e6e6f742062652071756172616e74696e6564546865207478207479706520697320616c7265616479207265676973746572656453686f756c64206e6f7420726567697374657220776974682061206e6f6e2d636f6e74726163742061646472657373a265627a7a7231582038eccc089fea49e071ae78c323478204cdab313bb71e6fc29ce6e61a4a643e2864736f6c634300050b0032",
  "source": "pragma solidity 0.5.11;\n\nimport \"../../../src/framework/registries/ExitGameRegistry.sol\";\n\ncontract ExitGameRegistryMock is ExitGameRegistry {\n    address private maintainer;\n\n    constructor (uint256 _minExitPeriod, uint256 _initialImmuneExitGames)\n        public\n        ExitGameRegistry(_minExitPeriod, _initialImmuneExitGames)\n    {\n    }\n\n    /** override to make it non-abstract contract */\n    function getMaintainer() public view returns (address) {\n        return maintainer;\n    }\n\n    /** test helper function */\n    function setMaintainer(address maintainerToSet) public {\n        maintainer = maintainerToSet;\n    }\n\n    function checkOnlyFromNonQuarantinedExitGame() public onlyFromNonQuarantinedExitGame view returns (bool) {\n        return true;\n    }\n}\n",
  "sourcePath": "/home/node/plasma-contracts/plasma_framework/contracts/mocks/framework/registries/ExitGameRegistryMock.sol",
  "compiler": {
    "name": "solc",
    "version": "0.5.11+commit.c082d0b4.Emscripten.clang"
  },
  "schemaVersion": "3.0.16",
  "updatedAt": "2020-04-07T14:07:49.560Z",
  "devdoc": {
    "methods": {
      "isExitGameSafeToUse(address)": {
        "details": "Exposes information about exit games quarantine",
        "params": {
          "_contract": "Address of the exit game contract"
        },
        "return": "boolean Whether the contract is safe to use and is not under quarantine"
      },
      "registerExitGame(uint256,address,uint8)": {
        "details": "Emits ExitGameRegistered event to notify clients",
        "params": {
          "_contract": "Address of the exit game contract",
          "_protocol": "The transaction protocol, either 1 for MVP or 2 for MoreVP",
          "_txType": "The tx type where the exit game wants to register"
        }
      }
    }
  },
  "userdoc": {
    "methods": {
      "exitGameToTxType(address)": {
        "notice": "Public getter for retrieving tx type with exit game address"
      },
      "exitGames(uint256)": {
        "notice": "Public getter for retrieving exit game address with tx type"
      },
      "getMaintainer()": {
        "notice": "override to make it non-abstract contract "
      },
      "isExitGameSafeToUse(address)": {
        "notice": "Checks whether the contract is safe to use and is not under quarantine"
      },
      "protocols(uint256)": {
        "notice": "Public getter for retrieving protocol with tx type"
      },
      "registerExitGame(uint256,address,uint8)": {
        "notice": "Registers an exit game within the PlasmaFramework. Only the maintainer can call the function."
      },
      "setMaintainer(address)": {
        "notice": "test helper function "
      }
    }
  }
}