{
  "contractName": "ExitableTimestampWrapper",
  "abi": [
    {
      "inputs": [
        {
          "internalType": "uint256",
          "name": "_minExitPeriod",
          "type": "uint256"
        }
      ],
      "payable": false,
      "stateMutability": "nonpayable",
      "type": "constructor"
    },
    {
      "constant": true,
      "inputs": [
        {
          "internalType": "uint256",
          "name": "_now",
          "type": "uint256"
        }
      ],
      "name": "calculateDepositTxOutputExitableTimestamp",
      "outputs": [
        {
          "internalType": "uint64",
          "name": "",
          "type": "uint64"
        }
      ],
      "payable": false,
      "stateMutability": "view",
      "type": "function"
    },
    {
      "constant": true,
      "inputs": [
        {
          "internalType": "uint256",
          "name": "_now",
          "type": "uint256"
        },
        {
          "internalType": "uint256",
          "name": "_blockTimestamp",
          "type": "uint256"
        }
      ],
      "name": "calculateTxExitableTimestamp",
      "outputs": [
        {
          "internalType": "uint64",
          "name": "",
          "type": "uint64"
        }
      ],
      "payable": false,
      "stateMutability": "view",
      "type": "function"
    }
  ],
  "bytecode": "0x608060405234801561001057600080fd5b506040516101b03803806101b08339818101604052602081101561003357600080fd5b5051604080516020810190915281905260005561015b806100556000396000f3fe608060405234801561001057600080fd5b50600436106100365760003560e01c8063ae9559841461003b578063ebb5b79414610075575b600080fd5b6100586004803603602081101561005157600080fd5b5035610098565b6040805167ffffffffffffffff9092168252519081900360200190f35b6100586004803603604081101561008b57600080fd5b50803590602001356100c0565b6040805160208101909152600080548252906100ba908363ffffffff6100ea16565b92915050565b6040805160208101909152600080548252906100e390848463ffffffff6100f016565b9392505050565b90510190565b82516000906101079060028102840190850161010f565b949350505050565b60008183101561011f57816100e3565b509091905056fea265627a7a72315820b54d6eaf2d5fadf7817251c82899170aabc2b3d92282077f003de110b4e1d38a64736f6c634300050b0032",
  "source": "pragma solidity 0.5.11;\n\nimport \"../../../src/exits/utils/ExitableTimestamp.sol\";\n\ncontract ExitableTimestampWrapper {\n    using ExitableTimestamp for ExitableTimestamp.Calculator;\n    ExitableTimestamp.Calculator internal calculator;\n\n    constructor(uint256 _minExitPeriod) public {\n        calculator = ExitableTimestamp.Calculator(_minExitPeriod);\n    }\n\n    function calculateDepositTxOutputExitableTimestamp(\n        uint256 _now\n    )\n        public\n        view\n        returns (uint64)\n    {\n        return calculator.calculateDepositTxOutputExitableTimestamp(_now);\n    }\n\n    function calculateTxExitableTimestamp(\n        uint256 _now,\n        uint256 _blockTimestamp\n    )\n        public\n        view\n        returns (uint64)\n    {\n        return calculator.calculateTxExitableTimestamp(_now, _blockTimestamp);\n    }\n}\n",
  "sourcePath": "/home/node/plasma-contracts/plasma_framework/contracts/mocks/exits/utils/ExitableTimestampWrapper.sol",
  "compiler": {
    "name": "solc",
    "version": "0.5.11+commit.c082d0b4.Emscripten.clang"
  },
  "schemaVersion": "3.0.16",
  "updatedAt": "2020-04-07T14:07:49.525Z",
  "devdoc": {
    "methods": {}
  },
  "userdoc": {
    "methods": {}
  }
}