{
  "contractName": "ExitPriorityWrapper",
  "abi": [
    {
      "constant": true,
      "inputs": [
        {
          "internalType": "uint64",
          "name": "exitableAt",
          "type": "uint64"
        },
        {
          "internalType": "uint256",
          "name": "txPos",
          "type": "uint256"
        },
        {
          "internalType": "uint160",
          "name": "exitId",
          "type": "uint160"
        }
      ],
      "name": "computePriority",
      "outputs": [
        {
          "internalType": "uint256",
          "name": "",
          "type": "uint256"
        }
      ],
      "payable": false,
      "stateMutability": "pure",
      "type": "function"
    },
    {
      "constant": true,
      "inputs": [
        {
          "internalType": "uint256",
          "name": "priority",
          "type": "uint256"
        }
      ],
      "name": "parseExitableAt",
      "outputs": [
        {
          "internalType": "uint64",
          "name": "",
          "type": "uint64"
        }
      ],
      "payable": false,
      "stateMutability": "pure",
      "type": "function"
    },
    {
      "constant": true,
      "inputs": [
        {
          "internalType": "uint256",
          "name": "priority",
          "type": "uint256"
        }
      ],
      "name": "parseExitId",
      "outputs": [
        {
          "internalType": "uint160",
          "name": "",
          "type": "uint160"
        }
      ],
      "payable": false,
      "stateMutability": "pure",
      "type": "function"
    }
  ],
  "bytecode": "0x608060405234801561001057600080fd5b506103fe806100206000396000f3fe608060405234801561001057600080fd5b50600436106100415760003560e01c8063129dba961461004657806395a8dca614610080578063a4bc3cea146100ce575b600080fd5b6100636004803603602081101561005c57600080fd5b5035610107565b6040805167ffffffffffffffff9092168252519081900360200190f35b6100bc6004803603606081101561009657600080fd5b50803567ffffffffffffffff1690602081013590604001356001600160a01b0316610118565b60408051918252519081900360200190f35b6100eb600480360360208110156100e457600080fd5b5035610135565b604080516001600160a01b039092168252519081900360200190f35b600061011282610140565b92915050565b600061012d8461012785610146565b84610218565b949350505050565b60006101128261024b565b60d61c90565b61014e610353565b633b9aca00808304906127109084068190049084066429f16b11c68311156101a75760405162461bcd60e51b81526004018080602001828103825260348152602001806103746034913960400191505060405180910390fd5b61ffff8211156101e85760405162461bcd60e51b81526004018080602001828103825260228152602001806103a86022913960400191505060405180910390fd5b6040805160608101825267ffffffffffffffff909416845261ffff92831660208501529116908201529050919050565b6000816001600160a01b031660a061022f8561024e565b901b60d68667ffffffffffffffff16901b171790509392505050565b90565b600061271061025c8361026a565b8161026357fe5b0492915050565b6000600161271003826040015161ffff1611156102c5576040805162461bcd60e51b8152602060048201526014602482015273092dcecc2d8d2c840deeae8e0eae840d2dcc8caf60631b604482015290519081900360640190fd5b81516429f16b11c667ffffffffffffffff9091161115610323576040805162461bcd60e51b815260206004820152601460248201527324b73b30b634b210313637b1b590373ab6b132b960611b604482015290519081900360640190fd5b5060408101516020820151825167ffffffffffffffff16633b9aca000261ffff9182166127100201911601919050565b60408051606081018252600080825260208201819052918101919091529056fe626c6f636b4e756d2065786365656473206d61782073697a6520616c6c6f77656420696e20506c61736d614672616d65776f726b7478496e6465782065786365656473207468652073697a65206f662075696e743136a265627a7a723158208f0dec797b18d064fd7104424123a15f290a134ec81683ed3163d8626747b77264736f6c634300050b0032",
  "source": "pragma solidity 0.5.11;\n\nimport \"../../../src/framework/utils/ExitPriority.sol\";\nimport \"../../../src/utils/PosLib.sol\";\n\ncontract ExitPriorityWrapper {\n    function computePriority(uint64 exitableAt, uint256 txPos, uint160 exitId) public pure returns (uint256) {\n        return ExitPriority.computePriority(exitableAt, PosLib.decode(txPos), exitId);\n    }\n\n    function parseExitableAt(uint256 priority) public pure returns (uint64) {\n        return ExitPriority.parseExitableAt(priority);\n    }\n\n    function parseExitId(uint256 priority) public pure returns (uint160) {\n        return ExitPriority.parseExitId(priority);\n    }\n}\n",
  "sourcePath": "/home/node/plasma-contracts/plasma_framework/contracts/mocks/framework/utils/ExitPriorityWrapper.sol",
  "compiler": {
    "name": "solc",
    "version": "0.5.11+commit.c082d0b4.Emscripten.clang"
  },
  "schemaVersion": "3.0.16",
  "updatedAt": "2020-04-07T14:07:49.563Z",
  "devdoc": {
    "methods": {}
  },
  "userdoc": {
    "methods": {}
  }
}