{
  "contractName": "FailFastReentrancyGuardAttacker",
  "abi": [
    {
      "inputs": [
        {
          "internalType": "contract PlasmaFramework",
          "name": "plasmaFramework",
          "type": "address"
        }
      ],
      "payable": false,
      "stateMutability": "nonpayable",
      "type": "constructor"
    },
    {
      "anonymous": false,
      "inputs": [],
      "name": "RemoteCallFailed",
      "type": "event"
    },
    {
      "constant": false,
      "inputs": [],
      "name": "guardedLocal",
      "outputs": [],
      "payable": false,
      "stateMutability": "nonpayable",
      "type": "function"
    },
    {
      "constant": false,
      "inputs": [],
      "name": "guardedRemote",
      "outputs": [],
      "payable": false,
      "stateMutability": "nonpayable",
      "type": "function"
    }
  ],
  "bytecode": "0x608060405234801561001057600080fd5b506040516103e63803806103e683398101604081905261002f91610065565b600080546001600160a01b0319166001600160a01b03929092169190911790556100c4565b805161005f816100ad565b92915050565b60006020828403121561007757600080fd5b60006100838484610054565b949350505050565b600061005f826100a1565b600061005f8261008b565b6001600160a01b031690565b6100b681610096565b81146100c157600080fd5b50565b610313806100d36000396000f3fe608060405234801561001057600080fd5b50600436106100365760003560e01c806324c91ff51461003b578063c4b4152e14610045575b600080fd5b61004361004d565b005b6100436101b2565b6000805460408051600162d84e7760e01b0319815290516001600160a01b0390921692839263ff27b18992600480820193929182900301818387803b15801561009557600080fd5b505af11580156100a9573d6000803e3d6000fd5b505060408051600481526024810182526020810180516001600160e01b03166324c91ff560e01b1790529051600093503092506100e69190610284565b6000604051808303816000865af19150503d8060008114610123576040519150601f19603f3d011682016040523d82523d6000602084013e610128565b606091505b505090508061015b576040517fef716e9372205203fc19568c8ea52ab567d8176cf652631acccb75e55ae37a8190600090a15b50806001600160a01b0316634e0f74366040518163ffffffff1660e01b8152600401600060405180830381600087803b15801561019757600080fd5b505af11580156101ab573d6000803e3d6000fd5b5050505050565b6000805460408051600162d84e7760e01b0319815290516001600160a01b0390921692839263ff27b18992600480820193929182900301818387803b1580156101fa57600080fd5b505af115801561020e573d6000803e3d6000fd5b5050505061021a6101b2565b806001600160a01b0316634e0f74366040518163ffffffff1660e01b8152600401600060405180830381600087803b15801561019757600080fd5b600061026082610297565b61026a818561029b565b935061027a8185602086016102a0565b9290920192915050565b60006102908284610255565b9392505050565b5190565b919050565b60005b838110156102bb5781810151838201526020016102a3565b838111156102ca576000848401525b5050505056fea365627a7a7231582076b51146c022fd13096c848b02fd635909068e1da2552101228594a3d1026b3c6c6578706572696d656e74616cf564736f6c634300050b0040",
  "source": "pragma solidity 0.5.11;\npragma experimental ABIEncoderV2;\n\nimport \"../../src/utils/FailFastReentrancyGuard.sol\";\nimport \"../../src/framework/PlasmaFramework.sol\";\n\ncontract FailFastReentrancyGuardAttacker is FailFastReentrancyGuard {\n    PlasmaFramework private framework;\n\n    event RemoteCallFailed();\n\n    constructor(PlasmaFramework plasmaFramework) public {\n        framework = plasmaFramework;\n    }\n\n    function guardedLocal() public nonReentrant(framework) {\n        guardedLocal();\n    }\n\n    function guardedRemote() external nonReentrant(framework) {\n        // solhint-disable-next-line avoid-low-level-calls\n        (bool success, ) = address(this).call(abi.encodeWithSignature(\"guardedRemote()\"));\n        if (!success) {\n            emit RemoteCallFailed();\n        }\n    }\n}\n",
  "sourcePath": "/home/node/plasma-contracts/plasma_framework/contracts/mocks/attackers/FailFastReentrancyGuardAttacker.sol",
  "compiler": {
    "name": "solc",
    "version": "0.5.11+commit.c082d0b4.Emscripten.clang"
  },
  "schemaVersion": "3.0.16",
  "updatedAt": "2020-04-07T14:07:49.418Z",
  "devdoc": {
    "methods": {}
  },
  "userdoc": {
    "methods": {}
  }
}