{
  "contractName": "FeeClaimOutputToPaymentTxCondition",
  "abi": [
    {
      "constant": true,
      "inputs": [],
      "name": "paymentTxType",
      "outputs": [
        {
          "internalType": "uint256",
          "name": "",
          "type": "uint256"
        }
      ],
      "payable": false,
      "stateMutability": "view",
      "type": "function"
    },
    {
      "constant": true,
      "inputs": [],
      "name": "feeClaimOutputType",
      "outputs": [
        {
          "internalType": "uint256",
          "name": "",
          "type": "uint256"
        }
      ],
      "payable": false,
      "stateMutability": "view",
      "type": "function"
    },
    {
      "constant": true,
      "inputs": [],
      "name": "feeTxType",
      "outputs": [
        {
          "internalType": "uint256",
          "name": "",
          "type": "uint256"
        }
      ],
      "payable": false,
      "stateMutability": "view",
      "type": "function"
    },
    {
      "inputs": [
        {
          "internalType": "contract PlasmaFramework",
          "name": "_framework",
          "type": "address"
        },
        {
          "internalType": "uint256",
          "name": "_feeTxType",
          "type": "uint256"
        },
        {
          "internalType": "uint256",
          "name": "_feeClaimOutputType",
          "type": "uint256"
        },
        {
          "internalType": "uint256",
          "name": "_paymentTxType",
          "type": "uint256"
        }
      ],
      "payable": false,
      "stateMutability": "nonpayable",
      "type": "constructor"
    },
    {
      "constant": true,
      "inputs": [
        {
          "internalType": "bytes",
          "name": "feeTxBytes",
          "type": "bytes"
        },
        {
          "internalType": "uint256",
          "name": "utxoPos",
          "type": "uint256"
        },
        {
          "internalType": "bytes",
          "name": "paymentTxBytes",
          "type": "bytes"
        },
        {
          "internalType": "uint16",
          "name": "inputIndex",
          "type": "uint16"
        },
        {
          "internalType": "bytes",
          "name": "signature",
          "type": "bytes"
        }
      ],
      "name": "verify",
      "outputs": [
        {
          "internalType": "bool",
          "name": "",
          "type": "bool"
        }
      ],
      "payable": false,
      "stateMutability": "view",
      "type": "function"
    }
  ],
  "bytecode": "0x60806040523480156200001157600080fd5b50604051620026a2380380620026a2833981810160405260808110156200003757600080fd5b50805160208083015160408401516060909401519293909290916200006790859062001e4b6200007e821b17901c565b51600355600092909255600155600255506200018c565b620000886200017a565b6000604051808062002653604f91396040805191829003604f0182207f4f4d47204e6574776f726b0000000000000000000000000000000000000000008352815192839003600b0183207f3100000000000000000000000000000000000000000000000000000000000000845282519384900360010184206020808601939093528484019190915260608401526001600160a01b03871660808401527ffad5c7f626d80f9256ef01929f3beb96e058b8b4b0e3fe52d84f054c0e2a7a8360a0808501919091528251808503909101815260c084018084528151919092012060e090930190915290815292505050919050565b60408051602081019091526000815290565b6124b7806200019c6000396000f3fe608060405234801561001057600080fd5b506004361061004c5760003560e01c8063255ed0cf1461005157806379cdd35b1461006b578063a0af610e14610073578063e618a6f51461007b575b600080fd5b6100596101af565b60408051918252519081900360200190f35b6100596101b5565b6100596101bb565b61019b600480360360a081101561009157600080fd5b8101906020810181356401000000008111156100ac57600080fd5b8201836020820111156100be57600080fd5b803590602001918460018302840111640100000000831117156100e057600080fd5b9193909282359260408101906020013564010000000081111561010257600080fd5b82018360208201111561011457600080fd5b8035906020019184600183028401116401000000008311171561013657600080fd5b9193909261ffff8335169260408101906020013564010000000081111561015c57600080fd5b82018360208201111561016e57600080fd5b8035906020019184600183028401116401000000008311171561019057600080fd5b5090925090506101c1565b604080519115158252519081900360200190f35b60025481565b60015481565b60005481565b60006101cb611d64565b6101d48861051b565b9050806040015161ffff1660001461021d5760405162461bcd60e51b81526004018080602001828103825260338152602001806122cf6033913960400191505060405180910390fd5b610225611d84565b6102648b8b8080601f0160208091040260200160405190810160405280939291908181526020018383808284376000920191909152506105ee92505050565b905061026e611db9565b61027c8284604001516107f8565b6000548351919250146102c05760405162461bcd60e51b81526004018080602001828103825260268152602001806122146026913960400191505060405180910390fd5b6001548151146103015760405162461bcd60e51b815260040180806020018281038252602b8152602001806123d5602b913960400191505060405180910390fd5b610309611de0565b6103488a8a8080601f01602080910402602001604051908101604052809392919081815260200183838082843760009201919091525061088a92505050565b60025481519192501461038c5760405162461bcd60e51b815260040180806020018281038252602a815260200180612459602a913960400191505060405180910390fd5b610395846108a3565b6020820151805161ffff8b169081106103aa57fe5b6020026020010151146103ee5760405162461bcd60e51b815260040180806020018281038252604f815260200180611f5d604f913960600191505060405180910390fd5b602080830151604080519283019052600354825260601c906000906104599061041d908563ffffffff61098c16565b8a8a8080601f0160208091040260200160405190810160405280939291908181526020018383808284376000920191909152506109f292505050565b90506001600160a01b0381166104a05760405162461bcd60e51b815260040180806020018281038252602f81526020018061242a602f913960400191505060405180910390fd5b806001600160a01b0316826001600160a01b031614610506576040805162461bcd60e51b815260206004820152601a60248201527f5478206973206e6f74207369676e656420636f72726563746c79000000000000604482015290519081900360640190fd5b5060019e9d5050505050505050505050505050565b610523611d64565b633b9aca00808304906127109084068190049084066429f16b11c683111561057c5760405162461bcd60e51b8152600401808060200182810382526034815260200180611f296034913960400191505060405180910390fd5b61ffff8211156105bd5760405162461bcd60e51b81526004018080602001828103825260228152602001806120076022913960400191505060405180910390fd5b6040805160608101825267ffffffffffffffff909416845261ffff928316602085015291169082015290505b919050565b6105f6611d84565b606061060961060484610ae0565b610b05565b8051909150600514610662576040805162461bcd60e51b815260206004820152601f60248201527f496e76616c696420656e636f64696e67206f66207472616e73616374696f6e00604482015290519081900360640190fd5b60006106818260008151811061067457fe5b6020026020010151610c5d565b9050600081116106d8576040805162461bcd60e51b815260206004820152601e60248201527f5472616e73616374696f6e2074797065206d757374206e6f7420626520300000604482015290519081900360640190fd5b60606106f7836002815181106106ea57fe5b6020026020010151610b05565b90506060815160405190808252806020026020018201604052801561073657816020015b610723611e12565b81526020019060019003908161071b5790505b50905060005b82518110156107805761076183828151811061075457fe5b6020026020010151610e34565b82828151811061076d57fe5b602090810291909101015260010161073c565b5060006107a08560048151811061079357fe5b6020026020010151610f42565b90506040518060a001604052808581526020016107c3876001815181106106ea57fe5b8152602001838152602001866003815181106107db57fe5b602002602001015181526020018281525095505050505050919050565b610800611db9565b8260400151518261ffff161061085d576040805162461bcd60e51b815260206004820152601a60248201527f4f757470757420696e646578206f7574206f6620626f756e6473000000000000604482015290519081900360640190fd5b61088183604001518361ffff168151811061087457fe5b6020026020010151611061565b90505b92915050565b610892611de0565b61088461089e836105ee565b61120f565b6000600161271003826040015161ffff1611156108fe576040805162461bcd60e51b8152602060048201526014602482015273092dcecc2d8d2c840deeae8e0eae840d2dcc8caf60631b604482015290519081900360640190fd5b81516429f16b11c667ffffffffffffffff909116111561095c576040805162461bcd60e51b815260206004820152601460248201527324b73b30b634b210313637b1b590373ab6b132b960611b604482015290519081900360640190fd5b5060408101516020820151825167ffffffffffffffff16633b9aca000261ffff9182166127100201911601919050565b600061190160f01b83600001516109a2846114b4565b60405160200180846001600160f01b0319166001600160f01b0319168152600201838152602001828152602001935050505060405160208183030381529060405280519060200120905092915050565b60008151604114610a0557506000610884565b60208201516040830151606084015160001a7f7fffffffffffffffffffffffffffffff5d576e7357a4501ddfe92f46681b20a0821115610a4b5760009350505050610884565b8060ff16601b14158015610a6357508060ff16601c14155b15610a745760009350505050610884565b6040805160008152602080820180845289905260ff8416828401526060820186905260808201859052915160019260a0808401939192601f1981019281900390910190855afa158015610acb573d6000803e3d6000fd5b5050604051601f190151979650505050505050565b610ae8611e31565b506040805180820190915281518152602082810190820152919050565b6060610b1082611707565b610b56576040805162461bcd60e51b8152602060048201526012602482015271125d195b481a5cc81b9bdd0818481b1a5cdd60721b604482015290519081900360640190fd5b600080610b668460200151611741565b855191935091508214610baa5760405162461bcd60e51b81526004018080602001828103825260268152602001806120296026913960400191505060405180910390fd5b6000610bb5856119c7565b9050606081604051908082528060200260200182016040528015610bf357816020015b610be0611e31565b815260200190600190039081610bd85790505b50602087015190915083016000805b84811015610c5057610c1383611741565b5080925050604051806040016040528083815260200184815250848281518110610c3957fe5b602090810291909101015291810191600101610c02565b5091979650505050505050565b805160009015801590610c7257508151602110155b610cad5760405162461bcd60e51b815260040180806020018281038252602a815260200180612400602a913960400191505060405180910390fd5b610cb682611707565b15610d02576040805162461bcd60e51b8152602060048201526017602482015276125d195b481b5d5cdd081b9bdd0818994818481b1a5cdd604a1b604482015290519081900360640190fd5b600080610d128460200151611741565b855191935091508214610d565760405162461bcd60e51b815260040180806020018281038252603a815260200180611fcd603a913960400191505060405180910390fd5b60208085015182018051838503929091600083901a91841015610d8057836020036101000a830492505b81158015610d8c575084155b15610dc85760405162461bcd60e51b81526004018080602001828103825260228152602001806122ad6022913960400191505060405180910390fd5b81158015610dd65750600184115b15610e28576040805162461bcd60e51b815260206004820152601960248201527f4c656164696e67207a65726f732061726520696e76616c696400000000000000604482015290519081900360640190fd5b50909695505050505050565b610e3c611e12565b6060610e4783610b05565b90508051600214610e9f576040805162461bcd60e51b815260206004820152601860248201527f4f7574707574206d75737420686176652032206974656d730000000000000000604482015290519081900360640190fd5b610ea7611e12565b6040518060400160405280610ec28460008151811061067457fe5b815260200183600181518110610ed457fe5b60200260200101518152509050806000015160001415610f3b576040805162461bcd60e51b815260206004820152601960248201527f4f75747075742074797065206d757374206e6f74206265203000000000000000604482015290519081900360640190fd5b9392505050565b8051600090602114610f94576040805162461bcd60e51b81526020600482015260166024820152754974656d206c656e677468206d75737420626520333360501b604482015290519081900360640190fd5b610f9d82611707565b15610fe9576040805162461bcd60e51b8152602060048201526017602482015276125d195b481b5d5cdd081b9bdd0818994818481b1a5cdd604a1b604482015290519081900360640190fd5b600080610ff98460200151611741565b9150915081602114611052576040805162461bcd60e51b815260206004820152601e60248201527f4465636f646564206974656d206c656e677468206d7573742062652033330000604482015290519081900360640190fd5b60208401510151915050919050565b611069611db9565b60606110788360200151610b05565b905080516003146110d0576040805162461bcd60e51b815260206004820152601d60248201527f4f75747075742064617461206d75737420686176652033206974656d73000000604482015290519081900360640190fd5b6110d8611db9565b60405180608001604052808560000151815260200161110a846000815181106110fd57fe5b6020026020010151611a5d565b60601b6bffffffffffffffffffffffff19168152602001611131846001815181106110fd57fe5b6001600160a01b0316815260200161114f8460028151811061067457fe5b905260608101519091506111aa576040805162461bcd60e51b815260206004820152601b60248201527f4f757470757420616d6f756e74206d757374206e6f7420626520300000000000604482015290519081900360640190fd5b60208101516bffffffffffffffffffffffff1916610f3b576040805162461bcd60e51b815260206004820181905260248201527f4f7574707574206f75747075744775617264206d757374206e6f742062652030604482015290519081900360640190fd5b611217611de0565b6020820151516004101561125c5760405162461bcd60e51b81526004018080602001828103825260248152602001806120746024913960400191505060405180910390fd5b60408201515161129d5760405162461bcd60e51b8152600401808060200182810382526021815260200180611fac6021913960400191505060405180910390fd5b604082015151600410156112e25760405162461bcd60e51b815260040180806020018281038252602581526020018061204f6025913960400191505060405180910390fd5b6060826020015151604051908082528060200260200182016040528015611313578160200160208202803883390190505b50905060005b8360200151518110156113a957600061133b8560200151838151811061079357fe5b905080611388576040805162461bcd60e51b8152602060048201526016602482015275139d5b1b081a5b9c1d5d081b9bdd08185b1b1bddd95960521b604482015290519081900360640190fd5b8083838151811061139557fe5b602090810291909101015250600101611319565b5060608360400151516040519080825280602002602001820160405280156113eb57816020015b6113d8611db9565b8152602001906001900390816113d05790505b50905060005b846040015151811015611430576114118560400151828151811061087457fe5b82828151811061141d57fe5b60209081029190910101526001016113f1565b5061143e8460600151610c5d565b15611483576040805162461bcd60e51b815260206004820152601060248201526f0747844617461206d75737420626520360841b604482015290519081900360640190fd5b6040805160a08101825285518152602081019390935282015260006060820152608080840151908201529050919050565b600060606114c0611b83565b60ff166040519080825280602002602001820160405280156114ec578160200160208202803883390190505b50905060005b836020015151811015611536578360200151818151811061150f57fe5b602002602001015182828151811061152357fe5b60209081029190910101526001016114f2565b506060611541611b83565b60ff1660405190808252806020026020018201604052801561157d57816020015b61156a611db9565b8152602001906001900390816115625790505b50905060005b8460400151518110156115c757846040015181815181106115a057fe5b60200260200101518282815181106115b457fe5b6020908102919091010152600101611583565b506040518061012d612098823961012d01905060405180910390208460000151611604846000815181106115f757fe5b6020026020010151611b88565b611614856001815181106115f757fe5b611624866002815181106115f757fe5b611634876003815181106115f757fe5b6116518760008151811061164457fe5b6020026020010151611c71565b6116618860018151811061164457fe5b6116718960028151811061164457fe5b6116818a60038151811061164457fe5b8d606001518e60800151604051602001808d81526020018c81526020018b81526020018a81526020018981526020018881526020018781526020018681526020018581526020018481526020018381526020018281526020019c505050505050505050505050506040516020818303038152906040528051906020012092505050919050565b8051600090611718575060006105e9565b6020820151805160001a9060c0821015611737576000925050506105e9565b5060019392505050565b8051600090819081908190811a60808110156117645760019250600091506119bc565b60808110801590611775575060b881105b156117f357607e198101925060028314156117ea57600186015160001a60808110156117e8576040805162461bcd60e51b815260206004820152601d60248201527f496e76616c69642073686f727420737472696e6720656e636f64696e67000000604482015290519081900360640190fd5b505b600191506119bc565b60b88110801590611804575060c081105b156118d25760019590950180519095602081900360b7016101000a820480820160b519019450909160001a60b6198301816118705760405162461bcd60e51b815260040180806020018281038252603f81526020018061223a603f913960400191505060405180910390fd5b603783116118c5576040805162461bcd60e51b815260206004820181905260248201527f496e76616c6964206c656e67746820666f722061206c6f6e6720737472696e67604482015290519081900360640190fd5b60010193506119bc915050565b60c081108015906118e3575060f881105b156118f85760be1981019250600191506119bc565b60019590950180519095602081900360f7016101000a820480820160f519019450909160001a60f61983018161195f5760405162461bcd60e51b815260040180806020018281038252603d81526020018061234a603d913960400191505060405180910390fd5b603783116119b4576040805162461bcd60e51b815260206004820152601e60248201527f496e76616c6964206c656e67746820666f722061206c6f6e67206c6973740000604482015290519081900360640190fd5b600101935050505b509092509050915091565b6000806000905060006119dd8460200151611741565b602086015186519193508084019250015b80821015611a53576000611a0183611741565b5092830192905081831115611a475760405162461bcd60e51b81526004018080602001828103825260488152602001806123026048913960600191505060405180910390fd5b506001909301926119ee565b5091949350505050565b8051600090601514611aaf576040805162461bcd60e51b81526020600482015260166024820152754974656d206c656e677468206d75737420626520323160501b604482015290519081900360640190fd5b611ab882611707565b15611b04576040805162461bcd60e51b8152602060048201526017602482015276125d195b481b5d5cdd081b9bdd0818994818481b1a5cdd604a1b604482015290519081900360640190fd5b600080611b148460200151611741565b9150915081601514611b6d576040805162461bcd60e51b815260206004820152601e60248201527f4465636f646564206974656d206c656e677468206d7573742062652032310000604482015290519081900360640190fd5b60208401510151600160601b9004915050919050565b600490565b60008180611bea576040518060346122798239604080519182900360340182206020808401919091526000838301819052606084018190526080808501919091528251808503909101815260a0909301909152815191012092506105e9915050565b611bf2611d64565b611bfb8261051b565b9050604051808061227960349139604080519182900360340182208451602080870151968401518186019390935267ffffffffffffffff9091168484015261ffff958616606085015294166080808401919091528151808403909101815260a09092019052805192019190912092505050919050565b6000816060015160001415611ce05760405180604e61238782396040805191829003604e0182206020808401919091526000838301819052606084018190526080840181905260a0808501919091528251808503909101815260c0909301909152815191012091506105e99050565b60405180604e61238782396040805191829003604e0182208551602080880151888501516060998a015183880195909552868601939093526bffffffffffffffffffffffff1916978501979097526001600160a01b0316608084015260a0808401919091528151808403909101815260c09092019052805193019290922092915050565b604080516060810182526000808252602082018190529181019190915290565b6040518060a00160405280600081526020016060815260200160608152602001611dac611e31565b8152600060209091015290565b60408051608081018252600080825260208201819052918101829052606081019190915290565b6040518060a0016040528060008152602001606081526020016060815260200160008152602001600080191681525090565b604051806040016040528060008152602001611e2c611e31565b905290565b604051806040016040528060008152602001600081525090565b611e53611f16565b600060405180806121c5604f91396040805191829003604f0182206a4f4d47204e6574776f726b60a81b8352815192839003600b018320603160f81b845282519384900360010184206020808601939093528484019190915260608401526001600160a01b03871660808401527ffad5c7f626d80f9256ef01929f3beb96e058b8b4b0e3fe52d84f054c0e2a7a8360a0808501919091528251808503909101815260c084018084528151919092012060e090930190915290815292505050919050565b6040805160208101909152600081529056fe626c6f636b4e756d2065786365656473206d61782073697a6520616c6c6f77656420696e20506c61736d614672616d65776f726b5061796d656e7420747820706f696e747320746f2074686520696e636f7272656374206f7574707574205554584f20706f736974696f6e206f66207468652066656520636c61696d206f75747075745472616e73616374696f6e2063616e6e6f7420686176652030206f7574707574734465636f646564206974656d206c656e677468206d75737420626520657175616c20746f2074686520696e7075742064617461206c656e6774687478496e6465782065786365656473207468652073697a65206f662075696e7431364465636f64656420524c50206c656e67746820666f72206c69737420697320696e76616c69645472616e73616374696f6e206f757470757473206e756d2065786365656473206c696d69745472616e73616374696f6e20696e70757473206e756d2065786365656473206c696d69745472616e73616374696f6e2875696e74323536207478547970652c496e70757420696e707574302c496e70757420696e707574312c496e70757420696e707574322c496e70757420696e707574332c4f7574707574206f7574707574302c4f7574707574206f7574707574312c4f7574707574206f7574707574322c4f7574707574206f7574707574332c75696e74323536207478446174612c62797465733332206d6574616461746129496e7075742875696e7432353620626c6b6e756d2c75696e74323536207478696e6465782c75696e74323536206f696e646578294f75747075742875696e74323536206f7574707574547970652c62797465733230206f757470757447756172642c616464726573732063757272656e63792c75696e7432353620616d6f756e7429454950373132446f6d61696e28737472696e67206e616d652c737472696e672076657273696f6e2c6164647265737320766572696679696e67436f6e74726163742c627974657333322073616c7429556e6578706563746564207478207479706520666f7220666565207472616e73616374696f6e496e76616c6964206c656164696e67207a65726f7320696e206c656e677468206f6620746865206c656e67746820666f722061206c6f6e6720737472696e67496e7075742875696e7432353620626c6b6e756d2c75696e74323536207478696e6465782c75696e74323536206f696e646578295363616c617220302073686f756c6420626520656e636f646564206173203078383046656520636c61696d206f7574707574206d75737420626520746865206669727374206f7574707574206f6620666565207478496e76616c6964206465636f646564206c656e677468206f6620524c50206974656d20666f756e6420647572696e6720636f756e74696e67206974656d7320696e2061206c697374496e76616c6964206c656164696e67207a65726f7320696e206c656e677468206f6620746865206c656e67746820666f722061206c6f6e67206c6973744f75747075742875696e74323536206f7574707574547970652c62797465733230206f757470757447756172642c616464726573732063757272656e63792c75696e7432353620616d6f756e7429556e6578706563746564206f7574707574207479706520666f722066656520636c61696d206f75747075744974656d206c656e677468206d757374206265206265747765656e203120616e642033332062797465734661696c656420746f207265636f76657220746865207369676e65722066726f6d20746865207369676e6174757265556e6578706563746564207478207479706520666f72207061796d656e74207472616e73616374696f6ea265627a7a7231582024520429d57a239159555f35485587cd6676a8c495b06800b4ceef2c9b29381f64736f6c634300050b0032454950373132446f6d61696e28737472696e67206e616d652c737472696e672076657273696f6e2c6164647265737320766572696679696e67436f6e74726163742c627974657333322073616c7429",
  "source": "pragma solidity 0.5.11;\n\nimport \"openzeppelin-solidity/contracts/cryptography/ECDSA.sol\";\n\nimport \"../interfaces/ISpendingCondition.sol\";\nimport \"../utils/OutputId.sol\";\nimport \"../../framework/PlasmaFramework.sol\";\nimport \"../../transactions/FungibleTokenOutputModel.sol\";\nimport \"../../transactions/GenericTransaction.sol\";\nimport \"../../transactions/PaymentTransactionModel.sol\";\nimport \"../../transactions/eip712Libs/PaymentEip712Lib.sol\";\nimport \"../../utils/PosLib.sol\";\n\ncontract FeeClaimOutputToPaymentTxCondition is ISpendingCondition {\n    using PaymentEip712Lib for PaymentEip712Lib.Constants;\n    using PosLib for PosLib.Position;\n\n    uint256 public feeTxType;\n    uint256 public feeClaimOutputType;\n    uint256 public paymentTxType;\n    PaymentEip712Lib.Constants internal eip712;\n\n    constructor(\n        PlasmaFramework _framework,\n        uint256 _feeTxType,\n        uint256 _feeClaimOutputType,\n        uint256 _paymentTxType\n    )\n        public\n    {\n        eip712 = PaymentEip712Lib.initConstants(address(_framework));\n        feeTxType = _feeTxType;\n        feeClaimOutputType = _feeClaimOutputType;\n        paymentTxType = _paymentTxType;\n    }\n\n    /**\n     * @dev This implementation checks signature for spending fee claim output. It should be signed with the owner signature.\n     *      The fee claim output that is spendable follows Fungible Token Output format.\n     * @param feeTxBytes Encoded fee transaction\n     * @param utxoPos Position of the fee utxo\n     * @param paymentTxBytes Payment transaction (in bytes) that spends the fee claim output\n     * @param inputIndex Input index of the payment tx that points to the fee claim output\n     * @param signature Signature of the owner of fee claiming output\n     */\n    function verify(\n        bytes calldata feeTxBytes,\n        uint256 utxoPos,\n        bytes calldata paymentTxBytes,\n        uint16 inputIndex,\n        bytes calldata signature\n    )\n        external\n        view\n        returns (bool)\n    {\n        PosLib.Position memory decodedUtxoPos = PosLib.decode(utxoPos);\n        require(decodedUtxoPos.outputIndex == 0, \"Fee claim output must be the first output of fee tx\");\n\n        GenericTransaction.Transaction memory feeTx = GenericTransaction.decode(feeTxBytes);\n        FungibleTokenOutputModel.Output memory feeClaimOutput = FungibleTokenOutputModel.getOutput(feeTx, decodedUtxoPos.outputIndex);\n\n        require(feeTx.txType == feeTxType, \"Unexpected tx type for fee transaction\");\n        require(feeClaimOutput.outputType == feeClaimOutputType, \"Unexpected output type for fee claim output\");\n\n        PaymentTransactionModel.Transaction memory paymentTx = PaymentTransactionModel.decode(paymentTxBytes);\n        require(paymentTx.txType == paymentTxType, \"Unexpected tx type for payment transaction\");\n\n        require(\n            paymentTx.inputs[inputIndex] == bytes32(decodedUtxoPos.encode()),\n            \"Payment tx points to the incorrect output UTXO position of the fee claim output\"\n        );\n\n        address owner = address(feeClaimOutput.outputGuard);\n        address signer = ECDSA.recover(eip712.hashTx(paymentTx), signature);\n        require(signer != address(0), \"Failed to recover the signer from the signature\");\n        require(owner == signer, \"Tx is not signed correctly\");\n\n        return true;\n    }\n}\n",
  "sourcePath": "/home/node/plasma-contracts/plasma_framework/contracts/src/exits/fee/FeeClaimOutputToPaymentTxCondition.sol",
  "compiler": {
    "name": "solc",
    "version": "0.5.11+commit.c082d0b4.Emscripten.clang"
  },
  "schemaVersion": "3.0.16",
  "updatedAt": "2020-04-07T14:08:50.181Z",
  "devdoc": {
    "methods": {
      "verify(bytes,uint256,bytes,uint16,bytes)": {
        "details": "This implementation checks signature for spending fee claim output. It should be signed with the owner signature.     The fee claim output that is spendable follows Fungible Token Output format.",
        "params": {
          "feeTxBytes": "Encoded fee transaction",
          "inputIndex": "Input index of the payment tx that points to the fee claim output",
          "paymentTxBytes": "Payment transaction (in bytes) that spends the fee claim output",
          "signature": "Signature of the owner of fee claiming output",
          "utxoPos": "Position of the fee utxo"
        }
      }
    }
  },
  "userdoc": {
    "methods": {}
  }
}