{
  "contractName": "FungibleTokenOutputWrapper",
  "abi": [
    {
      "constant": true,
      "inputs": [
        {
          "internalType": "bytes",
          "name": "encodedOutput",
          "type": "bytes"
        }
      ],
      "name": "decodeOutput",
      "outputs": [
        {
          "components": [
            {
              "internalType": "uint256",
              "name": "outputType",
              "type": "uint256"
            },
            {
              "internalType": "bytes20",
              "name": "outputGuard",
              "type": "bytes20"
            },
            {
              "internalType": "address",
              "name": "token",
              "type": "address"
            },
            {
              "internalType": "uint256",
              "name": "amount",
              "type": "uint256"
            }
          ],
          "internalType": "struct FungibleTokenOutputModel.Output",
          "name": "",
          "type": "tuple"
        }
      ],
      "payable": false,
      "stateMutability": "pure",
      "type": "function"
    },
    {
      "constant": true,
      "inputs": [
        {
          "internalType": "bytes",
          "name": "transaction",
          "type": "bytes"
        },
        {
          "internalType": "uint16",
          "name": "outputIndex",
          "type": "uint16"
        }
      ],
      "name": "getOutput",
      "outputs": [
        {
          "components": [
            {
              "internalType": "uint256",
              "name": "outputType",
              "type": "uint256"
            },
            {
              "internalType": "bytes20",
              "name": "outputGuard",
              "type": "bytes20"
            },
            {
              "internalType": "address",
              "name": "token",
              "type": "address"
            },
            {
              "internalType": "uint256",
              "name": "amount",
              "type": "uint256"
            }
          ],
          "internalType": "struct FungibleTokenOutputModel.Output",
          "name": "",
          "type": "tuple"
        }
      ],
      "payable": false,
      "stateMutability": "pure",
      "type": "function"
    }
  ],
  "bytecode": "0x608060405234801561001057600080fd5b50611518806100206000396000f3fe608060405234801561001057600080fd5b50600436106100365760003560e01c80631395bb581461003b57806348cad70114610064575b600080fd5b61004e610049366004610b44565b610077565b60405161005b9190611419565b60405180910390f35b61004e610072366004610b79565b6100ac565b61007f610a50565b610087610a77565b610098610093846100db565b610100565b90506100a3816101b3565b9150505b919050565b6100b4610a50565b6100bc610a96565b6100c5846102c2565b90506100d18184610455565b9150505b92915050565b6100e3610acb565b506040805180820190915281518152602082810190820152919050565b610108610a77565b6060610113836104b0565b9050805160021461013f5760405162461bcd60e51b815260040161013690611369565b60405180910390fd5b610147610a77565b604051806040016040528061016f8460008151811061016257fe5b60200260200101516105bf565b81526020018360018151811061018157fe5b602002602001015181525090508060000151600014156100a35760405162461bcd60e51b8152600401610136906113a9565b6101bb610a50565b60606101ca83602001516104b0565b905080516003146101ed5760405162461bcd60e51b8152600401610136906112e9565b6101f5610a50565b6040518060800160405280856000015181526020016102278460008151811061021a57fe5b60200260200101516106d5565b60601b6bffffffffffffffffffffffff1916815260200161024e8460018151811061021a57fe5b6001600160a01b0316815260200161026c8460028151811061016257fe5b905260608101519091506102925760405162461bcd60e51b815260040161013690611319565b60208101516bffffffffffffffffffffffff19166100a35760405162461bcd60e51b815260040161013690611349565b6102ca610a96565b60606102dd6102d8846100db565b6104b0565b80519091506005146103015760405162461bcd60e51b815260040161013690611309565b60006103138260008151811061016257fe5b9050600081116103355760405162461bcd60e51b815260040161013690611289565b60606103548360028151811061034757fe5b60200260200101516104b0565b90506060815160405190808252806020026020018201604052801561039357816020015b610380610a77565b8152602001906001900390816103785790505b50905060005b82518110156103dd576103be8382815181106103b157fe5b6020026020010151610100565b8282815181106103ca57fe5b6020908102919091010152600101610399565b5060006103fd856004815181106103f057fe5b6020026020010151610769565b90506040518060a001604052808581526020016104208760018151811061034757fe5b81526020018381526020018660038151811061043857fe5b602002602001015181526020018281525095505050505050919050565b61045d610a50565b8260400151518261ffff16106104855760405162461bcd60e51b8152600401610136906112b9565b6104a983604001518361ffff168151811061049c57fe5b60200260200101516101b3565b9392505050565b60606104bb826107f6565b6104d75760405162461bcd60e51b815260040161013690611389565b6000806104e78460200151610830565b85519193509150821461050c5760405162461bcd60e51b8152600401610136906112d9565b6000610517856109d9565b905060608160405190808252806020026020018201604052801561055557816020015b610542610acb565b81526020019060019003908161053a5790505b50602087015190915083016000805b848110156105b25761057583610830565b508092505060405180604001604052808381526020018481525084828151811061059b57fe5b602090810291909101015291810191600101610564565b5091979650505050505050565b8051600090158015906105d457508151602110155b6105f05760405162461bcd60e51b815260040161013690611409565b6105f9826107f6565b156106165760405162461bcd60e51b815260040161013690611399565b6000806106268460200151610830565b85519193509150821461064b5760405162461bcd60e51b8152600401610136906112a9565b60208085015182018051838503929091600083901a9184101561067557836020036101000a830492505b81158015610681575084155b1561069e5760405162461bcd60e51b815260040161013690611329565b811580156106ac5750600184115b156106c95760405162461bcd60e51b815260040161013690611299565b50909695505050505050565b80516000906015146106f95760405162461bcd60e51b8152600401610136906113b9565b610702826107f6565b1561071f5760405162461bcd60e51b815260040161013690611399565b60008061072f8460200151610830565b91509150816015146107535760405162461bcd60e51b8152600401610136906113e9565b60208401510151600160601b9004915050919050565b805160009060211461078d5760405162461bcd60e51b8152600401610136906113f9565b610796826107f6565b156107b35760405162461bcd60e51b815260040161013690611399565b6000806107c38460200151610830565b91509150816021146107e75760405162461bcd60e51b8152600401610136906113c9565b60208401510151915050919050565b8051600090610807575060006100a7565b6020820151805160001a9060c0821015610826576000925050506100a7565b5060019392505050565b8051600090819081908190811a60808110156108535760019250600091506109ce565b60808110801590610864575060b881105b156108ad57607e198101925060028314156108a457600186015160001a60808110156108a25760405162461bcd60e51b8152600401610136906113d9565b505b600191506109ce565b60b881108015906108be575060c081105b156109385760019590950180519095602081900360b7016101000a820480820160b519019450909160001a60b61983018161090b5760405162461bcd60e51b8152600401610136906112f9565b6037831161092b5760405162461bcd60e51b8152600401610136906112c9565b60010193506109ce915050565b60c08110801590610949575060f881105b1561095e5760be1981019250600191506109ce565b60019590950180519095602081900360f7016101000a820480820160f519019450909160001a60f6198301816109a65760405162461bcd60e51b815260040161013690611379565b603783116109c65760405162461bcd60e51b815260040161013690611359565b600101935050505b509092509050915091565b6000806000905060006109ef8460200151610830565b602086015186519193508084019250015b80821015610a46576000610a1383610830565b5092830192905081831115610a3a5760405162461bcd60e51b815260040161013690611339565b50600190930192610a00565b5091949350505050565b60408051608081018252600080825260208201819052918101829052606081019190915290565b604051806040016040528060008152602001610a91610acb565b905290565b6040518060a00160405280600081526020016060815260200160608152602001610abe610acb565b8152600060209091015290565b604051806040016040528060008152602001600081525090565b600082601f830112610af657600080fd5b8135610b09610b048261144e565b611427565b91508082526020830160208301858383011115610b2557600080fd5b610b308382846114b2565b50505092915050565b80356100d5816114be565b600060208284031215610b5657600080fd5b813567ffffffffffffffff811115610b6d57600080fd5b6100d184828501610ae5565b60008060408385031215610b8c57600080fd5b823567ffffffffffffffff811115610ba357600080fd5b610baf85828601610ae5565b9250506020610bc085828601610b39565b9150509250929050565b610bd38161147f565b82525050565b610bd38161148a565b6000610bef601e83611476565b7f5472616e73616374696f6e2074797065206d757374206e6f7420626520300000815260200192915050565b6000610c28601983611476565b7f4c656164696e67207a65726f732061726520696e76616c696400000000000000815260200192915050565b6000610c61603a83611476565b7f4465636f646564206974656d206c656e677468206d757374206265206571756181527f6c20746f2074686520696e7075742064617461206c656e677468000000000000602082015260400192915050565b6000610cc0601a83611476565b7f4f757470757420696e646578206f7574206f6620626f756e6473000000000000815260200192915050565b6000610cf9602083611476565b7f496e76616c6964206c656e67746820666f722061206c6f6e6720737472696e67815260200192915050565b6000610d32602683611476565b7f4465636f64656420524c50206c656e67746820666f72206c69737420697320698152651b9d985b1a5960d21b602082015260400192915050565b6000610d7a601d83611476565b7f4f75747075742064617461206d75737420686176652033206974656d73000000815260200192915050565b6000610db3603f83611476565b7f496e76616c6964206c656164696e67207a65726f7320696e206c656e6774682081527f6f6620746865206c656e67746820666f722061206c6f6e6720737472696e6700602082015260400192915050565b6000610e12601f83611476565b7f496e76616c696420656e636f64696e67206f66207472616e73616374696f6e00815260200192915050565b6000610e4b601b83611476565b7f4f757470757420616d6f756e74206d757374206e6f7420626520300000000000815260200192915050565b6000610e84602283611476565b7f5363616c617220302073686f756c6420626520656e636f646564206173203078815261038360f41b602082015260400192915050565b6000610ec8604883611476565b7f496e76616c6964206465636f646564206c656e677468206f6620524c5020697481527f656d20666f756e6420647572696e6720636f756e74696e67206974656d7320696020820152671b8818481b1a5cdd60c21b604082015260600192915050565b6000610f38602083611476565b7f4f7574707574206f75747075744775617264206d757374206e6f742062652030815260200192915050565b6000610f71601e83611476565b7f496e76616c6964206c656e67746820666f722061206c6f6e67206c6973740000815260200192915050565b6000610faa601883611476565b7f4f7574707574206d75737420686176652032206974656d730000000000000000815260200192915050565b6000610fe3603d83611476565b7f496e76616c6964206c656164696e67207a65726f7320696e206c656e6774682081527f6f6620746865206c656e67746820666f722061206c6f6e67206c697374000000602082015260400192915050565b6000611042601283611476565b71125d195b481a5cc81b9bdd0818481b1a5cdd60721b815260200192915050565b6000611070601783611476565b7f4974656d206d757374206e6f742062652061206c697374000000000000000000815260200192915050565b60006110a9601983611476565b7f4f75747075742074797065206d757374206e6f74206265203000000000000000815260200192915050565b60006110e2601683611476565b754974656d206c656e677468206d75737420626520323160501b815260200192915050565b6000611114601e83611476565b7f4465636f646564206974656d206c656e677468206d7573742062652033330000815260200192915050565b600061114d601d83611476565b7f496e76616c69642073686f727420737472696e6720656e636f64696e67000000815260200192915050565b6000611186601e83611476565b7f4465636f646564206974656d206c656e677468206d7573742062652032310000815260200192915050565b60006111bf601683611476565b754974656d206c656e677468206d75737420626520333360501b815260200192915050565b60006111f1602a83611476565b7f4974656d206c656e677468206d757374206265206265747765656e203120616e8152696420333320627974657360b01b602082015260400192915050565b805160808301906112418482611280565b5060208201516112546020850182610bd9565b5060408201516112676040850182610bca565b50606082015161127a6060850182611280565b50505050565b610bd3816114af565b602080825281016100d581610be2565b602080825281016100d581610c1b565b602080825281016100d581610c54565b602080825281016100d581610cb3565b602080825281016100d581610cec565b602080825281016100d581610d25565b602080825281016100d581610d6d565b602080825281016100d581610da6565b602080825281016100d581610e05565b602080825281016100d581610e3e565b602080825281016100d581610e77565b602080825281016100d581610ebb565b602080825281016100d581610f2b565b602080825281016100d581610f64565b602080825281016100d581610f9d565b602080825281016100d581610fd6565b602080825281016100d581611035565b602080825281016100d581611063565b602080825281016100d58161109c565b602080825281016100d5816110d5565b602080825281016100d581611107565b602080825281016100d581611140565b602080825281016100d581611179565b602080825281016100d5816111b2565b602080825281016100d5816111e4565b608081016100d58284611230565b60405181810167ffffffffffffffff8111828210171561144657600080fd5b604052919050565b600067ffffffffffffffff82111561146557600080fd5b506020601f91909101601f19160190565b90815260200190565b60006100d5826114a3565b6bffffffffffffffffffffffff191690565b61ffff1690565b6001600160a01b031690565b90565b82818337506000910152565b6114c78161149c565b81146114d257600080fd5b5056fea365627a7a723158208ad0e9ab287d6621f05f3b072b1b2adecae6df099d20fd00e33f104537934b3f6c6578706572696d656e74616cf564736f6c634300050b0040",
  "source": "pragma solidity 0.5.11;\npragma experimental ABIEncoderV2;\n\nimport \"../../src/transactions/FungibleTokenOutputModel.sol\";\n\ncontract FungibleTokenOutputWrapper {\n    using RLPReader for bytes;\n    using RLPReader for RLPReader.RLPItem;\n\n    function decodeOutput(bytes memory encodedOutput)\n        public\n        pure\n        returns (FungibleTokenOutputModel.Output memory)\n    {\n        GenericTransaction.Output memory genericOutput = GenericTransaction.decodeOutput(encodedOutput.toRlpItem());\n        return FungibleTokenOutputModel.decodeOutput(genericOutput);\n    }\n\n    function getOutput(bytes memory transaction, uint16 outputIndex)\n        public\n        pure\n        returns (FungibleTokenOutputModel.Output memory)\n    {\n        GenericTransaction.Transaction memory genericTx = GenericTransaction.decode(transaction);\n        return FungibleTokenOutputModel.getOutput(genericTx, outputIndex);\n    }\n}\n",
  "sourcePath": "/home/node/plasma-contracts/plasma_framework/contracts/mocks/transactions/FungibleTokenOutputWrapper.sol",
  "compiler": {
    "name": "solc",
    "version": "0.5.11+commit.c082d0b4.Emscripten.clang"
  },
  "schemaVersion": "3.0.16",
  "updatedAt": "2020-04-07T14:07:49.570Z",
  "devdoc": {
    "methods": {}
  },
  "userdoc": {
    "methods": {}
  }
}