{
  "contractName": "GenericTransactionWrapper",
  "abi": [
    {
      "constant": true,
      "inputs": [
        {
          "internalType": "bytes",
          "name": "transaction",
          "type": "bytes"
        }
      ],
      "name": "decode",
      "outputs": [
        {
          "components": [
            {
              "internalType": "uint256",
              "name": "txType",
              "type": "uint256"
            },
            {
              "components": [
                {
                  "internalType": "uint256",
                  "name": "len",
                  "type": "uint256"
                },
                {
                  "internalType": "uint256",
                  "name": "memPtr",
                  "type": "uint256"
                }
              ],
              "internalType": "struct RLPReader.RLPItem[]",
              "name": "inputs",
              "type": "tuple[]"
            },
            {
              "components": [
                {
                  "internalType": "uint256",
                  "name": "outputType",
                  "type": "uint256"
                },
                {
                  "components": [
                    {
                      "internalType": "uint256",
                      "name": "len",
                      "type": "uint256"
                    },
                    {
                      "internalType": "uint256",
                      "name": "memPtr",
                      "type": "uint256"
                    }
                  ],
                  "internalType": "struct RLPReader.RLPItem",
                  "name": "data",
                  "type": "tuple"
                }
              ],
              "internalType": "struct GenericTransaction.Output[]",
              "name": "outputs",
              "type": "tuple[]"
            },
            {
              "components": [
                {
                  "internalType": "uint256",
                  "name": "len",
                  "type": "uint256"
                },
                {
                  "internalType": "uint256",
                  "name": "memPtr",
                  "type": "uint256"
                }
              ],
              "internalType": "struct RLPReader.RLPItem",
              "name": "txData",
              "type": "tuple"
            },
            {
              "internalType": "bytes32",
              "name": "metaData",
              "type": "bytes32"
            }
          ],
          "internalType": "struct GenericTransaction.Transaction",
          "name": "",
          "type": "tuple"
        }
      ],
      "payable": false,
      "stateMutability": "pure",
      "type": "function"
    },
    {
      "constant": true,
      "inputs": [
        {
          "internalType": "bytes",
          "name": "transaction",
          "type": "bytes"
        },
        {
          "internalType": "uint16",
          "name": "outputIndex",
          "type": "uint16"
        }
      ],
      "name": "getOutput",
      "outputs": [
        {
          "components": [
            {
              "internalType": "uint256",
              "name": "outputType",
              "type": "uint256"
            },
            {
              "components": [
                {
                  "internalType": "uint256",
                  "name": "len",
                  "type": "uint256"
                },
                {
                  "internalType": "uint256",
                  "name": "memPtr",
                  "type": "uint256"
                }
              ],
              "internalType": "struct RLPReader.RLPItem",
              "name": "data",
              "type": "tuple"
            }
          ],
          "internalType": "struct GenericTransaction.Output",
          "name": "",
          "type": "tuple"
        }
      ],
      "payable": false,
      "stateMutability": "pure",
      "type": "function"
    }
  ],
  "bytecode": "0x608060405234801561001057600080fd5b506112fc806100206000396000f3fe608060405234801561001057600080fd5b50600436106100365760003560e01c806348cad7011461003b578063e5c5e9a314610064575b600080fd5b61004e6100493660046109a0565b610084565b60405161005b919061120b565b60405180910390f35b61007761007236600461096b565b6100b3565b60405161005b9190611219565b61008c61089e565b6100946108bd565b61009d846100cc565b90506100a98184610275565b9150505b92915050565b6100bb6108bd565b6100c4826100cc565b90505b919050565b6100d46108bd565b60606100e76100e2846102c9565b6102ee565b80519091506005146101145760405162461bcd60e51b815260040161010b9061113b565b60405180910390fd5b60006101338260008151811061012657fe5b60200260200101516103fd565b9050600081116101555760405162461bcd60e51b815260040161010b906110cb565b60606101748360028151811061016757fe5b60200260200101516102ee565b9050606081516040519080825280602002602001820160405280156101b357816020015b6101a061089e565b8152602001906001900390816101985790505b50905060005b82518110156101fd576101de8382815181106101d157fe5b6020026020010151610513565b8282815181106101ea57fe5b60209081029190910101526001016101b9565b50600061021d8560048151811061021057fe5b60200260200101516105b7565b90506040518060a001604052808581526020016102408760018151811061016757fe5b81526020018381526020018660038151811061025857fe5b602002602001015181526020018281525095505050505050919050565b61027d61089e565b8260400151518261ffff16106102a55760405162461bcd60e51b815260040161010b906110fb565b82604001518261ffff16815181106102b957fe5b6020026020010151905092915050565b6102d16108f2565b506040805180820190915281518152602082810190820152919050565b60606102f982610644565b6103155760405162461bcd60e51b815260040161010b9061119b565b600080610325846020015161067e565b85519193509150821461034a5760405162461bcd60e51b815260040161010b9061111b565b600061035585610827565b905060608160405190808252806020026020018201604052801561039357816020015b6103806108f2565b8152602001906001900390816103785790505b50602087015190915083016000805b848110156103f0576103b38361067e565b50809250506040518060400160405280838152602001848152508482815181106103d957fe5b6020908102919091010152918101916001016103a2565b5091979650505050505050565b80516000901580159061041257508151602110155b61042e5760405162461bcd60e51b815260040161010b906111fb565b61043782610644565b156104545760405162461bcd60e51b815260040161010b906111ab565b600080610464846020015161067e565b8551919350915082146104895760405162461bcd60e51b815260040161010b906110eb565b60208085015182018051838503929091600083901a918410156104b357836020036101000a830492505b811580156104bf575084155b156104dc5760405162461bcd60e51b815260040161010b9061114b565b811580156104ea5750600184115b156105075760405162461bcd60e51b815260040161010b906110db565b50909695505050505050565b61051b61089e565b6060610526836102ee565b905080516002146105495760405162461bcd60e51b815260040161010b9061117b565b61055161089e565b604051806040016040528061056c8460008151811061012657fe5b81526020018360018151811061057e57fe5b602002602001015181525090508060000151600014156105b05760405162461bcd60e51b815260040161010b906111bb565b9392505050565b80516000906021146105db5760405162461bcd60e51b815260040161010b906111eb565b6105e482610644565b156106015760405162461bcd60e51b815260040161010b906111ab565b600080610611846020015161067e565b91509150816021146106355760405162461bcd60e51b815260040161010b906111cb565b60208401510151915050919050565b8051600090610655575060006100c7565b6020820151805160001a9060c0821015610674576000925050506100c7565b5060019392505050565b8051600090819081908190811a60808110156106a157600192506000915061081c565b608081108015906106b2575060b881105b156106fb57607e198101925060028314156106f257600186015160001a60808110156106f05760405162461bcd60e51b815260040161010b906111db565b505b6001915061081c565b60b8811080159061070c575060c081105b156107865760019590950180519095602081900360b7016101000a820480820160b519019450909160001a60b6198301816107595760405162461bcd60e51b815260040161010b9061112b565b603783116107795760405162461bcd60e51b815260040161010b9061110b565b600101935061081c915050565b60c08110801590610797575060f881105b156107ac5760be19810192506001915061081c565b60019590950180519095602081900360f7016101000a820480820160f519019450909160001a60f6198301816107f45760405162461bcd60e51b815260040161010b9061118b565b603783116108145760405162461bcd60e51b815260040161010b9061116b565b600101935050505b509092509050915091565b60008060009050600061083d846020015161067e565b602086015186519193508084019250015b808210156108945760006108618361067e565b50928301929050818311156108885760405162461bcd60e51b815260040161010b9061115b565b5060019093019261084e565b5091949350505050565b6040518060400160405280600081526020016108b86108f2565b905290565b6040518060a001604052806000815260200160608152602001606081526020016108e56108f2565b8152600060209091015290565b604051806040016040528060008152602001600081525090565b600082601f83011261091d57600080fd5b813561093061092b82611251565b61122a565b9150808252602083016020830185838301111561094c57600080fd5b610957838284611296565b50505092915050565b80356100ad816112a2565b60006020828403121561097d57600080fd5b813567ffffffffffffffff81111561099457600080fd5b6100a98482850161090c565b600080604083850312156109b357600080fd5b823567ffffffffffffffff8111156109ca57600080fd5b6109d68582860161090c565b92505060206109e785828601610960565b9150509250929050565b60006109fd8383611007565b505060600190565b6000610a118383611031565b505060400190565b6000610a248261127f565b610a2e8185611283565b9350610a3983611279565b8060005b83811015610a67578151610a5188826109f1565b9750610a5c83611279565b925050600101610a3d565b509495945050505050565b6000610a7d8261127f565b610a878185611283565b9350610a9283611279565b8060005b83811015610a67578151610aaa8882610a05565b9750610ab583611279565b925050600101610a96565b610ac98161128c565b82525050565b6000610adc601e83611283565b7f5472616e73616374696f6e2074797065206d757374206e6f7420626520300000815260200192915050565b6000610b15601983611283565b7f4c656164696e67207a65726f732061726520696e76616c696400000000000000815260200192915050565b6000610b4e603a83611283565b7f4465636f646564206974656d206c656e677468206d757374206265206571756181527f6c20746f2074686520696e7075742064617461206c656e677468000000000000602082015260400192915050565b6000610bad601a83611283565b7f4f757470757420696e646578206f7574206f6620626f756e6473000000000000815260200192915050565b6000610be6602083611283565b7f496e76616c6964206c656e67746820666f722061206c6f6e6720737472696e67815260200192915050565b6000610c1f602683611283565b7f4465636f64656420524c50206c656e67746820666f72206c69737420697320698152651b9d985b1a5960d21b602082015260400192915050565b6000610c67603f83611283565b7f496e76616c6964206c656164696e67207a65726f7320696e206c656e6774682081527f6f6620746865206c656e67746820666f722061206c6f6e6720737472696e6700602082015260400192915050565b6000610cc6601f83611283565b7f496e76616c696420656e636f64696e67206f66207472616e73616374696f6e00815260200192915050565b6000610cff602283611283565b7f5363616c617220302073686f756c6420626520656e636f646564206173203078815261038360f41b602082015260400192915050565b6000610d43604883611283565b7f496e76616c6964206465636f646564206c656e677468206f6620524c5020697481527f656d20666f756e6420647572696e6720636f756e74696e67206974656d7320696020820152671b8818481b1a5cdd60c21b604082015260600192915050565b6000610db3601e83611283565b7f496e76616c6964206c656e67746820666f722061206c6f6e67206c6973740000815260200192915050565b6000610dec601883611283565b7f4f7574707574206d75737420686176652032206974656d730000000000000000815260200192915050565b6000610e25603d83611283565b7f496e76616c6964206c656164696e67207a65726f7320696e206c656e6774682081527f6f6620746865206c656e67746820666f722061206c6f6e67206c697374000000602082015260400192915050565b6000610e84601283611283565b71125d195b481a5cc81b9bdd0818481b1a5cdd60721b815260200192915050565b6000610eb2601783611283565b7f4974656d206d757374206e6f742062652061206c697374000000000000000000815260200192915050565b6000610eeb601983611283565b7f4f75747075742074797065206d757374206e6f74206265203000000000000000815260200192915050565b6000610f24601e83611283565b7f4465636f646564206974656d206c656e677468206d7573742062652033330000815260200192915050565b6000610f5d601d83611283565b7f496e76616c69642073686f727420737472696e6720656e636f64696e67000000815260200192915050565b6000610f96601683611283565b754974656d206c656e677468206d75737420626520333360501b815260200192915050565b6000610fc8602a83611283565b7f4974656d206c656e677468206d757374206265206265747765656e203120616e8152696420333320627974657360b01b602082015260400192915050565b805160608301906110188482610ac0565b50602082015161102b6020850182611031565b50505050565b805160408301906110428482610ac0565b50602082015161102b6020850182610ac0565b805160009060c08401906110698582610ac0565b50602083015184820360208601526110818282610a72565b9150506040830151848203604086015261109b8282610a19565b91505060608301516110b06060860182611031565b5060808301516110c360a0860182610ac0565b509392505050565b602080825281016100c481610acf565b602080825281016100c481610b08565b602080825281016100c481610b41565b602080825281016100c481610ba0565b602080825281016100c481610bd9565b602080825281016100c481610c12565b602080825281016100c481610c5a565b602080825281016100c481610cb9565b602080825281016100c481610cf2565b602080825281016100c481610d36565b602080825281016100c481610da6565b602080825281016100c481610ddf565b602080825281016100c481610e18565b602080825281016100c481610e77565b602080825281016100c481610ea5565b602080825281016100c481610ede565b602080825281016100c481610f17565b602080825281016100c481610f50565b602080825281016100c481610f89565b602080825281016100c481610fbb565b606081016100ad8284611007565b602080825281016105b08184611055565b60405181810167ffffffffffffffff8111828210171561124957600080fd5b604052919050565b600067ffffffffffffffff82111561126857600080fd5b506020601f91909101601f19160190565b60200190565b5190565b90815260200190565b90565b61ffff1690565b82818337506000910152565b6112ab8161128f565b81146112b657600080fd5b5056fea365627a7a72315820e3bd5f64bebc363e3e0b703bd3f55e1685a4d4512adfcf20e4e2892dccb53c696c6578706572696d656e74616cf564736f6c634300050b0040",
  "source": "pragma solidity 0.5.11;\npragma experimental ABIEncoderV2;\n\nimport \"../../src/transactions/GenericTransaction.sol\";\n\ncontract GenericTransactionWrapper {\n\n    function decode(bytes memory transaction) public pure returns (GenericTransaction.Transaction memory) {\n        return GenericTransaction.decode(transaction);\n    }\n\n    function getOutput(bytes memory transaction, uint16 outputIndex) public pure returns (GenericTransaction.Output memory) {\n        GenericTransaction.Transaction memory genericTx = GenericTransaction.decode(transaction);\n        return GenericTransaction.getOutput(genericTx, outputIndex);\n    }\n}\n",
  "sourcePath": "/home/node/plasma-contracts/plasma_framework/contracts/mocks/transactions/GenericTransactionWrapper.sol",
  "compiler": {
    "name": "solc",
    "version": "0.5.11+commit.c082d0b4.Emscripten.clang"
  },
  "schemaVersion": "3.0.16",
  "updatedAt": "2020-04-07T14:07:49.572Z",
  "devdoc": {
    "methods": {}
  },
  "userdoc": {
    "methods": {}
  }
}