{
  "contractName": "MerkleWrapper",
  "abi": [
    {
      "constant": true,
      "inputs": [
        {
          "internalType": "bytes",
          "name": "leaf",
          "type": "bytes"
        },
        {
          "internalType": "uint256",
          "name": "index",
          "type": "uint256"
        },
        {
          "internalType": "bytes32",
          "name": "rootHash",
          "type": "bytes32"
        },
        {
          "internalType": "bytes",
          "name": "proof",
          "type": "bytes"
        }
      ],
      "name": "checkMembership",
      "outputs": [
        {
          "internalType": "bool",
          "name": "",
          "type": "bool"
        }
      ],
      "payable": false,
      "stateMutability": "pure",
      "type": "function"
    }
  ],
  "bytecode": "0x608060405234801561001057600080fd5b50610445806100206000396000f3fe608060405234801561001057600080fd5b506004361061002b5760003560e01c80632d33374714610030575b600080fd5b6101696004803603608081101561004657600080fd5b81019060208101813564010000000081111561006157600080fd5b82018360208201111561007357600080fd5b8035906020019184600183028401116401000000008311171561009557600080fd5b91908080601f01602080910402602001604051908101604052809392919081815260200183838082843760009201919091525092958435956020860135959194509250606081019150604001356401000000008111156100f457600080fd5b82018360208201111561010657600080fd5b8035906020019184600183028401116401000000008311171561012857600080fd5b91908080601f01602080910402602001604051908101604052809392919081815260200183838082843760009201919091525092955061017d945050505050565b604080519115158252519081900360200190f35b600061018b85858585610194565b95945050505050565b60008151600014156101ed576040805162461bcd60e51b815260206004820152601e60248201527f4d65726b6c652070726f6f66206d757374206e6f7420626520656d7074790000604482015290519081900360640190fd5b60208251816101f857fe5b06156102355760405162461bcd60e51b815260040180806020018281038252602f8152602001806103b6602f913960400191505060405180910390fd5b602082518161024057fe5b0460020a84106102815760405162461bcd60e51b815260040180806020018281038252602c8152602001806103e5602c913960400191505060405180910390fd5b6040516000602080830182815288519293849384938b939260210191908401908083835b602083106102c45780518252601f1990920191602091820191016102a5565b51815160209384036101000a60001901801990921691161790526040805192909401828103601f1901835290935280519083012095508a945090925050505b855181116103a7578581015193506002820661035b5760408051600160f81b60208083019190915260218201959095526041808201879052825180830390910181526061909101909152805193019290922091610399565b60408051600160f81b602080830191909152602182018790526041808301969096528251808303909601865260619091019091528351930192909220915b600282049150602001610303565b50509093149594505050505056fe4c656e677468206f66204d65726b6c652070726f6f66206d7573742062652061206d756c7469706c65206f66203332496e64657820646f6573206e6f74206d6174636820746865206c656e677468206f66207468652070726f6f66a265627a7a72315820264302247b89aa0777d0ffd0cd31b5a1f5870d3879dfe5e437312b6e7d566c2f64736f6c634300050b0032",
  "source": "pragma solidity 0.5.11;\n\nimport \"../../src/utils/Merkle.sol\";\n\ncontract MerkleWrapper {\n\n    function checkMembership(bytes memory leaf, uint256 index, bytes32 rootHash, bytes memory proof)\n        public\n        pure\n        returns (bool)\n    {\n        return Merkle.checkMembership(leaf, index, rootHash, proof);\n    }\n}\n",
  "sourcePath": "/home/node/plasma-contracts/plasma_framework/contracts/mocks/utils/MerkleWrapper.sol",
  "compiler": {
    "name": "solc",
    "version": "0.5.11+commit.c082d0b4.Emscripten.clang"
  },
  "schemaVersion": "3.0.16",
  "updatedAt": "2020-04-07T14:09:55.651Z",
  "devdoc": {
    "methods": {}
  },
  "userdoc": {
    "methods": {}
  }
}