{
  "contractName": "MoreVpFinalizationWrapper",
  "abi": [
    {
      "constant": true,
      "inputs": [
        {
          "internalType": "contract PlasmaFramework",
          "name": "framework",
          "type": "address"
        },
        {
          "internalType": "bytes",
          "name": "txBytes",
          "type": "bytes"
        },
        {
          "internalType": "uint256",
          "name": "txPos",
          "type": "uint256"
        },
        {
          "internalType": "bytes",
          "name": "inclusionProof",
          "type": "bytes"
        }
      ],
      "name": "isStandardFinalized",
      "outputs": [
        {
          "internalType": "bool",
          "name": "",
          "type": "bool"
        }
      ],
      "payable": false,
      "stateMutability": "view",
      "type": "function"
    },
    {
      "constant": true,
      "inputs": [
        {
          "internalType": "contract PlasmaFramework",
          "name": "framework",
          "type": "address"
        },
        {
          "internalType": "bytes",
          "name": "txBytes",
          "type": "bytes"
        }
      ],
      "name": "isProtocolFinalized",
      "outputs": [
        {
          "internalType": "bool",
          "name": "",
          "type": "bool"
        }
      ],
      "payable": false,
      "stateMutability": "view",
      "type": "function"
    }
  ],
  "bytecode": "0x608060405234801561001057600080fd5b50611a19806100206000396000f3fe608060405234801561001057600080fd5b50600436106100365760003560e01c8063120597151461003b578063e889a1d214610064575b600080fd5b61004e610049366004610e29565b610077565b60405161005b91906116e6565b60405180910390f35b61004e610072366004610de1565b610096565b600061008d8585610087866100ab565b85610149565b95945050505050565b60006100a283836102f3565b90505b92915050565b6100b3610c99565b633b9aca00808304906127109084068190049084066429f16b11c68311156100f65760405162461bcd60e51b81526004016100ed90611714565b60405180910390fd5b61ffff8211156101185760405162461bcd60e51b81526004016100ed90611734565b6040805160608101825267ffffffffffffffff909416845261ffff928316602085015291169082015290505b919050565b6000826040015161ffff166000146101735760405162461bcd60e51b81526004016100ed90611784565b61017b610cb9565b610184856103d4565b8051604051630461cb1160e51b81529192506000916001600160a01b03891691638c396220916101b791906004016118a4565b60206040518083038186803b1580156101cf57600080fd5b505afa1580156101e3573d6000803e3d6000fd5b505050506040513d601f19601f820116820180604052506102079190810190610eba565b9050610211610574565b60ff168160ff16146102355760405162461bcd60e51b81526004016100ed90611884565b845160405163f25b3f9960e01b81526000916001600160a01b038a169163f25b3f9991610264916004016118b2565b604080518083038186803b15801561027b57600080fd5b505afa15801561028f573d6000803e3d6000fd5b505050506040513d601f19601f820116820180604052506102b39190810190610da7565b509050806102d35760405162461bcd60e51b81526004016100ed906117a4565b6102e787876020015161ffff168388610579565b98975050505050505050565b6000815160001415610307575060006100a5565b61030f610cb9565b610318836103d4565b8051604051630461cb1160e51b81529192506000916001600160a01b03871691638c3962209161034b91906004016118a4565b60206040518083038186803b15801561036357600080fd5b505afa158015610377573d6000803e3d6000fd5b505050506040513d601f19601f8201168201806040525061039b9190810190610eba565b90506103a5610574565b60ff168160ff16146103c95760405162461bcd60e51b81526004016100ed90611884565b506001949350505050565b6103dc610cb9565b60606103ef6103ea846106c4565b6106e9565b80519091506005146104135760405162461bcd60e51b81526004016100ed90611774565b60006104328260008151811061042557fe5b60200260200101516107f8565b9050600081116104545760405162461bcd60e51b81526004016100ed906116f4565b60606104738360028151811061046657fe5b60200260200101516106e9565b9050606081516040519080825280602002602001820160405280156104b257816020015b61049f610cee565b8152602001906001900390816104975790505b50905060005b82518110156104fc576104dd8382815181106104d057fe5b602002602001015161090e565b8282815181106104e957fe5b60209081029190910101526001016104b8565b50600061051c8560048151811061050f57fe5b60200260200101516109b2565b90506040518060a0016040528085815260200161053f8760018151811061046657fe5b81526020018381526020018660038151811061055757fe5b602002602001015181526020018281525095505050505050919050565b600290565b600081516000141561059d5760405162461bcd60e51b81526004016100ed90611794565b60208251816105a857fe5b06156105c65760405162461bcd60e51b81526004016100ed90611854565b60208251816105d157fe5b0460020a84106105f35760405162461bcd60e51b81526004016100ed90611894565b600080600060f81b8760405160200161060d9291906116ca565b60408051601f198184030181529190528051602091820120915086905b855181116106b657858101519350600282066106765760405161065990600160f81b9085908790602001611693565b6040516020818303038152906040528051906020012092506106a8565b60405161068f90600160f81b9086908690602001611693565b6040516020818303038152906040528051906020012092505b60028204915060200161062a565b505090931495945050505050565b6106cc610d0d565b506040805180820190915281518152602082810190820152919050565b60606106f482610a3f565b6107105760405162461bcd60e51b81526004016100ed90611804565b6000806107208460200151610a79565b8551919350915082146107455760405162461bcd60e51b81526004016100ed90611754565b600061075085610c22565b905060608160405190808252806020026020018201604052801561078e57816020015b61077b610d0d565b8152602001906001900390816107735790505b50602087015190915083016000805b848110156107eb576107ae83610a79565b50809250506040518060400160405280838152602001848152508482815181106107d457fe5b60209081029190910101529181019160010161079d565b5091979650505050505050565b80516000901580159061080d57508151602110155b6108295760405162461bcd60e51b81526004016100ed90611874565b61083282610a3f565b1561084f5760405162461bcd60e51b81526004016100ed90611814565b60008061085f8460200151610a79565b8551919350915082146108845760405162461bcd60e51b81526004016100ed90611724565b60208085015182018051838503929091600083901a918410156108ae57836020036101000a830492505b811580156108ba575084155b156108d75760405162461bcd60e51b81526004016100ed906117b4565b811580156108e55750600184115b156109025760405162461bcd60e51b81526004016100ed90611704565b50909695505050505050565b610916610cee565b6060610921836106e9565b905080516002146109445760405162461bcd60e51b81526004016100ed906117e4565b61094c610cee565b60405180604001604052806109678460008151811061042557fe5b81526020018360018151811061097957fe5b602002602001015181525090508060000151600014156109ab5760405162461bcd60e51b81526004016100ed90611824565b9392505050565b80516000906021146109d65760405162461bcd60e51b81526004016100ed90611864565b6109df82610a3f565b156109fc5760405162461bcd60e51b81526004016100ed90611814565b600080610a0c8460200151610a79565b9150915081602114610a305760405162461bcd60e51b81526004016100ed90611834565b60208401510151915050919050565b8051600090610a5057506000610144565b6020820151805160001a9060c0821015610a6f57600092505050610144565b5060019392505050565b8051600090819081908190811a6080811015610a9c576001925060009150610c17565b60808110801590610aad575060b881105b15610af657607e19810192506002831415610aed57600186015160001a6080811015610aeb5760405162461bcd60e51b81526004016100ed90611844565b505b60019150610c17565b60b88110801590610b07575060c081105b15610b815760019590950180519095602081900360b7016101000a820480820160b519019450909160001a60b619830181610b545760405162461bcd60e51b81526004016100ed90611764565b60378311610b745760405162461bcd60e51b81526004016100ed90611744565b6001019350610c17915050565b60c08110801590610b92575060f881105b15610ba75760be198101925060019150610c17565b60019590950180519095602081900360f7016101000a820480820160f519019450909160001a60f619830181610bef5760405162461bcd60e51b81526004016100ed906117f4565b60378311610c0f5760405162461bcd60e51b81526004016100ed906117d4565b600101935050505b509092509050915091565b600080600090506000610c388460200151610a79565b602086015186519193508084019250015b80821015610c8f576000610c5c83610a79565b5092830192905081831115610c835760405162461bcd60e51b81526004016100ed906117c4565b50600190930192610c49565b5091949350505050565b604080516060810182526000808252602082018190529181019190915290565b6040518060a00160405280600081526020016060815260200160608152602001610ce1610d0d565b8152600060209091015290565b604051806040016040528060008152602001610d08610d0d565b905290565b604051806040016040528060008152602001600081525090565b80516100a5816119ad565b600082601f830112610d4357600080fd5b8135610d56610d51826118e7565b6118c0565b91508082526020830160208301858383011115610d7257600080fd5b610d7d838284611971565b50505092915050565b80356100a5816119c4565b80356100a5816119ad565b80516100a5816119cd565b60008060408385031215610dba57600080fd5b6000610dc68585610d27565b9250506020610dd785828601610d27565b9150509250929050565b60008060408385031215610df457600080fd5b6000610e008585610d86565b925050602083013567ffffffffffffffff811115610e1d57600080fd5b610dd785828601610d32565b60008060008060808587031215610e3f57600080fd5b6000610e4b8787610d86565b945050602085013567ffffffffffffffff811115610e6857600080fd5b610e7487828801610d32565b9350506040610e8587828801610d91565b925050606085013567ffffffffffffffff811115610ea257600080fd5b610eae87828801610d32565b91505092959194509250565b600060208284031215610ecc57600080fd5b6000610ed88484610d9c565b949350505050565b610ee981611927565b82525050565b610ee9610efb8261192c565b611939565b610ee9610efb82611939565b6000610f178261190f565b610f218185610144565b9350610f3181856020860161197d565b9290920192915050565b6000610f48601e83611913565b7f5472616e73616374696f6e2074797065206d757374206e6f7420626520300000815260200192915050565b6000610f81601983611913565b7f4c656164696e67207a65726f732061726520696e76616c696400000000000000815260200192915050565b6000610fba603483611913565b7f626c6f636b4e756d2065786365656473206d61782073697a6520616c6c6f77658152736420696e20506c61736d614672616d65776f726b60601b602082015260400192915050565b6000611010603a83611913565b7f4465636f646564206974656d206c656e677468206d757374206265206571756181527f6c20746f2074686520696e7075742064617461206c656e677468000000000000602082015260400192915050565b600061106f602283611913565b7f7478496e6465782065786365656473207468652073697a65206f662075696e74815261189b60f11b602082015260400192915050565b60006110b3602083611913565b7f496e76616c6964206c656e67746820666f722061206c6f6e6720737472696e67815260200192915050565b60006110ec602683611913565b7f4465636f64656420524c50206c656e67746820666f72206c69737420697320698152651b9d985b1a5960d21b602082015260400192915050565b6000611134603f83611913565b7f496e76616c6964206c656164696e67207a65726f7320696e206c656e6774682081527f6f6620746865206c656e67746820666f722061206c6f6e6720737472696e6700602082015260400192915050565b6000611193601f83611913565b7f496e76616c696420656e636f64696e67206f66207472616e73616374696f6e00815260200192915050565b60006111cc601c83611913565b7f496e76616c6964207472616e73616374696f6e20706f736974696f6e00000000815260200192915050565b6000611205601e83611913565b7f4d65726b6c652070726f6f66206d757374206e6f7420626520656d7074790000815260200192915050565b600061123e602c83611913565b7f4661696c656420746f206765742074686520726f6f742068617368206f66207481526b686520626c6f636b206e756d60a01b602082015260400192915050565b600061128c602283611913565b7f5363616c617220302073686f756c6420626520656e636f646564206173203078815261038360f41b602082015260400192915050565b60006112d0604883611913565b7f496e76616c6964206465636f646564206c656e677468206f6620524c5020697481527f656d20666f756e6420647572696e6720636f756e74696e67206974656d7320696020820152671b8818481b1a5cdd60c21b604082015260600192915050565b6000611340601e83611913565b7f496e76616c6964206c656e67746820666f722061206c6f6e67206c6973740000815260200192915050565b6000611379601883611913565b7f4f7574707574206d75737420686176652032206974656d730000000000000000815260200192915050565b60006113b2603d83611913565b7f496e76616c6964206c656164696e67207a65726f7320696e206c656e6774682081527f6f6620746865206c656e67746820666f722061206c6f6e67206c697374000000602082015260400192915050565b6000611411601283611913565b71125d195b481a5cc81b9bdd0818481b1a5cdd60721b815260200192915050565b600061143f601783611913565b7f4974656d206d757374206e6f742062652061206c697374000000000000000000815260200192915050565b6000611478601983611913565b7f4f75747075742074797065206d757374206e6f74206265203000000000000000815260200192915050565b60006114b1601e83611913565b7f4465636f646564206974656d206c656e677468206d7573742062652033330000815260200192915050565b60006114ea601d83611913565b7f496e76616c69642073686f727420737472696e6720656e636f64696e67000000815260200192915050565b6000611523602f83611913565b7f4c656e677468206f66204d65726b6c652070726f6f66206d757374206265206181526e1036bab63a34b836329037b310199960891b602082015260400192915050565b6000611574601683611913565b754974656d206c656e677468206d75737420626520333360501b815260200192915050565b60006115a6602a83611913565b7f4974656d206c656e677468206d757374206265206265747765656e203120616e8152696420333320627974657360b01b602082015260400192915050565b60006115f2602c83611913565b7f4d6f7265567046696e616c697a6174696f6e3a206e6f742061204d6f7265565081526b040e0e4dee8dec6ded840e8f60a31b602082015260400192915050565b6000611640602c83611913565b7f496e64657820646f6573206e6f74206d6174636820746865206c656e6774682081526b37b3103a343290383937b7b360a11b602082015260400192915050565b610ee981611939565b610ee981611966565b600061169f8286610eef565b6001820191506116af8285610f00565b6020820191506116bf8284610f00565b506020019392505050565b60006116d68285610eef565b600182019150610ed88284610f0c565b602081016100a58284610ee0565b602080825281016100a581610f3b565b602080825281016100a581610f74565b602080825281016100a581610fad565b602080825281016100a581611003565b602080825281016100a581611062565b602080825281016100a5816110a6565b602080825281016100a5816110df565b602080825281016100a581611127565b602080825281016100a581611186565b602080825281016100a5816111bf565b602080825281016100a5816111f8565b602080825281016100a581611231565b602080825281016100a58161127f565b602080825281016100a5816112c3565b602080825281016100a581611333565b602080825281016100a58161136c565b602080825281016100a5816113a5565b602080825281016100a581611404565b602080825281016100a581611432565b602080825281016100a58161146b565b602080825281016100a5816114a4565b602080825281016100a5816114dd565b602080825281016100a581611516565b602080825281016100a581611567565b602080825281016100a581611599565b602080825281016100a5816115e5565b602080825281016100a581611633565b602081016100a58284611681565b602081016100a5828461168a565b60405181810167ffffffffffffffff811182821017156118df57600080fd5b604052919050565b600067ffffffffffffffff8211156118fe57600080fd5b506020601f91909101601f19160190565b5190565b90815260200190565b60006100a582611947565b151590565b6001600160f81b03191690565b90565b60006100a58261191c565b6001600160a01b031690565b67ffffffffffffffff1690565b60ff1690565b60006100a582611953565b82818337506000910152565b60005b83811015611998578181015183820152602001611980565b838111156119a7576000848401525b50505050565b6119b681611939565b81146119c157600080fd5b50565b6119b68161193c565b6119b68161196056fea365627a7a7231582067574be5387afebfab602f5340cc01403e6e3bbfa07aca1d8ff1b7b19ff102996c6578706572696d656e74616cf564736f6c634300050b0040",
  "source": "pragma solidity 0.5.11;\npragma experimental ABIEncoderV2;\n\nimport \"../../../src/exits/utils/MoreVpFinalization.sol\";\n\ncontract MoreVpFinalizationWrapper {\n    function isStandardFinalized(\n        PlasmaFramework framework,\n        bytes memory txBytes,\n        uint256 txPos,\n        bytes memory inclusionProof\n    )\n        public\n        view\n        returns (bool)\n    {\n        return MoreVpFinalization.isStandardFinalized(\n            framework,\n            txBytes,\n            PosLib.decode(txPos),\n            inclusionProof\n        );\n    }\n\n    function isProtocolFinalized(\n        PlasmaFramework framework,\n        bytes memory txBytes\n    )\n        public\n        view\n        returns (bool)\n    {\n        return MoreVpFinalization.isProtocolFinalized(\n            framework,\n            txBytes\n        );\n    }\n}\n",
  "sourcePath": "/home/node/plasma-contracts/plasma_framework/contracts/mocks/exits/utils/MoreVpFinalizationWrapper.sol",
  "compiler": {
    "name": "solc",
    "version": "0.5.11+commit.c082d0b4.Emscripten.clang"
  },
  "schemaVersion": "3.0.16",
  "updatedAt": "2020-04-07T14:07:49.526Z",
  "devdoc": {
    "methods": {}
  },
  "userdoc": {
    "methods": {}
  }
}