{
  "contractName": "OnlyWithValueMock",
  "abi": [
    {
      "anonymous": false,
      "inputs": [],
      "name": "OnlyWithValuePassed",
      "type": "event"
    },
    {
      "constant": false,
      "inputs": [
        {
          "internalType": "uint256",
          "name": "_value",
          "type": "uint256"
        }
      ],
      "name": "checkOnlyWithValue",
      "outputs": [],
      "payable": true,
      "stateMutability": "payable",
      "type": "function"
    }
  ],
  "bytecode": "0x608060405234801561001057600080fd5b5060f38061001f6000396000f3fe608060405260043610601c5760003560e01c80630f1d6323146021575b600080fd5b603b60048036036020811015603557600080fd5b5035603d565b005b808034146091576040805162461bcd60e51b815260206004820181905260248201527f496e7075742076616c7565206d757374206d61746368206d73672e76616c7565604482015290519081900360640190fd5b6040517f39b3dd8f9a5c4bf0f448d73043a8b2ea6c46eb0d5aa5b2f38e50b351bf00220f90600090a1505056fea265627a7a7231582082db7b7363382b6faf837f7a00f8bfd728accbb0475a5d5a00bba69d1d93735e64736f6c634300050b0032",
  "source": "pragma solidity 0.5.11;\n\nimport \"../../src/utils/OnlyWithValue.sol\";\n\ncontract OnlyWithValueMock is OnlyWithValue {\n    event OnlyWithValuePassed();\n\n    function checkOnlyWithValue(uint256 _value) public payable onlyWithValue(_value) {\n        emit OnlyWithValuePassed();\n    }\n}\n",
  "sourcePath": "/home/node/plasma-contracts/plasma_framework/contracts/mocks/utils/OnlyWithValueMock.sol",
  "compiler": {
    "name": "solc",
    "version": "0.5.11+commit.c082d0b4.Emscripten.clang"
  },
  "schemaVersion": "3.0.16",
  "updatedAt": "2020-04-07T14:07:49.617Z",
  "devdoc": {
    "methods": {}
  },
  "userdoc": {
    "methods": {}
  }
}