{
  "contractName": "OutputIdWrapper",
  "abi": [
    {
      "constant": true,
      "inputs": [
        {
          "internalType": "bytes",
          "name": "_txBytes",
          "type": "bytes"
        },
        {
          "internalType": "uint8",
          "name": "_outputIndex",
          "type": "uint8"
        },
        {
          "internalType": "uint256",
          "name": "_utxoPosValue",
          "type": "uint256"
        }
      ],
      "name": "computeDepositOutputId",
      "outputs": [
        {
          "internalType": "bytes32",
          "name": "",
          "type": "bytes32"
        }
      ],
      "payable": false,
      "stateMutability": "pure",
      "type": "function"
    },
    {
      "constant": true,
      "inputs": [
        {
          "internalType": "bytes",
          "name": "_txBytes",
          "type": "bytes"
        },
        {
          "internalType": "uint8",
          "name": "_outputIndex",
          "type": "uint8"
        }
      ],
      "name": "computeNormalOutputId",
      "outputs": [
        {
          "internalType": "bytes32",
          "name": "",
          "type": "bytes32"
        }
      ],
      "payable": false,
      "stateMutability": "pure",
      "type": "function"
    }
  ],
  "bytecode": "0x608060405234801561001057600080fd5b506102fb806100206000396000f3fe608060405234801561001057600080fd5b50600436106100365760003560e01c8063df9f17441461003b578063f47ff90d146100fb575b600080fd5b6100e96004803603606081101561005157600080fd5b81019060208101813564010000000081111561006c57600080fd5b82018360208201111561007e57600080fd5b803590602001918460018302840111640100000000831117156100a057600080fd5b91908080601f0160208091040260200160405190810160405280939291908181526020018383808284376000920191909152509295505060ff83351693505050602001356101a6565b60408051918252519081900360200190f35b6100e96004803603604081101561011157600080fd5b81019060208101813564010000000081111561012c57600080fd5b82018360208201111561013e57600080fd5b8035906020019184600183028401116401000000008311171561016057600080fd5b91908080601f0160208091040260200160405190810160405280939291908181526020018383808284376000920191909152509295505050903560ff1691506101be9050565b60006101b6848460ff16846101d4565b949350505050565b60006101cd838360ff16610251565b9392505050565b60008383836040516020018084805190602001908083835b6020831061020b5780518252601f1990920191602091820191016101ec565b51815160209384036101000a6000190180199092169116179052920194855250838101929092525060408051808403830181529281019052815191012095945050505050565b600082826040516020018083805190602001908083835b602083106102875780518252601f199092019160209182019101610268565b51815160209384036101000a6000190180199092169116179052920193845250604080518085038152938201905282519201919091209594505050505056fea265627a7a723158202724b248adc52ff8dc2909b83f2392235225c6374c3e27b1de88a9b913b9f0cf64736f6c634300050b0032",
  "source": "pragma solidity 0.5.11;\n\nimport \"../../../src/exits/utils/OutputId.sol\";\n\ncontract OutputIdWrapper {\n    function computeDepositOutputId(\n        bytes memory _txBytes,\n        uint8 _outputIndex,\n        uint256 _utxoPosValue\n    )\n        public\n        pure\n        returns (bytes32)\n    {\n        return OutputId.computeDepositOutputId(_txBytes, _outputIndex, _utxoPosValue);\n    }\n\n    function computeNormalOutputId(\n        bytes memory _txBytes,\n        uint8 _outputIndex\n    )\n        public\n        pure\n        returns (bytes32)\n    {\n        return OutputId.computeNormalOutputId(_txBytes, _outputIndex);\n    }\n}\n",
  "sourcePath": "/home/node/plasma-contracts/plasma_framework/contracts/mocks/exits/utils/OutputIdWrapper.sol",
  "compiler": {
    "name": "solc",
    "version": "0.5.11+commit.c082d0b4.Emscripten.clang"
  },
  "schemaVersion": "3.0.16",
  "updatedAt": "2020-04-07T14:07:49.528Z",
  "devdoc": {
    "methods": {}
  },
  "userdoc": {
    "methods": {}
  }
}