{
  "contractName": "PaymentChallengeStandardExit",
  "abi": [
    {
      "anonymous": false,
      "inputs": [
        {
          "indexed": true,
          "internalType": "uint256",
          "name": "utxoPos",
          "type": "uint256"
        }
      ],
      "name": "ExitChallenged",
      "type": "event"
    },
    {
      "constant": true,
      "inputs": [
        {
          "internalType": "contract PlasmaFramework",
          "name": "framework",
          "type": "PlasmaFramework"
        },
        {
          "internalType": "contract SpendingConditionRegistry",
          "name": "spendingConditionRegistry",
          "type": "SpendingConditionRegistry"
        },
        {
          "internalType": "uint256",
          "name": "safeGasStipend",
          "type": "uint256"
        }
      ],
      "name": "buildController",
      "outputs": [
        {
          "components": [
            {
              "internalType": "contract PlasmaFramework",
              "name": "framework",
              "type": "PlasmaFramework"
            },
            {
              "internalType": "contract SpendingConditionRegistry",
              "name": "spendingConditionRegistry",
              "type": "SpendingConditionRegistry"
            },
            {
              "internalType": "uint256",
              "name": "safeGasStipend",
              "type": "uint256"
            }
          ],
          "internalType": "struct PaymentChallengeStandardExit.Controller",
          "name": "",
          "type": "tuple"
        }
      ],
      "payable": false,
      "stateMutability": "pure",
      "type": "function"
    }
  ],
  "bytecode": "0x6128c2610026600b82828239805160001a60731461001957fe5b30600052607381538281f3fe73000000000000000000000000000000000000000030146080604052600436106100405760003560e01c8063159cde2d14610045578063edc91d4b1461006e575b600080fd5b610058610053366004611791565b610090565b60405161006591906126f5565b60405180910390f35b81801561007a57600080fd5b5061008e6100893660046117de565b6100c5565b005b6100986113d6565b50604080516060810182526001600160a01b038086168252841660208201529081018290525b9392505050565b336040516020016100d69190612392565b604051602081830303815290604052805190602001208160a00151146101175760405162461bcd60e51b815260040161010e90612625565b60405180910390fd5b61011f6113f6565b61012c826040015161024f565b905061013661142b565b506040805160808082018352868252602080830186905285516001600160a01b039081166000908152888352859020855160c081018752815460ff161515815260018201549381019390935260028101548387015260038101549091166060808401919091526004820154938301939093526005015460a0820152928201929092528251918101919091526101ca816103f0565b6101d38161041a565b6101dc8161043f565b82516001600160a01b031660009081526020859052604090819020805460ff191690558181015160a00151908601516102169133916106f8565b6040808201516020015190517f5dfba526c59b25f899f935c5b0d5b8739e97e4d89c38c158eca3192ea34b87d890600090a25050505050565b6102576113f6565b606061026a6102658461072a565b61074f565b805190915060051461028e5760405162461bcd60e51b815260040161010e90612545565b60006102ad826000815181106102a057fe5b602002602001015161085e565b9050600081116102cf5760405162461bcd60e51b815260040161010e90612465565b60606102ee836002815181106102e157fe5b602002602001015161074f565b90506060815160405190808252806020026020018201604052801561032d57816020015b61031a611465565b8152602001906001900390816103125790505b50905060005b82518110156103775761035883828151811061034b57fe5b6020026020010151610974565b82828151811061036457fe5b6020908102919091010152600101610333565b5060006103978560048151811061038a57fe5b6020026020010151610a11565b90506040518060a001604052808581526020016103ba876001815181106102e157fe5b8152602001838152602001866003815181106103d257fe5b6020026020010151815260200182815250955050505050505b919050565b60408101515115156001146104175760405162461bcd60e51b815260040161010e90612585565b50565b80515160208201516040015160009161043291610a9e565b90508061043b57fe5b5050565b610447611484565b5060208101516104556113d6565b610466836040015160200151610b81565b90506104706114ca565b61049182604001516104858560200151610c15565b9063ffffffff610c2e16565b845160200151815160608701516040516364f40d6f60e01b81529394506000936001600160a01b03909316926364f40d6f926104d1929091600401612711565b60206040518083038186803b1580156104e957600080fd5b505afa1580156104fd573d6000803e3d6000fd5b505050506040513d601f19601f820116820180604052506105219190810190611773565b90506001600160a01b0381166105495760405162461bcd60e51b815260040161010e90612655565b845151835160405163ebde2ec960e01b81526000926001600160a01b03169163ebde2ec99161057b919060040161272c565b60206040518083038186803b15801561059357600080fd5b505afa1580156105a7573d6000803e3d6000fd5b505050506040513d601f19601f820116820180604052506105cb919081019061174d565b6105ea576105e58560200151856040015161ffff16610c82565b610609565b6106098560200151856040015161ffff1661060487610cb5565b610d46565b905085604001516040015181146106325760405162461bcd60e51b815260040161010e906125c5565b6000826001600160a01b031663e618a6f5876020015161065188610cb5565b89604001518a606001518b608001516040518663ffffffff1660e01b8152600401610680959493929190612407565b60206040518083038186803b15801561069857600080fd5b505afa1580156106ac573d6000803e3d6000fd5b505050506040513d601f19601f820116820180604052506106d0919081019061174d565b9050806106ef5760405162461bcd60e51b815260040161010e90612565565b50505050505050565b6000610705848484610d7c565b9050806107245760405162461bcd60e51b815260040161010e90612595565b50505050565b6107326114f1565b506040805180820190915281518152602082810190820152919050565b606061075a82610dd5565b6107765760405162461bcd60e51b815260040161010e90612615565b6000806107868460200151610e0f565b8551919350915082146107ab5760405162461bcd60e51b815260040161010e906124e5565b60006107b685610fb8565b90506060816040519080825280602002602001820160405280156107f457816020015b6107e16114f1565b8152602001906001900390816107d95790505b50602087015190915083016000805b848110156108515761081483610e0f565b508092505060405180604001604052808381526020018481525084828151811061083a57fe5b602090810291909101015291810191600101610803565b5091979650505050505050565b80516000901580159061087357508151602110155b61088f5760405162461bcd60e51b815260040161010e906126d5565b61089882610dd5565b156108b55760405162461bcd60e51b815260040161010e90612635565b6000806108c58460200151610e0f565b8551919350915082146108ea5760405162461bcd60e51b815260040161010e906124a5565b60208085015182018051838503929091600083901a9184101561091457836020036101000a830492505b81158015610920575084155b1561093d5760405162461bcd60e51b815260040161010e906125a5565b8115801561094b5750600184115b156109685760405162461bcd60e51b815260040161010e90612475565b50909695505050505050565b61097c611465565b60606109878361074f565b905080516002146109aa5760405162461bcd60e51b815260040161010e906125f5565b6109b2611465565b60405180604001604052806109cd846000815181106102a057fe5b8152602001836001815181106109df57fe5b602002602001015181525090508060000151600014156100be5760405162461bcd60e51b815260040161010e90612665565b8051600090602114610a355760405162461bcd60e51b815260040161010e906126c5565b610a3e82610dd5565b15610a5b5760405162461bcd60e51b815260040161010e90612635565b600080610a6b8460200151610e0f565b9150915081602114610a8f5760405162461bcd60e51b815260040161010e90612695565b60208401510151915050919050565b6000815160001415610ab257506000610b7b565b610aba6113f6565b610ac38361024f565b8051604051630461cb1160e51b81529192506000916001600160a01b03871691638c39622091610af69190600401612703565b60206040518083038186803b158015610b0e57600080fd5b505afa158015610b22573d6000803e3d6000fd5b505050506040513d601f19601f82011682018060405250610b469190810190611839565b9050610b5061102f565b60ff168160ff1614610b745760405162461bcd60e51b815260040161010e906126e5565b6001925050505b92915050565b610b896113d6565b633b9aca00808304906127109084068190049084066429f16b11c6831115610bc35760405162461bcd60e51b815260040161010e90612485565b61ffff821115610be55760405162461bcd60e51b815260040161010e906124b5565b6040805160608101825267ffffffffffffffff909416845261ffff92831660208501529116908201529050919050565b610c1d61150b565b610b7b610c298361024f565b611034565b610c366114ca565b8260400151518261ffff1610610c5e5760405162461bcd60e51b815260040161010e906124c5565b82604001518261ffff1681518110610c7257fe5b6020026020010151905092915050565b60008282604051602001610c979291906123a7565b60405160208183030381529060405280519060200120905092915050565b6000600161271003826040015161ffff161115610ce45760405162461bcd60e51b815260040161010e90612575565b81516429f16b11c667ffffffffffffffff9091161115610d165760405162461bcd60e51b815260040161010e90612685565b5060408101516020820151825167ffffffffffffffff16633b9aca000261ffff9182166127100201911601919050565b6000838383604051602001610d5d939291906123c9565b6040516020818303038152906040528051906020012090509392505050565b600080846001600160a01b03168385604051610d97906123fc565b600060405180830381858888f193505050503d8060008114610968576040519150601f19603f3d011682016040523d82523d6000602084013e610968565b8051600090610de6575060006103eb565b6020820151805160001a9060c0821015610e05576000925050506103eb565b5060019392505050565b8051600090819081908190811a6080811015610e32576001925060009150610fad565b60808110801590610e43575060b881105b15610e8c57607e19810192506002831415610e8357600186015160001a6080811015610e815760405162461bcd60e51b815260040161010e906126a5565b505b60019150610fad565b60b88110801590610e9d575060c081105b15610f175760019590950180519095602081900360b7016101000a820480820160b519019450909160001a60b619830181610eea5760405162461bcd60e51b815260040161010e90612535565b60378311610f0a5760405162461bcd60e51b815260040161010e906124d5565b6001019350610fad915050565b60c08110801590610f28575060f881105b15610f3d5760be198101925060019150610fad565b60019590950180519095602081900360f7016101000a820480820160f519019450909160001a60f619830181610f855760405162461bcd60e51b815260040161010e90612605565b60378311610fa55760405162461bcd60e51b815260040161010e906125e5565b600101935050505b509092509050915091565b600080600090506000610fce8460200151610e0f565b602086015186519193508084019250015b80821015611025576000610ff283610e0f565b50928301929050818311156110195760405162461bcd60e51b815260040161010e906125b5565b50600190930192610fdf565b5091949350505050565b600290565b61103c61150b565b602082015151600410156110625760405162461bcd60e51b815260040161010e90612505565b6040820151516110845760405162461bcd60e51b815260040161010e90612495565b604082015151600410156110aa5760405162461bcd60e51b815260040161010e906124f5565b60608260200151516040519080825280602002602001820160405280156110db578160200160208202803883390190505b50905060005b8360200151518110156111435760006111038560200151838151811061038a57fe5b9050806111225760405162461bcd60e51b815260040161010e90612645565b8083838151811061112f57fe5b6020908102919091010152506001016110e1565b50606083604001515160405190808252806020026020018201604052801561118557816020015b6111726114ca565b81526020019060019003908161116a5790505b50905060005b8460400151518110156111d7576111b8856040015182815181106111ab57fe5b6020026020010151611233565b8282815181106111c457fe5b602090810291909101015260010161118b565b506111e5846060015161085e565b156112025760405162461bcd60e51b815260040161010e90612515565b6040805160a08101825285518152602081019390935282015260006060820152608080840151908201529050919050565b61123b6114ca565b606061124a836020015161074f565b9050805160031461126d5760405162461bcd60e51b815260040161010e90612525565b6112756114ca565b6040518060800160405280856000015181526020016112a78460008151811061129a57fe5b6020026020010151611342565b60601b6bffffffffffffffffffffffff191681526020016112ce8460018151811061129a57fe5b6001600160a01b031681526020016112ec846002815181106102a057fe5b905260608101519091506113125760405162461bcd60e51b815260040161010e90612555565b60208101516bffffffffffffffffffffffff19166100be5760405162461bcd60e51b815260040161010e906125d5565b80516000906015146113665760405162461bcd60e51b815260040161010e90612675565b61136f82610dd5565b1561138c5760405162461bcd60e51b815260040161010e90612635565b60008061139c8460200151610e0f565b91509150816015146113c05760405162461bcd60e51b815260040161010e906126b5565b60208401510151600160601b9004915050919050565b604080516060810182526000808252602082018190529181019190915290565b6040518060a0016040528060008152602001606081526020016060815260200161141e6114f1565b8152600060209091015290565b604051806080016040528061143e6113d6565b815260200161144b611484565b815260200161145861153d565b8152602001600081525090565b60405180604001604052806000815260200161147f6114f1565b905290565b6040518060c0016040528060006001600160a01b031681526020016060815260200160608152602001600061ffff16815260200160608152602001600080191681525090565b60408051608081018252600080825260208201819052918101829052606081019190915290565b604051806040016040528060008152602001600081525090565b6040518060a0016040528060008152602001606081526020016060815260200160008152602001600080191681525090565b6040805160c081018252600080825260208201819052918101829052606081018290526080810182905260a081019190915290565b8051610b7b8161283e565b8035610b7b81612852565b600082601f83011261159957600080fd5b81356115ac6115a782612761565b61273a565b915080825260208301602083018583830111156115c857600080fd5b6115d38382846127e5565b50505092915050565b8051610b7b8161285b565b8035610b7b8161285b565b600060c0828403121561160457600080fd5b61160e60c061273a565b9050600061161c8484611737565b825250602082013567ffffffffffffffff81111561163957600080fd5b61164584828501611588565b602083015250604082013567ffffffffffffffff81111561166557600080fd5b61167184828501611588565b60408301525060606116858482850161172c565b606083015250608082013567ffffffffffffffff8111156116a557600080fd5b6116b184828501611588565b60808301525060a06116c58482850161157d565b60a08301525092915050565b6000606082840312156116e357600080fd5b6116ed606061273a565b905060006116fb84846115e7565b825250602061170c848483016115e7565b60208301525060406117208482850161157d565b60408301525092915050565b8035610b7b81612864565b8035610b7b8161286d565b8051610b7b81612876565b60006020828403121561175f57600080fd5b600061176b8484611572565b949350505050565b60006020828403121561178557600080fd5b600061176b84846115dc565b6000806000606084860312156117a657600080fd5b60006117b286866115e7565b93505060206117c3868287016115e7565b92505060406117d48682870161157d565b9150509250925092565b600080600060a084860312156117f357600080fd5b60006117ff86866116d1565b93505060606118108682870161157d565b925050608084013567ffffffffffffffff81111561182d57600080fd5b6117d4868287016115f2565b60006020828403121561184b57600080fd5b600061176b8484611742565b61186861186382612796565b61281d565b82525050565b600061187982612789565b61188381856103eb565b93506118938185602086016127f1565b9290920192915050565b60006118a882612789565b6118b2818561278d565b93506118c28185602086016127f1565b6118cb8161282e565b9093019392505050565b611868816127a9565b60006118eb601e8361278d565b7f5472616e73616374696f6e2074797065206d757374206e6f7420626520300000815260200192915050565b600061192460198361278d565b7f4c656164696e67207a65726f732061726520696e76616c696400000000000000815260200192915050565b600061195d60348361278d565b7f626c6f636b4e756d2065786365656473206d61782073697a6520616c6c6f77658152736420696e20506c61736d614672616d65776f726b60601b602082015260400192915050565b60006119b360218361278d565b7f5472616e73616374696f6e2063616e6e6f7420686176652030206f75747075748152607360f81b602082015260400192915050565b60006119f6603a8361278d565b7f4465636f646564206974656d206c656e677468206d757374206265206571756181527f6c20746f2074686520696e7075742064617461206c656e677468000000000000602082015260400192915050565b6000611a5560228361278d565b7f7478496e6465782065786365656473207468652073697a65206f662075696e74815261189b60f11b602082015260400192915050565b6000611a99601a8361278d565b7f4f757470757420696e646578206f7574206f6620626f756e6473000000000000815260200192915050565b6000611ad260208361278d565b7f496e76616c6964206c656e67746820666f722061206c6f6e6720737472696e67815260200192915050565b6000611b0b60268361278d565b7f4465636f64656420524c50206c656e67746820666f72206c69737420697320698152651b9d985b1a5960d21b602082015260400192915050565b6000611b5360258361278d565b7f5472616e73616374696f6e206f757470757473206e756d2065786365656473208152641b1a5b5a5d60da1b602082015260400192915050565b6000611b9a60248361278d565b7f5472616e73616374696f6e20696e70757473206e756d2065786365656473206c8152631a5b5a5d60e21b602082015260400192915050565b6000611be060108361278d565b6f0747844617461206d75737420626520360841b815260200192915050565b6000611c0c601d8361278d565b7f4f75747075742064617461206d75737420686176652033206974656d73000000815260200192915050565b6000611c45603f8361278d565b7f496e76616c6964206c656164696e67207a65726f7320696e206c656e6774682081527f6f6620746865206c656e67746820666f722061206c6f6e6720737472696e6700602082015260400192915050565b6000611ca4601f8361278d565b7f496e76616c696420656e636f64696e67206f66207472616e73616374696f6e00815260200192915050565b6000611cdd601b8361278d565b7f4f757470757420616d6f756e74206d757374206e6f7420626520300000000000815260200192915050565b6000611d1660198361278d565b7f5370656e64696e6720636f6e646974696f6e206661696c656400000000000000815260200192915050565b6000611d4f60148361278d565b73092dcecc2d8d2c840deeae8e0eae840d2dcc8caf60631b815260200192915050565b6000611d7f60178361278d565b7f546865206578697420646f6573206e6f74206578697374000000000000000000815260200192915050565b6000611db860278361278d565b7f536166654574685472616e736665723a206661696c656420746f207472616e738152660cccae4408aa8960cb1b602082015260400192915050565b6000611e0160228361278d565b7f5363616c617220302073686f756c6420626520656e636f646564206173203078815261038360f41b602082015260400192915050565b6000611e4560488361278d565b7f496e76616c6964206465636f646564206c656e677468206f6620524c5020697481527f656d20666f756e6420647572696e6720636f756e74696e67206974656d7320696020820152671b8818481b1a5cdd60c21b604082015260600192915050565b6000611eb5602c8361278d565b7f496e76616c69642065786974696e672074782063617573696e67206f7574707581526b0e892c840dad2e6dac2e8c6d60a31b602082015260400192915050565b6000611f0360208361278d565b7f4f7574707574206f75747075744775617264206d757374206e6f742062652030815260200192915050565b6000611f3c601e8361278d565b7f496e76616c6964206c656e67746820666f722061206c6f6e67206c6973740000815260200192915050565b6000611f7560188361278d565b7f4f7574707574206d75737420686176652032206974656d730000000000000000815260200192915050565b6000611fae603d8361278d565b7f496e76616c6964206c656164696e67207a65726f7320696e206c656e6774682081527f6f6620746865206c656e67746820666f722061206c6f6e67206c697374000000602082015260400192915050565b600061200d60128361278d565b71125d195b481a5cc81b9bdd0818481b1a5cdd60721b815260200192915050565b600061203b60148361278d565b73496e636f72726563742073656e6465724461746160601b815260200192915050565b600061206b60178361278d565b7f4974656d206d757374206e6f742062652061206c697374000000000000000000815260200192915050565b60006120a460168361278d565b75139d5b1b081a5b9c1d5d081b9bdd08185b1b1bddd95960521b815260200192915050565b60006120d660258361278d565b7f5370656e64696e6720636f6e646974696f6e20636f6e7472616374206e6f7420815264199bdd5b9960da1b602082015260400192915050565b600061211d60198361278d565b7f4f75747075742074797065206d757374206e6f74206265203000000000000000815260200192915050565b600061215660168361278d565b754974656d206c656e677468206d75737420626520323160501b815260200192915050565b6000610b7b6000836103eb565b600061219560148361278d565b7324b73b30b634b210313637b1b590373ab6b132b960611b815260200192915050565b60006121c5601e8361278d565b7f4465636f646564206974656d206c656e677468206d7573742062652033330000815260200192915050565b60006121fe601d8361278d565b7f496e76616c69642073686f727420737472696e6720656e636f64696e67000000815260200192915050565b6000612237601e8361278d565b7f4465636f646564206974656d206c656e677468206d7573742062652032310000815260200192915050565b600061227060168361278d565b754974656d206c656e677468206d75737420626520333360501b815260200192915050565b60006122a2602a8361278d565b7f4974656d206c656e677468206d757374206265206265747765656e203120616e8152696420333320627974657360b01b602082015260400192915050565b60006122ee602c8361278d565b7f4d6f7265567046696e616c697a6174696f6e3a206e6f742061204d6f7265565081526b040e0e4dee8dec6ded840e8f60a31b602082015260400192915050565b8051606083019061234084826118d5565b50602082015161235360208501826118d5565b506040820151610724604085018261236f565b611868816127b4565b611868816127a6565b611868612384826127a6565b6127a6565b611868816127da565b600061239e8284611857565b50601401919050565b60006123b3828561186e565b91506123bf8284612378565b5060200192915050565b60006123d5828661186e565b91506123e18285612378565b6020820191506123f18284612378565b506020019392505050565b6000610b7b8261217b565b60a08082528101612418818861189d565b9050612427602083018761236f565b8181036040830152612439818661189d565b90506124486060830185612366565b818103608083015261245a818461189d565b979650505050505050565b60208082528101610b7b816118de565b60208082528101610b7b81611917565b60208082528101610b7b81611950565b60208082528101610b7b816119a6565b60208082528101610b7b816119e9565b60208082528101610b7b81611a48565b60208082528101610b7b81611a8c565b60208082528101610b7b81611ac5565b60208082528101610b7b81611afe565b60208082528101610b7b81611b46565b60208082528101610b7b81611b8d565b60208082528101610b7b81611bd3565b60208082528101610b7b81611bff565b60208082528101610b7b81611c38565b60208082528101610b7b81611c97565b60208082528101610b7b81611cd0565b60208082528101610b7b81611d09565b60208082528101610b7b81611d42565b60208082528101610b7b81611d72565b60208082528101610b7b81611dab565b60208082528101610b7b81611df4565b60208082528101610b7b81611e38565b60208082528101610b7b81611ea8565b60208082528101610b7b81611ef6565b60208082528101610b7b81611f2f565b60208082528101610b7b81611f68565b60208082528101610b7b81611fa1565b60208082528101610b7b81612000565b60208082528101610b7b8161202e565b60208082528101610b7b8161205e565b60208082528101610b7b81612097565b60208082528101610b7b816120c9565b60208082528101610b7b81612110565b60208082528101610b7b81612149565b60208082528101610b7b81612188565b60208082528101610b7b816121b8565b60208082528101610b7b816121f1565b60208082528101610b7b8161222a565b60208082528101610b7b81612263565b60208082528101610b7b81612295565b60208082528101610b7b816122e1565b60608101610b7b828461232f565b60208101610b7b828461236f565b6040810161271f828561236f565b6100be602083018461236f565b60208101610b7b8284612389565b60405181810167ffffffffffffffff8111828210171561275957600080fd5b604052919050565b600067ffffffffffffffff82111561277857600080fd5b506020601f91909101601f19160190565b5190565b90815260200190565b6000610b7b826127bb565b151590565b90565b6000610b7b82612796565b61ffff1690565b6001600160a01b031690565b67ffffffffffffffff1690565b60ff1690565b6000610b7b826127c7565b82818337506000910152565b60005b8381101561280c5781810151838201526020016127f4565b838111156107245750506000910152565b6000610b7b826000610b7b82612838565b601f01601f191690565b60601b90565b612847816127a1565b811461041757600080fd5b612847816127a6565b612847816127a9565b612847816127b4565b612847816127bb565b612847816127d456fea365627a7a7231582089bc0cd440b1707d501bbbdc0be309aca7a56afcea5fcf2060cc809a94c8a53b6c6578706572696d656e74616cf564736f6c634300050b0040",
  "source": "pragma solidity 0.5.11;\npragma experimental ABIEncoderV2;\n\nimport \"../PaymentExitDataModel.sol\";\nimport \"../routers/PaymentStandardExitRouterArgs.sol\";\nimport \"../../interfaces/ISpendingCondition.sol\";\nimport \"../../registries/SpendingConditionRegistry.sol\";\nimport \"../../utils/MoreVpFinalization.sol\";\nimport \"../../utils/OutputId.sol\";\nimport \"../../../vaults/EthVault.sol\";\nimport \"../../../vaults/Erc20Vault.sol\";\nimport \"../../../framework/PlasmaFramework.sol\";\nimport \"../../../framework/Protocol.sol\";\nimport \"../../../utils/SafeEthTransfer.sol\";\nimport \"../../../utils/PosLib.sol\";\nimport \"../../../transactions/PaymentTransactionModel.sol\";\nimport \"../../../transactions/GenericTransaction.sol\";\n\nlibrary PaymentChallengeStandardExit {\n    using PosLib for PosLib.Position;\n    using PaymentTransactionModel for PaymentTransactionModel.Transaction;\n\n    struct Controller {\n        PlasmaFramework framework;\n        SpendingConditionRegistry spendingConditionRegistry;\n        uint256 safeGasStipend;\n    }\n\n    event ExitChallenged(\n        uint256 indexed utxoPos\n    );\n\n    /**\n     * @dev Data to be passed around helper functions\n     */\n    struct ChallengeStandardExitData {\n        Controller controller;\n        PaymentStandardExitRouterArgs.ChallengeStandardExitArgs args;\n        PaymentExitDataModel.StandardExit exitData;\n        uint256 challengeTxType;\n    }\n\n    /**\n     * @notice Function that builds the controller struct\n     * @return Controller struct of PaymentChallengeStandardExit\n     */\n    function buildController(\n        PlasmaFramework framework,\n        SpendingConditionRegistry spendingConditionRegistry,\n        uint256 safeGasStipend\n    )\n        public\n        pure\n        returns (Controller memory)\n    {\n        return Controller({\n            framework: framework,\n            spendingConditionRegistry: spendingConditionRegistry,\n            safeGasStipend: safeGasStipend\n        });\n    }\n\n    /**\n     * @notice Main logic function to challenge standard exit\n     * @dev emits ExitChallenged event on success\n     * @param self The controller struct\n     * @param exitMap The storage of all standard exit data\n     * @param args Arguments of challenge standard exit function from client\n     */\n    function run(\n        Controller memory self,\n        PaymentExitDataModel.StandardExitMap storage exitMap,\n        PaymentStandardExitRouterArgs.ChallengeStandardExitArgs memory args\n    )\n        public\n    {\n        require(args.senderData == keccak256(abi.encodePacked(msg.sender)), \"Incorrect senderData\");\n\n        GenericTransaction.Transaction memory challengeTx = GenericTransaction.decode(args.challengeTx);\n\n        ChallengeStandardExitData memory data = ChallengeStandardExitData({\n            controller: self,\n            args: args,\n            exitData: exitMap.exits[args.exitId],\n            challengeTxType: challengeTx.txType\n        });\n        verifyChallengeExitExists(data);\n        verifyChallengeTxProtocolFinalized(data);\n        verifySpendingCondition(data);\n\n        exitMap.exits[args.exitId].exitable = false;\n\n        SafeEthTransfer.transferRevertOnError(msg.sender, data.exitData.bondSize, self.safeGasStipend);\n\n        emit ExitChallenged(data.exitData.utxoPos);\n    }\n\n    function verifyChallengeExitExists(ChallengeStandardExitData memory data) private pure {\n        require(data.exitData.exitable == true, \"The exit does not exist\");\n    }\n\n    function verifyChallengeTxProtocolFinalized(ChallengeStandardExitData memory data) private view {\n        bool isProtocolFinalized = MoreVpFinalization.isProtocolFinalized(data.controller.framework, data.args.challengeTx);\n        // MoreVP protocol finalization would only return false only when tx does not exists.\n        // Should fail already in early stages (eg. decode)\n        assert(isProtocolFinalized);\n    }\n\n    function verifySpendingCondition(ChallengeStandardExitData memory data) private view {\n        PaymentStandardExitRouterArgs.ChallengeStandardExitArgs memory args = data.args;\n\n        PosLib.Position memory utxoPos = PosLib.decode(data.exitData.utxoPos);\n        FungibleTokenOutputModel.Output memory output = PaymentTransactionModel\n            .decode(args.exitingTx)\n            .getOutput(utxoPos.outputIndex);\n\n        ISpendingCondition condition = data.controller.spendingConditionRegistry.spendingConditions(\n            output.outputType, data.challengeTxType\n        );\n        require(address(condition) != address(0), \"Spending condition contract not found\");\n\n        bytes32 outputId = data.controller.framework.isDeposit(utxoPos.blockNum)\n                ? OutputId.computeDepositOutputId(args.exitingTx, utxoPos.outputIndex, utxoPos.encode())\n                : OutputId.computeNormalOutputId(args.exitingTx, utxoPos.outputIndex);\n        require(outputId == data.exitData.outputId, \"Invalid exiting tx causing outputId mismatch\");\n\n        bool isSpentByChallengeTx = condition.verify(\n            args.exitingTx,\n            utxoPos.encode(),\n            args.challengeTx,\n            args.inputIndex,\n            args.witness\n        );\n        require(isSpentByChallengeTx, \"Spending condition failed\");\n    }\n}\n",
  "sourcePath": "/home/node/plasma-contracts/plasma_framework/contracts/src/exits/payment/controllers/PaymentChallengeStandardExit.sol",
  "compiler": {
    "name": "solc",
    "version": "0.5.11+commit.c082d0b4.Emscripten.clang"
  },
  "schemaVersion": "3.0.16",
  "updatedAt": "2020-04-07T14:09:04.038Z",
  "devdoc": {
    "methods": {
      "buildController(PlasmaFramework,SpendingConditionRegistry,uint256)": {
        "return": "Controller struct of PaymentChallengeStandardExit"
      },
      "run(PaymentChallengeStandardExit.Controller,PaymentExitDataModel.StandardExitMap storage,PaymentStandardExitRouterArgs.ChallengeStandardExitArgs)": {
        "details": "emits ExitChallenged event on success",
        "params": {
          "args": "Arguments of challenge standard exit function from client",
          "exitMap": "The storage of all standard exit data",
          "self": "The controller struct"
        }
      }
    }
  },
  "userdoc": {
    "methods": {
      "buildController(PlasmaFramework,SpendingConditionRegistry,uint256)": {
        "notice": "Function that builds the controller struct"
      },
      "run(PaymentChallengeStandardExit.Controller,PaymentExitDataModel.StandardExitMap storage,PaymentStandardExitRouterArgs.ChallengeStandardExitArgs)": {
        "notice": "Main logic function to challenge standard exit"
      }
    }
  }
}