{
  "contractName": "PaymentTransactionStateTransitionVerifier",
  "abi": [
    {
      "constant": true,
      "inputs": [
        {
          "internalType": "bytes",
          "name": "txBytes",
          "type": "bytes"
        },
        {
          "internalType": "bytes[]",
          "name": "inputTxs",
          "type": "bytes[]"
        },
        {
          "internalType": "uint16[]",
          "name": "outputIndexOfInputTxs",
          "type": "uint16[]"
        }
      ],
      "name": "isCorrectStateTransition",
      "outputs": [
        {
          "internalType": "bool",
          "name": "",
          "type": "bool"
        }
      ],
      "payable": false,
      "stateMutability": "pure",
      "type": "function"
    }
  ],
  "bytecode": "0x608060405234801561001057600080fd5b50611d15806100206000396000f3fe608060405234801561001057600080fd5b506004361061002b5760003560e01c806354233e4814610030575b600080fd5b61004361003e36600461121d565b610059565b6040516100509190611aa8565b60405180910390f35b600083821461006a57506000610315565b6040805185815260208087028201019091526060908580156100a657816020015b6100936110c0565b81526020019060019003908161008b5790505b50905060005b858110156101a25760008585838181106100c257fe5b90506020020160206100d791908101906112be565b90506100e16110c0565b61017e6101788a8a868181106100f357fe5b602002820190508035601e193684900301811261010f57600080fd5b9091016020810191503567ffffffffffffffff81111561012e57600080fd5b3681900382131561013e57600080fd5b8080601f01602080910402602001604051908101604052809392919081815260200183838082843760009201919091525061031f92505050565b836104c9565b90508084848151811061018d57fe5b602090810291909101015250506001016100ac565b506101ab6110e7565b6101ea89898080601f01602080910402602001604051908101604052809392919081815260200183838082843760009201919091525061052692505050565b9050606081604001515160405190808252806020026020018201604052801561022d57816020015b61021a6110c0565b8152602001906001900390816102125790505b50905060005b8260400151518110156103045760405180608001604052808460400151838151811061025b57fe5b60200260200101516000015181526020018460400151838151811061027c57fe5b6020026020010151602001516bffffffffffffffffffffffff19168152602001846040015183815181106102ac57fe5b6020026020010151604001516001600160a01b03168152602001846040015183815181106102d657fe5b6020026020010151606001518152508282815181106102f157fe5b6020908102919091010152600101610233565b5061030f838261053f565b93505050505b9695505050505050565b610327611119565b606061033a610335846105b1565b6105d6565b80519091506005146103675760405162461bcd60e51b815260040161035e90611b86565b60405180910390fd5b60006103868260008151811061037957fe5b60200260200101516106e5565b9050600081116103a85760405162461bcd60e51b815260040161035e90611ab6565b60606103c7836002815181106103ba57fe5b60200260200101516105d6565b90506060815160405190808252806020026020018201604052801561040657816020015b6103f361114e565b8152602001906001900390816103eb5790505b50905060005b82518110156104505761043183828151811061042457fe5b60200260200101516107fb565b82828151811061043d57fe5b602090810291909101015260010161040c565b5060006104708560048151811061046357fe5b602002602001015161089f565b90506040518060a00160405280858152602001610493876001815181106103ba57fe5b8152602001838152602001866003815181106104ab57fe5b6020026020010151815260200182815250955050505050505b919050565b6104d16110c0565b8260400151518261ffff16106104f95760405162461bcd60e51b815260040161035e90611af6565b61051d83604001518361ffff168151811061051057fe5b602002602001015161092c565b90505b92915050565b61052e6110e7565b61052061053a8361031f565b610a3b565b60006001815b8180156105525750835181105b156105a957600084828151811061056557fe5b6020026020010151604001519050606061057f8783610c2d565b9050606061058d8784610c2d565b90506105998282610d3f565b9450600184019350505050610545565b509392505050565b6105b961116d565b506040805180820190915281518152602082810190820152919050565b60606105e182610d64565b6105fd5760405162461bcd60e51b815260040161035e90611c06565b60008061060d8460200151610d9e565b8551919350915082146106325760405162461bcd60e51b815260040161035e90611b16565b600061063d85610f47565b905060608160405190808252806020026020018201604052801561067b57816020015b61066861116d565b8152602001906001900390816106605790505b50602087015190915083016000805b848110156106d85761069b83610d9e565b50809250506040518060400160405280838152602001848152508482815181106106c157fe5b60209081029190910101529181019160010161068a565b5091979650505050505050565b8051600090158015906106fa57508151602110155b6107165760405162461bcd60e51b815260040161035e90611c96565b61071f82610d64565b1561073c5760405162461bcd60e51b815260040161035e90611c16565b60008061074c8460200151610d9e565b8551919350915082146107715760405162461bcd60e51b815260040161035e90611ae6565b60208085015182018051838503929091600083901a9184101561079b57836020036101000a830492505b811580156107a7575084155b156107c45760405162461bcd60e51b815260040161035e90611ba6565b811580156107d25750600184115b156107ef5760405162461bcd60e51b815260040161035e90611ac6565b50909695505050505050565b61080361114e565b606061080e836105d6565b905080516002146108315760405162461bcd60e51b815260040161035e90611be6565b61083961114e565b60405180604001604052806108548460008151811061037957fe5b81526020018360018151811061086657fe5b602002602001015181525090508060000151600014156108985760405162461bcd60e51b815260040161035e90611c36565b9392505050565b80516000906021146108c35760405162461bcd60e51b815260040161035e90611c86565b6108cc82610d64565b156108e95760405162461bcd60e51b815260040161035e90611c16565b6000806108f98460200151610d9e565b915091508160211461091d5760405162461bcd60e51b815260040161035e90611c56565b60208401510151915050919050565b6109346110c0565b606061094383602001516105d6565b905080516003146109665760405162461bcd60e51b815260040161035e90611b66565b61096e6110c0565b6040518060800160405280856000015181526020016109a08460008151811061099357fe5b6020026020010151610fbe565b60601b6bffffffffffffffffffffffff191681526020016109c78460018151811061099357fe5b6001600160a01b031681526020016109e58460028151811061037957fe5b90526060810151909150610a0b5760405162461bcd60e51b815260040161035e90611b96565b60208101516bffffffffffffffffffffffff19166108985760405162461bcd60e51b815260040161035e90611bc6565b610a436110e7565b60208201515160041015610a695760405162461bcd60e51b815260040161035e90611b36565b604082015151610a8b5760405162461bcd60e51b815260040161035e90611ad6565b60408201515160041015610ab15760405162461bcd60e51b815260040161035e90611b26565b6060826020015151604051908082528060200260200182016040528015610ae2578160200160208202803883390190505b50905060005b836020015151811015610b4a576000610b0a8560200151838151811061046357fe5b905080610b295760405162461bcd60e51b815260040161035e90611c26565b80838381518110610b3657fe5b602090810291909101015250600101610ae8565b506060836040015151604051908082528060200260200182016040528015610b8c57816020015b610b796110c0565b815260200190600190039081610b715790505b50905060005b846040015151811015610bd157610bb28560400151828151811061051057fe5b828281518110610bbe57fe5b6020908102919091010152600101610b92565b50610bdf84606001516106e5565b15610bfc5760405162461bcd60e51b815260040161035e90611b46565b6040805160a08101825285518152602081019390935282015260006060820152608080840151908201529050919050565b60606000805b8451811015610c7c57836001600160a01b0316858281518110610c5257fe5b6020026020010151604001516001600160a01b03161415610c74576001820191505b600101610c33565b50606081604051908082528060200260200182016040528015610cb957816020015b610ca66110c0565b815260200190600190039081610c9e5790505b5090506000805b8651811015610d3457856001600160a01b0316878281518110610cdf57fe5b6020026020010151604001516001600160a01b03161415610d2c57868181518110610d0657fe5b6020026020010151838381518110610d1a57fe5b60200260200101819052506001820191505b600101610cc0565b509095945050505050565b600080610d4b84611052565b90506000610d5884611052565b90911015949350505050565b8051600090610d75575060006104c4565b6020820151805160001a9060c0821015610d94576000925050506104c4565b5060019392505050565b8051600090819081908190811a6080811015610dc1576001925060009150610f3c565b60808110801590610dd2575060b881105b15610e1b57607e19810192506002831415610e1257600186015160001a6080811015610e105760405162461bcd60e51b815260040161035e90611c66565b505b60019150610f3c565b60b88110801590610e2c575060c081105b15610ea65760019590950180519095602081900360b7016101000a820480820160b519019450909160001a60b619830181610e795760405162461bcd60e51b815260040161035e90611b76565b60378311610e995760405162461bcd60e51b815260040161035e90611b06565b6001019350610f3c915050565b60c08110801590610eb7575060f881105b15610ecc5760be198101925060019150610f3c565b60019590950180519095602081900360f7016101000a820480820160f519019450909160001a60f619830181610f145760405162461bcd60e51b815260040161035e90611bf6565b60378311610f345760405162461bcd60e51b815260040161035e90611bd6565b600101935050505b509092509050915091565b600080600090506000610f5d8460200151610d9e565b602086015186519193508084019250015b80821015610fb4576000610f8183610d9e565b5092830192905081831115610fa85760405162461bcd60e51b815260040161035e90611bb6565b50600190930192610f6e565b5091949350505050565b8051600090601514610fe25760405162461bcd60e51b815260040161035e90611c46565b610feb82610d64565b156110085760405162461bcd60e51b815260040161035e90611c16565b6000806110188460200151610d9e565b915091508160151461103c5760405162461bcd60e51b815260040161035e90611c76565b60208401510151600160601b9004915050919050565b600080805b83518110156110945761108a84828151811061106f57fe5b6020026020010151606001518361109b90919063ffffffff16565b9150600101611057565b5092915050565b60008282018381101561051d5760405162461bcd60e51b815260040161035e90611b56565b60408051608081018252600080825260208201819052918101829052606081019190915290565b6040518060a0016040528060008152602001606081526020016060815260200160008152602001600080191681525090565b6040518060a0016040528060008152602001606081526020016060815260200161114161116d565b8152600060209091015290565b60405180604001604052806000815260200161116861116d565b905290565b604051806040016040528060008152602001600081525090565b60008083601f84011261119957600080fd5b50813567ffffffffffffffff8111156111b157600080fd5b6020830191508360208202830111156111c957600080fd5b9250929050565b60008083601f8401126111e257600080fd5b50813567ffffffffffffffff8111156111fa57600080fd5b6020830191508360018202830111156111c957600080fd5b803561052081611cbb565b6000806000806000806060878903121561123657600080fd5b863567ffffffffffffffff81111561124d57600080fd5b61125989828a016111d0565b9650965050602087013567ffffffffffffffff81111561127857600080fd5b61128489828a01611187565b9450945050604087013567ffffffffffffffff8111156112a357600080fd5b6112af89828a01611187565b92509250509295509295509295565b6000602082840312156112d057600080fd5b60006112dc8484611212565b949350505050565b6112ed81611caf565b82525050565b6000611300601e83611ca6565b7f5472616e73616374696f6e2074797065206d757374206e6f7420626520300000815260200192915050565b6000611339601983611ca6565b7f4c656164696e67207a65726f732061726520696e76616c696400000000000000815260200192915050565b6000611372602183611ca6565b7f5472616e73616374696f6e2063616e6e6f7420686176652030206f75747075748152607360f81b602082015260400192915050565b60006113b5603a83611ca6565b7f4465636f646564206974656d206c656e677468206d757374206265206571756181527f6c20746f2074686520696e7075742064617461206c656e677468000000000000602082015260400192915050565b6000611414601a83611ca6565b7f4f757470757420696e646578206f7574206f6620626f756e6473000000000000815260200192915050565b600061144d602083611ca6565b7f496e76616c6964206c656e67746820666f722061206c6f6e6720737472696e67815260200192915050565b6000611486602683611ca6565b7f4465636f64656420524c50206c656e67746820666f72206c69737420697320698152651b9d985b1a5960d21b602082015260400192915050565b60006114ce602583611ca6565b7f5472616e73616374696f6e206f757470757473206e756d2065786365656473208152641b1a5b5a5d60da1b602082015260400192915050565b6000611515602483611ca6565b7f5472616e73616374696f6e20696e70757473206e756d2065786365656473206c8152631a5b5a5d60e21b602082015260400192915050565b600061155b601083611ca6565b6f0747844617461206d75737420626520360841b815260200192915050565b6000611587601b83611ca6565b7f536166654d6174683a206164646974696f6e206f766572666c6f770000000000815260200192915050565b60006115c0601d83611ca6565b7f4f75747075742064617461206d75737420686176652033206974656d73000000815260200192915050565b60006115f9603f83611ca6565b7f496e76616c6964206c656164696e67207a65726f7320696e206c656e6774682081527f6f6620746865206c656e67746820666f722061206c6f6e6720737472696e6700602082015260400192915050565b6000611658601f83611ca6565b7f496e76616c696420656e636f64696e67206f66207472616e73616374696f6e00815260200192915050565b6000611691601b83611ca6565b7f4f757470757420616d6f756e74206d757374206e6f7420626520300000000000815260200192915050565b60006116ca602283611ca6565b7f5363616c617220302073686f756c6420626520656e636f646564206173203078815261038360f41b602082015260400192915050565b600061170e604883611ca6565b7f496e76616c6964206465636f646564206c656e677468206f6620524c5020697481527f656d20666f756e6420647572696e6720636f756e74696e67206974656d7320696020820152671b8818481b1a5cdd60c21b604082015260600192915050565b600061177e602083611ca6565b7f4f7574707574206f75747075744775617264206d757374206e6f742062652030815260200192915050565b60006117b7601e83611ca6565b7f496e76616c6964206c656e67746820666f722061206c6f6e67206c6973740000815260200192915050565b60006117f0601883611ca6565b7f4f7574707574206d75737420686176652032206974656d730000000000000000815260200192915050565b6000611829603d83611ca6565b7f496e76616c6964206c656164696e67207a65726f7320696e206c656e6774682081527f6f6620746865206c656e67746820666f722061206c6f6e67206c697374000000602082015260400192915050565b6000611888601283611ca6565b71125d195b481a5cc81b9bdd0818481b1a5cdd60721b815260200192915050565b60006118b6601783611ca6565b7f4974656d206d757374206e6f742062652061206c697374000000000000000000815260200192915050565b60006118ef601683611ca6565b75139d5b1b081a5b9c1d5d081b9bdd08185b1b1bddd95960521b815260200192915050565b6000611921601983611ca6565b7f4f75747075742074797065206d757374206e6f74206265203000000000000000815260200192915050565b600061195a601683611ca6565b754974656d206c656e677468206d75737420626520323160501b815260200192915050565b600061198c601e83611ca6565b7f4465636f646564206974656d206c656e677468206d7573742062652033330000815260200192915050565b60006119c5601d83611ca6565b7f496e76616c69642073686f727420737472696e6720656e636f64696e67000000815260200192915050565b60006119fe601e83611ca6565b7f4465636f646564206974656d206c656e677468206d7573742062652032310000815260200192915050565b6000611a37601683611ca6565b754974656d206c656e677468206d75737420626520333360501b815260200192915050565b6000611a69602a83611ca6565b7f4974656d206c656e677468206d757374206265206265747765656e203120616e8152696420333320627974657360b01b602082015260400192915050565b6020810161052082846112e4565b60208082528101610520816112f3565b602080825281016105208161132c565b6020808252810161052081611365565b60208082528101610520816113a8565b6020808252810161052081611407565b6020808252810161052081611440565b6020808252810161052081611479565b60208082528101610520816114c1565b6020808252810161052081611508565b602080825281016105208161154e565b602080825281016105208161157a565b60208082528101610520816115b3565b60208082528101610520816115ec565b602080825281016105208161164b565b6020808252810161052081611684565b60208082528101610520816116bd565b6020808252810161052081611701565b6020808252810161052081611771565b60208082528101610520816117aa565b60208082528101610520816117e3565b602080825281016105208161181c565b602080825281016105208161187b565b60208082528101610520816118a9565b60208082528101610520816118e2565b6020808252810161052081611914565b602080825281016105208161194d565b602080825281016105208161197f565b60208082528101610520816119b8565b60208082528101610520816119f1565b6020808252810161052081611a2a565b6020808252810161052081611a5c565b90815260200190565b151590565b61ffff1690565b611cc481611cb4565b8114611ccf57600080fd5b5056fea365627a7a723158209f8fdaa536e664f1465479f1f98845d2f6f4eee67ce6a345c1d8321090570eb16c6578706572696d656e74616cf564736f6c634300050b0040",
  "source": "pragma solidity 0.5.11;\npragma experimental ABIEncoderV2;\n\nimport \"../interfaces/IStateTransitionVerifier.sol\";\nimport \"../payment/PaymentExitDataModel.sol\";\nimport \"../../transactions/FungibleTokenOutputModel.sol\";\nimport \"../../transactions/PaymentTransactionModel.sol\";\n\nimport \"openzeppelin-solidity/contracts/math/SafeMath.sol\";\n\n/**\n* @notice Verifies state transitions for payment transaction\n* @dev For payment transaction to be valid, the state transition should check that the sum of the inputs is larger than the sum of the outputs\n*/\ncontract PaymentTransactionStateTransitionVerifier {\n    using SafeMath for uint256;\n\n    /**\n     * @dev For payment transaction to be valid, the state transition should check that the sum of the inputs is larger than the sum of the outputs\n     */\n    function isCorrectStateTransition(\n        bytes calldata txBytes,\n        bytes[] calldata inputTxs,\n        uint16[] calldata outputIndexOfInputTxs\n    )\n        external\n        pure\n        returns (bool)\n    {\n        if (inputTxs.length != outputIndexOfInputTxs.length) {\n            return false;\n        }\n\n        FungibleTokenOutputModel.Output[] memory inputs = new FungibleTokenOutputModel.Output[](inputTxs.length);\n        for (uint i = 0; i < inputTxs.length; i++) {\n            uint16 outputIndex = outputIndexOfInputTxs[i];\n            FungibleTokenOutputModel.Output memory output = FungibleTokenOutputModel.getOutput(\n                GenericTransaction.decode(inputTxs[i]),\n                outputIndex\n            );\n            inputs[i] = output;\n        }\n\n        PaymentTransactionModel.Transaction memory transaction = PaymentTransactionModel.decode(txBytes);\n        FungibleTokenOutputModel.Output[] memory outputs = new FungibleTokenOutputModel.Output[](transaction.outputs.length);\n        for (uint i = 0; i < transaction.outputs.length; i++) {\n            outputs[i] = FungibleTokenOutputModel.Output(\n                    transaction.outputs[i].outputType,\n                    transaction.outputs[i].outputGuard,\n                    transaction.outputs[i].token,\n                    transaction.outputs[i].amount\n                );\n        }\n\n        return _isCorrectStateTransition(inputs, outputs);\n    }\n\n    function _isCorrectStateTransition(\n        FungibleTokenOutputModel.Output[] memory inputs,\n        FungibleTokenOutputModel.Output[] memory outputs\n    )\n        private\n        pure\n        returns (bool)\n    {\n        bool correctTransition = true;\n        uint i = 0;\n        while (correctTransition && i < outputs.length) {\n            address token = outputs[i].token;\n            FungibleTokenOutputModel.Output[] memory inputsForToken = filterWithToken(inputs, token);\n            FungibleTokenOutputModel.Output[] memory outputsForToken = filterWithToken(outputs, token);\n\n            correctTransition = isCorrectSpend(inputsForToken, outputsForToken);\n            i += 1;\n        }\n        return correctTransition;\n    }\n\n    function filterWithToken(\n        FungibleTokenOutputModel.Output[] memory outputs,\n        address token\n    )\n        private\n        pure\n        returns (FungibleTokenOutputModel.Output[] memory)\n    {\n        // Required for calculating the size of the filtered array\n        uint256 arraySize = 0;\n        for (uint i = 0; i < outputs.length; ++i) {\n            if (outputs[i].token == token) {\n                arraySize += 1;\n            }\n        }\n\n        FungibleTokenOutputModel.Output[] memory outputsWithToken = new FungibleTokenOutputModel.Output[](arraySize);\n        uint j = 0;\n        for (uint i = 0; i < outputs.length; ++i) {\n            if (outputs[i].token == token) {\n                outputsWithToken[j] = outputs[i];\n                j += 1;\n            }\n        }\n\n        return outputsWithToken;\n    }\n\n    function isCorrectSpend(\n        FungibleTokenOutputModel.Output[] memory inputs,\n        FungibleTokenOutputModel.Output[] memory outputs\n    )\n        internal\n        pure\n        returns (bool)\n    {\n        uint256 amountIn = sumAmounts(inputs);\n        uint256 amountOut = sumAmounts(outputs);\n        return amountIn >= amountOut;\n    }\n\n    function sumAmounts(FungibleTokenOutputModel.Output[] memory outputs) private pure returns (uint256) {\n        uint256 amount = 0;\n        for (uint i = 0; i < outputs.length; i++) {\n            amount = amount.add(outputs[i].amount);\n        }\n        return amount;\n    }\n}\n",
  "sourcePath": "/home/node/plasma-contracts/plasma_framework/contracts/src/exits/payment/PaymentTransactionStateTransitionVerifier.sol",
  "compiler": {
    "name": "solc",
    "version": "0.5.11+commit.c082d0b4.Emscripten.clang"
  },
  "schemaVersion": "3.0.16",
  "updatedAt": "2020-04-07T14:09:34.336Z",
  "devdoc": {
    "details": "For payment transaction to be valid, the state transition should check that the sum of the inputs is larger than the sum of the outputs",
    "methods": {
      "isCorrectStateTransition(bytes,bytes[],uint16[])": {
        "details": "For payment transaction to be valid, the state transition should check that the sum of the inputs is larger than the sum of the outputs"
      }
    }
  },
  "userdoc": {
    "methods": {},
    "notice": "Verifies state transitions for payment transaction"
  }
}