{
  "contractName": "PaymentInFlightExitModelUtilsMock",
  "abi": [
    {
      "constant": true,
      "inputs": [],
      "name": "ife",
      "outputs": [
        {
          "internalType": "bool",
          "name": "isCanonical",
          "type": "bool"
        },
        {
          "internalType": "uint64",
          "name": "exitStartTimestamp",
          "type": "uint64"
        },
        {
          "internalType": "uint256",
          "name": "exitMap",
          "type": "uint256"
        },
        {
          "internalType": "uint256",
          "name": "position",
          "type": "uint256"
        },
        {
          "internalType": "address payable",
          "name": "bondOwner",
          "type": "address"
        },
        {
          "internalType": "uint256",
          "name": "bondSize",
          "type": "uint256"
        },
        {
          "internalType": "uint256",
          "name": "oldestCompetitorPosition",
          "type": "uint256"
        }
      ],
      "payable": false,
      "stateMutability": "view",
      "type": "function"
    },
    {
      "inputs": [
        {
          "internalType": "uint256",
          "name": "exitMap",
          "type": "uint256"
        },
        {
          "internalType": "uint64",
          "name": "exitStartTimestamp",
          "type": "uint64"
        }
      ],
      "payable": false,
      "stateMutability": "nonpayable",
      "type": "constructor"
    },
    {
      "constant": false,
      "inputs": [
        {
          "internalType": "string",
          "name": "target",
          "type": "string"
        },
        {
          "internalType": "uint16",
          "name": "index",
          "type": "uint16"
        },
        {
          "components": [
            {
              "internalType": "bytes32",
              "name": "outputId",
              "type": "bytes32"
            },
            {
              "internalType": "address payable",
              "name": "exitTarget",
              "type": "address"
            },
            {
              "internalType": "address",
              "name": "token",
              "type": "address"
            },
            {
              "internalType": "uint256",
              "name": "amount",
              "type": "uint256"
            },
            {
              "internalType": "uint256",
              "name": "piggybackBondSize",
              "type": "uint256"
            }
          ],
          "internalType": "struct PaymentExitDataModel.WithdrawData",
          "name": "data",
          "type": "tuple"
        }
      ],
      "name": "setWithdrawData",
      "outputs": [],
      "payable": false,
      "stateMutability": "nonpayable",
      "type": "function"
    },
    {
      "constant": true,
      "inputs": [
        {
          "internalType": "uint16",
          "name": "index",
          "type": "uint16"
        }
      ],
      "name": "isInputEmpty",
      "outputs": [
        {
          "internalType": "bool",
          "name": "",
          "type": "bool"
        }
      ],
      "payable": false,
      "stateMutability": "view",
      "type": "function"
    },
    {
      "constant": true,
      "inputs": [
        {
          "internalType": "uint16",
          "name": "index",
          "type": "uint16"
        }
      ],
      "name": "isOutputEmpty",
      "outputs": [
        {
          "internalType": "bool",
          "name": "",
          "type": "bool"
        }
      ],
      "payable": false,
      "stateMutability": "view",
      "type": "function"
    },
    {
      "constant": true,
      "inputs": [
        {
          "internalType": "uint16",
          "name": "index",
          "type": "uint16"
        }
      ],
      "name": "isInputPiggybacked",
      "outputs": [
        {
          "internalType": "bool",
          "name": "",
          "type": "bool"
        }
      ],
      "payable": false,
      "stateMutability": "view",
      "type": "function"
    },
    {
      "constant": true,
      "inputs": [
        {
          "internalType": "uint16",
          "name": "index",
          "type": "uint16"
        }
      ],
      "name": "isOutputPiggybacked",
      "outputs": [
        {
          "internalType": "bool",
          "name": "",
          "type": "bool"
        }
      ],
      "payable": false,
      "stateMutability": "view",
      "type": "function"
    },
    {
      "constant": false,
      "inputs": [
        {
          "internalType": "uint16",
          "name": "index",
          "type": "uint16"
        }
      ],
      "name": "setInputPiggybacked",
      "outputs": [],
      "payable": false,
      "stateMutability": "nonpayable",
      "type": "function"
    },
    {
      "constant": false,
      "inputs": [
        {
          "internalType": "uint16",
          "name": "index",
          "type": "uint16"
        }
      ],
      "name": "clearInputPiggybacked",
      "outputs": [],
      "payable": false,
      "stateMutability": "nonpayable",
      "type": "function"
    },
    {
      "constant": false,
      "inputs": [
        {
          "internalType": "uint16",
          "name": "index",
          "type": "uint16"
        }
      ],
      "name": "setOutputPiggybacked",
      "outputs": [],
      "payable": false,
      "stateMutability": "nonpayable",
      "type": "function"
    },
    {
      "constant": false,
      "inputs": [
        {
          "internalType": "uint16",
          "name": "index",
          "type": "uint16"
        }
      ],
      "name": "clearOutputPiggybacked",
      "outputs": [],
      "payable": false,
      "stateMutability": "nonpayable",
      "type": "function"
    },
    {
      "constant": true,
      "inputs": [
        {
          "internalType": "uint256",
          "name": "minExitPeriod",
          "type": "uint256"
        }
      ],
      "name": "isInFirstPhase",
      "outputs": [
        {
          "internalType": "bool",
          "name": "",
          "type": "bool"
        }
      ],
      "payable": false,
      "stateMutability": "view",
      "type": "function"
    }
  ],
  "bytecode": "0x60806040523480156200001157600080fd5b50604051620013b8380380620013b8833981016040819052620000349162000086565b600191909155600080546001600160401b0390921661010002610100600160481b0319909216919091179055620000f9565b80516200007381620000d4565b92915050565b80516200007381620000ee565b600080604083850312156200009a57600080fd5b6000620000a8858562000066565b9250506020620000bb8582860162000079565b9150509250929050565b90565b6001600160401b031690565b620000df81620000c5565b8114620000eb57600080fd5b50565b620000df81620000c8565b6112af80620001096000396000f3fe608060405234801561001057600080fd5b50600436106100a95760003560e01c8063546a9fb711610071578063546a9fb71461012d5780636049694a146101405780636eda2d3e1461015357806386f3f3b114610166578063e48f009a14610179578063fb8287e51461018c576100a9565b8063047b6fd9146100ae578063173bacfc146100d75780631752d85c146100f25780632a5efc13146101055780632c6e52d11461011a575b600080fd5b6100c16100bc366004610fa3565b61019f565b6040516100ce91906110d0565b60405180910390f35b6100df610322565b6040516100ce97969594939291906110de565b6100c1610100366004610f85565b610359565b610118610113366004610f21565b6104d6565b005b610118610128366004610f85565b6105df565b61011861013b366004610f85565b6105ed565b61011861014e366004610f85565b6105f8565b6100c1610161366004610f85565b610603565b6100c1610174366004610f85565b610780565b610118610187366004610f85565b6108fd565b6100c161019a366004610f85565b610908565b60408051610120810182526000805460ff811615158352610100900467ffffffffffffffff16602083015260015482840152600254606083015282516080808201909452909261031c929184918301906003600484835b8282101561025d576040805160a081018252600584028601805482526001808201546001600160a01b0390811660208086019190915260028401549091169484019490945260038201546060840152600490910154608083015290835290920191016101f6565b5050509082525060408051608081019091526020909101906017830160046000835b828210156102e6576040805160a081018252600584028601805482526001808201546001600160a01b03908116602080860191909152600284015490911694840194909452600382015460608401526004909101546080830152908352909201910161027f565b50505090825250602b8201546001600160a01b03166020820152602c8201546040820152602d9091015460609091015283610a85565b92915050565b600054600154600254602b54602c54602d5460ff861695610100900467ffffffffffffffff169493926001600160a01b0316919087565b60408051610120810182526000805460ff811615158352610100900467ffffffffffffffff16602083015260015482840152600254606083015282516080808201909452909261031c929184918301906003600484835b82821015610417576040805160a081018252600584028601805482526001808201546001600160a01b0390811660208086019190915260028401549091169484019490945260038201546060840152600490910154608083015290835290920191016103b0565b5050509082525060408051608081019091526020909101906017830160046000835b828210156104a0576040805160a081018252600584028601805482526001808201546001600160a01b039081166020808601919091526002840154909116948401949094526003820154606084015260049091015460808301529083529092019101610439565b50505090825250602b8201546001600160a01b03166020820152602c8201546040820152602d9091015460609091015283610ab3565b6104fe8360405180604001604052806006815260200165696e7075747360d01b815250610b12565b156105795780600361ffff84166004811061051557fe5b82516005919091029190910190815560208201516001820180546001600160a01b039283166001600160a01b0319918216179091556040840151600284018054919093169116179055606082015160038201556080909101516004909101556105da565b6105a283604051806040016040528060078152602001666f75747075747360c81b815250610b12565b156105b95780601761ffff84166004811061051557fe5b60405162461bcd60e51b81526004016105d190611166565b60405180910390fd5b505050565b6105ea600082610b6b565b50565b6105ea600082610bcd565b6105ea600082610c1b565b60408051610120810182526000805460ff811615158352610100900467ffffffffffffffff16602083015260015482840152600254606083015282516080808201909452909261031c929184918301906003600484835b828210156106c1576040805160a081018252600584028601805482526001808201546001600160a01b03908116602080860191909152600284015490911694840194909452600382015460608401526004909101546080830152908352909201910161065a565b5050509082525060408051608081019091526020909101906017830160046000835b8282101561074a576040805160a081018252600584028601805482526001808201546001600160a01b0390811660208086019190915260028401549091169484019490945260038201546060840152600490910154608083015290835290920191016106e3565b50505090825250602b8201546001600160a01b03166020820152602c8201546040820152602d9091015460609091015283610c5d565b60408051610120810182526000805460ff811615158352610100900467ffffffffffffffff16602083015260015482840152600254606083015282516080808201909452909261031c929184918301906003600484835b8282101561083e576040805160a081018252600584028601805482526001808201546001600160a01b0390811660208086019190915260028401549091169484019490945260038201546060840152600490910154608083015290835290920191016107d7565b5050509082525060408051608081019091526020909101906017830160046000835b828210156108c7576040805160a081018252600584028601805482526001808201546001600160a01b039081166020808601919091526002840154909116948401949094526003820154606084015260049091015460808301529083529092019101610860565b50505090825250602b8201546001600160a01b03166020820152602c8201546040820152602d9091015460609091015283610ca8565b6105ea600082610cf8565b60408051610120810182526000805460ff811615158352610100900467ffffffffffffffff16602083015260015482840152600254606083015282516080808201909452909261031c929184918301906003600484835b828210156109c6576040805160a081018252600584028601805482526001808201546001600160a01b03908116602080860191909152600284015490911694840194909452600382015460608401526004909101546080830152908352909201910161095f565b5050509082525060408051608081019091526020909101906017830160046000835b82821015610a4f576040805160a081018252600584028601805482526001808201546001600160a01b0390811660208086019190915260028401549091169484019490945260038201546060840152600490910154608083015290835290920191016109e8565b50505090825250602b8201546001600160a01b03166020820152602c8201546040820152602d9091015460609091015283610d4d565b600080600283049050600181856020015167ffffffffffffffff16420381610aa957fe5b0410949350505050565b6000610abd610d93565b60ff168261ffff1610610ae25760405162461bcd60e51b81526004016105d190611146565b6000610aec610d93565b60ff1683019050610b0a818560400151610d9890919063ffffffff16565b949350505050565b600081604051602001610b2591906110c4565b6040516020818303038152906040528051906020012083604051602001610b4c91906110c4565b6040516020818303038152906040528051906020012014905092915050565b610b73610d93565b60ff168161ffff1610610b985760405162461bcd60e51b81526004016105d190611146565b6000610ba2610d93565b60ff1682019050610bc0818460010154610db290919063ffffffff16565b8360010181905550505050565b610bd5610d93565b60ff168161ffff1610610bfa5760405162461bcd60e51b81526004016105d190611156565b6001820154610c0f908263ffffffff610db216565b82600101819055505050565b610c23610d93565b60ff168161ffff1610610c485760405162461bcd60e51b81526004016105d190611156565b6001820154610c0f908263ffffffff610dc016565b6000610c67610d93565b60ff168261ffff1610610c8c5760405162461bcd60e51b81526004016105d190611156565b6040830151610ca1908363ffffffff610d9816565b9392505050565b6000610cb2610d93565b60ff168261ffff1610610cd75760405162461bcd60e51b81526004016105d190611146565b610ca18360a001518361ffff1660048110610cee57fe5b6020020151610dcd565b610d00610d93565b60ff168161ffff1610610d255760405162461bcd60e51b81526004016105d190611146565b6000610d2f610d93565b60ff1682019050610bc0818460010154610dc090919063ffffffff16565b6000610d57610d93565b60ff168261ffff1610610d7c5760405162461bcd60e51b81526004016105d190611156565b610ca183608001518361ffff1660048110610cee57fe5b600490565b6000610da48383610e1f565b60ff16600114905092915050565b600160ff919091161b191690565b600160ff919091161b1790565b8051600090158015610dea575060208201516001600160a01b0316155b8015610e01575060408201516001600160a01b0316155b8015610e0f57506060820151155b801561031c575050608001511590565b60ff161c60011690565b803561031c81611246565b803561031c8161125a565b600082601f830112610e5057600080fd5b8135610e63610e5e8261119d565b611176565b91508082526020830160208301858383011115610e7f57600080fd5b610e8a83828461120a565b50505092915050565b600060a08284031215610ea557600080fd5b610eaf60a0611176565b90506000610ebd8484610e34565b8252506020610ece84848301610e29565b6020830152506040610ee284828501610e29565b6040830152506060610ef684828501610e34565b6060830152506080610f0a84828501610e34565b60808301525092915050565b803561031c81611263565b600080600060e08486031215610f3657600080fd5b833567ffffffffffffffff811115610f4d57600080fd5b610f5986828701610e3f565b9350506020610f6a86828701610f16565b9250506040610f7b86828701610e93565b9150509250925092565b600060208284031215610f9757600080fd5b6000610b0a8484610f16565b600060208284031215610fb557600080fd5b6000610b0a8484610e34565b610fca816111d7565b82525050565b610fca816111e2565b6000610fe4826111c5565b610fee81856111d2565b9350610ffe818560208601611216565b9290920192915050565b60006110156014836111c9565b73092dcecc2d8d2c840deeae8e0eae840d2dcc8caf60631b815260200192915050565b60006110456013836111c9565b72092dcecc2d8d2c840d2dce0eae840d2dcc8caf606b1b815260200192915050565b60006110746029836111c9565b7f7461726765742073686f756c642062652065697468657220696e70757473206f81526872206f75747075747360b81b602082015260400192915050565b610fca816111e7565b610fca816111fd565b6000610ca18284610fd9565b6020810161031c8284610fd0565b60e081016110ec828a610fd0565b6110f960208301896110bb565b61110660408301886110b2565b61111360608301876110b2565b6111206080830186610fc1565b61112d60a08301856110b2565b61113a60c08301846110b2565b98975050505050505050565b6020808252810161031c81611008565b6020808252810161031c81611038565b6020808252810161031c81611067565b60405181810167ffffffffffffffff8111828210171561119557600080fd5b604052919050565b600067ffffffffffffffff8211156111b457600080fd5b506020601f91909101601f19160190565b5190565b90815260200190565b919050565b600061031c826111f1565b151590565b90565b61ffff1690565b6001600160a01b031690565b67ffffffffffffffff1690565b82818337506000910152565b60005b83811015611231578181015183820152602001611219565b83811115611240576000848401525b50505050565b61124f816111d7565b81146105ea57600080fd5b61124f816111e7565b61124f816111ea56fea365627a7a7231582074ef76b98a5fae5760d9bf8afb4891ed218ca1b39f844eac7337aaa0b188b9136c6578706572696d656e74616cf564736f6c634300050b0040",
  "source": "pragma solidity 0.5.11;\npragma experimental ABIEncoderV2;\n\nimport \"../../../src/exits/payment/PaymentInFlightExitModelUtils.sol\";\nimport { PaymentExitDataModel as ExitModel } from \"../../../src/exits/payment/PaymentExitDataModel.sol\";\n\ncontract PaymentInFlightExitModelUtilsMock {\n\n    ExitModel.InFlightExit public ife;\n\n    constructor(uint256 exitMap, uint64 exitStartTimestamp) public {\n        ife.exitMap = exitMap;\n        ife.exitStartTimestamp = exitStartTimestamp;\n    }\n\n    /** Helper functions */\n    function setWithdrawData(\n        string memory target,\n        uint16 index,\n        ExitModel.WithdrawData memory data\n    )\n        public\n    {\n        if (stringEquals(target, \"inputs\")) {\n            ife.inputs[index] = data;\n        } else if (stringEquals(target, \"outputs\")) {\n            ife.outputs[index] = data;\n        } else {\n            revert(\"target should be either inputs or outputs\");\n        }\n    }\n\n    function stringEquals(string memory a, string memory b) private pure returns (bool) {\n        return keccak256(abi.encodePacked(a)) == keccak256(abi.encodePacked(b));\n    }\n\n    /** Wrapper functions */\n    function isInputEmpty(uint16 index)\n        external\n        view\n        returns (bool)\n    {\n        return PaymentInFlightExitModelUtils.isInputEmpty(ife, index);\n    }\n\n    function isOutputEmpty(uint16 index)\n        external\n        view\n        returns (bool)\n    {\n        return PaymentInFlightExitModelUtils.isOutputEmpty(ife, index);\n    }\n\n    function isInputPiggybacked(uint16 index)\n        external\n        view\n        returns (bool)\n    {\n        return PaymentInFlightExitModelUtils.isInputPiggybacked(ife, index);\n    }\n\n    function isOutputPiggybacked(uint16 index)\n        external\n        view\n        returns (bool)\n    {\n        return PaymentInFlightExitModelUtils.isOutputPiggybacked(ife, index);\n    }\n\n    function setInputPiggybacked(uint16 index)\n        external\n    {\n        PaymentInFlightExitModelUtils.setInputPiggybacked(ife, index);\n    }\n\n    function clearInputPiggybacked(uint16 index)\n        external\n    {\n        PaymentInFlightExitModelUtils.clearInputPiggybacked(ife, index);\n    }\n\n    function setOutputPiggybacked(uint16 index)\n        external\n    {\n        PaymentInFlightExitModelUtils.setOutputPiggybacked(ife, index);\n    }\n\n    function clearOutputPiggybacked(uint16 index)\n        external\n    {\n        PaymentInFlightExitModelUtils.clearOutputPiggybacked(ife, index);\n    }\n\n    function isInFirstPhase(uint256 minExitPeriod)\n        external\n        view\n        returns (bool)\n    {\n        return PaymentInFlightExitModelUtils.isInFirstPhase(ife, minExitPeriod);\n    }\n}\n",
  "sourcePath": "/home/node/plasma-contracts/plasma_framework/contracts/mocks/exits/payment/PaymentInFlightExitModelUtilsMock.sol",
  "compiler": {
    "name": "solc",
    "version": "0.5.11+commit.c082d0b4.Emscripten.clang"
  },
  "schemaVersion": "3.0.16",
  "updatedAt": "2020-04-07T14:07:49.485Z",
  "devdoc": {
    "methods": {}
  },
  "userdoc": {
    "methods": {
      "isInputEmpty(uint16)": {
        "notice": "Wrapper functions "
      },
      "setWithdrawData(string,uint16,(bytes32,address,address,uint256,uint256))": {
        "notice": "Helper functions "
      }
    }
  }
}