{
  "contractName": "PaymentOutputToPaymentTxCondition",
  "abi": [
    {
      "inputs": [
        {
          "internalType": "address",
          "name": "framework",
          "type": "address"
        },
        {
          "internalType": "uint256",
          "name": "inputTxType",
          "type": "uint256"
        },
        {
          "internalType": "uint256",
          "name": "spendingTxType",
          "type": "uint256"
        }
      ],
      "payable": false,
      "stateMutability": "nonpayable",
      "type": "constructor"
    },
    {
      "constant": true,
      "inputs": [
        {
          "internalType": "bytes",
          "name": "inputTxBytes",
          "type": "bytes"
        },
        {
          "internalType": "uint256",
          "name": "utxoPos",
          "type": "uint256"
        },
        {
          "internalType": "bytes",
          "name": "spendingTxBytes",
          "type": "bytes"
        },
        {
          "internalType": "uint16",
          "name": "inputIndex",
          "type": "uint16"
        },
        {
          "internalType": "bytes",
          "name": "signature",
          "type": "bytes"
        }
      ],
      "name": "verify",
      "outputs": [
        {
          "internalType": "bool",
          "name": "",
          "type": "bool"
        }
      ],
      "payable": false,
      "stateMutability": "view",
      "type": "function"
    }
  ],
  "bytecode": "0x60806040523480156200001157600080fd5b506040516200247338038062002473833981810160405260608110156200003757600080fd5b508051602080830151604090930151919291906200006090849062001c9062000074821b17901c565b516002556000919091556001555062000182565b6200007e62000170565b6000604051808062002424604f91396040805191829003604f0182207f4f4d47204e6574776f726b0000000000000000000000000000000000000000008352815192839003600b0183207f3100000000000000000000000000000000000000000000000000000000000000845282519384900360010184206020808601939093528484019190915260608401526001600160a01b03871660808401527ffad5c7f626d80f9256ef01929f3beb96e058b8b4b0e3fe52d84f054c0e2a7a8360a0808501919091528251808503909101815260c084018084528151919092012060e090930190915290815292505050919050565b60408051602081019091526000815290565b61229280620001926000396000f3fe608060405234801561001057600080fd5b506004361061002b5760003560e01c8063e618a6f514610030575b600080fd5b610150600480360360a081101561004657600080fd5b81019060208101813564010000000081111561006157600080fd5b82018360208201111561007357600080fd5b8035906020019184600183028401116401000000008311171561009557600080fd5b919390928235926040810190602001356401000000008111156100b757600080fd5b8201836020820111156100c957600080fd5b803590602001918460018302840111640100000000831117156100eb57600080fd5b9193909261ffff8335169260408101906020013564010000000081111561011157600080fd5b82018360208201111561012357600080fd5b8035906020019184600183028401116401000000008311171561014557600080fd5b509092509050610164565b604080519115158252519081900360200190f35b600061016e611ba9565b6101ad8a8a8080601f01602080910402602001604051908101604052809392919081815260200183838082843760009201919091525061043392505050565b6000548151919250146101f15760405162461bcd60e51b815260040180806020018281038252602a8152602001806121db602a913960400191505060405180910390fd5b6101f9611ba9565b61023888888080601f01602080910402602001604051908101604052809392919081815260200183838082843760009201919091525061043392505050565b60015481519192501461027c5760405162461bcd60e51b8152600401808060200182810382526031815260200180611d6e6031913960400191505060405180910390fd5b8860001b81602001518761ffff168151811061029457fe5b6020026020010151146102d85760405162461bcd60e51b8152600401808060200182810382526038815260200180611e766038913960400191505060405180910390fd5b6102e0611bdb565b6102e98a610454565b9050600061030c61030783604001518661052690919063ffffffff16565b6105b0565b6040805160208101909152600254815290915060009061037290610336908663ffffffff6105ba16565b89898080601f01602080910402602001604051908101604052809392919081815260200183838082843760009201919091525061062092505050565b90506001600160a01b0381166103b95760405162461bcd60e51b815260040180806020018281038252602f81526020018061222f602f913960400191505060405180910390fd5b806001600160a01b0316826001600160a01b03161461041f576040805162461bcd60e51b815260206004820152601a60248201527f5478206973206e6f74207369676e656420636f72726563746c79000000000000604482015290519081900360640190fd5b5060019d9c50505050505050505050505050565b61043b611ba9565b61044c6104478361070e565b610918565b90505b919050565b61045c611bdb565b633b9aca00808304906127109084068190049084066429f16b11c68311156104b55760405162461bcd60e51b8152600401808060200182810382526034815260200180611d9f6034913960400191505060405180910390fd5b61ffff8211156104f65760405162461bcd60e51b8152600401808060200182810382526022815260200180611e2e6022913960400191505060405180910390fd5b6040805160608101825267ffffffffffffffff909416845261ffff92831660208501529116908201529050919050565b61052e611bfb565b8260400151518261ffff161061058b576040805162461bcd60e51b815260206004820152601a60248201527f4f757470757420696e646578206f7574206f6620626f756e6473000000000000604482015290519081900360640190fd5b82604001518261ffff168151811061059f57fe5b602002602001015190505b92915050565b6020015160601c90565b600061190160f01b83600001516105d084610bca565b60405160200180846001600160f01b0319166001600160f01b0319168152600201838152602001828152602001935050505060405160208183030381529060405280519060200120905092915050565b60008151604114610633575060006105aa565b60208201516040830151606084015160001a7f7fffffffffffffffffffffffffffffff5d576e7357a4501ddfe92f46681b20a082111561067957600093505050506105aa565b8060ff16601b1415801561069157508060ff16601c14155b156106a257600093505050506105aa565b6040805160008152602080820180845289905260ff8416828401526060820186905260808201859052915160019260a0808401939192601f1981019281900390910190855afa1580156106f9573d6000803e3d6000fd5b5050604051601f190151979650505050505050565b610716611c22565b606061072961072484610e1d565b610e42565b8051909150600514610782576040805162461bcd60e51b815260206004820152601f60248201527f496e76616c696420656e636f64696e67206f66207472616e73616374696f6e00604482015290519081900360640190fd5b60006107a18260008151811061079457fe5b6020026020010151610f9a565b9050600081116107f8576040805162461bcd60e51b815260206004820152601e60248201527f5472616e73616374696f6e2074797065206d757374206e6f7420626520300000604482015290519081900360640190fd5b60606108178360028151811061080a57fe5b6020026020010151610e42565b90506060815160405190808252806020026020018201604052801561085657816020015b610843611c57565b81526020019060019003908161083b5790505b50905060005b82518110156108a05761088183828151811061087457fe5b6020026020010151611171565b82828151811061088d57fe5b602090810291909101015260010161085c565b5060006108c0856004815181106108b357fe5b602002602001015161127f565b90506040518060a001604052808581526020016108e38760018151811061080a57fe5b8152602001838152602001866003815181106108fb57fe5b602002602001015181526020018281525095505050505050919050565b610920611ba9565b602082015151600410156109655760405162461bcd60e51b8152600401808060200182810382526024815260200180611ed36024913960400191505060405180910390fd5b6040820151516109a65760405162461bcd60e51b8152600401808060200182810382526021815260200180611dd36021913960400191505060405180910390fd5b604082015151600410156109eb5760405162461bcd60e51b8152600401808060200182810382526025815260200180611eae6025913960400191505060405180910390fd5b6060826020015151604051908082528060200260200182016040528015610a1c578160200160208202803883390190505b50905060005b836020015151811015610ab2576000610a44856020015183815181106108b357fe5b905080610a91576040805162461bcd60e51b8152602060048201526016602482015275139d5b1b081a5b9c1d5d081b9bdd08185b1b1bddd95960521b604482015290519081900360640190fd5b80838381518110610a9e57fe5b602090810291909101015250600101610a22565b506060836040015151604051908082528060200260200182016040528015610af457816020015b610ae1611bfb565b815260200190600190039081610ad95790505b50905060005b846040015151811015610b4657610b2785604001518281518110610b1a57fe5b602002602001015161139e565b828281518110610b3357fe5b6020908102919091010152600101610afa565b50610b548460600151610f9a565b15610b99576040805162461bcd60e51b815260206004820152601060248201526f0747844617461206d75737420626520360841b604482015290519081900360640190fd5b6040805160a08101825285518152602081019390935282015260006060820152608080840151908201529050919050565b60006060610bd661154c565b60ff16604051908082528060200260200182016040528015610c02578160200160208202803883390190505b50905060005b836020015151811015610c4c5783602001518181518110610c2557fe5b6020026020010151828281518110610c3957fe5b6020908102919091010152600101610c08565b506060610c5761154c565b60ff16604051908082528060200260200182016040528015610c9357816020015b610c80611bfb565b815260200190600190039081610c785790505b50905060005b846040015151811015610cdd5784604001518181518110610cb657fe5b6020026020010151828281518110610cca57fe5b6020908102919091010152600101610c99565b506040518061012d611ef7823961012d01905060405180910390208460000151610d1a84600081518110610d0d57fe5b6020026020010151611551565b610d2a85600181518110610d0d57fe5b610d3a86600281518110610d0d57fe5b610d4a87600381518110610d0d57fe5b610d6787600081518110610d5a57fe5b602002602001015161163a565b610d7788600181518110610d5a57fe5b610d8789600281518110610d5a57fe5b610d978a600381518110610d5a57fe5b8d606001518e60800151604051602001808d81526020018c81526020018b81526020018a81526020018981526020018881526020018781526020018681526020018581526020018481526020018381526020018281526020019c505050505050505050505050506040516020818303038152906040528051906020012092505050919050565b610e25611c76565b506040805180820190915281518152602082810190820152919050565b6060610e4d8261172d565b610e93576040805162461bcd60e51b8152602060048201526012602482015271125d195b481a5cc81b9bdd0818481b1a5cdd60721b604482015290519081900360640190fd5b600080610ea38460200151611767565b855191935091508214610ee75760405162461bcd60e51b8152600401808060200182810382526026815260200180611e506026913960400191505060405180910390fd5b6000610ef2856119ed565b9050606081604051908082528060200260200182016040528015610f3057816020015b610f1d611c76565b815260200190600190039081610f155790505b50602087015190915083016000805b84811015610f8d57610f5083611767565b5080925050604051806040016040528083815260200184815250848281518110610f7657fe5b602090810291909101015291810191600101610f3f565b5091979650505050505050565b805160009015801590610faf57508151602110155b610fea5760405162461bcd60e51b815260040180806020018281038252602a815260200180612205602a913960400191505060405180910390fd5b610ff38261172d565b1561103f576040805162461bcd60e51b8152602060048201526017602482015276125d195b481b5d5cdd081b9bdd0818994818481b1a5cdd604a1b604482015290519081900360640190fd5b60008061104f8460200151611767565b8551919350915082146110935760405162461bcd60e51b815260040180806020018281038252603a815260200180611df4603a913960400191505060405180910390fd5b60208085015182018051838503929091600083901a918410156110bd57836020036101000a830492505b811580156110c9575084155b156111055760405162461bcd60e51b81526004018080602001828103825260228152602001806120e66022913960400191505060405180910390fd5b811580156111135750600184115b15611165576040805162461bcd60e51b815260206004820152601960248201527f4c656164696e67207a65726f732061726520696e76616c696400000000000000604482015290519081900360640190fd5b50909695505050505050565b611179611c57565b606061118483610e42565b905080516002146111dc576040805162461bcd60e51b815260206004820152601860248201527f4f7574707574206d75737420686176652032206974656d730000000000000000604482015290519081900360640190fd5b6111e4611c57565b60405180604001604052806111ff8460008151811061079457fe5b81526020018360018151811061121157fe5b60200260200101518152509050806000015160001415611278576040805162461bcd60e51b815260206004820152601960248201527f4f75747075742074797065206d757374206e6f74206265203000000000000000604482015290519081900360640190fd5b9392505050565b80516000906021146112d1576040805162461bcd60e51b81526020600482015260166024820152754974656d206c656e677468206d75737420626520333360501b604482015290519081900360640190fd5b6112da8261172d565b15611326576040805162461bcd60e51b8152602060048201526017602482015276125d195b481b5d5cdd081b9bdd0818994818481b1a5cdd604a1b604482015290519081900360640190fd5b6000806113368460200151611767565b915091508160211461138f576040805162461bcd60e51b815260206004820152601e60248201527f4465636f646564206974656d206c656e677468206d7573742062652033330000604482015290519081900360640190fd5b60208401510151915050919050565b6113a6611bfb565b60606113b58360200151610e42565b9050805160031461140d576040805162461bcd60e51b815260206004820152601d60248201527f4f75747075742064617461206d75737420686176652033206974656d73000000604482015290519081900360640190fd5b611415611bfb565b6040518060800160405280856000015181526020016114478460008151811061143a57fe5b6020026020010151611a83565b60601b6bffffffffffffffffffffffff1916815260200161146e8460018151811061143a57fe5b6001600160a01b0316815260200161148c8460028151811061079457fe5b905260608101519091506114e7576040805162461bcd60e51b815260206004820152601b60248201527f4f757470757420616d6f756e74206d757374206e6f7420626520300000000000604482015290519081900360640190fd5b60208101516bffffffffffffffffffffffff1916611278576040805162461bcd60e51b815260206004820181905260248201527f4f7574707574206f75747075744775617264206d757374206e6f742062652030604482015290519081900360640190fd5b600490565b600081806115b3576040518060346120b28239604080519182900360340182206020808401919091526000838301819052606084018190526080808501919091528251808503909101815260a09093019091528151910120925061044f915050565b6115bb611bdb565b6115c482610454565b905060405180806120b260349139604080519182900360340182208451602080870151968401518186019390935267ffffffffffffffff9091168484015261ffff958616606085015294166080808401919091528151808403909101815260a09092019052805192019190912092505050919050565b60008160600151600014156116a95760405180604e61218d82396040805191829003604e0182206020808401919091526000838301819052606084018190526080840181905260a0808501919091528251808503909101815260c09093019091528151910120915061044f9050565b60405180604e61218d82396040805191829003604e0182208551602080880151888501516060998a015183880195909552868601939093526bffffffffffffffffffffffff1916978501979097526001600160a01b0316608084015260a0808401919091528151808403909101815260c09092019052805193019290922092915050565b805160009061173e5750600061044f565b6020820151805160001a9060c082101561175d5760009250505061044f565b5060019392505050565b8051600090819081908190811a608081101561178a5760019250600091506119e2565b6080811080159061179b575060b881105b1561181957607e1981019250600283141561181057600186015160001a608081101561180e576040805162461bcd60e51b815260206004820152601d60248201527f496e76616c69642073686f727420737472696e6720656e636f64696e67000000604482015290519081900360640190fd5b505b600191506119e2565b60b8811080159061182a575060c081105b156118f85760019590950180519095602081900360b7016101000a820480820160b519019450909160001a60b6198301816118965760405162461bcd60e51b815260040180806020018281038252603f815260200180612073603f913960400191505060405180910390fd5b603783116118eb576040805162461bcd60e51b815260206004820181905260248201527f496e76616c6964206c656e67746820666f722061206c6f6e6720737472696e67604482015290519081900360640190fd5b60010193506119e2915050565b60c08110801590611909575060f881105b1561191e5760be1981019250600191506119e2565b60019590950180519095602081900360f7016101000a820480820160f519019450909160001a60f6198301816119855760405162461bcd60e51b815260040180806020018281038252603d815260200180612150603d913960400191505060405180910390fd5b603783116119da576040805162461bcd60e51b815260206004820152601e60248201527f496e76616c6964206c656e67746820666f722061206c6f6e67206c6973740000604482015290519081900360640190fd5b600101935050505b509092509050915091565b600080600090506000611a038460200151611767565b602086015186519193508084019250015b80821015611a79576000611a2783611767565b5092830192905081831115611a6d5760405162461bcd60e51b81526004018080602001828103825260488152602001806121086048913960600191505060405180910390fd5b50600190930192611a14565b5091949350505050565b8051600090601514611ad5576040805162461bcd60e51b81526020600482015260166024820152754974656d206c656e677468206d75737420626520323160501b604482015290519081900360640190fd5b611ade8261172d565b15611b2a576040805162461bcd60e51b8152602060048201526017602482015276125d195b481b5d5cdd081b9bdd0818994818481b1a5cdd604a1b604482015290519081900360640190fd5b600080611b3a8460200151611767565b9150915081601514611b93576040805162461bcd60e51b815260206004820152601e60248201527f4465636f646564206974656d206c656e677468206d7573742062652032310000604482015290519081900360640190fd5b60208401510151600160601b9004915050919050565b6040518060a0016040528060008152602001606081526020016060815260200160008152602001600080191681525090565b604080516060810182526000808252602082018190529181019190915290565b60408051608081018252600080825260208201819052918101829052606081019190915290565b6040518060a00160405280600081526020016060815260200160608152602001611c4a611c76565b8152600060209091015290565b604051806040016040528060008152602001611c71611c76565b905290565b604051806040016040528060008152602001600081525090565b611c98611d5b565b60006040518080612024604f91396040805191829003604f0182206a4f4d47204e6574776f726b60a81b8352815192839003600b018320603160f81b845282519384900360010184206020808601939093528484019190915260608401526001600160a01b03871660808401527ffad5c7f626d80f9256ef01929f3beb96e058b8b4b0e3fe52d84f054c0e2a7a8360a0808501919091528251808503909101815260c084018084528151919092012060e090930190915290815292505050919050565b6040805160208101909152600081529056fe546865207370656e64696e6720747820697320616e20756e737570706f72746564207061796d656e742074782074797065626c6f636b4e756d2065786365656473206d61782073697a6520616c6c6f77656420696e20506c61736d614672616d65776f726b5472616e73616374696f6e2063616e6e6f7420686176652030206f7574707574734465636f646564206974656d206c656e677468206d75737420626520657175616c20746f2074686520696e7075742064617461206c656e6774687478496e6465782065786365656473207468652073697a65206f662075696e7431364465636f64656420524c50206c656e67746820666f72206c69737420697320696e76616c69645370656e64696e6720747820706f696e747320746f2074686520696e636f7272656374206f7574707574205554584f20706f736974696f6e5472616e73616374696f6e206f757470757473206e756d2065786365656473206c696d69745472616e73616374696f6e20696e70757473206e756d2065786365656473206c696d69745472616e73616374696f6e2875696e74323536207478547970652c496e70757420696e707574302c496e70757420696e707574312c496e70757420696e707574322c496e70757420696e707574332c4f7574707574206f7574707574302c4f7574707574206f7574707574312c4f7574707574206f7574707574322c4f7574707574206f7574707574332c75696e74323536207478446174612c62797465733332206d6574616461746129496e7075742875696e7432353620626c6b6e756d2c75696e74323536207478696e6465782c75696e74323536206f696e646578294f75747075742875696e74323536206f7574707574547970652c62797465733230206f757470757447756172642c616464726573732063757272656e63792c75696e7432353620616d6f756e7429454950373132446f6d61696e28737472696e67206e616d652c737472696e672076657273696f6e2c6164647265737320766572696679696e67436f6e74726163742c627974657333322073616c7429496e76616c6964206c656164696e67207a65726f7320696e206c656e677468206f6620746865206c656e67746820666f722061206c6f6e6720737472696e67496e7075742875696e7432353620626c6b6e756d2c75696e74323536207478696e6465782c75696e74323536206f696e646578295363616c617220302073686f756c6420626520656e636f6465642061732030783830496e76616c6964206465636f646564206c656e677468206f6620524c50206974656d20666f756e6420647572696e6720636f756e74696e67206974656d7320696e2061206c697374496e76616c6964206c656164696e67207a65726f7320696e206c656e677468206f6620746865206c656e67746820666f722061206c6f6e67206c6973744f75747075742875696e74323536206f7574707574547970652c62797465733230206f757470757447756172642c616464726573732063757272656e63792c75696e7432353620616d6f756e7429496e70757420747820697320616e20756e737570706f72746564207061796d656e7420747820747970654974656d206c656e677468206d757374206265206265747765656e203120616e642033332062797465734661696c656420746f207265636f76657220746865207369676e65722066726f6d20746865207369676e6174757265a265627a7a723158201ece50c5e79f05957faebd4e34f449b5861fb373bf0c7f1222e757c5a8ec5ca164736f6c634300050b0032454950373132446f6d61696e28737472696e67206e616d652c737472696e672076657273696f6e2c6164647265737320766572696679696e67436f6e74726163742c627974657333322073616c7429",
  "source": "pragma solidity 0.5.11;\n\nimport \"openzeppelin-solidity/contracts/cryptography/ECDSA.sol\";\n\nimport \"../../interfaces/ISpendingCondition.sol\";\nimport \"../../../utils/PosLib.sol\";\nimport \"../../../transactions/PaymentTransactionModel.sol\";\nimport \"../../../transactions/eip712Libs/PaymentEip712Lib.sol\";\n\ncontract PaymentOutputToPaymentTxCondition is ISpendingCondition {\n    using PaymentEip712Lib for PaymentEip712Lib.Constants;\n    using PosLib for PosLib.Position;\n    using PaymentTransactionModel for PaymentTransactionModel.Transaction;\n\n    uint256 internal supportInputTxType;\n    uint256 internal supportSpendingTxType;\n    PaymentEip712Lib.Constants internal eip712;\n\n    /**\n     * @dev This is designed to be re-useable for all versions of payment transaction, so that\n     *      inputTxType and spendingTxType of the payment output is injected instead\n     */\n    constructor(address framework, uint256 inputTxType, uint256 spendingTxType) public {\n        eip712 = PaymentEip712Lib.initConstants(framework);\n        supportInputTxType = inputTxType;\n        supportSpendingTxType = spendingTxType;\n    }\n\n    /**\n     * @notice Verifies the spending condition\n     * @param inputTxBytes Encoded input transaction, in bytes\n     * @param utxoPos Position of the utxo\n     * @param spendingTxBytes Spending transaction, in bytes\n     * @param inputIndex Input index of the spending tx that points to the output\n     * @param signature Signature of the output owner\n     */\n    function verify(\n        bytes calldata inputTxBytes,\n        uint256 utxoPos,\n        bytes calldata spendingTxBytes,\n        uint16 inputIndex,\n        bytes calldata signature\n    )\n        external\n        view\n        returns (bool)\n    {\n        PaymentTransactionModel.Transaction memory inputTx = PaymentTransactionModel.decode(inputTxBytes);\n        require(inputTx.txType == supportInputTxType, \"Input tx is an unsupported payment tx type\");\n\n        PaymentTransactionModel.Transaction memory spendingTx = PaymentTransactionModel.decode(spendingTxBytes);\n        require(spendingTx.txType == supportSpendingTxType, \"The spending tx is an unsupported payment tx type\");\n\n        require(\n            spendingTx.inputs[inputIndex] == bytes32(utxoPos),\n            \"Spending tx points to the incorrect output UTXO position\"\n        );\n\n        PosLib.Position memory decodedUtxoPos = PosLib.decode(utxoPos);\n        address owner = PaymentTransactionModel.getOutputOwner(inputTx.getOutput(decodedUtxoPos.outputIndex));\n        address signer = ECDSA.recover(eip712.hashTx(spendingTx), signature);\n        require(signer != address(0), \"Failed to recover the signer from the signature\");\n        require(owner == signer, \"Tx is not signed correctly\");\n\n        return true;\n    }\n}\n",
  "sourcePath": "/home/node/plasma-contracts/plasma_framework/contracts/src/exits/payment/spendingConditions/PaymentOutputToPaymentTxCondition.sol",
  "compiler": {
    "name": "solc",
    "version": "0.5.11+commit.c082d0b4.Emscripten.clang"
  },
  "schemaVersion": "3.0.16",
  "updatedAt": "2020-04-07T14:08:43.235Z",
  "devdoc": {
    "methods": {
      "constructor": {
        "details": "This is designed to be re-useable for all versions of payment transaction, so that     inputTxType and spendingTxType of the payment output is injected instead"
      },
      "verify(bytes,uint256,bytes,uint16,bytes)": {
        "params": {
          "inputIndex": "Input index of the spending tx that points to the output",
          "inputTxBytes": "Encoded input transaction, in bytes",
          "signature": "Signature of the output owner",
          "spendingTxBytes": "Spending transaction, in bytes",
          "utxoPos": "Position of the utxo"
        }
      }
    }
  },
  "userdoc": {
    "methods": {
      "verify(bytes,uint256,bytes,uint16,bytes)": {
        "notice": "Verifies the spending condition"
      }
    }
  }
}