{
  "contractName": "PaymentStandardExitRouterMock",
  "abi": [
    {
      "constant": true,
      "inputs": [
        {
          "internalType": "uint160[]",
          "name": "exitIds",
          "type": "uint160[]"
        }
      ],
      "name": "standardExits",
      "outputs": [
        {
          "components": [
            {
              "internalType": "bool",
              "name": "exitable",
              "type": "bool"
            },
            {
              "internalType": "uint256",
              "name": "utxoPos",
              "type": "uint256"
            },
            {
              "internalType": "bytes32",
              "name": "outputId",
              "type": "bytes32"
            },
            {
              "internalType": "address payable",
              "name": "exitTarget",
              "type": "address"
            },
            {
              "internalType": "uint256",
              "name": "amount",
              "type": "uint256"
            },
            {
              "internalType": "uint256",
              "name": "bondSize",
              "type": "uint256"
            }
          ],
          "internalType": "struct PaymentExitDataModel.StandardExit[]",
          "name": "",
          "type": "tuple[]"
        }
      ],
      "payable": false,
      "stateMutability": "view",
      "type": "function"
    },
    {
      "constant": false,
      "inputs": [
        {
          "internalType": "uint128",
          "name": "newBondSize",
          "type": "uint128"
        }
      ],
      "name": "updateStartStandardExitBondSize",
      "outputs": [],
      "payable": false,
      "stateMutability": "nonpayable",
      "type": "function"
    },
    {
      "constant": false,
      "inputs": [
        {
          "components": [
            {
              "internalType": "uint256",
              "name": "utxoPos",
              "type": "uint256"
            },
            {
              "internalType": "bytes",
              "name": "rlpOutputTx",
              "type": "bytes"
            },
            {
              "internalType": "bytes",
              "name": "outputTxInclusionProof",
              "type": "bytes"
            }
          ],
          "internalType": "struct PaymentStandardExitRouterArgs.StartStandardExitArgs",
          "name": "args",
          "type": "tuple"
        }
      ],
      "name": "startStandardExit",
      "outputs": [],
      "payable": true,
      "stateMutability": "payable",
      "type": "function"
    },
    {
      "constant": true,
      "inputs": [],
      "name": "BOND_LOWER_BOUND_DIVISOR",
      "outputs": [
        {
          "internalType": "uint16",
          "name": "",
          "type": "uint16"
        }
      ],
      "payable": false,
      "stateMutability": "view",
      "type": "function"
    },
    {
      "constant": true,
      "inputs": [],
      "name": "BOND_UPPER_BOUND_MULTIPLIER",
      "outputs": [
        {
          "internalType": "uint16",
          "name": "",
          "type": "uint16"
        }
      ],
      "payable": false,
      "stateMutability": "view",
      "type": "function"
    },
    {
      "constant": true,
      "inputs": [],
      "name": "INITIAL_BOND_SIZE",
      "outputs": [
        {
          "internalType": "uint128",
          "name": "",
          "type": "uint128"
        }
      ],
      "payable": false,
      "stateMutability": "view",
      "type": "function"
    },
    {
      "constant": false,
      "inputs": [
        {
          "components": [
            {
              "internalType": "uint160",
              "name": "exitId",
              "type": "uint160"
            },
            {
              "internalType": "bytes",
              "name": "exitingTx",
              "type": "bytes"
            },
            {
              "internalType": "bytes",
              "name": "challengeTx",
              "type": "bytes"
            },
            {
              "internalType": "uint16",
              "name": "inputIndex",
              "type": "uint16"
            },
            {
              "internalType": "bytes",
              "name": "witness",
              "type": "bytes"
            },
            {
              "internalType": "bytes32",
              "name": "senderData",
              "type": "bytes32"
            }
          ],
          "internalType": "struct PaymentStandardExitRouterArgs.ChallengeStandardExitArgs",
          "name": "args",
          "type": "tuple"
        }
      ],
      "name": "challengeStandardExit",
      "outputs": [],
      "payable": false,
      "stateMutability": "nonpayable",
      "type": "function"
    },
    {
      "constant": true,
      "inputs": [],
      "name": "startStandardExitBondSize",
      "outputs": [
        {
          "internalType": "uint128",
          "name": "",
          "type": "uint128"
        }
      ],
      "payable": false,
      "stateMutability": "view",
      "type": "function"
    },
    {
      "inputs": [
        {
          "components": [
            {
              "internalType": "contract PlasmaFramework",
              "name": "framework",
              "type": "address"
            },
            {
              "internalType": "uint256",
              "name": "ethVaultId",
              "type": "uint256"
            },
            {
              "internalType": "uint256",
              "name": "erc20VaultId",
              "type": "uint256"
            },
            {
              "internalType": "contract SpendingConditionRegistry",
              "name": "spendingConditionRegistry",
              "type": "address"
            },
            {
              "internalType": "contract IStateTransitionVerifier",
              "name": "stateTransitionVerifier",
              "type": "address"
            },
            {
              "internalType": "uint256",
              "name": "supportTxType",
              "type": "uint256"
            },
            {
              "internalType": "uint256",
              "name": "safeGasStipend",
              "type": "uint256"
            }
          ],
          "internalType": "struct PaymentExitGameArgs.Args",
          "name": "args",
          "type": "tuple"
        }
      ],
      "payable": false,
      "stateMutability": "nonpayable",
      "type": "constructor"
    },
    {
      "anonymous": false,
      "inputs": [
        {
          "indexed": false,
          "internalType": "uint128",
          "name": "bondSize",
          "type": "uint128"
        }
      ],
      "name": "StandardExitBondUpdated",
      "type": "event"
    },
    {
      "anonymous": false,
      "inputs": [
        {
          "indexed": true,
          "internalType": "address",
          "name": "owner",
          "type": "address"
        },
        {
          "indexed": false,
          "internalType": "uint160",
          "name": "exitId",
          "type": "uint160"
        }
      ],
      "name": "ExitStarted",
      "type": "event"
    },
    {
      "anonymous": false,
      "inputs": [
        {
          "indexed": true,
          "internalType": "uint256",
          "name": "utxoPos",
          "type": "uint256"
        }
      ],
      "name": "ExitChallenged",
      "type": "event"
    },
    {
      "anonymous": false,
      "inputs": [
        {
          "indexed": true,
          "internalType": "uint160",
          "name": "exitId",
          "type": "uint160"
        }
      ],
      "name": "ExitOmitted",
      "type": "event"
    },
    {
      "anonymous": false,
      "inputs": [
        {
          "indexed": true,
          "internalType": "uint160",
          "name": "exitId",
          "type": "uint160"
        }
      ],
      "name": "ExitFinalized",
      "type": "event"
    },
    {
      "anonymous": false,
      "inputs": [
        {
          "indexed": true,
          "internalType": "address",
          "name": "receiver",
          "type": "address"
        },
        {
          "indexed": false,
          "internalType": "uint256",
          "name": "amount",
          "type": "uint256"
        }
      ],
      "name": "BondReturnFailed",
      "type": "event"
    },
    {
      "constant": false,
      "inputs": [
        {
          "internalType": "uint160",
          "name": "exitId",
          "type": "uint160"
        },
        {
          "internalType": "uint256",
          "name": "",
          "type": "uint256"
        },
        {
          "internalType": "address",
          "name": "ercContract",
          "type": "address"
        }
      ],
      "name": "processExit",
      "outputs": [],
      "payable": false,
      "stateMutability": "nonpayable",
      "type": "function"
    },
    {
      "constant": false,
      "inputs": [
        {
          "internalType": "uint160",
          "name": "exitId",
          "type": "uint160"
        },
        {
          "components": [
            {
              "internalType": "bool",
              "name": "exitable",
              "type": "bool"
            },
            {
              "internalType": "uint256",
              "name": "utxoPos",
              "type": "uint256"
            },
            {
              "internalType": "bytes32",
              "name": "outputId",
              "type": "bytes32"
            },
            {
              "internalType": "address payable",
              "name": "exitTarget",
              "type": "address"
            },
            {
              "internalType": "uint256",
              "name": "amount",
              "type": "uint256"
            },
            {
              "internalType": "uint256",
              "name": "bondSize",
              "type": "uint256"
            }
          ],
          "internalType": "struct PaymentExitDataModel.StandardExit",
          "name": "exitData",
          "type": "tuple"
        }
      ],
      "name": "setExit",
      "outputs": [],
      "payable": false,
      "stateMutability": "nonpayable",
      "type": "function"
    },
    {
      "constant": false,
      "inputs": [
        {
          "internalType": "bytes32",
          "name": "outputId",
          "type": "bytes32"
        },
        {
          "internalType": "uint160",
          "name": "exitId",
          "type": "uint160"
        }
      ],
      "name": "proxyFlagOutputFinalized",
      "outputs": [],
      "payable": false,
      "stateMutability": "nonpayable",
      "type": "function"
    },
    {
      "constant": false,
      "inputs": [],
      "name": "depositFundForTest",
      "outputs": [],
      "payable": true,
      "stateMutability": "payable",
      "type": "function"
    },
    {
      "constant": false,
      "inputs": [
        {
          "internalType": "string",
          "name": "testTarget",
          "type": "string"
        }
      ],
      "name": "testNonReentrant",
      "outputs": [],
      "payable": false,
      "stateMutability": "nonpayable",
      "type": "function"
    }
  ],
  "bytecode": "0x60806040523480156200001157600080fd5b50604051620026423803806200264283398101604081905262000034916200082f565b8051601080546001600160a01b0319166001600160a01b03909216918217905560208201516040517f8c64ea4a00000000000000000000000000000000000000000000000000000000815283926000929091638c64ea4a916200009a91600401620009cc565b60206040518083038186803b158015620000b357600080fd5b505afa158015620000c8573d6000803e3d6000fd5b505050506040513d601f19601f82011682018060405250620000ee919081019062000806565b90506001600160a01b0381166200013c576040517f08c379a00000000000000000000000000000000000000000000000000000000081526004016200013390620009a8565b60405180910390fd5b815160408084015190517f8c64ea4a0000000000000000000000000000000000000000000000000000000081526000926001600160a01b031691638c64ea4a916200018b9190600401620009cc565b60206040518083038186803b158015620001a457600080fd5b505afa158015620001b9573d6000803e3d6000fd5b505050506040513d601f19601f82011682018060405250620001df919081019062000806565b90506001600160a01b03811662000224576040517f08c379a00000000000000000000000000000000000000000000000000000000081526004016200013390620009ba565b8251602084015160408086015160a087015191517f07a97aa900000000000000000000000000000000000000000000000000000000815273__PaymentStartStandardExit______________946307a97aa9946200028c943094929391929160040162000924565b60c06040518083038186803b158015620002a557600080fd5b505af4158015620002ba573d6000803e3d6000fd5b505050506040513d601f19601f82011682018060405250620002e0919081019062000871565b8051600180546001600160a01b039283166001600160a01b031991821617909155602083015160028054919093169116179055604080820151516003556060808301516004908155608084015160055560a09093015160065585519086015160c087015192517f159cde2d00000000000000000000000000000000000000000000000000000000815273__PaymentChallengeStandardExit__________9463159cde2d94620003959493929091016200097a565b60606040518083038186803b158015620003ae57600080fd5b505af4158015620003c3573d6000803e3d6000fd5b505050506040513d601f19601f82011682018060405250620003e9919081019062000850565b8051600b80546001600160a01b03199081166001600160a01b0393841617909155602080840151600c80548416918516919091179055604093840151600d5583516080810185528751841680825287851682840181905294871695820186905260c089015160609092018290526007805485169091179055600880548416909417909355600980549092169093179055600a556200049e906631bced02db000090600290819062000562811b62001b1317901c565b8051600e805460208401516001600160801b03199182166001600160801b039485161784167001000000000000000000000000000000009185168202179092556040840151600f805460608701516080909701519316919094161761ffff60801b191661ffff9485169092029190911761ffff60901b19167201000000000000000000000000000000000000939091169290920291909117905550509051601180546001600160a01b0319166001600160a01b039092169190911790555062000a65565b6200056c620005ad565b506040805160a0810182526001600160801b03949094168452600060208501526780000000000000009084015261ffff918216606084015216608082015290565b6040805160a08101825260008082526020820181905291810182905260608101829052608081019190915290565b8051620005e88162000a35565b92915050565b8051620005e88162000a4f565b600060e082840312156200060e57600080fd5b6200061a60e0620009dc565b905060006200062a8484620005ee565b82525060206200063d84848301620007f9565b60208301525060406200065384828501620007f9565b60408301525060606200066984828501620005ee565b60608301525060806200067f84828501620005ee565b60808301525060a06200069584828501620007f9565b60a08301525060c0620006ab84828501620007f9565b60c08301525092915050565b600060208284031215620006ca57600080fd5b620006d66020620009dc565b90506000620006e68484620007f9565b82525092915050565b6000606082840312156200070257600080fd5b6200070e6060620009dc565b905060006200071e8484620005ee565b82525060206200073184848301620005ee565b60208301525060406200074784828501620007f9565b60408301525092915050565b600060c082840312156200076657600080fd5b6200077260c0620009dc565b90506000620007828484620005ee565b82525060206200079584848301620005ee565b6020830152506040620007ab84828501620006b7565b6040830152506060620007c184828501620007f9565b6060830152506080620007d784828501620007f9565b60808301525060a0620007ed84828501620007f9565b60a08301525092915050565b8051620005e88162000a5a565b6000602082840312156200081957600080fd5b6000620008278484620005db565b949350505050565b600060e082840312156200084257600080fd5b6000620008278484620005fb565b6000606082840312156200086357600080fd5b6000620008278484620006ef565b600060c082840312156200088457600080fd5b600062000827848462000753565b6200089d8162000a19565b82525050565b6000620008b260118362000a03565b7f496e76616c696420455448207661756c74000000000000000000000000000000815260200192915050565b6000620008ed60138362000a03565b7f496e76616c6964204552433230207661756c7400000000000000000000000000815260200192915050565b6200089d8162000a32565b60a0810162000934828862000892565b62000943602083018762000892565b62000952604083018662000919565b62000961606083018562000919565b62000970608083018462000919565b9695505050505050565b606081016200098a828662000892565b62000999602083018562000892565b62000827604083018462000919565b60208082528101620005e881620008a3565b60208082528101620005e881620008de565b60208101620005e8828462000919565b6040518181016001600160401b0381118282101715620009fb57600080fd5b604052919050565b90815260200190565b6000620005e88262000a26565b6000620005e88262000a0c565b6001600160a01b031690565b90565b62000a408162000a0c565b811462000a4c57600080fd5b50565b62000a408162000a19565b62000a408162000a32565b611bcd8062000a756000396000f3fe6080604052600436106100c25760003560e01c8063905d6a991161007f578063d8da49a711610059578063d8da49a7146101be578063df2933e2146101de578063f9fee666146101fe578063fe32a1241461021e576100c2565b8063905d6a991461017a578063a0e403b11461017a578063c170ecf51461019c576100c2565b80630ca5b676146100c7578063163d7bc7146100fd578063211ec5a01461011f5780632b21c20914610127578063684963511461014757806370e0146214610167575b600080fd5b3480156100d357600080fd5b506100e76100e2366004611293565b610233565b6040516100f491906118c8565b60405180910390f35b34801561010957600080fd5b5061011d6101183660046113aa565b610338565b005b61011d61043b565b34801561013357600080fd5b5061011d61014236600461130e565b61043d565b34801561015357600080fd5b5061011d610162366004611416565b6108a3565b61011d610175366004611376565b6108b2565b34801561018657600080fd5b5061018f610a40565b6040516100f491906119e2565b3480156101a857600080fd5b506101b1610a45565b6040516100f491906119d4565b3480156101ca57600080fd5b5061011d6101d93660046112d4565b610a50565b3480156101ea57600080fd5b5061011d6101f9366004611342565b610a9c565b34801561020a57600080fd5b5061011d6102193660046113e6565b610bd4565b34801561022a57600080fd5b506101b1610c42565b6060808383905060405190808252806020026020018201604052801561027357816020015b610260610f73565b8152602001906001900390816102585790505b50905060005b8381101561032e57600085858381811061028f57fe5b90506020020160206102a491908101906113c8565b6001600160a01b0380821660009081526020818152604091829020825160c081018452815460ff161515815260018201549281019290925260028101549282019290925260038201549092166060830152600481015460808301526005015460a082015284519192509084908490811061031a57fe5b602090810291909101015250600101610279565b5090505b92915050565b601060009054906101000a90046001600160a01b03166001600160a01b0316634b0a72bc6040518163ffffffff1660e01b815260040160206040518083038186803b15801561038657600080fd5b505afa15801561039a573d6000803e3d6000fd5b505050506040513d601f19601f820116820180604052506103be919081019061126d565b336001600160a01b038216146103ef5760405162461bcd60e51b81526004016103e690611934565b60405180910390fd5b610400600e8363ffffffff610ca716565b7fd21ccbbae3d29826d53310efdc993c64e27496dd31694b292f1a120344ec37ab8260405161042f91906119d4565b60405180910390a15050565b565b601160009054906101000a90046001600160a01b0316806001600160a01b031663ff27b1896040518163ffffffff1660e01b8152600401600060405180830381600087803b15801561048e57600080fd5b505af11580156104a2573d6000803e3d6000fd5b505050506104d982604051806040016040528060118152602001701cdd185c9d14dd185b99185c99115e1a5d607a1b815250610d95565b1561061f5760408051606081018252601280548252601380548451602060026001841615610100026000190190931692909204601f810183900483028201830190965285815261061a9582860193919283018282801561057a5780601f1061054f5761010080835404028352916020019161057a565b820191906000526020600020905b81548152906001019060200180831161055d57829003601f168201915b5050509183525050600282810180546040805160206001841615610100026000190190931694909404601f8101839004830285018301909152808452938101939083018282801561060c5780601f106105e15761010080835404028352916020019161060c565b820191906000526020600020905b8154815290600101906020018083116105ef57829003601f168201915b5050505050815250506108b2565b61084c565b610656826040518060400160405280601581526020017418da185b1b195b99d954dd185b99185c99115e1a5d605a1b815250610d95565b1561084c576040805160c081018252601580546001600160a01b03168252601680548451602060026101006001851615026000190190931692909204601f810183900483028201830190965285815261084c958286019391928301828280156107005780601f106106d557610100808354040283529160200191610700565b820191906000526020600020905b8154815290600101906020018083116106e357829003601f168201915b5050509183525050600282810180546040805160206001841615610100026000190190931694909404601f810183900483028501830190915280845293810193908301828280156107925780601f1061076757610100808354040283529160200191610792565b820191906000526020600020905b81548152906001019060200180831161077557829003601f168201915b5050509183525050600382015461ffff1660208083019190915260048301805460408051601f600260001960018616156101000201909416939093049283018590048502810185018252828152940193928301828280156108345780601f1061080957610100808354040283529160200191610834565b820191906000526020600020905b81548152906001019060200180831161081757829003601f168201915b50505050508152602001600582015481525050610a9c565b806001600160a01b0316634e0f74366040518163ffffffff1660e01b8152600401600060405180830381600087803b15801561088757600080fd5b505af115801561089b573d6000803e3d6000fd5b505050505050565b6108ad8382610dee565b505050565b601060009054906101000a90046001600160a01b0316806001600160a01b031663ff27b1896040518163ffffffff1660e01b8152600401600060405180830381600087803b15801561090357600080fd5b505af1158015610917573d6000803e3d6000fd5b50505050610923610c42565b6001600160801b031680341461094b5760405162461bcd60e51b81526004016103e6906118f4565b6040805160c0810182526001546001600160a01b0390811682526002541660208083019190915282519081018352600354815281830152600480546060830152600554608083015260065460a083015291516332c812a760e11b815273__PaymentStartStandardExit______________92636590254e926109d49290916000918991016119a6565b60006040518083038186803b1580156109ec57600080fd5b505af4158015610a00573d6000803e3d6000fd5b5050505050806001600160a01b0316634e0f74366040518163ffffffff1660e01b8152600401600060405180830381600087803b15801561088757600080fd5b600281565b6631bced02db000081565b601154604051630e5ae5c760e31b81526001600160a01b03909116906372d72e3890610a8290859085906004016118d9565b600060405180830381600087803b15801561088757600080fd5b601060009054906101000a90046001600160a01b0316806001600160a01b031663ff27b1896040518163ffffffff1660e01b8152600401600060405180830381600087803b158015610aed57600080fd5b505af1158015610b01573d6000803e3d6000fd5b505060408051606081018252600b546001600160a01b039081168252600c54166020820152600d5481830152905163edc91d4b60e01b815273__PaymentChallengeStandardExit__________935063edc91d4b9250610b6991906000908790600401611944565b60006040518083038186803b158015610b8157600080fd5b505af4158015610b95573d6000803e3d6000fd5b50505050806001600160a01b0316634e0f74366040518163ffffffff1660e01b8152600401600060405180830381600087803b15801561088757600080fd5b6001600160a01b03918216600090815260208181526040918290208351815460ff191690151517815590830151600182015590820151600282015560608201516003820180546001600160a01b03191691909416179092556080810151600483015560a00151600590910155565b6040805160a081018252600e546001600160801b038082168352600160801b9182900481166020840152600f549081169383019390935261ffff90830481166060830152600160901b9092049091166080820152600090610ca290610e8a565b905090565b6040805160a08101825283546001600160801b038082168352600160801b918290048116602084015260018601549081169383019390935261ffff90830481166060830152600160901b9092049091166080820152610d069082610eb5565b8154600160801b90046001600160801b031615801590610d33575060018201546001600160801b03164210155b15610d5a578154600160801b81046001600160801b03166001600160801b03199091161782555b81546001600160801b03918216600160801b02911617815560010180546001600160801b0319166001600160401b03426202a3000116179055565b600081604051602001610da891906118b5565b6040516020818303038152906040528051906020012083604051602001610dcf91906118b5565b6040516020818303038152906040528051906020012014905092915050565b604080516080810182526007546001600160a01b039081168252600854811660208301526009541681830152600a54606082015290516373c97b6d60e11b815273__PaymentProcessStandardExit____________9163e792f6da91610e5e919060009087908790600401611971565b60006040518083038186803b158015610e7657600080fd5b505af415801561089b573d6000803e3d6000fd5b600081604001516001600160801b0316421015610ea957508051610eb0565b5060208101515b919050565b6000610ec083610e8a565b90506000826001600160801b031611610eeb5760405162461bcd60e51b81526004016103e690611914565b826060015161ffff16816001600160801b031681610f0557fe5b046001600160801b0316826001600160801b03161015610f375760405162461bcd60e51b81526004016103e690611924565b826080015161ffff16816001600160801b031602826001600160801b031611156108ad5760405162461bcd60e51b81526004016103e690611904565b6040805160c081018252600080825260208201819052918101829052606081018290526080810182905260a081019190915290565b803561033281611acf565b805161033281611acf565b60008083601f840112610fd057600080fd5b5081356001600160401b03811115610fe757600080fd5b602083019150836020820283011115610fff57600080fd5b9250929050565b803561033281611ae6565b803561033281611aef565b600082601f83011261102d57600080fd5b813561104061103b82611a16565b6119f0565b9150808252602083016020830185838301111561105c57600080fd5b611067838284611a8d565b50505092915050565b600060c0828403121561108257600080fd5b61108c60c06119f0565b9050600061109a8484611262565b82525060208201356001600160401b038111156110b657600080fd5b6110c28482850161101c565b60208301525060408201356001600160401b038111156110e157600080fd5b6110ed8482850161101c565b604083015250606061110184828501611257565b60608301525060808201356001600160401b0381111561112057600080fd5b61112c8482850161101c565b60808301525060a061114084828501611011565b60a08301525092915050565b600060c0828403121561115e57600080fd5b61116860c06119f0565b905060006111768484611006565b825250602061118784848301611011565b602083015250604061119b84828501611011565b60408301525060606111af84828501610fa8565b606083015250608061112c84828501611011565b6000606082840312156111d557600080fd5b6111df60606119f0565b905060006111ed8484611011565b82525060208201356001600160401b0381111561120957600080fd5b6112158482850161101c565b60208301525060408201356001600160401b0381111561123457600080fd5b6112408482850161101c565b60408301525092915050565b803561033281611af8565b803561033281611b01565b803561033281611b0a565b60006020828403121561127f57600080fd5b600061128b8484610fb3565b949350505050565b600080602083850312156112a657600080fd5b82356001600160401b038111156112bc57600080fd5b6112c885828601610fbe565b92509250509250929050565b600080604083850312156112e757600080fd5b60006112f38585611011565b925050602061130485828601611262565b9150509250929050565b60006020828403121561132057600080fd5b81356001600160401b0381111561133657600080fd5b61128b8482850161101c565b60006020828403121561135457600080fd5b81356001600160401b0381111561136a57600080fd5b61128b84828501611070565b60006020828403121561138857600080fd5b81356001600160401b0381111561139e57600080fd5b61128b848285016111c3565b6000602082840312156113bc57600080fd5b600061128b848461124c565b6000602082840312156113da57600080fd5b600061128b8484611262565b60008060e083850312156113f957600080fd5b60006114058585611262565b92505060206113048582860161114c565b60008060006060848603121561142b57600080fd5b60006114378686611262565b935050602061144886828701611011565b925050604061145986828701610fa8565b9150509250925092565b600061146f8383611801565b505060c00190565b61148081611a50565b82525050565b600061149182611a43565b61149b8185611a47565b93506114a683611a3d565b8060005b838110156114d45781516114be8882611463565b97506114c983611a3d565b9250506001016114aa565b509495945050505050565b61148081611a5b565b61148081611a60565b60006114fc82611a43565b6115068185611a47565b9350611516818560208601611a99565b61151f81611ac5565b9093019392505050565b61148081611a82565b600061153d82611a43565b6115478185610eb0565b9350611557818560208601611a99565b9290920192915050565b600061156e602083611a47565b7f496e7075742076616c7565206d757374206d61746368206d73672e76616c7565815260200192915050565b60006115a7601583611a47565b74084dedcc840e6d2f4ca40d2e640e8dede40d0d2ced605b1b815260200192915050565b60006115d8601883611a47565b7f426f6e642073697a652063616e6e6f74206265207a65726f0000000000000000815260200192915050565b6000611611601483611a47565b73426f6e642073697a6520697320746f6f206c6f7760601b815260200192915050565b6000611641601e83611a47565b7f43616c6c6572206164647265737320697320756e617574686f72697a65640000815260200192915050565b8051602083019061167e84826114e8565b50505050565b805160009060c084019061169885826118a3565b50602083015184820360208601526116b082826114f1565b915050604083015184820360408601526116ca82826114f1565b91505060608301516116df60608601826118ac565b50608083015184820360808601526116f782826114f1565b91505060a083015161032e60a08601826114e8565b8051606083019061171d8482611529565b5060208201516117306020850182611529565b50604082015161167e60408501826114e8565b805160808301906117548482611529565b5060208201516117676020850182611529565b50604082015161177a6040850182611529565b50606082015161167e60608501826114e8565b805160c083019061179e8482611529565b5060208201516117b16020850182611529565b5060408201516117c4604085018261166d565b5060608201516117d760608501826114e8565b5060808201516117ea60808501826114e8565b5060a082015161167e60a08501826114e8565b9052565b805160c083019061181284826114df565b50602082015161182560208501826114e8565b50604082015161183860408501826114e8565b5060608201516117d76060850182611477565b8051600090606084019061185f85826114e8565b506020830151848203602086015261187782826114f1565b9150506040830151848203604086015261189182826114f1565b95945050505050565b61148081611a63565b61148081611a76565b61148081611a6f565b60006118c18284611532565b9392505050565b602080825281016118c18184611486565b604081016118e782856114e8565b6118c160208301846118a3565b6020808252810161033281611561565b602080825281016103328161159a565b60208082528101610332816115cb565b6020808252810161033281611604565b6020808252810161033281611634565b60a08101611952828661170c565b61195f60608301856117fd565b81810360808301526118918184611684565b60e0810161197f8287611743565b61198c60808301866117fd565b61199960a08301856118a3565b61189160c0830184611477565b61010081016119b5828661178d565b6119c260c08301856117fd565b81810360e0830152611891818461184b565b60208101610332828461189a565b6020810161033282846118ac565b6040518181016001600160401b0381118282101715611a0e57600080fd5b604052919050565b60006001600160401b03821115611a2c57600080fd5b506020601f91909101601f19160190565b60200190565b5190565b90815260200190565b600061033282611a76565b151590565b90565b6001600160801b031690565b61ffff1690565b6001600160a01b031690565b600061033282611a50565b82818337506000910152565b60005b83811015611ab4578181015183820152602001611a9c565b8381111561167e5750506000910152565b601f01601f191690565b611ad881611a50565b8114611ae357600080fd5b50565b611ad881611a5b565b611ad881611a60565b611ad881611a63565b611ad881611a6f565b611ad881611a76565b611b1b611b5c565b506040805160a0810182526001600160801b03949094168452600060208501526780000000000000009084015261ffff918216606084015216608082015290565b6040805160a0810182526000808252602082018190529181018290526060810182905260808101919091529056fea365627a7a72315820fc782e09a34e83fe14bcde8590d5132030454fd2b935da6e86dc1b026505eae86c6578706572696d656e74616cf564736f6c634300050b0040",
  "source": "pragma solidity 0.5.11;\npragma experimental ABIEncoderV2;\n\nimport \"../../../../src/exits/payment/PaymentExitGameArgs.sol\";\nimport \"../../../../src/exits/payment/routers/PaymentStandardExitRouter.sol\";\nimport \"../../../../src/exits/payment/routers/PaymentStandardExitRouterArgs.sol\";\nimport \"../../../../src/framework/PlasmaFramework.sol\";\n\ncontract PaymentStandardExitRouterMock is PaymentStandardExitRouter {\n    PlasmaFramework private framework;\n\n    PaymentStandardExitRouterArgs.StartStandardExitArgs private startStandardExitArgs;\n    PaymentStandardExitRouterArgs.ChallengeStandardExitArgs private challengeStandardExitArgs;\n\n    constructor(PaymentExitGameArgs.Args memory args)\n        public\n        PaymentStandardExitRouter(args)\n    {\n        framework = args.framework;\n    }\n\n    /** override and calls processStandardExit for test */\n    function processExit(uint160 exitId, uint256, address ercContract) external {\n        PaymentStandardExitRouter.processStandardExit(exitId, ercContract);\n    }\n\n    /** helper functions for testing */\n    function setExit(uint160 exitId, PaymentExitDataModel.StandardExit memory exitData) public {\n        PaymentStandardExitRouter.standardExitMap.exits[exitId] = exitData;\n    }\n\n    function proxyFlagOutputFinalized(bytes32 outputId, uint160 exitId) public {\n        framework.flagOutputFinalized(outputId, exitId);\n    }\n\n    function depositFundForTest() public payable {}\n\n    /**\n     * This function helps test reentrant by making this function itself the first call with 'nonReentrant' protection\n     * So all other PaymentExitGame functions that is protected by 'nonReentrant' too would fail as it would be considered as re-entrancy\n     */\n    function testNonReentrant(string memory testTarget) public nonReentrant(framework) {\n        if (stringEquals(testTarget, \"startStandardExit\")) {\n            PaymentStandardExitRouter.startStandardExit(startStandardExitArgs);\n        } else if (stringEquals(testTarget, \"challengeStandardExit\")) {\n            PaymentStandardExitRouter.challengeStandardExit(challengeStandardExitArgs);\n        }\n    }\n\n    function stringEquals(string memory a, string memory b) private pure returns (bool) {\n        return keccak256(abi.encodePacked(a)) == keccak256(abi.encodePacked(b));\n    }\n}\n",
  "sourcePath": "/home/node/plasma-contracts/plasma_framework/contracts/mocks/exits/payment/routers/PaymentStandardExitRouterMock.sol",
  "compiler": {
    "name": "solc",
    "version": "0.5.11+commit.c082d0b4.Emscripten.clang"
  },
  "schemaVersion": "3.0.16",
  "updatedAt": "2020-04-07T14:07:49.519Z",
  "devdoc": {
    "methods": {
      "standardExits(uint160[])": {
        "params": {
          "exitIds": "Exit IDs of the standard exits"
        }
      },
      "updateStartStandardExitBondSize(uint128)": {
        "params": {
          "newBondSize": "The new bond size"
        }
      }
    }
  },
  "userdoc": {
    "methods": {
      "challengeStandardExit((uint160,bytes,bytes,uint16,bytes,bytes32))": {
        "notice": "Challenge a standard exit by showing the exiting output was spent"
      },
      "processExit(uint160,uint256,address)": {
        "notice": "override and calls processStandardExit for test "
      },
      "setExit(uint160,(bool,uint256,bytes32,address,uint256,uint256))": {
        "notice": "helper functions for testing "
      },
      "standardExits(uint160[])": {
        "notice": "Getter retrieves standard exit data of the PaymentExitGame"
      },
      "startStandardExit((uint256,bytes,bytes))": {
        "notice": "Starts a standard exit of a given output, using output-age priority"
      },
      "startStandardExitBondSize()": {
        "notice": "Retrieves the standard exit bond size"
      },
      "testNonReentrant(string)": {
        "notice": "This function helps test reentrant by making this function itself the first call with 'nonReentrant' protection So all other PaymentExitGame functions that is protected by 'nonReentrant' too would fail as it would be considered as re-entrancy"
      },
      "updateStartStandardExitBondSize(uint128)": {
        "notice": "Updates the standard exit bond size, taking two days to become effective"
      }
    }
  }
}