{
  "contractName": "PaymentChallengeIFENotCanonical",
  "abi": [
    {
      "anonymous": false,
      "inputs": [
        {
          "indexed": true,
          "internalType": "address",
          "name": "challenger",
          "type": "address"
        },
        {
          "indexed": true,
          "internalType": "bytes32",
          "name": "txHash",
          "type": "bytes32"
        },
        {
          "indexed": false,
          "internalType": "uint256",
          "name": "challengeTxPosition",
          "type": "uint256"
        }
      ],
      "name": "InFlightExitChallenged",
      "type": "event"
    },
    {
      "anonymous": false,
      "inputs": [
        {
          "indexed": true,
          "internalType": "address",
          "name": "challenger",
          "type": "address"
        },
        {
          "indexed": true,
          "internalType": "bytes32",
          "name": "txHash",
          "type": "bytes32"
        },
        {
          "indexed": false,
          "internalType": "uint256",
          "name": "challengeTxPosition",
          "type": "uint256"
        }
      ],
      "name": "InFlightExitChallengeResponded",
      "type": "event"
    },
    {
      "constant": true,
      "inputs": [
        {
          "internalType": "contract PlasmaFramework",
          "name": "framework",
          "type": "PlasmaFramework"
        },
        {
          "internalType": "contract SpendingConditionRegistry",
          "name": "spendingConditionRegistry",
          "type": "SpendingConditionRegistry"
        },
        {
          "internalType": "uint256",
          "name": "supportedTxType",
          "type": "uint256"
        }
      ],
      "name": "buildController",
      "outputs": [
        {
          "components": [
            {
              "internalType": "contract PlasmaFramework",
              "name": "framework",
              "type": "PlasmaFramework"
            },
            {
              "internalType": "contract SpendingConditionRegistry",
              "name": "spendingConditionRegistry",
              "type": "SpendingConditionRegistry"
            },
            {
              "internalType": "uint256",
              "name": "supportedTxType",
              "type": "uint256"
            }
          ],
          "internalType": "struct PaymentChallengeIFENotCanonical.Controller",
          "name": "",
          "type": "tuple"
        }
      ],
      "payable": false,
      "stateMutability": "pure",
      "type": "function"
    }
  ],
  "bytecode": "0x612ed4610026600b82828239805160001a60731461001957fe5b30600052607381538281f3fe730000000000000000000000000000000000000000301460806040526004361061004b5760003560e01c8063159cde2d14610050578063184ee23e14610079578063943ebf081461009b575b600080fd5b61006361005e366004611a81565b6100bb565b6040516100709190612d1a565b60405180910390f35b81801561008557600080fd5b50610099610094366004611ace565b6100f0565b005b8180156100a757600080fd5b506100996100b6366004611b71565b6102c6565b6100c3611730565b50604080516060810182526001600160a01b038086168252841660208201529081018290525b9392505050565b60006100fb84610921565b6001600160a01b038116600090815260208790526040902080549192509061010090046001600160401b031661014c5760405162461bcd60e51b815260040161014390612b3a565b60405180910390fd5b6000841161016c5760405162461bcd60e51b815260040161014390612b2a565b8381602d01541161018f5760405162461bcd60e51b815260040161014390612bea565b610197611730565b6101a085610947565b8851815160405163f25b3f9960e01b81529293506000926001600160a01b039092169163f25b3f99916101d591600401612d51565b604080518083038186803b1580156101ec57600080fd5b505afa158015610200573d6000803e3d6000fd5b505050506040513d601f19601f820116820180604052506102249190810190611a29565b509050806102445760405162461bcd60e51b815260040161014390612b0a565b610250878383886109da565b602d8301869055825460ff19166001178355602b830180546001600160a01b03191633908117909155875160208901206040519091907f637cc4a7148767df19331a5c7dfb6d31f0a7e159a3dbb28a716be18c8c74f768906102b3908a90612d28565b60405180910390a3505050505050505050565b60006102d58260400151610921565b6001600160a01b0381166000908152602085905260409020606084015191925090600461ffff9091161061031b5760405162461bcd60e51b815260040161014390612bba565b805461010090046001600160401b03166103475760405162461bcd60e51b815260040161014390612b3a565b61054285600001516001600160a01b031663d4a2b4ef6040518163ffffffff1660e01b815260040160206040518083038186803b15801561038757600080fd5b505afa15801561039b573d6000803e3d6000fd5b505050506040513d601f19601f820116820180604052506103bf9190810190611bcb565b6040805161012081018252845460ff81161515825261010090046001600160401b03166020820152600185015481830152600285015460608201528151608080820190935290918591908301906003830160046000835b8282101561047d576040805160a081018252600584028601805482526001808201546001600160a01b039081166020808601919091526002840154909116948401949094526003820154606084015260049091015460808301529083529092019101610416565b5050509082525060408051608081019091526020909101906017830160046000835b82821015610506576040805160a081018252600584028601805482526001808201546001600160a01b03908116602080860191909152600284015490911694840194909452600382015460608401526004909101546080830152908352909201910161049f565b50505090825250602b8201546001600160a01b03166020820152602c8201546040820152602d909101546060909101529063ffffffff610a3616565b61055e5760405162461bcd60e51b815260040161014390612c4a565b826080015160405161057091906129c6565b6040518091039020836040015160405161058a91906129c6565b604051809103902014156105b05760405162461bcd60e51b815260040161014390612b1a565b6105b8611730565b6105c58460200151610947565b8651815160405163ebde2ec960e01b81529293506000926001600160a01b039092169163ebde2ec9916105fa91600401612d51565b60206040518083038186803b15801561061257600080fd5b505afa158015610626573d6000803e3d6000fd5b505050506040513d601f19601f8201168201806040525061064a9190810190611a03565b156106715761066a8560000151836040015161ffff168760200151610a65565b905061068a565b6106878560000151836040015161ffff16610a9b565b90505b82600301856060015161ffff16600481106106a157fe5b600502015481146106c45760405162461bcd60e51b815260040161014390612afa565b6106cc611750565b6106e66106dc8760000151610ace565b8460400151610c6e565b9050600088602001516001600160a01b03166364f40d6f83600001518b604001516040518363ffffffff1660e01b8152600401610724929190612d36565b60206040518083038186803b15801561073c57600080fd5b505afa158015610750573d6000803e3d6000fd5b505050506040513d601f19601f820116820180604052506107749190810190611a63565b90506001600160a01b03811661079c5760405162461bcd60e51b815260040161014390612c8a565b6000816001600160a01b031663e618a6f589600001518a602001518b608001518c60a001518d61010001516040518663ffffffff1660e01b81526004016107e7959493929190612a0c565b60206040518083038186803b1580156107ff57600080fd5b505afa158015610813573d6000803e3d6000fd5b505050506040513d601f19601f820116820180604052506108379190810190611a03565b9050806108565760405162461bcd60e51b815260040161014390612c6a565b60006108628b8a610cc2565b905086602d01546000148061087a57508087602d0154115b6108965760405162461bcd60e51b815260040161014390612b5a565b602d8701819055602b870180546001600160a01b03191633179055865460ff191687556040808a015190516108cb91906129c6565b6040518091039020336001600160a01b03167f687401968e501bda2d2d6f880dd1a0a56ff50b1787185ee0b6f4c3fb9fc417ab8360405161090c9190612d28565b60405180910390a35050505050505050505050565b8051602082012060009061093f9060691c609763ffffffff610d7a16565b90505b919050565b61094f611730565b633b9aca00808304906127109084068190049084066429f16b11c68311156109895760405162461bcd60e51b815260040161014390612a8a565b61ffff8211156109ab5760405162461bcd60e51b815260040161014390612aaa565b604080516060810182526001600160401b03909416845261ffff92831660208501529116908201529050919050565b604083015161ffff1615610a005760405162461bcd60e51b815260040161014390612b9a565b610a1484846020015161ffff168484610d87565b610a305760405162461bcd60e51b815260040161014390612c5a565b50505050565b60008060028304905060018185602001516001600160401b0316420381610a5957fe5b04109150505b92915050565b6000838383604051602001610a7c939291906129f4565b6040516020818303038152906040528051906020012090509392505050565b60008282604051602001610ab09291906129d2565b60405160208183030381529060405280519060200120905092915050565b610ad661176f565b6060610ae9610ae484610ed2565b610ef7565b8051909150600514610b0d5760405162461bcd60e51b815260040161014390612b6a565b6000610b2c82600081518110610b1f57fe5b6020026020010151611006565b905060008111610b4e5760405162461bcd60e51b815260040161014390612a6a565b6060610b6d83600281518110610b6057fe5b6020026020010151610ef7565b905060608151604051908082528060200260200182016040528015610bac57816020015b610b99611750565b815260200190600190039081610b915790505b50905060005b8251811015610bf657610bd7838281518110610bca57fe5b602002602001015161111c565b828281518110610be357fe5b6020908102919091010152600101610bb2565b506000610c1685600481518110610c0957fe5b60200260200101516111b9565b90506040518060a00160405280858152602001610c3987600181518110610b6057fe5b815260200183815260200186600381518110610c5157fe5b602002602001015181526020018281525095505050505050919050565b610c76611750565b8260400151518261ffff1610610c9e5760405162461bcd60e51b815260040161014390612aca565b82604001518261ffff1681518110610cb257fe5b6020026020010151905092915050565b60c081015160009060001990610cf5576000610ce685600001518560800151611246565b905080610cef57fe5b506100e9565b610cfd611730565b610d0a8460c00151610947565b9050806040015161ffff16600014610d345760405162461bcd60e51b815260040161014390612aba565b6000610d4e86600001518660800151848860e00151611327565b905080610d6d5760405162461bcd60e51b815260040161014390612bfa565b5050505060c00151919050565b600160ff919091161b1790565b6000815160001415610dab5760405162461bcd60e51b815260040161014390612b8a565b6020825181610db657fe5b0615610dd45760405162461bcd60e51b815260040161014390612cca565b6020825181610ddf57fe5b0460020a8410610e015760405162461bcd60e51b815260040161014390612d0a565b600080600060f81b87604051602001610e1b9291906129aa565b60408051601f198184030181529190528051602091820120915086905b85518111610ec45785810151935060028206610e8457604051610e6790600160f81b9085908790602001612973565b604051602081830303815290604052805190602001209250610eb6565b604051610e9d90600160f81b9086908690602001612973565b6040516020818303038152906040528051906020012092505b600282049150602001610e38565b505090931495945050505050565b610eda6117a4565b506040805180820190915281518152602082810190820152919050565b6060610f02826114d1565b610f1e5760405162461bcd60e51b815260040161014390612c3a565b600080610f2e846020015161150b565b855191935091508214610f535760405162461bcd60e51b815260040161014390612aea565b6000610f5e856116b4565b9050606081604051908082528060200260200182016040528015610f9c57816020015b610f896117a4565b815260200190600190039081610f815790505b50602087015190915083016000805b84811015610ff957610fbc8361150b565b5080925050604051806040016040528083815260200184815250848281518110610fe257fe5b602090810291909101015291810191600101610fab565b5091979650505050505050565b80516000901580159061101b57508151602110155b6110375760405162461bcd60e51b815260040161014390612cea565b611040826114d1565b1561105d5760405162461bcd60e51b815260040161014390612c7a565b60008061106d846020015161150b565b8551919350915082146110925760405162461bcd60e51b815260040161014390612a9a565b60208085015182018051838503929091600083901a918410156110bc57836020036101000a830492505b811580156110c8575084155b156110e55760405162461bcd60e51b815260040161014390612bca565b811580156110f35750600184115b156111105760405162461bcd60e51b815260040161014390612a7a565b50909695505050505050565b611124611750565b606061112f83610ef7565b905080516002146111525760405162461bcd60e51b815260040161014390612c1a565b61115a611750565b604051806040016040528061117584600081518110610b1f57fe5b81526020018360018151811061118757fe5b602002602001015181525090508060000151600014156100e95760405162461bcd60e51b815260040161014390612c9a565b80516000906021146111dd5760405162461bcd60e51b815260040161014390612cda565b6111e6826114d1565b156112035760405162461bcd60e51b815260040161014390612c7a565b600080611213846020015161150b565b91509150816021146112375760405162461bcd60e51b815260040161014390612caa565b60208401510151915050919050565b600081516000141561125a57506000610a5f565b61126261176f565b61126b83610ace565b8051604051630461cb1160e51b81529192506000916001600160a01b03871691638c3962209161129e9190600401612d28565b60206040518083038186803b1580156112b657600080fd5b505afa1580156112ca573d6000803e3d6000fd5b505050506040513d601f19601f820116820180604052506112ee9190810190611be9565b90506112f861172b565b60ff168160ff161461131c5760405162461bcd60e51b815260040161014390612cfa565b506001949350505050565b6000826040015161ffff166000146113515760405162461bcd60e51b815260040161014390612b7a565b61135961176f565b61136285610ace565b8051604051630461cb1160e51b81529192506000916001600160a01b03891691638c396220916113959190600401612d28565b60206040518083038186803b1580156113ad57600080fd5b505afa1580156113c1573d6000803e3d6000fd5b505050506040513d601f19601f820116820180604052506113e59190810190611be9565b90506113ef61172b565b60ff168160ff16146114135760405162461bcd60e51b815260040161014390612cfa565b845160405163f25b3f9960e01b81526000916001600160a01b038a169163f25b3f999161144291600401612d51565b604080518083038186803b15801561145957600080fd5b505afa15801561146d573d6000803e3d6000fd5b505050506040513d601f19601f820116820180604052506114919190810190611a29565b509050806114b15760405162461bcd60e51b815260040161014390612baa565b6114c587876020015161ffff168388610d87565b98975050505050505050565b80516000906114e257506000610942565b6020820151805160001a9060c082101561150157600092505050610942565b5060019392505050565b8051600090819081908190811a608081101561152e5760019250600091506116a9565b6080811080159061153f575060b881105b1561158857607e1981019250600283141561157f57600186015160001a608081101561157d5760405162461bcd60e51b815260040161014390612cba565b505b600191506116a9565b60b88110801590611599575060c081105b156116135760019590950180519095602081900360b7016101000a820480820160b519019450909160001a60b6198301816115e65760405162461bcd60e51b815260040161014390612b4a565b603783116116065760405162461bcd60e51b815260040161014390612ada565b60010193506116a9915050565b60c08110801590611624575060f881105b156116395760be1981019250600191506116a9565b60019590950180519095602081900360f7016101000a820480820160f519019450909160001a60f6198301816116815760405162461bcd60e51b815260040161014390612c2a565b603783116116a15760405162461bcd60e51b815260040161014390612c0a565b600101935050505b509092509050915091565b6000806000905060006116ca846020015161150b565b602086015186519193508084019250015b808210156117215760006116ee8361150b565b50928301929050818311156117155760405162461bcd60e51b815260040161014390612bda565b506001909301926116db565b5091949350505050565b600290565b604080516060810182526000808252602082018190529181019190915290565b60405180604001604052806000815260200161176a6117a4565b905290565b6040518060a001604052806000815260200160608152602001606081526020016117976117a4565b8152600060209091015290565b604051806040016040528060008152602001600081525090565b8051610a5f81612e56565b8051610a5f81612e6d565b600082601f8301126117e557600080fd5b81356117f86117f382612d85565b612d5f565b9150808252602083016020830185838301111561181457600080fd5b61181f838284612e14565b50505092915050565b8051610a5f81612e76565b8035610a5f81612e76565b6000610120828403121561185157600080fd5b61185c610120612d5f565b905081356001600160401b0381111561187457600080fd5b611880848285016117d4565b8252506020611891848483016119e2565b60208301525060408201356001600160401b038111156118b057600080fd5b6118bc848285016117d4565b60408301525060606118d0848285016119ed565b60608301525060808201356001600160401b038111156118ef57600080fd5b6118fb848285016117d4565b60808301525060a061190f848285016119ed565b60a08301525060c0611923848285016119e2565b60c08301525060e08201356001600160401b0381111561194257600080fd5b61194e848285016117d4565b60e0830152506101008201356001600160401b0381111561196e57600080fd5b61197a848285016117d4565b6101008301525092915050565b60006060828403121561199957600080fd5b6119a36060612d5f565b905060006119b18484611833565b82525060206119c284848301611833565b60208301525060406119d6848285016119e2565b60408301525092915050565b8035610a5f81612e6d565b8035610a5f81612e7f565b8051610a5f81612e88565b600060208284031215611a1557600080fd5b6000611a2184846117be565b949350505050565b60008060408385031215611a3c57600080fd5b6000611a4885856117c9565b9250506020611a59858286016117c9565b9150509250929050565b600060208284031215611a7557600080fd5b6000611a218484611828565b600080600060608486031215611a9657600080fd5b6000611aa28686611833565b9350506020611ab386828701611833565b9250506040611ac4868287016119e2565b9150509250925092565b600080600080600060e08688031215611ae657600080fd5b6000611af28888611987565b9550506060611b03888289016119e2565b94505060808601356001600160401b03811115611b1f57600080fd5b611b2b888289016117d4565b93505060a0611b3c888289016119e2565b92505060c08601356001600160401b03811115611b5857600080fd5b611b64888289016117d4565b9150509295509295909350565b600080600060a08486031215611b8657600080fd5b6000611b928686611987565b9350506060611ba3868287016119e2565b92505060808401356001600160401b03811115611bbf57600080fd5b611ac48682870161183e565b600060208284031215611bdd57600080fd5b6000611a2184846117c9565b600060208284031215611bfb57600080fd5b6000611a2184846119f8565b611c18611c1382612dc9565b612dd6565b82525050565b611c18611c1382612dd6565b6000611c3582612dac565b611c3f8185610942565b9350611c4f818560208601612e20565b9290920192915050565b6000611c6482612dac565b611c6e8185612db0565b9350611c7e818560208601612e20565b611c8781612e4c565b9093019392505050565b611c1881612dd9565b6000611ca7601e83612db0565b7f5472616e73616374696f6e2074797065206d757374206e6f7420626520300000815260200192915050565b6000611ce0601983612db0565b7f4c656164696e67207a65726f732061726520696e76616c696400000000000000815260200192915050565b6000611d19603483612db0565b7f626c6f636b4e756d2065786365656473206d61782073697a6520616c6c6f77658152736420696e20506c61736d614672616d65776f726b60601b602082015260400192915050565b6000611d6f603a83612db0565b7f4465636f646564206974656d206c656e677468206d757374206265206571756181527f6c20746f2074686520696e7075742064617461206c656e677468000000000000602082015260400192915050565b6000611dce602283612db0565b7f7478496e6465782065786365656473207468652073697a65206f662075696e74815261189b60f11b602082015260400192915050565b6000611e12602983612db0565b7f4f7574707574496e646578206f6620636f6d706574696e675478506f7320736881526806f756c6420626520360bc1b602082015260400192915050565b6000611e5d601a83612db0565b7f4f757470757420696e646578206f7574206f6620626f756e6473000000000000815260200192915050565b6000611e96602083612db0565b7f496e76616c6964206c656e67746820666f722061206c6f6e6720737472696e67815260200192915050565b6000611ecf602683612db0565b7f4465636f64656420524c50206c656e67746820666f72206c69737420697320698152651b9d985b1a5960d21b602082015260400192915050565b6000611f17605083612db0565b7f50726f766964656420696e70757473206461746120646f6573206e6f7420706f81527f696e7420746f207468652073616d65206f757470757449642066726f6d20746860208201526f19481a5b8b599b1a59da1d08195e1a5d60821b604082015260600192915050565b6000611f8f603483612db0565b7f4661696c656420746f206765742074686520626c6f636b20726f6f7420686173815273341037b3103a3432903a3c103837b9b4ba34b7b760611b602082015260400192915050565b6000611fe5603f83612db0565b7f54686520636f6d70657469746f72207472616e73616374696f6e20697320746881527f652073616d65206173207472616e73616374696f6e20696e2d666c6967687400602082015260400192915050565b6000612044602c83612db0565b7f496e2d666c69676874207472616e73616374696f6e20706f736974696f6e206d81526b0757374206e6f7420626520360a41b602082015260400192915050565b6000612092601d83612db0565b7f496e2d666c69676874206578697420646f6573206e6f74206578697374000000815260200192915050565b60006120cb603f83612db0565b7f496e76616c6964206c656164696e67207a65726f7320696e206c656e6774682081527f6f6620746865206c656e67746820666f722061206c6f6e6720737472696e6700602082015260400192915050565b600061212a604083612db0565b7f436f6d706574696e67207472616e73616374696f6e206973206e6f74206f6c6481527f6572207468616e20616c7265616479206b6e6f776e20636f6d70657469746f72602082015260400192915050565b6000612189601f83612db0565b7f496e76616c696420656e636f64696e67206f66207472616e73616374696f6e00815260200192915050565b60006121c2601c83612db0565b7f496e76616c6964207472616e73616374696f6e20706f736974696f6e00000000815260200192915050565b60006121fb601e83612db0565b7f4d65726b6c652070726f6f66206d757374206e6f7420626520656d7074790000815260200192915050565b6000612234602183612db0565b7f4f757470757420696e646578206f66207478506f732068617320746f206265208152600360fc1b602082015260400192915050565b6000612277602c83612db0565b7f4661696c656420746f206765742074686520726f6f742068617368206f66207481526b686520626c6f636b206e756d60a01b602082015260400192915050565b60006122c5601983612db0565b7f496e70757420696e646578206f7574206f6620626f756e647300000000000000815260200192915050565b60006122fe602283612db0565b7f5363616c617220302073686f756c6420626520656e636f646564206173203078815261038360f41b602082015260400192915050565b6000612342604883612db0565b7f496e76616c6964206465636f646564206c656e677468206f6620524c5020697481527f656d20666f756e6420647572696e6720636f756e74696e67206974656d7320696020820152671b8818481b1a5cdd60c21b604082015260600192915050565b60006123b2605a83612db0565b7f496e2d666c69676874207472616e73616374696f6e206d757374206265206f6c81527f646572207468616e20636f6d70657469746f727320746f20726573706f6e642060208201527f746f206e6f6e2d63616e6f6e6963616c206368616c6c656e6765000000000000604082015260600192915050565b6000612437604183612db0565b7f436f6d706574696e67207478206973206e6f74207374616e646172642066696e81527f616c697a656420776974682074686520676976656e20747820706f736974696f6020820152603760f91b604082015260600192915050565b60006124a0601e83612db0565b7f496e76616c6964206c656e67746820666f722061206c6f6e67206c6973740000815260200192915050565b60006124d9601883612db0565b7f4f7574707574206d75737420686176652032206974656d730000000000000000815260200192915050565b6000612512603d83612db0565b7f496e76616c6964206c656164696e67207a65726f7320696e206c656e6774682081527f6f6620746865206c656e67746820666f722061206c6f6e67206c697374000000602082015260400192915050565b6000612571601283612db0565b71125d195b481a5cc81b9bdd0818481b1a5cdd60721b815260200192915050565b600061259f603283612db0565b7f43616e6f6e6963697479206368616c6c656e676520706861736520666f7220748152711a1a5cc8195e1a5d081a185cc8195b99195960721b602082015260400192915050565b60006125f3603483612db0565b7f5472616e73616374696f6e206973206e6f7420696e636c7564656420696e20628152733637b1b59037b310283630b9b6b09031b430b4b760611b602082015260400192915050565b6000612649602d83612db0565b7f436f6d706574696e6720696e707574207370656e64696e6720636f6e6469746981526c1bdb881a5cc81b9bdd081b595d609a1b602082015260400192915050565b6000612698601783612db0565b7f4974656d206d757374206e6f742062652061206c697374000000000000000000815260200192915050565b60006126d1602583612db0565b7f5370656e64696e6720636f6e646974696f6e20636f6e7472616374206e6f7420815264199bdd5b9960da1b602082015260400192915050565b6000612718601983612db0565b7f4f75747075742074797065206d757374206e6f74206265203000000000000000815260200192915050565b6000612751601e83612db0565b7f4465636f646564206974656d206c656e677468206d7573742062652033330000815260200192915050565b600061278a601d83612db0565b7f496e76616c69642073686f727420737472696e6720656e636f64696e67000000815260200192915050565b60006127c3602f83612db0565b7f4c656e677468206f66204d65726b6c652070726f6f66206d757374206265206181526e1036bab63a34b836329037b310199960891b602082015260400192915050565b6000612814601683612db0565b754974656d206c656e677468206d75737420626520333360501b815260200192915050565b6000612846602a83612db0565b7f4974656d206c656e677468206d757374206265206265747765656e203120616e8152696420333320627974657360b01b602082015260400192915050565b6000612892602c83612db0565b7f4d6f7265567046696e616c697a6174696f6e3a206e6f742061204d6f7265565081526b040e0e4dee8dec6ded840e8f60a31b602082015260400192915050565b60006128e0602c83612db0565b7f496e64657820646f6573206e6f74206d6174636820746865206c656e6774682081526b37b3103a343290383937b7b360a11b602082015260400192915050565b805160608301906129328482611c91565b5060208201516129456020850182611c91565b506040820151610a306040850182612961565b611c1881612de4565b611c1881612dd6565b611c1881612e09565b600061297f8286611c07565b60018201915061298f8285611c1e565b60208201915061299f8284611c1e565b506020019392505050565b60006129b68285611c07565b600182019150611a218284611c2a565b60006100e98284611c2a565b60006129de8285611c2a565b91506129ea8284611c1e565b5060200192915050565b6000612a008286611c2a565b915061298f8285611c1e565b60a08082528101612a1d8188611c59565b9050612a2c6020830187612961565b8181036040830152612a3e8186611c59565b9050612a4d6060830185612958565b8181036080830152612a5f8184611c59565b979650505050505050565b6020808252810161093f81611c9a565b6020808252810161093f81611cd3565b6020808252810161093f81611d0c565b6020808252810161093f81611d62565b6020808252810161093f81611dc1565b6020808252810161093f81611e05565b6020808252810161093f81611e50565b6020808252810161093f81611e89565b6020808252810161093f81611ec2565b6020808252810161093f81611f0a565b6020808252810161093f81611f82565b6020808252810161093f81611fd8565b6020808252810161093f81612037565b6020808252810161093f81612085565b6020808252810161093f816120be565b6020808252810161093f8161211d565b6020808252810161093f8161217c565b6020808252810161093f816121b5565b6020808252810161093f816121ee565b6020808252810161093f81612227565b6020808252810161093f8161226a565b6020808252810161093f816122b8565b6020808252810161093f816122f1565b6020808252810161093f81612335565b6020808252810161093f816123a5565b6020808252810161093f8161242a565b6020808252810161093f81612493565b6020808252810161093f816124cc565b6020808252810161093f81612505565b6020808252810161093f81612564565b6020808252810161093f81612592565b6020808252810161093f816125e6565b6020808252810161093f8161263c565b6020808252810161093f8161268b565b6020808252810161093f816126c4565b6020808252810161093f8161270b565b6020808252810161093f81612744565b6020808252810161093f8161277d565b6020808252810161093f816127b6565b6020808252810161093f81612807565b6020808252810161093f81612839565b6020808252810161093f81612885565b6020808252810161093f816128d3565b60608101610a5f8284612921565b60208101610a5f8284612961565b60408101612d448285612961565b6100e96020830184612961565b60208101610a5f828461296a565b6040518181016001600160401b0381118282101715612d7d57600080fd5b604052919050565b60006001600160401b03821115612d9b57600080fd5b506020601f91909101601f19160190565b5190565b90815260200190565b600061093f82612deb565b151590565b6001600160f81b03191690565b90565b600061093f82612db9565b61ffff1690565b6001600160a01b031690565b6001600160401b031690565b60ff1690565b600061093f82612df7565b82818337506000910152565b60005b83811015612e3b578181015183820152602001612e23565b83811115610a305750506000910152565b601f01601f191690565b612e5f81612dc4565b8114612e6a57600080fd5b50565b612e5f81612dd6565b612e5f81612dd9565b612e5f81612de4565b612e5f81612e0356fea365627a7a7231582097bda0af45b732752040f66eeebecc5c806f3dc24c6fae5040af343f429e17d76c6578706572696d656e74616cf564736f6c634300050b0040",
  "source": "pragma solidity 0.5.11;\npragma experimental ABIEncoderV2;\n\nimport \"../PaymentExitDataModel.sol\";\nimport \"../PaymentInFlightExitModelUtils.sol\";\nimport \"../routers/PaymentInFlightExitRouterArgs.sol\";\nimport \"../../interfaces/ISpendingCondition.sol\";\nimport \"../../registries/SpendingConditionRegistry.sol\";\nimport \"../../utils/ExitId.sol\";\nimport \"../../utils/OutputId.sol\";\nimport \"../../utils/MoreVpFinalization.sol\";\nimport \"../../../utils/PosLib.sol\";\nimport \"../../../utils/Merkle.sol\";\nimport \"../../../framework/PlasmaFramework.sol\";\nimport \"../../../transactions/PaymentTransactionModel.sol\";\nimport \"../../../transactions/GenericTransaction.sol\";\n\nlibrary PaymentChallengeIFENotCanonical {\n    using PosLib for PosLib.Position;\n    using PaymentInFlightExitModelUtils for PaymentExitDataModel.InFlightExit;\n\n    /**\n     * @dev supportedTxType Allows reuse of code in different Payment Tx versions\n     */\n    struct Controller {\n        PlasmaFramework framework;\n        SpendingConditionRegistry spendingConditionRegistry;\n        uint256 supportedTxType;\n    }\n\n    event InFlightExitChallenged(\n        address indexed challenger,\n        bytes32 indexed txHash,\n        uint256 challengeTxPosition\n    );\n\n    event InFlightExitChallengeResponded(\n        address indexed challenger,\n        bytes32 indexed txHash,\n        uint256 challengeTxPosition\n    );\n\n    /**\n     * @notice Function that builds the controller struct\n     * @return Controller struct of PaymentChallengeIFENotCanonical\n     */\n    function buildController(\n        PlasmaFramework framework,\n        SpendingConditionRegistry spendingConditionRegistry,\n        uint256 supportedTxType\n    )\n        public\n        pure\n        returns (Controller memory)\n    {\n        return Controller({\n            framework: framework,\n            spendingConditionRegistry: spendingConditionRegistry,\n            supportedTxType: supportedTxType\n        });\n    }\n\n    /**\n     * @notice Main logic implementation for 'challengeInFlightExitNotCanonical'\n     * @dev emits InFlightExitChallenged event on success\n     * @param self The controller struct\n     * @param inFlightExitMap The storage of all in-flight exit data\n     * @param args Arguments of 'challengeInFlightExitNotCanonical' function from client\n     */\n    function challenge(\n        Controller memory self,\n        PaymentExitDataModel.InFlightExitMap storage inFlightExitMap,\n        PaymentInFlightExitRouterArgs.ChallengeCanonicityArgs memory args\n    )\n        public\n    {\n        uint160 exitId = ExitId.getInFlightExitId(args.inFlightTx);\n        PaymentExitDataModel.InFlightExit storage ife = inFlightExitMap.exits[exitId];\n        require(args.inFlightTxInputIndex < ife.inputs.length, \"Input index out of bounds\");\n        require(ife.exitStartTimestamp != 0, \"In-flight exit does not exist\");\n\n        require(ife.isInFirstPhase(self.framework.minExitPeriod()),\n                \"Canonicity challenge phase for this exit has ended\");\n\n        require(\n            keccak256(args.inFlightTx) != keccak256(args.competingTx),\n            \"The competitor transaction is the same as transaction in-flight\"\n        );\n\n        PosLib.Position memory inputUtxoPos = PosLib.decode(args.inputUtxoPos);\n\n        bytes32 outputId;\n        if (self.framework.isDeposit(inputUtxoPos.blockNum)) {\n            outputId = OutputId.computeDepositOutputId(args.inputTx, inputUtxoPos.outputIndex, args.inputUtxoPos);\n        } else {\n            outputId = OutputId.computeNormalOutputId(args.inputTx, inputUtxoPos.outputIndex);\n        }\n        require(outputId == ife.inputs[args.inFlightTxInputIndex].outputId,\n                \"Provided inputs data does not point to the same outputId from the in-flight exit\");\n\n        GenericTransaction.Output memory output = GenericTransaction.getOutput(\n            GenericTransaction.decode(args.inputTx),\n            inputUtxoPos.outputIndex\n        );\n\n        ISpendingCondition condition = self.spendingConditionRegistry.spendingConditions(\n            output.outputType, self.supportedTxType\n        );\n        require(address(condition) != address(0), \"Spending condition contract not found\");\n\n        bool isSpentByCompetingTx = condition.verify(\n            args.inputTx,\n            args.inputUtxoPos,\n            args.competingTx,\n            args.competingTxInputIndex,\n            args.competingTxWitness\n        );\n        require(isSpentByCompetingTx, \"Competing input spending condition is not met\");\n\n        // Determine the position of the competing transaction\n        uint256 competitorPosition = verifyCompetingTxFinalizedInThePosition(self, args);\n\n        require(\n            ife.oldestCompetitorPosition == 0 || ife.oldestCompetitorPosition > competitorPosition,\n            \"Competing transaction is not older than already known competitor\"\n        );\n\n        ife.oldestCompetitorPosition = competitorPosition;\n        ife.bondOwner = msg.sender;\n\n        // Set a flag so that only the inputs are exitable, unless a response is received.\n        ife.isCanonical = false;\n\n        emit InFlightExitChallenged(msg.sender, keccak256(args.inFlightTx), competitorPosition);\n    }\n\n    /**\n     * @notice Main logic implementation for 'respondToNonCanonicalChallenge'\n     * @dev emits InFlightExitChallengeResponded event on success\n     * @param self The controller struct\n     * @param inFlightExitMap The storage of all in-flight exit data\n     * @param inFlightTx The in-flight tx, in RLP-encoded bytes\n     * @param inFlightTxPos The UTXO position of the in-flight exit. Should hardcode 0 for the outputIndex.\n     * @param inFlightTxInclusionProof Inclusion proof for the in-flight tx\n     */\n    function respond(\n        Controller memory self,\n        PaymentExitDataModel.InFlightExitMap storage inFlightExitMap,\n        bytes memory inFlightTx,\n        uint256 inFlightTxPos,\n        bytes memory inFlightTxInclusionProof\n    )\n        public\n    {\n        uint160 exitId = ExitId.getInFlightExitId(inFlightTx);\n        PaymentExitDataModel.InFlightExit storage ife = inFlightExitMap.exits[exitId];\n        require(ife.exitStartTimestamp != 0, \"In-flight exit does not exist\");\n        require(inFlightTxPos > 0, \"In-flight transaction position must not be 0\");\n\n        require(\n            ife.oldestCompetitorPosition > inFlightTxPos,\n            \"In-flight transaction must be older than competitors to respond to non-canonical challenge\");\n\n        PosLib.Position memory txPos = PosLib.decode(inFlightTxPos);\n        (bytes32 root, ) = self.framework.blocks(txPos.blockNum);\n        require(root != bytes32(\"\"), \"Failed to get the block root hash of the tx position\");\n\n        verifyPositionOfTransactionIncludedInBlock(\n            inFlightTx, txPos, root, inFlightTxInclusionProof\n        );\n\n        ife.oldestCompetitorPosition = inFlightTxPos;\n        ife.isCanonical = true;\n        ife.bondOwner = msg.sender;\n\n        emit InFlightExitChallengeResponded(msg.sender, keccak256(inFlightTx), inFlightTxPos);\n    }\n\n    function verifyPositionOfTransactionIncludedInBlock(\n        bytes memory txbytes,\n        PosLib.Position memory txPos,\n        bytes32 root,\n        bytes memory inclusionProof\n    )\n        private\n        pure\n    {\n        require(txPos.outputIndex == 0, \"Output index of txPos has to be 0\");\n        require(\n            Merkle.checkMembership(txbytes, txPos.txIndex, root, inclusionProof),\n            \"Transaction is not included in block of Plasma chain\"\n        );\n    }\n\n    function verifyCompetingTxFinalizedInThePosition(\n        Controller memory self,\n        PaymentInFlightExitRouterArgs.ChallengeCanonicityArgs memory args\n    )\n        private\n        view\n        returns (uint256)\n    {\n        // default to infinite low priority position\n        uint256 competitorPosition = ~uint256(0);\n\n        if (args.competingTxPos == 0) {\n            bool isProtocolFinalized = MoreVpFinalization.isProtocolFinalized(\n                self.framework,\n                args.competingTx\n            );\n            // MoreVP protocol finalization would only return false only when tx does not exists.\n            // Should fail already in early stages (eg. decode)\n            assert(isProtocolFinalized);\n        } else {\n            PosLib.Position memory competingTxPos = PosLib.decode(args.competingTxPos);\n            require(competingTxPos.outputIndex == 0, \"OutputIndex of competingTxPos should be 0\");\n\n            bool isStandardFinalized = MoreVpFinalization.isStandardFinalized(\n                self.framework,\n                args.competingTx,\n                competingTxPos,\n                args.competingTxInclusionProof\n            );\n            require(isStandardFinalized, \"Competing tx is not standard finalized with the given tx position\");\n            competitorPosition = args.competingTxPos;\n        }\n        return competitorPosition;\n    }\n}\n",
  "sourcePath": "/home/node/plasma-contracts/plasma_framework/contracts/src/exits/payment/controllers/PaymentChallengeIFENotCanonical.sol",
  "compiler": {
    "name": "solc",
    "version": "0.5.11+commit.c082d0b4.Emscripten.clang"
  },
  "schemaVersion": "3.0.16",
  "updatedAt": "2020-04-07T14:09:22.573Z",
  "devdoc": {
    "methods": {
      "buildController(PlasmaFramework,SpendingConditionRegistry,uint256)": {
        "return": "Controller struct of PaymentChallengeIFENotCanonical"
      },
      "challenge(PaymentChallengeIFENotCanonical.Controller,PaymentExitDataModel.InFlightExitMap storage,PaymentInFlightExitRouterArgs.ChallengeCanonicityArgs)": {
        "details": "emits InFlightExitChallenged event on success",
        "params": {
          "args": "Arguments of 'challengeInFlightExitNotCanonical' function from client",
          "inFlightExitMap": "The storage of all in-flight exit data",
          "self": "The controller struct"
        }
      },
      "respond(PaymentChallengeIFENotCanonical.Controller,PaymentExitDataModel.InFlightExitMap storage,bytes,uint256,bytes)": {
        "details": "emits InFlightExitChallengeResponded event on success",
        "params": {
          "inFlightExitMap": "The storage of all in-flight exit data",
          "inFlightTx": "The in-flight tx, in RLP-encoded bytes",
          "inFlightTxInclusionProof": "Inclusion proof for the in-flight tx",
          "inFlightTxPos": "The UTXO position of the in-flight exit. Should hardcode 0 for the outputIndex.",
          "self": "The controller struct"
        }
      }
    }
  },
  "userdoc": {
    "methods": {
      "buildController(PlasmaFramework,SpendingConditionRegistry,uint256)": {
        "notice": "Function that builds the controller struct"
      },
      "challenge(PaymentChallengeIFENotCanonical.Controller,PaymentExitDataModel.InFlightExitMap storage,PaymentInFlightExitRouterArgs.ChallengeCanonicityArgs)": {
        "notice": "Main logic implementation for 'challengeInFlightExitNotCanonical'"
      },
      "respond(PaymentChallengeIFENotCanonical.Controller,PaymentExitDataModel.InFlightExitMap storage,bytes,uint256,bytes)": {
        "notice": "Main logic implementation for 'respondToNonCanonicalChallenge'"
      }
    }
  }
}