{
  "contractName": "PaymentTransactionModelMock",
  "abi": [
    {
      "constant": true,
      "inputs": [
        {
          "internalType": "bytes",
          "name": "transaction",
          "type": "bytes"
        }
      ],
      "name": "decode",
      "outputs": [
        {
          "components": [
            {
              "internalType": "uint256",
              "name": "txType",
              "type": "uint256"
            },
            {
              "internalType": "bytes32[]",
              "name": "inputs",
              "type": "bytes32[]"
            },
            {
              "components": [
                {
                  "internalType": "uint256",
                  "name": "outputType",
                  "type": "uint256"
                },
                {
                  "internalType": "bytes20",
                  "name": "outputGuard",
                  "type": "bytes20"
                },
                {
                  "internalType": "address",
                  "name": "token",
                  "type": "address"
                },
                {
                  "internalType": "uint256",
                  "name": "amount",
                  "type": "uint256"
                }
              ],
              "internalType": "struct FungibleTokenOutputModel.Output[]",
              "name": "outputs",
              "type": "tuple[]"
            },
            {
              "internalType": "uint256",
              "name": "txData",
              "type": "uint256"
            },
            {
              "internalType": "bytes32",
              "name": "metaData",
              "type": "bytes32"
            }
          ],
          "internalType": "struct PaymentTransactionModel.Transaction",
          "name": "",
          "type": "tuple"
        }
      ],
      "payable": false,
      "stateMutability": "pure",
      "type": "function"
    },
    {
      "constant": true,
      "inputs": [
        {
          "internalType": "uint256",
          "name": "outputType",
          "type": "uint256"
        },
        {
          "internalType": "address",
          "name": "owner",
          "type": "address"
        },
        {
          "internalType": "address",
          "name": "token",
          "type": "address"
        },
        {
          "internalType": "uint256",
          "name": "amount",
          "type": "uint256"
        }
      ],
      "name": "getOutputOwner",
      "outputs": [
        {
          "internalType": "address payable",
          "name": "",
          "type": "address"
        }
      ],
      "payable": false,
      "stateMutability": "pure",
      "type": "function"
    },
    {
      "constant": true,
      "inputs": [
        {
          "internalType": "bytes",
          "name": "transaction",
          "type": "bytes"
        },
        {
          "internalType": "uint16",
          "name": "outputIndex",
          "type": "uint16"
        }
      ],
      "name": "getOutput",
      "outputs": [
        {
          "components": [
            {
              "internalType": "uint256",
              "name": "outputType",
              "type": "uint256"
            },
            {
              "internalType": "bytes20",
              "name": "outputGuard",
              "type": "bytes20"
            },
            {
              "internalType": "address",
              "name": "token",
              "type": "address"
            },
            {
              "internalType": "uint256",
              "name": "amount",
              "type": "uint256"
            }
          ],
          "internalType": "struct FungibleTokenOutputModel.Output",
          "name": "",
          "type": "tuple"
        }
      ],
      "payable": false,
      "stateMutability": "pure",
      "type": "function"
    }
  ],
  "bytecode": "0x608060405234801561001057600080fd5b50611b58806100206000396000f3fe608060405234801561001057600080fd5b50600436106100415760003560e01c806348cad70114610046578063a6870f761461006f578063e5c5e9a31461008f575b600080fd5b610059610054366004610e5a565b6100af565b6040516100669190611a2c565b60405180910390f35b61008261007d366004610eab565b6100de565b604051610066919061183e565b6100a261009d366004610e25565b610139565b6040516100669190611a3a565b6100b7610ce9565b6100bf610d10565b6100c884610152565b90506100d4818461016b565b9150505b92915050565b60006100e8610ce9565b60405180608001604052808781526020018660601b6bffffffffffffffffffffffff19168152602001856001600160a01b0316815260200184815250905061012f816101c8565b9695505050505050565b610141610d10565b61014a82610152565b90505b919050565b61015a610d10565b61014a610166836101d2565b610372565b610173610ce9565b8260400151518261ffff16106101a45760405162461bcd60e51b815260040161019b9061188c565b60405180910390fd5b82604001518261ffff16815181106101b857fe5b6020026020010151905092915050565b6020015160601c90565b6101da610d42565b60606101ed6101e884610571565b610596565b80519091506005146102115760405162461bcd60e51b815260040161019b9061190c565b60006102308260008151811061022357fe5b60200260200101516106a5565b9050600081116102525760405162461bcd60e51b815260040161019b9061184c565b60606102718360028151811061026457fe5b6020026020010151610596565b9050606081516040519080825280602002602001820160405280156102b057816020015b61029d610d77565b8152602001906001900390816102955790505b50905060005b82518110156102fa576102db8382815181106102ce57fe5b60200260200101516107bb565b8282815181106102e757fe5b60209081029190910101526001016102b6565b50600061031a8560048151811061030d57fe5b602002602001015161085f565b90506040518060a0016040528085815260200161033d8760018151811061026457fe5b81526020018381526020018660038151811061035557fe5b602002602001015181526020018281525095505050505050919050565b61037a610d10565b602082015151600410156103a05760405162461bcd60e51b815260040161019b906118cc565b6040820151516103c25760405162461bcd60e51b815260040161019b9061186c565b604082015151600410156103e85760405162461bcd60e51b815260040161019b906118bc565b6060826020015151604051908082528060200260200182016040528015610419578160200160208202803883390190505b50905060005b8360200151518110156104815760006104418560200151838151811061030d57fe5b9050806104605760405162461bcd60e51b815260040161019b906119ac565b8083838151811061046d57fe5b60209081029190910101525060010161041f565b5060608360400151516040519080825280602002602001820160405280156104c357816020015b6104b0610ce9565b8152602001906001900390816104a85790505b50905060005b846040015151811015610515576104f6856040015182815181106104e957fe5b60200260200101516108ec565b82828151811061050257fe5b60209081029190910101526001016104c9565b5061052384606001516106a5565b156105405760405162461bcd60e51b815260040161019b906118dc565b6040805160a08101825285518152602081019390935282015260006060820152608080840151908201529050919050565b610579610d96565b506040805180820190915281518152602082810190820152919050565b60606105a1826109fb565b6105bd5760405162461bcd60e51b815260040161019b9061198c565b6000806105cd8460200151610a35565b8551919350915082146105f25760405162461bcd60e51b815260040161019b906118ac565b60006105fd85610bde565b905060608160405190808252806020026020018201604052801561063b57816020015b610628610d96565b8152602001906001900390816106205790505b50602087015190915083016000805b848110156106985761065b83610a35565b508092505060405180604001604052808381526020018481525084828151811061068157fe5b60209081029190910101529181019160010161064a565b5091979650505050505050565b8051600090158015906106ba57508151602110155b6106d65760405162461bcd60e51b815260040161019b90611a1c565b6106df826109fb565b156106fc5760405162461bcd60e51b815260040161019b9061199c565b60008061070c8460200151610a35565b8551919350915082146107315760405162461bcd60e51b815260040161019b9061187c565b60208085015182018051838503929091600083901a9184101561075b57836020036101000a830492505b81158015610767575084155b156107845760405162461bcd60e51b815260040161019b9061192c565b811580156107925750600184115b156107af5760405162461bcd60e51b815260040161019b9061185c565b50909695505050505050565b6107c3610d77565b60606107ce83610596565b905080516002146107f15760405162461bcd60e51b815260040161019b9061196c565b6107f9610d77565b60405180604001604052806108148460008151811061022357fe5b81526020018360018151811061082657fe5b602002602001015181525090508060000151600014156108585760405162461bcd60e51b815260040161019b906119bc565b9392505050565b80516000906021146108835760405162461bcd60e51b815260040161019b90611a0c565b61088c826109fb565b156108a95760405162461bcd60e51b815260040161019b9061199c565b6000806108b98460200151610a35565b91509150816021146108dd5760405162461bcd60e51b815260040161019b906119dc565b60208401510151915050919050565b6108f4610ce9565b60606109038360200151610596565b905080516003146109265760405162461bcd60e51b815260040161019b906118ec565b61092e610ce9565b6040518060800160405280856000015181526020016109608460008151811061095357fe5b6020026020010151610c55565b60601b6bffffffffffffffffffffffff191681526020016109878460018151811061095357fe5b6001600160a01b031681526020016109a58460028151811061022357fe5b905260608101519091506109cb5760405162461bcd60e51b815260040161019b9061191c565b60208101516bffffffffffffffffffffffff19166108585760405162461bcd60e51b815260040161019b9061194c565b8051600090610a0c5750600061014d565b6020820151805160001a9060c0821015610a2b5760009250505061014d565b5060019392505050565b8051600090819081908190811a6080811015610a58576001925060009150610bd3565b60808110801590610a69575060b881105b15610ab257607e19810192506002831415610aa957600186015160001a6080811015610aa75760405162461bcd60e51b815260040161019b906119ec565b505b60019150610bd3565b60b88110801590610ac3575060c081105b15610b3d5760019590950180519095602081900360b7016101000a820480820160b519019450909160001a60b619830181610b105760405162461bcd60e51b815260040161019b906118fc565b60378311610b305760405162461bcd60e51b815260040161019b9061189c565b6001019350610bd3915050565b60c08110801590610b4e575060f881105b15610b635760be198101925060019150610bd3565b60019590950180519095602081900360f7016101000a820480820160f519019450909160001a60f619830181610bab5760405162461bcd60e51b815260040161019b9061197c565b60378311610bcb5760405162461bcd60e51b815260040161019b9061195c565b600101935050505b509092509050915091565b600080600090506000610bf48460200151610a35565b602086015186519193508084019250015b80821015610c4b576000610c1883610a35565b5092830192905081831115610c3f5760405162461bcd60e51b815260040161019b9061193c565b50600190930192610c05565b5091949350505050565b8051600090601514610c795760405162461bcd60e51b815260040161019b906119cc565b610c82826109fb565b15610c9f5760405162461bcd60e51b815260040161019b9061199c565b600080610caf8460200151610a35565b9150915081601514610cd35760405162461bcd60e51b815260040161019b906119fc565b60208401510151600160601b9004915050919050565b60408051608081018252600080825260208201819052918101829052606081019190915290565b6040518060a0016040528060008152602001606081526020016060815260200160008152602001600080191681525090565b6040518060a00160405280600081526020016060815260200160608152602001610d6a610d96565b8152600060209091015290565b604051806040016040528060008152602001610d91610d96565b905290565b604051806040016040528060008152602001600081525090565b80356100d881611aec565b600082601f830112610dcc57600080fd5b8135610ddf610dda82611a72565b611a4b565b91508082526020830160208301858383011115610dfb57600080fd5b610e06838284611ae0565b50505092915050565b80356100d881611b03565b80356100d881611b0c565b600060208284031215610e3757600080fd5b813567ffffffffffffffff811115610e4e57600080fd5b6100d484828501610dbb565b60008060408385031215610e6d57600080fd5b823567ffffffffffffffff811115610e8457600080fd5b610e9085828601610dbb565b9250506020610ea185828601610e0f565b9150509250929050565b60008060008060808587031215610ec157600080fd5b6000610ecd8787610e1a565b9450506020610ede87828801610db0565b9350506040610eef87828801610db0565b9250506060610f0087828801610e1a565b91505092959194509250565b6000610f188383610ff3565b505060200190565b6000610f2c8383611778565b505060800190565b610f3d81611aad565b82525050565b6000610f4e82611aa0565b610f588185611aa4565b9350610f6383611a9a565b8060005b83811015610f91578151610f7b8882610f0c565b9750610f8683611a9a565b925050600101610f67565b509495945050505050565b6000610fa782611aa0565b610fb18185611aa4565b9350610fbc83611a9a565b8060005b83811015610f91578151610fd48882610f20565b9750610fdf83611a9a565b925050600101610fc0565b610f3d81611ab8565b610f3d81611aca565b6000611009601e83611aa4565b7f5472616e73616374696f6e2074797065206d757374206e6f7420626520300000815260200192915050565b6000611042601983611aa4565b7f4c656164696e67207a65726f732061726520696e76616c696400000000000000815260200192915050565b600061107b602183611aa4565b7f5472616e73616374696f6e2063616e6e6f7420686176652030206f75747075748152607360f81b602082015260400192915050565b60006110be603a83611aa4565b7f4465636f646564206974656d206c656e677468206d757374206265206571756181527f6c20746f2074686520696e7075742064617461206c656e677468000000000000602082015260400192915050565b600061111d601a83611aa4565b7f4f757470757420696e646578206f7574206f6620626f756e6473000000000000815260200192915050565b6000611156602083611aa4565b7f496e76616c6964206c656e67746820666f722061206c6f6e6720737472696e67815260200192915050565b600061118f602683611aa4565b7f4465636f64656420524c50206c656e67746820666f72206c69737420697320698152651b9d985b1a5960d21b602082015260400192915050565b60006111d7602583611aa4565b7f5472616e73616374696f6e206f757470757473206e756d2065786365656473208152641b1a5b5a5d60da1b602082015260400192915050565b600061121e602483611aa4565b7f5472616e73616374696f6e20696e70757473206e756d2065786365656473206c8152631a5b5a5d60e21b602082015260400192915050565b6000611264601083611aa4565b6f0747844617461206d75737420626520360841b815260200192915050565b6000611290601d83611aa4565b7f4f75747075742064617461206d75737420686176652033206974656d73000000815260200192915050565b60006112c9603f83611aa4565b7f496e76616c6964206c656164696e67207a65726f7320696e206c656e6774682081527f6f6620746865206c656e67746820666f722061206c6f6e6720737472696e6700602082015260400192915050565b6000611328601f83611aa4565b7f496e76616c696420656e636f64696e67206f66207472616e73616374696f6e00815260200192915050565b6000611361601b83611aa4565b7f4f757470757420616d6f756e74206d757374206e6f7420626520300000000000815260200192915050565b600061139a602283611aa4565b7f5363616c617220302073686f756c6420626520656e636f646564206173203078815261038360f41b602082015260400192915050565b60006113de604883611aa4565b7f496e76616c6964206465636f646564206c656e677468206f6620524c5020697481527f656d20666f756e6420647572696e6720636f756e74696e67206974656d7320696020820152671b8818481b1a5cdd60c21b604082015260600192915050565b600061144e602083611aa4565b7f4f7574707574206f75747075744775617264206d757374206e6f742062652030815260200192915050565b6000611487601e83611aa4565b7f496e76616c6964206c656e67746820666f722061206c6f6e67206c6973740000815260200192915050565b60006114c0601883611aa4565b7f4f7574707574206d75737420686176652032206974656d730000000000000000815260200192915050565b60006114f9603d83611aa4565b7f496e76616c6964206c656164696e67207a65726f7320696e206c656e6774682081527f6f6620746865206c656e67746820666f722061206c6f6e67206c697374000000602082015260400192915050565b6000611558601283611aa4565b71125d195b481a5cc81b9bdd0818481b1a5cdd60721b815260200192915050565b6000611586601783611aa4565b7f4974656d206d757374206e6f742062652061206c697374000000000000000000815260200192915050565b60006115bf601683611aa4565b75139d5b1b081a5b9c1d5d081b9bdd08185b1b1bddd95960521b815260200192915050565b60006115f1601983611aa4565b7f4f75747075742074797065206d757374206e6f74206265203000000000000000815260200192915050565b600061162a601683611aa4565b754974656d206c656e677468206d75737420626520323160501b815260200192915050565b600061165c601e83611aa4565b7f4465636f646564206974656d206c656e677468206d7573742062652033330000815260200192915050565b6000611695601d83611aa4565b7f496e76616c69642073686f727420737472696e6720656e636f64696e67000000815260200192915050565b60006116ce601e83611aa4565b7f4465636f646564206974656d206c656e677468206d7573742062652032310000815260200192915050565b6000611707601683611aa4565b754974656d206c656e677468206d75737420626520333360501b815260200192915050565b6000611739602a83611aa4565b7f4974656d206c656e677468206d757374206265206265747765656e203120616e8152696420333320627974657360b01b602082015260400192915050565b805160808301906117898482610ff3565b50602082015161179c6020850182610fea565b5060408201516117af6040850182610f34565b5060608201516117c26060850182610ff3565b50505050565b805160009060a08401906117dc8582610ff3565b50602083015184820360208601526117f48282610f43565b9150506040830151848203604086015261180e8282610f9c565b91505060608301516118236060860182610ff3565b5060808301516118366080860182610ff3565b509392505050565b602081016100d88284610f34565b6020808252810161014a81610ffc565b6020808252810161014a81611035565b6020808252810161014a8161106e565b6020808252810161014a816110b1565b6020808252810161014a81611110565b6020808252810161014a81611149565b6020808252810161014a81611182565b6020808252810161014a816111ca565b6020808252810161014a81611211565b6020808252810161014a81611257565b6020808252810161014a81611283565b6020808252810161014a816112bc565b6020808252810161014a8161131b565b6020808252810161014a81611354565b6020808252810161014a8161138d565b6020808252810161014a816113d1565b6020808252810161014a81611441565b6020808252810161014a8161147a565b6020808252810161014a816114b3565b6020808252810161014a816114ec565b6020808252810161014a8161154b565b6020808252810161014a81611579565b6020808252810161014a816115b2565b6020808252810161014a816115e4565b6020808252810161014a8161161d565b6020808252810161014a8161164f565b6020808252810161014a81611688565b6020808252810161014a816116c1565b6020808252810161014a816116fa565b6020808252810161014a8161172c565b608081016100d88284611778565b6020808252810161085881846117c8565b60405181810167ffffffffffffffff81118282101715611a6a57600080fd5b604052919050565b600067ffffffffffffffff821115611a8957600080fd5b506020601f91909101601f19160190565b60200190565b5190565b90815260200190565b600061014a82611ad4565b6bffffffffffffffffffffffff191690565b90565b61ffff1690565b6001600160a01b031690565b82818337506000910152565b611af581611aad565b8114611b0057600080fd5b50565b611af581611acd565b611af581611aca56fea365627a7a723158208235bf96940c0909529898e7f1df7edc43b4cb41b02a0bae0a7bef91d0be02fc6c6578706572696d656e74616cf564736f6c634300050b0040",
  "source": "pragma solidity 0.5.11;\npragma experimental ABIEncoderV2;\n\nimport \"../../src/transactions/PaymentTransactionModel.sol\";\n\ncontract PaymentTransactionModelMock {\n    using RLPReader for bytes;\n\n    function decode(bytes memory transaction) public pure returns (PaymentTransactionModel.Transaction memory) {\n        return PaymentTransactionModel.decode(transaction);\n    }\n\n    function getOutputOwner(uint256 outputType, address owner, address token, uint256 amount) public pure returns (address payable) {\n        FungibleTokenOutputModel.Output memory output = FungibleTokenOutputModel.Output({\n            outputType: outputType,\n            outputGuard: bytes20(owner),\n            token: token,\n            amount: amount\n        });\n        return PaymentTransactionModel.getOutputOwner(output);\n    }\n\n    function getOutput(bytes memory transaction, uint16 outputIndex) public pure returns (FungibleTokenOutputModel.Output memory) {\n        PaymentTransactionModel.Transaction memory decodedTx = PaymentTransactionModel.decode(transaction);\n        return PaymentTransactionModel.getOutput(decodedTx, outputIndex);\n    }\n}\n",
  "sourcePath": "/home/node/plasma-contracts/plasma_framework/contracts/mocks/transactions/PaymentTransactionModelMock.sol",
  "compiler": {
    "name": "solc",
    "version": "0.5.11+commit.c082d0b4.Emscripten.clang"
  },
  "schemaVersion": "3.0.16",
  "updatedAt": "2020-04-07T14:07:49.574Z",
  "devdoc": {
    "methods": {}
  },
  "userdoc": {
    "methods": {}
  }
}