{
  "contractName": "PaymentInFlightExitRouterMock",
  "abi": [
    {
      "constant": false,
      "inputs": [
        {
          "components": [
            {
              "internalType": "bytes",
              "name": "inFlightTx",
              "type": "bytes"
            },
            {
              "internalType": "bytes",
              "name": "inFlightTxInclusionProof",
              "type": "bytes"
            },
            {
              "internalType": "uint256",
              "name": "outputUtxoPos",
              "type": "uint256"
            },
            {
              "internalType": "bytes",
              "name": "challengingTx",
              "type": "bytes"
            },
            {
              "internalType": "uint16",
              "name": "challengingTxInputIndex",
              "type": "uint16"
            },
            {
              "internalType": "bytes",
              "name": "challengingTxWitness",
              "type": "bytes"
            },
            {
              "internalType": "bytes32",
              "name": "senderData",
              "type": "bytes32"
            }
          ],
          "internalType": "struct PaymentInFlightExitRouterArgs.ChallengeOutputSpent",
          "name": "args",
          "type": "tuple"
        }
      ],
      "name": "challengeInFlightExitOutputSpent",
      "outputs": [],
      "payable": false,
      "stateMutability": "nonpayable",
      "type": "function"
    },
    {
      "constant": false,
      "inputs": [
        {
          "internalType": "uint128",
          "name": "newBondSize",
          "type": "uint128"
        }
      ],
      "name": "updatePiggybackBondSize",
      "outputs": [],
      "payable": false,
      "stateMutability": "nonpayable",
      "type": "function"
    },
    {
      "constant": false,
      "inputs": [
        {
          "internalType": "bytes",
          "name": "inFlightTx",
          "type": "bytes"
        },
        {
          "internalType": "uint256",
          "name": "inFlightTxPos",
          "type": "uint256"
        },
        {
          "internalType": "bytes",
          "name": "inFlightTxInclusionProof",
          "type": "bytes"
        }
      ],
      "name": "respondToNonCanonicalChallenge",
      "outputs": [],
      "payable": false,
      "stateMutability": "nonpayable",
      "type": "function"
    },
    {
      "constant": true,
      "inputs": [],
      "name": "piggybackBondSize",
      "outputs": [
        {
          "internalType": "uint128",
          "name": "",
          "type": "uint128"
        }
      ],
      "payable": false,
      "stateMutability": "view",
      "type": "function"
    },
    {
      "constant": false,
      "inputs": [
        {
          "components": [
            {
              "internalType": "bytes",
              "name": "inFlightTx",
              "type": "bytes"
            },
            {
              "internalType": "bytes[]",
              "name": "inputTxs",
              "type": "bytes[]"
            },
            {
              "internalType": "uint256[]",
              "name": "inputUtxosPos",
              "type": "uint256[]"
            },
            {
              "internalType": "bytes[]",
              "name": "inputTxsInclusionProofs",
              "type": "bytes[]"
            },
            {
              "internalType": "bytes[]",
              "name": "inFlightTxWitnesses",
              "type": "bytes[]"
            }
          ],
          "internalType": "struct PaymentInFlightExitRouterArgs.StartExitArgs",
          "name": "args",
          "type": "tuple"
        }
      ],
      "name": "startInFlightExit",
      "outputs": [],
      "payable": true,
      "stateMutability": "payable",
      "type": "function"
    },
    {
      "constant": true,
      "inputs": [],
      "name": "startIFEBondSize",
      "outputs": [
        {
          "internalType": "uint128",
          "name": "",
          "type": "uint128"
        }
      ],
      "payable": false,
      "stateMutability": "view",
      "type": "function"
    },
    {
      "constant": true,
      "inputs": [],
      "name": "INITIAL_PB_BOND_SIZE",
      "outputs": [
        {
          "internalType": "uint128",
          "name": "",
          "type": "uint128"
        }
      ],
      "payable": false,
      "stateMutability": "view",
      "type": "function"
    },
    {
      "constant": true,
      "inputs": [],
      "name": "BOND_LOWER_BOUND_DIVISOR",
      "outputs": [
        {
          "internalType": "uint16",
          "name": "",
          "type": "uint16"
        }
      ],
      "payable": false,
      "stateMutability": "view",
      "type": "function"
    },
    {
      "constant": true,
      "inputs": [],
      "name": "BOND_UPPER_BOUND_MULTIPLIER",
      "outputs": [
        {
          "internalType": "uint16",
          "name": "",
          "type": "uint16"
        }
      ],
      "payable": false,
      "stateMutability": "view",
      "type": "function"
    },
    {
      "constant": false,
      "inputs": [
        {
          "components": [
            {
              "internalType": "bytes",
              "name": "inFlightTx",
              "type": "bytes"
            },
            {
              "internalType": "uint16",
              "name": "outputIndex",
              "type": "uint16"
            }
          ],
          "internalType": "struct PaymentInFlightExitRouterArgs.PiggybackInFlightExitOnOutputArgs",
          "name": "args",
          "type": "tuple"
        }
      ],
      "name": "piggybackInFlightExitOnOutput",
      "outputs": [],
      "payable": true,
      "stateMutability": "payable",
      "type": "function"
    },
    {
      "constant": false,
      "inputs": [
        {
          "internalType": "uint128",
          "name": "newBondSize",
          "type": "uint128"
        }
      ],
      "name": "updateStartIFEBondSize",
      "outputs": [],
      "payable": false,
      "stateMutability": "nonpayable",
      "type": "function"
    },
    {
      "constant": false,
      "inputs": [
        {
          "internalType": "uint160",
          "name": "exitId",
          "type": "uint160"
        }
      ],
      "name": "deleteNonPiggybackedInFlightExit",
      "outputs": [],
      "payable": false,
      "stateMutability": "nonpayable",
      "type": "function"
    },
    {
      "constant": false,
      "inputs": [
        {
          "components": [
            {
              "internalType": "bytes",
              "name": "inFlightTx",
              "type": "bytes"
            },
            {
              "internalType": "uint16",
              "name": "inFlightTxInputIndex",
              "type": "uint16"
            },
            {
              "internalType": "bytes",
              "name": "challengingTx",
              "type": "bytes"
            },
            {
              "internalType": "uint16",
              "name": "challengingTxInputIndex",
              "type": "uint16"
            },
            {
              "internalType": "bytes",
              "name": "challengingTxWitness",
              "type": "bytes"
            },
            {
              "internalType": "bytes",
              "name": "inputTx",
              "type": "bytes"
            },
            {
              "internalType": "uint256",
              "name": "inputUtxoPos",
              "type": "uint256"
            },
            {
              "internalType": "bytes32",
              "name": "senderData",
              "type": "bytes32"
            }
          ],
          "internalType": "struct PaymentInFlightExitRouterArgs.ChallengeInputSpentArgs",
          "name": "args",
          "type": "tuple"
        }
      ],
      "name": "challengeInFlightExitInputSpent",
      "outputs": [],
      "payable": false,
      "stateMutability": "nonpayable",
      "type": "function"
    },
    {
      "constant": true,
      "inputs": [],
      "name": "INITIAL_IFE_BOND_SIZE",
      "outputs": [
        {
          "internalType": "uint128",
          "name": "",
          "type": "uint128"
        }
      ],
      "payable": false,
      "stateMutability": "view",
      "type": "function"
    },
    {
      "constant": true,
      "inputs": [
        {
          "internalType": "uint160[]",
          "name": "exitIds",
          "type": "uint160[]"
        }
      ],
      "name": "inFlightExits",
      "outputs": [
        {
          "components": [
            {
              "internalType": "bool",
              "name": "isCanonical",
              "type": "bool"
            },
            {
              "internalType": "uint64",
              "name": "exitStartTimestamp",
              "type": "uint64"
            },
            {
              "internalType": "uint256",
              "name": "exitMap",
              "type": "uint256"
            },
            {
              "internalType": "uint256",
              "name": "position",
              "type": "uint256"
            },
            {
              "components": [
                {
                  "internalType": "bytes32",
                  "name": "outputId",
                  "type": "bytes32"
                },
                {
                  "internalType": "address payable",
                  "name": "exitTarget",
                  "type": "address"
                },
                {
                  "internalType": "address",
                  "name": "token",
                  "type": "address"
                },
                {
                  "internalType": "uint256",
                  "name": "amount",
                  "type": "uint256"
                },
                {
                  "internalType": "uint256",
                  "name": "piggybackBondSize",
                  "type": "uint256"
                }
              ],
              "internalType": "struct PaymentExitDataModel.WithdrawData[4]",
              "name": "inputs",
              "type": "tuple[4]"
            },
            {
              "components": [
                {
                  "internalType": "bytes32",
                  "name": "outputId",
                  "type": "bytes32"
                },
                {
                  "internalType": "address payable",
                  "name": "exitTarget",
                  "type": "address"
                },
                {
                  "internalType": "address",
                  "name": "token",
                  "type": "address"
                },
                {
                  "internalType": "uint256",
                  "name": "amount",
                  "type": "uint256"
                },
                {
                  "internalType": "uint256",
                  "name": "piggybackBondSize",
                  "type": "uint256"
                }
              ],
              "internalType": "struct PaymentExitDataModel.WithdrawData[4]",
              "name": "outputs",
              "type": "tuple[4]"
            },
            {
              "internalType": "address payable",
              "name": "bondOwner",
              "type": "address"
            },
            {
              "internalType": "uint256",
              "name": "bondSize",
              "type": "uint256"
            },
            {
              "internalType": "uint256",
              "name": "oldestCompetitorPosition",
              "type": "uint256"
            }
          ],
          "internalType": "struct PaymentExitDataModel.InFlightExit[]",
          "name": "",
          "type": "tuple[]"
        }
      ],
      "payable": false,
      "stateMutability": "view",
      "type": "function"
    },
    {
      "constant": false,
      "inputs": [
        {
          "components": [
            {
              "internalType": "bytes",
              "name": "inFlightTx",
              "type": "bytes"
            },
            {
              "internalType": "uint16",
              "name": "inputIndex",
              "type": "uint16"
            }
          ],
          "internalType": "struct PaymentInFlightExitRouterArgs.PiggybackInFlightExitOnInputArgs",
          "name": "args",
          "type": "tuple"
        }
      ],
      "name": "piggybackInFlightExitOnInput",
      "outputs": [],
      "payable": true,
      "stateMutability": "payable",
      "type": "function"
    },
    {
      "constant": false,
      "inputs": [
        {
          "components": [
            {
              "internalType": "bytes",
              "name": "inputTx",
              "type": "bytes"
            },
            {
              "internalType": "uint256",
              "name": "inputUtxoPos",
              "type": "uint256"
            },
            {
              "internalType": "bytes",
              "name": "inFlightTx",
              "type": "bytes"
            },
            {
              "internalType": "uint16",
              "name": "inFlightTxInputIndex",
              "type": "uint16"
            },
            {
              "internalType": "bytes",
              "name": "competingTx",
              "type": "bytes"
            },
            {
              "internalType": "uint16",
              "name": "competingTxInputIndex",
              "type": "uint16"
            },
            {
              "internalType": "uint256",
              "name": "competingTxPos",
              "type": "uint256"
            },
            {
              "internalType": "bytes",
              "name": "competingTxInclusionProof",
              "type": "bytes"
            },
            {
              "internalType": "bytes",
              "name": "competingTxWitness",
              "type": "bytes"
            }
          ],
          "internalType": "struct PaymentInFlightExitRouterArgs.ChallengeCanonicityArgs",
          "name": "args",
          "type": "tuple"
        }
      ],
      "name": "challengeInFlightExitNotCanonical",
      "outputs": [],
      "payable": false,
      "stateMutability": "nonpayable",
      "type": "function"
    },
    {
      "constant": true,
      "inputs": [],
      "name": "framework",
      "outputs": [
        {
          "internalType": "contract PlasmaFramework",
          "name": "",
          "type": "address"
        }
      ],
      "payable": false,
      "stateMutability": "view",
      "type": "function"
    },
    {
      "inputs": [
        {
          "components": [
            {
              "internalType": "contract PlasmaFramework",
              "name": "framework",
              "type": "address"
            },
            {
              "internalType": "uint256",
              "name": "ethVaultId",
              "type": "uint256"
            },
            {
              "internalType": "uint256",
              "name": "erc20VaultId",
              "type": "uint256"
            },
            {
              "internalType": "contract SpendingConditionRegistry",
              "name": "spendingConditionRegistry",
              "type": "address"
            },
            {
              "internalType": "contract IStateTransitionVerifier",
              "name": "stateTransitionVerifier",
              "type": "address"
            },
            {
              "internalType": "uint256",
              "name": "supportTxType",
              "type": "uint256"
            },
            {
              "internalType": "uint256",
              "name": "safeGasStipend",
              "type": "uint256"
            }
          ],
          "internalType": "struct PaymentExitGameArgs.Args",
          "name": "args",
          "type": "tuple"
        }
      ],
      "payable": false,
      "stateMutability": "nonpayable",
      "type": "constructor"
    },
    {
      "anonymous": false,
      "inputs": [
        {
          "indexed": false,
          "internalType": "uint128",
          "name": "bondSize",
          "type": "uint128"
        }
      ],
      "name": "IFEBondUpdated",
      "type": "event"
    },
    {
      "anonymous": false,
      "inputs": [
        {
          "indexed": false,
          "internalType": "uint128",
          "name": "bondSize",
          "type": "uint128"
        }
      ],
      "name": "PiggybackBondUpdated",
      "type": "event"
    },
    {
      "anonymous": false,
      "inputs": [
        {
          "indexed": true,
          "internalType": "address",
          "name": "initiator",
          "type": "address"
        },
        {
          "indexed": true,
          "internalType": "bytes32",
          "name": "txHash",
          "type": "bytes32"
        }
      ],
      "name": "InFlightExitStarted",
      "type": "event"
    },
    {
      "anonymous": false,
      "inputs": [
        {
          "indexed": true,
          "internalType": "address",
          "name": "exitTarget",
          "type": "address"
        },
        {
          "indexed": true,
          "internalType": "bytes32",
          "name": "txHash",
          "type": "bytes32"
        },
        {
          "indexed": false,
          "internalType": "uint16",
          "name": "inputIndex",
          "type": "uint16"
        }
      ],
      "name": "InFlightExitInputPiggybacked",
      "type": "event"
    },
    {
      "anonymous": false,
      "inputs": [
        {
          "indexed": true,
          "internalType": "uint160",
          "name": "exitId",
          "type": "uint160"
        },
        {
          "indexed": false,
          "internalType": "address",
          "name": "token",
          "type": "address"
        }
      ],
      "name": "InFlightExitOmitted",
      "type": "event"
    },
    {
      "anonymous": false,
      "inputs": [
        {
          "indexed": true,
          "internalType": "address",
          "name": "receiver",
          "type": "address"
        },
        {
          "indexed": false,
          "internalType": "uint256",
          "name": "amount",
          "type": "uint256"
        }
      ],
      "name": "InFlightBondReturnFailed",
      "type": "event"
    },
    {
      "anonymous": false,
      "inputs": [
        {
          "indexed": true,
          "internalType": "uint160",
          "name": "exitId",
          "type": "uint160"
        },
        {
          "indexed": false,
          "internalType": "uint16",
          "name": "outputIndex",
          "type": "uint16"
        }
      ],
      "name": "InFlightExitOutputWithdrawn",
      "type": "event"
    },
    {
      "anonymous": false,
      "inputs": [
        {
          "indexed": true,
          "internalType": "uint160",
          "name": "exitId",
          "type": "uint160"
        },
        {
          "indexed": false,
          "internalType": "uint16",
          "name": "inputIndex",
          "type": "uint16"
        }
      ],
      "name": "InFlightExitInputWithdrawn",
      "type": "event"
    },
    {
      "anonymous": false,
      "inputs": [
        {
          "indexed": true,
          "internalType": "address",
          "name": "exitTarget",
          "type": "address"
        },
        {
          "indexed": true,
          "internalType": "bytes32",
          "name": "txHash",
          "type": "bytes32"
        },
        {
          "indexed": false,
          "internalType": "uint16",
          "name": "outputIndex",
          "type": "uint16"
        }
      ],
      "name": "InFlightExitOutputPiggybacked",
      "type": "event"
    },
    {
      "anonymous": false,
      "inputs": [
        {
          "indexed": true,
          "internalType": "address",
          "name": "challenger",
          "type": "address"
        },
        {
          "indexed": true,
          "internalType": "bytes32",
          "name": "txHash",
          "type": "bytes32"
        },
        {
          "indexed": false,
          "internalType": "uint256",
          "name": "challengeTxPosition",
          "type": "uint256"
        }
      ],
      "name": "InFlightExitChallenged",
      "type": "event"
    },
    {
      "anonymous": false,
      "inputs": [
        {
          "indexed": true,
          "internalType": "address",
          "name": "challenger",
          "type": "address"
        },
        {
          "indexed": true,
          "internalType": "bytes32",
          "name": "txHash",
          "type": "bytes32"
        },
        {
          "indexed": false,
          "internalType": "uint256",
          "name": "challengeTxPosition",
          "type": "uint256"
        }
      ],
      "name": "InFlightExitChallengeResponded",
      "type": "event"
    },
    {
      "anonymous": false,
      "inputs": [
        {
          "indexed": true,
          "internalType": "address",
          "name": "challenger",
          "type": "address"
        },
        {
          "indexed": true,
          "internalType": "bytes32",
          "name": "txHash",
          "type": "bytes32"
        },
        {
          "indexed": false,
          "internalType": "uint16",
          "name": "inputIndex",
          "type": "uint16"
        }
      ],
      "name": "InFlightExitInputBlocked",
      "type": "event"
    },
    {
      "anonymous": false,
      "inputs": [
        {
          "indexed": true,
          "internalType": "address",
          "name": "challenger",
          "type": "address"
        },
        {
          "indexed": true,
          "internalType": "bytes32",
          "name": "txHash",
          "type": "bytes32"
        },
        {
          "indexed": false,
          "internalType": "uint16",
          "name": "outputIndex",
          "type": "uint16"
        }
      ],
      "name": "InFlightExitOutputBlocked",
      "type": "event"
    },
    {
      "anonymous": false,
      "inputs": [
        {
          "indexed": true,
          "internalType": "uint160",
          "name": "exitId",
          "type": "uint160"
        }
      ],
      "name": "InFlightExitDeleted",
      "type": "event"
    },
    {
      "constant": false,
      "inputs": [
        {
          "internalType": "uint160",
          "name": "exitId",
          "type": "uint160"
        },
        {
          "internalType": "uint256",
          "name": "",
          "type": "uint256"
        },
        {
          "internalType": "address",
          "name": "ercContract",
          "type": "address"
        }
      ],
      "name": "processExit",
      "outputs": [],
      "payable": false,
      "stateMutability": "nonpayable",
      "type": "function"
    },
    {
      "constant": false,
      "inputs": [
        {
          "internalType": "uint160",
          "name": "exitId",
          "type": "uint160"
        },
        {
          "components": [
            {
              "internalType": "bool",
              "name": "isCanonical",
              "type": "bool"
            },
            {
              "internalType": "uint64",
              "name": "exitStartTimestamp",
              "type": "uint64"
            },
            {
              "internalType": "uint256",
              "name": "exitMap",
              "type": "uint256"
            },
            {
              "internalType": "uint256",
              "name": "position",
              "type": "uint256"
            },
            {
              "components": [
                {
                  "internalType": "bytes32",
                  "name": "outputId",
                  "type": "bytes32"
                },
                {
                  "internalType": "address payable",
                  "name": "exitTarget",
                  "type": "address"
                },
                {
                  "internalType": "address",
                  "name": "token",
                  "type": "address"
                },
                {
                  "internalType": "uint256",
                  "name": "amount",
                  "type": "uint256"
                },
                {
                  "internalType": "uint256",
                  "name": "piggybackBondSize",
                  "type": "uint256"
                }
              ],
              "internalType": "struct PaymentExitDataModel.WithdrawData[4]",
              "name": "inputs",
              "type": "tuple[4]"
            },
            {
              "components": [
                {
                  "internalType": "bytes32",
                  "name": "outputId",
                  "type": "bytes32"
                },
                {
                  "internalType": "address payable",
                  "name": "exitTarget",
                  "type": "address"
                },
                {
                  "internalType": "address",
                  "name": "token",
                  "type": "address"
                },
                {
                  "internalType": "uint256",
                  "name": "amount",
                  "type": "uint256"
                },
                {
                  "internalType": "uint256",
                  "name": "piggybackBondSize",
                  "type": "uint256"
                }
              ],
              "internalType": "struct PaymentExitDataModel.WithdrawData[4]",
              "name": "outputs",
              "type": "tuple[4]"
            },
            {
              "internalType": "address payable",
              "name": "bondOwner",
              "type": "address"
            },
            {
              "internalType": "uint256",
              "name": "bondSize",
              "type": "uint256"
            },
            {
              "internalType": "uint256",
              "name": "oldestCompetitorPosition",
              "type": "uint256"
            }
          ],
          "internalType": "struct PaymentExitDataModel.InFlightExit",
          "name": "exit",
          "type": "tuple"
        }
      ],
      "name": "setInFlightExit",
      "outputs": [],
      "payable": false,
      "stateMutability": "nonpayable",
      "type": "function"
    },
    {
      "constant": true,
      "inputs": [
        {
          "internalType": "uint160",
          "name": "exitId",
          "type": "uint160"
        },
        {
          "internalType": "uint16",
          "name": "inputIndex",
          "type": "uint16"
        }
      ],
      "name": "getInFlightExitInput",
      "outputs": [
        {
          "components": [
            {
              "internalType": "bytes32",
              "name": "outputId",
              "type": "bytes32"
            },
            {
              "internalType": "address payable",
              "name": "exitTarget",
              "type": "address"
            },
            {
              "internalType": "address",
              "name": "token",
              "type": "address"
            },
            {
              "internalType": "uint256",
              "name": "amount",
              "type": "uint256"
            },
            {
              "internalType": "uint256",
              "name": "piggybackBondSize",
              "type": "uint256"
            }
          ],
          "internalType": "struct PaymentExitDataModel.WithdrawData",
          "name": "",
          "type": "tuple"
        }
      ],
      "payable": false,
      "stateMutability": "view",
      "type": "function"
    },
    {
      "constant": false,
      "inputs": [
        {
          "internalType": "uint160",
          "name": "exitId",
          "type": "uint160"
        },
        {
          "internalType": "uint16",
          "name": "inputIndex",
          "type": "uint16"
        }
      ],
      "name": "setInFlightExitInputPiggybacked",
      "outputs": [],
      "payable": true,
      "stateMutability": "payable",
      "type": "function"
    },
    {
      "constant": false,
      "inputs": [
        {
          "internalType": "uint160",
          "name": "exitId",
          "type": "uint160"
        },
        {
          "internalType": "uint16",
          "name": "outputIndex",
          "type": "uint16"
        }
      ],
      "name": "setInFlightExitOutputPiggybacked",
      "outputs": [],
      "payable": true,
      "stateMutability": "payable",
      "type": "function"
    },
    {
      "constant": true,
      "inputs": [
        {
          "internalType": "uint160",
          "name": "exitId",
          "type": "uint160"
        },
        {
          "internalType": "uint16",
          "name": "outputIndex",
          "type": "uint16"
        }
      ],
      "name": "getInFlightExitOutput",
      "outputs": [
        {
          "components": [
            {
              "internalType": "bytes32",
              "name": "outputId",
              "type": "bytes32"
            },
            {
              "internalType": "address payable",
              "name": "exitTarget",
              "type": "address"
            },
            {
              "internalType": "address",
              "name": "token",
              "type": "address"
            },
            {
              "internalType": "uint256",
              "name": "amount",
              "type": "uint256"
            },
            {
              "internalType": "uint256",
              "name": "piggybackBondSize",
              "type": "uint256"
            }
          ],
          "internalType": "struct PaymentExitDataModel.WithdrawData",
          "name": "",
          "type": "tuple"
        }
      ],
      "payable": false,
      "stateMutability": "view",
      "type": "function"
    },
    {
      "constant": false,
      "inputs": [
        {
          "internalType": "bytes32",
          "name": "outputId",
          "type": "bytes32"
        },
        {
          "internalType": "uint160",
          "name": "exitId",
          "type": "uint160"
        }
      ],
      "name": "proxyFlagOutputFinalized",
      "outputs": [],
      "payable": false,
      "stateMutability": "nonpayable",
      "type": "function"
    },
    {
      "constant": false,
      "inputs": [
        {
          "internalType": "string",
          "name": "testTarget",
          "type": "string"
        }
      ],
      "name": "testNonReentrant",
      "outputs": [],
      "payable": false,
      "stateMutability": "nonpayable",
      "type": "function"
    },
    {
      "constant": false,
      "inputs": [],
      "name": "depositFundForTest",
      "outputs": [],
      "payable": true,
      "stateMutability": "payable",
      "type": "function"
    }
  ],
  "bytecode": "0x60806040523480156200001157600080fd5b506040516200525438038062005254833981016040819052620000349162000c7a565b8051601f80546001600160a01b0319166001600160a01b03909216918217905560208201516040517f8c64ea4a00000000000000000000000000000000000000000000000000000000815283926000929091638c64ea4a916200009a9160040162000e77565b60206040518083038186803b158015620000b357600080fd5b505afa158015620000c8573d6000803e3d6000fd5b505050506040513d601f19601f82011682018060405250620000ee919081019062000c51565b90506001600160a01b0381166200013c576040517f08c379a0000000000000000000000000000000000000000000000000000000008152600401620001339062000e53565b60405180910390fd5b815160408084015190517f8c64ea4a0000000000000000000000000000000000000000000000000000000081526000926001600160a01b031691638c64ea4a916200018b919060040162000e77565b60206040518083038186803b158015620001a457600080fd5b505afa158015620001b9573d6000803e3d6000fd5b505050506040513d601f19601f82011682018060405250620001df919081019062000c51565b90506001600160a01b03811662000224576040517f08c379a0000000000000000000000000000000000000000000000000000000008152600401620001339062000e65565b82516060840151608085015160a08601516040517f91ac978000000000000000000000000000000000000000000000000000000000815273__PaymentStartInFlightExit______________946391ac97809462000289949193909260040162000df7565b60a06040518083038186803b158015620002a257600080fd5b505af4158015620002b7573d6000803e3d6000fd5b505050506040513d601f19601f82011682018060405250620002dd919081019062000cdd565b8051600180546001600160a01b03199081166001600160a01b03938416179091556020808401515160025560408085015160038054851691861691909117905560608501516004805490941694169390931782556080909301516005558551928601518683015192517f32e6d86900000000000000000000000000000000000000000000000000000000815273__PaymentPiggybackInFlightExit__________946332e6d8699462000397949193309390920162000db1565b60c06040518083038186803b158015620003b057600080fd5b505af4158015620003c5573d6000803e3d6000fd5b505050506040513d601f19601f82011682018060405250620003eb919081019062000cbc565b8051600680546001600160a01b03199081166001600160a01b03938416179091556020830151516007556040808401516008805490931693169290921790556060808301516009556080830151600a5560a092830151600b558551908601519286015191517f159cde2d00000000000000000000000000000000000000000000000000000000815273__PaymentChallengeIFENotCanonical_______9363159cde2d936200049e939260040162000e25565b60606040518083038186803b158015620004b757600080fd5b505af4158015620004cc573d6000803e3d6000fd5b505050506040513d601f19601f82011682018060405250620004f2919081019062000c9b565b8051600c80546001600160a01b039283166001600160a01b0319918216179091556020830151600d8054919093169116179055604090810151600e558351606085015160c086015192517f159cde2d00000000000000000000000000000000000000000000000000000000815273__PaymentChallengeIFEInputSpent_________9363159cde2d936200058e93909290919060040162000e25565b60606040518083038186803b158015620005a757600080fd5b505af4158015620005bc573d6000803e3d6000fd5b505050506040513d601f19601f82011682018060405250620005e2919081019062000c9b565b8051600f80546001600160a01b03199081166001600160a01b03938416179091556020808401516010805484169185169190911790556040938401516011558351606080820186528851851680835290890151851682840181905260c08a01519287018390526012805486169092179091556013805490941617909255601491909155825180840180855287517fd4a2b4ef00000000000000000000000000000000000000000000000000000000909152935190938493169163d4a2b4ef916044808601929190818703018186803b158015620006be57600080fd5b505afa158015620006d3573d6000803e3d6000fd5b505050506040513d601f19601f82011682018060405250620006f9919081019062000cfe565b815260c0850180516020928301528251601555918101516016556040805160808101825286516001600160a01b0390811680835287821683860181905291871693830184905294516060909201829052601780546001600160a01b03199081169096179055601880548616909117905560198054909416909117909255601a919091556200079e906683734dd0b08000906002908190620042876200091d821b17901c565b8051601b80546020808501516001600160801b03199283166001600160801b039586161785167001000000000000000000000000000000009186168202179093556040850151601c805460608801516080909801519416919095161761ffff60801b191661ffff9586169093029290921761ffff60901b1916720100000000000000000000000000000000000094909116939093029290921790556200085b90666379da05b600009060029081906200091d811b6200428717901c565b8051601d80546020808501516001600160801b03199283166001600160801b039586161785167001000000000000000000000000000000009186168202179093556040850151601e805460608801516080909801519416919095161761ffff60801b191661ffff9586169093029290921761ffff60901b191672010000000000000000000000000000000000009490911693909302929092179055935184546001600160a01b0319166001600160a01b03909116179093555062000f10915050565b6200092762000968565b506040805160a0810182526001600160801b03949094168452600060208501526780000000000000009084015261ffff918216606084015216608082015290565b6040805160a08101825260008082526020820181905291810182905260608101829052608081019190915290565b8051620009a38162000ee0565b92915050565b8051620009a38162000efa565b600060e08284031215620009c957600080fd5b620009d560e062000e87565b90506000620009e58484620009a9565b8252506020620009f88484830162000c44565b602083015250604062000a0e8482850162000c44565b604083015250606062000a2484828501620009a9565b606083015250608062000a3a84828501620009a9565b60808301525060a062000a508482850162000c44565b60a08301525060c062000a668482850162000c44565b60c08301525092915050565b60006020828403121562000a8557600080fd5b62000a91602062000e87565b9050600062000aa1848462000c44565b82525092915050565b60006060828403121562000abd57600080fd5b62000ac9606062000e87565b9050600062000ad98484620009a9565b825250602062000aec84848301620009a9565b602083015250604062000b028482850162000c44565b60408301525092915050565b600060c0828403121562000b2157600080fd5b62000b2d60c062000e87565b9050600062000b3d8484620009a9565b825250602062000b508484830162000a72565b602083015250604062000b6684828501620009a9565b604083015250606062000b7c8482850162000c44565b606083015250608062000b928482850162000c44565b60808301525060a062000ba88482850162000c44565b60a08301525092915050565b600060a0828403121562000bc757600080fd5b62000bd360a062000e87565b9050600062000be38484620009a9565b825250602062000bf68484830162000a72565b602083015250604062000c0c84828501620009a9565b604083015250606062000c2284828501620009a9565b606083015250608062000c388482850162000c44565b60808301525092915050565b8051620009a38162000f05565b60006020828403121562000c6457600080fd5b600062000c72848462000996565b949350505050565b600060e0828403121562000c8d57600080fd5b600062000c728484620009b6565b60006060828403121562000cae57600080fd5b600062000c72848462000aaa565b600060c0828403121562000ccf57600080fd5b600062000c72848462000b0e565b600060a0828403121562000cf057600080fd5b600062000c72848462000bb4565b60006020828403121562000d1157600080fd5b600062000c72848462000c44565b62000d2a8162000ec4565b82525050565b600062000d3f60118362000eae565b7f496e76616c696420455448207661756c74000000000000000000000000000000815260200192915050565b600062000d7a60138362000eae565b7f496e76616c6964204552433230207661756c7400000000000000000000000000815260200192915050565b62000d2a8162000edd565b6080810162000dc1828762000d1f565b62000dd0602083018662000d1f565b62000ddf604083018562000da6565b62000dee606083018462000da6565b95945050505050565b6080810162000e07828762000d1f565b62000e16602083018662000d1f565b62000ddf604083018562000d1f565b6060810162000e35828662000d1f565b62000e44602083018562000d1f565b62000c72604083018462000da6565b60208082528101620009a38162000d30565b60208082528101620009a38162000d6b565b60208101620009a3828462000da6565b6040518181016001600160401b038111828210171562000ea657600080fd5b604052919050565b90815260200190565b6000620009a38262000ed1565b6000620009a38262000eb7565b6001600160a01b031690565b90565b62000eeb8162000eb7565b811462000ef757600080fd5b50565b62000eeb8162000ec4565b62000eeb8162000edd565b6143348062000f206000396000f3fe60806040526004361061019c5760003560e01c8063905d6a99116100ec578063c96e7c051161008a578063e5bc60c711610064578063e5bc60c71461041d578063e836229814610430578063e9de555314610450578063f226d9cd146104725761019c565b8063c96e7c05146103bb578063cec9e1a7146103d0578063d8da49a7146103fd5761019c565b8063a4a25441116100c6578063a4a2544114610348578063b177ba231461035b578063b3c2ec761461037b578063b9a3a28e1461039b5761019c565b8063905d6a9914610313578063a0e403b114610313578063a1dd4641146103355761019c565b806336660de411610159578063684963511161013357806368496351146102b65780637702fa17146102d6578063796f9e52146102eb5780637e2b2efe146102fe5761019c565b806336660de4146102615780633f1214cf146102815780635a528514146102a35761019c565b8063211ec5a0146101a15780632b21c209146101ab5780632c3bad95146101cb578063315fb7da146101eb57806333b9404f1461020b57806335fbc6fa14610241575b600080fd5b6101a9610492565b005b3480156101b757600080fd5b506101a96101c6366004613310565b610494565b3480156101d757600080fd5b506101a96101e63660046133ac565b611499565b3480156101f757600080fd5b506101a9610206366004613448565b6115d1565b34801561021757600080fd5b5061022b6102263660046134b5565b6116cb565b60405161023891906140e2565b60405180910390f35b34801561024d57600080fd5b5061022b61025c3660046134b5565b611755565b34801561026d57600080fd5b506101a961027c366004613296565b611787565b34801561028d57600080fd5b506102966118e1565b60405161023891906140f0565b6101a96102b1366004613414565b611946565b3480156102c257600080fd5b506101a96102d13660046134e5565b611acc565b3480156102e257600080fd5b50610296611adb565b6101a96102f93660046134b5565b611b3b565b34801561030a57600080fd5b50610296611b67565b34801561031f57600080fd5b50610328611b72565b60405161023891906140fe565b6101a96103433660046134b5565b611b77565b6101a96103563660046133e0565b611b9f565b34801561036757600080fd5b506101a9610376366004613448565b611cbd565b34801561038757600080fd5b506101a9610396366004613466565b611dab565b3480156103a757600080fd5b506101a96103b6366004613378565b611e64565b3480156103c757600080fd5b50610296611f31565b3480156103dc57600080fd5b506103f06103eb36600461321b565b611f3c565b6040516102389190613e90565b34801561040957600080fd5b506101a961041836600461325c565b61216b565b6101a961042b3660046133e0565b6121b7565b34801561043c57600080fd5b506101a961044b366004613344565b6122d5565b34801561045c57600080fd5b506104656123a2565b6040516102389190613ebc565b34801561047e57600080fd5b506101a961048d366004613484565b6123b1565b565b602060009054906101000a90046001600160a01b0316806001600160a01b031663ff27b1896040518163ffffffff1660e01b8152600401600060405180830381600087803b1580156104e557600080fd5b505af11580156104f9573d6000803e3d6000fd5b5050505061053082604051806040016040528060118152602001701cdd185c9d125b919b1a59da1d115e1a5d607a1b815250612571565b156108ba57604080516021805460c06020601f60026000196101006001871615020190941693909304928301819004028401810190945260a083018181526108b594849284918401828280156105c75780601f1061059c576101008083540402835291602001916105c7565b820191906000526020600020905b8154815290600101906020018083116105aa57829003601f168201915b5050505050815260200160018201805480602002602001604051908101604052809291908181526020016000905b828210156106a05760008481526020908190208301805460408051601f600260001961010060018716150201909416939093049283018590048502810185019091528181529283018282801561068c5780601f106106615761010080835404028352916020019161068c565b820191906000526020600020905b81548152906001019060200180831161066f57829003601f168201915b5050505050815260200190600101906105f5565b505050508152602001600282018054806020026020016040519081016040528092919081815260200182805480156106f757602002820191906000526020600020905b8154815260200190600101908083116106e3575b5050505050815260200160038201805480602002602001604051908101604052809291908181526020016000905b828210156107d05760008481526020908190208301805460408051601f60026000196101006001871615020190941693909304928301859004850281018501909152818152928301828280156107bc5780601f10610791576101008083540402835291602001916107bc565b820191906000526020600020905b81548152906001019060200180831161079f57829003601f168201915b505050505081526020019060010190610725565b50505050815260200160048201805480602002602001604051908101604052809291908181526020016000905b828210156108a85760008481526020908190208301805460408051601f60026000196101006001871615020190941693909304928301859004850281018501909152818152928301828280156108945780601f1061086957610100808354040283529160200191610894565b820191906000526020600020905b81548152906001019060200180831161087757829003601f168201915b5050505050815260200190600101906107fd565b5050505081525050611946565b61145c565b6108f9826040518060400160405280601c81526020017f70696767796261636b496e466c69676874457869744f6e496e70757400000000815250612571565b156109ac57604080516026805460606020601f60026000196101006001871615020190941693909304928301819004028401810185529383018181526108b5948492849184018282801561098e5780601f106109635761010080835404028352916020019161098e565b820191906000526020600020905b81548152906001019060200180831161097157829003601f168201915b50505091835250506001919091015461ffff166020909101526121b7565b6109eb826040518060400160405280601d81526020017f70696767796261636b496e466c69676874457869744f6e4f7574707574000000815250612571565b15610a9e57604080516028805460606020601f60026000196101006001871615020190941693909304928301819004028401810185529383018181526108b59484928491840182828015610a805780601f10610a5557610100808354040283529160200191610a80565b820191906000526020600020905b815481529060010190602001808311610a6357829003601f168201915b50505091835250506001919091015461ffff16602090910152611b9f565b610ac0826040518060600160405280602181526020016142d160219139612571565b15610dfd5760408051602a80546101406020601f60026000196101006001871615020190941693909304928301819004028401810190945261012083018181526108b59484928491840182828015610b595780601f10610b2e57610100808354040283529160200191610b59565b820191906000526020600020905b815481529060010190602001808311610b3c57829003601f168201915b5050505050815260200160018201548152602001600282018054600181600116156101000203166002900480601f016020809104026020016040519081016040528092919081815260200182805460018160011615610100020316600290048015610c055780601f10610bda57610100808354040283529160200191610c05565b820191906000526020600020905b815481529060010190602001808311610be857829003601f168201915b5050509183525050600382015461ffff1660208083019190915260048301805460408051601f60026000196001861615610100020190941693909304928301859004850281018501825282815294019392830182828015610ca75780601f10610c7c57610100808354040283529160200191610ca7565b820191906000526020600020905b815481529060010190602001808311610c8a57829003601f168201915b5050509183525050600582015461ffff166020808301919091526006830154604080840191909152600784018054825160026101006001841615026000190190921691909104601f810185900485028201850190935282815260609094019392909190830182828015610d5b5780601f10610d3057610100808354040283529160200191610d5b565b820191906000526020600020905b815481529060010190602001808311610d3e57829003601f168201915b505050918352505060088201805460408051602060026001851615610100026000190190941693909304601f8101849004840282018401909252818152938201939291830182828015610def5780601f10610dc457610100808354040283529160200191610def565b820191906000526020600020905b815481529060010190602001808311610dd257829003601f168201915b5050505050815250506122d5565b610e3c826040518060400160405280601e81526020017f726573706f6e64546f4e6f6e43616e6f6e6963616c4368616c6c656e67650000815250612571565b15610e6b576108b560405180602001604052806000815250600060405180602001604052806000815250611787565b610eaa826040518060400160405280601f81526020017f6368616c6c656e6765496e466c6967687445786974496e7075745370656e7400815250612571565b1561113e57604080516033805460206002610100600184161581026000190190931604601f810182900490910284016101209081019095529083018181526108b59484928491840182828015610f415780601f10610f1657610100808354040283529160200191610f41565b820191906000526020600020905b815481529060010190602001808311610f2457829003601f168201915b505050918352505060018281015461ffff16602080840191909152600280850180546040805161010096831615969096026000190190911692909204601f81018490048402850184018352808552919094019391830182828015610fe65780601f10610fbb57610100808354040283529160200191610fe6565b820191906000526020600020905b815481529060010190602001808311610fc957829003601f168201915b5050509183525050600382015461ffff1660208083019190915260048301805460408051601f600260001960018616156101000201909416939093049283018590048502810185018252828152940193928301828280156110885780601f1061105d57610100808354040283529160200191611088565b820191906000526020600020905b81548152906001019060200180831161106b57829003601f168201915b505050918352505060058201805460408051602060026001851615610100026000190190941693909304601f810184900484028201840190925281815293820193929183018282801561111c5780601f106110f15761010080835404028352916020019161111c565b820191906000526020600020905b8154815290600101906020018083116110ff57829003601f168201915b5050505050815260200160068201548152602001600782015481525050611e64565b61117d826040518060400160405280602081526020017f6368616c6c656e6765496e466c69676874457869744f75747075745370656e74815250612571565b1561140e5760408051603b80546020600260018316156101009081026000190190931604601f81018290049091028401820190945260e083018481526108b59484928491908401828280156112135780601f106111e857610100808354040283529160200191611213565b820191906000526020600020905b8154815290600101906020018083116111f657829003601f168201915b50505050508152602001600182018054600181600116156101000203166002900480601f0160208091040260200160405190810160405280929190818152602001828054600181600116156101000203166002900480156112b55780601f1061128a576101008083540402835291602001916112b5565b820191906000526020600020905b81548152906001019060200180831161129857829003601f168201915b505050918352505060028281015460208084019190915260038401805460408051601f600019610100600186161502019093169590950491820184900484028501840181528185529094019390918301828280156113545780601f1061132957610100808354040283529160200191611354565b820191906000526020600020905b81548152906001019060200180831161133757829003601f168201915b5050509183525050600482015461ffff1660208083019190915260058301805460408051601f600260001960018616156101000201909416939093049283018590048502810185018252828152940193928301828280156113f65780601f106113cb576101008083540402835291602001916113f6565b820191906000526020600020905b8154815290600101906020018083116113d957829003601f168201915b50505050508152602001600682015481525050611499565b61144d826040518060400160405280602081526020017f64656c6574654e6f6e50696767796261636b6564496e466c6967687445786974815250612571565b1561145c5761145c6000611dab565b60405162461bcd60e51b815260040161147490613f3a565b60405180910390fd5b505af1158015611491573d6000803e3d6000fd5b505050505050565b601f60009054906101000a90046001600160a01b0316806001600160a01b031663ff27b1896040518163ffffffff1660e01b8152600401600060405180830381600087803b1580156114ea57600080fd5b505af11580156114fe573d6000803e3d6000fd5b5050604080516060810182526012546001600160a01b0390811682526013541660208201526014548183015290516359cff02160e01b815273__PaymentChallengeIFEOutputSpent________93506359cff021925061156691906000908790600401613ffd565b60006040518083038186803b15801561157e57600080fd5b505af4158015611592573d6000803e3d6000fd5b50505050806001600160a01b0316634e0f74366040518163ffffffff1660e01b8152600401600060405180830381600087803b15801561147d57600080fd5b601f60009054906101000a90046001600160a01b03166001600160a01b0316634b0a72bc6040518163ffffffff1660e01b815260040160206040518083038186803b15801561161f57600080fd5b505afa158015611633573d6000803e3d6000fd5b505050506040513d601f19601f8201168201806040525061165791908101906131f5565b336001600160a01b0382161461167f5760405162461bcd60e51b815260040161147490613f2a565b611690601d8363ffffffff6125ca16565b7f30ce291291dca42b8168ab211fafc36d3d4868292ed3259874ed00864432e20e826040516116bf91906140f0565b60405180910390a15050565b6116d36128ff565b6001600160a01b038316600090815260208190526040902060030161ffff8316600481106116fd57fe5b6040805160a081018252600592909202929092018054825260018101546001600160a01b0390811660208401526002820154169282019290925260038201546060820152600490910154608082015290505b92915050565b61175d6128ff565b6001600160a01b038316600090815260208190526040902060170161ffff8316600481106116fd57fe5b601f60009054906101000a90046001600160a01b0316806001600160a01b031663ff27b1896040518163ffffffff1660e01b8152600401600060405180830381600087803b1580156117d857600080fd5b505af11580156117ec573d6000803e3d6000fd5b505060408051606081018252600c546001600160a01b039081168252600d54166020820152600e54818301529051630c27711f60e11b815273__PaymentChallengeIFENotCanonical_______935063184ee23e92506118589190600090899089908990600401613f77565b60006040518083038186803b15801561187057600080fd5b505af4158015611884573d6000803e3d6000fd5b50505050806001600160a01b0316634e0f74366040518163ffffffff1660e01b8152600401600060405180830381600087803b1580156118c357600080fd5b505af11580156118d7573d6000803e3d6000fd5b5050505050505050565b6040805160a081018252601d546001600160801b038082168352600160801b9182900481166020840152601e549081169383019390935261ffff90830481166060830152600160901b9092049091166080820152600090611941906126b8565b905090565b601f60009054906101000a90046001600160a01b0316806001600160a01b031663ff27b1896040518163ffffffff1660e01b8152600401600060405180830381600087803b15801561199757600080fd5b505af11580156119ab573d6000803e3d6000fd5b505050506119b7611adb565b6001600160801b03168034146119df5760405162461bcd60e51b815260040161147490613eca565b6040805160a0810182526001546001600160a01b039081168252825160208181018552600254825283015260035481168284015260048054909116606083015260055460808301529151631ff4513b60e01b815273__PaymentStartInFlightExit______________92631ff4513b92611a609290916000918991016140b5565b60006040518083038186803b158015611a7857600080fd5b505af4158015611a8c573d6000803e3d6000fd5b5050505050806001600160a01b0316634e0f74366040518163ffffffff1660e01b8152600401600060405180830381600087803b15801561147d57600080fd5b611ad683826126e3565b505050565b6040805160a081018252601b546001600160801b038082168352600160801b9182900481166020840152601c549081169383019390935261ffff90830481166060830152600160901b9092049091166080820152600090611941906126b8565b6001600160a01b0382166000908152602081905260409020611b63908263ffffffff61277f16565b5050565b666379da05b6000081565b600281565b6001600160a01b0382166000908152602081905260409020611b63908263ffffffff6127cd16565b601f60009054906101000a90046001600160a01b0316806001600160a01b031663ff27b1896040518163ffffffff1660e01b8152600401600060405180830381600087803b158015611bf057600080fd5b505af1158015611c04573d6000803e3d6000fd5b50505050611c106118e1565b6001600160801b0316803414611c385760405162461bcd60e51b815260040161147490613eca565b6040805160c0810182526006546001600160a01b039081168252825160208181018552600754825283015260085416818301526009546060820152600a546080820152600b5460a0820152905163082153e960e21b815273__PaymentPiggybackInFlightExit__________916320854fa491611a6091906000908890600401614052565b601f60009054906101000a90046001600160a01b03166001600160a01b0316634b0a72bc6040518163ffffffff1660e01b815260040160206040518083038186803b158015611d0b57600080fd5b505afa158015611d1f573d6000803e3d6000fd5b505050506040513d601f19601f82011682018060405250611d4391908101906131f5565b336001600160a01b03821614611d6b5760405162461bcd60e51b815260040161147490613f2a565b611d7c601b8363ffffffff6125ca16565b7f63ccac61f03626a0e717e96da239ff8996745b6c4ddcaffdedc88d7ef938f5ec826040516116bf91906140f0565b601f60009054906101000a90046001600160a01b0316806001600160a01b031663ff27b1896040518163ffffffff1660e01b8152600401600060405180830381600087803b158015611dfc57600080fd5b505af1158015611e10573d6000803e3d6000fd5b505060408051808201825260155481526016546020820152905163b1cf0fed60e01b815273__PaymentDeleteInFlightExit_____________935063b1cf0fed92506115669190600090879060040161402a565b601f60009054906101000a90046001600160a01b0316806001600160a01b031663ff27b1896040518163ffffffff1660e01b8152600401600060405180830381600087803b158015611eb557600080fd5b505af1158015611ec9573d6000803e3d6000fd5b505060408051606081018252600f546001600160a01b039081168252601054166020820152601154818301529051634bb4a4df60e11b815273__PaymentChallengeIFEInputSpent_________935063976949be925061156691906000908790600401613f4a565b6683734dd0b0800081565b60608083839050604051908082528060200260200182016040528015611f7c57816020015b611f6961292d565b815260200190600190039081611f615790505b50905060005b83811015612163576000858583818110611f9857fe5b9050602002016020611fad9190810190613466565b6001600160a01b038116600090815260208181526040808320815161012081018352815460ff81161515825261010090046001600160401b03169381019390935260018101548383015260028101546060840152815160808082019093529495509193919290840191906003840190600490835b82821015612088576040805160a081018252600584028601805482526001808201546001600160a01b039081166020808601919091526002840154909116948401949094526003820154606084015260049091015460808301529083529092019101612021565b5050509082525060408051608081019091526020909101906017830160046000835b82821015612111576040805160a081018252600584028601805482526001808201546001600160a01b0390811660208086019190915260028401549091169484019490945260038201546060840152600490910154608083015290835290920191016120aa565b50505090825250602b8201546001600160a01b03166020820152602c8201546040820152602d90910154606090910152835184908490811061214f57fe5b602090810291909101015250600101611f82565b509392505050565b602054604051630e5ae5c760e31b81526001600160a01b03909116906372d72e389061219d9085908590600401613ea1565b600060405180830381600087803b15801561147d57600080fd5b601f60009054906101000a90046001600160a01b0316806001600160a01b031663ff27b1896040518163ffffffff1660e01b8152600401600060405180830381600087803b15801561220857600080fd5b505af115801561221c573d6000803e3d6000fd5b505050506122286118e1565b6001600160801b03168034146122505760405162461bcd60e51b815260040161147490613eca565b6040805160c0810182526006546001600160a01b039081168252825160208181018552600754825283015260085416818301526009546060820152600a546080820152600b5460a08201529051631845801f60e11b815273__PaymentPiggybackInFlightExit__________9163308b003e91611a6091906000908890600401614052565b601f60009054906101000a90046001600160a01b0316806001600160a01b031663ff27b1896040518163ffffffff1660e01b8152600401600060405180830381600087803b15801561232657600080fd5b505af115801561233a573d6000803e3d6000fd5b505060408051606081018252600c546001600160a01b039081168252600d54166020820152600e54818301529051631287d7e160e31b815273__PaymentChallengeIFENotCanonical_______935063943ebf08925061156691906000908790600401613fd0565b6020546001600160a01b031681565b6001600160a01b03828116600090815260208181526040808320855181549387015160ff199094169015151768ffffffffffffffff0019166101006001600160401b0390941684021781559085015160018201556060850151600282015560c0850151602b820180546001600160a01b031916919095161790935560e0840151602c840155830151602d8301555b60048110156124d3578260800151816004811061245857fe5b602002015182600301826004811061246c57fe5b8251600591909102919091019081556020820151600180830180546001600160a01b039384166001600160a01b031991821617909155604085015160028501805491909416911617909155606083015160038301556080909201516004909101550161243f565b5060005b600481101561256b578260a0015181600481106124f057fe5b602002015182601701826004811061250457fe5b8251600591909102919091019081556020820151600180830180546001600160a01b039384166001600160a01b03199182161790915560408501516002850180549190941691161790915560608301516003830155608090920151600490910155016124d7565b50505050565b6000816040516020016125849190613e84565b60405160208183030381529060405280519060200120836040516020016125ab9190613e84565b6040516020818303038152906040528051906020012014905092915050565b6040805160a08101825283546001600160801b038082168352600160801b918290048116602084015260018601549081169383019390935261ffff90830481166060830152600160901b9092049091166080820152612629908261282f565b8154600160801b90046001600160801b031615801590612656575060018201546001600160801b03164210155b1561267d578154600160801b81046001600160801b03166001600160801b03199091161782555b81546001600160801b03918216600160801b02911617815560010180546001600160801b0319166001600160401b03426202a3000116179055565b600081604001516001600160801b03164210156126d7575080516126de565b5060208101515b919050565b604080516080810182526017546001600160a01b039081168252601854811660208301526019541681830152601a5460608201529051632309cb3d60e01b815273__PaymentProcessInFlightExit____________91632309cb3d91612753919060009087908790600401614080565b60006040518083038186803b15801561276b57600080fd5b505af4158015611491573d6000803e3d6000fd5b6127876128ed565b60ff168161ffff16106127ac5760405162461bcd60e51b815260040161147490613f1a565b60018201546127c1908263ffffffff6128f216565b82600101819055505050565b6127d56128ed565b60ff168161ffff16106127fa5760405162461bcd60e51b815260040161147490613eea565b60006128046128ed565b60ff16820190506128228184600101546128f290919063ffffffff16565b8360010181905550505050565b600061283a836126b8565b90506000826001600160801b0316116128655760405162461bcd60e51b815260040161147490613efa565b826060015161ffff16816001600160801b03168161287f57fe5b046001600160801b0316826001600160801b031610156128b15760405162461bcd60e51b815260040161147490613f0a565b826080015161ffff16816001600160801b031602826001600160801b03161115611ad65760405162461bcd60e51b815260040161147490613eda565b600490565b600160ff919091161b1790565b6040805160a08101825260008082526020820181905291810182905260608101829052608081019190915290565b60405180610120016040528060001515815260200160006001600160401b031681526020016000815260200160008152602001612968612999565b8152602001612975612999565b815260200160006001600160a01b0316815260200160008152602001600081525090565b60405180608001604052806004905b6129b06128ff565b8152602001906001900390816129a85790505090565b803561174f8161423a565b805161174f8161423a565b600082601f8301126129ed57600080fd5b8135612a006129fb82614132565b61410c565b81815260209384019390925082018360005b83811015612a3e5781358601612a288882612b79565b8452506020928301929190910190600101612a12565b5050505092915050565b600082601f830112612a5957600080fd5b6004612a676129fb82614152565b915081838560a0840282011115612a7d57600080fd5b60005b83811015612a3e5781612a938882613152565b84525060209092019160a09190910190600101612a80565b60008083601f840112612abd57600080fd5b5081356001600160401b03811115612ad457600080fd5b602083019150836020820283011115612aec57600080fd5b9250929050565b600082601f830112612b0457600080fd5b8135612b126129fb82614132565b91508181835260208401935060208101905083856020840282011115612b3757600080fd5b60005b83811015612a3e5781612b4d8882612b6e565b8452506020928301929190910190600101612b3a565b803561174f81614251565b803561174f8161425a565b600082601f830112612b8a57600080fd5b8135612b986129fb8261416f565b91508082526020830160208301858383011115612bb457600080fd5b612bbf8382846141f8565b50505092915050565b60006101208284031215612bdb57600080fd5b612be661012061410c565b905081356001600160401b03811115612bfe57600080fd5b612c0a84828501612b79565b8252506020612c1b84848301612b6e565b60208301525060408201356001600160401b03811115612c3a57600080fd5b612c4684828501612b79565b6040830152506060612c5a848285016131d4565b60608301525060808201356001600160401b03811115612c7957600080fd5b612c8584828501612b79565b60808301525060a0612c99848285016131d4565b60a08301525060c0612cad84828501612b6e565b60c08301525060e08201356001600160401b03811115612ccc57600080fd5b612cd884828501612b79565b60e0830152506101008201356001600160401b03811115612cf857600080fd5b612d0484828501612b79565b6101008301525092915050565b60006101008284031215612d2457600080fd5b612d2f61010061410c565b905081356001600160401b03811115612d4757600080fd5b612d5384828501612b79565b8252506020612d64848483016131d4565b60208301525060408201356001600160401b03811115612d8357600080fd5b612d8f84828501612b79565b6040830152506060612da3848285016131d4565b60608301525060808201356001600160401b03811115612dc257600080fd5b612dce84828501612b79565b60808301525060a08201356001600160401b03811115612ded57600080fd5b612df984828501612b79565b60a08301525060c0612e0d84828501612b6e565b60c08301525060e0612e2184828501612b6e565b60e08301525092915050565b600060e08284031215612e3f57600080fd5b612e4960e061410c565b905081356001600160401b03811115612e6157600080fd5b612e6d84828501612b79565b82525060208201356001600160401b03811115612e8957600080fd5b612e9584828501612b79565b6020830152506040612ea984828501612b6e565b60408301525060608201356001600160401b03811115612ec857600080fd5b612ed484828501612b79565b6060830152506080612ee8848285016131d4565b60808301525060a08201356001600160401b03811115612f0757600080fd5b612f1384828501612b79565b60a08301525060c0612f2784828501612b6e565b60c08301525092915050565b60006105e08284031215612f4657600080fd5b612f5161012061410c565b90506000612f5f8484612b63565b8252506020612f70848483016131ea565b6020830152506040612f8484828501612b6e565b6040830152506060612f9884828501612b6e565b6060830152506080612fac84828501612a48565b608083015250610300612fc184828501612a48565b60a083015250610580612fd6848285016129c6565b60c0830152506105a0612feb84828501612b6e565b60e0830152506105c0612d0484828501612b6e565b60006040828403121561301257600080fd5b61301c604061410c565b905081356001600160401b0381111561303457600080fd5b61304084828501612b79565b8252506020613051848483016131d4565b60208301525092915050565b600060a0828403121561306f57600080fd5b61307960a061410c565b905081356001600160401b0381111561309157600080fd5b61309d84828501612b79565b82525060208201356001600160401b038111156130b957600080fd5b6130c5848285016129dc565b60208301525060408201356001600160401b038111156130e457600080fd5b6130f084828501612af3565b60408301525060608201356001600160401b0381111561310f57600080fd5b61311b848285016129dc565b60608301525060808201356001600160401b0381111561313a57600080fd5b613146848285016129dc565b60808301525092915050565b600060a0828403121561316457600080fd5b61316e60a061410c565b9050600061317c8484612b6e565b825250602061318d848483016129c6565b60208301525060406131a1848285016129c6565b60408301525060606131b584828501612b6e565b606083015250608061314684828501612b6e565b803561174f81614263565b803561174f8161426c565b803561174f81614275565b803561174f8161427e565b60006020828403121561320757600080fd5b600061321384846129d1565b949350505050565b6000806020838503121561322e57600080fd5b82356001600160401b0381111561324457600080fd5b61325085828601612aab565b92509250509250929050565b6000806040838503121561326f57600080fd5b600061327b8585612b6e565b925050602061328c858286016131df565b9150509250929050565b6000806000606084860312156132ab57600080fd5b83356001600160401b038111156132c157600080fd5b6132cd86828701612b79565b93505060206132de86828701612b6e565b92505060408401356001600160401b038111156132fa57600080fd5b61330686828701612b79565b9150509250925092565b60006020828403121561332257600080fd5b81356001600160401b0381111561333857600080fd5b61321384828501612b79565b60006020828403121561335657600080fd5b81356001600160401b0381111561336c57600080fd5b61321384828501612bc8565b60006020828403121561338a57600080fd5b81356001600160401b038111156133a057600080fd5b61321384828501612d11565b6000602082840312156133be57600080fd5b81356001600160401b038111156133d457600080fd5b61321384828501612e2d565b6000602082840312156133f257600080fd5b81356001600160401b0381111561340857600080fd5b61321384828501613000565b60006020828403121561342657600080fd5b81356001600160401b0381111561343c57600080fd5b6132138482850161305d565b60006020828403121561345a57600080fd5b600061321384846131c9565b60006020828403121561347857600080fd5b600061321384846131df565b600080610600838503121561349857600080fd5b60006134a485856131df565b925050602061328c85828601612f33565b600080604083850312156134c857600080fd5b60006134d485856131df565b925050602061328c858286016131d4565b6000806000606084860312156134fa57600080fd5b600061350686866131df565b935050602061351786828701612b6e565b9250506040613306868287016129c6565b600061353483836136fa565b9392505050565b60006135478383613cba565b50506105e00190565b600061355c8383613e16565b505060a00190565b600061357083836136f1565b505060200190565b613581816141b2565b82525050565b60006135928261419f565b61359c81856141a9565b9350836020820285016135ae85614196565b8060005b858110156135e857848403895281516135cb8582613528565b94506135d683614196565b60209a909a01999250506001016135b2565b5091979650505050505050565b60006136008261419f565b61360a81856141a9565b935061361583614196565b8060005b8381101561364357815161362d888261353b565b975061363883614196565b925050600101613619565b509495945050505050565b613657816141a3565b61366181846126de565b925061366c8261419c565b8060005b838110156114915781516136848782613550565b965061368f83614196565b925050600101613670565b60006136a58261419f565b6136af81856141a9565b93506136ba83614196565b8060005b838110156136435781516136d28882613564565b97506136dd83614196565b9250506001016136be565b613581816141bd565b6135818161419c565b60006137058261419f565b61370f81856141a9565b935061371f818560208601614204565b61372881614230565b9093019392505050565b613581816141ed565b60006137468261419f565b61375081856126de565b9350613760818560208601614204565b9290920192915050565b60006137776020836141a9565b7f496e7075742076616c7565206d757374206d61746368206d73672e76616c7565815260200192915050565b60006137b06015836141a9565b74084dedcc840e6d2f4ca40d2e640e8dede40d0d2ced605b1b815260200192915050565b60006137e16014836141a9565b73092dcecc2d8d2c840deeae8e0eae840d2dcc8caf60631b815260200192915050565b60006138116018836141a9565b7f426f6e642073697a652063616e6e6f74206265207a65726f0000000000000000815260200192915050565b600061384a6014836141a9565b73426f6e642073697a6520697320746f6f206c6f7760601b815260200192915050565b600061387a6013836141a9565b72092dcecc2d8d2c840d2dce0eae840d2dcc8caf606b1b815260200192915050565b60006138a9601e836141a9565b7f43616c6c6572206164647265737320697320756e617574686f72697a65640000815260200192915050565b60006138e26014836141a9565b733737b7103232b334b732b210333ab731ba34b7b760611b815260200192915050565b8051602083019061256b84826136f1565b80516101208084526000919084019061392f82826136fa565b915050602083015161394460208601826136f1565b506040830151848203604086015261395c82826136fa565b91505060608301516139716060860182613e72565b506080830151848203608086015261398982826136fa565b91505060a083015161399e60a0860182613e72565b5060c08301516139b160c08601826136f1565b5060e083015184820360e08601526139c982826136fa565b9150506101008301518482036101008601526139e582826136fa565b95945050505050565b805161010080845260009190840190613a0782826136fa565b9150506020830151613a1c6020860182613e72565b5060408301518482036040860152613a3482826136fa565b9150506060830151613a496060860182613e72565b5060808301518482036080860152613a6182826136fa565b91505060a083015184820360a0860152613a7b82826136fa565b91505060c0830151613a9060c08601826136f1565b5060e083015161216360e08601826136f1565b805160e080845260009190840190613abb82826136fa565b91505060208301518482036020860152613ad582826136fa565b9150506040830151613aea60408601826136f1565b5060608301518482036060860152613b0282826136fa565b9150506080830151613b176080860182613e72565b5060a083015184820360a0860152613b2f82826136fa565b91505060c083015161216360c08601826136f1565b80516060830190613b558482613732565b506020820151613b686020850182613732565b50604082015161256b60408501826136f1565b80516040830190613b8c84826136f1565b50602082015161256b60208501826136f1565b805160c0830190613bb08482613732565b506020820151613bc36020850182613905565b506040820151613bd66040850182613732565b506060820151613be960608501826136f1565b506080820151613bfc60808501826136f1565b5060a082015161256b60a08501826136f1565b80516080830190613c208482613732565b506020820151613c336020850182613732565b506040820151613c466040850182613732565b50606082015161256b60608501826136f1565b805160a0830190613c6a8482613732565b506020820151613c7d6020850182613905565b506040820151613c906040850182613732565b506060820151613ca36060850182613732565b50608082015161256b60808501826136f1565b9052565b80516105e0830190613ccc84826136e8565b506020820151613cdf6020850182613e7b565b506040820151613cf260408501826136f1565b506060820151613d0560608501826136f1565b506080820151613d18608085018261364e565b5060a0820151613d2c61030085018261364e565b5060c0820151613d40610580850182613578565b5060e0820151613d546105a08501826136f1565b5061010082015161256b6105c08501826136f1565b8051604080845260009190840190613d8182826136fa565b91505060208301516121636020860182613e72565b805160a080845260009190840190613dae82826136fa565b91505060208301518482036020860152613dc88282613587565b91505060408301518482036040860152613de2828261369a565b91505060608301518482036060860152613dfc8282613587565b915050608083015184820360808601526139e58282613587565b805160a0830190613e2784826136f1565b506020820151613e3a6020850182613578565b506040820151613e4d6040850182613578565b506060820151613ca360608501826136f1565b613581816141c2565b613581816141d5565b613581816141ce565b613581816141e1565b6000613534828461373b565b6020808252810161353481846135f5565b60408101613eaf82856136f1565b6135346020830184613e69565b6020810161174f8284613732565b6020808252810161174f8161376a565b6020808252810161174f816137a3565b6020808252810161174f816137d4565b6020808252810161174f81613804565b6020808252810161174f8161383d565b6020808252810161174f8161386d565b6020808252810161174f8161389c565b6020808252810161174f816138d5565b60a08101613f588286613b44565b613f656060830185613cb6565b81810360808301526139e581846139ee565b60e08101613f858288613b44565b613f926060830187613cb6565b8181036080830152613fa481866136fa565b9050613fb360a08301856136f1565b81810360c0830152613fc581846136fa565b979650505050505050565b60a08101613fde8286613b44565b613feb6060830185613cb6565b81810360808301526139e58184613916565b60a0810161400b8286613b44565b6140186060830185613cb6565b81810360808301526139e58184613aa3565b608081016140388286613b7b565b6140456040830185613cb6565b6132136060830184613e69565b61010081016140618286613b9f565b61406e60c0830185613cb6565b81810360e08301526139e58184613d69565b60e0810161408e8287613c0f565b61409b6080830186613cb6565b6140a860a0830185613e69565b6139e560c0830184613578565b60e081016140c38286613c59565b6140d060a0830185613cb6565b81810360c08301526139e58184613d96565b60a0810161174f8284613e16565b6020810161174f8284613e60565b6020810161174f8284613e72565b6040518181016001600160401b038111828210171561412a57600080fd5b604052919050565b60006001600160401b0382111561414857600080fd5b5060209081020190565b60006001600160401b0382111561416857600080fd5b5060200290565b60006001600160401b0382111561418557600080fd5b506020601f91909101601f19160190565b60200190565b90565b5190565b50600490565b90815260200190565b600061174f826141d5565b151590565b6001600160801b031690565b61ffff1690565b6001600160a01b031690565b6001600160401b031690565b600061174f826141b2565b82818337506000910152565b60005b8381101561421f578181015183820152602001614207565b8381111561256b5750506000910152565b601f01601f191690565b614243816141b2565b811461424e57600080fd5b50565b614243816141bd565b6142438161419c565b614243816141c2565b614243816141ce565b614243816141d5565b614243816141e1565b61428f6128ff565b506040805160a0810182526001600160801b03949094168452600060208501526780000000000000009084015261ffff91821660608401521660808201529056fe6368616c6c656e6765496e466c69676874457869744e6f7443616e6f6e6963616ca365627a7a723158203a2a8e4c6d2ce612792823b55f12bbd489162e331b9ddd054aed798dfeb87b876c6578706572696d656e74616cf564736f6c634300050b0040",
  "source": "pragma solidity 0.5.11;\npragma experimental ABIEncoderV2;\n\nimport \"../../../../src/exits/payment/PaymentExitDataModel.sol\";\nimport \"../../../../src/exits/payment/routers/PaymentInFlightExitRouter.sol\";\nimport \"../../../../src/exits/payment/routers/PaymentInFlightExitRouterArgs.sol\";\nimport \"../../../../src/framework/PlasmaFramework.sol\";\nimport \"../../../../src/exits/interfaces/IStateTransitionVerifier.sol\";\nimport \"../../../../src/exits/payment/PaymentInFlightExitModelUtils.sol\";\n\nimport \"../../../../src/utils/FailFastReentrancyGuard.sol\";\n\ncontract PaymentInFlightExitRouterMock is FailFastReentrancyGuard, PaymentInFlightExitRouter {\n    using PaymentInFlightExitModelUtils for PaymentExitDataModel.InFlightExit;\n\n    PlasmaFramework public framework;\n\n    PaymentInFlightExitRouterArgs.StartExitArgs private startIfeArgs;\n    PaymentInFlightExitRouterArgs.PiggybackInFlightExitOnInputArgs private piggybackInputArgs;\n    PaymentInFlightExitRouterArgs.PiggybackInFlightExitOnOutputArgs private piggybackOutputArgs;\n    PaymentInFlightExitRouterArgs.ChallengeCanonicityArgs private challengeCanonicityArgs;\n    PaymentInFlightExitRouterArgs.ChallengeInputSpentArgs private challengeInputSpentArgs;\n    PaymentInFlightExitRouterArgs.ChallengeOutputSpent private challengeOutputSpentArgs;\n\n    constructor(PaymentExitGameArgs.Args memory args)\n        public\n        PaymentInFlightExitRouter(args)\n    {\n        framework = args.framework;\n    }\n\n    /** override and calls processInFlightExit for test */\n    function processExit(uint160 exitId, uint256, address ercContract) external {\n        PaymentInFlightExitRouter.processInFlightExit(exitId, ercContract);\n    }\n\n    function setInFlightExit(uint160 exitId, PaymentExitDataModel.InFlightExit memory exit) public {\n        PaymentExitDataModel.InFlightExit storage ife = inFlightExitMap.exits[exitId];\n        ife.isCanonical = exit.isCanonical;\n        ife.exitStartTimestamp = exit.exitStartTimestamp;\n        ife.exitMap = exit.exitMap;\n        ife.position = exit.position;\n        ife.bondOwner = exit.bondOwner;\n        ife.bondSize = exit.bondSize;\n        ife.oldestCompetitorPosition = exit.oldestCompetitorPosition;\n\n        for (uint i = 0; i < exit.inputs.length; i++) {\n            ife.inputs[i] = exit.inputs[i];\n        }\n\n        for (uint i = 0; i < exit.outputs.length; i++) {\n            ife.outputs[i] = exit.outputs[i];\n        }\n    }\n\n    function getInFlightExitInput(uint160 exitId, uint16 inputIndex) public view returns (PaymentExitDataModel.WithdrawData memory) {\n        return inFlightExitMap.exits[exitId].inputs[inputIndex];\n    }\n\n    function setInFlightExitInputPiggybacked(uint160 exitId, uint16 inputIndex) public payable {\n        inFlightExitMap.exits[exitId].setInputPiggybacked(inputIndex);\n    }\n\n    function setInFlightExitOutputPiggybacked(uint160 exitId, uint16 outputIndex) public payable {\n        inFlightExitMap.exits[exitId].setOutputPiggybacked(outputIndex);\n    }\n\n    function getInFlightExitOutput(uint160 exitId, uint16 outputIndex) public view returns (PaymentExitDataModel.WithdrawData memory) {\n        return inFlightExitMap.exits[exitId].outputs[outputIndex];\n    }\n\n    /** calls the flagOutputFinalized function on behalf of the exit game */\n    function proxyFlagOutputFinalized(bytes32 outputId, uint160 exitId) public {\n        framework.flagOutputFinalized(outputId, exitId);\n    }\n\n    /**\n     * This function helps test reentrant by making this function itself the first call with 'nonReentrant' protection\n     * So all other PaymentExitGame functions that is protected by 'nonReentrant' too would fail as it would be considered as re-entrancy\n     */\n    function testNonReentrant(string memory testTarget) public nonReentrant(framework) {\n        if (stringEquals(testTarget, \"startInFlightExit\")) {\n            PaymentInFlightExitRouter.startInFlightExit(startIfeArgs);\n        } else if (stringEquals(testTarget, \"piggybackInFlightExitOnInput\")) {\n            PaymentInFlightExitRouter.piggybackInFlightExitOnInput(piggybackInputArgs);\n        } else if (stringEquals(testTarget, \"piggybackInFlightExitOnOutput\")) {\n            PaymentInFlightExitRouter.piggybackInFlightExitOnOutput(piggybackOutputArgs);\n        } else if (stringEquals(testTarget, \"challengeInFlightExitNotCanonical\")) {\n            PaymentInFlightExitRouter.challengeInFlightExitNotCanonical(challengeCanonicityArgs);\n        } else if (stringEquals(testTarget, \"respondToNonCanonicalChallenge\")) {\n            PaymentInFlightExitRouter.respondToNonCanonicalChallenge(bytes(\"\"), 0, bytes(\"\"));\n        } else if (stringEquals(testTarget, \"challengeInFlightExitInputSpent\")) {\n            PaymentInFlightExitRouter.challengeInFlightExitInputSpent(challengeInputSpentArgs);\n        } else if (stringEquals(testTarget, \"challengeInFlightExitOutputSpent\")) {\n            PaymentInFlightExitRouter.challengeInFlightExitOutputSpent(challengeOutputSpentArgs);\n        } else if (stringEquals(testTarget, \"deleteNonPiggybackedInFlightExit\")) {\n            PaymentInFlightExitRouter.deleteNonPiggybackedInFlightExit(uint160(0));\n        }\n\n        revert(\"non defined function\");\n    }\n\n    /** empty function that accepts ETH to fund the contract as test setup */\n    function depositFundForTest() public payable {}\n\n    function stringEquals(string memory a, string memory b) private pure returns (bool) {\n        return keccak256(abi.encodePacked(a)) == keccak256(abi.encodePacked(b));\n    }\n}\n",
  "sourcePath": "/home/node/plasma-contracts/plasma_framework/contracts/mocks/exits/payment/routers/PaymentInFlightExitRouterMock.sol",
  "compiler": {
    "name": "solc",
    "version": "0.5.11+commit.c082d0b4.Emscripten.clang"
  },
  "schemaVersion": "3.0.16",
  "updatedAt": "2020-04-07T14:07:49.490Z",
  "devdoc": {
    "methods": {
      "challengeInFlightExitInputSpent((bytes,uint16,bytes,uint16,bytes,bytes,uint256,bytes32))": {
        "params": {
          "args": "Argument data to challenge (see also struct 'ChallengeInputSpentArgs')"
        }
      },
      "challengeInFlightExitNotCanonical((bytes,uint256,bytes,uint16,bytes,uint16,uint256,bytes,bytes))": {
        "params": {
          "args": "Input argument data to challenge (see also struct 'ChallengeCanonicityArgs')"
        }
      },
      "challengeInFlightExitOutputSpent((bytes,bytes,uint256,bytes,uint16,bytes,bytes32))": {
        "params": {
          "args": "Argument data to challenge (see also struct 'ChallengeOutputSpent')"
        }
      },
      "deleteNonPiggybackedInFlightExit(uint160)": {
        "details": "Since IFE is enqueued during piggyback, a non-piggybacked IFE means that it will never be processed.     This means that the IFE bond will never be returned.     see: https://github.com/omisego/plasma-contracts/issues/440",
        "params": {
          "exitId": "The exitId of the in-flight exit"
        }
      },
      "inFlightExits(uint160[])": {
        "params": {
          "exitIds": "The exit IDs of the in-flight exits"
        }
      },
      "piggybackInFlightExitOnInput((bytes,uint16))": {
        "params": {
          "args": "Input argument data to piggyback (see also struct 'PiggybackInFlightExitOnInputArgs')"
        }
      },
      "piggybackInFlightExitOnOutput((bytes,uint16))": {
        "params": {
          "args": "Input argument data to piggyback (see also struct 'PiggybackInFlightExitOnOutputArgs')"
        }
      },
      "respondToNonCanonicalChallenge(bytes,uint256,bytes)": {
        "params": {
          "inFlightTx": "The RLP-encoded in-flight transaction",
          "inFlightTxInclusionProof": "Proof that the in-flight exiting transaction is included in a Plasma block",
          "inFlightTxPos": "The position of the in-flight exiting transaction. The output index within the position is unused and should be set to 0"
        }
      },
      "startInFlightExit((bytes,bytes[],uint256[],bytes[],bytes[]))": {
        "params": {
          "args": "Input argument data to challenge (see also struct 'StartExitArgs')"
        }
      },
      "updatePiggybackBondSize(uint128)": {
        "params": {
          "newBondSize": "The new bond size"
        }
      },
      "updateStartIFEBondSize(uint128)": {
        "params": {
          "newBondSize": "The new bond size"
        }
      }
    }
  },
  "userdoc": {
    "methods": {
      "challengeInFlightExitInputSpent((bytes,uint16,bytes,uint16,bytes,bytes,uint256,bytes32))": {
        "notice": "Challenges an exit from in-flight transaction input"
      },
      "challengeInFlightExitNotCanonical((bytes,uint256,bytes,uint16,bytes,uint16,uint256,bytes,bytes))": {
        "notice": "Challenges an in-flight exit to be non-canonical"
      },
      "challengeInFlightExitOutputSpent((bytes,bytes,uint256,bytes,uint16,bytes,bytes32))": {
        "notice": "Challenges an exit from in-flight transaction output"
      },
      "deleteNonPiggybackedInFlightExit(uint160)": {
        "notice": "Deletes in-flight exit if the first phase has passed and not being piggybacked"
      },
      "depositFundForTest()": {
        "notice": "empty function that accepts ETH to fund the contract as test setup "
      },
      "inFlightExits(uint160[])": {
        "notice": "Getter functions to retrieve in-flight exit data of the PaymentExitGame"
      },
      "piggybackBondSize()": {
        "notice": "Retrieves the piggyback bond size"
      },
      "piggybackInFlightExitOnInput((bytes,uint16))": {
        "notice": "Piggyback on an input of an in-flight exiting tx. Processed only if the in-flight exit is non-canonical."
      },
      "piggybackInFlightExitOnOutput((bytes,uint16))": {
        "notice": "Piggyback on an output of an in-flight exiting tx. Processed only if the in-flight exit is canonical."
      },
      "processExit(uint160,uint256,address)": {
        "notice": "override and calls processInFlightExit for test "
      },
      "proxyFlagOutputFinalized(bytes32,uint160)": {
        "notice": "calls the flagOutputFinalized function on behalf of the exit game "
      },
      "respondToNonCanonicalChallenge(bytes,uint256,bytes)": {
        "notice": "Respond to a non-canonical challenge by providing its position and by proving its correctness"
      },
      "startIFEBondSize()": {
        "notice": "Retrieves the in-flight exit bond size"
      },
      "startInFlightExit((bytes,bytes[],uint256[],bytes[],bytes[]))": {
        "notice": "Starts withdrawal from a transaction that may be in-flight"
      },
      "testNonReentrant(string)": {
        "notice": "This function helps test reentrant by making this function itself the first call with 'nonReentrant' protection So all other PaymentExitGame functions that is protected by 'nonReentrant' too would fail as it would be considered as re-entrancy"
      },
      "updatePiggybackBondSize(uint128)": {
        "notice": "Updates the piggyback bond size, taking two days to become effective"
      },
      "updateStartIFEBondSize(uint128)": {
        "notice": "Updates the in-flight exit bond size, taking two days to become effective."
      }
    }
  }
}