{
  "contractName": "PaymentStartInFlightExit",
  "abi": [
    {
      "anonymous": false,
      "inputs": [
        {
          "indexed": true,
          "internalType": "address",
          "name": "initiator",
          "type": "address"
        },
        {
          "indexed": true,
          "internalType": "bytes32",
          "name": "txHash",
          "type": "bytes32"
        }
      ],
      "name": "InFlightExitStarted",
      "type": "event"
    },
    {
      "constant": true,
      "inputs": [
        {
          "internalType": "contract PlasmaFramework",
          "name": "framework",
          "type": "PlasmaFramework"
        },
        {
          "internalType": "contract SpendingConditionRegistry",
          "name": "spendingConditionRegistry",
          "type": "SpendingConditionRegistry"
        },
        {
          "internalType": "contract IStateTransitionVerifier",
          "name": "transitionVerifier",
          "type": "IStateTransitionVerifier"
        },
        {
          "internalType": "uint256",
          "name": "supportedTxType",
          "type": "uint256"
        }
      ],
      "name": "buildController",
      "outputs": [
        {
          "components": [
            {
              "internalType": "contract PlasmaFramework",
              "name": "framework",
              "type": "PlasmaFramework"
            },
            {
              "components": [
                {
                  "internalType": "uint256",
                  "name": "minExitPeriod",
                  "type": "uint256"
                }
              ],
              "internalType": "struct ExitableTimestamp.Calculator",
              "name": "exitTimestampCalculator",
              "type": "tuple"
            },
            {
              "internalType": "contract SpendingConditionRegistry",
              "name": "spendingConditionRegistry",
              "type": "SpendingConditionRegistry"
            },
            {
              "internalType": "contract IStateTransitionVerifier",
              "name": "transitionVerifier",
              "type": "IStateTransitionVerifier"
            },
            {
              "internalType": "uint256",
              "name": "supportedTxType",
              "type": "uint256"
            }
          ],
          "internalType": "struct PaymentStartInFlightExit.Controller",
          "name": "",
          "type": "tuple"
        }
      ],
      "payable": false,
      "stateMutability": "view",
      "type": "function"
    }
  ],
  "bytecode": "0x613bea610026600b82828239805160001a60731461001957fe5b30600052607381538281f3fe73000000000000000000000000000000000000000030146080604052600436106100405760003560e01c80631ff4513b1461004557806391ac978014610067575b600080fd5b81801561005157600080fd5b5061006561006036600461243a565b610090565b005b61007a6100753660046123d9565b6100ee565b6040516100879190613a16565b60405180910390f35b610098611eb5565b6100a284836101b5565b90506100ae8184610269565b6100b881846102b5565b608081015160405133907fd5f1fe9d48880b57daa227004b16d320c0eb885d6c49d472d54c16a05fa3179e90600090a350505050565b6100f6611f17565b6040518060a00160405280866001600160a01b031681526020016040518060200160405280886001600160a01b031663d4a2b4ef6040518163ffffffff1660e01b815260040160206040518083038186803b15801561015457600080fd5b505afa158015610168573d6000803e3d6000fd5b505050506040513d601f19601f8201168201806040525061018c919081019061249e565b905281526001600160a01b03958616602082015293909416604084015250606090910152919050565b6101bd611eb5565b6101c5611eb5565b83815282516101d390610341565b6001600160a01b031660208201528251604082015282516101f390610367565b6060820152825160405161020791906135e0565b60408051918290039091206080830152602084015160a083015283015161022d90610380565b60c08201819052606084015160e0830152608084015161010083015260a082015161025a91869190610444565b61012082015290505b92915050565b6102778260200151826105ff565b61028082610644565b61028982610670565b610296826060015161071a565b61029f826107a9565b6102a882610844565b6102b182610a6f565b5050565b6020808301516001600160a01b031660009081529082905260409020805460ff19166001178155602b810180546001600160a01b0319163317905534602c82015560c083015161030490610ba5565b6002820155805468ffffffffffffffff001916610100426001600160401b0316021781556103328184610bee565b61033c8184610d18565b505050565b8051602082012060009061035f9060691c609763ffffffff610e3116565b90505b919050565b61036f611f55565b61035f61037b83610e3e565b610fde565b606061038a6111dd565b60ff16825111156103b65760405162461bcd60e51b81526004016103ad906139f6565b60405180910390fd5b606082516040519080825280602002602001820160405280156103f357816020015b6103e0611f87565b8152602001906001900390816103d85790505b50905060005b835181101561043d5761041e84828151811061041157fe5b60200260200101516111e2565b82828151811061042a57fe5b60209081029190910101526001016103f9565b5092915050565b606081518351146104675760405162461bcd60e51b81526004016103ad90613916565b60608351604051908082528060200260200182016040528015610494578160200160208202803883390190505b50905060005b84518110156105f457600086600001516001600160a01b031663ebde2ec98684815181106104c457fe5b6020026020010151600001516040518263ffffffff1660e01b81526004016104ec9190613a4d565b60206040518083038186803b15801561050457600080fd5b505afa158015610518573d6000803e3d6000fd5b505050506040513d601f19601f8201168201806040525061053c919081019061235b565b9050806105805761057b86838151811061055257fe5b602002602001015186848151811061056657fe5b60200260200101516040015161ffff16611275565b6105d4565b6105d486838151811061058f57fe5b60200260200101518684815181106105a357fe5b60200260200101516040015161ffff166105cf8886815181106105c257fe5b60200260200101516112a8565b611337565b8383815181106105e057fe5b60209081029190910101525060010161049a565b5090505b9392505050565b6001600160a01b0382166000908152602082905260409020805461010090046001600160401b03161561033c5760405162461bcd60e51b81526004016103ad906137e6565b8051608001516060820151511461066d5760405162461bcd60e51b81526004016103ad90613986565b50565b60a0810151516106925760405162461bcd60e51b81526004016103ad90613936565b806060015160200151518160a0015151146106bf5760405162461bcd60e51b81526004016103ad906136f6565b806060015160200151518160e0015151146106ec5760405162461bcd60e51b81526004016103ad90613836565b80606001516020015151816101000151511461066d5760405162461bcd60e51b81526004016103ad906138b6565b6001816020015151111561066d5760005b8160200151518110156102b157600181015b8260200151518110156107a0578260200151818151811061075a57fe5b60200260200101518360200151838151811061077257fe5b602002602001015114156107985760405162461bcd60e51b81526004016103ad90613946565b60010161073d565b5060010161072b565b60005b8160a00151518110156102b157600061081c8360000151600001518460a0015184815181106107d757fe5b60200260200101516107ff8660c0015186815181106107f257fe5b602002602001015161136d565b8660e00151868151811061080f57fe5b60200260200101516113a7565b90508061083b5760405162461bcd60e51b81526004016103ad906138c6565b506001016107ac565b60005b8160a00151518161ffff1610156102b15760008260c001518261ffff168151811061086e57fe5b6020026020010151604001519050610884611fa7565b6108b16108ab8560a001518561ffff168151811061089e57fe5b6020026020010151610e3e565b83611551565b8451604080820151835160809093015191516364f40d6f60e01b81529394506000936001600160a01b03909116926364f40d6f926108f192600401613a32565b60206040518083038186803b15801561090957600080fd5b505afa15801561091d573d6000803e3d6000fd5b505050506040513d601f19601f8201168201806040525061094191908101906123bb565b90506001600160a01b0381166109695760405162461bcd60e51b81526004016103ad906138f6565b6000816001600160a01b031663e618a6f58760a001518761ffff168151811061098e57fe5b60200260200101516109ad8960c001518961ffff16815181106105c257fe5b8960400151898b61010001518b61ffff16815181106109c857fe5b60200260200101516040518663ffffffff1660e01b81526004016109f0959493929190613668565b60206040518083038186803b158015610a0857600080fd5b505afa158015610a1c573d6000803e3d6000fd5b505050506040513d601f19601f82011682018060405250610a40919081019061235b565b905080610a5f5760405162461bcd60e51b81526004016103ad906137d6565b5050600190920191506108479050565b60608160a0015151604051908082528060200260200182016040528015610aa0578160200160208202803883390190505b50905060005b82606001516020015151811015610afa578260c001518181518110610ac757fe5b602002602001015160400151828281518110610adf57fe5b61ffff90921660209283029190910190910152600101610aa6565b5081516060015160408084015160a08501519151630a8467c960e31b81526001600160a01b03909316926354233e4892610b3992918690600401613626565b60206040518083038186803b158015610b5157600080fd5b505afa158015610b65573d6000803e3d6000fd5b505050506040513d601f19601f82011682018060405250610b89919081019061235b565b6102b15760405162461bcd60e51b81526004016103ad90613956565b600080610bb8836000815181106105c257fe5b905060015b835181101561043d576000610bd78583815181106105c257fe5b905082811115610be5578092505b50600101610bbd565b60005b8160a001515181101561033c5760008260c001518281518110610c1057fe5b6020026020010151604001519050610c26611fc6565b610c42610c3c8560a00151858151811061089e57fe5b836115a5565b90508361012001518381518110610c5557fe5b6020026020010151856003018460048110610c6c57fe5b6005020155602081015160601c600386018460048110610c8857fe5b6005020160010160006101000a8154816001600160a01b0302191690836001600160a01b031602179055508060400151856003018460048110610cc757fe5b6005020160020160006101000a8154816001600160a01b0302191690836001600160a01b031602179055508060600151856003018460048110610d0657fe5b60050201600301555050600101610bf1565b60005b816060015160400151518161ffff16101561033c576000610d4483604001518361ffff16611275565b9050610d4e611fc6565b6060840151610d63908463ffffffff6115ec16565b905081856017018461ffff1660048110610d7957fe5b6005020155602081015160601c6017860161ffff851660048110610d9957fe5b6005020160010160006101000a8154816001600160a01b0302191690836001600160a01b031602179055508060400151856017018461ffff1660048110610ddc57fe5b6005020160020160006101000a8154816001600160a01b0302191690836001600160a01b031602179055508060600151856017018461ffff1660048110610e1f57fe5b60050201600301555050600101610d1b565b600160ff919091161b1790565b610e46611fed565b6060610e59610e54846115f4565b611619565b8051909150600514610e7d5760405162461bcd60e51b81526004016103ad906137b6565b6000610e9c82600081518110610e8f57fe5b6020026020010151611728565b905060008111610ebe5760405162461bcd60e51b81526004016103ad906136c6565b6060610edd83600281518110610ed057fe5b6020026020010151611619565b905060608151604051908082528060200260200182016040528015610f1c57816020015b610f09611fa7565b815260200190600190039081610f015790505b50905060005b8251811015610f6657610f47838281518110610f3a57fe5b602002602001015161183e565b828281518110610f5357fe5b6020908102919091010152600101610f22565b506000610f8685600481518110610f7957fe5b60200260200101516118db565b90506040518060a00160405280858152602001610fa987600181518110610ed057fe5b815260200183815260200186600381518110610fc157fe5b602002602001015181526020018281525095505050505050919050565b610fe6611f55565b6020820151516004101561100c5760405162461bcd60e51b81526004016103ad90613776565b60408201515161102e5760405162461bcd60e51b81526004016103ad90613706565b604082015151600410156110545760405162461bcd60e51b81526004016103ad90613766565b6060826020015151604051908082528060200260200182016040528015611085578160200160208202803883390190505b50905060005b8360200151518110156110ed5760006110ad85602001518381518110610f7957fe5b9050806110cc5760405162461bcd60e51b81526004016103ad906138e6565b808383815181106110d957fe5b60209081029190910101525060010161108b565b50606083604001515160405190808252806020026020018201604052801561112f57816020015b61111c611fc6565b8152602001906001900390816111145790505b50905060005b846040015151811015611181576111628560400151828151811061115557fe5b6020026020010151611968565b82828151811061116e57fe5b6020908102919091010152600101611135565b5061118f8460600151611728565b156111ac5760405162461bcd60e51b81526004016103ad90613786565b6040805160a08101825285518152602081019390935282015260006060820152608080840151908201529050919050565b600490565b6111ea611f87565b633b9aca00808304906127109084068190049084066429f16b11c68311156112245760405162461bcd60e51b81526004016103ad906136e6565b61ffff8211156112465760405162461bcd60e51b81526004016103ad90613726565b604080516060810182526001600160401b03909416845261ffff92831660208501529116908201529050919050565b6000828260405160200161128a9291906135ec565b60405160208183030381529060405280519060200120905092915050565b6000600161271003826040015161ffff1611156112d75760405162461bcd60e51b81526004016103ad90613816565b81516429f16b11c66001600160401b0390911611156113085760405162461bcd60e51b81526004016103ad90613966565b506040810151602082015182516001600160401b0316633b9aca000261ffff9182166127100201911601919050565b600083838360405160200161134e9392919061360e565b6040516020818303038152906040528051906020012090509392505050565b611375611f87565b506040805160608101825282516001600160401b0316815260209283015161ffff169281019290925260009082015290565b6000826040015161ffff166000146113d15760405162461bcd60e51b81526004016103ad906137f6565b6113d9611fed565b6113e285610e3e565b8051604051630461cb1160e51b81529192506000916001600160a01b03891691638c396220916114159190600401613a24565b60206040518083038186803b15801561142d57600080fd5b505afa158015611441573d6000803e3d6000fd5b505050506040513d601f19601f8201168201806040525061146591908101906124bc565b905061146f611a77565b60ff168160ff16146114935760405162461bcd60e51b81526004016103ad906139e6565b845160405163f25b3f9960e01b81526000916001600160a01b038a169163f25b3f99916114c291600401613a4d565b604080518083038186803b1580156114d957600080fd5b505afa1580156114ed573d6000803e3d6000fd5b505050506040513d601f19601f820116820180604052506115119190810190612381565b509050806115315760405162461bcd60e51b81526004016103ad90613826565b61154587876020015161ffff168388611a7c565b98975050505050505050565b611559611fa7565b8260400151518261ffff16106115815760405162461bcd60e51b81526004016103ad90613736565b82604001518261ffff168151811061159557fe5b6020026020010151905092915050565b6115ad611fc6565b8260400151518261ffff16106115d55760405162461bcd60e51b81526004016103ad90613736565b6105f883604001518361ffff168151811061115557fe5b611559611fc6565b6115fc612022565b506040805180820190915281518152602082810190820152919050565b606061162482611bc7565b6116405760405162461bcd60e51b81526004016103ad906138a6565b6000806116508460200151611c01565b8551919350915082146116755760405162461bcd60e51b81526004016103ad90613756565b600061168085611daa565b90506060816040519080825280602002602001820160405280156116be57816020015b6116ab612022565b8152602001906001900390816116a35790505b50602087015190915083016000805b8481101561171b576116de83611c01565b508092505060405180604001604052808381526020018481525084828151811061170457fe5b6020908102919091010152918101916001016116cd565b5091979650505050505050565b80516000901580159061173d57508151602110155b6117595760405162461bcd60e51b81526004016103ad906139d6565b61176282611bc7565b1561177f5760405162461bcd60e51b81526004016103ad906138d6565b60008061178f8460200151611c01565b8551919350915082146117b45760405162461bcd60e51b81526004016103ad90613716565b60208085015182018051838503929091600083901a918410156117de57836020036101000a830492505b811580156117ea575084155b156118075760405162461bcd60e51b81526004016103ad90613846565b811580156118155750600184115b156118325760405162461bcd60e51b81526004016103ad906136d6565b50909695505050505050565b611846611fa7565b606061185183611619565b905080516002146118745760405162461bcd60e51b81526004016103ad90613886565b61187c611fa7565b604051806040016040528061189784600081518110610e8f57fe5b8152602001836001815181106118a957fe5b602002602001015181525090508060000151600014156105f85760405162461bcd60e51b81526004016103ad90613906565b80516000906021146118ff5760405162461bcd60e51b81526004016103ad906139c6565b61190882611bc7565b156119255760405162461bcd60e51b81526004016103ad906138d6565b6000806119358460200151611c01565b91509150816021146119595760405162461bcd60e51b81526004016103ad90613976565b60208401510151915050919050565b611970611fc6565b606061197f8360200151611619565b905080516003146119a25760405162461bcd60e51b81526004016103ad90613796565b6119aa611fc6565b6040518060800160405280856000015181526020016119dc846000815181106119cf57fe5b6020026020010151611e21565b60601b6bffffffffffffffffffffffff19168152602001611a03846001815181106119cf57fe5b6001600160a01b03168152602001611a2184600281518110610e8f57fe5b90526060810151909150611a475760405162461bcd60e51b81526004016103ad906137c6565b60208101516bffffffffffffffffffffffff19166105f85760405162461bcd60e51b81526004016103ad90613866565b600290565b6000815160001415611aa05760405162461bcd60e51b81526004016103ad90613806565b6020825181611aab57fe5b0615611ac95760405162461bcd60e51b81526004016103ad906139a6565b6020825181611ad457fe5b0460020a8410611af65760405162461bcd60e51b81526004016103ad90613a06565b600080600060f81b87604051602001611b109291906135c4565b60408051601f198184030181529190528051602091820120915086905b85518111611bb95785810151935060028206611b7957604051611b5c90600160f81b908590879060200161358d565b604051602081830303815290604052805190602001209250611bab565b604051611b9290600160f81b908690869060200161358d565b6040516020818303038152906040528051906020012092505b600282049150602001611b2d565b505090931495945050505050565b8051600090611bd857506000610362565b6020820151805160001a9060c0821015611bf757600092505050610362565b5060019392505050565b8051600090819081908190811a6080811015611c24576001925060009150611d9f565b60808110801590611c35575060b881105b15611c7e57607e19810192506002831415611c7557600186015160001a6080811015611c735760405162461bcd60e51b81526004016103ad90613996565b505b60019150611d9f565b60b88110801590611c8f575060c081105b15611d095760019590950180519095602081900360b7016101000a820480820160b519019450909160001a60b619830181611cdc5760405162461bcd60e51b81526004016103ad906137a6565b60378311611cfc5760405162461bcd60e51b81526004016103ad90613746565b6001019350611d9f915050565b60c08110801590611d1a575060f881105b15611d2f5760be198101925060019150611d9f565b60019590950180519095602081900360f7016101000a820480820160f519019450909160001a60f619830181611d775760405162461bcd60e51b81526004016103ad90613896565b60378311611d975760405162461bcd60e51b81526004016103ad90613876565b600101935050505b509092509050915091565b600080600090506000611dc08460200151611c01565b602086015186519193508084019250015b80821015611e17576000611de483611c01565b5092830192905081831115611e0b5760405162461bcd60e51b81526004016103ad90613856565b50600190930192611dd1565b5091949350505050565b8051600090601514611e455760405162461bcd60e51b81526004016103ad90613926565b611e4e82611bc7565b15611e6b5760405162461bcd60e51b81526004016103ad906138d6565b600080611e7b8460200151611c01565b9150915081601514611e9f5760405162461bcd60e51b81526004016103ad906139b6565b60208401510151600160601b9004915050919050565b604051806101400160405280611ec9611f17565b81526000602082015260606040820181905201611ee4611f55565b81526020016000801916815260200160608152602001606081526020016060815260200160608152602001606081525090565b6040518060a0016040528060006001600160a01b03168152602001611f3a61203c565b81526000602082018190526040820181905260609091015290565b6040518060a0016040528060008152602001606081526020016060815260200160008152602001600080191681525090565b604080516060810182526000808252602082018190529181019190915290565b604051806040016040528060008152602001611fc1612022565b905290565b60408051608081018252600080825260208201819052918101829052606081019190915290565b6040518060a00160405280600081526020016060815260200160608152602001612015612022565b8152600060209091015290565b604051806040016040528060008152602001600081525090565b6040518060200160405280600081525090565b600082601f83011261206057600080fd5b813561207361206e82613a81565b613a5b565b81815260209384019390925082018360005b838110156120b1578135860161209b8882612141565b8452506020928301929190910190600101612085565b5050505092915050565b600082601f8301126120cc57600080fd5b81356120da61206e82613a81565b915081818352602084019350602081019050838560208402820111156120ff57600080fd5b60005b838110156120b15781612115888261225c565b8452506020928301929190910190600101612102565b805161026381613b78565b805161026381613b8c565b600082601f83011261215257600080fd5b813561216061206e82613aa1565b9150808252602083016020830185838301111561217c57600080fd5b612187838284613b36565b50505092915050565b805161026381613b95565b803561026381613b95565b6000602082840312156121b857600080fd5b6121c26020613a5b565b905060006121d0848461225c565b82525092915050565b600060a082840312156121eb57600080fd5b6121f560a0613a5b565b90506000612203848461219b565b8252506020612214848483016121a6565b60208301525060406122288482850161219b565b604083015250606061223c8482850161219b565b60608301525060806122508482850161225c565b60808301525092915050565b803561026381613b8c565b600060a0828403121561227957600080fd5b61228360a0613a5b565b905081356001600160401b0381111561229b57600080fd5b6122a784828501612141565b82525060208201356001600160401b038111156122c357600080fd5b6122cf8482850161204f565b60208301525060408201356001600160401b038111156122ee57600080fd5b6122fa848285016120bb565b60408301525060608201356001600160401b0381111561231957600080fd5b6123258482850161204f565b60608301525060808201356001600160401b0381111561234457600080fd5b6122508482850161204f565b805161026381613b9e565b60006020828403121561236d57600080fd5b6000612379848461212b565b949350505050565b6000806040838503121561239457600080fd5b60006123a08585612136565b92505060206123b185828601612136565b9150509250929050565b6000602082840312156123cd57600080fd5b60006123798484612190565b600080600080608085870312156123ef57600080fd5b60006123fb878761219b565b945050602061240c8782880161219b565b935050604061241d8782880161219b565b925050606061242e8782880161225c565b91505092959194509250565b600080600060e0848603121561244f57600080fd5b600061245b86866121d9565b93505060a061246c8682870161225c565b92505060c08401356001600160401b0381111561248857600080fd5b61249486828701612267565b9150509250925092565b6000602082840312156124b057600080fd5b60006123798484612136565b6000602082840312156124ce57600080fd5b60006123798484612350565b60006105f88383612606565b60006124f28383613572565b505060200190565b600061250582613ace565b61250f8185613ad2565b93508360208202850161252185613ac8565b8060005b8581101561171b578484038952815161253e85826124da565b945061254983613ac8565b60209a909a0199925050600101612525565b600061256682613ace565b6125708185613ad2565b935061257b83613ac8565b8060005b838110156125a957815161259388826124e6565b975061259e83613ac8565b92505060010161257f565b509495945050505050565b6125c56125c082613aeb565b613af8565b82525050565b6125c56125c082613af8565b60006125e282613ace565b6125ec8185610362565b93506125fc818560208601613b42565b9290920192915050565b600061261182613ace565b61261b8185613ad2565b935061262b818560208601613b42565b61263481613b6e565b9093019392505050565b6125c581613afb565b6000612654601e83613ad2565b7f5472616e73616374696f6e2074797065206d757374206e6f7420626520300000815260200192915050565b600061268d601983613ad2565b7f4c656164696e67207a65726f732061726520696e76616c696400000000000000815260200192915050565b60006126c6603483613ad2565b7f626c6f636b4e756d2065786365656473206d61782073697a6520616c6c6f77658152736420696e20506c61736d614672616d65776f726b60601b602082015260400192915050565b600061271c605283613ad2565b7f4e756d626572206f6620696e707574207472616e73616374696f6e7320646f6581527f73206e6f74206d61746368206e756d626572206f6620696e2d666c69676874206020820152717472616e73616374696f6e20696e7075747360701b604082015260600192915050565b6000612796602183613ad2565b7f5472616e73616374696f6e2063616e6e6f7420686176652030206f75747075748152607360f81b602082015260400192915050565b60006127d9603a83613ad2565b7f4465636f646564206974656d206c656e677468206d757374206265206571756181527f6c20746f2074686520696e7075742064617461206c656e677468000000000000602082015260400192915050565b6000612838602283613ad2565b7f7478496e6465782065786365656473207468652073697a65206f662075696e74815261189b60f11b602082015260400192915050565b600061287c601a83613ad2565b7f4f757470757420696e646578206f7574206f6620626f756e6473000000000000815260200192915050565b60006128b5602083613ad2565b7f496e76616c6964206c656e67746820666f722061206c6f6e6720737472696e67815260200192915050565b60006128ee602683613ad2565b7f4465636f64656420524c50206c656e67746820666f72206c69737420697320698152651b9d985b1a5960d21b602082015260400192915050565b6000612936602583613ad2565b7f5472616e73616374696f6e206f757470757473206e756d2065786365656473208152641b1a5b5a5d60da1b602082015260400192915050565b600061297d602483613ad2565b7f5472616e73616374696f6e20696e70757473206e756d2065786365656473206c8152631a5b5a5d60e21b602082015260400192915050565b60006129c3601083613ad2565b6f0747844617461206d75737420626520360841b815260200192915050565b60006129ef601d83613ad2565b7f4f75747075742064617461206d75737420686176652033206974656d73000000815260200192915050565b6000612a28603f83613ad2565b7f496e76616c6964206c656164696e67207a65726f7320696e206c656e6774682081527f6f6620746865206c656e67746820666f722061206c6f6e6720737472696e6700602082015260400192915050565b6000612a87601f83613ad2565b7f496e76616c696420656e636f64696e67206f66207472616e73616374696f6e00815260200192915050565b6000612ac0601b83613ad2565b7f4f757470757420616d6f756e74206d757374206e6f7420626520300000000000815260200192915050565b6000612af9601983613ad2565b7f5370656e64696e6720636f6e646974696f6e206661696c656400000000000000815260200192915050565b6000612b32603783613ad2565b7f546865726520697320616e2061637469766520696e2d666c696768742065786981527f742066726f6d2074686973207472616e73616374696f6e000000000000000000602082015260400192915050565b6000612b91601c83613ad2565b7f496e76616c6964207472616e73616374696f6e20706f736974696f6e00000000815260200192915050565b6000612bca601e83613ad2565b7f4d65726b6c652070726f6f66206d757374206e6f7420626520656d7074790000815260200192915050565b6000612c03601483613ad2565b73092dcecc2d8d2c840deeae8e0eae840d2dcc8caf60631b815260200192915050565b6000612c33602c83613ad2565b7f4661696c656420746f206765742074686520726f6f742068617368206f66207481526b686520626c6f636b206e756d60a01b602082015260400192915050565b6000612c81606783613ad2565b7f4e756d626572206f6620696e707574207472616e73616374696f6e7320696e6381527f6c7573696f6e2070726f6f667320646f6573206e6f74206d617463682074686560208201527f206e756d626572206f6620696e2d666c69676874207472616e73616374696f6e60408201526620696e7075747360c81b606082015260800192915050565b6000612d16602283613ad2565b7f5363616c617220302073686f756c6420626520656e636f646564206173203078815261038360f41b602082015260400192915050565b6000612d5a604883613ad2565b7f496e76616c6964206465636f646564206c656e677468206f6620524c5020697481527f656d20666f756e6420647572696e6720636f756e74696e67206974656d7320696020820152671b8818481b1a5cdd60c21b604082015260600192915050565b6000612dca602083613ad2565b7f4f7574707574206f75747075744775617264206d757374206e6f742062652030815260200192915050565b6000612e03601e83613ad2565b7f496e76616c6964206c656e67746820666f722061206c6f6e67206c6973740000815260200192915050565b6000612e3c601883613ad2565b7f4f7574707574206d75737420686176652032206974656d730000000000000000815260200192915050565b6000612e75603d83613ad2565b7f496e76616c6964206c656164696e67207a65726f7320696e206c656e6774682081527f6f6620746865206c656e67746820666f722061206c6f6e67206c697374000000602082015260400192915050565b6000612ed4601283613ad2565b71125d195b481a5cc81b9bdd0818481b1a5cdd60721b815260200192915050565b6000612f02605f83613ad2565b7f4e756d626572206f6620696e707574207472616e73616374696f6e207769746e81527f657373657320646f6573206e6f74206d6174636820746865206e756d6265722060208201527f6f6620696e2d666c69676874207472616e73616374696f6e20696e7075747300604082015260600192915050565b6000612f87602b83613ad2565b7f496e707574207472616e73616374696f6e206973206e6f74207374616e64617281526a1908199a5b985b1a5e995960aa1b602082015260400192915050565b6000612fd4601783613ad2565b7f4974656d206d757374206e6f742062652061206c697374000000000000000000815260200192915050565b600061300d601683613ad2565b75139d5b1b081a5b9c1d5d081b9bdd08185b1b1bddd95960521b815260200192915050565b600061303f602583613ad2565b7f5370656e64696e6720636f6e646974696f6e20636f6e7472616374206e6f7420815264199bdd5b9960da1b602082015260400192915050565b6000613086601983613ad2565b7f4f75747075742074797065206d757374206e6f74206265203000000000000000815260200192915050565b60006130bf605483613ad2565b7f4e756d626572206f6620696e707574207472616e73616374696f6e7320646f6581527f73206e6f74206d61746368206e756d626572206f662070726f766964656420696020820152736e707574207574786f7320706f736974696f6e7360601b604082015260600192915050565b600061313b601683613ad2565b754974656d206c656e677468206d75737420626520323160501b815260200192915050565b600061316d602683613ad2565b7f496e2d666c69676874207472616e73616374696f6e206d757374206861766520815265696e7075747360d01b602082015260400192915050565b60006131b5602d83613ad2565b7f496e2d666c69676874207472616e73616374696f6e206d75737420686176652081526c756e6971756520696e7075747360981b602082015260400192915050565b6000613204601883613ad2565b7f496e76616c6964207374617465207472616e736974696f6e0000000000000000815260200192915050565b600061323d601483613ad2565b7324b73b30b634b210313637b1b590373ab6b132b960611b815260200192915050565b600061326d601e83613ad2565b7f4465636f646564206974656d206c656e677468206d7573742062652033330000815260200192915050565b60006132a6602d83613ad2565b7f556e737570706f72746564207472616e73616374696f6e2074797065206f662081526c74686520657869742067616d6560981b602082015260400192915050565b60006132f5601d83613ad2565b7f496e76616c69642073686f727420737472696e6720656e636f64696e67000000815260200192915050565b600061332e602f83613ad2565b7f4c656e677468206f66204d65726b6c652070726f6f66206d757374206265206181526e1036bab63a34b836329037b310199960891b602082015260400192915050565b600061337f601e83613ad2565b7f4465636f646564206974656d206c656e677468206d7573742062652032310000815260200192915050565b60006133b8601683613ad2565b754974656d206c656e677468206d75737420626520333360501b815260200192915050565b60006133ea602a83613ad2565b7f4974656d206c656e677468206d757374206265206265747765656e203120616e8152696420333320627974657360b01b602082015260400192915050565b6000613436602c83613ad2565b7f4d6f7265567046696e616c697a6174696f6e3a206e6f742061204d6f7265565081526b040e0e4dee8dec6ded840e8f60a31b602082015260400192915050565b6000613484601e83613ad2565b7f546f6f206d616e79207472616e73616374696f6e732070726f76696465640000815260200192915050565b60006134bd602c83613ad2565b7f496e64657820646f6573206e6f74206d6174636820746865206c656e6774682081526b37b3103a343290383937b7b360a11b602082015260400192915050565b8051602083019061350f848261357b565b50505050565b805160a0830190613526848261263e565b50602082015161353960208501826134fe565b50604082015161354c604085018261263e565b50606082015161355f606085018261263e565b50608082015161350f608085018261357b565b6125c581613b06565b6125c581613af8565b6125c581613b2b565b600061359982866125b4565b6001820191506135a982856125cb565b6020820191506135b982846125cb565b506020019392505050565b60006135d082856125b4565b60018201915061237982846125d7565b60006105f882846125d7565b60006135f882856125d7565b915061360482846125cb565b5060200192915050565b600061361a82866125d7565b91506135a982856125cb565b606080825281016136378186612606565b9050818103602083015261364b81856124fa565b9050818103604083015261365f818461255b565b95945050505050565b60a080825281016136798188612606565b9050613688602083018761357b565b818103604083015261369a8186612606565b90506136a96060830185613572565b81810360808301526136bb8184612606565b979650505050505050565b6020808252810161035f81612647565b6020808252810161035f81612680565b6020808252810161035f816126b9565b6020808252810161035f8161270f565b6020808252810161035f81612789565b6020808252810161035f816127cc565b6020808252810161035f8161282b565b6020808252810161035f8161286f565b6020808252810161035f816128a8565b6020808252810161035f816128e1565b6020808252810161035f81612929565b6020808252810161035f81612970565b6020808252810161035f816129b6565b6020808252810161035f816129e2565b6020808252810161035f81612a1b565b6020808252810161035f81612a7a565b6020808252810161035f81612ab3565b6020808252810161035f81612aec565b6020808252810161035f81612b25565b6020808252810161035f81612b84565b6020808252810161035f81612bbd565b6020808252810161035f81612bf6565b6020808252810161035f81612c26565b6020808252810161035f81612c74565b6020808252810161035f81612d09565b6020808252810161035f81612d4d565b6020808252810161035f81612dbd565b6020808252810161035f81612df6565b6020808252810161035f81612e2f565b6020808252810161035f81612e68565b6020808252810161035f81612ec7565b6020808252810161035f81612ef5565b6020808252810161035f81612f7a565b6020808252810161035f81612fc7565b6020808252810161035f81613000565b6020808252810161035f81613032565b6020808252810161035f81613079565b6020808252810161035f816130b2565b6020808252810161035f8161312e565b6020808252810161035f81613160565b6020808252810161035f816131a8565b6020808252810161035f816131f7565b6020808252810161035f81613230565b6020808252810161035f81613260565b6020808252810161035f81613299565b6020808252810161035f816132e8565b6020808252810161035f81613321565b6020808252810161035f81613372565b6020808252810161035f816133ab565b6020808252810161035f816133dd565b6020808252810161035f81613429565b6020808252810161035f81613477565b6020808252810161035f816134b0565b60a081016102638284613515565b60208101610263828461357b565b60408101613a40828561357b565b6105f8602083018461357b565b602081016102638284613584565b6040518181016001600160401b0381118282101715613a7957600080fd5b604052919050565b60006001600160401b03821115613a9757600080fd5b5060209081020190565b60006001600160401b03821115613ab757600080fd5b506020601f91909101601f19160190565b60200190565b5190565b90815260200190565b600061035f82613b0d565b151590565b6001600160f81b03191690565b90565b600061035f82613adb565b61ffff1690565b6001600160a01b031690565b6001600160401b031690565b60ff1690565b600061035f82613b19565b82818337506000910152565b60005b83811015613b5d578181015183820152602001613b45565b8381111561350f5750506000910152565b601f01601f191690565b613b8181613ae6565b811461066d57600080fd5b613b8181613af8565b613b8181613afb565b613b8181613b2556fea365627a7a72315820adbee4aa04855c6cfd566beecda8efe049c6b33db9957c43fbf67164cf2661ed6c6578706572696d656e74616cf564736f6c634300050b0040",
  "source": "pragma solidity 0.5.11;\npragma experimental ABIEncoderV2;\n\nimport \"../PaymentExitDataModel.sol\";\nimport \"../PaymentInFlightExitModelUtils.sol\";\nimport \"../routers/PaymentInFlightExitRouterArgs.sol\";\nimport \"../../interfaces/ISpendingCondition.sol\";\nimport \"../../interfaces/IStateTransitionVerifier.sol\";\nimport \"../../registries/SpendingConditionRegistry.sol\";\nimport \"../../utils/ExitableTimestamp.sol\";\nimport \"../../utils/ExitId.sol\";\nimport \"../../utils/OutputId.sol\";\nimport \"../../utils/MoreVpFinalization.sol\";\nimport \"../../../utils/PosLib.sol\";\nimport \"../../../utils/Merkle.sol\";\nimport \"../../../framework/PlasmaFramework.sol\";\nimport \"../../../transactions/PaymentTransactionModel.sol\";\nimport \"../../../transactions/GenericTransaction.sol\";\n\nlibrary PaymentStartInFlightExit {\n    using ExitableTimestamp for ExitableTimestamp.Calculator;\n    using PosLib for PosLib.Position;\n    using PaymentInFlightExitModelUtils for PaymentExitDataModel.InFlightExit;\n    using PaymentTransactionModel for PaymentTransactionModel.Transaction;\n\n    /**\n     * @dev supportedTxType enables code reuse in different Payment Tx versions\n     */\n    struct Controller {\n        PlasmaFramework framework;\n        ExitableTimestamp.Calculator exitTimestampCalculator;\n        SpendingConditionRegistry spendingConditionRegistry;\n        IStateTransitionVerifier transitionVerifier;\n        uint256 supportedTxType;\n    }\n\n    event InFlightExitStarted(\n        address indexed initiator,\n        bytes32 indexed txHash\n    );\n\n     /**\n     * @dev data to be passed around start in-flight exit helper functions\n     * @param controller the Controller struct of this library\n     * @param exitId ID of the exit\n     * @param inFlightTxRaw In-flight transaction as bytes\n     * @param inFlightTx Decoded in-flight transaction\n     * @param inFlightTxHash Hash of in-flight transaction\n     * @param inputTxs Input transactions as bytes\n     * @param inputUtxosPos Postions of input utxos coded as integers\n     * @param inputTxsInclusionProofs Merkle proofs for input transactions\n     * @param inFlightTxWitnesses Witnesses for in-flight transactions\n     * @param outputIds Output IDs for input transactions.\n     */\n    struct StartExitData {\n        Controller controller;\n        uint160 exitId;\n        bytes inFlightTxRaw;\n        PaymentTransactionModel.Transaction inFlightTx;\n        bytes32 inFlightTxHash;\n        bytes[] inputTxs;\n        PosLib.Position[] inputUtxosPos;\n        bytes[] inputTxsInclusionProofs;\n        bytes[] inFlightTxWitnesses;\n        bytes32[] outputIds;\n    }\n\n    /**\n     * @notice Function that builds the controller struct\n     * @return Controller struct of PaymentStartInFlightExit\n     */\n    function buildController(\n        PlasmaFramework framework,\n        SpendingConditionRegistry spendingConditionRegistry,\n        IStateTransitionVerifier transitionVerifier,\n        uint256 supportedTxType\n    )\n        public\n        view\n        returns (Controller memory)\n    {\n        return Controller({\n            framework: framework,\n            exitTimestampCalculator: ExitableTimestamp.Calculator(framework.minExitPeriod()),\n            spendingConditionRegistry: spendingConditionRegistry,\n            transitionVerifier: transitionVerifier,\n            supportedTxType: supportedTxType\n        });\n    }\n\n    /**\n     * @notice Main logic function to start in-flight exit\n     * @dev emits InFlightExitStarted event on success\n     * @param self The controller struct\n     * @param inFlightExitMap The storage of all in-flight exit data\n     * @param args Arguments of start in-flight exit function from client\n     */\n    function run(\n        Controller memory self,\n        PaymentExitDataModel.InFlightExitMap storage inFlightExitMap,\n        PaymentInFlightExitRouterArgs.StartExitArgs memory args\n    )\n        public\n    {\n        StartExitData memory startExitData = createStartExitData(self, args);\n        verifyStart(startExitData, inFlightExitMap);\n        startExit(startExitData, inFlightExitMap);\n        emit InFlightExitStarted(msg.sender, startExitData.inFlightTxHash);\n    }\n\n    function createStartExitData(\n        Controller memory controller,\n        PaymentInFlightExitRouterArgs.StartExitArgs memory args\n    )\n        private\n        view\n        returns (StartExitData memory)\n    {\n        StartExitData memory exitData;\n        exitData.controller = controller;\n        exitData.exitId = ExitId.getInFlightExitId(args.inFlightTx);\n        exitData.inFlightTxRaw = args.inFlightTx;\n        exitData.inFlightTx = PaymentTransactionModel.decode(args.inFlightTx);\n        exitData.inFlightTxHash = keccak256(args.inFlightTx);\n        exitData.inputTxs = args.inputTxs;\n        exitData.inputUtxosPos = decodeInputTxsPositions(args.inputUtxosPos);\n        exitData.inputTxsInclusionProofs = args.inputTxsInclusionProofs;\n        exitData.inFlightTxWitnesses = args.inFlightTxWitnesses;\n        exitData.outputIds = getOutputIds(controller, exitData.inputTxs, exitData.inputUtxosPos);\n        return exitData;\n    }\n\n    function decodeInputTxsPositions(uint256[] memory inputUtxosPos) private pure returns (PosLib.Position[] memory) {\n        require(inputUtxosPos.length <= PaymentTransactionModel.MAX_INPUT_NUM(), \"Too many transactions provided\");\n\n        PosLib.Position[] memory utxosPos = new PosLib.Position[](inputUtxosPos.length);\n        for (uint i = 0; i < inputUtxosPos.length; i++) {\n            utxosPos[i] = PosLib.decode(inputUtxosPos[i]);\n        }\n        return utxosPos;\n    }\n\n    function getOutputIds(Controller memory controller, bytes[] memory inputTxs, PosLib.Position[] memory utxoPos)\n        private\n        view\n        returns (bytes32[] memory)\n    {\n        require(inputTxs.length == utxoPos.length, \"Number of input transactions does not match number of provided input utxos positions\");\n        bytes32[] memory outputIds = new bytes32[](inputTxs.length);\n        for (uint i = 0; i < inputTxs.length; i++) {\n            bool isDepositTx = controller.framework.isDeposit(utxoPos[i].blockNum);\n            outputIds[i] = isDepositTx\n                ? OutputId.computeDepositOutputId(inputTxs[i], utxoPos[i].outputIndex, utxoPos[i].encode())\n                : OutputId.computeNormalOutputId(inputTxs[i], utxoPos[i].outputIndex);\n        }\n        return outputIds;\n    }\n\n    function verifyStart(\n        StartExitData memory exitData,\n        PaymentExitDataModel.InFlightExitMap storage inFlightExitMap\n    )\n        private\n        view\n    {\n        verifyExitNotStarted(exitData.exitId, inFlightExitMap);\n        verifyInFlightTxType(exitData);\n        verifyNumberOfInputsMatchesNumberOfInFlightTransactionInputs(exitData);\n        verifyNoInputSpentMoreThanOnce(exitData.inFlightTx);\n        verifyInputTransactionIsStandardFinalized(exitData);\n        verifyInputsSpent(exitData);\n        verifyStateTransition(exitData);\n    }\n\n    function verifyExitNotStarted(\n        uint160 exitId,\n        PaymentExitDataModel.InFlightExitMap storage inFlightExitMap\n    )\n        private\n        view\n    {\n        PaymentExitDataModel.InFlightExit storage exit = inFlightExitMap.exits[exitId];\n        require(exit.exitStartTimestamp == 0, \"There is an active in-flight exit from this transaction\");\n    }\n\n    function verifyInFlightTxType(StartExitData memory exitData) private pure {\n        require(exitData.inFlightTx.txType == exitData.controller.supportedTxType, \"Unsupported transaction type of the exit game\");\n    }\n\n    function verifyNumberOfInputsMatchesNumberOfInFlightTransactionInputs(StartExitData memory exitData) private pure {\n        require(exitData.inputTxs.length != 0, \"In-flight transaction must have inputs\");\n        require(\n            exitData.inputTxs.length == exitData.inFlightTx.inputs.length,\n            \"Number of input transactions does not match number of in-flight transaction inputs\"\n        );\n        require(\n            exitData.inputTxsInclusionProofs.length == exitData.inFlightTx.inputs.length,\n            \"Number of input transactions inclusion proofs does not match the number of in-flight transaction inputs\"\n        );\n        require(\n            exitData.inFlightTxWitnesses.length == exitData.inFlightTx.inputs.length,\n            \"Number of input transaction witnesses does not match the number of in-flight transaction inputs\"\n        );\n    }\n\n    function verifyNoInputSpentMoreThanOnce(PaymentTransactionModel.Transaction memory inFlightTx) private pure {\n        if (inFlightTx.inputs.length > 1) {\n            for (uint i = 0; i < inFlightTx.inputs.length; i++) {\n                for (uint j = i + 1; j < inFlightTx.inputs.length; j++) {\n                    require(inFlightTx.inputs[i] != inFlightTx.inputs[j], \"In-flight transaction must have unique inputs\");\n                }\n            }\n        }\n    }\n\n    function verifyInputTransactionIsStandardFinalized(StartExitData memory exitData) private view {\n        for (uint i = 0; i < exitData.inputTxs.length; i++) {\n            bool isStandardFinalized = MoreVpFinalization.isStandardFinalized(\n                exitData.controller.framework,\n                exitData.inputTxs[i],\n                exitData.inputUtxosPos[i].toStrictTxPos(),\n                exitData.inputTxsInclusionProofs[i]\n            );\n            require(isStandardFinalized, \"Input transaction is not standard finalized\");\n        }\n    }\n\n    function verifyInputsSpent(StartExitData memory exitData) private view {\n        for (uint16 i = 0; i < exitData.inputTxs.length; i++) {\n            uint16 outputIndex = exitData.inputUtxosPos[i].outputIndex;\n            GenericTransaction.Output memory output = GenericTransaction.getOutput(\n                GenericTransaction.decode(exitData.inputTxs[i]),\n                outputIndex\n            );\n\n            ISpendingCondition condition = exitData.controller.spendingConditionRegistry.spendingConditions(\n                output.outputType, exitData.controller.supportedTxType\n            );\n\n            require(address(condition) != address(0), \"Spending condition contract not found\");\n\n            bool isSpentByInFlightTx = condition.verify(\n                exitData.inputTxs[i],\n                exitData.inputUtxosPos[i].encode(),\n                exitData.inFlightTxRaw,\n                i,\n                exitData.inFlightTxWitnesses[i]\n            );\n            require(isSpentByInFlightTx, \"Spending condition failed\");\n        }\n    }\n\n    function verifyStateTransition(StartExitData memory exitData) private view {\n        uint16[] memory outputIndexForInputTxs = new uint16[](exitData.inputTxs.length);\n        for (uint i = 0; i < exitData.inFlightTx.inputs.length; i++) {\n            outputIndexForInputTxs[i] = exitData.inputUtxosPos[i].outputIndex;\n        }\n\n        require(\n            exitData.controller.transitionVerifier.isCorrectStateTransition(exitData.inFlightTxRaw, exitData.inputTxs, outputIndexForInputTxs),\n            \"Invalid state transition\"\n        );\n    }\n\n    function startExit(\n        StartExitData memory startExitData,\n        PaymentExitDataModel.InFlightExitMap storage inFlightExitMap\n    )\n        private\n    {\n        PaymentExitDataModel.InFlightExit storage ife = inFlightExitMap.exits[startExitData.exitId];\n        ife.isCanonical = true;\n        ife.bondOwner = msg.sender;\n        ife.bondSize = msg.value;\n        ife.position = getYoungestInputUtxoPosition(startExitData.inputUtxosPos);\n        ife.exitStartTimestamp = uint64(block.timestamp);\n        setInFlightExitInputs(ife, startExitData);\n        setInFlightExitOutputs(ife, startExitData);\n    }\n\n    function getYoungestInputUtxoPosition(PosLib.Position[] memory inputUtxosPos) private pure returns (uint256) {\n        uint256 youngest = inputUtxosPos[0].encode();\n        for (uint i = 1; i < inputUtxosPos.length; i++) {\n            uint256 encodedUtxoPos = inputUtxosPos[i].encode();\n            if (encodedUtxoPos > youngest) {\n                youngest = encodedUtxoPos;\n            }\n        }\n        return youngest;\n    }\n\n    function setInFlightExitInputs(\n        PaymentExitDataModel.InFlightExit storage ife,\n        StartExitData memory exitData\n    )\n        private\n    {\n        for (uint i = 0; i < exitData.inputTxs.length; i++) {\n            uint16 outputIndex = exitData.inputUtxosPos[i].outputIndex;\n            FungibleTokenOutputModel.Output memory output = FungibleTokenOutputModel.getOutput(\n                GenericTransaction.decode(exitData.inputTxs[i]),\n                outputIndex\n            );\n\n            ife.inputs[i].outputId = exitData.outputIds[i];\n            ife.inputs[i].exitTarget = address(uint160(output.outputGuard));\n            ife.inputs[i].token = output.token;\n            ife.inputs[i].amount = output.amount;\n        }\n    }\n\n    function setInFlightExitOutputs(\n        PaymentExitDataModel.InFlightExit storage ife,\n        StartExitData memory exitData\n    )\n        private\n    {\n        for (uint16 i = 0; i < exitData.inFlightTx.outputs.length; i++) {\n            // deposit transaction can't be in-flight exited\n            bytes32 outputId = OutputId.computeNormalOutputId(exitData.inFlightTxRaw, i);\n            FungibleTokenOutputModel.Output memory output = exitData.inFlightTx.getOutput(i);\n\n            ife.outputs[i].outputId = outputId;\n            ife.outputs[i].exitTarget = address(uint160(output.outputGuard));\n            ife.outputs[i].token = output.token;\n            ife.outputs[i].amount = output.amount;\n        }\n    }\n}\n",
  "sourcePath": "/home/node/plasma-contracts/plasma_framework/contracts/src/exits/payment/controllers/PaymentStartInFlightExit.sol",
  "compiler": {
    "name": "solc",
    "version": "0.5.11+commit.c082d0b4.Emscripten.clang"
  },
  "schemaVersion": "3.0.16",
  "updatedAt": "2020-04-07T14:09:22.620Z",
  "devdoc": {
    "methods": {
      "buildController(PlasmaFramework,SpendingConditionRegistry,IStateTransitionVerifier,uint256)": {
        "return": "Controller struct of PaymentStartInFlightExit"
      },
      "run(PaymentStartInFlightExit.Controller,PaymentExitDataModel.InFlightExitMap storage,PaymentInFlightExitRouterArgs.StartExitArgs)": {
        "details": "emits InFlightExitStarted event on success",
        "params": {
          "args": "Arguments of start in-flight exit function from client",
          "inFlightExitMap": "The storage of all in-flight exit data",
          "self": "The controller struct"
        }
      }
    }
  },
  "userdoc": {
    "methods": {
      "buildController(PlasmaFramework,SpendingConditionRegistry,IStateTransitionVerifier,uint256)": {
        "notice": "Function that builds the controller struct"
      },
      "run(PaymentStartInFlightExit.Controller,PaymentExitDataModel.InFlightExitMap storage,PaymentInFlightExitRouterArgs.StartExitArgs)": {
        "notice": "Main logic function to start in-flight exit"
      }
    }
  }
}