{
  "contractName": "PaymentExitDataModel",
  "abi": [
    {
      "constant": true,
      "inputs": [],
      "name": "MAX_INPUT_NUM",
      "outputs": [
        {
          "internalType": "uint8",
          "name": "",
          "type": "uint8"
        }
      ],
      "payable": false,
      "stateMutability": "view",
      "type": "function"
    },
    {
      "constant": true,
      "inputs": [],
      "name": "MAX_OUTPUT_NUM",
      "outputs": [
        {
          "internalType": "uint8",
          "name": "",
          "type": "uint8"
        }
      ],
      "payable": false,
      "stateMutability": "view",
      "type": "function"
    }
  ],
  "bytecode": "0x6098610024600b82828239805160001a607314601757fe5b30600052607381538281f3fe7300000000000000000000000000000000000000003014608060405260043610603d5760003560e01c8063a7474b73146042578063d8034021146042575b600080fd5b6048605e565b6040805160ff9092168252519081900360200190f35b60048156fea265627a7a72315820f37c92a83fed8b190fb019df9c8830d93ce0b863d6c0007e31c6318fd3d9c46b64736f6c634300050b0032",
  "source": "pragma solidity 0.5.11;\n\n/**\n * @notice Model library for PaymentExit\n */\nlibrary PaymentExitDataModel {\n    uint8 constant public MAX_INPUT_NUM = 4;\n    uint8 constant public MAX_OUTPUT_NUM = 4;\n\n    /**\n     * @dev Exit model for a standard exit\n     * @param exitable Boolean that defines whether exit is possible. Used by the challenge game to flag the result.\n     * @param utxoPos The UTXO position of the transaction's exiting output\n     * @param outputId The output identifier, in OutputId format\n     * @param exitTarget The address to which the exit withdraws funds\n     * @param amount The amount of funds to withdraw with this exit\n     * @param bondSize The size of the bond put up for this exit to start, and which is used to cover the cost of challenges\n     */\n    struct StandardExit {\n        bool exitable;\n        uint256 utxoPos;\n        bytes32 outputId;\n        address payable exitTarget;\n        uint256 amount;\n        uint256 bondSize;\n    }\n\n    /**\n     * @dev Mapping of (exitId => StandardExit) that stores all standard exit data\n     */\n    struct StandardExitMap {\n        mapping (uint160 => PaymentExitDataModel.StandardExit) exits;\n    }\n\n    /**\n     * @dev The necessary data needed for processExit for in-flight exit inputs/outputs\n     */\n    struct WithdrawData {\n        bytes32 outputId;\n        address payable exitTarget;\n        address token;\n        uint256 amount;\n        uint256 piggybackBondSize;\n    }\n\n    /**\n     * @dev Exit model for an in-flight exit\n     * @param isCanonical A boolean that defines whether the exit is canonical\n     *                    A canonical exit withdraws the outputs while a non-canonical exit withdraws the  inputs\n     * @param exitStartTimestamp Timestamp for the start of the exit\n     * @param exitMap A bitmap that stores piggyback flags\n     * @param position The position of the youngest input of the in-flight exit transaction\n     * @param inputs Fixed-size array of data required to withdraw inputs (if undefined, the default value is empty)\n     * @param outputs Fixed-size array of data required to withdraw outputs (if undefined, the default value is empty)\n     * @param bondOwner Recipient of the bond, when the in-flight exit is processed\n     * @param bondSize The size of the bond put up for this exit to start. Used to cover the cost of challenges.\n     * @param oldestCompetitorPosition The position of the oldest competing transaction\n     *                                 The exiting transaction is only canonical if all competing transactions are younger.\n     */\n    struct InFlightExit {\n        // Canonicity is assumed at start, and can be challenged and set to `false` after start\n        // Response to non-canonical challenge can set it back to `true`\n        bool isCanonical;\n        uint64 exitStartTimestamp;\n\n        /**\n         * exit map Stores piggybacks and finalized exits\n         * right most 0 ~ MAX_INPUT bits is flagged when input is piggybacked\n         * right most MAX_INPUT ~ MAX_INPUT + MAX_OUTPUT bits is flagged when output is piggybacked\n         */\n        uint256 exitMap;\n        uint256 position;\n        WithdrawData[MAX_INPUT_NUM] inputs;\n        WithdrawData[MAX_OUTPUT_NUM] outputs;\n        address payable bondOwner;\n        uint256 bondSize;\n        uint256 oldestCompetitorPosition;\n    }\n\n    /**\n     * @dev Mapping of (exitId => InFlightExit) that stores all in-flight exit data\n     */\n    struct InFlightExitMap {\n        mapping (uint160 => PaymentExitDataModel.InFlightExit) exits;\n    }\n}\n",
  "sourcePath": "/home/node/plasma-contracts/plasma_framework/contracts/src/exits/payment/PaymentExitDataModel.sol",
  "compiler": {
    "name": "solc",
    "version": "0.5.11+commit.c082d0b4.Emscripten.clang"
  },
  "schemaVersion": "3.0.16",
  "updatedAt": "2020-04-07T14:07:49.644Z",
  "devdoc": {
    "methods": {}
  },
  "userdoc": {
    "methods": {},
    "notice": "Model library for PaymentExit"
  }
}