{
  "contractName": "PaymentStartStandardExit",
  "abi": [
    {
      "anonymous": false,
      "inputs": [
        {
          "indexed": true,
          "internalType": "address",
          "name": "owner",
          "type": "address"
        },
        {
          "indexed": false,
          "internalType": "uint160",
          "name": "exitId",
          "type": "uint160"
        }
      ],
      "name": "ExitStarted",
      "type": "event"
    },
    {
      "constant": true,
      "inputs": [
        {
          "internalType": "contract IExitProcessor",
          "name": "exitProcessor",
          "type": "IExitProcessor"
        },
        {
          "internalType": "contract PlasmaFramework",
          "name": "framework",
          "type": "PlasmaFramework"
        },
        {
          "internalType": "uint256",
          "name": "ethVaultId",
          "type": "uint256"
        },
        {
          "internalType": "uint256",
          "name": "erc20VaultId",
          "type": "uint256"
        },
        {
          "internalType": "uint256",
          "name": "supportedTxType",
          "type": "uint256"
        }
      ],
      "name": "buildController",
      "outputs": [
        {
          "components": [
            {
              "internalType": "contract IExitProcessor",
              "name": "exitProcessor",
              "type": "IExitProcessor"
            },
            {
              "internalType": "contract PlasmaFramework",
              "name": "framework",
              "type": "PlasmaFramework"
            },
            {
              "components": [
                {
                  "internalType": "uint256",
                  "name": "minExitPeriod",
                  "type": "uint256"
                }
              ],
              "internalType": "struct ExitableTimestamp.Calculator",
              "name": "exitableTimestampCalculator",
              "type": "tuple"
            },
            {
              "internalType": "uint256",
              "name": "ethVaultId",
              "type": "uint256"
            },
            {
              "internalType": "uint256",
              "name": "erc20VaultId",
              "type": "uint256"
            },
            {
              "internalType": "uint256",
              "name": "supportedTxType",
              "type": "uint256"
            }
          ],
          "internalType": "struct PaymentStartStandardExit.Controller",
          "name": "",
          "type": "tuple"
        }
      ],
      "payable": false,
      "stateMutability": "view",
      "type": "function"
    }
  ],
  "bytecode": "0x61311f610026600b82828239805160001a60731461001957fe5b30600052607381538281f3fe73000000000000000000000000000000000000000030146080604052600436106100405760003560e01c806307a97aa9146100455780636590254e1461006e575b600080fd5b610058610053366004611d65565b610090565b6040516100659190612f35565b60405180910390f35b81801561007a57600080fd5b5061008e610089366004611dda565b610160565b005b610098611939565b6040518060c00160405280876001600160a01b03168152602001866001600160a01b031681526020016040518060200160405280886001600160a01b031663d4a2b4ef6040518163ffffffff1660e01b815260040160206040518083038186803b15801561010557600080fd5b505afa158015610119573d6000803e3d6000fd5b505050506040513d601f19601f8201168201806040525061013d9190810190611e40565b815250815260200185815260200184815260200183815250905095945050505050565b610168611973565b61017284836101dd565b905061017f8482856103eb565b61018981846105e0565b610192816106a1565b336001600160a01b03167fdd6f755cba05d0a420007aef6afc05e4889ab424505e2e440ecd1c434ba7082e8260a001516040516101cf9190612f43565b60405180910390a250505050565b6101e5611973565b6101ed6119dd565b82516101f8906107d1565b90506102026119fd565b61020f8460200151610866565b9050610219611a2f565b604083015161022f90839063ffffffff61087f16565b6020870151845160405163ebde2ec960e01b81529293506000926001600160a01b039092169163ebde2ec99161026791600401612fac565b60206040518083038186803b15801561027f57600080fd5b505afa158015610293573d6000803e3d6000fd5b505050506040513d601f19601f820116820180604052506102b79190810190611d0d565b905060006102ca828860200151876108d3565b6020890151865160405163f25b3f9960e01b81529293506000926001600160a01b039092169163f25b3f999161030291600401612fac565b604080518083038186803b15801561031957600080fd5b505afa15801561032d573d6000803e3d6000fd5b505050506040513d601f19601f820116820180604052506103519190810190611d2b565b915050600083610376576103718960200151886040015161ffff16610945565b610395565b6103958960200151886040015161ffff166103908a610978565b610a09565b60408051610120810182528c8152602081018c90529081019890985260608801969096525060808601939093526001600160a01b031660a0850152151560c084015260e083015261010082015290505b92915050565b815160a001516060830151511461041d5760405162461bcd60e51b815260040161041490612e85565b60405180910390fd5b60e082015161043e5760405162461bcd60e51b815260040161041490612db5565b336001600160a01b03166104558360800151610a3f565b6001600160a01b03161461047b5760405162461bcd60e51b815260040161041490612c55565b61048482610a49565b6104a05760405162461bcd60e51b815260040161041490612e15565b6104a8611a56565b5060a0808301516001600160a01b0390811660009081526020848152604091829020825160c081018452815460ff1615158152600182015492810192909252600281015492820192909252600382015490921660608301526004810154608083018190526005909101549282019290925290156105375760405162461bcd60e51b815260040161041490612ea5565b6020840151610100840151604051638e29be3160e01b81526001600160a01b0390921691638e29be319161056d91600401612c37565b60206040518083038186803b15801561058557600080fd5b505afa158015610599573d6000803e3d6000fd5b505050506040513d601f19601f820116820180604052506105bd9190810190611d0d565b156105da5760405162461bcd60e51b815260040161041490612f15565b50505050565b6040518060c001604052806001151581526020016106018460400151610978565b81526101008401516020808301919091523360408084019190915260808087015160609081015181860152349482019490945260a0968701516001600160a01b039081166000908152968452958290208551815460ff1916901515178155928501516001840155908401516002830155918301516003820180546001600160a01b0319169190951617909355810151600483015590910151600590910155565b60006106ab611a8b565b5081516040015160c0830151156106d3576106cc814263ffffffff610a7b16565b91506106ee565b60e08301516106eb908290429063ffffffff610a8116565b91505b6080830151604001516000906001600160a01b0316610713575082516060015161071b565b508251608001515b8360000151602001516001600160a01b0316637f8523d1828660800151604001518661074a8960400151610a98565b60a08a01518a51516040516001600160e01b031960e089901b16815261077896959493929190600401612f51565b602060405180830381600087803b15801561079257600080fd5b505af11580156107a6573d6000803e3d6000fd5b505050506040513d601f19601f820116820180604052506107ca9190810190611e40565b5050505050565b6107d96119dd565b633b9aca00808304906127109084068190049084066429f16b11c68311156108135760405162461bcd60e51b815260040161041490612c75565b61ffff8211156108355760405162461bcd60e51b815260040161041490612ca5565b6040805160608101825267ffffffffffffffff909416845261ffff928316602085015291169082015290505b919050565b61086e6119fd565b6103e561087a83610ad3565b610c73565b610887611a2f565b8260400151518261ffff16106108af5760405162461bcd60e51b815260040161041490612cb5565b82604001518261ffff16815181106108c357fe5b6020026020010151905092915050565b60008315610926576000836108e784610978565b6040516020016108f8929190612bfd565b60405160208183030381529060405280519060200120905061091e818460400151610e72565b91505061093e565b61093b83805190602001208360400151610e72565b90505b9392505050565b6000828260405160200161095a929190612bfd565b60405160208183030381529060405280519060200120905092915050565b6000600161271003826040015161ffff1611156109a75760405162461bcd60e51b815260040161041490612d75565b81516429f16b11c667ffffffffffffffff90911611156109d95760405162461bcd60e51b815260040161041490612e65565b5060408101516020820151825167ffffffffffffffff16633b9aca000261ffff9182166127100201911601919050565b6000838383604051602001610a2093929190612c1f565b6040516020818303038152906040528051906020012090509392505050565b6020015160601c90565b60006103e5826000015160200151836020015160200151610a6d8560400151610a98565b856020015160400151610eb7565b90510190565b825160009061093b90600281028401908501611061565b610aa06119dd565b5060408051606081018252825167ffffffffffffffff16815260209283015161ffff169281019290925260009082015290565b610adb611a9e565b6060610aee610ae984611078565b61109d565b8051909150600514610b125760405162461bcd60e51b815260040161041490612d35565b6000610b3182600081518110610b2457fe5b60200260200101516111ac565b905060008111610b535760405162461bcd60e51b815260040161041490612c45565b6060610b7283600281518110610b6557fe5b602002602001015161109d565b905060608151604051908082528060200260200182016040528015610bb157816020015b610b9e611ad3565b815260200190600190039081610b965790505b50905060005b8251811015610bfb57610bdc838281518110610bcf57fe5b60200260200101516112c2565b828281518110610be857fe5b6020908102919091010152600101610bb7565b506000610c1b85600481518110610c0e57fe5b602002602001015161135f565b90506040518060a00160405280858152602001610c3e87600181518110610b6557fe5b815260200183815260200186600381518110610c5657fe5b602002602001015181526020018281525095505050505050919050565b610c7b6119fd565b60208201515160041015610ca15760405162461bcd60e51b815260040161041490612cf5565b604082015151610cc35760405162461bcd60e51b815260040161041490612c85565b60408201515160041015610ce95760405162461bcd60e51b815260040161041490612ce5565b6060826020015151604051908082528060200260200182016040528015610d1a578160200160208202803883390190505b50905060005b836020015151811015610d82576000610d4285602001518381518110610c0e57fe5b905080610d615760405162461bcd60e51b815260040161041490612e35565b80838381518110610d6e57fe5b602090810291909101015250600101610d20565b506060836040015151604051908082528060200260200182016040528015610dc457816020015b610db1611a2f565b815260200190600190039081610da95790505b50905060005b846040015151811015610e1657610df785604001518281518110610dea57fe5b60200260200101516113ec565b828281518110610e0357fe5b6020908102919091010152600101610dca565b50610e2484606001516111ac565b15610e415760405162461bcd60e51b815260040161041490612d05565b6040805160a08101825285518152602081019390935282015260006060820152608080840151908201529050919050565b6000606983901c61ffff60981b609884901b1617806001600160a01b0381168114610eaf5760405162461bcd60e51b815260040161041490612ee5565b949350505050565b6000826040015161ffff16600014610ee15760405162461bcd60e51b815260040161041490612d55565b610ee9611a9e565b610ef285610ad3565b8051604051630461cb1160e51b81529192506000916001600160a01b03891691638c39622091610f259190600401612c37565b60206040518083038186803b158015610f3d57600080fd5b505afa158015610f51573d6000803e3d6000fd5b505050506040513d601f19601f82011682018060405250610f759190810190611e5e565b9050610f7f6114fb565b60ff168160ff1614610fa35760405162461bcd60e51b815260040161041490612f05565b845160405163f25b3f9960e01b81526000916001600160a01b038a169163f25b3f9991610fd291600401612fac565b604080518083038186803b158015610fe957600080fd5b505afa158015610ffd573d6000803e3d6000fd5b505050506040513d601f19601f820116820180604052506110219190810190611d2b565b509050806110415760405162461bcd60e51b815260040161041490612d85565b61105587876020015161ffff168388611500565b98975050505050505050565b600081831015611071578161093e565b5090919050565b611080611af2565b506040805180820190915281518152602082810190820152919050565b60606110a88261164b565b6110c45760405162461bcd60e51b815260040161041490612e05565b6000806110d48460200151611685565b8551919350915082146110f95760405162461bcd60e51b815260040161041490612cd5565b60006111048561182e565b905060608160405190808252806020026020018201604052801561114257816020015b61112f611af2565b8152602001906001900390816111275790505b50602087015190915083016000805b8481101561119f5761116283611685565b508092505060405180604001604052808381526020018481525084828151811061118857fe5b602090810291909101015291810191600101611151565b5091979650505050505050565b8051600090158015906111c157508151602110155b6111dd5760405162461bcd60e51b815260040161041490612ef5565b6111e68261164b565b156112035760405162461bcd60e51b815260040161041490612e25565b6000806112138460200151611685565b8551919350915082146112385760405162461bcd60e51b815260040161041490612c95565b60208085015182018051838503929091600083901a9184101561126257836020036101000a830492505b8115801561126e575084155b1561128b5760405162461bcd60e51b815260040161041490612d95565b811580156112995750600184115b156112b65760405162461bcd60e51b815260040161041490612c65565b50909695505050505050565b6112ca611ad3565b60606112d58361109d565b905080516002146112f85760405162461bcd60e51b815260040161041490612de5565b611300611ad3565b604051806040016040528061131b84600081518110610b2457fe5b81526020018360018151811061132d57fe5b6020026020010151815250905080600001516000141561093e5760405162461bcd60e51b815260040161041490612e45565b80516000906021146113835760405162461bcd60e51b815260040161041490612ed5565b61138c8261164b565b156113a95760405162461bcd60e51b815260040161041490612e25565b6000806113b98460200151611685565b91509150816021146113dd5760405162461bcd60e51b815260040161041490612e75565b60208401510151915050919050565b6113f4611a2f565b6060611403836020015161109d565b905080516003146114265760405162461bcd60e51b815260040161041490612d15565b61142e611a2f565b6040518060800160405280856000015181526020016114608460008151811061145357fe5b60200260200101516118a5565b60601b6bffffffffffffffffffffffff191681526020016114878460018151811061145357fe5b6001600160a01b031681526020016114a584600281518110610b2457fe5b905260608101519091506114cb5760405162461bcd60e51b815260040161041490612d45565b60208101516bffffffffffffffffffffffff191661093e5760405162461bcd60e51b815260040161041490612dc5565b600290565b60008151600014156115245760405162461bcd60e51b815260040161041490612d65565b602082518161152f57fe5b061561154d5760405162461bcd60e51b815260040161041490612eb5565b602082518161155857fe5b0460020a841061157a5760405162461bcd60e51b815260040161041490612f25565b600080600060f81b87604051602001611594929190612be1565b60408051601f198184030181529190528051602091820120915086905b8551811161163d57858101519350600282066115fd576040516115e090600160f81b9085908790602001612baa565b60405160208183030381529060405280519060200120925061162f565b60405161161690600160f81b9086908690602001612baa565b6040516020818303038152906040528051906020012092505b6002820491506020016115b1565b505090931495945050505050565b805160009061165c57506000610861565b6020820151805160001a9060c082101561167b57600092505050610861565b5060019392505050565b8051600090819081908190811a60808110156116a8576001925060009150611823565b608081108015906116b9575060b881105b1561170257607e198101925060028314156116f957600186015160001a60808110156116f75760405162461bcd60e51b815260040161041490612e95565b505b60019150611823565b60b88110801590611713575060c081105b1561178d5760019590950180519095602081900360b7016101000a820480820160b519019450909160001a60b6198301816117605760405162461bcd60e51b815260040161041490612d25565b603783116117805760405162461bcd60e51b815260040161041490612cc5565b6001019350611823915050565b60c0811080159061179e575060f881105b156117b35760be198101925060019150611823565b60019590950180519095602081900360f7016101000a820480820160f519019450909160001a60f6198301816117fb5760405162461bcd60e51b815260040161041490612df5565b6037831161181b5760405162461bcd60e51b815260040161041490612dd5565b600101935050505b509092509050915091565b6000806000905060006118448460200151611685565b602086015186519193508084019250015b8082101561189b57600061186883611685565b509283019290508183111561188f5760405162461bcd60e51b815260040161041490612da5565b50600190930192611855565b5091949350505050565b80516000906015146118c95760405162461bcd60e51b815260040161041490612e55565b6118d28261164b565b156118ef5760405162461bcd60e51b815260040161041490612e25565b6000806118ff8460200151611685565b91509150816015146119235760405162461bcd60e51b815260040161041490612ec5565b60208401510151600160601b9004915050919050565b6040805160c08101825260008082526020820152908101611958611a8b565b81526020016000815260200160008152602001600081525090565b604051806101200160405280611987611939565b8152602001611994611b0c565b81526020016119a16119dd565b81526020016119ae6119fd565b81526020016119bb611a2f565b8152600060208201819052604082018190526060820181905260809091015290565b604080516060810182526000808252602082018190529181019190915290565b6040518060a0016040528060008152602001606081526020016060815260200160008152602001600080191681525090565b60408051608081018252600080825260208201819052918101829052606081019190915290565b6040805160c081018252600080825260208201819052918101829052606081018290526080810182905260a081019190915290565b6040518060200160405280600081525090565b6040518060a00160405280600081526020016060815260200160608152602001611ac6611af2565b8152600060209091015290565b604051806040016040528060008152602001611aed611af2565b905290565b604051806040016040528060008152602001600081525090565b60405180606001604052806000815260200160608152602001606081525090565b80516103e5816130aa565b80516103e5816130c1565b600082601f830112611b5457600080fd5b8135611b67611b6282612fe1565b612fba565b91508082526020830160208301858383011115611b8357600080fd5b611b8e838284613072565b50505092915050565b80356103e5816130ca565b600060208284031215611bb457600080fd5b611bbe6020612fba565b90506000611bcc8484611c6c565b82525092915050565b600060c08284031215611be757600080fd5b611bf160c0612fba565b90506000611bff8484611b97565b8252506020611c1084848301611b97565b6020830152506040611c2484828501611ba2565b6040830152506060611c3884828501611c6c565b6060830152506080611c4c84828501611c6c565b60808301525060a0611c6084828501611c6c565b60a08301525092915050565b80356103e5816130c1565b600060608284031215611c8957600080fd5b611c936060612fba565b90506000611ca18484611c6c565b825250602082013567ffffffffffffffff811115611cbe57600080fd5b611cca84828501611b43565b602083015250604082013567ffffffffffffffff811115611cea57600080fd5b611cf684828501611b43565b60408301525092915050565b80516103e5816130d3565b600060208284031215611d1f57600080fd5b6000610eaf8484611b2d565b60008060408385031215611d3e57600080fd5b6000611d4a8585611b38565b9250506020611d5b85828601611b38565b9150509250929050565b600080600080600060a08688031215611d7d57600080fd5b6000611d898888611b97565b9550506020611d9a88828901611b97565b9450506040611dab88828901611c6c565b9350506060611dbc88828901611c6c565b9250506080611dcd88828901611c6c565b9150509295509295909350565b60008060006101008486031215611df057600080fd5b6000611dfc8686611bd5565b93505060c0611e0d86828701611c6c565b92505060e084013567ffffffffffffffff811115611e2a57600080fd5b611e3686828701611c77565b9150509250925092565b600060208284031215611e5257600080fd5b6000610eaf8484611b38565b600060208284031215611e7057600080fd5b6000610eaf8484611d02565b611e8581613016565b82525050565b611e85611e9782613026565b613033565b611e8581613033565b611e85611e9782613033565b6000611ebc82613009565b611ec68185610861565b9350611ed681856020860161307e565b9290920192915050565b611e8581613036565b6000611ef6601e8361300d565b7f5472616e73616374696f6e2074797065206d757374206e6f7420626520300000815260200192915050565b6000611f2f60238361300d565b7f4f6e6c79206f7574707574206f776e65722063616e20737461727420616e20658152621e1a5d60ea1b602082015260400192915050565b6000611f7460198361300d565b7f4c656164696e67207a65726f732061726520696e76616c696400000000000000815260200192915050565b6000611fad60348361300d565b7f626c6f636b4e756d2065786365656473206d61782073697a6520616c6c6f77658152736420696e20506c61736d614672616d65776f726b60601b602082015260400192915050565b600061200360218361300d565b7f5472616e73616374696f6e2063616e6e6f7420686176652030206f75747075748152607360f81b602082015260400192915050565b6000612046603a8361300d565b7f4465636f646564206974656d206c656e677468206d757374206265206571756181527f6c20746f2074686520696e7075742064617461206c656e677468000000000000602082015260400192915050565b60006120a560228361300d565b7f7478496e6465782065786365656473207468652073697a65206f662075696e74815261189b60f11b602082015260400192915050565b60006120e9601a8361300d565b7f4f757470757420696e646578206f7574206f6620626f756e6473000000000000815260200192915050565b600061212260208361300d565b7f496e76616c6964206c656e67746820666f722061206c6f6e6720737472696e67815260200192915050565b600061215b60268361300d565b7f4465636f64656420524c50206c656e67746820666f72206c69737420697320698152651b9d985b1a5960d21b602082015260400192915050565b60006121a360258361300d565b7f5472616e73616374696f6e206f757470757473206e756d2065786365656473208152641b1a5b5a5d60da1b602082015260400192915050565b60006121ea60248361300d565b7f5472616e73616374696f6e20696e70757473206e756d2065786365656473206c8152631a5b5a5d60e21b602082015260400192915050565b600061223060108361300d565b6f0747844617461206d75737420626520360841b815260200192915050565b600061225c601d8361300d565b7f4f75747075742064617461206d75737420686176652033206974656d73000000815260200192915050565b6000612295603f8361300d565b7f496e76616c6964206c656164696e67207a65726f7320696e206c656e6774682081527f6f6620746865206c656e67746820666f722061206c6f6e6720737472696e6700602082015260400192915050565b60006122f4601f8361300d565b7f496e76616c696420656e636f64696e67206f66207472616e73616374696f6e00815260200192915050565b600061232d601b8361300d565b7f4f757470757420616d6f756e74206d757374206e6f7420626520300000000000815260200192915050565b6000612366601c8361300d565b7f496e76616c6964207472616e73616374696f6e20706f736974696f6e00000000815260200192915050565b600061239f601e8361300d565b7f4d65726b6c652070726f6f66206d757374206e6f7420626520656d7074790000815260200192915050565b60006123d860148361300d565b73092dcecc2d8d2c840deeae8e0eae840d2dcc8caf60631b815260200192915050565b6000612408602c8361300d565b7f4661696c656420746f206765742074686520726f6f742068617368206f66207481526b686520626c6f636b206e756d60a01b602082015260400192915050565b600061245660228361300d565b7f5363616c617220302073686f756c6420626520656e636f646564206173203078815261038360f41b602082015260400192915050565b600061249a60488361300d565b7f496e76616c6964206465636f646564206c656e677468206f6620524c5020697481527f656d20666f756e6420647572696e6720636f756e74696e67206974656d7320696020820152671b8818481b1a5cdd60c21b604082015260600192915050565b600061250a60228361300d565b7f5468657265206973206e6f20626c6f636b20666f722074686520706f7369746981526137b760f11b602082015260400192915050565b600061254e60208361300d565b7f4f7574707574206f75747075744775617264206d757374206e6f742062652030815260200192915050565b6000612587601e8361300d565b7f496e76616c6964206c656e67746820666f722061206c6f6e67206c6973740000815260200192915050565b60006125c060188361300d565b7f4f7574707574206d75737420686176652032206974656d730000000000000000815260200192915050565b60006125f9603d8361300d565b7f496e76616c6964206c656164696e67207a65726f7320696e206c656e6774682081527f6f6620746865206c656e67746820666f722061206c6f6e67206c697374000000602082015260400192915050565b600061265860128361300d565b71125d195b481a5cc81b9bdd0818481b1a5cdd60721b815260200192915050565b6000612686602a8361300d565b7f546865207472616e73616374696f6e206d757374206265207374616e6461726481526908199a5b985b1a5e995960b21b602082015260400192915050565b60006126d260178361300d565b7f4974656d206d757374206e6f742062652061206c697374000000000000000000815260200192915050565b600061270b60168361300d565b75139d5b1b081a5b9c1d5d081b9bdd08185b1b1bddd95960521b815260200192915050565b600061273d60198361300d565b7f4f75747075742074797065206d757374206e6f74206265203000000000000000815260200192915050565b600061277660168361300d565b754974656d206c656e677468206d75737420626520323160501b815260200192915050565b60006127a860148361300d565b7324b73b30b634b210313637b1b590373ab6b132b960611b815260200192915050565b60006127d8601e8361300d565b7f4465636f646564206974656d206c656e677468206d7573742062652033330000815260200192915050565b6000612811602d8361300d565b7f556e737570706f72746564207472616e73616374696f6e2074797065206f662081526c74686520657869742067616d6560981b602082015260400192915050565b6000612860601d8361300d565b7f496e76616c69642073686f727420737472696e6720656e636f64696e67000000815260200192915050565b600061289960188361300d565b7f457869742068617320616c726561647920737461727465640000000000000000815260200192915050565b60006128d2602f8361300d565b7f4c656e677468206f66204d65726b6c652070726f6f66206d757374206265206181526e1036bab63a34b836329037b310199960891b602082015260400192915050565b6000612923601e8361300d565b7f4465636f646564206974656d206c656e677468206d7573742062652032310000815260200192915050565b600061295c60168361300d565b754974656d206c656e677468206d75737420626520333360501b815260200192915050565b600061298e60108361300d565b6f457869744964206f766572666c6f777360801b815260200192915050565b60006129ba602a8361300d565b7f4974656d206c656e677468206d757374206265206265747765656e203120616e8152696420333320627974657360b01b602082015260400192915050565b6000612a06602c8361300d565b7f4d6f7265567046696e616c697a6174696f6e3a206e6f742061204d6f7265565081526b040e0e4dee8dec6ded840e8f60a31b602082015260400192915050565b6000612a5460178361300d565b7f4f757470757420697320616c7265616479207370656e74000000000000000000815260200192915050565b6000612a8d602c8361300d565b7f496e64657820646f6573206e6f74206d6174636820746865206c656e6774682081526b37b3103a343290383937b7b360a11b602082015260400192915050565b805160208301906105da8482611e9c565b805160c0830190612af08482611ee0565b506020820151612b036020850182611ee0565b506040820151612b166040850182612ace565b506060820151612b296060850182611e9c565b506080820151612b3c6080850182611e9c565b5060a08201516105da60a0850182611e9c565b80516060830190612b608482612ba1565b506020820151612b736020850182612b8f565b5060408201516105da6040850182612b8f565b611e8581613048565b611e8581613041565b611e8581613067565b611e8581613054565b6000612bb68286611e8b565b600182019150612bc68285611ea5565b602082019150612bd68284611ea5565b506020019392505050565b6000612bed8285611e8b565b600182019150610eaf8284611eb1565b6000612c098285611eb1565b9150612c158284611ea5565b5060200192915050565b6000612c2b8286611eb1565b9150612bc68285611ea5565b602081016103e58284611e9c565b602080825281016103e581611ee9565b602080825281016103e581611f22565b602080825281016103e581611f67565b602080825281016103e581611fa0565b602080825281016103e581611ff6565b602080825281016103e581612039565b602080825281016103e581612098565b602080825281016103e5816120dc565b602080825281016103e581612115565b602080825281016103e58161214e565b602080825281016103e581612196565b602080825281016103e5816121dd565b602080825281016103e581612223565b602080825281016103e58161224f565b602080825281016103e581612288565b602080825281016103e5816122e7565b602080825281016103e581612320565b602080825281016103e581612359565b602080825281016103e581612392565b602080825281016103e5816123cb565b602080825281016103e5816123fb565b602080825281016103e581612449565b602080825281016103e58161248d565b602080825281016103e5816124fd565b602080825281016103e581612541565b602080825281016103e58161257a565b602080825281016103e5816125b3565b602080825281016103e5816125ec565b602080825281016103e58161264b565b602080825281016103e581612679565b602080825281016103e5816126c5565b602080825281016103e5816126fe565b602080825281016103e581612730565b602080825281016103e581612769565b602080825281016103e58161279b565b602080825281016103e5816127cb565b602080825281016103e581612804565b602080825281016103e581612853565b602080825281016103e58161288c565b602080825281016103e5816128c5565b602080825281016103e581612916565b602080825281016103e58161294f565b602080825281016103e581612981565b602080825281016103e5816129ad565b602080825281016103e5816129f9565b602080825281016103e581612a47565b602080825281016103e581612a80565b60c081016103e58284612adf565b602081016103e58284612b86565b6101008101612f608289611e9c565b612f6d6020830188611e7c565b612f7a6040830187612ba1565b612f876060830186612b4f565b612f9460c0830185612b86565b612fa160e0830184611ee0565b979650505050505050565b602081016103e58284612b98565b60405181810167ffffffffffffffff81118282101715612fd957600080fd5b604052919050565b600067ffffffffffffffff821115612ff857600080fd5b506020601f91909101601f19160190565b5190565b90815260200190565b60006103e582613048565b151590565b6001600160f81b03191690565b90565b60006103e582613016565b61ffff1690565b6001600160a01b031690565b67ffffffffffffffff1690565b60ff1690565b60006103e582613054565b82818337506000910152565b60005b83811015613099578181015183820152602001613081565b838111156105da5750506000910152565b6130b381613021565b81146130be57600080fd5b50565b6130b381613033565b6130b381613036565b6130b38161306156fea365627a7a72315820b8c1d657d58b1ec3b7d82860346150e4545819b38e55527053e1923cbb6e15c46c6578706572696d656e74616cf564736f6c634300050b0040",
  "source": "pragma solidity 0.5.11;\npragma experimental ABIEncoderV2;\n\nimport \"../PaymentExitDataModel.sol\";\nimport \"../routers/PaymentStandardExitRouterArgs.sol\";\nimport \"../../utils/ExitableTimestamp.sol\";\nimport \"../../utils/ExitId.sol\";\nimport \"../../utils/OutputId.sol\";\nimport \"../../utils/MoreVpFinalization.sol\";\nimport \"../../../transactions/PaymentTransactionModel.sol\";\nimport \"../../../utils/PosLib.sol\";\nimport \"../../../framework/PlasmaFramework.sol\";\nimport \"../../utils/ExitableTimestamp.sol\";\n\nlibrary PaymentStartStandardExit {\n    using ExitableTimestamp for ExitableTimestamp.Calculator;\n    using PosLib for PosLib.Position;\n    using PaymentTransactionModel for PaymentTransactionModel.Transaction;\n\n    struct Controller {\n        IExitProcessor exitProcessor;\n        PlasmaFramework framework;\n        ExitableTimestamp.Calculator exitableTimestampCalculator;\n        uint256 ethVaultId;\n        uint256 erc20VaultId;\n        uint256 supportedTxType;\n    }\n\n    /**\n     * @dev Data to be passed around startStandardExit helper functions\n     */\n    struct StartStandardExitData {\n        Controller controller;\n        PaymentStandardExitRouterArgs.StartStandardExitArgs args;\n        PosLib.Position utxoPos;\n        PaymentTransactionModel.Transaction outputTx;\n        FungibleTokenOutputModel.Output output;\n        uint160 exitId;\n        bool isTxDeposit;\n        uint256 txBlockTimeStamp;\n        bytes32 outputId;\n    }\n\n    event ExitStarted(\n        address indexed owner,\n        uint160 exitId\n    );\n\n    /**\n     * @notice Function that builds the controller struct\n     * @return Controller struct of PaymentStartStandardExit\n     */\n    function buildController(\n        IExitProcessor exitProcessor,\n        PlasmaFramework framework,\n        uint256 ethVaultId,\n        uint256 erc20VaultId,\n        uint256 supportedTxType\n    )\n        public\n        view\n        returns (Controller memory)\n    {\n        return Controller({\n            exitProcessor: exitProcessor,\n            framework: framework,\n            exitableTimestampCalculator: ExitableTimestamp.Calculator(framework.minExitPeriod()),\n            ethVaultId: ethVaultId,\n            erc20VaultId: erc20VaultId,\n            supportedTxType: supportedTxType\n        });\n    }\n\n    /**\n     * @notice Main logic function to start standard exit\n     * @dev emits ExitStarted event on success\n     * @param self The controller struct\n     * @param exitMap The storage of all standard exit data\n     * @param args Arguments of start standard exit function from client\n     */\n    function run(\n        Controller memory self,\n        PaymentExitDataModel.StandardExitMap storage exitMap,\n        PaymentStandardExitRouterArgs.StartStandardExitArgs memory args\n    )\n        public\n    {\n        StartStandardExitData memory data = setupStartStandardExitData(self, args);\n        verifyStartStandardExitData(self, data, exitMap);\n        saveStandardExitData(data, exitMap);\n        enqueueStandardExit(data);\n\n        emit ExitStarted(msg.sender, data.exitId);\n    }\n\n    function setupStartStandardExitData(\n        Controller memory controller,\n        PaymentStandardExitRouterArgs.StartStandardExitArgs memory args\n    )\n        private\n        view\n        returns (StartStandardExitData memory)\n    {\n        PosLib.Position memory utxoPos = PosLib.decode(args.utxoPos);\n        PaymentTransactionModel.Transaction memory outputTx = PaymentTransactionModel.decode(args.rlpOutputTx);\n        FungibleTokenOutputModel.Output memory output = outputTx.getOutput(utxoPos.outputIndex);\n        bool isTxDeposit = controller.framework.isDeposit(utxoPos.blockNum);\n        uint160 exitId = ExitId.getStandardExitId(isTxDeposit, args.rlpOutputTx, utxoPos);\n        (, uint256 blockTimestamp) = controller.framework.blocks(utxoPos.blockNum);\n\n        bytes32 outputId = isTxDeposit\n            ? OutputId.computeDepositOutputId(args.rlpOutputTx, utxoPos.outputIndex, utxoPos.encode())\n            : OutputId.computeNormalOutputId(args.rlpOutputTx, utxoPos.outputIndex);\n\n        return StartStandardExitData({\n            controller: controller,\n            args: args,\n            utxoPos: utxoPos,\n            outputTx: outputTx,\n            output: output,\n            exitId: exitId,\n            isTxDeposit: isTxDeposit,\n            txBlockTimeStamp: blockTimestamp,\n            outputId: outputId\n        });\n    }\n\n    function verifyStartStandardExitData(\n        Controller memory self,\n        StartStandardExitData memory data,\n        PaymentExitDataModel.StandardExitMap storage exitMap\n    )\n        private\n        view\n    {\n        require(data.outputTx.txType == data.controller.supportedTxType, \"Unsupported transaction type of the exit game\");\n        require(data.txBlockTimeStamp != 0, \"There is no block for the position\");\n\n        require(PaymentTransactionModel.getOutputOwner(data.output) == msg.sender, \"Only output owner can start an exit\");\n\n        require(isStandardFinalized(data), \"The transaction must be standard finalized\");\n        PaymentExitDataModel.StandardExit memory exit = exitMap.exits[data.exitId];\n        require(exit.amount == 0, \"Exit has already started\");\n\n        require(self.framework.isOutputFinalized(data.outputId) == false, \"Output is already spent\");\n    }\n\n    function isStandardFinalized(StartStandardExitData memory data)\n        private\n        view\n        returns (bool)\n    {\n        return MoreVpFinalization.isStandardFinalized(\n            data.controller.framework,\n            data.args.rlpOutputTx,\n            data.utxoPos.toStrictTxPos(),\n            data.args.outputTxInclusionProof\n        );\n    }\n\n    function saveStandardExitData(\n        StartStandardExitData memory data,\n        PaymentExitDataModel.StandardExitMap storage exitMap\n    )\n        private\n    {\n        exitMap.exits[data.exitId] = PaymentExitDataModel.StandardExit({\n            exitable: true,\n            utxoPos: data.utxoPos.encode(),\n            outputId: data.outputId,\n            exitTarget: msg.sender,\n            amount: data.output.amount,\n            bondSize: msg.value\n        });\n    }\n\n    function enqueueStandardExit(StartStandardExitData memory data) private {\n\n        uint64 exitableAt;\n        ExitableTimestamp.Calculator memory exitableTimestampCalculator = data.controller.exitableTimestampCalculator;\n\n        if (data.isTxDeposit){\n            exitableAt = exitableTimestampCalculator.calculateDepositTxOutputExitableTimestamp(block.timestamp);\n        } else {\n            exitableAt = exitableTimestampCalculator.calculateTxExitableTimestamp(block.timestamp, data.txBlockTimeStamp);\n        }\n\n        uint256 vaultId;\n        if (data.output.token == address(0)) {\n            vaultId = data.controller.ethVaultId;\n        } else {\n            vaultId = data.controller.erc20VaultId;\n        }\n\n        data.controller.framework.enqueue(\n            vaultId, data.output.token, exitableAt, data.utxoPos.toStrictTxPos(),\n            data.exitId, data.controller.exitProcessor\n        );\n    }\n}\n",
  "sourcePath": "/home/node/plasma-contracts/plasma_framework/contracts/src/exits/payment/controllers/PaymentStartStandardExit.sol",
  "compiler": {
    "name": "solc",
    "version": "0.5.11+commit.c082d0b4.Emscripten.clang"
  },
  "schemaVersion": "3.0.16",
  "updatedAt": "2020-04-07T14:09:04.050Z",
  "devdoc": {
    "methods": {
      "buildController(IExitProcessor,PlasmaFramework,uint256,uint256,uint256)": {
        "return": "Controller struct of PaymentStartStandardExit"
      },
      "run(PaymentStartStandardExit.Controller,PaymentExitDataModel.StandardExitMap storage,PaymentStandardExitRouterArgs.StartStandardExitArgs)": {
        "details": "emits ExitStarted event on success",
        "params": {
          "args": "Arguments of start standard exit function from client",
          "exitMap": "The storage of all standard exit data",
          "self": "The controller struct"
        }
      }
    }
  },
  "userdoc": {
    "methods": {
      "buildController(IExitProcessor,PlasmaFramework,uint256,uint256,uint256)": {
        "notice": "Function that builds the controller struct"
      },
      "run(PaymentStartStandardExit.Controller,PaymentExitDataModel.StandardExitMap storage,PaymentStandardExitRouterArgs.StartStandardExitArgs)": {
        "notice": "Main logic function to start standard exit"
      }
    }
  }
}