{
  "contractName": "PaymentPiggybackInFlightExit",
  "abi": [
    {
      "anonymous": false,
      "inputs": [
        {
          "indexed": true,
          "internalType": "address",
          "name": "exitTarget",
          "type": "address"
        },
        {
          "indexed": true,
          "internalType": "bytes32",
          "name": "txHash",
          "type": "bytes32"
        },
        {
          "indexed": false,
          "internalType": "uint16",
          "name": "inputIndex",
          "type": "uint16"
        }
      ],
      "name": "InFlightExitInputPiggybacked",
      "type": "event"
    },
    {
      "anonymous": false,
      "inputs": [
        {
          "indexed": true,
          "internalType": "address",
          "name": "exitTarget",
          "type": "address"
        },
        {
          "indexed": true,
          "internalType": "bytes32",
          "name": "txHash",
          "type": "bytes32"
        },
        {
          "indexed": false,
          "internalType": "uint16",
          "name": "outputIndex",
          "type": "uint16"
        }
      ],
      "name": "InFlightExitOutputPiggybacked",
      "type": "event"
    },
    {
      "constant": true,
      "inputs": [
        {
          "internalType": "contract PlasmaFramework",
          "name": "framework",
          "type": "PlasmaFramework"
        },
        {
          "internalType": "contract IExitProcessor",
          "name": "exitProcessor",
          "type": "IExitProcessor"
        },
        {
          "internalType": "uint256",
          "name": "ethVaultId",
          "type": "uint256"
        },
        {
          "internalType": "uint256",
          "name": "erc20VaultId",
          "type": "uint256"
        }
      ],
      "name": "buildController",
      "outputs": [
        {
          "components": [
            {
              "internalType": "contract PlasmaFramework",
              "name": "framework",
              "type": "PlasmaFramework"
            },
            {
              "components": [
                {
                  "internalType": "uint256",
                  "name": "minExitPeriod",
                  "type": "uint256"
                }
              ],
              "internalType": "struct ExitableTimestamp.Calculator",
              "name": "exitableTimestampCalculator",
              "type": "tuple"
            },
            {
              "internalType": "contract IExitProcessor",
              "name": "exitProcessor",
              "type": "IExitProcessor"
            },
            {
              "internalType": "uint256",
              "name": "minExitPeriod",
              "type": "uint256"
            },
            {
              "internalType": "uint256",
              "name": "ethVaultId",
              "type": "uint256"
            },
            {
              "internalType": "uint256",
              "name": "erc20VaultId",
              "type": "uint256"
            }
          ],
          "internalType": "struct PaymentPiggybackInFlightExit.Controller",
          "name": "",
          "type": "tuple"
        }
      ],
      "payable": false,
      "stateMutability": "view",
      "type": "function"
    }
  ],
  "bytecode": "0x61205d610026600b82828239805160001a60731461001957fe5b30600052607381538281f3fe730000000000000000000000000000000000000000301460806040526004361061004b5760003560e01c806320854fa414610050578063308b003e1461007257806332e6d86914610092575b600080fd5b81801561005c57600080fd5b5061007061006b3660046118e9565b6100bb565b005b81801561007e57600080fd5b5061007061008d3660046118e9565b6108a9565b6100a56100a0366004611888565b610eb9565b6040516100b29190611e92565b60405180910390f35b60006100ca8260000151610ff8565b6001600160a01b038116600090815260208590526040902080549192509061010090046001600160401b031661011b5760405162461bcd60e51b815260040161011290611e22565b60405180910390fd5b6060858101516040805161012081018252845460ff81161515825261010090046001600160401b03166020820152600185015481830152600285015493810193909352805160808082019092526102a993918591908301906003830160046000835b828210156101e4576040805160a081018252600584028601805482526001808201546001600160a01b03908116602080860191909152600284015490911694840194909452600382015460608401526004909101546080830152908352909201910161017d565b5050509082525060408051608081019091526020909101906017830160046000835b8282101561026d576040805160a081018252600584028601805482526001808201546001600160a01b039081166020808601919091526002840154909116948401949094526003820154606084015260049091015460808301529083529092019101610206565b50505090825250602b8201546001600160a01b03166020820152602c8201546040820152602d909101546060909101529063ffffffff61101c16565b6102c55760405162461bcd60e51b815260040161011290611de2565b6020838101516040805161012081018252845460ff81161515825261010090046001600160401b031693810193909352600184015483820152600284015460608401528051608080820190925261045393918591908301906003830160046000835b8282101561038e576040805160a081018252600584028601805482526001808201546001600160a01b039081166020808601919091526002840154909116948401949094526003820154606084015260049091015460808301529083529092019101610327565b5050509082525060408051608081019091526020909101906017830160046000835b82821015610417576040805160a081018252600584028601805482526001808201546001600160a01b0390811660208086019190915260028401549091169484019490945260038201546060840152600490910154608083015290835290920191016103b0565b50505090825250602b8201546001600160a01b03166020820152602c8201546040820152602d909101546060909101529063ffffffff61104916565b156104705760405162461bcd60e51b815260040161011290611e52565b6020838101516040805161012081018252845460ff81161515825261010090046001600160401b03169381019390935260018401548382015260028401546060840152805160808082019092526105fe93918591908301906003830160046000835b82821015610539576040805160a081018252600584028601805482526001808201546001600160a01b0390811660208086019190915260028401549091169484019490945260038201546060840152600490910154608083015290835290920191016104d2565b5050509082525060408051608081019091526020909101906017830160046000835b828210156105c2576040805160a081018252600584028601805482526001808201546001600160a01b03908116602080860191909152600284015490911694840194909452600382015460608401526004909101546080830152908352909201910161055b565b50505090825250602b8201546001600160a01b03166020820152602c8201546040820152602d909101546060909101529063ffffffff6110a016565b1561061b5760405162461bcd60e51b815260040161011290611e12565b600081601701846020015161ffff166004811061063457fe5b600502016001810154909150336001600160a01b03909116146106695760405162461bcd60e51b815260040161011290611e72565b346004828101919091556040805161012081018252845460ff81161515825261010090046001600160401b0316602082015260018501548183015260028501546060820152815160808082019093526107fb9391928692908401919060038401906000835b82821015610735576040805160a081018252600584028601805482526001808201546001600160a01b0390811660208086019190915260028401549091169484019490945260038201546060840152600490910154608083015290835290920191016106ce565b5050509082525060408051608081019091526020909101906017830160046000835b828210156107be576040805160a081018252600584028601805482526001808201546001600160a01b039081166020808601919091526002840154909116948401949094526003820154606084015260049091015460808301529083529092019101610757565b50505090825250602b8201546001600160a01b039081166020830152602c8301546040830152602d909201546060909101526002840154166110ff565b1561082f5761082f868260020160009054906101000a90046001600160a01b031661082985600201546111ed565b86611280565b602084015161084590839063ffffffff6113fc16565b83516040516108549190611dc6565b6040518091039020336001600160a01b03167f6ecd8e79a5f67f6c12b54371ada2ffb41bc128c61d9ac1e969f0aa2aca46cd7886602001516040516108999190611ea0565b60405180910390a3505050505050565b60006108b88260000151610ff8565b6001600160a01b038116600090815260208590526040902080549192509061010090046001600160401b03166109005760405162461bcd60e51b815260040161011290611e22565b606085810151604080516101208082018352855460ff8116151583526001600160401b03610100918290041660208085019190915260018089015485870152600289015497850197909752845192830190945260038701805460808085019182526004808b01546001600160a01b0390811660a088015260058c01541660c087015260068b015460e087015260078b0154948601949094529084526109b1979495899591870194939190840161017d565b6109cd5760405162461bcd60e51b815260040161011290611de2565b6020838101516040805161012081018252845460ff81161515825261010090046001600160401b0316938101939093526001840154838201526002840154606084015280516080808201909252610b5b93918591908301906003830160046000835b82821015610a96576040805160a081018252600584028601805482526001808201546001600160a01b039081166020808601919091526002840154909116948401949094526003820154606084015260049091015460808301529083529092019101610a2f565b5050509082525060408051608081019091526020909101906017830160046000835b82821015610b1f576040805160a081018252600584028601805482526001808201546001600160a01b039081166020808601919091526002840154909116948401949094526003820154606084015260049091015460808301529083529092019101610ab8565b50505090825250602b8201546001600160a01b03166020820152602c8201546040820152602d909101546060909101529063ffffffff61145e16565b15610b785760405162461bcd60e51b815260040161011290611e42565b6020838101516040805161012081018252845460ff81161515825261010090046001600160401b0316938101939093526001840154838201526002840154606084015280516080808201909252610d0693918591908301906003830160046000835b82821015610c41576040805160a081018252600584028601805482526001808201546001600160a01b039081166020808601919091526002840154909116948401949094526003820154606084015260049091015460808301529083529092019101610bda565b5050509082525060408051608081019091526020909101906017830160046000835b82821015610cca576040805160a081018252600584028601805482526001808201546001600160a01b039081166020808601919091526002840154909116948401949094526003820154606084015260049091015460808301529083529092019101610c63565b50505090825250602b8201546001600160a01b03166020820152602c8201546040820152602d909101546060909101529063ffffffff6114a416565b15610d235760405162461bcd60e51b815260040161011290611e02565b600081600301846020015161ffff1660048110610d3c57fe5b600502016001810154909150336001600160a01b0390911614610d715760405162461bcd60e51b815260040161011290611e72565b34600482810191909155604080516101208082018352855460ff8116151583526001600160401b0361010091829004166020808501919091526001808901548587015260028901546060860152855193840190955260038801805460808086019182528a8901546001600160a01b0390811660a088015260058c01541660c087015260068b015460e087015260078b0154948601949094528452610e2196949589959387019493919284016106ce565b15610e4f57610e4f868260020160009054906101000a90046001600160a01b031661082985600201546111ed565b6020840151610e6590839063ffffffff6114e816565b8351604051610e749190611dc6565b6040518091039020336001600160a01b03167fa93c0e9b202feaf554acf6ef1185b898c9f214da16e51740b06b5f7487b018e586602001516040516108999190611ea0565b610ec1611626565b6040518060c00160405280866001600160a01b031681526020016040518060200160405280886001600160a01b031663d4a2b4ef6040518163ffffffff1660e01b815260040160206040518083038186803b158015610f1f57600080fd5b505afa158015610f33573d6000803e3d6000fd5b505050506040513d601f19601f82011682018060405250610f57919081019061194e565b8152508152602001856001600160a01b03168152602001866001600160a01b031663d4a2b4ef6040518163ffffffff1660e01b815260040160206040518083038186803b158015610fa757600080fd5b505afa158015610fbb573d6000803e3d6000fd5b505050506040513d601f19601f82011682018060405250610fdf919081019061194e565b8152602001848152602001838152509050949350505050565b805160208201206000906110169060691c609763ffffffff61153616565b92915050565b60008060028304905060018185602001516001600160401b031642038161103f57fe5b0410949350505050565b6000611053611543565b60ff168261ffff16106110785760405162461bcd60e51b815260040161011290611e32565b6110998360a001518361ffff166004811061108f57fe5b6020020151611548565b9392505050565b60006110aa611543565b60ff168261ffff16106110cf5760405162461bcd60e51b815260040161011290611e32565b60006110d9611543565b60ff16830190506110f781856040015161159a90919063ffffffff16565b949350505050565b6000805b61110b611543565b60ff1681101561117157611125848263ffffffff6114a416565b801561115a5750826001600160a01b03168460800151826004811061114657fe5b6020020151604001516001600160a01b0316145b15611169576000915050611016565b600101611103565b5060005b61117d611543565b60ff168110156111e357611197848263ffffffff6110a016565b80156111cc5750826001600160a01b03168460a0015182600481106111b857fe5b6020020151604001516001600160a01b0316145b156111db576000915050611016565b600101611175565b5060019392505050565b6111f5611674565b633b9aca00808304906127109084068190049084066429f16b11c683111561122f5760405162461bcd60e51b815260040161011290611dd2565b61ffff8211156112515760405162461bcd60e51b815260040161011290611df2565b604080516060810182526001600160401b03909416845261ffff92831660208501529116908201529050919050565b8351825160405163f25b3f9960e01b81526000926001600160a01b03169163f25b3f99916112b19190600401611f09565b604080518083038186803b1580156112c857600080fd5b505afa1580156112dc573d6000803e3d6000fd5b505050506040513d601f19601f82011682018060405250611300919081019061184e565b915050806113205760405162461bcd60e51b815260040161011290611e82565b602085015160009061133990428463ffffffff6115b416565b905060006001600160a01b0386166113565750608086015161135d565b5060a08601515b86516001600160a01b0316637f8523d18288856113798a6115cb565b898d604001516040518763ffffffff1660e01b81526004016113a096959493929190611eae565b602060405180830381600087803b1580156113ba57600080fd5b505af11580156113ce573d6000803e3d6000fd5b505050506040513d601f19601f820116820180604052506113f2919081019061194e565b5050505050505050565b611404611543565b60ff168161ffff16106114295760405162461bcd60e51b815260040161011290611e32565b6000611433611543565b60ff168201905061145181846001015461153690919063ffffffff16565b8360010181905550505050565b6000611468611543565b60ff168261ffff161061148d5760405162461bcd60e51b815260040161011290611e62565b61109983608001518361ffff166004811061108f57fe5b60006114ae611543565b60ff168261ffff16106114d35760405162461bcd60e51b815260040161011290611e62565b6040830151611099908363ffffffff61159a16565b6114f0611543565b60ff168161ffff16106115155760405162461bcd60e51b815260040161011290611e62565b600182015461152a908263ffffffff61153616565b82600101819055505050565b600160ff919091161b1790565b600490565b8051600090158015611565575060208201516001600160a01b0316155b801561157c575060408201516001600160a01b0316155b801561158a57506060820151155b8015611016575050608001511590565b60006115a68383611605565b60ff16600114905092915050565b82516000906110f79060028102840190850161160f565b6115d3611674565b506040805160608101825282516001600160401b0316815260209283015161ffff169281019290925260009082015290565b60ff161c60011690565b60008183101561161f5781611099565b5090919050565b6040518060c0016040528060006001600160a01b03168152602001611649611694565b815260200160006001600160a01b031681526020016000815260200160008152602001600081525090565b604080516060810182526000808252602082018190529181019190915290565b6040518060200160405280600081525090565b805161101681611ff1565b600082601f8301126116c357600080fd5b81356116d66116d182611f3d565b611f17565b915080825260208301602083018583830111156116f257600080fd5b6116fd838284611fb9565b50505092915050565b803561101681612008565b60006020828403121561172357600080fd5b61172d6020611f17565b9050600061173b84846117db565b82525092915050565b600060c0828403121561175657600080fd5b61176060c0611f17565b9050600061176e8484611706565b825250602061177f84848301611711565b602083015250604061179384828501611706565b60408301525060606117a7848285016117db565b60608301525060806117bb848285016117db565b60808301525060a06117cf848285016117db565b60a08301525092915050565b803561101681611ff1565b6000604082840312156117f857600080fd5b6118026040611f17565b905081356001600160401b0381111561181a57600080fd5b611826848285016116b2565b825250602061183784848301611843565b60208301525092915050565b803561101681612011565b6000806040838503121561186157600080fd5b600061186d85856116a7565b925050602061187e858286016116a7565b9150509250929050565b6000806000806080858703121561189e57600080fd5b60006118aa8787611706565b94505060206118bb87828801611706565b93505060406118cc878288016117db565b92505060606118dd878288016117db565b91505092959194509250565b600080600061010084860312156118ff57600080fd5b600061190b8686611744565b93505060c061191c868287016117db565b92505060e08401356001600160401b0381111561193857600080fd5b611944868287016117e6565b9150509250925092565b60006020828403121561196057600080fd5b60006110f784846116a7565b61197581611f76565b82525050565b600061198682611f64565b6119908185611f68565b93506119a0818560208601611fc5565b9290920192915050565b61197581611f84565b60006119c0603483611f6d565b7f626c6f636b4e756d2065786365656473206d61782073697a6520616c6c6f77658152736420696e20506c61736d614672616d65776f726b60601b602082015260400192915050565b6000611a16604083611f6d565b7f50696767796261636b20697320706f737369626c65206f6e6c7920696e20746881527f65206669727374207068617365206f6620746865206578697420706572696f64602082015260400192915050565b6000611a75602283611f6d565b7f7478496e6465782065786365656473207468652073697a65206f662075696e74815261189b60f11b602082015260400192915050565b6000611ab9602183611f6d565b7f496e646578656420696e70757420616c72656164792070696767796261636b658152601960fa1b602082015260400192915050565b6000611afc602283611f6d565b7f496e6465786564206f757470757420616c72656164792070696767796261636b815261195960f21b602082015260400192915050565b6000611b40602183611f6d565b7f4e6f20696e2d666c69676874206578697420746f2070696767796261636b206f8152603760f91b602082015260400192915050565b6000611b83601483611f6d565b73092dcecc2d8d2c840deeae8e0eae840d2dcc8caf60631b815260200192915050565b6000611bb3601683611f6d565b75496e646578656420696e70757420697320656d70747960501b815260200192915050565b6000611be5601783611f6d565b7f496e6465786564206f757470757420697320656d707479000000000000000000815260200192915050565b6000611c1e601383611f6d565b72092dcecc2d8d2c840d2dce0eae840d2dcc8caf606b1b815260200192915050565b6000611c4d602583611f6d565b7f43616e2062652063616c6c6564206f6e6c792062792074686520657869742074815264185c99d95d60da1b602082015260400192915050565b6000611c94603283611f6d565b7f5468657265206973206e6f20626c6f636b20666f7220746865206578697420708152716f736974696f6e20746f20656e717565756560701b602082015260400192915050565b80516020830190611cec8482611dab565b50505050565b805160c0830190611d0384826119aa565b506020820151611d166020850182611cdb565b506040820151611d2960408501826119aa565b506060820151611d3c6060850182611dab565b506080820151611d4f6080850182611dab565b5060a0820151611cec60a0850182611dab565b80516060830190611d738482611dbd565b506020820151611d866020850182611da2565b506040820151611cec6040850182611da2565b61197581611f96565b61197581611f8f565b61197581611f81565b61197581611fae565b61197581611fa2565b6000611099828461197b565b60208082528101611016816119b3565b6020808252810161101681611a09565b6020808252810161101681611a68565b6020808252810161101681611aac565b6020808252810161101681611aef565b6020808252810161101681611b33565b6020808252810161101681611b76565b6020808252810161101681611ba6565b6020808252810161101681611bd8565b6020808252810161101681611c11565b6020808252810161101681611c40565b6020808252810161101681611c87565b60c081016110168284611cf2565b602081016110168284611da2565b6101008101611ebd8289611dab565b611eca602083018861196c565b611ed76040830187611dbd565b611ee46060830186611d62565b611ef160c0830185611d99565b611efe60e08301846119aa565b979650505050505050565b602081016110168284611db4565b6040518181016001600160401b0381118282101715611f3557600080fd5b604052919050565b60006001600160401b03821115611f5357600080fd5b506020601f91909101601f19160190565b5190565b919050565b90815260200190565b600061101682611f96565b90565b600061101682611f76565b61ffff1690565b6001600160a01b031690565b6001600160401b031690565b600061101682611fa2565b82818337506000910152565b60005b83811015611fe0578181015183820152602001611fc8565b83811115611cec5750506000910152565b611ffa81611f81565b811461200557600080fd5b50565b611ffa81611f84565b611ffa81611f8f56fea365627a7a7231582029d27650d313551444d3254c1c84e20357bd9cd2ad1106e334210e22f2f69a576c6578706572696d656e74616cf564736f6c634300050b0040",
  "source": "pragma solidity 0.5.11;\npragma experimental ABIEncoderV2;\n\nimport \"../PaymentExitDataModel.sol\";\nimport \"../PaymentInFlightExitModelUtils.sol\";\nimport \"../routers/PaymentInFlightExitRouterArgs.sol\";\nimport \"../../utils/ExitableTimestamp.sol\";\nimport \"../../utils/ExitId.sol\";\nimport \"../../../framework/PlasmaFramework.sol\";\nimport \"../../../framework/interfaces/IExitProcessor.sol\";\nimport \"../../../transactions/PaymentTransactionModel.sol\";\nimport \"../../../utils/PosLib.sol\";\n\nlibrary PaymentPiggybackInFlightExit {\n    using PosLib for PosLib.Position;\n    using ExitableTimestamp for ExitableTimestamp.Calculator;\n    using PaymentInFlightExitModelUtils for PaymentExitDataModel.InFlightExit;\n\n    struct Controller {\n        PlasmaFramework framework;\n        ExitableTimestamp.Calculator exitableTimestampCalculator;\n        IExitProcessor exitProcessor;\n        uint256 minExitPeriod;\n        uint256 ethVaultId;\n        uint256 erc20VaultId;\n    }\n\n    event InFlightExitInputPiggybacked(\n        address indexed exitTarget,\n        bytes32 indexed txHash,\n        uint16 inputIndex\n    );\n\n    event InFlightExitOutputPiggybacked(\n        address indexed exitTarget,\n        bytes32 indexed txHash,\n        uint16 outputIndex\n    );\n\n    /**\n     * @notice Function that builds the controller struct\n     * @return Controller struct of PaymentPiggybackInFlightExit\n     */\n    function buildController(\n        PlasmaFramework framework,\n        IExitProcessor exitProcessor,\n        uint256 ethVaultId,\n        uint256 erc20VaultId\n    )\n        public\n        view\n        returns (Controller memory)\n    {\n        return Controller({\n            framework: framework,\n            exitableTimestampCalculator: ExitableTimestamp.Calculator(framework.minExitPeriod()),\n            exitProcessor: exitProcessor,\n            minExitPeriod: framework.minExitPeriod(),\n            ethVaultId: ethVaultId,\n            erc20VaultId: erc20VaultId\n        });\n    }\n\n    /**\n     * @notice The main controller logic for 'piggybackInFlightExitOnInput'\n     * @dev emits InFlightExitInputPiggybacked event on success\n     * @param self The controller struct\n     * @param inFlightExitMap The storage of all in-flight exit data\n     * @param args Arguments of 'piggybackInFlightExitOnInput' function from client\n     */\n    function piggybackInput(\n        Controller memory self,\n        PaymentExitDataModel.InFlightExitMap storage inFlightExitMap,\n        PaymentInFlightExitRouterArgs.PiggybackInFlightExitOnInputArgs memory args\n    )\n        public\n    {\n        uint160 exitId = ExitId.getInFlightExitId(args.inFlightTx);\n        PaymentExitDataModel.InFlightExit storage exit = inFlightExitMap.exits[exitId];\n\n        require(exit.exitStartTimestamp != 0, \"No in-flight exit to piggyback on\");\n        require(exit.isInFirstPhase(self.minExitPeriod), \"Piggyback is possible only in the first phase of the exit period\");\n\n        require(!exit.isInputEmpty(args.inputIndex), \"Indexed input is empty\");\n        require(!exit.isInputPiggybacked(args.inputIndex), \"Indexed input already piggybacked\");\n\n        PaymentExitDataModel.WithdrawData storage withdrawData = exit.inputs[args.inputIndex];\n\n        require(withdrawData.exitTarget == msg.sender, \"Can be called only by the exit target\");\n        withdrawData.piggybackBondSize = msg.value;\n\n        if (isFirstPiggybackOfTheToken(exit, withdrawData.token)) {\n            enqueue(self, withdrawData.token, PosLib.decode(exit.position), exitId);\n        }\n\n        exit.setInputPiggybacked(args.inputIndex);\n\n        emit InFlightExitInputPiggybacked(msg.sender, keccak256(args.inFlightTx), args.inputIndex);\n    }\n\n    /**\n     * @notice The main controller logic for 'piggybackInFlightExitOnOutput'\n     * @dev emits InFlightExitOutputPiggybacked event on success\n     * @param self The controller struct\n     * @param inFlightExitMap The storage of all in-flight exit data\n     * @param args Arguments of 'piggybackInFlightExitOnOutput' function from client\n     */\n    function piggybackOutput(\n        Controller memory self,\n        PaymentExitDataModel.InFlightExitMap storage inFlightExitMap,\n        PaymentInFlightExitRouterArgs.PiggybackInFlightExitOnOutputArgs memory args\n    )\n        public\n    {\n        uint160 exitId = ExitId.getInFlightExitId(args.inFlightTx);\n        PaymentExitDataModel.InFlightExit storage exit = inFlightExitMap.exits[exitId];\n\n        require(exit.exitStartTimestamp != 0, \"No in-flight exit to piggyback on\");\n        require(exit.isInFirstPhase(self.minExitPeriod), \"Piggyback is possible only in the first phase of the exit period\");\n\n        require(!exit.isOutputEmpty(args.outputIndex), \"Indexed output is empty\");\n        require(!exit.isOutputPiggybacked(args.outputIndex), \"Indexed output already piggybacked\");\n\n        PaymentExitDataModel.WithdrawData storage withdrawData = exit.outputs[args.outputIndex];\n\n        require(withdrawData.exitTarget == msg.sender, \"Can be called only by the exit target\");\n        withdrawData.piggybackBondSize = msg.value;\n\n        if (isFirstPiggybackOfTheToken(exit, withdrawData.token)) {\n            enqueue(self, withdrawData.token, PosLib.decode(exit.position), exitId);\n        }\n\n        exit.setOutputPiggybacked(args.outputIndex);\n\n        emit InFlightExitOutputPiggybacked(msg.sender, keccak256(args.inFlightTx), args.outputIndex);\n    }\n\n    function enqueue(\n        Controller memory controller,\n        address token,\n        PosLib.Position memory utxoPos,\n        uint160 exitId\n    )\n        private\n    {\n        (, uint256 blockTimestamp) = controller.framework.blocks(utxoPos.blockNum);\n        require(blockTimestamp != 0, \"There is no block for the exit position to enqueue\");\n\n        uint64 exitableAt = controller.exitableTimestampCalculator.calculateTxExitableTimestamp(now, blockTimestamp);\n\n        uint256 vaultId;\n        if (token == address(0)) {\n            vaultId = controller.ethVaultId;\n        } else {\n            vaultId = controller.erc20VaultId;\n        }\n\n        controller.framework.enqueue(vaultId, token, exitableAt, utxoPos.toStrictTxPos(), exitId, controller.exitProcessor);\n    }\n\n    function isFirstPiggybackOfTheToken(ExitModel.InFlightExit memory ife, address token)\n        private\n        pure\n        returns (bool)\n    {\n        for (uint i = 0; i < PaymentTransactionModel.MAX_INPUT_NUM(); i++) {\n            if (ife.isInputPiggybacked(uint16(i)) && ife.inputs[i].token == token) {\n                return false;\n            }\n        }\n\n        for (uint i = 0; i < PaymentTransactionModel.MAX_OUTPUT_NUM(); i++) {\n            if (ife.isOutputPiggybacked(uint16(i)) && ife.outputs[i].token == token) {\n                return false;\n            }\n        }\n\n        return true;\n    }\n}\n",
  "sourcePath": "/home/node/plasma-contracts/plasma_framework/contracts/src/exits/payment/controllers/PaymentPiggybackInFlightExit.sol",
  "compiler": {
    "name": "solc",
    "version": "0.5.11+commit.c082d0b4.Emscripten.clang"
  },
  "schemaVersion": "3.0.16",
  "updatedAt": "2020-04-07T14:09:22.644Z",
  "devdoc": {
    "methods": {
      "buildController(PlasmaFramework,IExitProcessor,uint256,uint256)": {
        "return": "Controller struct of PaymentPiggybackInFlightExit"
      },
      "piggybackInput(PaymentPiggybackInFlightExit.Controller,PaymentExitDataModel.InFlightExitMap storage,PaymentInFlightExitRouterArgs.PiggybackInFlightExitOnInputArgs)": {
        "details": "emits InFlightExitInputPiggybacked event on success",
        "params": {
          "args": "Arguments of 'piggybackInFlightExitOnInput' function from client",
          "inFlightExitMap": "The storage of all in-flight exit data",
          "self": "The controller struct"
        }
      },
      "piggybackOutput(PaymentPiggybackInFlightExit.Controller,PaymentExitDataModel.InFlightExitMap storage,PaymentInFlightExitRouterArgs.PiggybackInFlightExitOnOutputArgs)": {
        "details": "emits InFlightExitOutputPiggybacked event on success",
        "params": {
          "args": "Arguments of 'piggybackInFlightExitOnOutput' function from client",
          "inFlightExitMap": "The storage of all in-flight exit data",
          "self": "The controller struct"
        }
      }
    }
  },
  "userdoc": {
    "methods": {
      "buildController(PlasmaFramework,IExitProcessor,uint256,uint256)": {
        "notice": "Function that builds the controller struct"
      },
      "piggybackInput(PaymentPiggybackInFlightExit.Controller,PaymentExitDataModel.InFlightExitMap storage,PaymentInFlightExitRouterArgs.PiggybackInFlightExitOnInputArgs)": {
        "notice": "The main controller logic for 'piggybackInFlightExitOnInput'"
      },
      "piggybackOutput(PaymentPiggybackInFlightExit.Controller,PaymentExitDataModel.InFlightExitMap storage,PaymentInFlightExitRouterArgs.PiggybackInFlightExitOnOutputArgs)": {
        "notice": "The main controller logic for 'piggybackInFlightExitOnOutput'"
      }
    }
  }
}