{
  "contractName": "PaymentEip712LibMock",
  "abi": [
    {
      "constant": true,
      "inputs": [
        {
          "internalType": "address",
          "name": "_verifyingContract",
          "type": "address"
        },
        {
          "internalType": "bytes",
          "name": "_rlpTx",
          "type": "bytes"
        }
      ],
      "name": "hashTx",
      "outputs": [
        {
          "internalType": "bytes32",
          "name": "",
          "type": "bytes32"
        }
      ],
      "payable": false,
      "stateMutability": "pure",
      "type": "function"
    }
  ],
  "bytecode": "0x608060405234801561001057600080fd5b50611d41806100206000396000f3fe608060405234801561001057600080fd5b506004361061002b5760003560e01c806377d8709e14610030575b600080fd5b6100e66004803603604081101561004657600080fd5b6001600160a01b03823516919081019060408101602082013564010000000081111561007157600080fd5b82018360208201111561008357600080fd5b803590602001918460018302840111640100000000831117156100a557600080fd5b91908080601f0160208091040260200160405190810160405280939291908181526020018383808284376000920191909152509295506100f8945050505050565b60408051918252519081900360200190f35b60006101026117e5565b61010b84610127565b905061011f8161011a856101f3565b610212565b949350505050565b61012f6117e5565b60006040518080611b2c604f91396040805191829003604f0182206a4f4d47204e6574776f726b60a81b8352815192839003600b018320603160f81b845282519384900360010184206020808601939093528484019190915260608401526001600160a01b03871660808401527ffad5c7f626d80f9256ef01929f3beb96e058b8b4b0e3fe52d84f054c0e2a7a8360a0808501919091528251808503909101815260c084018084528151919092012060e0909301909152908152925050505b919050565b6101fb6117f7565b61020c61020783610278565b610482565b92915050565b600061190160f01b836000015161022884610734565b60405160200180846001600160f01b0319166001600160f01b0319168152600201838152602001828152602001935050505060405160208183030381529060405280519060200120905092915050565b610280611829565b606061029361028e84610987565b6109ac565b80519091506005146102ec576040805162461bcd60e51b815260206004820152601f60248201527f496e76616c696420656e636f64696e67206f66207472616e73616374696f6e00604482015290519081900360640190fd5b600061030b826000815181106102fe57fe5b6020026020010151610b04565b905060008111610362576040805162461bcd60e51b815260206004820152601e60248201527f5472616e73616374696f6e2074797065206d757374206e6f7420626520300000604482015290519081900360640190fd5b60606103818360028151811061037457fe5b60200260200101516109ac565b9050606081516040519080825280602002602001820160405280156103c057816020015b6103ad61185e565b8152602001906001900390816103a55790505b50905060005b825181101561040a576103eb8382815181106103de57fe5b6020026020010151610cdb565b8282815181106103f757fe5b60209081029190910101526001016103c6565b50600061042a8560048151811061041d57fe5b6020026020010151610de9565b90506040518060a0016040528085815260200161044d8760018151811061037457fe5b81526020018381526020018660038151811061046557fe5b602002602001015181526020018281525095505050505050919050565b61048a6117f7565b602082015151600410156104cf5760405162461bcd60e51b81526004018080602001828103825260248152602001806119db6024913960400191505060405180910390fd5b6040820151516105105760405162461bcd60e51b81526004018080602001828103825260218152602001806119136021913960400191505060405180910390fd5b604082015151600410156105555760405162461bcd60e51b81526004018080602001828103825260258152602001806119b66025913960400191505060405180910390fd5b6060826020015151604051908082528060200260200182016040528015610586578160200160208202803883390190505b50905060005b83602001515181101561061c5760006105ae8560200151838151811061041d57fe5b9050806105fb576040805162461bcd60e51b8152602060048201526016602482015275139d5b1b081a5b9c1d5d081b9bdd08185b1b1bddd95960521b604482015290519081900360640190fd5b8083838151811061060857fe5b60209081029190910101525060010161058c565b50606083604001515160405190808252806020026020018201604052801561065e57816020015b61064b61187d565b8152602001906001900390816106435790505b50905060005b8460400151518110156106b0576106918560400151828151811061068457fe5b6020026020010151610f08565b82828151811061069d57fe5b6020908102919091010152600101610664565b506106be8460600151610b04565b15610703576040805162461bcd60e51b815260206004820152601060248201526f0747844617461206d75737420626520360841b604482015290519081900360640190fd5b6040805160a08101825285518152602081019390935282015260006060820152608080840151908201529050919050565b600060606107406110b6565b60ff1660405190808252806020026020018201604052801561076c578160200160208202803883390190505b50905060005b8360200151518110156107b6578360200151818151811061078f57fe5b60200260200101518282815181106107a357fe5b6020908102919091010152600101610772565b5060606107c16110b6565b60ff166040519080825280602002602001820160405280156107fd57816020015b6107ea61187d565b8152602001906001900390816107e25790505b50905060005b846040015151811015610847578460400151818151811061082057fe5b602002602001015182828151811061083457fe5b6020908102919091010152600101610803565b506040518061012d6119ff823961012d019050604051809103902084600001516108848460008151811061087757fe5b60200260200101516110bb565b6108948560018151811061087757fe5b6108a48660028151811061087757fe5b6108b48760038151811061087757fe5b6108d1876000815181106108c457fe5b60200260200101516111a4565b6108e1886001815181106108c457fe5b6108f1896002815181106108c457fe5b6109018a6003815181106108c457fe5b8d606001518e60800151604051602001808d81526020018c81526020018b81526020018a81526020018981526020018881526020018781526020018681526020018581526020018481526020018381526020018281526020019c505050505050505050505050506040516020818303038152906040528051906020012092505050919050565b61098f6118a4565b506040805180820190915281518152602082810190820152919050565b60606109b782611297565b6109fd576040805162461bcd60e51b8152602060048201526012602482015271125d195b481a5cc81b9bdd0818481b1a5cdd60721b604482015290519081900360640190fd5b600080610a0d84602001516112d1565b855191935091508214610a515760405162461bcd60e51b81526004018080602001828103825260268152602001806119906026913960400191505060405180910390fd5b6000610a5c85611557565b9050606081604051908082528060200260200182016040528015610a9a57816020015b610a876118a4565b815260200190600190039081610a7f5790505b50602087015190915083016000805b84811015610af757610aba836112d1565b5080925050604051806040016040528083815260200184815250848281518110610ae057fe5b602090810291909101015291810191600101610aa9565b5091979650505050505050565b805160009015801590610b1957508151602110155b610b545760405162461bcd60e51b815260040180806020018281038252602a815260200180611ce3602a913960400191505060405180910390fd5b610b5d82611297565b15610ba9576040805162461bcd60e51b8152602060048201526017602482015276125d195b481b5d5cdd081b9bdd0818994818481b1a5cdd604a1b604482015290519081900360640190fd5b600080610bb984602001516112d1565b855191935091508214610bfd5760405162461bcd60e51b815260040180806020018281038252603a815260200180611934603a913960400191505060405180910390fd5b60208085015182018051838503929091600083901a91841015610c2757836020036101000a830492505b81158015610c33575084155b15610c6f5760405162461bcd60e51b8152600401808060200182810382526022815260200180611bee6022913960400191505060405180910390fd5b81158015610c7d5750600184115b15610ccf576040805162461bcd60e51b815260206004820152601960248201527f4c656164696e67207a65726f732061726520696e76616c696400000000000000604482015290519081900360640190fd5b50909695505050505050565b610ce361185e565b6060610cee836109ac565b90508051600214610d46576040805162461bcd60e51b815260206004820152601860248201527f4f7574707574206d75737420686176652032206974656d730000000000000000604482015290519081900360640190fd5b610d4e61185e565b6040518060400160405280610d69846000815181106102fe57fe5b815260200183600181518110610d7b57fe5b60200260200101518152509050806000015160001415610de2576040805162461bcd60e51b815260206004820152601960248201527f4f75747075742074797065206d757374206e6f74206265203000000000000000604482015290519081900360640190fd5b9392505050565b8051600090602114610e3b576040805162461bcd60e51b81526020600482015260166024820152754974656d206c656e677468206d75737420626520333360501b604482015290519081900360640190fd5b610e4482611297565b15610e90576040805162461bcd60e51b8152602060048201526017602482015276125d195b481b5d5cdd081b9bdd0818994818481b1a5cdd604a1b604482015290519081900360640190fd5b600080610ea084602001516112d1565b9150915081602114610ef9576040805162461bcd60e51b815260206004820152601e60248201527f4465636f646564206974656d206c656e677468206d7573742062652033330000604482015290519081900360640190fd5b60208401510151915050919050565b610f1061187d565b6060610f1f83602001516109ac565b90508051600314610f77576040805162461bcd60e51b815260206004820152601d60248201527f4f75747075742064617461206d75737420686176652033206974656d73000000604482015290519081900360640190fd5b610f7f61187d565b604051806080016040528085600001518152602001610fb184600081518110610fa457fe5b60200260200101516115ed565b60601b6bffffffffffffffffffffffff19168152602001610fd884600181518110610fa457fe5b6001600160a01b03168152602001610ff6846002815181106102fe57fe5b90526060810151909150611051576040805162461bcd60e51b815260206004820152601b60248201527f4f757470757420616d6f756e74206d757374206e6f7420626520300000000000604482015290519081900360640190fd5b60208101516bffffffffffffffffffffffff1916610de2576040805162461bcd60e51b815260206004820181905260248201527f4f7574707574206f75747075744775617264206d757374206e6f742062652030604482015290519081900360640190fd5b600490565b6000818061111d57604051806034611bba8239604080519182900360340182206020808401919091526000838301819052606084018190526080808501919091528251808503909101815260a0909301909152815191012092506101ee915050565b6111256118be565b61112e82611713565b90506040518080611bba60349139604080519182900360340182208451602080870151968401518186019390935267ffffffffffffffff9091168484015261ffff958616606085015294166080808401919091528151808403909101815260a09092019052805192019190912092505050919050565b60008160600151600014156112135760405180604e611c9582396040805191829003604e0182206020808401919091526000838301819052606084018190526080840181905260a0808501919091528251808503909101815260c0909301909152815191012091506101ee9050565b60405180604e611c9582396040805191829003604e0182208551602080880151888501516060998a015183880195909552868601939093526bffffffffffffffffffffffff1916978501979097526001600160a01b0316608084015260a0808401919091528151808403909101815260c09092019052805193019290922092915050565b80516000906112a8575060006101ee565b6020820151805160001a9060c08210156112c7576000925050506101ee565b5060019392505050565b8051600090819081908190811a60808110156112f457600192506000915061154c565b60808110801590611305575060b881105b1561138357607e1981019250600283141561137a57600186015160001a6080811015611378576040805162461bcd60e51b815260206004820152601d60248201527f496e76616c69642073686f727420737472696e6720656e636f64696e67000000604482015290519081900360640190fd5b505b6001915061154c565b60b88110801590611394575060c081105b156114625760019590950180519095602081900360b7016101000a820480820160b519019450909160001a60b6198301816114005760405162461bcd60e51b815260040180806020018281038252603f815260200180611b7b603f913960400191505060405180910390fd5b60378311611455576040805162461bcd60e51b815260206004820181905260248201527f496e76616c6964206c656e67746820666f722061206c6f6e6720737472696e67604482015290519081900360640190fd5b600101935061154c915050565b60c08110801590611473575060f881105b156114885760be19810192506001915061154c565b60019590950180519095602081900360f7016101000a820480820160f519019450909160001a60f6198301816114ef5760405162461bcd60e51b815260040180806020018281038252603d815260200180611c58603d913960400191505060405180910390fd5b60378311611544576040805162461bcd60e51b815260206004820152601e60248201527f496e76616c6964206c656e67746820666f722061206c6f6e67206c6973740000604482015290519081900360640190fd5b600101935050505b509092509050915091565b60008060009050600061156d84602001516112d1565b602086015186519193508084019250015b808210156115e3576000611591836112d1565b50928301929050818311156115d75760405162461bcd60e51b8152600401808060200182810382526048815260200180611c106048913960600191505060405180910390fd5b5060019093019261157e565b5091949350505050565b805160009060151461163f576040805162461bcd60e51b81526020600482015260166024820152754974656d206c656e677468206d75737420626520323160501b604482015290519081900360640190fd5b61164882611297565b15611694576040805162461bcd60e51b8152602060048201526017602482015276125d195b481b5d5cdd081b9bdd0818994818481b1a5cdd604a1b604482015290519081900360640190fd5b6000806116a484602001516112d1565b91509150816015146116fd576040805162461bcd60e51b815260206004820152601e60248201527f4465636f646564206974656d206c656e677468206d7573742062652032310000604482015290519081900360640190fd5b60208401510151600160601b9004915050919050565b61171b6118be565b633b9aca00808304906127109084068190049084066429f16b11c68311156117745760405162461bcd60e51b81526004018080602001828103825260348152602001806118df6034913960400191505060405180910390fd5b61ffff8211156117b55760405162461bcd60e51b815260040180806020018281038252602281526020018061196e6022913960400191505060405180910390fd5b6040805160608101825267ffffffffffffffff909416845261ffff92831660208501529116908201529050919050565b60408051602081019091526000815290565b6040518060a0016040528060008152602001606081526020016060815260200160008152602001600080191681525090565b6040518060a001604052806000815260200160608152602001606081526020016118516118a4565b8152600060209091015290565b6040518060400160405280600081526020016118786118a4565b905290565b60408051608081018252600080825260208201819052918101829052606081019190915290565b604051806040016040528060008152602001600081525090565b60408051606081018252600080825260208201819052918101919091529056fe626c6f636b4e756d2065786365656473206d61782073697a6520616c6c6f77656420696e20506c61736d614672616d65776f726b5472616e73616374696f6e2063616e6e6f7420686176652030206f7574707574734465636f646564206974656d206c656e677468206d75737420626520657175616c20746f2074686520696e7075742064617461206c656e6774687478496e6465782065786365656473207468652073697a65206f662075696e7431364465636f64656420524c50206c656e67746820666f72206c69737420697320696e76616c69645472616e73616374696f6e206f757470757473206e756d2065786365656473206c696d69745472616e73616374696f6e20696e70757473206e756d2065786365656473206c696d69745472616e73616374696f6e2875696e74323536207478547970652c496e70757420696e707574302c496e70757420696e707574312c496e70757420696e707574322c496e70757420696e707574332c4f7574707574206f7574707574302c4f7574707574206f7574707574312c4f7574707574206f7574707574322c4f7574707574206f7574707574332c75696e74323536207478446174612c62797465733332206d6574616461746129496e7075742875696e7432353620626c6b6e756d2c75696e74323536207478696e6465782c75696e74323536206f696e646578294f75747075742875696e74323536206f7574707574547970652c62797465733230206f757470757447756172642c616464726573732063757272656e63792c75696e7432353620616d6f756e7429454950373132446f6d61696e28737472696e67206e616d652c737472696e672076657273696f6e2c6164647265737320766572696679696e67436f6e74726163742c627974657333322073616c7429496e76616c6964206c656164696e67207a65726f7320696e206c656e677468206f6620746865206c656e67746820666f722061206c6f6e6720737472696e67496e7075742875696e7432353620626c6b6e756d2c75696e74323536207478696e6465782c75696e74323536206f696e646578295363616c617220302073686f756c6420626520656e636f6465642061732030783830496e76616c6964206465636f646564206c656e677468206f6620524c50206974656d20666f756e6420647572696e6720636f756e74696e67206974656d7320696e2061206c697374496e76616c6964206c656164696e67207a65726f7320696e206c656e677468206f6620746865206c656e67746820666f722061206c6f6e67206c6973744f75747075742875696e74323536206f7574707574547970652c62797465733230206f757470757447756172642c616464726573732063757272656e63792c75696e7432353620616d6f756e74294974656d206c656e677468206d757374206265206265747765656e203120616e64203333206279746573a265627a7a7231582075293214f24e9b3dae76c77379b521212df1c02f54f22d0c4053ec37617bfab064736f6c634300050b0032",
  "source": "pragma solidity 0.5.11;\n\nimport \"../../../src/transactions/eip712Libs/PaymentEip712Lib.sol\";\nimport \"../../../src/transactions/PaymentTransactionModel.sol\";\n\ncontract PaymentEip712LibMock {\n    function hashTx(address _verifyingContract, bytes memory _rlpTx)\n        public\n        pure\n        returns (bytes32)\n    {\n        PaymentEip712Lib.Constants memory eip712 = PaymentEip712Lib.initConstants(_verifyingContract);\n        return PaymentEip712Lib.hashTx(eip712, PaymentTransactionModel.decode(_rlpTx));\n    }\n}\n",
  "sourcePath": "/home/node/plasma-contracts/plasma_framework/contracts/mocks/transactions/eip712Libs/PaymentEip712LibMock.sol",
  "compiler": {
    "name": "solc",
    "version": "0.5.11+commit.c082d0b4.Emscripten.clang"
  },
  "schemaVersion": "3.0.16",
  "updatedAt": "2020-04-07T14:09:55.650Z",
  "devdoc": {
    "methods": {}
  },
  "userdoc": {
    "methods": {}
  }
}