{
  "contractName": "PlasmaFramework",
  "abi": [
    {
      "constant": true,
      "inputs": [],
      "name": "isChildChainActivated",
      "outputs": [
        {
          "internalType": "bool",
          "name": "",
          "type": "bool"
        }
      ],
      "payable": false,
      "stateMutability": "view",
      "type": "function"
    },
    {
      "constant": true,
      "inputs": [
        {
          "internalType": "uint256",
          "name": "vaultId",
          "type": "uint256"
        },
        {
          "internalType": "address",
          "name": "token",
          "type": "address"
        }
      ],
      "name": "getNextExit",
      "outputs": [
        {
          "internalType": "uint256",
          "name": "",
          "type": "uint256"
        }
      ],
      "payable": false,
      "stateMutability": "view",
      "type": "function"
    },
    {
      "constant": true,
      "inputs": [
        {
          "internalType": "bytes32",
          "name": "",
          "type": "bytes32"
        }
      ],
      "name": "exitsQueues",
      "outputs": [
        {
          "internalType": "contract PriorityQueue",
          "name": "",
          "type": "address"
        }
      ],
      "payable": false,
      "stateMutability": "view",
      "type": "function"
    },
    {
      "constant": true,
      "inputs": [],
      "name": "childBlockInterval",
      "outputs": [
        {
          "internalType": "uint256",
          "name": "",
          "type": "uint256"
        }
      ],
      "payable": false,
      "stateMutability": "view",
      "type": "function"
    },
    {
      "constant": false,
      "inputs": [
        {
          "internalType": "uint256",
          "name": "vaultId",
          "type": "uint256"
        },
        {
          "internalType": "address",
          "name": "token",
          "type": "address"
        }
      ],
      "name": "addExitQueue",
      "outputs": [],
      "payable": false,
      "stateMutability": "nonpayable",
      "type": "function"
    },
    {
      "constant": true,
      "inputs": [],
      "name": "nextChildBlock",
      "outputs": [
        {
          "internalType": "uint256",
          "name": "",
          "type": "uint256"
        }
      ],
      "payable": false,
      "stateMutability": "view",
      "type": "function"
    },
    {
      "constant": false,
      "inputs": [],
      "name": "deactivateNonReentrant",
      "outputs": [],
      "payable": false,
      "stateMutability": "nonpayable",
      "type": "function"
    },
    {
      "constant": true,
      "inputs": [],
      "name": "version",
      "outputs": [
        {
          "internalType": "string",
          "name": "",
          "type": "string"
        }
      ],
      "payable": false,
      "stateMutability": "view",
      "type": "function"
    },
    {
      "constant": true,
      "inputs": [
        {
          "internalType": "address",
          "name": "_contract",
          "type": "address"
        }
      ],
      "name": "isExitGameSafeToUse",
      "outputs": [
        {
          "internalType": "bool",
          "name": "",
          "type": "bool"
        }
      ],
      "payable": false,
      "stateMutability": "view",
      "type": "function"
    },
    {
      "constant": false,
      "inputs": [
        {
          "internalType": "uint256",
          "name": "_vaultId",
          "type": "uint256"
        },
        {
          "internalType": "address",
          "name": "_vaultAddress",
          "type": "address"
        }
      ],
      "name": "registerVault",
      "outputs": [],
      "payable": false,
      "stateMutability": "nonpayable",
      "type": "function"
    },
    {
      "constant": false,
      "inputs": [
        {
          "internalType": "bytes32",
          "name": "outputId",
          "type": "bytes32"
        },
        {
          "internalType": "uint160",
          "name": "exitId",
          "type": "uint160"
        }
      ],
      "name": "flagOutputFinalized",
      "outputs": [],
      "payable": false,
      "stateMutability": "nonpayable",
      "type": "function"
    },
    {
      "constant": true,
      "inputs": [
        {
          "internalType": "bytes32",
          "name": "",
          "type": "bytes32"
        }
      ],
      "name": "outputsFinalizations",
      "outputs": [
        {
          "internalType": "uint160",
          "name": "",
          "type": "uint160"
        }
      ],
      "payable": false,
      "stateMutability": "view",
      "type": "function"
    },
    {
      "constant": false,
      "inputs": [
        {
          "internalType": "uint256",
          "name": "vaultId",
          "type": "uint256"
        },
        {
          "internalType": "address",
          "name": "token",
          "type": "address"
        },
        {
          "internalType": "uint64",
          "name": "exitableAt",
          "type": "uint64"
        },
        {
          "components": [
            {
              "internalType": "uint64",
              "name": "blockNum",
              "type": "uint64"
            },
            {
              "internalType": "uint16",
              "name": "txIndex",
              "type": "uint16"
            },
            {
              "internalType": "uint16",
              "name": "outputIndex",
              "type": "uint16"
            }
          ],
          "internalType": "struct PosLib.Position",
          "name": "txPos",
          "type": "tuple"
        },
        {
          "internalType": "uint160",
          "name": "exitId",
          "type": "uint160"
        },
        {
          "internalType": "contract IExitProcessor",
          "name": "exitProcessor",
          "type": "address"
        }
      ],
      "name": "enqueue",
      "outputs": [
        {
          "internalType": "uint256",
          "name": "",
          "type": "uint256"
        }
      ],
      "payable": false,
      "stateMutability": "nonpayable",
      "type": "function"
    },
    {
      "constant": true,
      "inputs": [],
      "name": "nextDepositBlock",
      "outputs": [
        {
          "internalType": "uint256",
          "name": "",
          "type": "uint256"
        }
      ],
      "payable": false,
      "stateMutability": "view",
      "type": "function"
    },
    {
      "constant": true,
      "inputs": [
        {
          "internalType": "uint256",
          "name": "_txType",
          "type": "uint256"
        }
      ],
      "name": "protocols",
      "outputs": [
        {
          "internalType": "uint8",
          "name": "",
          "type": "uint8"
        }
      ],
      "payable": false,
      "stateMutability": "view",
      "type": "function"
    },
    {
      "constant": true,
      "inputs": [
        {
          "internalType": "uint256",
          "name": "_vaultId",
          "type": "uint256"
        }
      ],
      "name": "vaults",
      "outputs": [
        {
          "internalType": "address",
          "name": "",
          "type": "address"
        }
      ],
      "payable": false,
      "stateMutability": "view",
      "type": "function"
    },
    {
      "constant": true,
      "inputs": [
        {
          "internalType": "bytes32",
          "name": "outputId",
          "type": "bytes32"
        }
      ],
      "name": "isOutputFinalized",
      "outputs": [
        {
          "internalType": "bool",
          "name": "",
          "type": "bool"
        }
      ],
      "payable": false,
      "stateMutability": "view",
      "type": "function"
    },
    {
      "constant": false,
      "inputs": [
        {
          "internalType": "bytes32[]",
          "name": "outputIds",
          "type": "bytes32[]"
        },
        {
          "internalType": "uint160",
          "name": "exitId",
          "type": "uint160"
        }
      ],
      "name": "batchFlagOutputsFinalized",
      "outputs": [],
      "payable": false,
      "stateMutability": "nonpayable",
      "type": "function"
    },
    {
      "constant": false,
      "inputs": [],
      "name": "activateChildChain",
      "outputs": [],
      "payable": false,
      "stateMutability": "nonpayable",
      "type": "function"
    },
    {
      "constant": true,
      "inputs": [
        {
          "internalType": "address",
          "name": "_exitGame",
          "type": "address"
        }
      ],
      "name": "exitGameToTxType",
      "outputs": [
        {
          "internalType": "uint256",
          "name": "",
          "type": "uint256"
        }
      ],
      "payable": false,
      "stateMutability": "view",
      "type": "function"
    },
    {
      "constant": true,
      "inputs": [],
      "name": "CHILD_BLOCK_INTERVAL",
      "outputs": [
        {
          "internalType": "uint256",
          "name": "",
          "type": "uint256"
        }
      ],
      "payable": false,
      "stateMutability": "view",
      "type": "function"
    },
    {
      "constant": true,
      "inputs": [],
      "name": "nextDeposit",
      "outputs": [
        {
          "internalType": "uint256",
          "name": "",
          "type": "uint256"
        }
      ],
      "payable": false,
      "stateMutability": "view",
      "type": "function"
    },
    {
      "constant": true,
      "inputs": [
        {
          "internalType": "uint256",
          "name": "_txType",
          "type": "uint256"
        }
      ],
      "name": "exitGames",
      "outputs": [
        {
          "internalType": "address",
          "name": "",
          "type": "address"
        }
      ],
      "payable": false,
      "stateMutability": "view",
      "type": "function"
    },
    {
      "constant": false,
      "inputs": [
        {
          "internalType": "bytes32",
          "name": "_blockRoot",
          "type": "bytes32"
        }
      ],
      "name": "submitBlock",
      "outputs": [],
      "payable": false,
      "stateMutability": "nonpayable",
      "type": "function"
    },
    {
      "constant": false,
      "inputs": [
        {
          "internalType": "bytes32",
          "name": "_blockRoot",
          "type": "bytes32"
        }
      ],
      "name": "submitDepositBlock",
      "outputs": [
        {
          "internalType": "uint256",
          "name": "",
          "type": "uint256"
        }
      ],
      "payable": false,
      "stateMutability": "nonpayable",
      "type": "function"
    },
    {
      "constant": true,
      "inputs": [],
      "name": "authority",
      "outputs": [
        {
          "internalType": "address",
          "name": "",
          "type": "address"
        }
      ],
      "payable": false,
      "stateMutability": "view",
      "type": "function"
    },
    {
      "constant": true,
      "inputs": [
        {
          "internalType": "bytes32[]",
          "name": "_outputIds",
          "type": "bytes32[]"
        },
        {
          "internalType": "uint160",
          "name": "exitId",
          "type": "uint160"
        }
      ],
      "name": "isAnyInputFinalizedByOtherExit",
      "outputs": [
        {
          "internalType": "bool",
          "name": "",
          "type": "bool"
        }
      ],
      "payable": false,
      "stateMutability": "view",
      "type": "function"
    },
    {
      "constant": true,
      "inputs": [
        {
          "internalType": "uint256",
          "name": "vaultId",
          "type": "uint256"
        },
        {
          "internalType": "address",
          "name": "token",
          "type": "address"
        }
      ],
      "name": "hasExitQueue",
      "outputs": [
        {
          "internalType": "bool",
          "name": "",
          "type": "bool"
        }
      ],
      "payable": false,
      "stateMutability": "view",
      "type": "function"
    },
    {
      "constant": true,
      "inputs": [
        {
          "internalType": "bytes32",
          "name": "",
          "type": "bytes32"
        }
      ],
      "name": "delegations",
      "outputs": [
        {
          "internalType": "contract IExitProcessor",
          "name": "",
          "type": "address"
        }
      ],
      "payable": false,
      "stateMutability": "view",
      "type": "function"
    },
    {
      "constant": true,
      "inputs": [],
      "name": "minExitPeriod",
      "outputs": [
        {
          "internalType": "uint256",
          "name": "",
          "type": "uint256"
        }
      ],
      "payable": false,
      "stateMutability": "view",
      "type": "function"
    },
    {
      "constant": false,
      "inputs": [
        {
          "internalType": "uint256",
          "name": "vaultId",
          "type": "uint256"
        },
        {
          "internalType": "address",
          "name": "token",
          "type": "address"
        },
        {
          "internalType": "uint160",
          "name": "topExitId",
          "type": "uint160"
        },
        {
          "internalType": "uint256",
          "name": "maxExitsToProcess",
          "type": "uint256"
        }
      ],
      "name": "processExits",
      "outputs": [],
      "payable": false,
      "stateMutability": "nonpayable",
      "type": "function"
    },
    {
      "constant": true,
      "inputs": [
        {
          "internalType": "address",
          "name": "_vaultAddress",
          "type": "address"
        }
      ],
      "name": "vaultToId",
      "outputs": [
        {
          "internalType": "uint256",
          "name": "",
          "type": "uint256"
        }
      ],
      "payable": false,
      "stateMutability": "view",
      "type": "function"
    },
    {
      "constant": true,
      "inputs": [
        {
          "internalType": "uint256",
          "name": "blockNum",
          "type": "uint256"
        }
      ],
      "name": "isDeposit",
      "outputs": [
        {
          "internalType": "bool",
          "name": "",
          "type": "bool"
        }
      ],
      "payable": false,
      "stateMutability": "view",
      "type": "function"
    },
    {
      "constant": true,
      "inputs": [
        {
          "internalType": "uint256",
          "name": "",
          "type": "uint256"
        }
      ],
      "name": "blocks",
      "outputs": [
        {
          "internalType": "bytes32",
          "name": "root",
          "type": "bytes32"
        },
        {
          "internalType": "uint256",
          "name": "timestamp",
          "type": "uint256"
        }
      ],
      "payable": false,
      "stateMutability": "view",
      "type": "function"
    },
    {
      "constant": false,
      "inputs": [
        {
          "internalType": "uint256",
          "name": "_txType",
          "type": "uint256"
        },
        {
          "internalType": "address",
          "name": "_contract",
          "type": "address"
        },
        {
          "internalType": "uint8",
          "name": "_protocol",
          "type": "uint8"
        }
      ],
      "name": "registerExitGame",
      "outputs": [],
      "payable": false,
      "stateMutability": "nonpayable",
      "type": "function"
    },
    {
      "constant": false,
      "inputs": [],
      "name": "activateNonReentrant",
      "outputs": [],
      "payable": false,
      "stateMutability": "nonpayable",
      "type": "function"
    },
    {
      "inputs": [
        {
          "internalType": "uint256",
          "name": "_minExitPeriod",
          "type": "uint256"
        },
        {
          "internalType": "uint256",
          "name": "_initialImmuneVaults",
          "type": "uint256"
        },
        {
          "internalType": "uint256",
          "name": "_initialImmuneExitGames",
          "type": "uint256"
        },
        {
          "internalType": "address",
          "name": "_authority",
          "type": "address"
        },
        {
          "internalType": "address",
          "name": "_maintainer",
          "type": "address"
        }
      ],
      "payable": false,
      "stateMutability": "nonpayable",
      "type": "constructor"
    },
    {
      "anonymous": false,
      "inputs": [
        {
          "indexed": false,
          "internalType": "uint256",
          "name": "blknum",
          "type": "uint256"
        }
      ],
      "name": "BlockSubmitted",
      "type": "event"
    },
    {
      "anonymous": false,
      "inputs": [
        {
          "indexed": false,
          "internalType": "address",
          "name": "authority",
          "type": "address"
        }
      ],
      "name": "ChildChainActivated",
      "type": "event"
    },
    {
      "anonymous": false,
      "inputs": [
        {
          "indexed": false,
          "internalType": "uint256",
          "name": "vaultId",
          "type": "uint256"
        },
        {
          "indexed": false,
          "internalType": "address",
          "name": "token",
          "type": "address"
        }
      ],
      "name": "ExitQueueAdded",
      "type": "event"
    },
    {
      "anonymous": false,
      "inputs": [
        {
          "indexed": false,
          "internalType": "uint256",
          "name": "processedNum",
          "type": "uint256"
        },
        {
          "indexed": false,
          "internalType": "uint256",
          "name": "vaultId",
          "type": "uint256"
        },
        {
          "indexed": false,
          "internalType": "address",
          "name": "token",
          "type": "address"
        }
      ],
      "name": "ProcessedExitsNum",
      "type": "event"
    },
    {
      "anonymous": false,
      "inputs": [
        {
          "indexed": true,
          "internalType": "uint160",
          "name": "exitId",
          "type": "uint160"
        },
        {
          "indexed": false,
          "internalType": "uint256",
          "name": "priority",
          "type": "uint256"
        }
      ],
      "name": "ExitQueued",
      "type": "event"
    },
    {
      "anonymous": false,
      "inputs": [
        {
          "indexed": false,
          "internalType": "uint256",
          "name": "txType",
          "type": "uint256"
        },
        {
          "indexed": false,
          "internalType": "address",
          "name": "exitGameAddress",
          "type": "address"
        },
        {
          "indexed": false,
          "internalType": "uint8",
          "name": "protocol",
          "type": "uint8"
        }
      ],
      "name": "ExitGameRegistered",
      "type": "event"
    },
    {
      "anonymous": false,
      "inputs": [
        {
          "indexed": false,
          "internalType": "uint256",
          "name": "vaultId",
          "type": "uint256"
        },
        {
          "indexed": false,
          "internalType": "address",
          "name": "vaultAddress",
          "type": "address"
        }
      ],
      "name": "VaultRegistered",
      "type": "event"
    },
    {
      "constant": true,
      "inputs": [],
      "name": "getMaintainer",
      "outputs": [
        {
          "internalType": "address",
          "name": "",
          "type": "address"
        }
      ],
      "payable": false,
      "stateMutability": "view",
      "type": "function"
    },
    {
      "constant": true,
      "inputs": [],
      "name": "getVersion",
      "outputs": [
        {
          "internalType": "string",
          "name": "",
          "type": "string"
        }
      ],
      "payable": false,
      "stateMutability": "view",
      "type": "function"
    },
    {
      "constant": false,
      "inputs": [
        {
          "internalType": "string",
          "name": "_version",
          "type": "string"
        }
      ],
      "name": "setVersion",
      "outputs": [],
      "payable": false,
      "stateMutability": "nonpayable",
      "type": "function"
    }
  ],
  "bytecode": "0x6080604052600e805460ff191690553480156200001b57600080fd5b5060405162003bcc38038062003bcc8339810160408190526200003e91620000d5565b600285026003556004938455928402600955600a91909155600e8054610100600160a81b0319166101006001600160a01b03938416021790556103e8600f81905560105560016011556012805460ff19169055601492909255601580546001600160a01b031916929091169190911790556200018f565b8051620000c2816200016a565b92915050565b8051620000c28162000184565b600080600080600060a08688031215620000ee57600080fd5b6000620000fc8888620000c8565b95505060206200010f88828901620000c8565b94505060406200012288828901620000c8565b93505060606200013588828901620000b5565b92505060806200014888828901620000b5565b9150509295509295909350565b60006001600160a01b038216620000c2565b90565b620001758162000155565b81146200018157600080fd5b50565b620001758162000167565b613a2d806200019f6000396000f3fe60806040523480156200001157600080fd5b5060043610620002745760003560e01c80638e29be311162000159578063c3ead42811620000c9578063dfb494f01162000087578063dfb494f01462000552578063ebde2ec91462000569578063f25b3f991462000580578063f2e208e714620005a7578063ff27b18914620005be5762000274565b8063c3ead42814620004ec578063c77b1ed61462000503578063cf049cad146200051a578063d4a2b4ef1462000531578063d9aa4b24146200053b5762000274565b8063a8cabcd51162000117578063a8cabcd51462000493578063af079764146200049d578063baa4769414620004b4578063be5ac69814620004cb578063bf7e214f14620004e25762000274565b80638e29be31146200043a5780639ce265a61462000451578063a11dcc341462000468578063a239e5a21462000472578063a831fa0714620004895762000274565b806354fd4d5011620001f5578063788bc78c11620001b3578063788bc78c14620003c55780637f8523d114620003dc5780638701fc5d14620003f35780638c39622014620003fd5780638c64ea4a14620004235762000274565b806354fd4d5014620003505780635a102dae146200035a5780636a51fd63146200037157806372d72e38146200038857806377672b5e146200039f5762000274565b806338a9e0bc116200024357806338a9e0bc146200030057806345f20935146200030a5780634b0a72bc14620003235780634ca8714f146200033c5780634e0f743614620003465762000274565b80630d8e6e2c14620002795780630e71ee02146200029b578063296d542714620002b45780633701b5ca14620002da575b600080fd5b62000283620005c8565b60405162000292919062002bfc565b60405180910390f35b620002a562000663565b60405162000292919062002bbd565b620002cb620002c5366004620020f5565b6200066c565b60405162000292919062002e71565b620002f1620002eb3660046200201a565b62000711565b60405162000292919062002bec565b620002cb6200072c565b620003216200031b366004620020f5565b62000732565b005b6200032d62000830565b60405162000292919062002bad565b620002cb6200083f565b6200032162000845565b62000283620008c0565b620002a56200036b36600462001f9e565b62000952565b6200032162000382366004620020f5565b6200098f565b62000321620003993660046200203b565b62000af6565b620003b6620003b03660046200201a565b62000bc1565b60405162000292919062002e2b565b62000321620003d63660046200207a565b62000bdc565b620002cb620003ed36600462002194565b62000c2b565b620002cb62000e25565b620004146200040e3660046200201a565b62000e33565b60405162000292919062002ede565b6200032d620004343660046200201a565b62000e48565b620002a56200044b3660046200201a565b62000e63565b620003216200046236600462001fbf565b62000e80565b6200032162000fb9565b620002cb6200048336600462001f9e565b6200106f565b620002cb6200108a565b620002cb62001090565b6200032d620004ae3660046200201a565b62001096565b62000321620004c53660046200201a565b620010b1565b620002cb620004dc3660046200201a565b6200117f565b6200032d6200127c565b620002a5620004fd36600462001fbf565b62001290565b620002a562000514366004620020f5565b62001320565b620002f16200052b3660046200201a565b6200133c565b620002cb62001357565b620003216200054c3660046200212a565b6200135d565b620002cb6200056336600462001f9e565b6200183a565b620002a56200057a3660046200201a565b62001855565b62000597620005913660046200201a565b6200189b565b6040516200029292919062002bcd565b62000321620005b836600462002229565b620018b4565b6200032162001a6e565b60168054604080516020601f6002600019610100600188161502019095169490940493840181900481028201810190925282815260609390929091830182828015620006585780601f106200062c5761010080835404028352916020019162000658565b820191906000526020600020905b8154815290600101906020018083116200063a57829003601f168201915b505050505090505b90565b60125460ff1681565b6000806200067b848462001b05565b6000818152600c602090815260409182902054825163d6362e9760e01b815292519394506001600160a01b03169263d6362e97926004808201939291829003018186803b158015620006cc57600080fd5b505afa158015620006e1573d6000803e3d6000fd5b505050506040513d601f19601f82011682018060405250620007079190810190620020d4565b9150505b92915050565b600c602052600090815260409020546001600160a01b031681565b600f5481565b816200075b5760405162461bcd60e51b8152600401620007529062002e19565b60405180910390fd5b600062000769838362001b05565b9050620007768162001b3a565b15620007965760405162461bcd60e51b8152600401620007529062002c0f565b604051620007a49062001d61565b604051809103906000f080158015620007c1573d6000803e3d6000fd5b506000828152600c60205260409081902080546001600160a01b0319166001600160a01b039390931692909217909155517f0a925273fd754a41a580f8214815d5ae8a37367f561b3bd9d91a96730a418a179062000823908590859062002e81565b60405180910390a1505050565b6015546001600160a01b031690565b60105481565b33600090815260066020526040902054620008745760405162461bcd60e51b8152600401620007529062002cc3565b6200088760083363ffffffff62001b5716565b15620008a75760405162461bcd60e51b8152600401620007529062002c8d565b600e5460ff16620008b457fe5b600e805460ff19169055565b6016805460408051602060026001851615610100026000190190941693909304601f810184900484028201840190925281815292918301828280156200094a5780601f106200091e576101008083540402835291602001916200094a565b820191906000526020600020905b8154815290600101906020018083116200092c57829003601f168201915b505050505081565b6001600160a01b038116600090815260066020526040812054158015906200070b57506200098860088363ffffffff62001b5716565b1592915050565b6200099962000830565b336001600160a01b03821614620009c45760405162461bcd60e51b8152600401620007529062002d2f565b82620009e45760405162461bcd60e51b8152600401620007529062002cf9565b620009ef8262001b75565b62000a0e5760405162461bcd60e51b8152600401620007529062002dad565b6000838152602081905260409020546001600160a01b03161562000a465760405162461bcd60e51b8152600401620007529062002df5565b6001600160a01b0382166000908152600160205260409020541562000a7f5760405162461bcd60e51b8152600401620007529062002dbf565b60008381526020818152604080832080546001600160a01b0319166001600160a01b03871690811790915583526001909152902083905562000ac360028362001b7b565b7f7051aac27f9b76ec8f37bd5796f2dcf402bd840a1c45c952a6eeb0e11bde099683836040516200082392919062002e81565b3360009081526006602052604090205462000b255760405162461bcd60e51b8152600401620007529062002cc3565b62000b3860083363ffffffff62001b5716565b1562000b585760405162461bcd60e51b8152600401620007529062002c8d565b8162000b785760405162461bcd60e51b8152600401620007529062002cd5565b6000828152600d60205260409020546001600160a01b031662000bbd576000828152600d6020526040902080546001600160a01b0319166001600160a01b0383161790555b5050565b600d602052600090815260409020546001600160a01b031681565b62000be662000830565b336001600160a01b0382161462000c115760405162461bcd60e51b8152600401620007529062002d2f565b815162000c2690601690602085019062001d6f565b505050565b3360009081526006602052604081205462000c5a5760405162461bcd60e51b8152600401620007529062002cc3565b62000c6d60083363ffffffff62001b5716565b1562000c8d5760405162461bcd60e51b8152600401620007529062002c8d565b600062000c9b888862001b05565b905062000ca88162001b3a565b62000cc75760405162461bcd60e51b8152600401620007529062002c7b565b6000818152600c60205260408120546001600160a01b03169062000cfd8862000cf6368a90038a018a620020b3565b8862001c1e565b6040516390b5561d60e01b81529091506001600160a01b038316906390b5561d9062000d2e90849060040162002e71565b600060405180830381600087803b15801562000d4957600080fd5b505af115801562000d5e573d6000803e3d6000fd5b50505050600062000d71828c8c62001c53565b6000818152600b60205260409020549091506001600160a01b03161562000dac5760405162461bcd60e51b8152600401620007529062002c69565b6000818152600b60205260409081902080546001600160a01b0319166001600160a01b03898116919091179091559051908816907fe15a4f223f922b625f5fdd941101a23fa0c097e522233d47a7cbea2167e927019062000e0f90859062002e71565b60405180910390a2509998505050505050505050565b601154600f54601054030190565b60009081526007602052604090205460ff1690565b6000908152602081905260409020546001600160a01b031690565b6000908152600d60205260409020546001600160a01b0316151590565b3360009081526006602052604090205462000eaf5760405162461bcd60e51b8152600401620007529062002cc3565b62000ec260083363ffffffff62001b5716565b1562000ee25760405162461bcd60e51b8152600401620007529062002c8d565b60005b8281101562000fb357600084848381811062000efd57fe5b90506020020135141562000f255760405162461bcd60e51b8152600401620007529062002cd5565b600d600085858481811062000f3657fe5b60209081029290920135835250810191909152604001600020546001600160a01b031662000faa5781600d600086868581811062000f7057fe5b90506020020135815260200190815260200160002060006101000a8154816001600160a01b0302191690836001600160a01b031602179055505b60010162000ee5565b50505050565b600e5461010090046001600160a01b031633811462000fec5760405162461bcd60e51b8152600401620007529062002d2f565b60125460ff1615620010125760405162461bcd60e51b8152600401620007529062002d41565b60128054600160ff19909116179055600e546040517fb8421a1acb5f1e701a4f11ecaad76fa438b3947e8dfd6960b6086130e68e0aed9162001064916101009091046001600160a01b03169062002bad565b60405180910390a150565b6001600160a01b031660009081526006602052604090205490565b6103e881565b60115481565b6000908152600560205260409020546001600160a01b031690565b600e5461010090046001600160a01b0316338114620010e45760405162461bcd60e51b8152600401620007529062002d2f565b60125460ff1615156001146200110e5760405162461bcd60e51b8152600401620007529062002c57565b60108054604080518082018252858152426020808301918252600085815260139091528390209151825551600191820155600f5484540190935560119290925590517f5a978f4723b249ccf79cd7a658a8601ce1ff8b89fc770251a6be35216351ce32906200082390839062002e71565b33600090815260016020526040812054620011ae5760405162461bcd60e51b8152600401620007529062002d53565b620011c160023363ffffffff62001b5716565b15620011e15760405162461bcd60e51b8152600401620007529062002e07565b60125460ff1615156001146200120b5760405162461bcd60e51b8152600401620007529062002c57565b600f5460115410620012315760405162461bcd60e51b8152600401620007529062002de3565b60006200123d62000e25565b60408051808201825294855242602080870191825260008481526013909152919091209451855551600194850155601180549094019093555090919050565b600e5461010090046001600160a01b031681565b6000805b8381101562001313576000600d6000878785818110620012b057fe5b60209081029290920135835250810191909152604001600020546001600160a01b031690508015801590620012f75750836001600160a01b0316816001600160a01b031614155b15620013095760019250505062001319565b5060010162001294565b50600090505b9392505050565b6000806200132f848462001b05565b9050620007078162001b3a565b600b602052600090815260409020546001600160a01b031681565b60145481565b600e5460ff1615620013835760405162461bcd60e51b8152600401620007529062002d65565b600e805460ff1916600117905560006200139e858562001b05565b9050620013ab8162001b3a565b620013ca5760405162461bcd60e51b8152600401620007529062002d9b565b6000818152600c6020908152604080832054815163bda1504b60e01b815291516001600160a01b039091169392849263bda1504b9260048083019392829003018186803b1580156200141b57600080fd5b505afa15801562001430573d6000803e3d6000fd5b505050506040513d601f19601f82011682018060405250620014569190810190620020d4565b11620014765760405162461bcd60e51b8152600401620007529062002dd1565b6000816001600160a01b031663d6362e976040518163ffffffff1660e01b815260040160206040518083038186803b158015620014b257600080fd5b505afa158015620014c7573d6000803e3d6000fd5b505050506040513d601f19601f82011682018060405250620014ed9190810190620020d4565b90506000620014fc8262000660565b90506001600160a01b0386161580620015265750856001600160a01b0316816001600160a01b0316145b620015455760405162461bcd60e51b8152600401620007529062002ce7565b600062001554838a8a62001c53565b6000818152600b60205260408120549192506001600160a01b03909116905b8781108015620015965750426200158a8662001c8b565b67ffffffffffffffff16105b15620017d7576000838152600b6020908152604080832080546001600160a01b03191690558051632c1d5dab60e21b815290516001600160a01b038a169363b07576ac93600480850194919392918390030190829087803b158015620015fb57600080fd5b505af115801562001610573d6000803e3d6000fd5b505050506040513d601f19601f82011682018060405250620016369190810190620020d4565b50604051636849635160e01b81526001909101906001600160a01b038316906368496351906200166f9087908f908f9060040162002e3b565b600060405180830381600087803b1580156200168a57600080fd5b505af11580156200169f573d6000803e3d6000fd5b50505050856001600160a01b031663bda1504b6040518163ffffffff1660e01b815260040160206040518083038186803b158015620016dd57600080fd5b505afa158015620016f2573d6000803e3d6000fd5b505050506040513d601f19601f82011682018060405250620017189190810190620020d4565b6200172357620017d7565b856001600160a01b031663d6362e976040518163ffffffff1660e01b815260040160206040518083038186803b1580156200175d57600080fd5b505afa15801562001772573d6000803e3d6000fd5b505050506040513d601f19601f82011682018060405250620017989190810190620020d4565b9450620017a7858c8c62001c53565b9250620017b48562000660565b6000848152600b60205260409020549094506001600160a01b0316915062001573565b7f7e35599fe450e626673ce6c37179ef9820aed16f76c1b350618ef7a612d13005818c8c6040516200180c9392919062002ece565b60405180910390a15050600e5460ff1694506200182a935050505057fe5b5050600e805460ff191690555050565b6001600160a01b031660009081526001602052604090205490565b600081815260136020526040812060010154620018865760405162461bcd60e51b8152600401620007529062002c21565b600f5482816200189257fe5b06151592915050565b6013602052600090815260409020805460019091015482565b620018be62000830565b336001600160a01b03821614620018e95760405162461bcd60e51b8152600401620007529062002d2f565b83620019095760405162461bcd60e51b8152600401620007529062002d0b565b620019148362001b75565b620019335760405162461bcd60e51b8152600401620007529062002dad565b6000848152600560205260409020546001600160a01b0316156200196b5760405162461bcd60e51b8152600401620007529062002d77565b6001600160a01b03831660009081526006602052604090205415620019a45760405162461bcd60e51b8152600401620007529062002c33565b620019af8262001c91565b620019ce5760405162461bcd60e51b8152600401620007529062002c45565b600084815260056020908152604080832080546001600160a01b0319166001600160a01b03881690811790915583526006825280832087905586835260079091529020805460ff191660ff841617905562001a2b60088462001b7b565b7f0ceb02f7474c01f5959171cead2f5fb2a44d9c16fe480725a2110b601b19db8284848460405162001a609392919062002ea0565b60405180910390a150505050565b3360009081526006602052604090205462001a9d5760405162461bcd60e51b8152600401620007529062002cc3565b62001ab060083363ffffffff62001b5716565b1562001ad05760405162461bcd60e51b8152600401620007529062002c8d565b600e5460ff161562001af65760405162461bcd60e51b8152600401620007529062002d65565b600e805460ff19166001179055565b6000828260405160200162001b1c92919062002b46565b60405160208183030381529060405280519060200120905092915050565b6000908152600c60205260409020546001600160a01b0316151590565b6001600160a01b031660009081526020919091526040902054421090565b3b151590565b6001600160a01b03811662001ba45760405162461bcd60e51b8152600401620007529062002d1d565b6001600160a01b0381166000908152602083905260409020541562001bdd5760405162461bcd60e51b8152600401620007529062002c9f565b600282015462001c105760018201546001600160a01b038216600090815260208490526040902042909101905562000bbd565b506002018054600019019055565b6000816001600160a01b031660a062001c378562001cab565b901b60d68667ffffffffffffffff16901b171790509392505050565b600083838360405160200162001c6c9392919062002b70565b6040516020818303038152906040528051906020012090509392505050565b60d61c90565b600060ff8216600114806200070b57505060ff1660021490565b600061271062001cbb8362001cca565b8162001cc357fe5b0492915050565b6000600161271003826040015161ffff16111562001cfc5760405162461bcd60e51b8152600401620007529062002cb1565b81516429f16b11c667ffffffffffffffff909116111562001d315760405162461bcd60e51b8152600401620007529062002d89565b5060408101516020820151825167ffffffffffffffff16633b9aca000261ffff9182166127100201911601919050565b61099e806200304d83390190565b828054600181600116156101000203166002900490600052602060002090601f016020900481019282601f1062001db257805160ff191683800117855562001de2565b8280016001018555821562001de2579182015b8281111562001de257825182559160200191906001019062001dc5565b5062001df092915062001df4565b5090565b6200066091905b8082111562001df0576000815560010162001dfb565b80356200070b8162002ff0565b60008083601f84011262001e3157600080fd5b50813567ffffffffffffffff81111562001e4a57600080fd5b60208301915083602082028301111562001e6357600080fd5b9250929050565b80356200070b816200300a565b80356200070b8162003015565b600082601f83011262001e9657600080fd5b813562001ead62001ea78262002f16565b62002eee565b9150808252602083016020830185838301111562001eca57600080fd5b62001ed783828462002f91565b50505092915050565b60006060828403121562001ef357600080fd5b50919050565b60006060828403121562001f0c57600080fd5b62001f18606062002eee565b9050600062001f28848462001f84565b825250602062001f3b8484830162001f5d565b602083015250604062001f518482850162001f5d565b60408301525092915050565b80356200070b8162003020565b80356200070b816200302b565b80516200070b816200300a565b80356200070b8162003036565b80356200070b8162003041565b60006020828403121562001fb157600080fd5b600062000707848462001e11565b60008060006040848603121562001fd557600080fd5b833567ffffffffffffffff81111562001fed57600080fd5b62001ffb8682870162001e1e565b93509350506020620020108682870162001f6a565b9150509250925092565b6000602082840312156200202d57600080fd5b600062000707848462001e6a565b600080604083850312156200204f57600080fd5b60006200205d858562001e6a565b9250506020620020708582860162001f6a565b9150509250929050565b6000602082840312156200208d57600080fd5b813567ffffffffffffffff811115620020a557600080fd5b620007078482850162001e84565b600060608284031215620020c657600080fd5b600062000707848462001ef9565b600060208284031215620020e757600080fd5b600062000707848462001f77565b600080604083850312156200210957600080fd5b600062002117858562001e6a565b9250506020620020708582860162001e11565b600080600080608085870312156200214157600080fd5b60006200214f878762001e6a565b9450506020620021628782880162001e11565b9350506040620021758782880162001f6a565b9250506060620021888782880162001e6a565b91505092959194509250565b6000806000806000806101008789031215620021af57600080fd5b6000620021bd898962001e6a565b9650506020620021d089828a0162001e11565b9550506040620021e389828a0162001f84565b9450506060620021f689828a0162001ee0565b93505060c06200220989828a0162001f6a565b92505060e06200221c89828a0162001e77565b9150509295509295509295565b6000806000606084860312156200223f57600080fd5b60006200224d868662001e6a565b9350506020620022608682870162001e11565b9250506040620020108682870162001f91565b6200227e8162002f4c565b82525050565b6200227e620022938262002f4c565b62002fcc565b6200227e8162002f59565b6200227e8162000660565b6200227e8162002f5e565b6000620022c78262002f3f565b620022d3818562002f43565b9350620022e581856020860162002f9d565b620022f08162002fe0565b9093019392505050565b60006200230960118362002f43565b70457869742071756575652065786973747360781b815260200192915050565b60006200233860148362002f43565b73109b1bd8dac8191bd95cc81b9bdd08195e1a5cdd60621b815260200192915050565b60006200236a602c8362002f43565b7f54686520657869742067616d6520636f6e747261637420697320616c7265616481526b1e481c9959da5cdd195c995960a21b602082015260400192915050565b6000620023ba60168362002f43565b75496e76616c69642070726f746f636f6c2076616c756560501b815260200192915050565b6000620023ee603b8362002f43565b7f4368696c6420636861696e20686173206e6f74206265656e206163746976617481527f656420627920617574686f726974792061646472657373207965740000000000602082015260400192915050565b60006200244f60258362002f43565b7f5468652073616d65207072696f7269747920697320616c726561647920656e718152641d595d595960da1b602082015260400192915050565b60006200249860508362002f43565b7f54686520717565756520666f722074686520287661756c7449642c20746f6b6581527f6e292070616972206973206e6f742079657420616464656420746f207468652060208201526f506c61736d61206672616d65776f726b60801b604082015260600192915050565b60006200251260178362002f43565b7f4578697447616d652069732071756172616e74696e6564000000000000000000815260200192915050565b60006200254d60238362002f43565b7f54686520636f6e747261637420697320616c72656164792071756172616e74698152621b995960ea1b602082015260400192915050565b60006200259460148362002f43565b73092dcecc2d8d2c840deeae8e0eae840d2dcc8caf60631b815260200192915050565b6000620025c660348362002f43565b7f5468652063616c6c206973206e6f742066726f6d2061207265676973746572658152731908195e1a5d0819d85b594818dbdb9d1c9858dd60621b602082015260400192915050565b60006200261e60238362002f43565b7f53686f756c64206e6f7420666c6167207769746820656d707479206f757470758152621d125960ea1b602082015260400192915050565b600062002665603a8362002f43565b7f546f702065786974204944206f6620746865207175657565206973206469666681527f6572656e7420746f20746865206f6e6520737065636966696564000000000000602082015260400192915050565b6000620026c660238362002f43565b7f53686f756c64206e6f742072656769737465722077697468207661756c74204981526204420360ec1b602082015260400192915050565b60006200270d60228362002f43565b7f53686f756c64206e6f7420726567697374657220776974682074782074797065815261020360f41b602082015260400192915050565b60006200275360268362002f43565b7f416e20656d70747920616464726573732063616e6e6f742062652071756172618152651b9d1a5b995960d21b602082015260400192915050565b60006200279d601e8362002f43565b7f43616c6c6572206164647265737320697320756e617574686f72697a65640000815260200192915050565b6000620027d8601d8362002f43565b7f4368696c6420636861696e20616c726561647920616374697661746564000000815260200192915050565b60006200281360278362002f43565b7f5468652063616c6c206973206e6f742066726f6d20612072656769737465726581526619081d985d5b1d60ca1b602082015260400192915050565b60006200285e600e8362002f43565b6d1499595b9d1c985b9d0818d85b1b60921b815260200192915050565b60006200288a60218362002f43565b7f546865207478207479706520697320616c7265616479207265676973746572658152601960fa1b602082015260400192915050565b6000620028cf60148362002f43565b7324b73b30b634b210313637b1b590373ab6b132b960611b815260200192915050565b60006200290160328362002f43565b7f54686520746f6b656e206973206e6f742079657420616464656420746f2074688152716520506c61736d61206672616d65776f726b60701b602082015260400192915050565b600062002957602f8362002f43565b7f53686f756c64206e6f7420726567697374657220776974682061206e6f6e2d6381526e6f6e7472616374206164647265737360881b602082015260400192915050565b6000620029aa60288362002f43565b7f546865207661756c7420636f6e747261637420697320616c726561647920726581526719da5cdd195c995960c21b602082015260400192915050565b6000620029f660138362002f43565b724578697420717565756520697320656d70747960681b815260200192915050565b600062002a2760338362002f43565b7f4578636565646564206c696d6974206f66206465706f736974732070657220638152721a1a5b1908189b1bd8dac81a5b9d195c9d985b606a1b602082015260400192915050565b600062002a7e60228362002f43565b7f546865207661756c7420494420697320616c7265616479207265676973746572815261195960f21b602082015260400192915050565b600062002ac460148362002f43565b7315985d5b1d081a5cc81c5d585c985b9d1a5b995960621b815260200192915050565b600062002af660168362002f43565b7505661756c74204944206d757374206e6f7420626520360541b815260200192915050565b6200227e8162002f72565b6200227e62002b358262000660565b62000660565b6200227e8162002f8b565b600062002b54828562002b26565b60208201915062002b66828462002284565b5060140192915050565b600062002b7e828662002b26565b60208201915062002b90828562002b26565b60208201915062002ba2828462002284565b506014019392505050565b602081016200070b828462002273565b602081016200070b828462002299565b6040810162002bdd8285620022a4565b620013196020830184620022a4565b602081016200070b8284620022af565b60208082528101620013198184620022ba565b602080825281016200070b81620022fa565b602080825281016200070b8162002329565b602080825281016200070b816200235b565b602080825281016200070b81620023ab565b602080825281016200070b81620023df565b602080825281016200070b8162002440565b602080825281016200070b8162002489565b602080825281016200070b8162002503565b602080825281016200070b816200253e565b602080825281016200070b8162002585565b602080825281016200070b81620025b7565b602080825281016200070b816200260f565b602080825281016200070b8162002656565b602080825281016200070b81620026b7565b602080825281016200070b81620026fe565b602080825281016200070b8162002744565b602080825281016200070b816200278e565b602080825281016200070b81620027c9565b602080825281016200070b8162002804565b602080825281016200070b816200284f565b602080825281016200070b816200287b565b602080825281016200070b81620028c0565b602080825281016200070b81620028f2565b602080825281016200070b8162002948565b602080825281016200070b816200299b565b602080825281016200070b81620029e7565b602080825281016200070b8162002a18565b602080825281016200070b8162002a6f565b602080825281016200070b8162002ab5565b602080825281016200070b8162002ae7565b602081016200070b828462002b1b565b6060810162002e4b828662002b1b565b62002e5a6020830185620022a4565b62002e69604083018462002273565b949350505050565b602081016200070b8284620022a4565b6040810162002e918285620022a4565b62001319602083018462002273565b6060810162002eb08286620022a4565b62002ebf602083018562002273565b62002e69604083018462002b3b565b6060810162002e4b8286620022a4565b602081016200070b828462002b3b565b60405181810167ffffffffffffffff8111828210171562002f0e57600080fd5b604052919050565b600067ffffffffffffffff82111562002f2e57600080fd5b506020601f91909101601f19160190565b5190565b90815260200190565b60006200070b8262002f72565b151590565b60006200070b8262002f4c565b61ffff1690565b6001600160a01b031690565b67ffffffffffffffff1690565b60ff1690565b82818337506000910152565b60005b8381101562002fba57818101518382015260200162002fa0565b8381111562000fb35750506000910152565b60006200070b8260006200070b8262002fea565b601f01601f191690565b60601b90565b62002ffb8162002f4c565b81146200300757600080fd5b50565b62002ffb8162000660565b62002ffb8162002f5e565b62002ffb8162002f6b565b62002ffb8162002f72565b62002ffb8162002f7e565b62002ffb8162002f8b56fe608060405234801561001057600080fd5b506040805160208101909152600080825261002c916001610049565b506000600155600280546001600160a01b031916331790556100b6565b828054828255906000526020600020908101928215610089579160200282015b82811115610089578251829060ff16905591602001919060010190610069565b50610095929150610099565b5090565b6100b391905b80821115610095576000815560010161009f565b90565b6108d9806100c56000396000f3fe608060405234801561001057600080fd5b506004361061007d5760003560e01c8063bda1504b1161005b578063bda1504b14610113578063d6362e971461011b578063e10d29ee14610123578063e9de55531461012b5761007d565b8063446b2f881461008257806390b5561d146100da578063b07576ac146100f9575b600080fd5b61008a61014f565b60408051602080825283518183015283519192839290830191858101910280838360005b838110156100c65781810151838201526020016100ae565b505050509050019250505060405180910390f35b6100f7600480360360208110156100f057600080fd5b50356101aa565b005b610101610263565b60408051918252519081900360200190f35b6101016103c5565b6101016103cb565b610101610432565b610133610438565b604080516001600160a01b039092168252519081900360200190f35b60606000800180548060200260200160405190810160405280929190818152602001828054801561019f57602002820191906000526020600020905b81548152602001906001019080831161018b575b505050505090505b90565b6002546001600160a01b031633811461020a576040805162461bcd60e51b815260206004820152601e60248201527f43616c6c6572206164647265737320697320756e617574686f72697a65640000604482015290519081900360640190fd5b60008054600181810183559180527f290decd9548b62a8d60345a988386fc84ba6bc95484008f6362f93160ef3e56301839055805461024e9163ffffffff61044716565b600181905561025f906000906104aa565b5050565b6002546000906001600160a01b03163381146102c6576040805162461bcd60e51b815260206004820152601e60248201527f43616c6c6572206164647265737320697320756e617574686f72697a65640000604482015290519081900360640190fd5b60015461030b576040805162461bcd60e51b815260206004820152600e60248201526d517565756520697320656d70747960901b604482015290519081900360640190fd5b60008060000160018154811061031d57fe5b6000918252602082200154600154825491935090811061033957fe5b90600052602060002001546000800160018154811061035457fe5b60009182526020822001919091556001548154811061036f57fe5b60009182526020822001556001805461038d9163ffffffff61058016565b600190815561039e906000906105dd565b6000546103b290600163ffffffff61058016565b6103bd600082610840565b5091505b5090565b60015490565b600154600090610413576040805162461bcd60e51b815260206004820152600e60248201526d517565756520697320656d70747960901b604482015290519081900360640190fd5b60008054600190811061042257fe5b9060005260206000200154905090565b60015481565b6002546001600160a01b031681565b6000828201838110156104a1576040805162461bcd60e51b815260206004820152601b60248201527f536166654d6174683a206164646974696f6e206f766572666c6f770000000000604482015290519081900360640190fd5b90505b92915050565b8154819081906000908590839081106104bf57fe5b906000526020600020015490505b846104df84600263ffffffff6106b416565b815481106104e957fe5b9060005260206000200154811015610555578461050d84600263ffffffff6106b416565b8154811061051757fe5b906000526020600020015485600001848154811061053157fe5b60009182526020909120015561054e83600263ffffffff6106b416565b92506104cd565b818314610579578085600001848154811061056c57fe5b6000918252602090912001555b5050505050565b6000828211156105d7576040805162461bcd60e51b815260206004820152601e60248201527f536166654d6174683a207375627472616374696f6e206f766572666c6f770000604482015290519081900360640190fd5b50900390565b8154819081906000908590839081106105f257fe5b90600052602060002001549050600061060b868561071e565b90505b8560010154811115801561063a575085600001818154811061062c57fe5b906000526020600020015482115b156106885785600001818154811061064e57fe5b906000526020600020015486600001858154811061066857fe5b600091825260209091200155925082610681868261071e565b905061060e565b8284146106ac578186600001858154811061069f57fe5b6000918252602090912001555b505050505050565b600080821161070a576040805162461bcd60e51b815260206004820152601a60248201527f536166654d6174683a206469766973696f6e206279207a65726f000000000000604482015290519081900360640190fd5b600082848161071557fe5b04949350505050565b6001808301546000916107489061073c85600263ffffffff6107e716565b9063ffffffff61044716565b11156107665761075f82600263ffffffff6107e716565b90506104a4565b8261077d600161073c85600263ffffffff6107e716565b8154811061078757fe5b600091825260209091200154836107a584600263ffffffff6107e716565b815481106107af57fe5b906000526020600020015410156107d15761075f82600263ffffffff6107e716565b61075f600161073c84600263ffffffff6107e716565b6000826107f6575060006104a4565b8282028284828161080357fe5b04146104a15760405162461bcd60e51b81526004018080602001828103825260218152602001806108846021913960400191505060405180910390fd5b81548183558181111561086457600083815260209020610864918101908301610869565b505050565b6101a791905b808211156103c1576000815560010161086f56fe536166654d6174683a206d756c7469706c69636174696f6e206f766572666c6f77a265627a7a7231582000c2a197da5a1f7f2d4f2ae081774fd5cd7f91e47e9f9ed0e75c94a291ab1a8864736f6c634300050b0032a365627a7a72315820bfb6405005b48a9f14f54e6b28784297abbb9961ec688f61cd098beb71a4ac2b6c6578706572696d656e74616cf564736f6c634300050b0040",
  "source": "pragma solidity 0.5.11;\npragma experimental ABIEncoderV2;\n\nimport \"./BlockController.sol\";\nimport \"./ExitGameController.sol\";\nimport \"./registries/VaultRegistry.sol\";\nimport \"./registries/ExitGameRegistry.sol\";\n\ncontract PlasmaFramework is VaultRegistry, ExitGameRegistry, ExitGameController, BlockController {\n    uint256 public constant CHILD_BLOCK_INTERVAL = 1000;\n\n    /**\n     * The minimum finalization period is the Plasma guarantee that all exits are safe provided the user takes action within the specified time period\n     * When the child chain is rogue, user should start their exit and challenge any invalid exit within this period\n     * An exit can be processed/finalized after minimum two finalization periods from its inclusion position, unless it is an exit for a deposit,\n     * which would use one finalization period, instead of two\n     *\n     * For the Abstract Layer Design, OmiseGO also uses some multitude of this period to update its framework\n     * See also ExitGameRegistry.sol, VaultRegistry.sol, and Vault.sol for more information on the update waiting time (the quarantined period)\n     *\n     * MVP: https://ethresear.ch/t/minimal-viable-plasma/426\n     * MoreVP: https://github.com/omisego/elixir-omg/blob/master/docs/morevp.md#timeline\n     * Special period for deposit: https://git.io/JecCV\n     */\n    uint256 public minExitPeriod;\n    address private maintainer;\n    string public version;\n\n    constructor(\n        uint256 _minExitPeriod,\n        uint256 _initialImmuneVaults,\n        uint256 _initialImmuneExitGames,\n        address _authority,\n        address _maintainer\n    )\n        public\n        BlockController(CHILD_BLOCK_INTERVAL, _minExitPeriod, _initialImmuneVaults, _authority)\n        ExitGameController(_minExitPeriod, _initialImmuneExitGames)\n    {\n        minExitPeriod = _minExitPeriod;\n        maintainer = _maintainer;\n    }\n\n    function getMaintainer() public view returns (address) {\n        return maintainer;\n    }\n\n    /**\n     * @notice Gets the semantic version of the current deployed contracts\n    */\n    function getVersion() external view returns (string memory) {\n        return version;\n    }\n    \n    /**\n     * @notice Sets the semantic version of the current deployed contracts\n     * @param _version is semver string\n     */\n    function setVersion(string memory _version) public onlyFrom(getMaintainer()) {\n        version = _version;\n    }\n}",
  "sourcePath": "/home/node/plasma-contracts/plasma_framework/contracts/src/framework/PlasmaFramework.sol",
  "compiler": {
    "name": "solc",
    "version": "0.5.11+commit.c082d0b4.Emscripten.clang"
  },
  "schemaVersion": "3.0.16",
  "updatedAt": "2020-04-07T14:09:55.639Z",
  "devdoc": {
    "methods": {
      "activateChildChain()": {
        "details": "This is a preserved action for authority account to start its nonce with 1.     Child chain rely ethereum nonce to protect re-org: https://git.io/JecDG     see discussion: https://git.io/JenaT, https://git.io/JecDO"
      },
      "activateNonReentrant()": {
        "details": "Accessible only from non quarantined exit games, uses a mutex"
      },
      "addExitQueue(uint256,address)": {
        "details": "The queue is created as a new contract instance",
        "params": {
          "token": "Address of the token",
          "vaultId": "ID of the vault"
        }
      },
      "batchFlagOutputsFinalized(bytes32[],uint160)": {
        "params": {
          "outputIds": "Output IDs to flag"
        }
      },
      "deactivateNonReentrant()": {
        "details": "Accessible only from non quarantined exit games, uses a mutex"
      },
      "enqueue(uint256,address,uint64,(uint64,uint16,uint16),uint160,address)": {
        "details": "emits ExitQueued event, which can be used to back trace the priority inside the queueCaller of this function should add \"pragma experimental ABIEncoderV2;\" on top of filePriority (exitableAt, txPos, exitId) must be unique per queue. Do not enqueue when the same priority is already in the queue.",
        "params": {
          "exitId": "ID used by the exit processor contract to determine how to process the exit",
          "exitProcessor": "The exit processor contract, called during \"processExits\"",
          "exitableAt": "The earliest time a specified exit can be processed",
          "token": "Token for the exit",
          "txPos": "Transaction position for the exit priority. For SE it should be the exit tx, for IFE it should be the youngest input tx position.",
          "vaultId": "Vault ID of the vault that stores exiting funds"
        },
        "return": "A unique priority number computed for the exit"
      },
      "flagOutputFinalized(bytes32,uint160)": {
        "params": {
          "outputId": "The output ID to flag as spent"
        }
      },
      "hasExitQueue(uint256,address)": {
        "params": {
          "token": "Address of the token",
          "vaultId": "ID of the vault that handles the token"
        },
        "return": "bool Defines whether the queue for a token was created"
      },
      "isAnyInputFinalizedByOtherExit(bytes32[],uint160)": {
        "params": {
          "_outputIds": "Output IDs to check"
        }
      },
      "isExitGameSafeToUse(address)": {
        "details": "Exposes information about exit games quarantine",
        "params": {
          "_contract": "Address of the exit game contract"
        },
        "return": "boolean Whether the contract is safe to use and is not under quarantine"
      },
      "isOutputFinalized(bytes32)": {
        "params": {
          "outputId": "Output ID to check"
        }
      },
      "processExits(uint256,address,uint160,uint256)": {
        "details": "Emits ProcessedExitsNum event",
        "params": {
          "maxExitsToProcess": "Maximum number of exits to process",
          "token": "The token type to process",
          "topExitId": "Unique identifier for prioritizing the first exit to process. Set to zero to skip this check.",
          "vaultId": "Vault ID of the vault that stores exiting funds"
        },
        "return": "Total number of processed exits"
      },
      "registerExitGame(uint256,address,uint8)": {
        "details": "Emits ExitGameRegistered event to notify clients",
        "params": {
          "_contract": "Address of the exit game contract",
          "_protocol": "The transaction protocol, either 1 for MVP or 2 for MoreVP",
          "_txType": "The tx type where the exit game wants to register"
        }
      },
      "registerVault(uint256,address)": {
        "details": "emits VaultRegistered event to notify clients",
        "params": {
          "_vaultAddress": "Address of the vault contract",
          "_vaultId": "The ID for the vault contract to register"
        }
      },
      "setVersion(string)": {
        "params": {
          "_version": "is semver string"
        }
      },
      "submitBlock(bytes32)": {
        "details": "emit BlockSubmitted eventBlock number jumps 'childBlockInterval' per submissionSee discussion in https://github.com/omisego/plasma-contracts/issues/233",
        "params": {
          "_blockRoot": "Merkle root of the Plasma block"
        }
      },
      "submitDepositBlock(bytes32)": {
        "details": "Block number adds 1 per submission; it's possible to have at most 'childBlockInterval' deposit blocks between two child chain blocks",
        "params": {
          "_blockRoot": "Merkle root of the Plasma block"
        },
        "return": "The deposit block number"
      }
    }
  },
  "userdoc": {
    "methods": {
      "activateChildChain()": {
        "notice": "Activates the child chain so that child chain can start to submit child blocks to root chainCan only be called once by the authority.Sets isChildChainActivated to true and emits the ChildChainActivated event."
      },
      "activateNonReentrant()": {
        "notice": "Activates non reentrancy mode        Guards against reentering into publicly accessible code that modifies state related to exits"
      },
      "addExitQueue(uint256,address)": {
        "notice": "Adds queue to the Plasma framework"
      },
      "batchFlagOutputsFinalized(bytes32[],uint160)": {
        "notice": "Batch flags already spent outputs (only not already spent)"
      },
      "deactivateNonReentrant()": {
        "notice": "Deactivates non reentrancy mode"
      },
      "enqueue(uint256,address,uint64,(uint64,uint16,uint16),uint160,address)": {
        "notice": "Enqueue exits from exit game contracts is a function that places the exit into the        priority queue to enforce the priority of exit during 'processExits'"
      },
      "exitGameToTxType(address)": {
        "notice": "Public getter for retrieving tx type with exit game address"
      },
      "exitGames(uint256)": {
        "notice": "Public getter for retrieving exit game address with tx type"
      },
      "flagOutputFinalized(bytes32,uint160)": {
        "notice": "Flags a single output as spent if it is not flagged already"
      },
      "getVersion()": {
        "notice": "Gets the semantic version of the current deployed contracts"
      },
      "hasExitQueue(uint256,address)": {
        "notice": "Checks if the queue for a specified token was created"
      },
      "isAnyInputFinalizedByOtherExit(bytes32[],uint160)": {
        "notice": "Checks whether any of the output with the given outputIds is already spent"
      },
      "isExitGameSafeToUse(address)": {
        "notice": "Checks whether the contract is safe to use and is not under quarantine"
      },
      "isOutputFinalized(bytes32)": {
        "notice": "Checks whether output with a given outputId is finalized"
      },
      "processExits(uint256,address,uint160,uint256)": {
        "notice": "Processes any exits that have completed the challenge period. Exits are processed according to the exit priority."
      },
      "protocols(uint256)": {
        "notice": "Public getter for retrieving protocol with tx type"
      },
      "registerExitGame(uint256,address,uint8)": {
        "notice": "Registers an exit game within the PlasmaFramework. Only the maintainer can call the function."
      },
      "registerVault(uint256,address)": {
        "notice": "Register a vault within the PlasmaFramework. Only a maintainer can make the call."
      },
      "setVersion(string)": {
        "notice": "Sets the semantic version of the current deployed contracts"
      },
      "submitBlock(bytes32)": {
        "notice": "Allows the authority to submit the Merkle root of a Plasma block"
      },
      "submitDepositBlock(bytes32)": {
        "notice": "Submits a block for deposit"
      },
      "vaultToId(address)": {
        "notice": "Public getter for retrieving vault ID with vault address"
      },
      "vaults(uint256)": {
        "notice": "Public getter for retrieving vault address with vault ID"
      }
    }
  }
}