{
  "contractName": "PosLibWrapper",
  "abi": [
    {
      "constant": true,
      "inputs": [
        {
          "components": [
            {
              "internalType": "uint64",
              "name": "blockNum",
              "type": "uint64"
            },
            {
              "internalType": "uint16",
              "name": "txIndex",
              "type": "uint16"
            },
            {
              "internalType": "uint16",
              "name": "outputIndex",
              "type": "uint16"
            }
          ],
          "internalType": "struct PosLib.Position",
          "name": "pos",
          "type": "tuple"
        }
      ],
      "name": "toStrictTxPos",
      "outputs": [
        {
          "components": [
            {
              "internalType": "uint64",
              "name": "blockNum",
              "type": "uint64"
            },
            {
              "internalType": "uint16",
              "name": "txIndex",
              "type": "uint16"
            },
            {
              "internalType": "uint16",
              "name": "outputIndex",
              "type": "uint16"
            }
          ],
          "internalType": "struct PosLib.Position",
          "name": "",
          "type": "tuple"
        }
      ],
      "payable": false,
      "stateMutability": "pure",
      "type": "function"
    },
    {
      "constant": true,
      "inputs": [
        {
          "components": [
            {
              "internalType": "uint64",
              "name": "blockNum",
              "type": "uint64"
            },
            {
              "internalType": "uint16",
              "name": "txIndex",
              "type": "uint16"
            },
            {
              "internalType": "uint16",
              "name": "outputIndex",
              "type": "uint16"
            }
          ],
          "internalType": "struct PosLib.Position",
          "name": "pos",
          "type": "tuple"
        }
      ],
      "name": "getTxPositionForExitPriority",
      "outputs": [
        {
          "internalType": "uint256",
          "name": "",
          "type": "uint256"
        }
      ],
      "payable": false,
      "stateMutability": "pure",
      "type": "function"
    },
    {
      "constant": true,
      "inputs": [
        {
          "components": [
            {
              "internalType": "uint64",
              "name": "blockNum",
              "type": "uint64"
            },
            {
              "internalType": "uint16",
              "name": "txIndex",
              "type": "uint16"
            },
            {
              "internalType": "uint16",
              "name": "outputIndex",
              "type": "uint16"
            }
          ],
          "internalType": "struct PosLib.Position",
          "name": "pos",
          "type": "tuple"
        }
      ],
      "name": "encode",
      "outputs": [
        {
          "internalType": "uint256",
          "name": "",
          "type": "uint256"
        }
      ],
      "payable": false,
      "stateMutability": "pure",
      "type": "function"
    },
    {
      "constant": true,
      "inputs": [
        {
          "internalType": "uint256",
          "name": "pos",
          "type": "uint256"
        }
      ],
      "name": "decode",
      "outputs": [
        {
          "components": [
            {
              "internalType": "uint64",
              "name": "blockNum",
              "type": "uint64"
            },
            {
              "internalType": "uint16",
              "name": "txIndex",
              "type": "uint16"
            },
            {
              "internalType": "uint16",
              "name": "outputIndex",
              "type": "uint16"
            }
          ],
          "internalType": "struct PosLib.Position",
          "name": "",
          "type": "tuple"
        }
      ],
      "payable": false,
      "stateMutability": "pure",
      "type": "function"
    }
  ],
  "bytecode": "0x608060405234801561001057600080fd5b506105ca806100206000396000f3fe608060405234801561001057600080fd5b506004361061004c5760003560e01c8063246ed3f11461005157806352a5e3c21461007a57806361a769001461009a57806372c57e73146100ad575b600080fd5b61006461005f36600461031f565b6100c0565b60405161007191906104fb565b60405180910390f35b61008d61008836600461031f565b6100d7565b6040516100719190610509565b6100646100a8366004610345565b6100e2565b61008d6100bb36600461031f565b6100f3565b6100c8610283565b6100d1826100fe565b92915050565b60006100d182610139565b6100ea610283565b6100d182610155565b60006100d1826101f2565b610106610283565b5060408051606081018252825167ffffffffffffffff16815260209283015161ffff169281019290925260009082015290565b6000612710610147836101f2565b8161014e57fe5b0492915050565b61015d610283565b633b9aca00808304906127109084068190049084066429f16b11c68311156101a05760405162461bcd60e51b8152600401610197906104bb565b60405180910390fd5b61ffff8211156101c25760405162461bcd60e51b8152600401610197906104cb565b6040805160608101825267ffffffffffffffff909416845261ffff92831660208501529116908201529050919050565b6000600161271003826040015161ffff1611156102215760405162461bcd60e51b8152600401610197906104db565b81516429f16b11c667ffffffffffffffff90911611156102535760405162461bcd60e51b8152600401610197906104eb565b5060408101516020820151825167ffffffffffffffff16633b9aca000261ffff9182166127100201911601919050565b604080516060810182526000808252602082018190529181019190915290565b6000606082840312156102b557600080fd5b6102bf6060610517565b905060006102cd8484610314565b82525060206102de848483016102fe565b60208301525060406102f2848285016102fe565b60408301525092915050565b80356100d18161055e565b80356100d181610575565b80356100d18161057e565b60006060828403121561033157600080fd5b600061033d84846102a3565b949350505050565b60006020828403121561035757600080fd5b600061033d8484610309565b600061037060348361053e565b7f626c6f636b4e756d2065786365656473206d61782073697a6520616c6c6f77658152736420696e20506c61736d614672616d65776f726b60601b602082015260400192915050565b60006103c660228361053e565b7f7478496e6465782065786365656473207468652073697a65206f662075696e74815261189b60f11b602082015260400192915050565b600061040a60148361053e565b73092dcecc2d8d2c840deeae8e0eae840d2dcc8caf60631b815260200192915050565b600061043a60148361053e565b7324b73b30b634b210313637b1b590373ab6b132b960611b815260200192915050565b8051606083019061046e84826104b2565b506020820151610481602085018261049a565b506040820151610494604085018261049a565b50505050565b6104a381610547565b82525050565b6104a38161054e565b6104a381610551565b602080825281016100d181610363565b602080825281016100d1816103b9565b602080825281016100d1816103fd565b602080825281016100d18161042d565b606081016100d1828461045d565b602081016100d182846104a9565b60405181810167ffffffffffffffff8111828210171561053657600080fd5b604052919050565b90815260200190565b61ffff1690565b90565b67ffffffffffffffff1690565b61056781610547565b811461057257600080fd5b50565b6105678161054e565b6105678161055156fea365627a7a72315820c1b997403f1a822e1da173bf735eaf40a0847d40d297f1971f1149948de33ccc6c6578706572696d656e74616cf564736f6c634300050b0040",
  "source": "pragma solidity 0.5.11;\npragma experimental ABIEncoderV2;\n\nimport \"../../src/utils/PosLib.sol\";\n\ncontract PosLibWrapper {\n    using PosLib for PosLib.Position;\n\n    function toStrictTxPos(PosLib.Position memory pos)\n        public\n        pure\n        returns (PosLib.Position memory)\n    {\n        return pos.toStrictTxPos();\n    }\n\n    function getTxPositionForExitPriority(PosLib.Position memory pos)\n        public\n        pure\n        returns (uint256)\n    {\n        return pos.getTxPositionForExitPriority();\n    }\n\n    function encode(PosLib.Position memory pos) public pure returns (uint256) {\n        return pos.encode();\n    }\n\n    function decode(uint256 pos) public pure returns (PosLib.Position memory) {\n        return PosLib.decode(pos);\n    }\n}\n",
  "sourcePath": "/home/node/plasma-contracts/plasma_framework/contracts/mocks/utils/PosLibWrapper.sol",
  "compiler": {
    "name": "solc",
    "version": "0.5.11+commit.c082d0b4.Emscripten.clang"
  },
  "schemaVersion": "3.0.16",
  "updatedAt": "2020-04-07T14:07:49.617Z",
  "devdoc": {
    "methods": {}
  },
  "userdoc": {
    "methods": {}
  }
}