{
  "contractName": "PriorityQueue",
  "abi": [
    {
      "constant": true,
      "inputs": [],
      "name": "queue",
      "outputs": [
        {
          "internalType": "uint256",
          "name": "currentSize",
          "type": "uint256"
        }
      ],
      "payable": false,
      "stateMutability": "view",
      "type": "function"
    },
    {
      "constant": true,
      "inputs": [],
      "name": "framework",
      "outputs": [
        {
          "internalType": "address",
          "name": "",
          "type": "address"
        }
      ],
      "payable": false,
      "stateMutability": "view",
      "type": "function"
    },
    {
      "inputs": [],
      "payable": false,
      "stateMutability": "nonpayable",
      "type": "constructor"
    },
    {
      "constant": true,
      "inputs": [],
      "name": "currentSize",
      "outputs": [
        {
          "internalType": "uint256",
          "name": "",
          "type": "uint256"
        }
      ],
      "payable": false,
      "stateMutability": "view",
      "type": "function"
    },
    {
      "constant": true,
      "inputs": [],
      "name": "heapList",
      "outputs": [
        {
          "internalType": "uint256[]",
          "name": "",
          "type": "uint256[]"
        }
      ],
      "payable": false,
      "stateMutability": "view",
      "type": "function"
    },
    {
      "constant": false,
      "inputs": [
        {
          "internalType": "uint256",
          "name": "_element",
          "type": "uint256"
        }
      ],
      "name": "insert",
      "outputs": [],
      "payable": false,
      "stateMutability": "nonpayable",
      "type": "function"
    },
    {
      "constant": false,
      "inputs": [],
      "name": "delMin",
      "outputs": [
        {
          "internalType": "uint256",
          "name": "",
          "type": "uint256"
        }
      ],
      "payable": false,
      "stateMutability": "nonpayable",
      "type": "function"
    },
    {
      "constant": true,
      "inputs": [],
      "name": "getMin",
      "outputs": [
        {
          "internalType": "uint256",
          "name": "",
          "type": "uint256"
        }
      ],
      "payable": false,
      "stateMutability": "view",
      "type": "function"
    }
  ],
  "bytecode": "0x608060405234801561001057600080fd5b506040805160208101909152600080825261002c916001610049565b506000600155600280546001600160a01b031916331790556100b6565b828054828255906000526020600020908101928215610089579160200282015b82811115610089578251829060ff16905591602001919060010190610069565b50610095929150610099565b5090565b6100b391905b80821115610095576000815560010161009f565b90565b6108d9806100c56000396000f3fe608060405234801561001057600080fd5b506004361061007d5760003560e01c8063bda1504b1161005b578063bda1504b14610113578063d6362e971461011b578063e10d29ee14610123578063e9de55531461012b5761007d565b8063446b2f881461008257806390b5561d146100da578063b07576ac146100f9575b600080fd5b61008a61014f565b60408051602080825283518183015283519192839290830191858101910280838360005b838110156100c65781810151838201526020016100ae565b505050509050019250505060405180910390f35b6100f7600480360360208110156100f057600080fd5b50356101aa565b005b610101610263565b60408051918252519081900360200190f35b6101016103c5565b6101016103cb565b610101610432565b610133610438565b604080516001600160a01b039092168252519081900360200190f35b60606000800180548060200260200160405190810160405280929190818152602001828054801561019f57602002820191906000526020600020905b81548152602001906001019080831161018b575b505050505090505b90565b6002546001600160a01b031633811461020a576040805162461bcd60e51b815260206004820152601e60248201527f43616c6c6572206164647265737320697320756e617574686f72697a65640000604482015290519081900360640190fd5b60008054600181810183559180527f290decd9548b62a8d60345a988386fc84ba6bc95484008f6362f93160ef3e56301839055805461024e9163ffffffff61044716565b600181905561025f906000906104aa565b5050565b6002546000906001600160a01b03163381146102c6576040805162461bcd60e51b815260206004820152601e60248201527f43616c6c6572206164647265737320697320756e617574686f72697a65640000604482015290519081900360640190fd5b60015461030b576040805162461bcd60e51b815260206004820152600e60248201526d517565756520697320656d70747960901b604482015290519081900360640190fd5b60008060000160018154811061031d57fe5b6000918252602082200154600154825491935090811061033957fe5b90600052602060002001546000800160018154811061035457fe5b60009182526020822001919091556001548154811061036f57fe5b60009182526020822001556001805461038d9163ffffffff61058016565b600190815561039e906000906105dd565b6000546103b290600163ffffffff61058016565b6103bd600082610840565b5091505b5090565b60015490565b600154600090610413576040805162461bcd60e51b815260206004820152600e60248201526d517565756520697320656d70747960901b604482015290519081900360640190fd5b60008054600190811061042257fe5b9060005260206000200154905090565b60015481565b6002546001600160a01b031681565b6000828201838110156104a1576040805162461bcd60e51b815260206004820152601b60248201527f536166654d6174683a206164646974696f6e206f766572666c6f770000000000604482015290519081900360640190fd5b90505b92915050565b8154819081906000908590839081106104bf57fe5b906000526020600020015490505b846104df84600263ffffffff6106b416565b815481106104e957fe5b9060005260206000200154811015610555578461050d84600263ffffffff6106b416565b8154811061051757fe5b906000526020600020015485600001848154811061053157fe5b60009182526020909120015561054e83600263ffffffff6106b416565b92506104cd565b818314610579578085600001848154811061056c57fe5b6000918252602090912001555b5050505050565b6000828211156105d7576040805162461bcd60e51b815260206004820152601e60248201527f536166654d6174683a207375627472616374696f6e206f766572666c6f770000604482015290519081900360640190fd5b50900390565b8154819081906000908590839081106105f257fe5b90600052602060002001549050600061060b868561071e565b90505b8560010154811115801561063a575085600001818154811061062c57fe5b906000526020600020015482115b156106885785600001818154811061064e57fe5b906000526020600020015486600001858154811061066857fe5b600091825260209091200155925082610681868261071e565b905061060e565b8284146106ac578186600001858154811061069f57fe5b6000918252602090912001555b505050505050565b600080821161070a576040805162461bcd60e51b815260206004820152601a60248201527f536166654d6174683a206469766973696f6e206279207a65726f000000000000604482015290519081900360640190fd5b600082848161071557fe5b04949350505050565b6001808301546000916107489061073c85600263ffffffff6107e716565b9063ffffffff61044716565b11156107665761075f82600263ffffffff6107e716565b90506104a4565b8261077d600161073c85600263ffffffff6107e716565b8154811061078757fe5b600091825260209091200154836107a584600263ffffffff6107e716565b815481106107af57fe5b906000526020600020015410156107d15761075f82600263ffffffff6107e716565b61075f600161073c84600263ffffffff6107e716565b6000826107f6575060006104a4565b8282028284828161080357fe5b04146104a15760405162461bcd60e51b81526004018080602001828103825260218152602001806108846021913960400191505060405180910390fd5b81548183558181111561086457600083815260209020610864918101908301610869565b505050565b6101a791905b808211156103c1576000815560010161086f56fe536166654d6174683a206d756c7469706c69636174696f6e206f766572666c6f77a265627a7a7231582000c2a197da5a1f7f2d4f2ae081774fd5cd7f91e47e9f9ed0e75c94a291ab1a8864736f6c634300050b0032",
  "source": "pragma solidity 0.5.11;\n\nimport \"../../utils/OnlyFromAddress.sol\";\n\nimport \"openzeppelin-solidity/contracts/math/SafeMath.sol\";\n\n/**\n * @title PriorityQueue\n * @dev Min-heap priority queue implementation\n */\ncontract PriorityQueue is OnlyFromAddress {\n    using SafeMath for uint256;\n\n    struct Queue {\n        uint256[] heapList;\n        uint256 currentSize;\n    }\n\n    Queue public queue;\n    address public framework;\n\n    constructor() public {\n        queue.heapList = [0];\n        queue.currentSize = 0;\n\n        // it is expected that this should be called by PlasmaFramework\n        // and only PlasmaFramework contract can add things to the queue\n        framework = msg.sender;\n    }\n\n    /**\n     * @notice Gets num of elements in the queue\n     */\n    function currentSize() external view returns (uint256) {\n        return queue.currentSize;\n    }\n\n    /**\n     * @notice Gets all elements in the queue\n     */\n    function heapList() external view returns (uint256[] memory) {\n        return queue.heapList;\n    }\n\n    /**\n     * @notice Inserts an element into the queue by the framework\n     * @dev Does not perform deduplication\n     */\n    function insert(uint256 _element) external onlyFrom(framework) {\n        queue.heapList.push(_element);\n        queue.currentSize = queue.currentSize.add(1);\n        percUp(queue, queue.currentSize);\n    }\n\n    /**\n     * @notice Deletes the smallest element from the queue by the framework\n     * @dev Fails when queue is empty\n     * @return The smallest element in the priority queue\n     */\n    function delMin() external onlyFrom(framework) returns (uint256) {\n        require(queue.currentSize > 0, \"Queue is empty\");\n        uint256 retVal = queue.heapList[1];\n        queue.heapList[1] = queue.heapList[queue.currentSize];\n        delete queue.heapList[queue.currentSize];\n        queue.currentSize = queue.currentSize.sub(1);\n        percDown(queue, 1);\n        queue.heapList.length = queue.heapList.length.sub(1);\n        return retVal;\n    }\n\n    /**\n     * @notice Returns the smallest element from the queue\n     * @dev Fails when queue is empty\n     * @return The smallest element in the priority queue\n     */\n    function getMin() external view returns (uint256) {\n        require(queue.currentSize > 0, \"Queue is empty\");\n        return queue.heapList[1];\n    }\n\n    function percUp(Queue storage self, uint256 pointer) private {\n        uint256 i = pointer;\n        uint256 j = i;\n        uint256 newVal = self.heapList[i];\n        while (newVal < self.heapList[i.div(2)]) {\n            self.heapList[i] = self.heapList[i.div(2)];\n            i = i.div(2);\n        }\n        if (i != j) {\n            self.heapList[i] = newVal;\n        }\n    }\n\n    function percDown(Queue storage self, uint256 pointer) private {\n        uint256 i = pointer;\n        uint256 j = i;\n        uint256 newVal = self.heapList[i];\n        uint256 mc = minChild(self, i);\n        while (mc <= self.currentSize && newVal > self.heapList[mc]) {\n            self.heapList[i] = self.heapList[mc];\n            i = mc;\n            mc = minChild(self, i);\n        }\n        if (i != j) {\n            self.heapList[i] = newVal;\n        }\n    }\n\n    function minChild(Queue storage self, uint256 i) private view returns (uint256) {\n        if (i.mul(2).add(1) > self.currentSize) {\n            return i.mul(2);\n        } else {\n            if (self.heapList[i.mul(2)] < self.heapList[i.mul(2).add(1)]) {\n                return i.mul(2);\n            } else {\n                return i.mul(2).add(1);\n            }\n        }\n    }\n}\n",
  "sourcePath": "/home/node/plasma-contracts/plasma_framework/contracts/src/framework/utils/PriorityQueue.sol",
  "compiler": {
    "name": "solc",
    "version": "0.5.11+commit.c082d0b4.Emscripten.clang"
  },
  "schemaVersion": "3.0.16",
  "updatedAt": "2020-04-07T14:07:49.803Z",
  "devdoc": {
    "details": "Min-heap priority queue implementation",
    "methods": {
      "delMin()": {
        "details": "Fails when queue is empty",
        "return": "The smallest element in the priority queue"
      },
      "getMin()": {
        "details": "Fails when queue is empty",
        "return": "The smallest element in the priority queue"
      },
      "insert(uint256)": {
        "details": "Does not perform deduplication"
      }
    },
    "title": "PriorityQueue"
  },
  "userdoc": {
    "methods": {
      "currentSize()": {
        "notice": "Gets num of elements in the queue"
      },
      "delMin()": {
        "notice": "Deletes the smallest element from the queue by the framework"
      },
      "getMin()": {
        "notice": "Returns the smallest element from the queue"
      },
      "heapList()": {
        "notice": "Gets all elements in the queue"
      },
      "insert(uint256)": {
        "notice": "Inserts an element into the queue by the framework"
      }
    }
  }
}