{
  "contractName": "PriorityQueueLoadTest",
  "abi": [
    {
      "constant": true,
      "inputs": [],
      "name": "heapList",
      "outputs": [
        {
          "internalType": "uint256[]",
          "name": "",
          "type": "uint256[]"
        }
      ],
      "payable": false,
      "stateMutability": "view",
      "type": "function"
    },
    {
      "constant": false,
      "inputs": [
        {
          "internalType": "uint256",
          "name": "_element",
          "type": "uint256"
        }
      ],
      "name": "insert",
      "outputs": [],
      "payable": false,
      "stateMutability": "nonpayable",
      "type": "function"
    },
    {
      "constant": false,
      "inputs": [],
      "name": "delMin",
      "outputs": [
        {
          "internalType": "uint256",
          "name": "",
          "type": "uint256"
        }
      ],
      "payable": false,
      "stateMutability": "nonpayable",
      "type": "function"
    },
    {
      "constant": true,
      "inputs": [],
      "name": "currentSize",
      "outputs": [
        {
          "internalType": "uint256",
          "name": "",
          "type": "uint256"
        }
      ],
      "payable": false,
      "stateMutability": "view",
      "type": "function"
    },
    {
      "constant": true,
      "inputs": [],
      "name": "getMin",
      "outputs": [
        {
          "internalType": "uint256",
          "name": "",
          "type": "uint256"
        }
      ],
      "payable": false,
      "stateMutability": "view",
      "type": "function"
    },
    {
      "constant": true,
      "inputs": [],
      "name": "queue",
      "outputs": [
        {
          "internalType": "uint256",
          "name": "currentSize",
          "type": "uint256"
        }
      ],
      "payable": false,
      "stateMutability": "view",
      "type": "function"
    },
    {
      "constant": true,
      "inputs": [],
      "name": "framework",
      "outputs": [
        {
          "internalType": "address",
          "name": "",
          "type": "address"
        }
      ],
      "payable": false,
      "stateMutability": "view",
      "type": "function"
    },
    {
      "constant": false,
      "inputs": [
        {
          "internalType": "uint256[]",
          "name": "heapList",
          "type": "uint256[]"
        }
      ],
      "name": "setHeapData",
      "outputs": [],
      "payable": false,
      "stateMutability": "nonpayable",
      "type": "function"
    }
  ],
  "bytecode": "0x60a06040526000608081815261001791906001610034565b506000600155600280546001600160a01b031916331790556100a1565b828054828255906000526020600020908101928215610074579160200282015b82811115610074578251829060ff16905591602001919060010190610054565b50610080929150610084565b5090565b61009e91905b80821115610080576000815560010161008a565b90565b6109a4806100b06000396000f3fe608060405234801561001057600080fd5b50600436106100885760003560e01c8063bda1504b1161005b578063bda1504b1461018e578063d6362e9714610196578063e10d29ee1461019e578063e9de5553146101a657610088565b8063446b2f881461008d5780636407691c146100e557806390b5561d14610157578063b07576ac14610174575b600080fd5b6100956101ca565b60408051602080825283518183015283519192839290830191858101910280838360005b838110156100d15781810151838201526020016100b9565b505050509050019250505060405180910390f35b610155600480360360208110156100fb57600080fd5b81019060208101813564010000000081111561011657600080fd5b82018360208201111561012857600080fd5b8035906020019184602083028401116401000000008311171561014a57600080fd5b509092509050610225565b005b6101556004803603602081101561016d57600080fd5b5035610275565b61017c61032e565b60408051918252519081900360200190f35b61017c610490565b61017c610496565b61017c6104fd565b6101ae610503565b604080516001600160a01b039092168252519081900360200190f35b60606000800180548060200260200160405190810160405280929190818152602001828054801561021a57602002820191906000526020600020905b815481526020019060010190808311610206575b505050505090505b90565b60005b8181101561026857600083838381811061023e57fe5b83546001808201865560009586526020958690209290950293909301359201919091555001610228565b5060018054909101905550565b6002546001600160a01b03163381146102d5576040805162461bcd60e51b815260206004820152601e60248201527f43616c6c6572206164647265737320697320756e617574686f72697a65640000604482015290519081900360640190fd5b60008054600181810183559180527f290decd9548b62a8d60345a988386fc84ba6bc95484008f6362f93160ef3e5630183905580546103199163ffffffff61051216565b600181905561032a90600090610575565b5050565b6002546000906001600160a01b0316338114610391576040805162461bcd60e51b815260206004820152601e60248201527f43616c6c6572206164647265737320697320756e617574686f72697a65640000604482015290519081900360640190fd5b6001546103d6576040805162461bcd60e51b815260206004820152600e60248201526d517565756520697320656d70747960901b604482015290519081900360640190fd5b6000806000016001815481106103e857fe5b6000918252602082200154600154825491935090811061040457fe5b90600052602060002001546000800160018154811061041f57fe5b60009182526020822001919091556001548154811061043a57fe5b6000918252602082200155600180546104589163ffffffff61064b16565b6001908155610469906000906106a8565b60005461047d90600163ffffffff61064b16565b61048860008261090b565b5091505b5090565b60015490565b6001546000906104de576040805162461bcd60e51b815260206004820152600e60248201526d517565756520697320656d70747960901b604482015290519081900360640190fd5b6000805460019081106104ed57fe5b9060005260206000200154905090565b60015481565b6002546001600160a01b031681565b60008282018381101561056c576040805162461bcd60e51b815260206004820152601b60248201527f536166654d6174683a206164646974696f6e206f766572666c6f770000000000604482015290519081900360640190fd5b90505b92915050565b81548190819060009085908390811061058a57fe5b906000526020600020015490505b846105aa84600263ffffffff61077f16565b815481106105b457fe5b906000526020600020015481101561062057846105d884600263ffffffff61077f16565b815481106105e257fe5b90600052602060002001548560000184815481106105fc57fe5b60009182526020909120015561061983600263ffffffff61077f16565b9250610598565b818314610644578085600001848154811061063757fe5b6000918252602090912001555b5050505050565b6000828211156106a2576040805162461bcd60e51b815260206004820152601e60248201527f536166654d6174683a207375627472616374696f6e206f766572666c6f770000604482015290519081900360640190fd5b50900390565b8154819081906000908590839081106106bd57fe5b9060005260206000200154905060006106d686856107e9565b90505b8560010154811115801561070557508560000181815481106106f757fe5b906000526020600020015482115b156107535785600001818154811061071957fe5b906000526020600020015486600001858154811061073357fe5b60009182526020909120015592508261074c86826107e9565b90506106d9565b828414610777578186600001858154811061076a57fe5b6000918252602090912001555b505050505050565b60008082116107d5576040805162461bcd60e51b815260206004820152601a60248201527f536166654d6174683a206469766973696f6e206279207a65726f000000000000604482015290519081900360640190fd5b60008284816107e057fe5b04949350505050565b6001808301546000916108139061080785600263ffffffff6108b216565b9063ffffffff61051216565b11156108315761082a82600263ffffffff6108b216565b905061056f565b82610848600161080785600263ffffffff6108b216565b8154811061085257fe5b6000918252602090912001548361087084600263ffffffff6108b216565b8154811061087a57fe5b9060005260206000200154101561089c5761082a82600263ffffffff6108b216565b61082a600161080784600263ffffffff6108b216565b6000826108c15750600061056f565b828202828482816108ce57fe5b041461056c5760405162461bcd60e51b815260040180806020018281038252602181526020018061094f6021913960400191505060405180910390fd5b81548183558181111561092f5760008381526020902061092f918101908301610934565b505050565b61022291905b8082111561048c576000815560010161093a56fe536166654d6174683a206d756c7469706c69636174696f6e206f766572666c6f77a265627a7a72315820aa05ae64ccde347e396dcbbcb4fd7e3c284e0987a7c36aafdbc277a16757715c64736f6c634300050b0032",
  "source": "pragma solidity 0.5.11;\n\nimport \"../../../src/framework/utils/PriorityQueue.sol\";\n\ncontract PriorityQueueLoadTest is PriorityQueue {\n\n    /**\n     * Helper function to inject heap data. It only appends batch of data to the end of array used as heap.\n     * The client using this should make sure the data is in the order of an valid heap.\n     */\n    function setHeapData(uint256[] calldata heapList) external {\n        for (uint i = 0; i < heapList.length; i++) {\n            PriorityQueue.queue.heapList.push(heapList[i]);\n        }\n        PriorityQueue.queue.currentSize += heapList.length;\n    }\n}\n",
  "sourcePath": "/home/node/plasma-contracts/plasma_framework/contracts/mocks/framework/utils/PriorityQueueLoadTest.sol",
  "compiler": {
    "name": "solc",
    "version": "0.5.11+commit.c082d0b4.Emscripten.clang"
  },
  "schemaVersion": "3.0.16",
  "updatedAt": "2020-04-07T14:07:49.564Z",
  "devdoc": {
    "methods": {
      "delMin()": {
        "details": "Fails when queue is empty",
        "return": "The smallest element in the priority queue"
      },
      "getMin()": {
        "details": "Fails when queue is empty",
        "return": "The smallest element in the priority queue"
      },
      "insert(uint256)": {
        "details": "Does not perform deduplication"
      }
    }
  },
  "userdoc": {
    "methods": {
      "currentSize()": {
        "notice": "Gets num of elements in the queue"
      },
      "delMin()": {
        "notice": "Deletes the smallest element from the queue by the framework"
      },
      "getMin()": {
        "notice": "Returns the smallest element from the queue"
      },
      "heapList()": {
        "notice": "Gets all elements in the queue"
      },
      "insert(uint256)": {
        "notice": "Inserts an element into the queue by the framework"
      },
      "setHeapData(uint256[])": {
        "notice": "Helper function to inject heap data. It only appends batch of data to the end of array used as heap. The client using this should make sure the data is in the order of an valid heap."
      }
    }
  }
}