{
  "contractName": "ProtocolWrapper",
  "abi": [
    {
      "constant": true,
      "inputs": [],
      "name": "MVP",
      "outputs": [
        {
          "internalType": "uint8",
          "name": "",
          "type": "uint8"
        }
      ],
      "payable": false,
      "stateMutability": "pure",
      "type": "function"
    },
    {
      "constant": true,
      "inputs": [],
      "name": "MORE_VP",
      "outputs": [
        {
          "internalType": "uint8",
          "name": "",
          "type": "uint8"
        }
      ],
      "payable": false,
      "stateMutability": "pure",
      "type": "function"
    },
    {
      "constant": true,
      "inputs": [
        {
          "internalType": "uint8",
          "name": "protocol",
          "type": "uint8"
        }
      ],
      "name": "isValidProtocol",
      "outputs": [
        {
          "internalType": "bool",
          "name": "",
          "type": "bool"
        }
      ],
      "payable": false,
      "stateMutability": "pure",
      "type": "function"
    }
  ],
  "bytecode": "0x608060405234801561001057600080fd5b5061010f806100206000396000f3fe6080604052348015600f57600080fd5b5060043610603c5760003560e01c8063206eb6b71460415780635862053714605d5780638cba979a14608e575b600080fd5b60476094565b6040805160ff9092168252519081900360200190f35b607a60048036036020811015607157600080fd5b503560ff1660a1565b604080519115158252519081900360200190f35b604760b0565b6000609c60b8565b905090565b600060aa8260bd565b92915050565b6000609c60d5565b600190565b600060ff82166001148060aa57505060ff1660021490565b60029056fea265627a7a72315820c146756cc4fc2bb933fa3f62ab130ae5226237f721c9b96cafa8b2bfcbb1810264736f6c634300050b0032",
  "source": "pragma solidity 0.5.11;\n\nimport \"../../src/framework/Protocol.sol\";\n\ncontract ProtocolWrapper {\n    // solhint-disable-next-line func-name-mixedcase\n    function MVP() public pure returns (uint8) {\n        return Protocol.MVP();\n    }\n\n    // solhint-disable-next-line func-name-mixedcase\n    function MORE_VP() public pure returns (uint8) {\n        return Protocol.MORE_VP();\n    }\n\n    function isValidProtocol(uint8 protocol) public pure returns (bool) {\n        return Protocol.isValidProtocol(protocol);\n    }\n}\n",
  "sourcePath": "/home/node/plasma-contracts/plasma_framework/contracts/mocks/framework/ProtocolWrapper.sol",
  "compiler": {
    "name": "solc",
    "version": "0.5.11+commit.c082d0b4.Emscripten.clang"
  },
  "schemaVersion": "3.0.16",
  "updatedAt": "2020-04-07T14:07:49.556Z",
  "devdoc": {
    "methods": {}
  },
  "userdoc": {
    "methods": {}
  }
}