{
  "contractName": "QuarantineMock",
  "abi": [
    {
      "inputs": [
        {
          "internalType": "uint256",
          "name": "_period",
          "type": "uint256"
        },
        {
          "internalType": "uint256",
          "name": "_initialImmuneCount",
          "type": "uint256"
        }
      ],
      "payable": false,
      "stateMutability": "nonpayable",
      "type": "constructor"
    },
    {
      "constant": false,
      "inputs": [
        {
          "internalType": "address",
          "name": "_contractAddress",
          "type": "address"
        }
      ],
      "name": "quarantineContract",
      "outputs": [],
      "payable": false,
      "stateMutability": "nonpayable",
      "type": "function"
    },
    {
      "constant": true,
      "inputs": [
        {
          "internalType": "address",
          "name": "_contractAddress",
          "type": "address"
        }
      ],
      "name": "isQuarantined",
      "outputs": [
        {
          "internalType": "bool",
          "name": "",
          "type": "bool"
        }
      ],
      "payable": false,
      "stateMutability": "view",
      "type": "function"
    }
  ],
  "bytecode": "0x608060405234801561001057600080fd5b506040516102953803806102958339818101604052604081101561003357600080fd5b508051602090910151600191909155600255610241806100546000396000f3fe608060405234801561001057600080fd5b50600436106100365760003560e01c806334d502471461003b578063485d6ef814610063575b600080fd5b6100616004803603602081101561005157600080fd5b50356001600160a01b031661009d565b005b6100896004803603602081101561007957600080fd5b50356001600160a01b03166100b1565b604080519115158252519081900360200190f35b6100ae60008263ffffffff6100c916565b50565b60006100c3818363ffffffff6101a516565b92915050565b6001600160a01b03811661010e5760405162461bcd60e51b81526004018080602001828103825260268152602001806101e76026913960400191505060405180910390fd5b6001600160a01b038116600090815260208390526040902054156101635760405162461bcd60e51b81526004018080602001828103825260238152602001806101c46023913960400191505060405180910390fd5b60028201546101945760018201546001600160a01b03821660009081526020849052604090204290910190556101a1565b6002820180546000190190555b5050565b6001600160a01b03166000908152602091909152604090205442109056fe54686520636f6e747261637420697320616c72656164792071756172616e74696e6564416e20656d70747920616464726573732063616e6e6f742062652071756172616e74696e6564a265627a7a723158204972de2ae1118f3980154a48c73b12e1bfdf9cf665c6a70b81e8ba2bce626b8f64736f6c634300050b0032",
  "source": "pragma solidity 0.5.11;\n\nimport \"../../src/framework/utils/Quarantine.sol\";\n\ncontract QuarantineMock {\n    using Quarantine for Quarantine.Data;\n    Quarantine.Data internal _quarantine;\n\n    constructor(uint256 _period, uint256 _initialImmuneCount)\n        public\n    {\n        _quarantine.quarantinePeriod = _period;\n        _quarantine.immunitiesRemaining = _initialImmuneCount;\n    }\n\n    function quarantineContract(address _contractAddress) public {\n        _quarantine.quarantine(_contractAddress);\n    }\n\n    function isQuarantined(address _contractAddress) public view returns (bool) {\n        return _quarantine.isQuarantined(_contractAddress);\n    }\n}\n",
  "sourcePath": "/home/node/plasma-contracts/plasma_framework/contracts/mocks/utils/QuarantineMock.sol",
  "compiler": {
    "name": "solc",
    "version": "0.5.11+commit.c082d0b4.Emscripten.clang"
  },
  "schemaVersion": "3.0.16",
  "updatedAt": "2020-04-07T14:07:49.619Z",
  "devdoc": {
    "methods": {}
  },
  "userdoc": {
    "methods": {}
  }
}