{
  "contractName": "ReentrancyExitGame",
  "abi": [
    {
      "constant": true,
      "inputs": [],
      "name": "exitGameController",
      "outputs": [
        {
          "internalType": "contract ExitGameController",
          "name": "",
          "type": "address"
        }
      ],
      "payable": false,
      "stateMutability": "view",
      "type": "function"
    },
    {
      "constant": true,
      "inputs": [],
      "name": "vaultId",
      "outputs": [
        {
          "internalType": "uint256",
          "name": "",
          "type": "uint256"
        }
      ],
      "payable": false,
      "stateMutability": "view",
      "type": "function"
    },
    {
      "constant": true,
      "inputs": [],
      "name": "testToken",
      "outputs": [
        {
          "internalType": "address",
          "name": "",
          "type": "address"
        }
      ],
      "payable": false,
      "stateMutability": "view",
      "type": "function"
    },
    {
      "constant": true,
      "inputs": [],
      "name": "reentryMaxExitToProcess",
      "outputs": [
        {
          "internalType": "uint256",
          "name": "",
          "type": "uint256"
        }
      ],
      "payable": false,
      "stateMutability": "view",
      "type": "function"
    },
    {
      "inputs": [
        {
          "internalType": "contract ExitGameController",
          "name": "_controller",
          "type": "address"
        },
        {
          "internalType": "uint256",
          "name": "_vaultId",
          "type": "uint256"
        },
        {
          "internalType": "address",
          "name": "_token",
          "type": "address"
        },
        {
          "internalType": "uint256",
          "name": "_reentryMaxExitToProcess",
          "type": "uint256"
        }
      ],
      "payable": false,
      "stateMutability": "nonpayable",
      "type": "constructor"
    },
    {
      "constant": false,
      "inputs": [
        {
          "internalType": "uint160",
          "name": "",
          "type": "uint160"
        },
        {
          "internalType": "uint256",
          "name": "",
          "type": "uint256"
        },
        {
          "internalType": "address",
          "name": "",
          "type": "address"
        }
      ],
      "name": "processExit",
      "outputs": [],
      "payable": false,
      "stateMutability": "nonpayable",
      "type": "function"
    },
    {
      "constant": false,
      "inputs": [
        {
          "internalType": "uint256",
          "name": "_vaultId",
          "type": "uint256"
        },
        {
          "internalType": "address",
          "name": "_token",
          "type": "address"
        },
        {
          "internalType": "uint64",
          "name": "_exitableAt",
          "type": "uint64"
        },
        {
          "internalType": "uint256",
          "name": "_txPos",
          "type": "uint256"
        },
        {
          "internalType": "uint160",
          "name": "_exitId",
          "type": "uint160"
        },
        {
          "internalType": "contract IExitProcessor",
          "name": "_exitProcessor",
          "type": "address"
        }
      ],
      "name": "enqueue",
      "outputs": [],
      "payable": false,
      "stateMutability": "nonpayable",
      "type": "function"
    }
  ],
  "bytecode": "0x608060405234801561001057600080fd5b5060405161081338038061081383398101604081905261002f91610091565b600080546001600160a01b03199081166001600160a01b03968716179091556001939093556002805490931691909316179055600355610140565b805161007581610117565b92915050565b80516100758161012e565b805161007581610137565b600080600080608085870312156100a757600080fd5b60006100b3878761007b565b94505060206100c487828801610086565b93505060406100d58782880161006a565b92505060606100e687828801610086565b91505092959194509250565b600061007582610108565b6000610075826100f2565b6001600160a01b031690565b90565b610120816100f2565b811461012b57600080fd5b50565b610120816100fd565b61012081610114565b6106c48061014f6000396000f3fe608060405234801561001057600080fd5b50600436106100625760003560e01c80632babfe601461006757806333194c0a14610085578063684963511461009a5780636895179d146100af5780636c53d740146100c45780636cc10b6b146100cc575b600080fd5b61006f6100df565b60405161007c919061052f565b60405180910390f35b61008d6100ee565b60405161007c919061055d565b6100ad6100a8366004610314565b6100f4565b005b6100b7610168565b60405161007c9190610521565b61008d610177565b6100ad6100da366004610387565b61017d565b6000546001600160a01b031681565b60015481565b6000805460015460025460035460405163366a92c960e21b81526001600160a01b039485169563d9aa4b249561013195941692909160040161056b565b600060405180830381600087803b15801561014b57600080fd5b505af115801561015f573d6000803e3d6000fd5b50505050505050565b6002546001600160a01b031681565b60035481565b6000546001600160a01b0316637f8523d187878761019a8861020f565b87876040518763ffffffff1660e01b81526004016101bd969594939291906105a9565b602060405180830381600087803b1580156101d757600080fd5b505af11580156101eb573d6000803e3d6000fd5b505050506040513d601f19601f8201168201806040525061015f9190810190610361565b6102176102ac565b633b9aca00808304906127109084068190049084066429f16b11c683111561025a5760405162461bcd60e51b81526004016102519061053d565b60405180910390fd5b61ffff82111561027c5760405162461bcd60e51b81526004016102519061054d565b6040805160608101825267ffffffffffffffff909416845261ffff92831660208501529116908201529050919050565b604080516060810182526000808252602082018190529181019190915290565b80356102d781610646565b92915050565b80356102d78161065d565b80356102d781610666565b80356102d78161066f565b80516102d78161066f565b80356102d781610678565b60008060006060848603121561032957600080fd5b600061033586866102e8565b9350506020610346868287016102f3565b9250506040610357868287016102cc565b9150509250925092565b60006020828403121561037357600080fd5b600061037f84846102fe565b949350505050565b60008060008060008060c087890312156103a057600080fd5b60006103ac89896102f3565b96505060206103bd89828a016102cc565b95505060406103ce89828a01610309565b94505060606103df89828a016102f3565b93505060806103f089828a016102e8565b92505060a061040189828a016102dd565b9150509295509295509295565b6104178161060d565b82525050565b61041781610618565b6000610433603483610604565b7f626c6f636b4e756d2065786365656473206d61782073697a6520616c6c6f77658152736420696e20506c61736d614672616d65776f726b60601b602082015260400192915050565b6000610489602283610604565b7f7478496e6465782065786365656473207468652073697a65206f662075696e74815261189b60f11b602082015260400192915050565b805160608301906104d18482610518565b5060208201516104e46020850182610506565b5060408201516104f76040850182610506565b50505050565b6104178161062a565b61041781610623565b61041781610636565b61041781610639565b602081016102d7828461040e565b602081016102d7828461041d565b602080825281016102d781610426565b602080825281016102d78161047c565b602081016102d7828461050f565b60808101610579828761050f565b610586602083018661040e565b610593604083018561040e565b6105a0606083018461050f565b95945050505050565b61010081016105b8828961050f565b6105c5602083018861040e565b6105d26040830187610518565b6105df60608301866104c0565b6105ec60c08301856104fd565b6105f960e083018461041d565b979650505050505050565b90815260200190565b60006102d78261062a565b60006102d78261060d565b61ffff1690565b6001600160a01b031690565b90565b67ffffffffffffffff1690565b61064f8161060d565b811461065a57600080fd5b50565b61064f81610618565b61064f8161062a565b61064f81610636565b61064f8161063956fea365627a7a72315820db3732c0c3168d9f3656b040dd6641ffe57a64a1fc644ffe0202dec86461d9f46c6578706572696d656e74616cf564736f6c634300050b0040",
  "source": "pragma solidity 0.5.11;\npragma experimental ABIEncoderV2;\n\nimport \"../../src/framework/ExitGameController.sol\";\nimport \"../../src/framework/interfaces/IExitProcessor.sol\";\n\ncontract ReentrancyExitGame is IExitProcessor {\n    ExitGameController public exitGameController;\n    uint256 public vaultId;\n    address public testToken;\n    uint256 public reentryMaxExitToProcess;\n\n    constructor(ExitGameController _controller, uint256 _vaultId, address _token, uint256 _reentryMaxExitToProcess) public {\n        exitGameController = _controller;\n        vaultId = _vaultId;\n        testToken = _token;\n        reentryMaxExitToProcess = _reentryMaxExitToProcess;\n    }\n\n    // override ExitProcessor interface\n    // This would call the processExits back to mimic reentracy attack\n    function processExit(uint160, uint256, address) public {\n        exitGameController.processExits(vaultId, testToken, 0, reentryMaxExitToProcess);\n    }\n\n    function enqueue(uint256 _vaultId, address _token, uint64 _exitableAt, uint256 _txPos, uint160 _exitId, IExitProcessor _exitProcessor)\n        public\n    {\n        exitGameController.enqueue(_vaultId, _token, _exitableAt, PosLib.decode(_txPos), _exitId, _exitProcessor);\n    }\n}\n",
  "sourcePath": "/home/node/plasma-contracts/plasma_framework/contracts/mocks/framework/ReentrancyExitGame.sol",
  "compiler": {
    "name": "solc",
    "version": "0.5.11+commit.c082d0b4.Emscripten.clang"
  },
  "schemaVersion": "3.0.16",
  "updatedAt": "2020-04-07T14:07:49.557Z",
  "devdoc": {
    "methods": {}
  },
  "userdoc": {
    "methods": {}
  }
}