{
  "contractName": "RLPMockSecurity",
  "abi": [
    {
      "constant": true,
      "inputs": [
        {
          "internalType": "bytes",
          "name": "_data",
          "type": "bytes"
        }
      ],
      "name": "decodeBytes32",
      "outputs": [
        {
          "internalType": "bytes32",
          "name": "",
          "type": "bytes32"
        }
      ],
      "payable": false,
      "stateMutability": "pure",
      "type": "function"
    },
    {
      "constant": true,
      "inputs": [
        {
          "internalType": "bytes",
          "name": "_data",
          "type": "bytes"
        }
      ],
      "name": "decodeBytes20",
      "outputs": [
        {
          "internalType": "bytes20",
          "name": "",
          "type": "bytes20"
        }
      ],
      "payable": false,
      "stateMutability": "pure",
      "type": "function"
    },
    {
      "constant": true,
      "inputs": [
        {
          "internalType": "bytes",
          "name": "_data",
          "type": "bytes"
        }
      ],
      "name": "decodeUint",
      "outputs": [
        {
          "internalType": "uint256",
          "name": "",
          "type": "uint256"
        }
      ],
      "payable": false,
      "stateMutability": "pure",
      "type": "function"
    },
    {
      "constant": true,
      "inputs": [
        {
          "internalType": "bytes",
          "name": "_data",
          "type": "bytes"
        }
      ],
      "name": "decodeList",
      "outputs": [
        {
          "components": [
            {
              "internalType": "uint256",
              "name": "len",
              "type": "uint256"
            },
            {
              "internalType": "uint256",
              "name": "memPtr",
              "type": "uint256"
            }
          ],
          "internalType": "struct RLPReader.RLPItem[]",
          "name": "",
          "type": "tuple[]"
        }
      ],
      "payable": false,
      "stateMutability": "pure",
      "type": "function"
    }
  ],
  "bytecode": "0x608060405234801561001057600080fd5b50610daa806100206000396000f3fe608060405234801561001057600080fd5b506004361061004c5760003560e01c80636ff247011461005157806371f4f29814610051578063c9309bf61461007a578063eb608b5b1461009a575b600080fd5b61006461005f3660046106b3565b6100ba565b6040516100719190610be6565b60405180910390f35b61008d6100883660046106b3565b6100d5565b6040516100719190610bba565b6100ad6100a83660046106b3565b6100e8565b6040516100719190610bd2565b60006100cd6100c883610104565b610129565b90505b919050565b60606100cd6100e383610104565b610248565b60006100fb6100f683610104565b610357565b60601b92915050565b61010c610645565b506040805180820190915281518152602082810190820152919050565b80516000901580159061013e57508151602110155b6101635760405162461bcd60e51b815260040161015a90610cd4565b60405180910390fd5b61016c826103eb565b156101895760405162461bcd60e51b815260040161015a90610c94565b6000806101998460200151610425565b8551919350915082146101be5760405162461bcd60e51b815260040161015a90610c04565b60208085015182018051838503929091600083901a918410156101e857836020036101000a830492505b811580156101f4575084155b156102115760405162461bcd60e51b815260040161015a90610c44565b8115801561021f5750600184115b1561023c5760405162461bcd60e51b815260040161015a90610bf4565b50909695505050505050565b6060610253826103eb565b61026f5760405162461bcd60e51b815260040161015a90610c84565b60008061027f8460200151610425565b8551919350915082146102a45760405162461bcd60e51b815260040161015a90610c24565b60006102af856105ce565b90506060816040519080825280602002602001820160405280156102ed57816020015b6102da610645565b8152602001906001900390816102d25790505b50602087015190915083016000805b8481101561034a5761030d83610425565b508092505060405180604001604052808381526020018481525084828151811061033357fe5b6020908102919091010152918101916001016102fc565b5091979650505050505050565b805160009060151461037b5760405162461bcd60e51b815260040161015a90610ca4565b610384826103eb565b156103a15760405162461bcd60e51b815260040161015a90610c94565b6000806103b18460200151610425565b91509150816015146103d55760405162461bcd60e51b815260040161015a90610cc4565b60208401510151600160601b9004915050919050565b80516000906103fc575060006100d0565b6020820151805160001a9060c082101561041b576000925050506100d0565b5060019392505050565b8051600090819081908190811a60808110156104485760019250600091506105c3565b60808110801590610459575060b881105b156104a257607e1981019250600283141561049957600186015160001a60808110156104975760405162461bcd60e51b815260040161015a90610cb4565b505b600191506105c3565b60b881108015906104b3575060c081105b1561052d5760019590950180519095602081900360b7016101000a820480820160b519019450909160001a60b6198301816105005760405162461bcd60e51b815260040161015a90610c34565b603783116105205760405162461bcd60e51b815260040161015a90610c14565b60010193506105c3915050565b60c0811080159061053e575060f881105b156105535760be1981019250600191506105c3565b60019590950180519095602081900360f7016101000a820480820160f519019450909160001a60f61983018161059b5760405162461bcd60e51b815260040161015a90610c74565b603783116105bb5760405162461bcd60e51b815260040161015a90610c64565b600101935050505b509092509050915091565b6000806000905060006105e48460200151610425565b602086015186519193508084019250015b8082101561063b57600061060883610425565b509283019290508183111561062f5760405162461bcd60e51b815260040161015a90610c54565b506001909301926105f5565b5091949350505050565b604051806040016040528060008152602001600081525090565b600082601f83011261067057600080fd5b813561068361067e82610d0b565b610ce4565b9150808252602083016020830185838301111561069f57600080fd5b6106aa838284610d5b565b50505092915050565b6000602082840312156106c557600080fd5b813567ffffffffffffffff8111156106dc57600080fd5b6106e88482850161065f565b949350505050565b60006106fc8383610b90565b505060400190565b600061070f82610d39565b6107198185610d3d565b935061072483610d33565b8060005b8381101561075257815161073c88826106f0565b975061074783610d33565b925050600101610728565b509495945050505050565b61076681610d46565b82525050565b61076681610d58565b6000610782601983610d3d565b7f4c656164696e67207a65726f732061726520696e76616c696400000000000000815260200192915050565b60006107bb603a83610d3d565b7f4465636f646564206974656d206c656e677468206d757374206265206571756181527f6c20746f2074686520696e7075742064617461206c656e677468000000000000602082015260400192915050565b600061081a602083610d3d565b7f496e76616c6964206c656e67746820666f722061206c6f6e6720737472696e67815260200192915050565b6000610853602683610d3d565b7f4465636f64656420524c50206c656e67746820666f72206c69737420697320698152651b9d985b1a5960d21b602082015260400192915050565b600061089b603f83610d3d565b7f496e76616c6964206c656164696e67207a65726f7320696e206c656e6774682081527f6f6620746865206c656e67746820666f722061206c6f6e6720737472696e6700602082015260400192915050565b60006108fa602283610d3d565b7f5363616c617220302073686f756c6420626520656e636f646564206173203078815261038360f41b602082015260400192915050565b600061093e604883610d3d565b7f496e76616c6964206465636f646564206c656e677468206f6620524c5020697481527f656d20666f756e6420647572696e6720636f756e74696e67206974656d7320696020820152671b8818481b1a5cdd60c21b604082015260600192915050565b60006109ae601e83610d3d565b7f496e76616c6964206c656e67746820666f722061206c6f6e67206c6973740000815260200192915050565b60006109e7603d83610d3d565b7f496e76616c6964206c656164696e67207a65726f7320696e206c656e6774682081527f6f6620746865206c656e67746820666f722061206c6f6e67206c697374000000602082015260400192915050565b6000610a46601283610d3d565b71125d195b481a5cc81b9bdd0818481b1a5cdd60721b815260200192915050565b6000610a74601783610d3d565b7f4974656d206d757374206e6f742062652061206c697374000000000000000000815260200192915050565b6000610aad601683610d3d565b754974656d206c656e677468206d75737420626520323160501b815260200192915050565b6000610adf601d83610d3d565b7f496e76616c69642073686f727420737472696e6720656e636f64696e67000000815260200192915050565b6000610b18601e83610d3d565b7f4465636f646564206974656d206c656e677468206d7573742062652032310000815260200192915050565b6000610b51602a83610d3d565b7f4974656d206c656e677468206d757374206265206265747765656e203120616e8152696420333320627974657360b01b602082015260400192915050565b80516040830190610ba1848261076c565b506020820151610bb4602085018261076c565b50505050565b60208082528101610bcb8184610704565b9392505050565b60208101610be0828461075d565b92915050565b60208101610be0828461076c565b602080825281016100cd81610775565b602080825281016100cd816107ae565b602080825281016100cd8161080d565b602080825281016100cd81610846565b602080825281016100cd8161088e565b602080825281016100cd816108ed565b602080825281016100cd81610931565b602080825281016100cd816109a1565b602080825281016100cd816109da565b602080825281016100cd81610a39565b602080825281016100cd81610a67565b602080825281016100cd81610aa0565b602080825281016100cd81610ad2565b602080825281016100cd81610b0b565b602080825281016100cd81610b44565b60405181810167ffffffffffffffff81118282101715610d0357600080fd5b604052919050565b600067ffffffffffffffff821115610d2257600080fd5b506020601f91909101601f19160190565b60200190565b5190565b90815260200190565b6bffffffffffffffffffffffff191690565b90565b8281833750600091015256fea365627a7a7231582033c61a839332bc899f602266a4b0b94f2371a87cb4052e1809b578071623cdbb6c6578706572696d656e74616cf564736f6c634300050b0040",
  "source": "pragma solidity 0.5.11;\n\npragma experimental ABIEncoderV2;\n\nimport \"../../src/utils/RLPReader.sol\";\n\ncontract RLPMockSecurity {\n\n    using RLPReader for bytes;\n    using RLPReader for RLPReader.RLPItem;\n\n    function decodeBytes32(bytes memory _data) public pure returns (bytes32) {\n        return bytes32(_data.toRlpItem().toUint());\n    }\n\n    function decodeBytes20(bytes memory _data) public pure returns (bytes20) {\n        return bytes20(_data.toRlpItem().toAddress());\n    }\n\n    function decodeUint(bytes memory _data) public pure returns (uint) {\n        return _data.toRlpItem().toUint();\n    }\n\n    function decodeList(bytes memory _data) public pure returns (RLPReader.RLPItem[] memory) {\n        return _data.toRlpItem().toList();\n    }\n}\n",
  "sourcePath": "/home/node/plasma-contracts/plasma_framework/contracts/mocks/utils/RLPMockSecurity.sol",
  "compiler": {
    "name": "solc",
    "version": "0.5.11+commit.c082d0b4.Emscripten.clang"
  },
  "schemaVersion": "3.0.16",
  "updatedAt": "2020-04-07T14:07:49.635Z",
  "devdoc": {
    "methods": {}
  },
  "userdoc": {
    "methods": {}
  }
}