{
  "contractName": "RLPMock",
  "abi": [
    {
      "constant": true,
      "inputs": [
        {
          "internalType": "bytes",
          "name": "_data",
          "type": "bytes"
        }
      ],
      "name": "decodeBytes32",
      "outputs": [
        {
          "internalType": "bytes32",
          "name": "",
          "type": "bytes32"
        }
      ],
      "payable": false,
      "stateMutability": "pure",
      "type": "function"
    },
    {
      "constant": true,
      "inputs": [
        {
          "internalType": "bytes",
          "name": "_data",
          "type": "bytes"
        }
      ],
      "name": "decodeAddress",
      "outputs": [
        {
          "internalType": "address",
          "name": "",
          "type": "address"
        }
      ],
      "payable": false,
      "stateMutability": "pure",
      "type": "function"
    },
    {
      "constant": true,
      "inputs": [
        {
          "internalType": "bytes",
          "name": "_data",
          "type": "bytes"
        }
      ],
      "name": "decodeBytes20",
      "outputs": [
        {
          "internalType": "bytes20",
          "name": "",
          "type": "bytes20"
        }
      ],
      "payable": false,
      "stateMutability": "pure",
      "type": "function"
    },
    {
      "constant": true,
      "inputs": [
        {
          "internalType": "bytes",
          "name": "_data",
          "type": "bytes"
        }
      ],
      "name": "decodeBytes",
      "outputs": [
        {
          "internalType": "bytes",
          "name": "",
          "type": "bytes"
        }
      ],
      "payable": false,
      "stateMutability": "pure",
      "type": "function"
    },
    {
      "constant": true,
      "inputs": [
        {
          "internalType": "bytes",
          "name": "_data",
          "type": "bytes"
        }
      ],
      "name": "decodeUint",
      "outputs": [
        {
          "internalType": "uint256",
          "name": "",
          "type": "uint256"
        }
      ],
      "payable": false,
      "stateMutability": "pure",
      "type": "function"
    },
    {
      "constant": true,
      "inputs": [
        {
          "internalType": "bytes",
          "name": "_data",
          "type": "bytes"
        }
      ],
      "name": "decodeInt",
      "outputs": [
        {
          "internalType": "int256",
          "name": "",
          "type": "int256"
        }
      ],
      "payable": false,
      "stateMutability": "pure",
      "type": "function"
    },
    {
      "constant": true,
      "inputs": [
        {
          "internalType": "bytes",
          "name": "_data",
          "type": "bytes"
        }
      ],
      "name": "decodeString",
      "outputs": [
        {
          "internalType": "string",
          "name": "",
          "type": "string"
        }
      ],
      "payable": false,
      "stateMutability": "pure",
      "type": "function"
    },
    {
      "constant": true,
      "inputs": [
        {
          "internalType": "bytes",
          "name": "_data",
          "type": "bytes"
        }
      ],
      "name": "decodeList",
      "outputs": [
        {
          "internalType": "bytes[]",
          "name": "",
          "type": "bytes[]"
        }
      ],
      "payable": false,
      "stateMutability": "pure",
      "type": "function"
    }
  ],
  "bytecode": "0x608060405234801561001057600080fd5b50611313806100206000396000f3fe608060405234801561001057600080fd5b50600436106100885760003560e01c806395ce3e931161005b57806395ce3e931461008d578063af91c8aa146100e9578063c9309bf614610109578063eb608b5b1461012957610088565b8063197621ce1461008d578063582b5656146100b65780636ff24701146100b657806371f4f298146100d6575b600080fd5b6100a061009b366004610a18565b610149565b6040516100ad91906110ab565b60405180910390f35b6100c96100c4366004610a18565b610164565b6040516100ad919061109d565b6100c96100e4366004610a18565b610177565b6100fc6100f7366004610a18565b61018a565b6040516100ad919061106a565b61011c610117366004610a18565b61019d565b6040516100ad919061107e565b61013c610137366004610a18565b61023c565b6040516100ad919061108f565b606061015c61015783610253565b610278565b90505b919050565b600061015c61017283610253565b61032e565b600061015c61018583610253565b610444565b600061015c61019883610253565b6104d1565b6060806101b16101ac84610253565b610565565b9050606081516040519080825280602002602001820160405280156101ea57816020015b60608152602001906001900390816101d55790505b50905060005b82518110156102345761021583828151811061020857fe5b6020026020010151610674565b82828151811061022157fe5b60209081029190910101526001016101f0565b509392505050565b600061024a61019883610253565b60601b92915050565b61025b6109aa565b506040805180820190915281518152602082810190820152919050565b80516060906102a25760405162461bcd60e51b81526004016102999061111c565b60405180910390fd5b6000806102b284602001516106dc565b8551919350915082146102d75760405162461bcd60e51b81526004016102999061118c565b60408051828403808252601f19601f8201168201602001909252606090828015610308576020820181803883390190505b5090506000816020019050610324848860200151018285610885565b5095945050505050565b80516000901580159061034357508151602110155b61035f5760405162461bcd60e51b8152600401610299906111ec565b610368826108f9565b156103855760405162461bcd60e51b81526004016102999061117c565b60008061039584602001516106dc565b8551919350915082146103ba5760405162461bcd60e51b8152600401610299906110cc565b60208085015182018051838503929091600083901a918410156103e457836020036101000a830492505b811580156103f0575084155b1561040d5760405162461bcd60e51b81526004016102999061110c565b8115801561041b5750600184115b156104385760405162461bcd60e51b8152600401610299906110bc565b50909695505050505050565b80516000906021146104685760405162461bcd60e51b8152600401610299906111dc565b610471826108f9565b1561048e5760405162461bcd60e51b81526004016102999061117c565b60008061049e84602001516106dc565b91509150816021146104c25760405162461bcd60e51b8152600401610299906111ac565b60208401510151915050919050565b80516000906015146104f55760405162461bcd60e51b81526004016102999061119c565b6104fe826108f9565b1561051b5760405162461bcd60e51b81526004016102999061117c565b60008061052b84602001516106dc565b915091508160151461054f5760405162461bcd60e51b8152600401610299906111cc565b60208401510151600160601b9004915050919050565b6060610570826108f9565b61058c5760405162461bcd60e51b81526004016102999061116c565b60008061059c84602001516106dc565b8551919350915082146105c15760405162461bcd60e51b8152600401610299906110ec565b60006105cc85610933565b905060608160405190808252806020026020018201604052801561060a57816020015b6105f76109aa565b8152602001906001900390816105ef5790505b50602087015190915083016000805b848110156106675761062a836106dc565b508092505060405180604001604052808381526020018481525084828151811061065057fe5b602090810291909101015291810191600101610619565b5091979650505050505050565b60608082600001516040519080825280601f01601f1916602001820160405280156106a6576020820181803883390190505b5090508051600014156106ba57905061015f565b60008160200190506106d58460200151828660000151610885565b5092915050565b8051600090819081908190811a60808110156106ff57600192506000915061087a565b60808110801590610710575060b881105b1561075957607e1981019250600283141561075057600186015160001a608081101561074e5760405162461bcd60e51b8152600401610299906111bc565b505b6001915061087a565b60b8811080159061076a575060c081105b156107e45760019590950180519095602081900360b7016101000a820480820160b519019450909160001a60b6198301816107b75760405162461bcd60e51b8152600401610299906110fc565b603783116107d75760405162461bcd60e51b8152600401610299906110dc565b600101935061087a915050565b60c081108015906107f5575060f881105b1561080a5760be19810192506001915061087a565b60019590950180519095602081900360f7016101000a820480820160f519019450909160001a60f6198301816108525760405162461bcd60e51b81526004016102999061115c565b603783116108725760405162461bcd60e51b81526004016102999061114c565b600101935050505b509092509050915091565b8061088f576108f4565b8060205b8083106108d6578451845260209485019490930192601f19909101908282106108ce5760405162461bcd60e51b81526004016102999061113c565b602001610893565b50835183516020929092036101000a60001901801990911691161782525b505050565b805160009061090a5750600061015f565b6020820151805160001a9060c08210156109295760009250505061015f565b5060019392505050565b60008060009050600061094984602001516106dc565b602086015186519193508084019250015b808210156109a057600061096d836106dc565b50928301929050818311156109945760405162461bcd60e51b81526004016102999061112c565b5060019093019261095a565b5091949350505050565b604051806040016040528060008152602001600081525090565b600082601f8301126109d557600080fd5b81356109e86109e382611223565b6111fc565b91508082526020830160208301858383011115610a0457600080fd5b610a0f83828461128a565b50505092915050565b600060208284031215610a2a57600080fd5b813567ffffffffffffffff811115610a4157600080fd5b610a4d848285016109c4565b949350505050565b6000610a618383610aea565b9392505050565b610a718161125e565b82525050565b6000610a8282611251565b610a8c8185611255565b935083602082028501610a9e8561124b565b8060005b858110156106675784840389528151610abb8582610a55565b9450610ac68361124b565b60209a909a0199925050600101610aa2565b610a7181611269565b610a718161127b565b6000610af582611251565b610aff8185611255565b9350610b0f818560208601611296565b610b18816112c6565b9093019392505050565b6000610b2f601983611255565b7f4c656164696e67207a65726f732061726520696e76616c696400000000000000815260200192915050565b6000610b68603a83611255565b7f4465636f646564206974656d206c656e677468206d757374206265206571756181527f6c20746f2074686520696e7075742064617461206c656e677468000000000000602082015260400192915050565b6000610bc7602083611255565b7f496e76616c6964206c656e67746820666f722061206c6f6e6720737472696e67815260200192915050565b6000610c00602683611255565b7f4465636f64656420524c50206c656e67746820666f72206c69737420697320698152651b9d985b1a5960d21b602082015260400192915050565b6000610c48603f83611255565b7f496e76616c6964206c656164696e67207a65726f7320696e206c656e6774682081527f6f6620746865206c656e67746820666f722061206c6f6e6720737472696e6700602082015260400192915050565b6000610ca7602283611255565b7f5363616c617220302073686f756c6420626520656e636f646564206173203078815261038360f41b602082015260400192915050565b6000610ceb601783611255565b7f4974656d206c656e677468206d757374206265203e2030000000000000000000815260200192915050565b6000610d24604883611255565b7f496e76616c6964206465636f646564206c656e677468206f6620524c5020697481527f656d20666f756e6420647572696e6720636f756e74696e67206974656d7320696020820152671b8818481b1a5cdd60c21b604082015260600192915050565b6000610d94602e83611255565b7f52656d61696e696e67206c656e677468206e6f74206c657373207468616e206f81526d0e4d2ced2dcc2d840d8cadccee8d60931b602082015260400192915050565b6000610de4601e83611255565b7f496e76616c6964206c656e67746820666f722061206c6f6e67206c6973740000815260200192915050565b6000610e1d603d83611255565b7f496e76616c6964206c656164696e67207a65726f7320696e206c656e6774682081527f6f6620746865206c656e67746820666f722061206c6f6e67206c697374000000602082015260400192915050565b6000610e7c601283611255565b71125d195b481a5cc81b9bdd0818481b1a5cdd60721b815260200192915050565b6000610eaa601783611255565b7f4974656d206d757374206e6f742062652061206c697374000000000000000000815260200192915050565b6000610ee3601d83611255565b7f4465636f64656420524c50206c656e67746820697320696e76616c6964000000815260200192915050565b6000610f1c601683611255565b754974656d206c656e677468206d75737420626520323160501b815260200192915050565b6000610f4e601e83611255565b7f4465636f646564206974656d206c656e677468206d7573742062652033330000815260200192915050565b6000610f87601d83611255565b7f496e76616c69642073686f727420737472696e6720656e636f64696e67000000815260200192915050565b6000610fc0601e83611255565b7f4465636f646564206974656d206c656e677468206d7573742062652032310000815260200192915050565b6000610ff9601683611255565b754974656d206c656e677468206d75737420626520333360501b815260200192915050565b600061102b602a83611255565b7f4974656d206c656e677468206d757374206265206265747765656e203120616e8152696420333320627974657360b01b602082015260400192915050565b602081016110788284610a68565b92915050565b60208082528101610a618184610a77565b602081016110788284610ad8565b602081016110788284610ae1565b60208082528101610a618184610aea565b6020808252810161015c81610b22565b6020808252810161015c81610b5b565b6020808252810161015c81610bba565b6020808252810161015c81610bf3565b6020808252810161015c81610c3b565b6020808252810161015c81610c9a565b6020808252810161015c81610cde565b6020808252810161015c81610d17565b6020808252810161015c81610d87565b6020808252810161015c81610dd7565b6020808252810161015c81610e10565b6020808252810161015c81610e6f565b6020808252810161015c81610e9d565b6020808252810161015c81610ed6565b6020808252810161015c81610f0f565b6020808252810161015c81610f41565b6020808252810161015c81610f7a565b6020808252810161015c81610fb3565b6020808252810161015c81610fec565b6020808252810161015c8161101e565b60405181810167ffffffffffffffff8111828210171561121b57600080fd5b604052919050565b600067ffffffffffffffff82111561123a57600080fd5b506020601f91909101601f19160190565b60200190565b5190565b90815260200190565b600061015c8261127e565b6bffffffffffffffffffffffff191690565b90565b6001600160a01b031690565b82818337506000910152565b60005b838110156112b1578181015183820152602001611299565b838111156112c0576000848401525b50505050565b601f01601f19169056fea365627a7a723158208103eedc1e9dd8c20406b98e756823bd4b158dc687cc5789acaa34ee34d31cd16c6578706572696d656e74616cf564736f6c634300050b0040",
  "source": "pragma solidity 0.5.11;\n\npragma experimental ABIEncoderV2;\n\nimport \"../../src/utils/RLPReader.sol\";\n\ncontract RLPMock {\n\n    using RLPReader for bytes;\n    using RLPReader for RLPReader.RLPItem;\n\n    uint8 constant internal WORD_SIZE = 32;\n\n    function decodeBytes32(bytes memory _data) public pure returns (bytes32) {\n        return _data.toRlpItem().toBytes32();\n    }\n\n    function decodeAddress(bytes memory _data) public pure returns (address) {\n        return _data.toRlpItem().toAddress();\n    }\n    \n    function decodeBytes20(bytes memory _data) public pure returns (bytes20) {\n        return bytes20(_data.toRlpItem().toAddress());\n    }\n\n    function decodeBytes(bytes memory _data) public pure returns (bytes memory) {\n        return toBytes(_data.toRlpItem());\n    }\n\n    function decodeUint(bytes memory _data) public pure returns (uint) {\n        return _data.toRlpItem().toUint();\n    }\n\n    function decodeInt(bytes memory _data) public pure returns (int) {\n        return int(_data.toRlpItem().toUint());\n    }\n\n    function decodeString(bytes memory _data) public pure returns (string memory) {\n        return string(toBytes(_data.toRlpItem()));\n    }\n\n    function decodeList(bytes memory _data) public pure returns (bytes[] memory) {\n\n        RLPReader.RLPItem[] memory items = _data.toRlpItem().toList();\n\n        bytes[] memory result =  new bytes[](items.length);\n        for (uint i = 0; i < items.length; i++) {\n            result[i] = toRlpBytes(items[i]);\n        }\n        return result;\n    }\n\n    function toBytes(RLPReader.RLPItem memory item) internal pure returns (bytes memory) {\n        require(item.len > 0, \"Item length must be > 0\");\n\n        (uint256 itemLen, uint256 offset) = RLPReader.decodeLengthAndOffset(item.memPtr);\n        require(itemLen == item.len, \"Decoded RLP length is invalid\");\n        uint len = itemLen - offset;\n        bytes memory result = new bytes(len);\n\n        uint destPtr;\n        // solhint-disable-next-line no-inline-assembly\n        assembly {\n            destPtr := add(0x20, result)\n        }\n\n        copyUnsafe(item.memPtr + offset, destPtr, len);\n        return result;\n    }\n\n    function copyUnsafe(uint src, uint dest, uint len) private pure {\n        if (len == 0) return;\n        uint remainingLength = len;\n\n        // copy as many word sizes as possible\n        for (uint i = WORD_SIZE; len >= i; i += WORD_SIZE) {\n            // solhint-disable-next-line no-inline-assembly\n            assembly {\n                mstore(dest, mload(src))\n            }\n\n            src += WORD_SIZE;\n            dest += WORD_SIZE;\n            remainingLength -= WORD_SIZE;\n            require(remainingLength < len, \"Remaining length not less than original length\");\n        }\n\n        // left over bytes. Mask is used to remove unwanted bytes from the word\n        uint mask = 256 ** (WORD_SIZE - remainingLength) - 1;\n\n        // solhint-disable-next-line no-inline-assembly\n        assembly {\n            let srcpart := and(mload(src), not(mask)) // zero out src\n            let destpart := and(mload(dest), mask) // retrieve the bytes\n            mstore(dest, or(destpart, srcpart))\n        }\n    }\n\n    function toRlpBytes(RLPReader.RLPItem memory item) internal pure returns (bytes memory) {\n        bytes memory result = new bytes(item.len);\n        if (result.length == 0) return result;\n\n        uint resultPtr;\n        // solhint-disable-next-line no-inline-assembly\n        assembly {\n            resultPtr := add(0x20, result)\n        }\n\n        copyUnsafe(item.memPtr, resultPtr, item.len);\n        return result;\n    }\n}\n",
  "sourcePath": "/home/node/plasma-contracts/plasma_framework/contracts/mocks/utils/RLPMock.sol",
  "compiler": {
    "name": "solc",
    "version": "0.5.11+commit.c082d0b4.Emscripten.clang"
  },
  "schemaVersion": "3.0.16",
  "updatedAt": "2020-04-07T14:07:49.620Z",
  "devdoc": {
    "methods": {}
  },
  "userdoc": {
    "methods": {}
  }
}