{
  "contractName": "RLPTest",
  "abi": [
    {
      "constant": true,
      "inputs": [
        {
          "internalType": "bytes",
          "name": "tx_bytes",
          "type": "bytes"
        }
      ],
      "name": "eight",
      "outputs": [
        {
          "internalType": "uint256",
          "name": "",
          "type": "uint256"
        },
        {
          "internalType": "address",
          "name": "",
          "type": "address"
        },
        {
          "internalType": "address",
          "name": "",
          "type": "address"
        }
      ],
      "payable": false,
      "stateMutability": "pure",
      "type": "function"
    },
    {
      "constant": true,
      "inputs": [
        {
          "internalType": "bytes",
          "name": "tx_bytes",
          "type": "bytes"
        }
      ],
      "name": "eleven",
      "outputs": [
        {
          "internalType": "uint256",
          "name": "",
          "type": "uint256"
        },
        {
          "internalType": "address",
          "name": "",
          "type": "address"
        },
        {
          "internalType": "address",
          "name": "",
          "type": "address"
        },
        {
          "internalType": "address",
          "name": "",
          "type": "address"
        }
      ],
      "payable": false,
      "stateMutability": "pure",
      "type": "function"
    }
  ],
  "bytecode": "0x608060405234801561001057600080fd5b50610c48806100206000396000f3fe608060405234801561001057600080fd5b50600436106100365760003560e01c806374eed5d01461003b5780638b994eb514610109575b600080fd5b6100e16004803603602081101561005157600080fd5b81019060208101813564010000000081111561006c57600080fd5b82018360208201111561007e57600080fd5b803590602001918460018302840111640100000000831117156100a057600080fd5b91908080601f0160208091040260200160405190810160405280939291908181526020018383808284376000920191909152509295506101e0945050505050565b604080519384526001600160a01b039283166020850152911682820152519081900360600190f35b6101af6004803603602081101561011f57600080fd5b81019060208101813564010000000081111561013a57600080fd5b82018360208201111561014c57600080fd5b8035906020019184600183028401116401000000008311171561016e57600080fd5b91908080601f016020809104026020016040519081016040528093929190818152602001838380828437600092019190915250929550610252945050505050565b604080519485526001600160a01b039384166020860152918316848301529091166060830152519081900360800190f35b600080600060606101f86101f3866102b8565b6102de565b90506102178160058151811061020a57fe5b6020026020010151610436565b6102348260068151811061022757fe5b602002602001015161060d565b6102448360078151811061022757fe5b935093509350509193909250565b60008060008060606102666101f3876102b8565b90506102788160078151811061020a57fe5b6102888260088151811061022757fe5b6102988360098151811061022757fe5b6102a884600a8151811061022757fe5b9450945094509450509193509193565b6102c0610a89565b5060408051808201909152815181526020828101908201525b919050565b60606102e982610733565b61032f576040805162461bcd60e51b8152602060048201526012602482015271125d195b481a5cc81b9bdd0818481b1a5cdd60721b604482015290519081900360640190fd5b60008061033f846020015161076d565b8551919350915082146103835760405162461bcd60e51b8152600401808060200182810382526026815260200180610ade6026913960400191505060405180910390fd5b600061038e856109f3565b90506060816040519080825280602002602001820160405280156103cc57816020015b6103b9610a89565b8152602001906001900390816103b15790505b50602087015190915083016000805b84811015610429576103ec8361076d565b508092505060405180604001604052808381526020018481525084828151811061041257fe5b6020908102919091010152918101916001016103db565b5091979650505050505050565b80516000901580159061044b57508151602110155b6104865760405162461bcd60e51b815260040180806020018281038252602a815260200180610bea602a913960400191505060405180910390fd5b61048f82610733565b156104db576040805162461bcd60e51b8152602060048201526017602482015276125d195b481b5d5cdd081b9bdd0818994818481b1a5cdd604a1b604482015290519081900360640190fd5b6000806104eb846020015161076d565b85519193509150821461052f5760405162461bcd60e51b815260040180806020018281038252603a815260200180610aa4603a913960400191505060405180910390fd5b60208085015182018051838503929091600083901a9184101561055957836020036101000a830492505b81158015610565575084155b156105a15760405162461bcd60e51b8152600401808060200182810382526022815260200180610b436022913960400191505060405180910390fd5b811580156105af5750600184115b15610601576040805162461bcd60e51b815260206004820152601960248201527f4c656164696e67207a65726f732061726520696e76616c696400000000000000604482015290519081900360640190fd5b50909695505050505050565b805160009060151461065f576040805162461bcd60e51b81526020600482015260166024820152754974656d206c656e677468206d75737420626520323160501b604482015290519081900360640190fd5b61066882610733565b156106b4576040805162461bcd60e51b8152602060048201526017602482015276125d195b481b5d5cdd081b9bdd0818994818481b1a5cdd604a1b604482015290519081900360640190fd5b6000806106c4846020015161076d565b915091508160151461071d576040805162461bcd60e51b815260206004820152601e60248201527f4465636f646564206974656d206c656e677468206d7573742062652032310000604482015290519081900360640190fd5b60208401510151600160601b9004915050919050565b8051600090610744575060006102d9565b6020820151805160001a9060c0821015610763576000925050506102d9565b5060019392505050565b8051600090819081908190811a60808110156107905760019250600091506109e8565b608081108015906107a1575060b881105b1561081f57607e1981019250600283141561081657600186015160001a6080811015610814576040805162461bcd60e51b815260206004820152601d60248201527f496e76616c69642073686f727420737472696e6720656e636f64696e67000000604482015290519081900360640190fd5b505b600191506109e8565b60b88110801590610830575060c081105b156108fe5760019590950180519095602081900360b7016101000a820480820160b519019450909160001a60b61983018161089c5760405162461bcd60e51b815260040180806020018281038252603f815260200180610b04603f913960400191505060405180910390fd5b603783116108f1576040805162461bcd60e51b815260206004820181905260248201527f496e76616c6964206c656e67746820666f722061206c6f6e6720737472696e67604482015290519081900360640190fd5b60010193506109e8915050565b60c0811080159061090f575060f881105b156109245760be1981019250600191506109e8565b60019590950180519095602081900360f7016101000a820480820160f519019450909160001a60f61983018161098b5760405162461bcd60e51b815260040180806020018281038252603d815260200180610bad603d913960400191505060405180910390fd5b603783116109e0576040805162461bcd60e51b815260206004820152601e60248201527f496e76616c6964206c656e67746820666f722061206c6f6e67206c6973740000604482015290519081900360640190fd5b600101935050505b509092509050915091565b600080600090506000610a09846020015161076d565b602086015186519193508084019250015b80821015610a7f576000610a2d8361076d565b5092830192905081831115610a735760405162461bcd60e51b8152600401808060200182810382526048815260200180610b656048913960600191505060405180910390fd5b50600190930192610a1a565b5091949350505050565b60405180604001604052806000815260200160008152509056fe4465636f646564206974656d206c656e677468206d75737420626520657175616c20746f2074686520696e7075742064617461206c656e6774684465636f64656420524c50206c656e67746820666f72206c69737420697320696e76616c6964496e76616c6964206c656164696e67207a65726f7320696e206c656e677468206f6620746865206c656e67746820666f722061206c6f6e6720737472696e675363616c617220302073686f756c6420626520656e636f6465642061732030783830496e76616c6964206465636f646564206c656e677468206f6620524c50206974656d20666f756e6420647572696e6720636f756e74696e67206974656d7320696e2061206c697374496e76616c6964206c656164696e67207a65726f7320696e206c656e677468206f6620746865206c656e67746820666f722061206c6f6e67206c6973744974656d206c656e677468206d757374206265206265747765656e203120616e64203333206279746573a265627a7a7231582038af8f2283b07bb33759902cd00471580ca2ec59574a18165731539e0f67897e64736f6c634300050b0032",
  "source": "pragma solidity ^0.5.0;\n\nimport \"../../src/utils/RLPReader.sol\";\n\n\n/**\n * @title RLPTest\n * @dev Contract for testing RLP decoding.\n */\ncontract RLPTest {\n    function eight(bytes memory tx_bytes)\n        public\n        pure\n        returns (uint256, address, address)\n    {\n        RLPReader.RLPItem[] memory txList = RLPReader.toList(RLPReader.toRlpItem(tx_bytes));\n        return (\n            RLPReader.toUint(txList[5]),\n            RLPReader.toAddress(txList[6]),\n            RLPReader.toAddress(txList[7])\n        );\n    }\n\n    function eleven(bytes memory tx_bytes)\n        public\n        pure\n        returns (uint256, address, address, address)\n    {\n        RLPReader.RLPItem[] memory  txList = RLPReader.toList(RLPReader.toRlpItem(tx_bytes));\n        return (\n            RLPReader.toUint(txList[7]),\n            RLPReader.toAddress(txList[8]),\n            RLPReader.toAddress(txList[9]),\n            RLPReader.toAddress(txList[10])\n        );\n    }\n}\n",
  "sourcePath": "/home/node/plasma-contracts/plasma_framework/contracts/mocks/python_tests_wrappers/RLPTest.sol",
  "compiler": {
    "name": "solc",
    "version": "0.5.11+commit.c082d0b4.Emscripten.clang"
  },
  "schemaVersion": "3.0.16",
  "updatedAt": "2020-04-07T14:07:49.568Z",
  "devdoc": {
    "details": "Contract for testing RLP decoding.",
    "methods": {},
    "title": "RLPTest"
  },
  "userdoc": {
    "methods": {}
  }
}