{
  "contractName": "SafeEthTransferMock",
  "abi": [
    {
      "constant": true,
      "inputs": [],
      "name": "transferResult",
      "outputs": [
        {
          "internalType": "bool",
          "name": "",
          "type": "bool"
        }
      ],
      "payable": false,
      "stateMutability": "view",
      "type": "function"
    },
    {
      "constant": false,
      "inputs": [
        {
          "internalType": "address payable",
          "name": "receiver",
          "type": "address"
        },
        {
          "internalType": "uint256",
          "name": "amount",
          "type": "uint256"
        },
        {
          "internalType": "uint256",
          "name": "gasStipend",
          "type": "uint256"
        }
      ],
      "name": "transferRevertOnError",
      "outputs": [],
      "payable": false,
      "stateMutability": "nonpayable",
      "type": "function"
    },
    {
      "constant": false,
      "inputs": [
        {
          "internalType": "address payable",
          "name": "receiver",
          "type": "address"
        },
        {
          "internalType": "uint256",
          "name": "amount",
          "type": "uint256"
        },
        {
          "internalType": "uint256",
          "name": "gasStipend",
          "type": "uint256"
        }
      ],
      "name": "transferReturnResult",
      "outputs": [],
      "payable": false,
      "stateMutability": "nonpayable",
      "type": "function"
    },
    {
      "constant": false,
      "inputs": [],
      "name": "setupInitialFundToTestTransfer",
      "outputs": [],
      "payable": true,
      "stateMutability": "payable",
      "type": "function"
    }
  ],
  "bytecode": "0x608060405234801561001057600080fd5b5061023f806100206000396000f3fe60806040526004361061003f5760003560e01c806356e7559c14610044578063c94472bc1461004e578063d6ba399614610077578063de45837a146100b6575b600080fd5b61004c6100f5565b005b34801561005a57600080fd5b506100636100f7565b604080519115158252519081900360200190f35b34801561008357600080fd5b5061004c6004803603606081101561009a57600080fd5b506001600160a01b038135169060208101359060400135610100565b3480156100c257600080fd5b5061004c600480360360608110156100d957600080fd5b506001600160a01b038135169060208101359060400135610121565b565b60005460ff1681565b61010b838383610131565b6000805460ff1916911515919091179055505050565b61012c838383610192565b505050565b60405160009081906001600160a01b038616908490869084818181858888f193505050503d8060008114610181576040519150601f19603f3d011682016040523d82523d6000602084013e610186565b606091505b50909695505050505050565b600061019f848484610131565b9050806101dd5760405162461bcd60e51b81526004018080602001828103825260278152602001806101e46027913960400191505060405180910390fd5b5050505056fe536166654574685472616e736665723a206661696c656420746f207472616e7366657220455448a265627a7a72315820c6b79c446af8c3ca4039e41d2e976cd2edcc2c6f5c90ca01687fb23d38d122a264736f6c634300050b0032",
  "source": "pragma solidity 0.5.11;\n\nimport \"../../src/utils/SafeEthTransfer.sol\";\n\ncontract SafeEthTransferMock {\n    bool public transferResult;\n\n    function transferRevertOnError(address payable receiver, uint256 amount, uint256 gasStipend)\n        public\n    {\n        SafeEthTransfer.transferRevertOnError(receiver, amount, gasStipend);\n    }\n\n    function transferReturnResult(address payable receiver, uint256 amount, uint256 gasStipend)\n        public\n    {\n        transferResult = SafeEthTransfer.transferReturnResult(receiver, amount, gasStipend);\n    }\n\n    /** helper function to pre-fund the contract to test */\n    function setupInitialFundToTestTransfer() external payable {}\n}\n",
  "sourcePath": "/home/node/plasma-contracts/plasma_framework/contracts/mocks/utils/SafeEthTransferMock.sol",
  "compiler": {
    "name": "solc",
    "version": "0.5.11+commit.c082d0b4.Emscripten.clang"
  },
  "schemaVersion": "3.0.16",
  "updatedAt": "2020-04-07T14:07:49.636Z",
  "devdoc": {
    "methods": {}
  },
  "userdoc": {
    "methods": {
      "setupInitialFundToTestTransfer()": {
        "notice": "helper function to pre-fund the contract to test "
      }
    }
  }
}