{
  "contractName": "SpendingConditionMock",
  "abi": [
    {
      "constant": false,
      "inputs": [
        {
          "internalType": "bool",
          "name": "result",
          "type": "bool"
        }
      ],
      "name": "mockResult",
      "outputs": [],
      "payable": false,
      "stateMutability": "nonpayable",
      "type": "function"
    },
    {
      "constant": false,
      "inputs": [],
      "name": "mockRevert",
      "outputs": [],
      "payable": false,
      "stateMutability": "nonpayable",
      "type": "function"
    },
    {
      "constant": false,
      "inputs": [
        {
          "components": [
            {
              "internalType": "bytes",
              "name": "inputTx",
              "type": "bytes"
            },
            {
              "internalType": "uint256",
              "name": "utxoPos",
              "type": "uint256"
            },
            {
              "internalType": "bytes",
              "name": "spendingTx",
              "type": "bytes"
            },
            {
              "internalType": "uint16",
              "name": "inputIndex",
              "type": "uint16"
            },
            {
              "internalType": "bytes",
              "name": "witness",
              "type": "bytes"
            }
          ],
          "internalType": "struct SpendingConditionMock.Args",
          "name": "args",
          "type": "tuple"
        }
      ],
      "name": "shouldVerifyArgumentEquals",
      "outputs": [],
      "payable": false,
      "stateMutability": "nonpayable",
      "type": "function"
    },
    {
      "constant": true,
      "inputs": [
        {
          "internalType": "bytes",
          "name": "inputTx",
          "type": "bytes"
        },
        {
          "internalType": "uint256",
          "name": "utxoPos",
          "type": "uint256"
        },
        {
          "internalType": "bytes",
          "name": "spendingTx",
          "type": "bytes"
        },
        {
          "internalType": "uint16",
          "name": "inputIndex",
          "type": "uint16"
        },
        {
          "internalType": "bytes",
          "name": "witness",
          "type": "bytes"
        }
      ],
      "name": "verify",
      "outputs": [
        {
          "internalType": "bool",
          "name": "",
          "type": "bool"
        }
      ],
      "payable": false,
      "stateMutability": "view",
      "type": "function"
    }
  ],
  "bytecode": "0x608060405234801561001057600080fd5b50610a11806100206000396000f3fe608060405234801561001057600080fd5b506004361061004c5760003560e01c80630e902e44146100515780637597d2261461006657806392f915c914610079578063e618a6f514610081575b600080fd5b61006461005f36600461052d565b6100aa565b005b61006461007436600461061c565b6100bd565b610064610138565b61009461008f366004610553565b610149565b6040516100a1919061087b565b60405180910390f35b6000805460ff1916911515919091179055565b8051805182916001916100d7918391602090910190610304565b506020828101516001830155604083015180516100fa9260028501920190610304565b50606082015160038201805461ffff191661ffff90921691909117905560808201518051610132916004840191602090910190610304565b50505050565b6000805461ff001916610100179055565b60008054610100900460ff16156101ae57604080518082018252601f81527f54657374207370656e64696e6720636f6e646974696f6e2072657665727473006020820152905162461bcd60e51b81526101a59190600401610889565b60405180910390fd5b6001805460029181161561010002600019011604156102f15788886040516101d792919061085b565b604051908190038120906101ed90600190610868565b6040518091039020146102125760405162461bcd60e51b81526004016101a5906108ca565b60025487146102335760405162461bcd60e51b81526004016101a5906108aa565b858560405161024392919061085b565b6040519081900381209061025990600390610868565b60405180910390201461027e5760405162461bcd60e51b81526004016101a5906108ba565b60045461ffff8581169116146102a65760405162461bcd60e51b81526004016101a59061089a565b82826040516102b692919061085b565b604051908190038120906102cc90600590610868565b6040518091039020146102f15760405162461bcd60e51b81526004016101a5906108da565b5060005460ff1698975050505050505050565b828054600181600116156101000203166002900490600052602060002090601f016020900481019282601f1061034557805160ff1916838001178555610372565b82800160010185558215610372579182015b82811115610372578251825591602001919060010190610357565b5061037e929150610382565b5090565b61039c91905b8082111561037e5760008155600101610388565b90565b80356103aa816109a5565b92915050565b60008083601f8401126103c257600080fd5b50813567ffffffffffffffff8111156103da57600080fd5b6020830191508360018202830111156103f257600080fd5b9250929050565b600082601f83011261040a57600080fd5b813561041d61041882610911565b6108ea565b9150808252602083016020830185838301111561043957600080fd5b610444838284610963565b50505092915050565b600060a0828403121561045f57600080fd5b61046960a06108ea565b9050813567ffffffffffffffff81111561048257600080fd5b61048e848285016103f9565b825250602061049f84848301610522565b602083015250604082013567ffffffffffffffff8111156104bf57600080fd5b6104cb848285016103f9565b60408301525060606104df84828501610517565b606083015250608082013567ffffffffffffffff8111156104ff57600080fd5b61050b848285016103f9565b60808301525092915050565b80356103aa816109bc565b80356103aa816109c5565b60006020828403121561053f57600080fd5b600061054b848461039f565b949350505050565b60008060008060008060008060a0898b03121561056f57600080fd5b883567ffffffffffffffff81111561058657600080fd5b6105928b828c016103b0565b985098505060206105a58b828c01610522565b965050604089013567ffffffffffffffff8111156105c257600080fd5b6105ce8b828c016103b0565b955095505060606105e18b828c01610517565b935050608089013567ffffffffffffffff8111156105fe57600080fd5b61060a8b828c016103b0565b92509250509295985092959890939650565b60006020828403121561062e57600080fd5b813567ffffffffffffffff81111561064557600080fd5b61054b8482850161044d565b61065a81610957565b82525050565b600061066c8385610949565b9350610679838584610963565b50500190565b60008154600181166000811461069c57600181146106bf576106fe565b607f60028304166106ad8187610949565b60ff19841681529550850192506106fe565b600282046106cd8187610949565b95506106d885610939565b60005b828110156106f7578154888201526001909101906020016106db565b5050850192505b505092915050565b600061071182610945565b61071b818561094e565b935061072b81856020860161096f565b6107348161099b565b9093019392505050565b600061074b601b8361094e565b7f696e70757420696e646578206e6f742061732065787065637465640000000000815260200192915050565b600061078460178361094e565b7f7574786f506f73206e6f74206173206578706563746564000000000000000000815260200192915050565b60006107bd601b8361094e565b7f7370656e64696e67207478206e6f742061732065787065637465640000000000815260200192915050565b60006107f660188361094e565b7f696e707574207478206e6f742061732065787065637465640000000000000000815260200192915050565b600061082f60178361094e565b7f7769746e657373206e6f74206173206578706563746564000000000000000000815260200192915050565b600061054b828486610660565b6000610874828461067f565b9392505050565b602081016103aa8284610651565b602080825281016108748184610706565b602080825281016103aa8161073e565b602080825281016103aa81610777565b602080825281016103aa816107b0565b602080825281016103aa816107e9565b602080825281016103aa81610822565b60405181810167ffffffffffffffff8111828210171561090957600080fd5b604052919050565b600067ffffffffffffffff82111561092857600080fd5b506020601f91909101601f19160190565b60009081526020902090565b5190565b919050565b90815260200190565b151590565b61ffff1690565b82818337506000910152565b60005b8381101561098a578181015183820152602001610972565b838111156101325750506000910152565b601f01601f191690565b6109ae81610957565b81146109b957600080fd5b50565b6109ae8161095c565b6109ae8161039c56fea365627a7a72315820bcabbdf2fa71bdf359417a0d3a2f5d38150a84c8c2ee90be9a56700d544b30336c6578706572696d656e74616cf564736f6c634300050b0040",
  "source": "pragma solidity 0.5.11;\npragma experimental ABIEncoderV2;\n\nimport \"../../src/exits/interfaces/ISpendingCondition.sol\";\n\ncontract SpendingConditionMock is ISpendingCondition {\n    bool internal expectedResult;\n    bool internal shouldRevert;\n    Args internal expectedArgs;\n\n    string constant internal REVERT_MESSAGE = \"Test spending condition reverts\";\n\n    struct Args {\n        bytes inputTx;\n        uint256 utxoPos;\n        bytes spendingTx;\n        uint16 inputIndex;\n        bytes witness;\n    }\n\n    /** mock what would \"verify()\" returns */\n    function mockResult(bool result) public {\n        expectedResult = result;\n    }\n\n    /** when called, the spending condition would always revert on purpose */\n    function mockRevert() public {\n        shouldRevert = true;\n    }\n\n    /** provide the expected args, it would check with the value called for \"verify()\" */\n    function shouldVerifyArgumentEquals(Args memory args) public {\n        expectedArgs = args;\n    }\n\n    /** override */\n    function verify(\n        bytes calldata inputTx,\n        uint256 utxoPos,\n        bytes calldata spendingTx,\n        uint16 inputIndex,\n        bytes calldata witness\n    )\n        external\n        view\n        returns (bool)\n    {\n        if (shouldRevert) {\n            revert(REVERT_MESSAGE);\n        }\n\n        // only run the check when \"shouldVerifyArgumentEqauals\" is called\n        if (expectedArgs.inputTx.length > 0) {\n            require(keccak256(expectedArgs.inputTx) == keccak256(inputTx), \"input tx not as expected\");\n            require(expectedArgs.utxoPos == utxoPos, \"utxoPos not as expected\");\n            require(keccak256(expectedArgs.spendingTx) == keccak256(spendingTx), \"spending tx not as expected\");\n            require(expectedArgs.inputIndex == inputIndex, \"input index not as expected\");\n            require(keccak256(expectedArgs.witness) == keccak256(witness), \"witness not as expected\");\n        }\n        return expectedResult;\n    }\n}\n",
  "sourcePath": "/home/node/plasma-contracts/plasma_framework/contracts/mocks/exits/SpendingConditionMock.sol",
  "compiler": {
    "name": "solc",
    "version": "0.5.11+commit.c082d0b4.Emscripten.clang"
  },
  "schemaVersion": "3.0.16",
  "updatedAt": "2020-04-07T14:07:49.444Z",
  "devdoc": {
    "methods": {}
  },
  "userdoc": {
    "methods": {
      "mockResult(bool)": {
        "notice": "mock what would \"verify()\" returns "
      },
      "mockRevert()": {
        "notice": "when called, the spending condition would always revert on purpose "
      },
      "shouldVerifyArgumentEquals((bytes,uint256,bytes,uint16,bytes))": {
        "notice": "provide the expected args, it would check with the value called for \"verify()\" "
      },
      "verify(bytes,uint256,bytes,uint16,bytes)": {
        "notice": "override "
      }
    }
  }
}