{
  "contractName": "SpendingConditionRegistry",
  "abi": [
    {
      "constant": false,
      "inputs": [],
      "name": "renounceOwnership",
      "outputs": [],
      "payable": false,
      "stateMutability": "nonpayable",
      "type": "function"
    },
    {
      "constant": true,
      "inputs": [],
      "name": "owner",
      "outputs": [
        {
          "internalType": "address",
          "name": "",
          "type": "address"
        }
      ],
      "payable": false,
      "stateMutability": "view",
      "type": "function"
    },
    {
      "constant": true,
      "inputs": [],
      "name": "isOwner",
      "outputs": [
        {
          "internalType": "bool",
          "name": "",
          "type": "bool"
        }
      ],
      "payable": false,
      "stateMutability": "view",
      "type": "function"
    },
    {
      "constant": false,
      "inputs": [
        {
          "internalType": "address",
          "name": "newOwner",
          "type": "address"
        }
      ],
      "name": "transferOwnership",
      "outputs": [],
      "payable": false,
      "stateMutability": "nonpayable",
      "type": "function"
    },
    {
      "anonymous": false,
      "inputs": [
        {
          "indexed": true,
          "internalType": "address",
          "name": "previousOwner",
          "type": "address"
        },
        {
          "indexed": true,
          "internalType": "address",
          "name": "newOwner",
          "type": "address"
        }
      ],
      "name": "OwnershipTransferred",
      "type": "event"
    },
    {
      "constant": true,
      "inputs": [
        {
          "internalType": "uint256",
          "name": "outputType",
          "type": "uint256"
        },
        {
          "internalType": "uint256",
          "name": "spendingTxType",
          "type": "uint256"
        }
      ],
      "name": "spendingConditions",
      "outputs": [
        {
          "internalType": "contract ISpendingCondition",
          "name": "",
          "type": "address"
        }
      ],
      "payable": false,
      "stateMutability": "view",
      "type": "function"
    },
    {
      "constant": false,
      "inputs": [
        {
          "internalType": "uint256",
          "name": "outputType",
          "type": "uint256"
        },
        {
          "internalType": "uint256",
          "name": "spendingTxType",
          "type": "uint256"
        },
        {
          "internalType": "contract ISpendingCondition",
          "name": "condition",
          "type": "address"
        }
      ],
      "name": "registerSpendingCondition",
      "outputs": [],
      "payable": false,
      "stateMutability": "nonpayable",
      "type": "function"
    }
  ],
  "bytecode": "0x60806040819052600080546001600160a01b03191633178082556001600160a01b0316917f8be0079c531659141344cd1fd0a4f28419497f9722a3daafe3b4186f6b6457e0908290a361062e806100576000396000f3fe608060405234801561001057600080fd5b50600436106100625760003560e01c806364f40d6f14610067578063715018a6146100a65780638da5cb5b146100b05780638f32d59b146100b8578063f2fde38b146100d4578063f9bd9402146100fa575b600080fd5b61008a6004803603604081101561007d57600080fd5b508035906020013561012c565b604080516001600160a01b039092168252519081900360200190f35b6100ae610172565b005b61008a610215565b6100c0610224565b604080519115158252519081900360200190f35b6100ae600480360360208110156100ea57600080fd5b50356001600160a01b0316610235565b6100ae6004803603606081101561011057600080fd5b50803590602081013590604001356001600160a01b031661029a565b604080516020808201859052818301849052825180830384018152606090920183528151918101919091206000908152600190915220546001600160a01b031692915050565b61017a610224565b6101cb576040805162461bcd60e51b815260206004820181905260248201527f4f776e61626c653a2063616c6c6572206973206e6f7420746865206f776e6572604482015290519081900360640190fd5b600080546040516001600160a01b03909116907f8be0079c531659141344cd1fd0a4f28419497f9722a3daafe3b4186f6b6457e0908390a3600080546001600160a01b0319169055565b6000546001600160a01b031690565b6000546001600160a01b0316331490565b61023d610224565b61028e576040805162461bcd60e51b815260206004820181905260248201527f4f776e61626c653a2063616c6c6572206973206e6f7420746865206f776e6572604482015290519081900360640190fd5b6102978161045d565b50565b6102a2610224565b6102f3576040805162461bcd60e51b815260206004820181905260248201527f4f776e61626c653a2063616c6c6572206973206e6f7420746865206f776e6572604482015290519081900360640190fd5b8261032f5760405162461bcd60e51b815260040180806020018281038252602c81526020018061055b602c913960400191505060405180910390fd5b8161036b5760405162461bcd60e51b815260040180806020018281038252603181526020018061052a6031913960400191505060405180910390fd5b610374816104fd565b6103af5760405162461bcd60e51b81526004018080602001828103825260358152602001806105c56035913960400191505060405180910390fd5b6040805160208082018690528183018590528251808303840181526060909201835281519181019190912060008181526001909252919020546001600160a01b03161561042d5760405162461bcd60e51b815260040180806020018281038252603e815260200180610587603e913960400191505060405180910390fd5b600090815260016020526040902080546001600160a01b0319166001600160a01b03929092169190911790555050565b6001600160a01b0381166104a25760405162461bcd60e51b81526004018080602001828103825260268152602001806105046026913960400191505060405180910390fd5b600080546040516001600160a01b03808516939216917f8be0079c531659141344cd1fd0a4f28419497f9722a3daafe3b4186f6b6457e091a3600080546001600160a01b0319166001600160a01b0392909216919091179055565b3b15159056fe4f776e61626c653a206e6577206f776e657220697320746865207a65726f2061646472657373526567697374726174696f6e206e6f7420706f737369626c652077697468207370656e64696e6720747820747970652030526567697374726174696f6e206e6f7420706f737369626c652077697468206f75747075742074797065203054686520286f757470757420747970652c207370656e64696e67207478207479706529207061697220697320616c72656164792072656769737465726564526567697374726174696f6e206e6f7420706f737369626c6520776974682061206e6f6e2d636f6e74726163742061646472657373a265627a7a72315820574280c4bd922207a00ac7969ef512b6c8c5a4686121cfd9b823dc87b246110b64736f6c634300050b0032",
  "source": "pragma solidity 0.5.11;\n\nimport \"openzeppelin-solidity/contracts/ownership/Ownable.sol\";\nimport \"openzeppelin-solidity/contracts/utils/Address.sol\";\n\nimport \"../interfaces/ISpendingCondition.sol\";\n\n/**\n * @title SpendingConditionRegistry\n * @notice The registry contracts of the spending condition\n * @dev This is designed to renounce ownership before injecting the registry contract to ExitGame contracts\n *      After registering all the essential condition contracts, the owner should renounce its ownership to\n *      ensure no further conditions are registered for an ExitGame contract.\n *      https://github.com/OpenZeppelin/openzeppelin-contracts/blob/master/contracts/ownership/Ownable.sol#L55\n */\ncontract SpendingConditionRegistry is Ownable {\n    // mapping of hash(outputType, spendingTxTpye) => ISpendingCondition\n    mapping(bytes32 => ISpendingCondition) internal _spendingConditions;\n\n    function spendingConditions(uint256 outputType, uint256 spendingTxType) public view returns (ISpendingCondition) {\n        bytes32 key = keccak256(abi.encode(outputType, spendingTxType));\n        return _spendingConditions[key];\n    }\n\n    /**\n     * @notice Register the spending condition contract\n     * @param outputType The output type of the spending condition\n     * @param spendingTxType Spending tx type of the spending condition\n     * @param condition The spending condition contract\n     */\n    function registerSpendingCondition(uint256 outputType, uint256 spendingTxType, ISpendingCondition condition)\n        public\n        onlyOwner\n    {\n        require(outputType != 0, \"Registration not possible with output type 0\");\n        require(spendingTxType != 0, \"Registration not possible with spending tx type 0\");\n        require(Address.isContract(address(condition)), \"Registration not possible with a non-contract address\");\n\n        bytes32 key = keccak256(abi.encode(outputType, spendingTxType));\n        require(address(_spendingConditions[key]) == address(0), \"The (output type, spending tx type) pair is already registered\");\n\n        _spendingConditions[key] = condition;\n    }\n}\n",
  "sourcePath": "/home/node/plasma-contracts/plasma_framework/contracts/src/exits/registries/SpendingConditionRegistry.sol",
  "compiler": {
    "name": "solc",
    "version": "0.5.11+commit.c082d0b4.Emscripten.clang"
  },
  "schemaVersion": "3.0.16",
  "updatedAt": "2020-04-07T14:09:34.352Z",
  "devdoc": {
    "details": "This is designed to renounce ownership before injecting the registry contract to ExitGame contracts     After registering all the essential condition contracts, the owner should renounce its ownership to     ensure no further conditions are registered for an ExitGame contract.     https://github.com/OpenZeppelin/openzeppelin-contracts/blob/master/contracts/ownership/Ownable.sol#L55",
    "methods": {
      "isOwner()": {
        "details": "Returns true if the caller is the current owner."
      },
      "owner()": {
        "details": "Returns the address of the current owner."
      },
      "registerSpendingCondition(uint256,uint256,address)": {
        "params": {
          "condition": "The spending condition contract",
          "outputType": "The output type of the spending condition",
          "spendingTxType": "Spending tx type of the spending condition"
        }
      },
      "renounceOwnership()": {
        "details": "Leaves the contract without owner. It will not be possible to call `onlyOwner` functions anymore. Can only be called by the current owner.     * > Note: Renouncing ownership will leave the contract without an owner, thereby removing any functionality that is only available to the owner."
      },
      "transferOwnership(address)": {
        "details": "Transfers ownership of the contract to a new account (`newOwner`). Can only be called by the current owner."
      }
    },
    "title": "SpendingConditionRegistry"
  },
  "userdoc": {
    "methods": {
      "registerSpendingCondition(uint256,uint256,address)": {
        "notice": "Register the spending condition contract"
      }
    },
    "notice": "The registry contracts of the spending condition"
  }
}