{
  "contractName": "SpyEthVaultForExitGame",
  "abi": [
    {
      "constant": true,
      "inputs": [
        {
          "internalType": "uint256",
          "name": "",
          "type": "uint256"
        }
      ],
      "name": "depositVerifiers",
      "outputs": [
        {
          "internalType": "address",
          "name": "",
          "type": "address"
        }
      ],
      "payable": false,
      "stateMutability": "view",
      "type": "function"
    },
    {
      "constant": false,
      "inputs": [
        {
          "internalType": "address",
          "name": "_verifier",
          "type": "address"
        }
      ],
      "name": "setDepositVerifier",
      "outputs": [],
      "payable": false,
      "stateMutability": "nonpayable",
      "type": "function"
    },
    {
      "constant": true,
      "inputs": [],
      "name": "SAFE_GAS_STIPEND",
      "outputs": [
        {
          "internalType": "uint256",
          "name": "",
          "type": "uint256"
        }
      ],
      "payable": false,
      "stateMutability": "view",
      "type": "function"
    },
    {
      "constant": true,
      "inputs": [],
      "name": "getEffectiveDepositVerifier",
      "outputs": [
        {
          "internalType": "address",
          "name": "",
          "type": "address"
        }
      ],
      "payable": false,
      "stateMutability": "view",
      "type": "function"
    },
    {
      "constant": false,
      "inputs": [
        {
          "internalType": "bytes",
          "name": "_depositTx",
          "type": "bytes"
        }
      ],
      "name": "deposit",
      "outputs": [],
      "payable": true,
      "stateMutability": "payable",
      "type": "function"
    },
    {
      "constant": true,
      "inputs": [],
      "name": "newDepositVerifierMaturityTimestamp",
      "outputs": [
        {
          "internalType": "uint256",
          "name": "",
          "type": "uint256"
        }
      ],
      "payable": false,
      "stateMutability": "view",
      "type": "function"
    },
    {
      "constant": true,
      "inputs": [],
      "name": "safeGasStipend",
      "outputs": [
        {
          "internalType": "uint256",
          "name": "",
          "type": "uint256"
        }
      ],
      "payable": false,
      "stateMutability": "view",
      "type": "function"
    },
    {
      "inputs": [
        {
          "internalType": "contract PlasmaFramework",
          "name": "_framework",
          "type": "address"
        }
      ],
      "payable": false,
      "stateMutability": "nonpayable",
      "type": "constructor"
    },
    {
      "anonymous": false,
      "inputs": [
        {
          "indexed": false,
          "internalType": "address",
          "name": "target",
          "type": "address"
        },
        {
          "indexed": false,
          "internalType": "uint256",
          "name": "amount",
          "type": "uint256"
        }
      ],
      "name": "EthWithdrawCalled",
      "type": "event"
    },
    {
      "anonymous": false,
      "inputs": [
        {
          "indexed": true,
          "internalType": "address",
          "name": "receiver",
          "type": "address"
        },
        {
          "indexed": false,
          "internalType": "uint256",
          "name": "amount",
          "type": "uint256"
        }
      ],
      "name": "EthWithdrawn",
      "type": "event"
    },
    {
      "anonymous": false,
      "inputs": [
        {
          "indexed": true,
          "internalType": "address",
          "name": "receiver",
          "type": "address"
        },
        {
          "indexed": false,
          "internalType": "uint256",
          "name": "amount",
          "type": "uint256"
        }
      ],
      "name": "WithdrawFailed",
      "type": "event"
    },
    {
      "anonymous": false,
      "inputs": [
        {
          "indexed": true,
          "internalType": "address",
          "name": "depositor",
          "type": "address"
        },
        {
          "indexed": true,
          "internalType": "uint256",
          "name": "blknum",
          "type": "uint256"
        },
        {
          "indexed": true,
          "internalType": "address",
          "name": "token",
          "type": "address"
        },
        {
          "indexed": false,
          "internalType": "uint256",
          "name": "amount",
          "type": "uint256"
        }
      ],
      "name": "DepositCreated",
      "type": "event"
    },
    {
      "anonymous": false,
      "inputs": [
        {
          "indexed": false,
          "internalType": "address",
          "name": "nextDepositVerifier",
          "type": "address"
        }
      ],
      "name": "SetDepositVerifierCalled",
      "type": "event"
    },
    {
      "constant": false,
      "inputs": [
        {
          "internalType": "address payable",
          "name": "_target",
          "type": "address"
        },
        {
          "internalType": "uint256",
          "name": "_amount",
          "type": "uint256"
        }
      ],
      "name": "withdraw",
      "outputs": [],
      "payable": false,
      "stateMutability": "nonpayable",
      "type": "function"
    }
  ],
  "bytecode": "0x60806040527f800000000000000000000000000000000000000000000000000000000000000060135534801561003457600080fd5b50604051610a57380380610a578339818101604052602081101561005757600080fd5b5051600080546001600160a01b0319166001600160a01b038316179055806108fc8161008161009c565b61008f906001906010610162565b5050601455506101d99050565b6100a46101a0565b6100ac6101a0565b6040805160006020808301829052602180840183905284518085039091018152604190930190935281519190920120905b601081101561015957818382601081106100f357fe5b60209081029190910191909152604080517f010000000000000000000000000000000000000000000000000000000000000081840152602181018590526041808201959095528151808203909501855260610190528251920191909120906001016100dd565b50909150505b90565b8260108101928215610190579160200282015b82811115610190578251825591602001919060010190610175565b5061019c9291506101bf565b5090565b6040518061020001604052806010906020820280388339509192915050565b61015f91905b8082111561019c57600081556001016101c5565b61086f806101e86000396000f3fe60806040526004361061007b5760003560e01c806398b1e06a1161004e57806398b1e06a14610137578063a7e5994f146101a7578063ccbd2176146101bc578063f3fef3a3146101d15761007b565b806302e9b07b146100805780632c6ce78b146100c6578063513f3132146100fb57806352518b7f14610122575b600080fd5b34801561008c57600080fd5b506100aa600480360360208110156100a357600080fd5b503561020a565b604080516001600160a01b039092168252519081900360200190f35b3480156100d257600080fd5b506100f9600480360360208110156100e957600080fd5b50356001600160a01b0316610227565b005b34801561010757600080fd5b50610110610459565b60408051918252519081900360200190f35b34801561012e57600080fd5b506100aa61045f565b6100f96004803603602081101561014d57600080fd5b81019060208101813564010000000081111561016857600080fd5b82018360208201111561017a57600080fd5b8035906020019184600183028401116401000000008311171561019c57600080fd5b50909250905061048e565b3480156101b357600080fd5b5061011061060d565b3480156101c857600080fd5b50610110610613565b3480156101dd57600080fd5b506100f9600480360360408110156101f457600080fd5b506001600160a01b038135169060200135610619565b6011816002811061021757fe5b01546001600160a01b0316905081565b6000809054906101000a90046001600160a01b03166001600160a01b0316634b0a72bc6040518163ffffffff1660e01b815260040160206040518083038186803b15801561027457600080fd5b505afa158015610288573d6000803e3d6000fd5b505050506040513d602081101561029e57600080fd5b5051336001600160a01b038216146102fd576040805162461bcd60e51b815260206004820152601e60248201527f43616c6c6572206164647265737320697320756e617574686f72697a65640000604482015290519081900360640190fd5b6001600160a01b0382166103425760405162461bcd60e51b815260040180806020018281038252602f8152602001806107eb602f913960400191505060405180910390fd5b6011546001600160a01b0316156103fd5761035b61045f565b601180546001600160a01b03199081166001600160a01b0393841617909155601280549091168483161790556000546040805163d4a2b4ef60e01b81529051919092169163d4a2b4ef916004808301926020929190829003018186803b1580156103c457600080fd5b505afa1580156103d8573d6000803e3d6000fd5b505050506040513d60208110156103ee57600080fd5b50516002024201601355610419565b601180546001600160a01b0319166001600160a01b0384161790555b604080516001600160a01b038416815290517f11e5a7570e0de4b31179f8c9cf5e8a1e6cfd23731ec7a5a06e3006d71dd321fd9181900360200190a15050565b6108fc81565b600060135442101561048257601160005b01546001600160a01b0316905061048b565b60116001610470565b90565b600061049861045f565b90506001600160a01b0381166104df5760405162461bcd60e51b815260040180806020018281038252602181526020018061081a6021913960400191505060405180910390fd5b806001600160a01b031663aee150c7848434336040518563ffffffff1660e01b81526004018080602001848152602001836001600160a01b03166001600160a01b031681526020018281038252868682818152602001925080828437600081840152601f19601f8201169050808301925050509550505050505060006040518083038186803b15801561057157600080fd5b505afa158015610585573d6000803e3d6000fd5b5050505060006105ca84848080601f01602080910402602001604051908101604052809392919081815260200183838082843760009201919091525061066192505050565b604080513481529051919250600091839133917f18569122d84f30025bb8dffb33563f1bdbfb9637f21552b11b8305686e9cb3079181900360200190a450505050565b60135481565b60145481565b604080516001600160a01b03841681526020810183905281517fee4487b5c1d45460b17ed59d36e9325b3a068eb57ceb61b537348bf9f2f80290929181900390910190a15050565b60008061066d836106f3565b60008054604080516317cb58d360e31b815260048101859052905193945091926001600160a01b039091169163be5ac69891602480830192602092919082900301818787803b1580156106bf57600080fd5b505af11580156106d3573d6000803e3d6000fd5b505050506040513d60208110156106e957600080fd5b5051949350505050565b60405160006020808301828152845192938493849387939260210191908401908083835b602083106107365780518252601f199092019160209182019101610717565b6001836020036101000a0380198251168184511680821785525050505050509050019250505060405160208183030381529060405280519060200120905060008090505b60108110156107e357600160f81b826001836010811061079657fe5b0154604080516001600160f81b031990941660208086019190915260218501939093526041808501929092528051808503909201825260619093019092528151910120915060010161077a565b509291505056fe43616e6e6f742073657420616e20656d7074792061646472657373206173206465706f7369742076657269666965724465706f73697420766572696669657220686173206e6f74206265656e20736574a265627a7a7231582077deb80575e6cfe6247927f8747956ecd32682dacc7d70b2af359de0e060f63e64736f6c634300050b0032",
  "source": "pragma solidity 0.5.11;\n\nimport \"../../../src/vaults/EthVault.sol\";\nimport \"../../../src/framework/PlasmaFramework.sol\";\n\ncontract SpyEthVaultForExitGame is EthVault {\n    uint256 public constant SAFE_GAS_STIPEND = 2300;\n\n    event EthWithdrawCalled(\n        address target,\n        uint256 amount\n    );\n\n    constructor(PlasmaFramework _framework) public EthVault(_framework, SAFE_GAS_STIPEND) {}\n\n    /** override for test */\n    function withdraw(address payable _target, uint256 _amount) external {\n        emit EthWithdrawCalled(_target, _amount);\n    }\n}\n",
  "sourcePath": "/home/node/plasma-contracts/plasma_framework/contracts/mocks/exits/dummyVaults/SpyEthVaultForExitGame.sol",
  "compiler": {
    "name": "solc",
    "version": "0.5.11+commit.c082d0b4.Emscripten.clang"
  },
  "schemaVersion": "3.0.16",
  "updatedAt": "2020-04-07T14:07:49.483Z",
  "devdoc": {
    "methods": {
      "deposit(bytes)": {
        "params": {
          "_depositTx": "RLP-encoded transaction to act as the deposit"
        }
      },
      "getEffectiveDepositVerifier()": {
        "return": "Contract address of the deposit verifier"
      },
      "setDepositVerifier(address)": {
        "details": "emit SetDepositVerifierCalledWhen one contract is already set, the next one is effective after 2 * MIN_EXIT_PERIOD.     This is to protect deposit transactions already in mempool,     and also make sure user only needs to SE within first week when invalid vault is registered.     *      see: https://github.com/omisego/plasma-contracts/issues/412          https://github.com/omisego/plasma-contracts/issues/173",
        "params": {
          "_verifier": "Address of the verifier contract"
        }
      }
    }
  },
  "userdoc": {
    "methods": {
      "deposit(bytes)": {
        "notice": "Allows a user to deposit ETH into the contract Once the deposit is recognized, the owner may transact on the OmiseGO Network"
      },
      "getEffectiveDepositVerifier()": {
        "notice": "Retrieves the currently effective deposit verifier contract address"
      },
      "setDepositVerifier(address)": {
        "notice": "Sets the deposit verifier contract, which may be called only by the operator"
      },
      "withdraw(address,uint256)": {
        "notice": "override for test "
      }
    }
  }
}