{
  "contractName": "SpyErc20VaultForExitGame",
  "abi": [
    {
      "constant": true,
      "inputs": [
        {
          "internalType": "uint256",
          "name": "",
          "type": "uint256"
        }
      ],
      "name": "depositVerifiers",
      "outputs": [
        {
          "internalType": "address",
          "name": "",
          "type": "address"
        }
      ],
      "payable": false,
      "stateMutability": "view",
      "type": "function"
    },
    {
      "constant": false,
      "inputs": [
        {
          "internalType": "address",
          "name": "_verifier",
          "type": "address"
        }
      ],
      "name": "setDepositVerifier",
      "outputs": [],
      "payable": false,
      "stateMutability": "nonpayable",
      "type": "function"
    },
    {
      "constant": true,
      "inputs": [],
      "name": "getEffectiveDepositVerifier",
      "outputs": [
        {
          "internalType": "address",
          "name": "",
          "type": "address"
        }
      ],
      "payable": false,
      "stateMutability": "view",
      "type": "function"
    },
    {
      "constant": false,
      "inputs": [
        {
          "internalType": "bytes",
          "name": "depositTx",
          "type": "bytes"
        }
      ],
      "name": "deposit",
      "outputs": [],
      "payable": false,
      "stateMutability": "nonpayable",
      "type": "function"
    },
    {
      "constant": true,
      "inputs": [],
      "name": "newDepositVerifierMaturityTimestamp",
      "outputs": [
        {
          "internalType": "uint256",
          "name": "",
          "type": "uint256"
        }
      ],
      "payable": false,
      "stateMutability": "view",
      "type": "function"
    },
    {
      "inputs": [
        {
          "internalType": "contract PlasmaFramework",
          "name": "_framework",
          "type": "address"
        }
      ],
      "payable": false,
      "stateMutability": "nonpayable",
      "type": "constructor"
    },
    {
      "anonymous": false,
      "inputs": [
        {
          "indexed": false,
          "internalType": "address",
          "name": "target",
          "type": "address"
        },
        {
          "indexed": false,
          "internalType": "address",
          "name": "token",
          "type": "address"
        },
        {
          "indexed": false,
          "internalType": "uint256",
          "name": "amount",
          "type": "uint256"
        }
      ],
      "name": "Erc20WithdrawCalled",
      "type": "event"
    },
    {
      "anonymous": false,
      "inputs": [
        {
          "indexed": true,
          "internalType": "address",
          "name": "receiver",
          "type": "address"
        },
        {
          "indexed": true,
          "internalType": "address",
          "name": "token",
          "type": "address"
        },
        {
          "indexed": false,
          "internalType": "uint256",
          "name": "amount",
          "type": "uint256"
        }
      ],
      "name": "Erc20Withdrawn",
      "type": "event"
    },
    {
      "anonymous": false,
      "inputs": [
        {
          "indexed": true,
          "internalType": "address",
          "name": "depositor",
          "type": "address"
        },
        {
          "indexed": true,
          "internalType": "uint256",
          "name": "blknum",
          "type": "uint256"
        },
        {
          "indexed": true,
          "internalType": "address",
          "name": "token",
          "type": "address"
        },
        {
          "indexed": false,
          "internalType": "uint256",
          "name": "amount",
          "type": "uint256"
        }
      ],
      "name": "DepositCreated",
      "type": "event"
    },
    {
      "anonymous": false,
      "inputs": [
        {
          "indexed": false,
          "internalType": "address",
          "name": "nextDepositVerifier",
          "type": "address"
        }
      ],
      "name": "SetDepositVerifierCalled",
      "type": "event"
    },
    {
      "constant": false,
      "inputs": [
        {
          "internalType": "address payable",
          "name": "_target",
          "type": "address"
        },
        {
          "internalType": "address",
          "name": "_token",
          "type": "address"
        },
        {
          "internalType": "uint256",
          "name": "_amount",
          "type": "uint256"
        }
      ],
      "name": "withdraw",
      "outputs": [],
      "payable": false,
      "stateMutability": "nonpayable",
      "type": "function"
    }
  ],
  "bytecode": "0x60806040527f800000000000000000000000000000000000000000000000000000000000000060135534801561003457600080fd5b50604051610c63380380610c638339818101604052602081101561005757600080fd5b5051600080546001600160a01b0319166001600160a01b038316179055808061007e610095565b61008c90600190601061015b565b505050506101d2565b61009d610199565b6100a5610199565b6040805160006020808301829052602180840183905284518085039091018152604190930190935281519190920120905b601081101561015257818382601081106100ec57fe5b60209081029190910191909152604080517f010000000000000000000000000000000000000000000000000000000000000081840152602181018590526041808201959095528151808203909501855260610190528251920191909120906001016100d6565b50909150505b90565b8260108101928215610189579160200282015b8281111561018957825182559160200191906001019061016e565b506101959291506101b8565b5090565b6040518061020001604052806010906020820280388339509192915050565b61015891905b8082111561019557600081556001016101be565b610a82806101e16000396000f3fe608060405234801561001057600080fd5b50600436106100625760003560e01c806302e9b07b146100675780632c6ce78b146100a057806352518b7f146100c857806398b1e06a146100d0578063a7e5994f14610140578063d9caed121461015a575b600080fd5b6100846004803603602081101561007d57600080fd5b5035610190565b604080516001600160a01b039092168252519081900360200190f35b6100c6600480360360208110156100b657600080fd5b50356001600160a01b03166101ad565b005b6100846103df565b6100c6600480360360208110156100e657600080fd5b81019060208101813564010000000081111561010157600080fd5b82018360208201111561011357600080fd5b8035906020019184600183028401116401000000008311171561013557600080fd5b50909250905061040e565b6101486105d7565b60408051918252519081900360200190f35b6100c66004803603606081101561017057600080fd5b506001600160a01b038135811691602081013590911690604001356105dd565b6011816002811061019d57fe5b01546001600160a01b0316905081565b6000809054906101000a90046001600160a01b03166001600160a01b0316634b0a72bc6040518163ffffffff1660e01b815260040160206040518083038186803b1580156101fa57600080fd5b505afa15801561020e573d6000803e3d6000fd5b505050506040513d602081101561022457600080fd5b5051336001600160a01b03821614610283576040805162461bcd60e51b815260206004820152601e60248201527f43616c6c6572206164647265737320697320756e617574686f72697a65640000604482015290519081900360640190fd5b6001600160a01b0382166102c85760405162461bcd60e51b815260040180806020018281038252602f8152602001806109d4602f913960400191505060405180910390fd5b6011546001600160a01b031615610383576102e16103df565b601180546001600160a01b03199081166001600160a01b0393841617909155601280549091168483161790556000546040805163d4a2b4ef60e01b81529051919092169163d4a2b4ef916004808301926020929190829003018186803b15801561034a57600080fd5b505afa15801561035e573d6000803e3d6000fd5b505050506040513d602081101561037457600080fd5b5051600202420160135561039f565b601180546001600160a01b0319166001600160a01b0384161790555b604080516001600160a01b038416815290517f11e5a7570e0de4b31179f8c9cf5e8a1e6cfd23731ec7a5a06e3006d71dd321fd9181900360200190a15050565b600060135442101561040257601160005b01546001600160a01b0316905061040b565b601160016103f0565b90565b60006104186103df565b90506001600160a01b03811661045f5760405162461bcd60e51b8152600401808060200182810382526021815260200180610a036021913960400191505060405180910390fd5b604051635970e69f60e11b81523360248201819052306044830181905260606004840190815260648401869052600093849384936001600160a01b0388169363b2e1cd3e938b938b93909290918190608401868680828437600081840152601f19601f8201169050808301925050509550505050505060606040518083038186803b1580156104ed57600080fd5b505afa158015610501573d6000803e3d6000fd5b505050506040513d606081101561051757600080fd5b508051602082015160409092015190945090925090506105486001600160a01b03831684308463ffffffff61062c16565b600061058987878080601f01602080910402602001604051908101604052809392919081815260200183838082843760009201919091525061068c92505050565b6040805184815290519192506001600160a01b03851691839133917f18569122d84f30025bb8dffb33563f1bdbfb9637f21552b11b8305686e9cb3079181900360200190a450505050505050565b60135481565b604080516001600160a01b0380861682528416602082015280820183905290517fe1469931d6dd8928ce1b86d671025f02f8a93532fbca0357d8c256f95bb1c9019181900360600190a1505050565b604080516001600160a01b0385811660248301528416604482015260648082018490528251808303909101815260849091019091526020810180516001600160e01b03166323b872dd60e01b17905261068690859061071e565b50505050565b600080610698836108d6565b60008054604080516317cb58d360e31b815260048101859052905193945091926001600160a01b039091169163be5ac69891602480830192602092919082900301818787803b1580156106ea57600080fd5b505af11580156106fe573d6000803e3d6000fd5b505050506040513d602081101561071457600080fd5b5051949350505050565b610730826001600160a01b03166109cd565b610781576040805162461bcd60e51b815260206004820152601f60248201527f5361666545524332303a2063616c6c20746f206e6f6e2d636f6e747261637400604482015290519081900360640190fd5b60006060836001600160a01b0316836040518082805190602001908083835b602083106107bf5780518252601f1990920191602091820191016107a0565b6001836020036101000a0380198251168184511680821785525050505050509050019150506000604051808303816000865af19150503d8060008114610821576040519150601f19603f3d011682016040523d82523d6000602084013e610826565b606091505b50915091508161087d576040805162461bcd60e51b815260206004820181905260248201527f5361666545524332303a206c6f772d6c6576656c2063616c6c206661696c6564604482015290519081900360640190fd5b8051156106865780806020019051602081101561089957600080fd5b50516106865760405162461bcd60e51b815260040180806020018281038252602a815260200180610a24602a913960400191505060405180910390fd5b60405160006020808301828152845192938493849387939260210191908401908083835b602083106109195780518252601f1990920191602091820191016108fa565b6001836020036101000a0380198251168184511680821785525050505050509050019250505060405160208183030381529060405280519060200120905060008090505b60108110156109c657600160f81b826001836010811061097957fe5b0154604080516001600160f81b031990941660208086019190915260218501939093526041808501929092528051808503909201825260619093019092528151910120915060010161095d565b5092915050565b3b15159056fe43616e6e6f742073657420616e20656d7074792061646472657373206173206465706f7369742076657269666965724465706f73697420766572696669657220686173206e6f74206265656e207365745361666545524332303a204552433230206f7065726174696f6e20646964206e6f742073756363656564a265627a7a72315820cf9377c13d3f9da195a221173d5dccb238ffbfd7181d974c79c75e88be4381e064736f6c634300050b0032",
  "source": "pragma solidity 0.5.11;\n\nimport \"../../../src/vaults/Erc20Vault.sol\";\nimport \"../../../src/framework/PlasmaFramework.sol\";\n\ncontract SpyErc20VaultForExitGame is Erc20Vault {\n    event Erc20WithdrawCalled(\n        address target,\n        address token,\n        uint256 amount\n    );\n\n    constructor(PlasmaFramework _framework) public Erc20Vault(_framework) {}\n\n    /** override for test */\n    function withdraw(address payable _target, address _token, uint256 _amount) external {\n        emit Erc20WithdrawCalled(_target, _token, _amount);\n    }\n}\n",
  "sourcePath": "/home/node/plasma-contracts/plasma_framework/contracts/mocks/exits/dummyVaults/SpyErc20VaultForExitGame.sol",
  "compiler": {
    "name": "solc",
    "version": "0.5.11+commit.c082d0b4.Emscripten.clang"
  },
  "schemaVersion": "3.0.16",
  "updatedAt": "2020-04-07T14:07:49.481Z",
  "devdoc": {
    "methods": {
      "deposit(bytes)": {
        "params": {
          "depositTx": "RLP-encoded transaction to act as the deposit"
        }
      },
      "getEffectiveDepositVerifier()": {
        "return": "Contract address of the deposit verifier"
      },
      "setDepositVerifier(address)": {
        "details": "emit SetDepositVerifierCalledWhen one contract is already set, the next one is effective after 2 * MIN_EXIT_PERIOD.     This is to protect deposit transactions already in mempool,     and also make sure user only needs to SE within first week when invalid vault is registered.     *      see: https://github.com/omisego/plasma-contracts/issues/412          https://github.com/omisego/plasma-contracts/issues/173",
        "params": {
          "_verifier": "Address of the verifier contract"
        }
      }
    }
  },
  "userdoc": {
    "methods": {
      "deposit(bytes)": {
        "notice": "Deposits approved amount of ERC20 token(s) into the contract Once the deposit is recognized, the owner (depositor) can transact on the OmiseGO Network The approve function of the ERC20 token contract must be called before calling this function for at least the amount that is deposited into the contract"
      },
      "getEffectiveDepositVerifier()": {
        "notice": "Retrieves the currently effective deposit verifier contract address"
      },
      "setDepositVerifier(address)": {
        "notice": "Sets the deposit verifier contract, which may be called only by the operator"
      },
      "withdraw(address,address,uint256)": {
        "notice": "override for test "
      }
    }
  }
}