{
  "contractName": "SpyPlasmaFrameworkForExitGame",
  "abi": [
    {
      "constant": true,
      "inputs": [],
      "name": "getVersion",
      "outputs": [
        {
          "internalType": "string",
          "name": "",
          "type": "string"
        }
      ],
      "payable": false,
      "stateMutability": "view",
      "type": "function"
    },
    {
      "constant": true,
      "inputs": [],
      "name": "isChildChainActivated",
      "outputs": [
        {
          "internalType": "bool",
          "name": "",
          "type": "bool"
        }
      ],
      "payable": false,
      "stateMutability": "view",
      "type": "function"
    },
    {
      "constant": true,
      "inputs": [
        {
          "internalType": "uint256",
          "name": "vaultId",
          "type": "uint256"
        },
        {
          "internalType": "address",
          "name": "token",
          "type": "address"
        }
      ],
      "name": "getNextExit",
      "outputs": [
        {
          "internalType": "uint256",
          "name": "",
          "type": "uint256"
        }
      ],
      "payable": false,
      "stateMutability": "view",
      "type": "function"
    },
    {
      "constant": true,
      "inputs": [
        {
          "internalType": "bytes32",
          "name": "",
          "type": "bytes32"
        }
      ],
      "name": "exitsQueues",
      "outputs": [
        {
          "internalType": "contract PriorityQueue",
          "name": "",
          "type": "address"
        }
      ],
      "payable": false,
      "stateMutability": "view",
      "type": "function"
    },
    {
      "constant": true,
      "inputs": [],
      "name": "childBlockInterval",
      "outputs": [
        {
          "internalType": "uint256",
          "name": "",
          "type": "uint256"
        }
      ],
      "payable": false,
      "stateMutability": "view",
      "type": "function"
    },
    {
      "constant": false,
      "inputs": [
        {
          "internalType": "uint256",
          "name": "vaultId",
          "type": "uint256"
        },
        {
          "internalType": "address",
          "name": "token",
          "type": "address"
        }
      ],
      "name": "addExitQueue",
      "outputs": [],
      "payable": false,
      "stateMutability": "nonpayable",
      "type": "function"
    },
    {
      "constant": true,
      "inputs": [],
      "name": "getMaintainer",
      "outputs": [
        {
          "internalType": "address",
          "name": "",
          "type": "address"
        }
      ],
      "payable": false,
      "stateMutability": "view",
      "type": "function"
    },
    {
      "constant": true,
      "inputs": [],
      "name": "nextChildBlock",
      "outputs": [
        {
          "internalType": "uint256",
          "name": "",
          "type": "uint256"
        }
      ],
      "payable": false,
      "stateMutability": "view",
      "type": "function"
    },
    {
      "constant": false,
      "inputs": [],
      "name": "deactivateNonReentrant",
      "outputs": [],
      "payable": false,
      "stateMutability": "nonpayable",
      "type": "function"
    },
    {
      "constant": true,
      "inputs": [],
      "name": "enqueuedCount",
      "outputs": [
        {
          "internalType": "uint256",
          "name": "",
          "type": "uint256"
        }
      ],
      "payable": false,
      "stateMutability": "view",
      "type": "function"
    },
    {
      "constant": true,
      "inputs": [],
      "name": "version",
      "outputs": [
        {
          "internalType": "string",
          "name": "",
          "type": "string"
        }
      ],
      "payable": false,
      "stateMutability": "view",
      "type": "function"
    },
    {
      "constant": true,
      "inputs": [
        {
          "internalType": "address",
          "name": "_contract",
          "type": "address"
        }
      ],
      "name": "isExitGameSafeToUse",
      "outputs": [
        {
          "internalType": "bool",
          "name": "",
          "type": "bool"
        }
      ],
      "payable": false,
      "stateMutability": "view",
      "type": "function"
    },
    {
      "constant": false,
      "inputs": [
        {
          "internalType": "uint256",
          "name": "_vaultId",
          "type": "uint256"
        },
        {
          "internalType": "address",
          "name": "_vaultAddress",
          "type": "address"
        }
      ],
      "name": "registerVault",
      "outputs": [],
      "payable": false,
      "stateMutability": "nonpayable",
      "type": "function"
    },
    {
      "constant": false,
      "inputs": [
        {
          "internalType": "bytes32",
          "name": "outputId",
          "type": "bytes32"
        },
        {
          "internalType": "uint160",
          "name": "exitId",
          "type": "uint160"
        }
      ],
      "name": "flagOutputFinalized",
      "outputs": [],
      "payable": false,
      "stateMutability": "nonpayable",
      "type": "function"
    },
    {
      "constant": true,
      "inputs": [
        {
          "internalType": "bytes32",
          "name": "",
          "type": "bytes32"
        }
      ],
      "name": "outputsFinalizations",
      "outputs": [
        {
          "internalType": "uint160",
          "name": "",
          "type": "uint160"
        }
      ],
      "payable": false,
      "stateMutability": "view",
      "type": "function"
    },
    {
      "constant": false,
      "inputs": [
        {
          "internalType": "string",
          "name": "_version",
          "type": "string"
        }
      ],
      "name": "setVersion",
      "outputs": [],
      "payable": false,
      "stateMutability": "nonpayable",
      "type": "function"
    },
    {
      "constant": true,
      "inputs": [],
      "name": "nextDepositBlock",
      "outputs": [
        {
          "internalType": "uint256",
          "name": "",
          "type": "uint256"
        }
      ],
      "payable": false,
      "stateMutability": "view",
      "type": "function"
    },
    {
      "constant": true,
      "inputs": [
        {
          "internalType": "uint256",
          "name": "_txType",
          "type": "uint256"
        }
      ],
      "name": "protocols",
      "outputs": [
        {
          "internalType": "uint8",
          "name": "",
          "type": "uint8"
        }
      ],
      "payable": false,
      "stateMutability": "view",
      "type": "function"
    },
    {
      "constant": true,
      "inputs": [
        {
          "internalType": "uint256",
          "name": "_vaultId",
          "type": "uint256"
        }
      ],
      "name": "vaults",
      "outputs": [
        {
          "internalType": "address",
          "name": "",
          "type": "address"
        }
      ],
      "payable": false,
      "stateMutability": "view",
      "type": "function"
    },
    {
      "constant": true,
      "inputs": [
        {
          "internalType": "bytes32",
          "name": "outputId",
          "type": "bytes32"
        }
      ],
      "name": "isOutputFinalized",
      "outputs": [
        {
          "internalType": "bool",
          "name": "",
          "type": "bool"
        }
      ],
      "payable": false,
      "stateMutability": "view",
      "type": "function"
    },
    {
      "constant": false,
      "inputs": [
        {
          "internalType": "bytes32[]",
          "name": "outputIds",
          "type": "bytes32[]"
        },
        {
          "internalType": "uint160",
          "name": "exitId",
          "type": "uint160"
        }
      ],
      "name": "batchFlagOutputsFinalized",
      "outputs": [],
      "payable": false,
      "stateMutability": "nonpayable",
      "type": "function"
    },
    {
      "constant": false,
      "inputs": [],
      "name": "activateChildChain",
      "outputs": [],
      "payable": false,
      "stateMutability": "nonpayable",
      "type": "function"
    },
    {
      "constant": true,
      "inputs": [
        {
          "internalType": "address",
          "name": "_exitGame",
          "type": "address"
        }
      ],
      "name": "exitGameToTxType",
      "outputs": [
        {
          "internalType": "uint256",
          "name": "",
          "type": "uint256"
        }
      ],
      "payable": false,
      "stateMutability": "view",
      "type": "function"
    },
    {
      "constant": true,
      "inputs": [],
      "name": "CHILD_BLOCK_INTERVAL",
      "outputs": [
        {
          "internalType": "uint256",
          "name": "",
          "type": "uint256"
        }
      ],
      "payable": false,
      "stateMutability": "view",
      "type": "function"
    },
    {
      "constant": true,
      "inputs": [],
      "name": "nextDeposit",
      "outputs": [
        {
          "internalType": "uint256",
          "name": "",
          "type": "uint256"
        }
      ],
      "payable": false,
      "stateMutability": "view",
      "type": "function"
    },
    {
      "constant": true,
      "inputs": [
        {
          "internalType": "uint256",
          "name": "_txType",
          "type": "uint256"
        }
      ],
      "name": "exitGames",
      "outputs": [
        {
          "internalType": "address",
          "name": "",
          "type": "address"
        }
      ],
      "payable": false,
      "stateMutability": "view",
      "type": "function"
    },
    {
      "constant": false,
      "inputs": [
        {
          "internalType": "bytes32",
          "name": "_blockRoot",
          "type": "bytes32"
        }
      ],
      "name": "submitBlock",
      "outputs": [],
      "payable": false,
      "stateMutability": "nonpayable",
      "type": "function"
    },
    {
      "constant": false,
      "inputs": [
        {
          "internalType": "bytes32",
          "name": "_blockRoot",
          "type": "bytes32"
        }
      ],
      "name": "submitDepositBlock",
      "outputs": [
        {
          "internalType": "uint256",
          "name": "",
          "type": "uint256"
        }
      ],
      "payable": false,
      "stateMutability": "nonpayable",
      "type": "function"
    },
    {
      "constant": true,
      "inputs": [],
      "name": "authority",
      "outputs": [
        {
          "internalType": "address",
          "name": "",
          "type": "address"
        }
      ],
      "payable": false,
      "stateMutability": "view",
      "type": "function"
    },
    {
      "constant": true,
      "inputs": [
        {
          "internalType": "bytes32[]",
          "name": "_outputIds",
          "type": "bytes32[]"
        },
        {
          "internalType": "uint160",
          "name": "exitId",
          "type": "uint160"
        }
      ],
      "name": "isAnyInputFinalizedByOtherExit",
      "outputs": [
        {
          "internalType": "bool",
          "name": "",
          "type": "bool"
        }
      ],
      "payable": false,
      "stateMutability": "view",
      "type": "function"
    },
    {
      "constant": true,
      "inputs": [
        {
          "internalType": "uint256",
          "name": "vaultId",
          "type": "uint256"
        },
        {
          "internalType": "address",
          "name": "token",
          "type": "address"
        }
      ],
      "name": "hasExitQueue",
      "outputs": [
        {
          "internalType": "bool",
          "name": "",
          "type": "bool"
        }
      ],
      "payable": false,
      "stateMutability": "view",
      "type": "function"
    },
    {
      "constant": true,
      "inputs": [
        {
          "internalType": "bytes32",
          "name": "",
          "type": "bytes32"
        }
      ],
      "name": "delegations",
      "outputs": [
        {
          "internalType": "contract IExitProcessor",
          "name": "",
          "type": "address"
        }
      ],
      "payable": false,
      "stateMutability": "view",
      "type": "function"
    },
    {
      "constant": true,
      "inputs": [],
      "name": "minExitPeriod",
      "outputs": [
        {
          "internalType": "uint256",
          "name": "",
          "type": "uint256"
        }
      ],
      "payable": false,
      "stateMutability": "view",
      "type": "function"
    },
    {
      "constant": false,
      "inputs": [
        {
          "internalType": "uint256",
          "name": "vaultId",
          "type": "uint256"
        },
        {
          "internalType": "address",
          "name": "token",
          "type": "address"
        },
        {
          "internalType": "uint160",
          "name": "topExitId",
          "type": "uint160"
        },
        {
          "internalType": "uint256",
          "name": "maxExitsToProcess",
          "type": "uint256"
        }
      ],
      "name": "processExits",
      "outputs": [],
      "payable": false,
      "stateMutability": "nonpayable",
      "type": "function"
    },
    {
      "constant": true,
      "inputs": [
        {
          "internalType": "address",
          "name": "_vaultAddress",
          "type": "address"
        }
      ],
      "name": "vaultToId",
      "outputs": [
        {
          "internalType": "uint256",
          "name": "",
          "type": "uint256"
        }
      ],
      "payable": false,
      "stateMutability": "view",
      "type": "function"
    },
    {
      "constant": true,
      "inputs": [
        {
          "internalType": "uint256",
          "name": "",
          "type": "uint256"
        }
      ],
      "name": "blocks",
      "outputs": [
        {
          "internalType": "bytes32",
          "name": "root",
          "type": "bytes32"
        },
        {
          "internalType": "uint256",
          "name": "timestamp",
          "type": "uint256"
        }
      ],
      "payable": false,
      "stateMutability": "view",
      "type": "function"
    },
    {
      "constant": false,
      "inputs": [
        {
          "internalType": "uint256",
          "name": "_txType",
          "type": "uint256"
        },
        {
          "internalType": "address",
          "name": "_contract",
          "type": "address"
        },
        {
          "internalType": "uint8",
          "name": "_protocol",
          "type": "uint8"
        }
      ],
      "name": "registerExitGame",
      "outputs": [],
      "payable": false,
      "stateMutability": "nonpayable",
      "type": "function"
    },
    {
      "constant": false,
      "inputs": [],
      "name": "activateNonReentrant",
      "outputs": [],
      "payable": false,
      "stateMutability": "nonpayable",
      "type": "function"
    },
    {
      "inputs": [
        {
          "internalType": "uint256",
          "name": "_minExitPeriod",
          "type": "uint256"
        },
        {
          "internalType": "uint256",
          "name": "_initialImmuneVaults",
          "type": "uint256"
        },
        {
          "internalType": "uint256",
          "name": "_initialImmuneExitGames",
          "type": "uint256"
        }
      ],
      "payable": false,
      "stateMutability": "nonpayable",
      "type": "constructor"
    },
    {
      "anonymous": false,
      "inputs": [
        {
          "indexed": false,
          "internalType": "uint256",
          "name": "vaultId",
          "type": "uint256"
        },
        {
          "indexed": false,
          "internalType": "address",
          "name": "token",
          "type": "address"
        },
        {
          "indexed": false,
          "internalType": "uint64",
          "name": "exitableAt",
          "type": "uint64"
        },
        {
          "indexed": false,
          "internalType": "uint256",
          "name": "txPos",
          "type": "uint256"
        },
        {
          "indexed": false,
          "internalType": "uint256",
          "name": "exitId",
          "type": "uint256"
        },
        {
          "indexed": false,
          "internalType": "address",
          "name": "exitProcessor",
          "type": "address"
        }
      ],
      "name": "EnqueueTriggered",
      "type": "event"
    },
    {
      "anonymous": false,
      "inputs": [
        {
          "indexed": false,
          "internalType": "uint256",
          "name": "blknum",
          "type": "uint256"
        }
      ],
      "name": "BlockSubmitted",
      "type": "event"
    },
    {
      "anonymous": false,
      "inputs": [
        {
          "indexed": false,
          "internalType": "address",
          "name": "authority",
          "type": "address"
        }
      ],
      "name": "ChildChainActivated",
      "type": "event"
    },
    {
      "anonymous": false,
      "inputs": [
        {
          "indexed": false,
          "internalType": "uint256",
          "name": "vaultId",
          "type": "uint256"
        },
        {
          "indexed": false,
          "internalType": "address",
          "name": "token",
          "type": "address"
        }
      ],
      "name": "ExitQueueAdded",
      "type": "event"
    },
    {
      "anonymous": false,
      "inputs": [
        {
          "indexed": false,
          "internalType": "uint256",
          "name": "processedNum",
          "type": "uint256"
        },
        {
          "indexed": false,
          "internalType": "uint256",
          "name": "vaultId",
          "type": "uint256"
        },
        {
          "indexed": false,
          "internalType": "address",
          "name": "token",
          "type": "address"
        }
      ],
      "name": "ProcessedExitsNum",
      "type": "event"
    },
    {
      "anonymous": false,
      "inputs": [
        {
          "indexed": true,
          "internalType": "uint160",
          "name": "exitId",
          "type": "uint160"
        },
        {
          "indexed": false,
          "internalType": "uint256",
          "name": "priority",
          "type": "uint256"
        }
      ],
      "name": "ExitQueued",
      "type": "event"
    },
    {
      "anonymous": false,
      "inputs": [
        {
          "indexed": false,
          "internalType": "uint256",
          "name": "txType",
          "type": "uint256"
        },
        {
          "indexed": false,
          "internalType": "address",
          "name": "exitGameAddress",
          "type": "address"
        },
        {
          "indexed": false,
          "internalType": "uint8",
          "name": "protocol",
          "type": "uint8"
        }
      ],
      "name": "ExitGameRegistered",
      "type": "event"
    },
    {
      "anonymous": false,
      "inputs": [
        {
          "indexed": false,
          "internalType": "uint256",
          "name": "vaultId",
          "type": "uint256"
        },
        {
          "indexed": false,
          "internalType": "address",
          "name": "vaultAddress",
          "type": "address"
        }
      ],
      "name": "VaultRegistered",
      "type": "event"
    },
    {
      "constant": false,
      "inputs": [
        {
          "internalType": "uint256",
          "name": "_vaultId",
          "type": "uint256"
        },
        {
          "internalType": "address",
          "name": "_token",
          "type": "address"
        },
        {
          "internalType": "uint64",
          "name": "_exitableAt",
          "type": "uint64"
        },
        {
          "components": [
            {
              "internalType": "uint64",
              "name": "blockNum",
              "type": "uint64"
            },
            {
              "internalType": "uint16",
              "name": "txIndex",
              "type": "uint16"
            },
            {
              "internalType": "uint16",
              "name": "outputIndex",
              "type": "uint16"
            }
          ],
          "internalType": "struct PosLib.Position",
          "name": "_txPos",
          "type": "tuple"
        },
        {
          "internalType": "uint160",
          "name": "_exitId",
          "type": "uint160"
        },
        {
          "internalType": "contract IExitProcessor",
          "name": "_exitProcessor",
          "type": "address"
        }
      ],
      "name": "enqueue",
      "outputs": [
        {
          "internalType": "uint256",
          "name": "",
          "type": "uint256"
        }
      ],
      "payable": false,
      "stateMutability": "nonpayable",
      "type": "function"
    },
    {
      "constant": false,
      "inputs": [
        {
          "internalType": "uint256",
          "name": "_blockNum",
          "type": "uint256"
        },
        {
          "internalType": "bytes32",
          "name": "_root",
          "type": "bytes32"
        },
        {
          "internalType": "uint256",
          "name": "_timestamp",
          "type": "uint256"
        }
      ],
      "name": "setBlock",
      "outputs": [],
      "payable": false,
      "stateMutability": "nonpayable",
      "type": "function"
    },
    {
      "constant": false,
      "inputs": [
        {
          "internalType": "bytes32",
          "name": "_outputId",
          "type": "bytes32"
        },
        {
          "internalType": "uint160",
          "name": "_exitId",
          "type": "uint160"
        }
      ],
      "name": "setOutputFinalized",
      "outputs": [],
      "payable": false,
      "stateMutability": "nonpayable",
      "type": "function"
    },
    {
      "constant": true,
      "inputs": [
        {
          "internalType": "uint256",
          "name": "blockNum",
          "type": "uint256"
        }
      ],
      "name": "isDeposit",
      "outputs": [
        {
          "internalType": "bool",
          "name": "",
          "type": "bool"
        }
      ],
      "payable": false,
      "stateMutability": "view",
      "type": "function"
    }
  ],
  "bytecode": "0x6080604052600e805460ff1916905560006017553480156200002057600080fd5b50604051620039d4380380620039d48339810160408190526200004391620000c0565b600283026003556004918255908202600955600a55600e8054610100600160a81b031916336101008102919091179091556103e8600f81905560105560016011556012805460ff19169055601491909155601580546001600160a01b031916909117905562000131565b8051620000ba8162000117565b92915050565b600080600060608486031215620000d657600080fd5b6000620000e48686620000ad565b9350506020620000f786828701620000ad565b92505060406200010a86828701620000ad565b9150509250925092565b90565b620001228162000114565b81146200012e57600080fd5b50565b61389380620001416000396000f3fe60806040523480156200001157600080fd5b5060043610620002985760003560e01c80638c64ea4a1162000165578063bf7e214f11620000d5578063d9aa4b241162000093578063d9aa4b241462000597578063dfb494f014620005ae578063ebde2ec914620005c5578063f25b3f9914620005dc578063f2e208e71462000603578063ff27b189146200061a5762000298565b8063bf7e214f146200053e578063c3ead4281462000548578063c77b1ed6146200055f578063cf049cad1462000576578063d4a2b4ef146200058d5762000298565b8063a831fa071162000123578063a831fa0714620004e5578063a8cabcd514620004ef578063af07976414620004f9578063baa476941462000510578063be5ac69814620005275762000298565b80638c64ea4a146200047f5780638e29be3114620004965780639ce265a614620004ad578063a11dcc3414620004c4578063a239e5a214620004ce5762000298565b80634e0f7436116200020d57806372d72e3811620001cb57806372d72e3814620003e457806377672b5e14620003fb578063788bc78c14620004215780637f8523d114620004385780638701fc5d146200044f5780638c39622014620004595762000298565b80634e0f7436146200039857806350c9a62014620003a257806354fd4d5014620003ac5780635a102dae14620003b65780636a51fd6314620003cd5762000298565b80633701b5ca116200025b5780633701b5ca146200032e57806338a9e0bc146200035457806345f20935146200035e5780634b0a72bc14620003755780634ca8714f146200038e5762000298565b80630d8e6e2c146200029d5780630e71ee0214620002bf5780630f71c9fd14620002d857806313b5002c14620002f1578063296d54271462000308575b600080fd5b620002a762000624565b604051620002b6919062002a32565b60405180910390f35b620002c9620006bf565b604051620002b69190620029f3565b620002ef620002e936600462002149565b620006c8565b005b620002ef6200030236600462001f11565b620006f6565b6200031f6200031936600462001fcb565b62000724565b604051620002b6919062002c71565b620003456200033f36600462001ef0565b620007c9565b604051620002b6919062002a22565b6200031f620007e4565b620002ef6200036f36600462001fcb565b620007ea565b6200037f620008e8565b604051620002b69190620029e3565b6200031f620008f7565b620002ef620008fd565b6200031f62000978565b620002a76200097e565b620002c9620003c736600462001e74565b62000a10565b620002ef620003de36600462001fcb565b62000a4d565b620002ef620003f536600462001f11565b62000bb4565b620004126200040c36600462001ef0565b62000c7f565b604051620002b6919062002c2b565b620002ef6200043236600462001f50565b62000c9a565b6200031f620004493660046200206a565b62000ce9565b6200031f62000d5f565b620004706200046a36600462001ef0565b62000d6d565b604051620002b6919062002d44565b6200037f6200049036600462001ef0565b62000d82565b620002c9620004a736600462001ef0565b62000d9d565b620002ef620004be36600462001e95565b62000dba565b620002ef62000ef3565b6200031f620004df36600462001e74565b62000fa9565b6200031f62000fc4565b6200031f62000fca565b6200037f6200050a36600462001ef0565b62000fd0565b620002ef6200052136600462001ef0565b62000feb565b6200031f6200053836600462001ef0565b620010b9565b6200037f620011b6565b620002c96200055936600462001e95565b620011ca565b620002c96200057036600462001fcb565b6200125a565b620003456200058736600462001ef0565b62001276565b6200031f62001291565b620002ef620005a836600462002000565b62001297565b6200031f620005bf36600462001e74565b62001774565b620002c9620005d636600462001ef0565b6200178f565b620005f3620005ed36600462001ef0565b620017a6565b604051620002b692919062002a03565b620002ef62000614366004620020ff565b620017bf565b620002ef62001979565b60168054604080516020601f6002600019610100600188161502019095169490940493840181900481028201810190925282815260609390929091830182828015620006b45780601f106200068857610100808354040283529160200191620006b4565b820191906000526020600020905b8154815290600101906020018083116200069657829003601f168201915b505050505090505b90565b60125460ff1681565b6040805180820182529283526020808401928352600094855260189052909220905181559051600190910155565b6000918252600d602052604090912080546001600160a01b0319166001600160a01b03909216919091179055565b60008062000733848462001a10565b6000818152600c602090815260409182902054825163d6362e9760e01b815292519394506001600160a01b03169263d6362e97926004808201939291829003018186803b1580156200078457600080fd5b505afa15801562000799573d6000803e3d6000fd5b505050506040513d601f19601f82011682018060405250620007bf919081019062001faa565b9150505b92915050565b600c602052600090815260409020546001600160a01b031681565b600f5481565b81620008135760405162461bcd60e51b81526004016200080a9062002c19565b60405180910390fd5b600062000821838362001a10565b90506200082e8162001a45565b156200084e5760405162461bcd60e51b81526004016200080a9062002a45565b6040516200085c9062001c37565b604051809103906000f08015801562000879573d6000803e3d6000fd5b506000828152600c60205260409081902080546001600160a01b0319166001600160a01b039390931692909217909155517f0a925273fd754a41a580f8214815d5ae8a37367f561b3bd9d91a96730a418a1790620008db908590859062002c81565b60405180910390a1505050565b6015546001600160a01b031690565b60105481565b336000908152600660205260409020546200092c5760405162461bcd60e51b81526004016200080a9062002ac3565b6200093f60083363ffffffff62001a6216565b156200095f5760405162461bcd60e51b81526004016200080a9062002a8d565b600e5460ff166200096c57fe5b600e805460ff19169055565b60175481565b6016805460408051602060026001851615610100026000190190941693909304601f8101849004840282018401909252818152929183018282801562000a085780601f10620009dc5761010080835404028352916020019162000a08565b820191906000526020600020905b815481529060010190602001808311620009ea57829003601f168201915b505050505081565b6001600160a01b03811660009081526006602052604081205415801590620007c3575062000a4660088363ffffffff62001a6216565b1592915050565b62000a57620008e8565b336001600160a01b0382161462000a825760405162461bcd60e51b81526004016200080a9062002b2f565b8262000aa25760405162461bcd60e51b81526004016200080a9062002af9565b62000aad8262001a80565b62000acc5760405162461bcd60e51b81526004016200080a9062002bad565b6000838152602081905260409020546001600160a01b03161562000b045760405162461bcd60e51b81526004016200080a9062002bf5565b6001600160a01b0382166000908152600160205260409020541562000b3d5760405162461bcd60e51b81526004016200080a9062002bbf565b60008381526020818152604080832080546001600160a01b0319166001600160a01b03871690811790915583526001909152902083905562000b8160028362001a86565b7f7051aac27f9b76ec8f37bd5796f2dcf402bd840a1c45c952a6eeb0e11bde09968383604051620008db92919062002c81565b3360009081526006602052604090205462000be35760405162461bcd60e51b81526004016200080a9062002ac3565b62000bf660083363ffffffff62001a6216565b1562000c165760405162461bcd60e51b81526004016200080a9062002a8d565b8162000c365760405162461bcd60e51b81526004016200080a9062002ad5565b6000828152600d60205260409020546001600160a01b031662000c7b576000828152600d6020526040902080546001600160a01b0319166001600160a01b0383161790555b5050565b600d602052600090815260409020546001600160a01b031681565b62000ca4620008e8565b336001600160a01b0382161462000ccf5760405162461bcd60e51b81526004016200080a9062002b2f565b815162000ce490601690602085019062001c45565b505050565b60178054600101905560007f3f5cb78e6d0ecb3cb7907c17d1441ff6a9fea3d54e21a8083474ee9ba68b078487878762000d3362000d2d368a90038a018a62001f89565b62001b29565b878760405162000d499695949392919062002ca0565b60405180910390a1506017549695505050505050565b601154600f54601054030190565b60009081526007602052604090205460ff1690565b6000908152602081905260409020546001600160a01b031690565b6000908152600d60205260409020546001600160a01b0316151590565b3360009081526006602052604090205462000de95760405162461bcd60e51b81526004016200080a9062002ac3565b62000dfc60083363ffffffff62001a6216565b1562000e1c5760405162461bcd60e51b81526004016200080a9062002a8d565b60005b8281101562000eed57600084848381811062000e3757fe5b90506020020135141562000e5f5760405162461bcd60e51b81526004016200080a9062002ad5565b600d600085858481811062000e7057fe5b60209081029290920135835250810191909152604001600020546001600160a01b031662000ee45781600d600086868581811062000eaa57fe5b90506020020135815260200190815260200160002060006101000a8154816001600160a01b0302191690836001600160a01b031602179055505b60010162000e1f565b50505050565b600e5461010090046001600160a01b031633811462000f265760405162461bcd60e51b81526004016200080a9062002b2f565b60125460ff161562000f4c5760405162461bcd60e51b81526004016200080a9062002b41565b60128054600160ff19909116179055600e546040517fb8421a1acb5f1e701a4f11ecaad76fa438b3947e8dfd6960b6086130e68e0aed9162000f9e916101009091046001600160a01b031690620029e3565b60405180910390a150565b6001600160a01b031660009081526006602052604090205490565b6103e881565b60115481565b6000908152600560205260409020546001600160a01b031690565b600e5461010090046001600160a01b03163381146200101e5760405162461bcd60e51b81526004016200080a9062002b2f565b60125460ff161515600114620010485760405162461bcd60e51b81526004016200080a9062002a7b565b60108054604080518082018252858152426020808301918252600085815260139091528390209151825551600191820155600f5484540190935560119290925590517f5a978f4723b249ccf79cd7a658a8601ce1ff8b89fc770251a6be35216351ce3290620008db90839062002c71565b33600090815260016020526040812054620010e85760405162461bcd60e51b81526004016200080a9062002b53565b620010fb60023363ffffffff62001a6216565b156200111b5760405162461bcd60e51b81526004016200080a9062002c07565b60125460ff161515600114620011455760405162461bcd60e51b81526004016200080a9062002a7b565b600f54601154106200116b5760405162461bcd60e51b81526004016200080a9062002be3565b60006200117762000d5f565b60408051808201825294855242602080870191825260008481526013909152919091209451855551600194850155601180549094019093555090919050565b600e5461010090046001600160a01b031681565b6000805b838110156200124d576000600d6000878785818110620011ea57fe5b60209081029290920135835250810191909152604001600020546001600160a01b031690508015801590620012315750836001600160a01b0316816001600160a01b031614155b15620012435760019250505062001253565b50600101620011ce565b50600090505b9392505050565b60008062001269848462001a10565b9050620007bf8162001a45565b600b602052600090815260409020546001600160a01b031681565b60145481565b600e5460ff1615620012bd5760405162461bcd60e51b81526004016200080a9062002b65565b600e805460ff191660011790556000620012d8858562001a10565b9050620012e58162001a45565b620013045760405162461bcd60e51b81526004016200080a9062002b9b565b6000818152600c6020908152604080832054815163bda1504b60e01b815291516001600160a01b039091169392849263bda1504b9260048083019392829003018186803b1580156200135557600080fd5b505afa1580156200136a573d6000803e3d6000fd5b505050506040513d601f19601f8201168201806040525062001390919081019062001faa565b11620013b05760405162461bcd60e51b81526004016200080a9062002bd1565b6000816001600160a01b031663d6362e976040518163ffffffff1660e01b815260040160206040518083038186803b158015620013ec57600080fd5b505afa15801562001401573d6000803e3d6000fd5b505050506040513d601f19601f8201168201806040525062001427919081019062001faa565b905060006200143682620006bc565b90506001600160a01b0386161580620014605750856001600160a01b0316816001600160a01b0316145b6200147f5760405162461bcd60e51b81526004016200080a9062002ae7565b60006200148e838a8a62001b48565b6000818152600b60205260408120549192506001600160a01b03909116905b8781108015620014d0575042620014c48662001b80565b67ffffffffffffffff16105b1562001711576000838152600b6020908152604080832080546001600160a01b03191690558051632c1d5dab60e21b815290516001600160a01b038a169363b07576ac93600480850194919392918390030190829087803b1580156200153557600080fd5b505af11580156200154a573d6000803e3d6000fd5b505050506040513d601f19601f8201168201806040525062001570919081019062001faa565b50604051636849635160e01b81526001909101906001600160a01b03831690636849635190620015a99087908f908f9060040162002c3b565b600060405180830381600087803b158015620015c457600080fd5b505af1158015620015d9573d6000803e3d6000fd5b50505050856001600160a01b031663bda1504b6040518163ffffffff1660e01b815260040160206040518083038186803b1580156200161757600080fd5b505afa1580156200162c573d6000803e3d6000fd5b505050506040513d601f19601f8201168201806040525062001652919081019062001faa565b6200165d5762001711565b856001600160a01b031663d6362e976040518163ffffffff1660e01b815260040160206040518083038186803b1580156200169757600080fd5b505afa158015620016ac573d6000803e3d6000fd5b505050506040513d601f19601f82011682018060405250620016d2919081019062001faa565b9450620016e1858c8c62001b48565b9250620016ee85620006bc565b6000848152600b60205260409020549094506001600160a01b03169150620014ad565b7f7e35599fe450e626673ce6c37179ef9820aed16f76c1b350618ef7a612d13005818c8c604051620017469392919062002d34565b60405180910390a15050600e5460ff16945062001764935050505057fe5b5050600e805460ff191690555050565b6001600160a01b031660009081526001602052604090205490565b6000600f5482816200179d57fe5b06151592915050565b6018602052600090815260409020805460019091015482565b620017c9620008e8565b336001600160a01b03821614620017f45760405162461bcd60e51b81526004016200080a9062002b2f565b83620018145760405162461bcd60e51b81526004016200080a9062002b0b565b6200181f8362001a80565b6200183e5760405162461bcd60e51b81526004016200080a9062002bad565b6000848152600560205260409020546001600160a01b031615620018765760405162461bcd60e51b81526004016200080a9062002b77565b6001600160a01b03831660009081526006602052604090205415620018af5760405162461bcd60e51b81526004016200080a9062002a57565b620018ba8262001b86565b620018d95760405162461bcd60e51b81526004016200080a9062002a69565b600084815260056020908152604080832080546001600160a01b0319166001600160a01b03881690811790915583526006825280832087905586835260079091529020805460ff191660ff84161790556200193660088462001a86565b7f0ceb02f7474c01f5959171cead2f5fb2a44d9c16fe480725a2110b601b19db828484846040516200196b9392919062002d06565b60405180910390a150505050565b33600090815260066020526040902054620019a85760405162461bcd60e51b81526004016200080a9062002ac3565b620019bb60083363ffffffff62001a6216565b15620019db5760405162461bcd60e51b81526004016200080a9062002a8d565b600e5460ff161562001a015760405162461bcd60e51b81526004016200080a9062002b65565b600e805460ff19166001179055565b6000828260405160200162001a279291906200297c565b60405160208183030381529060405280519060200120905092915050565b6000908152600c60205260409020546001600160a01b0316151590565b6001600160a01b031660009081526020919091526040902054421090565b3b151590565b6001600160a01b03811662001aaf5760405162461bcd60e51b81526004016200080a9062002b1d565b6001600160a01b0381166000908152602083905260409020541562001ae85760405162461bcd60e51b81526004016200080a9062002a9f565b600282015462001b1b5760018201546001600160a01b038216600090815260208490526040902042909101905562000c7b565b506002018054600019019055565b600061271062001b398362001ba0565b8162001b4157fe5b0492915050565b600083838360405160200162001b6193929190620029a6565b6040516020818303038152906040528051906020012090509392505050565b60d61c90565b600060ff821660011480620007c357505060ff1660021490565b6000600161271003826040015161ffff16111562001bd25760405162461bcd60e51b81526004016200080a9062002ab1565b81516429f16b11c667ffffffffffffffff909116111562001c075760405162461bcd60e51b81526004016200080a9062002b89565b5060408101516020820151825167ffffffffffffffff16633b9aca000261ffff9182166127100201911601919050565b61099e8062002eb383390190565b828054600181600116156101000203166002900490600052602060002090601f016020900481019282601f1062001c8857805160ff191683800117855562001cb8565b8280016001018555821562001cb8579182015b8281111562001cb857825182559160200191906001019062001c9b565b5062001cc692915062001cca565b5090565b620006bc91905b8082111562001cc6576000815560010162001cd1565b8035620007c38162002e56565b60008083601f84011262001d0757600080fd5b50813567ffffffffffffffff81111562001d2057600080fd5b60208301915083602082028301111562001d3957600080fd5b9250929050565b8035620007c38162002e70565b8035620007c38162002e7b565b600082601f83011262001d6c57600080fd5b813562001d8362001d7d8262002d7c565b62002d54565b9150808252602083016020830185838301111562001da057600080fd5b62001dad83828462002df7565b50505092915050565b60006060828403121562001dc957600080fd5b50919050565b60006060828403121562001de257600080fd5b62001dee606062002d54565b9050600062001dfe848462001e5a565b825250602062001e118484830162001e33565b602083015250604062001e278482850162001e33565b60408301525092915050565b8035620007c38162002e86565b8035620007c38162002e91565b8051620007c38162002e70565b8035620007c38162002e9c565b8035620007c38162002ea7565b60006020828403121562001e8757600080fd5b6000620007bf848462001ce7565b60008060006040848603121562001eab57600080fd5b833567ffffffffffffffff81111562001ec357600080fd5b62001ed18682870162001cf4565b9350935050602062001ee68682870162001e40565b9150509250925092565b60006020828403121562001f0357600080fd5b6000620007bf848462001d40565b6000806040838503121562001f2557600080fd5b600062001f33858562001d40565b925050602062001f468582860162001e40565b9150509250929050565b60006020828403121562001f6357600080fd5b813567ffffffffffffffff81111562001f7b57600080fd5b620007bf8482850162001d5a565b60006060828403121562001f9c57600080fd5b6000620007bf848462001dcf565b60006020828403121562001fbd57600080fd5b6000620007bf848462001e4d565b6000806040838503121562001fdf57600080fd5b600062001fed858562001d40565b925050602062001f468582860162001ce7565b600080600080608085870312156200201757600080fd5b600062002025878762001d40565b9450506020620020388782880162001ce7565b93505060406200204b8782880162001e40565b92505060606200205e8782880162001d40565b91505092959194509250565b60008060008060008061010087890312156200208557600080fd5b600062002093898962001d40565b9650506020620020a689828a0162001ce7565b9550506040620020b989828a0162001e5a565b9450506060620020cc89828a0162001db6565b93505060c0620020df89828a0162001e40565b92505060e0620020f289828a0162001d4d565b9150509295509295509295565b6000806000606084860312156200211557600080fd5b600062002123868662001d40565b9350506020620021368682870162001ce7565b925050604062001ee68682870162001e67565b6000806000606084860312156200215f57600080fd5b60006200216d868662001d40565b9350506020620021808682870162001d40565b925050604062001ee68682870162001d40565b6200219e8162002db2565b82525050565b6200219e620021b38262002db2565b62002e32565b6200219e8162002dbf565b6200219e81620006bc565b6200219e8162002dc4565b6000620021e78262002da5565b620021f3818562002da9565b93506200220581856020860162002e03565b620022108162002e46565b9093019392505050565b60006200222960118362002da9565b70457869742071756575652065786973747360781b815260200192915050565b600062002258602c8362002da9565b7f54686520657869742067616d6520636f6e747261637420697320616c7265616481526b1e481c9959da5cdd195c995960a21b602082015260400192915050565b6000620022a860168362002da9565b75496e76616c69642070726f746f636f6c2076616c756560501b815260200192915050565b6000620022dc603b8362002da9565b7f4368696c6420636861696e20686173206e6f74206265656e206163746976617481527f656420627920617574686f726974792061646472657373207965740000000000602082015260400192915050565b60006200233d60178362002da9565b7f4578697447616d652069732071756172616e74696e6564000000000000000000815260200192915050565b60006200237860238362002da9565b7f54686520636f6e747261637420697320616c72656164792071756172616e74698152621b995960ea1b602082015260400192915050565b6000620023bf60148362002da9565b73092dcecc2d8d2c840deeae8e0eae840d2dcc8caf60631b815260200192915050565b6000620023f160348362002da9565b7f5468652063616c6c206973206e6f742066726f6d2061207265676973746572658152731908195e1a5d0819d85b594818dbdb9d1c9858dd60621b602082015260400192915050565b60006200244960238362002da9565b7f53686f756c64206e6f7420666c6167207769746820656d707479206f757470758152621d125960ea1b602082015260400192915050565b600062002490603a8362002da9565b7f546f702065786974204944206f6620746865207175657565206973206469666681527f6572656e7420746f20746865206f6e6520737065636966696564000000000000602082015260400192915050565b6000620024f160238362002da9565b7f53686f756c64206e6f742072656769737465722077697468207661756c74204981526204420360ec1b602082015260400192915050565b60006200253860228362002da9565b7f53686f756c64206e6f7420726567697374657220776974682074782074797065815261020360f41b602082015260400192915050565b60006200257e60268362002da9565b7f416e20656d70747920616464726573732063616e6e6f742062652071756172618152651b9d1a5b995960d21b602082015260400192915050565b6000620025c8601e8362002da9565b7f43616c6c6572206164647265737320697320756e617574686f72697a65640000815260200192915050565b600062002603601d8362002da9565b7f4368696c6420636861696e20616c726561647920616374697661746564000000815260200192915050565b60006200263e60278362002da9565b7f5468652063616c6c206973206e6f742066726f6d20612072656769737465726581526619081d985d5b1d60ca1b602082015260400192915050565b600062002689600e8362002da9565b6d1499595b9d1c985b9d0818d85b1b60921b815260200192915050565b6000620026b560218362002da9565b7f546865207478207479706520697320616c7265616479207265676973746572658152601960fa1b602082015260400192915050565b6000620026fa60148362002da9565b7324b73b30b634b210313637b1b590373ab6b132b960611b815260200192915050565b60006200272c60328362002da9565b7f54686520746f6b656e206973206e6f742079657420616464656420746f2074688152716520506c61736d61206672616d65776f726b60701b602082015260400192915050565b600062002782602f8362002da9565b7f53686f756c64206e6f7420726567697374657220776974682061206e6f6e2d6381526e6f6e7472616374206164647265737360881b602082015260400192915050565b6000620027d560288362002da9565b7f546865207661756c7420636f6e747261637420697320616c726561647920726581526719da5cdd195c995960c21b602082015260400192915050565b60006200282160138362002da9565b724578697420717565756520697320656d70747960681b815260200192915050565b60006200285260338362002da9565b7f4578636565646564206c696d6974206f66206465706f736974732070657220638152721a1a5b1908189b1bd8dac81a5b9d195c9d985b606a1b602082015260400192915050565b6000620028a960228362002da9565b7f546865207661756c7420494420697320616c7265616479207265676973746572815261195960f21b602082015260400192915050565b6000620028ef60148362002da9565b7315985d5b1d081a5cc81c5d585c985b9d1a5b995960621b815260200192915050565b60006200292160168362002da9565b7505661756c74204944206d757374206e6f7420626520360541b815260200192915050565b6200219e8162002dd8565b6200219e6200296082620006bc565b620006bc565b6200219e8162002de4565b6200219e8162002df1565b60006200298a828562002951565b6020820191506200299c8284620021a4565b5060140192915050565b6000620029b4828662002951565b602082019150620029c6828562002951565b602082019150620029d88284620021a4565b506014019392505050565b60208101620007c3828462002193565b60208101620007c38284620021b9565b6040810162002a138285620021c4565b620012536020830184620021c4565b60208101620007c38284620021cf565b60208082528101620012538184620021da565b60208082528101620007c3816200221a565b60208082528101620007c38162002249565b60208082528101620007c38162002299565b60208082528101620007c381620022cd565b60208082528101620007c3816200232e565b60208082528101620007c38162002369565b60208082528101620007c381620023b0565b60208082528101620007c381620023e2565b60208082528101620007c3816200243a565b60208082528101620007c38162002481565b60208082528101620007c381620024e2565b60208082528101620007c38162002529565b60208082528101620007c3816200256f565b60208082528101620007c381620025b9565b60208082528101620007c381620025f4565b60208082528101620007c3816200262f565b60208082528101620007c3816200267a565b60208082528101620007c381620026a6565b60208082528101620007c381620026eb565b60208082528101620007c3816200271d565b60208082528101620007c38162002773565b60208082528101620007c381620027c6565b60208082528101620007c38162002812565b60208082528101620007c38162002843565b60208082528101620007c3816200289a565b60208082528101620007c381620028e0565b60208082528101620007c38162002912565b60208101620007c3828462002946565b6060810162002c4b828662002946565b62002c5a6020830185620021c4565b62002c69604083018462002193565b949350505050565b60208101620007c38284620021c4565b6040810162002c918285620021c4565b62001253602083018462002193565b60c0810162002cb08289620021c4565b62002cbf602083018862002193565b62002cce604083018762002966565b62002cdd6060830186620021c4565b62002cec608083018562002193565b62002cfb60a083018462002193565b979650505050505050565b6060810162002d168286620021c4565b62002d25602083018562002193565b62002c69604083018462002971565b6060810162002c4b8286620021c4565b60208101620007c3828462002971565b60405181810167ffffffffffffffff8111828210171562002d7457600080fd5b604052919050565b600067ffffffffffffffff82111562002d9457600080fd5b506020601f91909101601f19160190565b5190565b90815260200190565b6000620007c38262002dd8565b151590565b6000620007c38262002db2565b61ffff1690565b6001600160a01b031690565b67ffffffffffffffff1690565b60ff1690565b82818337506000910152565b60005b8381101562002e2057818101518382015260200162002e06565b8381111562000eed5750506000910152565b6000620007c3826000620007c38262002e50565b601f01601f191690565b60601b90565b62002e618162002db2565b811462002e6d57600080fd5b50565b62002e6181620006bc565b62002e618162002dc4565b62002e618162002dd1565b62002e618162002dd8565b62002e618162002de4565b62002e618162002df156fe608060405234801561001057600080fd5b506040805160208101909152600080825261002c916001610049565b506000600155600280546001600160a01b031916331790556100b6565b828054828255906000526020600020908101928215610089579160200282015b82811115610089578251829060ff16905591602001919060010190610069565b50610095929150610099565b5090565b6100b391905b80821115610095576000815560010161009f565b90565b6108d9806100c56000396000f3fe608060405234801561001057600080fd5b506004361061007d5760003560e01c8063bda1504b1161005b578063bda1504b14610113578063d6362e971461011b578063e10d29ee14610123578063e9de55531461012b5761007d565b8063446b2f881461008257806390b5561d146100da578063b07576ac146100f9575b600080fd5b61008a61014f565b60408051602080825283518183015283519192839290830191858101910280838360005b838110156100c65781810151838201526020016100ae565b505050509050019250505060405180910390f35b6100f7600480360360208110156100f057600080fd5b50356101aa565b005b610101610263565b60408051918252519081900360200190f35b6101016103c5565b6101016103cb565b610101610432565b610133610438565b604080516001600160a01b039092168252519081900360200190f35b60606000800180548060200260200160405190810160405280929190818152602001828054801561019f57602002820191906000526020600020905b81548152602001906001019080831161018b575b505050505090505b90565b6002546001600160a01b031633811461020a576040805162461bcd60e51b815260206004820152601e60248201527f43616c6c6572206164647265737320697320756e617574686f72697a65640000604482015290519081900360640190fd5b60008054600181810183559180527f290decd9548b62a8d60345a988386fc84ba6bc95484008f6362f93160ef3e56301839055805461024e9163ffffffff61044716565b600181905561025f906000906104aa565b5050565b6002546000906001600160a01b03163381146102c6576040805162461bcd60e51b815260206004820152601e60248201527f43616c6c6572206164647265737320697320756e617574686f72697a65640000604482015290519081900360640190fd5b60015461030b576040805162461bcd60e51b815260206004820152600e60248201526d517565756520697320656d70747960901b604482015290519081900360640190fd5b60008060000160018154811061031d57fe5b6000918252602082200154600154825491935090811061033957fe5b90600052602060002001546000800160018154811061035457fe5b60009182526020822001919091556001548154811061036f57fe5b60009182526020822001556001805461038d9163ffffffff61058016565b600190815561039e906000906105dd565b6000546103b290600163ffffffff61058016565b6103bd600082610840565b5091505b5090565b60015490565b600154600090610413576040805162461bcd60e51b815260206004820152600e60248201526d517565756520697320656d70747960901b604482015290519081900360640190fd5b60008054600190811061042257fe5b9060005260206000200154905090565b60015481565b6002546001600160a01b031681565b6000828201838110156104a1576040805162461bcd60e51b815260206004820152601b60248201527f536166654d6174683a206164646974696f6e206f766572666c6f770000000000604482015290519081900360640190fd5b90505b92915050565b8154819081906000908590839081106104bf57fe5b906000526020600020015490505b846104df84600263ffffffff6106b416565b815481106104e957fe5b9060005260206000200154811015610555578461050d84600263ffffffff6106b416565b8154811061051757fe5b906000526020600020015485600001848154811061053157fe5b60009182526020909120015561054e83600263ffffffff6106b416565b92506104cd565b818314610579578085600001848154811061056c57fe5b6000918252602090912001555b5050505050565b6000828211156105d7576040805162461bcd60e51b815260206004820152601e60248201527f536166654d6174683a207375627472616374696f6e206f766572666c6f770000604482015290519081900360640190fd5b50900390565b8154819081906000908590839081106105f257fe5b90600052602060002001549050600061060b868561071e565b90505b8560010154811115801561063a575085600001818154811061062c57fe5b906000526020600020015482115b156106885785600001818154811061064e57fe5b906000526020600020015486600001858154811061066857fe5b600091825260209091200155925082610681868261071e565b905061060e565b8284146106ac578186600001858154811061069f57fe5b6000918252602090912001555b505050505050565b600080821161070a576040805162461bcd60e51b815260206004820152601a60248201527f536166654d6174683a206469766973696f6e206279207a65726f000000000000604482015290519081900360640190fd5b600082848161071557fe5b04949350505050565b6001808301546000916107489061073c85600263ffffffff6107e716565b9063ffffffff61044716565b11156107665761075f82600263ffffffff6107e716565b90506104a4565b8261077d600161073c85600263ffffffff6107e716565b8154811061078757fe5b600091825260209091200154836107a584600263ffffffff6107e716565b815481106107af57fe5b906000526020600020015410156107d15761075f82600263ffffffff6107e716565b61075f600161073c84600263ffffffff6107e716565b6000826107f6575060006104a4565b8282028284828161080357fe5b04146104a15760405162461bcd60e51b81526004018080602001828103825260218152602001806108846021913960400191505060405180910390fd5b81548183558181111561086457600083815260209020610864918101908301610869565b505050565b6101a791905b808211156103c1576000815560010161086f56fe536166654d6174683a206d756c7469706c69636174696f6e206f766572666c6f77a265627a7a7231582000c2a197da5a1f7f2d4f2ae081774fd5cd7f91e47e9f9ed0e75c94a291ab1a8864736f6c634300050b0032a365627a7a7231582084785c8a00a197998fcf450025ef524699ddf80d7f63f662aebbc5d96b48ff1d6c6578706572696d656e74616cf564736f6c634300050b0040",
  "source": "pragma solidity 0.5.11;\npragma experimental ABIEncoderV2;\n\nimport \"../../src/framework/PlasmaFramework.sol\";\nimport \"../../src/utils/PosLib.sol\";\nimport \"../../src/framework/models/BlockModel.sol\";\n\ncontract SpyPlasmaFrameworkForExitGame is PlasmaFramework {\n    using PosLib for PosLib.Position;\n\n    uint256 public enqueuedCount = 0;\n    mapping (uint256 => BlockModel.Block) public blocks;\n\n    event EnqueueTriggered(\n        uint256 vaultId,\n        address token,\n        uint64 exitableAt,\n        uint256 txPos,\n        uint256 exitId,\n        address exitProcessor\n    );\n\n    /** This spy contract set the authority and maintainer both to the caller */\n    constructor(uint256 _minExitPeriod, uint256 _initialImmuneVaults, uint256 _initialImmuneExitGames)\n        public\n        PlasmaFramework(_minExitPeriod, _initialImmuneVaults, _initialImmuneExitGames, msg.sender, msg.sender)\n    {\n    }\n\n    /** override for test */\n    function enqueue(\n        uint256 _vaultId,\n        address _token,\n        uint64 _exitableAt,\n        PosLib.Position calldata _txPos,\n        uint160 _exitId,\n        IExitProcessor _exitProcessor\n    )\n        external\n        returns (uint256)\n    {\n        enqueuedCount += 1;\n        emit EnqueueTriggered(\n            _vaultId,\n            _token,\n            _exitableAt,\n            _txPos.getTxPositionForExitPriority(),\n            _exitId,\n            address(_exitProcessor)\n        );\n        return enqueuedCount;\n    }\n\n    /**\n     Custom test helpers\n     */\n    function setBlock(uint256 _blockNum, bytes32 _root, uint256 _timestamp) external {\n        blocks[_blockNum] = BlockModel.Block(_root, _timestamp);\n    }\n\n    function setOutputFinalized(bytes32 _outputId, uint160 _exitId) external {\n        outputsFinalizations[_outputId] = _exitId;\n    }\n\n    /**\n     * Override to remove check that block exists\n     */\n    function isDeposit(uint256 blockNum) public view returns (bool) {\n        return blockNum % childBlockInterval != 0;\n    }\n}\n",
  "sourcePath": "/home/node/plasma-contracts/plasma_framework/contracts/mocks/exits/SpyPlasmaFrameworkForExitGame.sol",
  "compiler": {
    "name": "solc",
    "version": "0.5.11+commit.c082d0b4.Emscripten.clang"
  },
  "schemaVersion": "3.0.16",
  "updatedAt": "2020-04-07T14:07:49.471Z",
  "devdoc": {
    "methods": {
      "activateChildChain()": {
        "details": "This is a preserved action for authority account to start its nonce with 1.     Child chain rely ethereum nonce to protect re-org: https://git.io/JecDG     see discussion: https://git.io/JenaT, https://git.io/JecDO"
      },
      "activateNonReentrant()": {
        "details": "Accessible only from non quarantined exit games, uses a mutex"
      },
      "addExitQueue(uint256,address)": {
        "details": "The queue is created as a new contract instance",
        "params": {
          "token": "Address of the token",
          "vaultId": "ID of the vault"
        }
      },
      "batchFlagOutputsFinalized(bytes32[],uint160)": {
        "params": {
          "outputIds": "Output IDs to flag"
        }
      },
      "deactivateNonReentrant()": {
        "details": "Accessible only from non quarantined exit games, uses a mutex"
      },
      "flagOutputFinalized(bytes32,uint160)": {
        "params": {
          "outputId": "The output ID to flag as spent"
        }
      },
      "hasExitQueue(uint256,address)": {
        "params": {
          "token": "Address of the token",
          "vaultId": "ID of the vault that handles the token"
        },
        "return": "bool Defines whether the queue for a token was created"
      },
      "isAnyInputFinalizedByOtherExit(bytes32[],uint160)": {
        "params": {
          "_outputIds": "Output IDs to check"
        }
      },
      "isExitGameSafeToUse(address)": {
        "details": "Exposes information about exit games quarantine",
        "params": {
          "_contract": "Address of the exit game contract"
        },
        "return": "boolean Whether the contract is safe to use and is not under quarantine"
      },
      "isOutputFinalized(bytes32)": {
        "params": {
          "outputId": "Output ID to check"
        }
      },
      "processExits(uint256,address,uint160,uint256)": {
        "details": "Emits ProcessedExitsNum event",
        "params": {
          "maxExitsToProcess": "Maximum number of exits to process",
          "token": "The token type to process",
          "topExitId": "Unique identifier for prioritizing the first exit to process. Set to zero to skip this check.",
          "vaultId": "Vault ID of the vault that stores exiting funds"
        },
        "return": "Total number of processed exits"
      },
      "registerExitGame(uint256,address,uint8)": {
        "details": "Emits ExitGameRegistered event to notify clients",
        "params": {
          "_contract": "Address of the exit game contract",
          "_protocol": "The transaction protocol, either 1 for MVP or 2 for MoreVP",
          "_txType": "The tx type where the exit game wants to register"
        }
      },
      "registerVault(uint256,address)": {
        "details": "emits VaultRegistered event to notify clients",
        "params": {
          "_vaultAddress": "Address of the vault contract",
          "_vaultId": "The ID for the vault contract to register"
        }
      },
      "setVersion(string)": {
        "params": {
          "_version": "is semver string"
        }
      },
      "submitBlock(bytes32)": {
        "details": "emit BlockSubmitted eventBlock number jumps 'childBlockInterval' per submissionSee discussion in https://github.com/omisego/plasma-contracts/issues/233",
        "params": {
          "_blockRoot": "Merkle root of the Plasma block"
        }
      },
      "submitDepositBlock(bytes32)": {
        "details": "Block number adds 1 per submission; it's possible to have at most 'childBlockInterval' deposit blocks between two child chain blocks",
        "params": {
          "_blockRoot": "Merkle root of the Plasma block"
        },
        "return": "The deposit block number"
      }
    }
  },
  "userdoc": {
    "methods": {
      "activateChildChain()": {
        "notice": "Activates the child chain so that child chain can start to submit child blocks to root chainCan only be called once by the authority.Sets isChildChainActivated to true and emits the ChildChainActivated event."
      },
      "activateNonReentrant()": {
        "notice": "Activates non reentrancy mode        Guards against reentering into publicly accessible code that modifies state related to exits"
      },
      "addExitQueue(uint256,address)": {
        "notice": "Adds queue to the Plasma framework"
      },
      "batchFlagOutputsFinalized(bytes32[],uint160)": {
        "notice": "Batch flags already spent outputs (only not already spent)"
      },
      "constructor": "This spy contract set the authority and maintainer both to the caller ",
      "deactivateNonReentrant()": {
        "notice": "Deactivates non reentrancy mode"
      },
      "enqueue(uint256,address,uint64,(uint64,uint16,uint16),uint160,address)": {
        "notice": "override for test "
      },
      "exitGameToTxType(address)": {
        "notice": "Public getter for retrieving tx type with exit game address"
      },
      "exitGames(uint256)": {
        "notice": "Public getter for retrieving exit game address with tx type"
      },
      "flagOutputFinalized(bytes32,uint160)": {
        "notice": "Flags a single output as spent if it is not flagged already"
      },
      "getVersion()": {
        "notice": "Gets the semantic version of the current deployed contracts"
      },
      "hasExitQueue(uint256,address)": {
        "notice": "Checks if the queue for a specified token was created"
      },
      "isAnyInputFinalizedByOtherExit(bytes32[],uint160)": {
        "notice": "Checks whether any of the output with the given outputIds is already spent"
      },
      "isDeposit(uint256)": {
        "notice": "Override to remove check that block exists"
      },
      "isExitGameSafeToUse(address)": {
        "notice": "Checks whether the contract is safe to use and is not under quarantine"
      },
      "isOutputFinalized(bytes32)": {
        "notice": "Checks whether output with a given outputId is finalized"
      },
      "processExits(uint256,address,uint160,uint256)": {
        "notice": "Processes any exits that have completed the challenge period. Exits are processed according to the exit priority."
      },
      "protocols(uint256)": {
        "notice": "Public getter for retrieving protocol with tx type"
      },
      "registerExitGame(uint256,address,uint8)": {
        "notice": "Registers an exit game within the PlasmaFramework. Only the maintainer can call the function."
      },
      "registerVault(uint256,address)": {
        "notice": "Register a vault within the PlasmaFramework. Only a maintainer can make the call."
      },
      "setBlock(uint256,bytes32,uint256)": {
        "notice": "Custom test helpers"
      },
      "setVersion(string)": {
        "notice": "Sets the semantic version of the current deployed contracts"
      },
      "submitBlock(bytes32)": {
        "notice": "Allows the authority to submit the Merkle root of a Plasma block"
      },
      "submitDepositBlock(bytes32)": {
        "notice": "Submits a block for deposit"
      },
      "vaultToId(address)": {
        "notice": "Public getter for retrieving vault ID with vault address"
      },
      "vaults(uint256)": {
        "notice": "Public getter for retrieving vault address with vault ID"
      }
    }
  }
}