{
  "contractName": "StateTransitionVerifierMock",
  "abi": [
    {
      "constant": true,
      "inputs": [],
      "name": "expectedArgs",
      "outputs": [
        {
          "internalType": "bytes",
          "name": "inFlightTx",
          "type": "bytes"
        }
      ],
      "payable": false,
      "stateMutability": "view",
      "type": "function"
    },
    {
      "constant": true,
      "inputs": [],
      "name": "shouldRevert",
      "outputs": [
        {
          "internalType": "bool",
          "name": "",
          "type": "bool"
        }
      ],
      "payable": false,
      "stateMutability": "view",
      "type": "function"
    },
    {
      "constant": true,
      "inputs": [],
      "name": "expectedResult",
      "outputs": [
        {
          "internalType": "bool",
          "name": "",
          "type": "bool"
        }
      ],
      "payable": false,
      "stateMutability": "view",
      "type": "function"
    },
    {
      "constant": false,
      "inputs": [
        {
          "internalType": "bool",
          "name": "result",
          "type": "bool"
        }
      ],
      "name": "mockResult",
      "outputs": [],
      "payable": false,
      "stateMutability": "nonpayable",
      "type": "function"
    },
    {
      "constant": false,
      "inputs": [],
      "name": "mockRevert",
      "outputs": [],
      "payable": false,
      "stateMutability": "nonpayable",
      "type": "function"
    },
    {
      "constant": false,
      "inputs": [
        {
          "components": [
            {
              "internalType": "bytes",
              "name": "inFlightTx",
              "type": "bytes"
            },
            {
              "internalType": "bytes[]",
              "name": "inputTxs",
              "type": "bytes[]"
            },
            {
              "internalType": "uint16[]",
              "name": "outputIndexOfInputTxs",
              "type": "uint16[]"
            }
          ],
          "internalType": "struct StateTransitionVerifierMock.Args",
          "name": "args",
          "type": "tuple"
        }
      ],
      "name": "shouldVerifyArgumentEquals",
      "outputs": [],
      "payable": false,
      "stateMutability": "nonpayable",
      "type": "function"
    },
    {
      "constant": true,
      "inputs": [
        {
          "internalType": "bytes",
          "name": "inFlightTx",
          "type": "bytes"
        },
        {
          "internalType": "bytes[]",
          "name": "inputTxs",
          "type": "bytes[]"
        },
        {
          "internalType": "uint16[]",
          "name": "outputIndexOfInputTxs",
          "type": "uint16[]"
        }
      ],
      "name": "isCorrectStateTransition",
      "outputs": [
        {
          "internalType": "bool",
          "name": "",
          "type": "bool"
        }
      ],
      "payable": false,
      "stateMutability": "view",
      "type": "function"
    }
  ],
  "bytecode": "0x608060405234801561001057600080fd5b50610e5e806100206000396000f3fe608060405234801561001057600080fd5b506004361061007d5760003560e01c8063b49550d81161005b578063b49550d8146100c8578063d3072d82146100dd578063d32c89c2146100e5578063d40cae4f146100f85761007d565b80630e902e441461008257806354233e481461009757806392f915c9146100c0575b600080fd5b6100956100903660046108f1565b610100565b005b6100aa6100a5366004610917565b610113565b6040516100b79190610ca6565b60405180910390f35b610095610352565b6100d0610363565b6040516100b79190610cb4565b6100aa6103f4565b6100956100f33660046109b5565b610402565b6100aa610457565b6000805460ff1916911515919091179055565b60008054610100900460ff16156101455760405162461bcd60e51b815260040161013c90610ce5565b60405180910390fd5b6001805460029181161561010002600019011604156103415760405161016d90600190610c93565b60405180910390208787604051610185929190610c86565b6040518091039020146101aa5760405162461bcd60e51b815260040161013c90610cf5565b60025484146101cb5760405162461bcd60e51b815260040161013c90610cc5565b60005b6002548110156102965760028054829081106101e657fe5b906000526020600020016040516101fd9190610c93565b604051809103902086868381811061021157fe5b602002820190508035601e193684900301811261022d57600080fd5b909101602081019150356001600160401b0381111561024b57600080fd5b3681900382131561025b57600080fd5b604051610269929190610c86565b60405180910390201461028e5760405162461bcd60e51b815260040161013c90610d05565b6001016101ce565b5060035482146102b85760405162461bcd60e51b815260040161013c90610cd5565b60005b60035481101561033f5760038054829081106102d357fe5b60009182526020909120601082040154600f9091166002026101000a900461ffff1684848381811061030157fe5b905060200201602061031691908101906109e9565b61ffff16146103375760405162461bcd60e51b815260040161013c90610d15565b6001016102bb565b505b5060005460ff169695505050505050565b6000805461ff001916610100179055565b60018054604080516020601f6002600019610100878916150201909516949094049384018190048102820181019092528281529183918301828280156103ea5780601f106103bf576101008083540402835291602001916103ea565b820191906000526020600020905b8154815290600101906020018083116103cd57829003601f168201915b5050505050905081565b600054610100900460ff1681565b80518051829160019161041c918391602090910190610460565b50602082810151805161043592600185019201906104de565b5060408201518051610451916002840191602090910190610537565b50505050565b60005460ff1681565b828054600181600116156101000203166002900490600052602060002090601f016020900481019282601f106104a157805160ff19168380011785556104ce565b828001600101855582156104ce579182015b828111156104ce5782518255916020019190600101906104b3565b506104da9291506105dc565b5090565b82805482825590600052602060002090810192821561052b579160200282015b8281111561052b578251805161051b918491602090910190610460565b50916020019190600101906104fe565b506104da9291506105f9565b82805482825590600052602060002090600f016010900481019282156105d05791602002820160005b838211156105a057835183826101000a81548161ffff021916908361ffff1602179055509260200192600201602081600101049283019260010302610560565b80156105ce5782816101000a81549061ffff02191690556002016020816001010492830192600103026105a0565b505b506104da92915061061c565b6105f691905b808211156104da57600081556001016105e2565b90565b6105f691905b808211156104da576000610613828261063b565b506001016105ff565b6105f691905b808211156104da57805461ffff19168155600101610622565b50805460018160011615610100020316600290046000825580601f10610661575061067f565b601f01602090049060005260206000209081019061067f91906105dc565b50565b60008083601f84011261069457600080fd5b5081356001600160401b038111156106ab57600080fd5b6020830191508360208202830111156106c357600080fd5b9250929050565b600082601f8301126106db57600080fd5b81356106ee6106e982610d4b565b610d25565b81815260209384019390925082018360005b8381101561072c578135860161071688826107f8565b8452506020928301929190910190600101610700565b5050505092915050565b600082601f83011261074757600080fd5b81356107556106e982610d4b565b9150818183526020840193506020810190508385602084028201111561077a57600080fd5b60005b8381101561072c578161079088826108e6565b845250602092830192919091019060010161077d565b80356107b181610dfe565b92915050565b60008083601f8401126107c957600080fd5b5081356001600160401b038111156107e057600080fd5b6020830191508360018202830111156106c357600080fd5b600082601f83011261080957600080fd5b81356108176106e982610d6b565b9150808252602083016020830185838301111561083357600080fd5b61083e838284610dbc565b50505092915050565b60006060828403121561085957600080fd5b6108636060610d25565b905081356001600160401b0381111561087b57600080fd5b610887848285016107f8565b82525060208201356001600160401b038111156108a357600080fd5b6108af848285016106ca565b60208301525060408201356001600160401b038111156108ce57600080fd5b6108da84828501610736565b60408301525092915050565b80356107b181610e12565b60006020828403121561090357600080fd5b600061090f84846107a6565b949350505050565b6000806000806000806060878903121561093057600080fd5b86356001600160401b0381111561094657600080fd5b61095289828a016107b7565b965096505060208701356001600160401b0381111561097057600080fd5b61097c89828a01610682565b945094505060408701356001600160401b0381111561099a57600080fd5b6109a689828a01610682565b92509250509295509295509295565b6000602082840312156109c757600080fd5b81356001600160401b038111156109dd57600080fd5b61090f84828501610847565b6000602082840312156109fb57600080fd5b600061090f84846108e6565b610a1081610db0565b82525050565b6000610a228385610dab565b9350610a2f838584610dbc565b50500190565b6000610a4082610d9e565b610a4a8185610da2565b9350610a5a818560208601610dc8565b610a6381610df4565b9093019392505050565b600081546001811660008114610a8a5760018114610aad57610aec565b607f6002830416610a9b8187610dab565b60ff1984168152955085019250610aec565b60028204610abb8187610dab565b9550610ac685610d92565b60005b82811015610ae557815488820152600190910190602001610ac9565b5050850192505b505092915050565b6000610b01602f83610da2565b7f696e70757420747873206172726179206c656e677468206d69736d617463686581526e73206578706563746564206461746160881b602082015260400192915050565b6000610b52603183610da2565b7f6f7574707574496e646578206172726179206c656e677468206d69736d617463815270686573206578706563746564206461746160781b602082015260400192915050565b6000610ba5601283610da2565b714661696c696e67206f6e20707572706f736560701b815260200192915050565b6000610bd3601f83610da2565b7f696e2d666c69676874207478206973206e6f7420617320657870656374656400815260200192915050565b6000610c0c601b83610da2565b7f696e707574207478206973206e6f742061732065787065637465640000000000815260200192915050565b6000610c45602c83610da2565b7f6f757470757420696e646578206f6620696e70757420747873206973206e6f7481526b08185cc8195e1c1958dd195960a21b602082015260400192915050565b600061090f828486610a16565b6000610c9f8284610a6d565b9392505050565b602081016107b18284610a07565b60208082528101610c9f8184610a35565b602080825281016107b181610af4565b602080825281016107b181610b45565b602080825281016107b181610b98565b602080825281016107b181610bc6565b602080825281016107b181610bff565b602080825281016107b181610c38565b6040518181016001600160401b0381118282101715610d4357600080fd5b604052919050565b60006001600160401b03821115610d6157600080fd5b5060209081020190565b60006001600160401b03821115610d8157600080fd5b506020601f91909101601f19160190565b60009081526020902090565b5190565b90815260200190565b919050565b151590565b61ffff1690565b82818337506000910152565b60005b83811015610de3578181015183820152602001610dcb565b838111156104515750506000910152565b601f01601f191690565b610e0781610db0565b811461067f57600080fd5b610e0781610db556fea365627a7a72315820dc72c1de175770337cde1aca8774988c4c21e735c53615210572bb5e696dacd96c6578706572696d656e74616cf564736f6c634300050b0040",
  "source": "pragma solidity 0.5.11;\npragma experimental ABIEncoderV2;\n\nimport \"../../src/exits/interfaces/IStateTransitionVerifier.sol\";\n\ncontract StateTransitionVerifierMock is IStateTransitionVerifier {\n    bool public expectedResult;\n    bool public shouldRevert;\n    Args public expectedArgs;\n\n    struct Args {\n        bytes inFlightTx;\n        bytes[] inputTxs;\n        uint16[] outputIndexOfInputTxs;\n    }\n\n    /** mock what \"isCorrectStateTransition()\" returns */\n    function mockResult(bool result) public {\n        expectedResult = result;\n    }\n\n    /** when called, the \"isCorrectStateTransition\" function reverts on purpose */\n    function mockRevert() public {\n        shouldRevert = true;\n    }\n\n    /** provide the expected args, it would check with the value called for \"verify()\" */\n    function shouldVerifyArgumentEquals(Args memory args)\n        public\n    {\n        expectedArgs = args;\n    }\n\n    function isCorrectStateTransition(\n        bytes calldata inFlightTx,\n        bytes[] calldata inputTxs,\n        uint16[] calldata outputIndexOfInputTxs\n    )\n        external\n        view\n        returns (bool)\n    {\n        if (shouldRevert) {\n            revert(\"Failing on purpose\");\n        }\n\n        // only run the check when \"shouldVerifyArgumentEqauals\" is called\n        if (expectedArgs.inFlightTx.length > 0) {\n            require(keccak256(inFlightTx) == keccak256(expectedArgs.inFlightTx), \"in-flight tx is not as expected\");\n\n            require(inputTxs.length == expectedArgs.inputTxs.length, \"input txs array length mismatches expected data\");\n            for (uint i = 0; i < expectedArgs.inputTxs.length; i++) {\n                require(keccak256(inputTxs[i]) == keccak256(expectedArgs.inputTxs[i]), \"input tx is not as expected\");\n            }\n\n            require(outputIndexOfInputTxs.length == expectedArgs.outputIndexOfInputTxs.length, \"outputIndex array length mismatches expected data\");\n            for (uint i = 0; i < expectedArgs.outputIndexOfInputTxs.length; i++) {\n                require(outputIndexOfInputTxs[i] == expectedArgs.outputIndexOfInputTxs[i], \"output index of input txs is not as expected\");\n            }\n        }\n\n        return expectedResult;\n    }\n}\n",
  "sourcePath": "/home/node/plasma-contracts/plasma_framework/contracts/mocks/exits/StateTransitionVerifierMock.sol",
  "compiler": {
    "name": "solc",
    "version": "0.5.11+commit.c082d0b4.Emscripten.clang"
  },
  "schemaVersion": "3.0.16",
  "updatedAt": "2020-04-07T14:07:49.477Z",
  "devdoc": {
    "methods": {}
  },
  "userdoc": {
    "methods": {
      "mockResult(bool)": {
        "notice": "mock what \"isCorrectStateTransition()\" returns "
      },
      "mockRevert()": {
        "notice": "when called, the \"isCorrectStateTransition\" function reverts on purpose "
      },
      "shouldVerifyArgumentEquals((bytes,bytes[],uint16[]))": {
        "notice": "provide the expected args, it would check with the value called for \"verify()\" "
      }
    }
  }
}