{
  "contractName": "Vault",
  "abi": [
    {
      "constant": true,
      "inputs": [
        {
          "internalType": "uint256",
          "name": "",
          "type": "uint256"
        }
      ],
      "name": "depositVerifiers",
      "outputs": [
        {
          "internalType": "address",
          "name": "",
          "type": "address"
        }
      ],
      "payable": false,
      "stateMutability": "view",
      "type": "function"
    },
    {
      "constant": true,
      "inputs": [],
      "name": "newDepositVerifierMaturityTimestamp",
      "outputs": [
        {
          "internalType": "uint256",
          "name": "",
          "type": "uint256"
        }
      ],
      "payable": false,
      "stateMutability": "view",
      "type": "function"
    },
    {
      "inputs": [
        {
          "internalType": "contract PlasmaFramework",
          "name": "_framework",
          "type": "address"
        }
      ],
      "payable": false,
      "stateMutability": "nonpayable",
      "type": "constructor"
    },
    {
      "anonymous": false,
      "inputs": [
        {
          "indexed": false,
          "internalType": "address",
          "name": "nextDepositVerifier",
          "type": "address"
        }
      ],
      "name": "SetDepositVerifierCalled",
      "type": "event"
    },
    {
      "constant": false,
      "inputs": [
        {
          "internalType": "address",
          "name": "_verifier",
          "type": "address"
        }
      ],
      "name": "setDepositVerifier",
      "outputs": [],
      "payable": false,
      "stateMutability": "nonpayable",
      "type": "function"
    },
    {
      "constant": true,
      "inputs": [],
      "name": "getEffectiveDepositVerifier",
      "outputs": [
        {
          "internalType": "address",
          "name": "",
          "type": "address"
        }
      ],
      "payable": false,
      "stateMutability": "view",
      "type": "function"
    }
  ],
  "bytecode": "0x60806040527f800000000000000000000000000000000000000000000000000000000000000060135534801561003457600080fd5b506040516105993803806105998339818101604052602081101561005757600080fd5b5051600080546001600160a01b0319166001600160a01b03831617905561007c610091565b61008a906001906010610157565b50506101ce565b610099610195565b6100a1610195565b6040805160006020808301829052602180840183905284518085039091018152604190930190935281519190920120905b601081101561014e57818382601081106100e857fe5b60209081029190910191909152604080517f010000000000000000000000000000000000000000000000000000000000000081840152602181018590526041808201959095528151808203909501855260610190528251920191909120906001016100d2565b50909150505b90565b8260108101928215610185579160200282015b8281111561018557825182559160200191906001019061016a565b506101919291506101b4565b5090565b6040518061020001604052806010906020820280388339509192915050565b61015491905b8082111561019157600081556001016101ba565b6103bc806101dd6000396000f3fe608060405234801561001057600080fd5b506004361061004c5760003560e01c806302e9b07b146100515780632c6ce78b1461008a57806352518b7f146100b2578063a7e5994f146100ba575b600080fd5b61006e6004803603602081101561006757600080fd5b50356100d4565b604080516001600160a01b039092168252519081900360200190f35b6100b0600480360360208110156100a057600080fd5b50356001600160a01b03166100f1565b005b61006e610323565b6100c2610352565b60408051918252519081900360200190f35b601181600281106100e157fe5b01546001600160a01b0316905081565b6000809054906101000a90046001600160a01b03166001600160a01b0316634b0a72bc6040518163ffffffff1660e01b815260040160206040518083038186803b15801561013e57600080fd5b505afa158015610152573d6000803e3d6000fd5b505050506040513d602081101561016857600080fd5b5051336001600160a01b038216146101c7576040805162461bcd60e51b815260206004820152601e60248201527f43616c6c6572206164647265737320697320756e617574686f72697a65640000604482015290519081900360640190fd5b6001600160a01b03821661020c5760405162461bcd60e51b815260040180806020018281038252602f815260200180610359602f913960400191505060405180910390fd5b6011546001600160a01b0316156102c757610225610323565b601180546001600160a01b03199081166001600160a01b0393841617909155601280549091168483161790556000546040805163d4a2b4ef60e01b81529051919092169163d4a2b4ef916004808301926020929190829003018186803b15801561028e57600080fd5b505afa1580156102a2573d6000803e3d6000fd5b505050506040513d60208110156102b857600080fd5b505160020242016013556102e3565b601180546001600160a01b0319166001600160a01b0384161790555b604080516001600160a01b038416815290517f11e5a7570e0de4b31179f8c9cf5e8a1e6cfd23731ec7a5a06e3006d71dd321fd9181900360200190a15050565b600060135442101561034657601160005b01546001600160a01b0316905061034f565b60116001610334565b90565b6013548156fe43616e6e6f742073657420616e20656d7074792061646472657373206173206465706f736974207665726966696572a265627a7a72315820513106560274e5a42a0a61d0121f2eb8db891c058dc72170d5b6cae5f751f61064736f6c634300050b0032",
  "source": "pragma solidity 0.5.11;\n\nimport \"../framework/PlasmaFramework.sol\";\nimport \"../utils/OnlyFromAddress.sol\";\n\n/**\n * @notice Base contract for vault implementation\n * @dev This is the functionality to swap \"deposit verifier\"\n *      Setting a new deposit verifier allows an upgrade to a new deposit tx type without upgrading the vault\n */\ncontract Vault is OnlyFromAddress {\n\n    byte private constant LEAF_SALT = 0x00;\n    byte private constant NODE_SALT = 0x01;\n\n    event SetDepositVerifierCalled(address nextDepositVerifier);\n    PlasmaFramework internal framework;\n    bytes32[16] internal zeroHashes; // Pre-computes zero hashes to be used for building merkle tree for deposit block\n\n    /**\n     * @notice Stores deposit verifier contract addresses; first contract address is effective until the\n     *  `newDepositVerifierMaturityTimestamp`; second contract address becomes effective after that timestamp\n    */\n    address[2] public depositVerifiers;\n    uint256 public newDepositVerifierMaturityTimestamp = 2 ** 255; // point far in the future\n\n    constructor(PlasmaFramework _framework) public {\n        framework = _framework;\n        zeroHashes = getZeroHashes();\n    }\n\n    /**\n     * @dev Pre-computes zero hashes to be used for building Merkle tree for deposit block\n     */\n    function getZeroHashes() private pure returns (bytes32[16] memory) {\n        bytes32[16] memory hashes;\n        bytes32 zeroHash = keccak256(abi.encodePacked(LEAF_SALT, uint256(0)));\n        for (uint i = 0; i < 16; i++) {\n            hashes[i] = zeroHash;\n            zeroHash = keccak256(abi.encodePacked(NODE_SALT, zeroHash, zeroHash));\n        }\n        return hashes;\n    }\n\n    /**\n     * @notice Checks whether the call originates from a non-quarantined exit game contract\n    */\n    modifier onlyFromNonQuarantinedExitGame() {\n        require(\n            ExitGameRegistry(framework).isExitGameSafeToUse(msg.sender),\n            \"Called from a non-registered or quarantined exit game contract\"\n        );\n        _;\n    }\n\n    /**\n     * @notice Sets the deposit verifier contract, which may be called only by the operator\n     * @dev emit SetDepositVerifierCalled\n     * @dev When one contract is already set, the next one is effective after 2 * MIN_EXIT_PERIOD.\n     *      This is to protect deposit transactions already in mempool,\n     *      and also make sure user only needs to SE within first week when invalid vault is registered.\n     *\n     *      see: https://github.com/omisego/plasma-contracts/issues/412\n     *           https://github.com/omisego/plasma-contracts/issues/173\n     *\n     * @param _verifier Address of the verifier contract\n     */\n    function setDepositVerifier(address _verifier) public onlyFrom(framework.getMaintainer()) {\n        require(_verifier != address(0), \"Cannot set an empty address as deposit verifier\");\n\n        if (depositVerifiers[0] != address(0)) {\n            depositVerifiers[0] = getEffectiveDepositVerifier();\n            depositVerifiers[1] = _verifier;\n            newDepositVerifierMaturityTimestamp = now + 2 * framework.minExitPeriod();\n        } else {\n            depositVerifiers[0] = _verifier;\n        }\n\n        emit SetDepositVerifierCalled(_verifier);\n    }\n\n    /**\n     * @notice Retrieves the currently effective deposit verifier contract address\n     * @return Contract address of the deposit verifier\n     */\n    function getEffectiveDepositVerifier() public view returns (address) {\n        if (now < newDepositVerifierMaturityTimestamp) {\n            return depositVerifiers[0];\n        } else {\n            return depositVerifiers[1];\n        }\n    }\n\n    /**\n     * @notice Generate and submit a deposit block root to the PlasmaFramework\n     * @dev Designed to be called by the contract that inherits Vault\n     */\n    function submitDepositBlock(bytes memory depositTx) internal returns (uint256) {\n        bytes32 root = getDepositBlockRoot(depositTx);\n\n        uint256 depositBlkNum = framework.submitDepositBlock(root);\n        return depositBlkNum;\n    }\n\n    function getDepositBlockRoot(bytes memory depositTx) private view returns (bytes32) {\n        bytes32 root = keccak256(abi.encodePacked(LEAF_SALT, depositTx));\n        for (uint i = 0; i < 16; i++) {\n            root = keccak256(abi.encodePacked(NODE_SALT, root, zeroHashes[i]));\n        }\n        return root;\n    }\n}\n",
  "sourcePath": "/home/node/plasma-contracts/plasma_framework/contracts/src/vaults/Vault.sol",
  "compiler": {
    "name": "solc",
    "version": "0.5.11+commit.c082d0b4.Emscripten.clang"
  },
  "schemaVersion": "3.0.16",
  "updatedAt": "2020-04-07T14:07:49.847Z",
  "devdoc": {
    "details": "This is the functionality to swap \"deposit verifier\"     Setting a new deposit verifier allows an upgrade to a new deposit tx type without upgrading the vault",
    "methods": {
      "getEffectiveDepositVerifier()": {
        "return": "Contract address of the deposit verifier"
      },
      "setDepositVerifier(address)": {
        "details": "emit SetDepositVerifierCalledWhen one contract is already set, the next one is effective after 2 * MIN_EXIT_PERIOD.     This is to protect deposit transactions already in mempool,     and also make sure user only needs to SE within first week when invalid vault is registered.     *      see: https://github.com/omisego/plasma-contracts/issues/412          https://github.com/omisego/plasma-contracts/issues/173",
        "params": {
          "_verifier": "Address of the verifier contract"
        }
      }
    }
  },
  "userdoc": {
    "methods": {
      "getEffectiveDepositVerifier()": {
        "notice": "Retrieves the currently effective deposit verifier contract address"
      },
      "setDepositVerifier(address)": {
        "notice": "Sets the deposit verifier contract, which may be called only by the operator"
      }
    },
    "notice": "Base contract for vault implementation"
  }
}