{
  "contractName": "VaultRegistryMock",
  "abi": [
    {
      "constant": false,
      "inputs": [
        {
          "internalType": "uint256",
          "name": "_vaultId",
          "type": "uint256"
        },
        {
          "internalType": "address",
          "name": "_vaultAddress",
          "type": "address"
        }
      ],
      "name": "registerVault",
      "outputs": [],
      "payable": false,
      "stateMutability": "nonpayable",
      "type": "function"
    },
    {
      "constant": true,
      "inputs": [
        {
          "internalType": "uint256",
          "name": "_vaultId",
          "type": "uint256"
        }
      ],
      "name": "vaults",
      "outputs": [
        {
          "internalType": "address",
          "name": "",
          "type": "address"
        }
      ],
      "payable": false,
      "stateMutability": "view",
      "type": "function"
    },
    {
      "constant": true,
      "inputs": [
        {
          "internalType": "address",
          "name": "_vaultAddress",
          "type": "address"
        }
      ],
      "name": "vaultToId",
      "outputs": [
        {
          "internalType": "uint256",
          "name": "",
          "type": "uint256"
        }
      ],
      "payable": false,
      "stateMutability": "view",
      "type": "function"
    },
    {
      "inputs": [
        {
          "internalType": "uint256",
          "name": "_minExitPeriod",
          "type": "uint256"
        },
        {
          "internalType": "uint256",
          "name": "_initialImmuneVaults",
          "type": "uint256"
        }
      ],
      "payable": false,
      "stateMutability": "nonpayable",
      "type": "constructor"
    },
    {
      "anonymous": false,
      "inputs": [
        {
          "indexed": false,
          "internalType": "uint256",
          "name": "vaultId",
          "type": "uint256"
        },
        {
          "indexed": false,
          "internalType": "address",
          "name": "vaultAddress",
          "type": "address"
        }
      ],
      "name": "VaultRegistered",
      "type": "event"
    },
    {
      "constant": true,
      "inputs": [],
      "name": "getMaintainer",
      "outputs": [
        {
          "internalType": "address",
          "name": "",
          "type": "address"
        }
      ],
      "payable": false,
      "stateMutability": "view",
      "type": "function"
    },
    {
      "constant": false,
      "inputs": [
        {
          "internalType": "address",
          "name": "maintainerToSet",
          "type": "address"
        }
      ],
      "name": "setMaintainer",
      "outputs": [],
      "payable": false,
      "stateMutability": "nonpayable",
      "type": "function"
    },
    {
      "constant": true,
      "inputs": [],
      "name": "checkOnlyFromNonQuarantinedVault",
      "outputs": [
        {
          "internalType": "bool",
          "name": "",
          "type": "bool"
        }
      ],
      "payable": false,
      "stateMutability": "view",
      "type": "function"
    }
  ],
  "bytecode": "0x608060405234801561001057600080fd5b506040516107113803806107118339818101604052604081101561003357600080fd5b50805160209091015160029091026003556004556106bb806100566000396000f3fe608060405234801561001057600080fd5b50600436106100625760003560e01c80630971f0e01461006757806313ea5d29146100835780634b0a72bc146100ab5780636a51fd63146100cf5780638c64ea4a146100fb578063dfb494f014610118575b600080fd5b61006f610150565b604080519115158252519081900360200190f35b6100a96004803603602081101561009957600080fd5b50356001600160a01b03166101fb565b005b6100b361021d565b604080516001600160a01b039092168252519081900360200190f35b6100a9600480360360408110156100e557600080fd5b50803590602001356001600160a01b031661022c565b6100b36004803603602081101561011157600080fd5b5035610444565b61013e6004803603602081101561012e57600080fd5b50356001600160a01b031661045f565b60408051918252519081900360200190f35b3360009081526001602052604081205461019b5760405162461bcd60e51b81526004018080602001828103825260278152602001806105e76027913960400191505060405180910390fd5b6101ac60023363ffffffff61047a16565b156101f5576040805162461bcd60e51b815260206004820152601460248201527315985d5b1d081a5cc81c5d585c985b9d1a5b995960621b604482015290519081900360640190fd5b50600190565b600580546001600160a01b0319166001600160a01b0392909216919091179055565b6005546001600160a01b031690565b61023461021d565b336001600160a01b03821614610291576040805162461bcd60e51b815260206004820152601e60248201527f43616c6c6572206164647265737320697320756e617574686f72697a65640000604482015290519081900360640190fd5b826102cd5760405162461bcd60e51b815260040180806020018281038252602381526020018061059e6023913960400191505060405180910390fd5b6102d682610498565b6103115760405162461bcd60e51b815260040180806020018281038252602f81526020018061060e602f913960400191505060405180910390fd5b6000838152602081905260409020546001600160a01b0316156103655760405162461bcd60e51b81526004018080602001828103825260228152602001806106656022913960400191505060405180910390fd5b6001600160a01b038216600090815260016020526040902054156103ba5760405162461bcd60e51b815260040180806020018281038252602881526020018061063d6028913960400191505060405180910390fd5b60008381526020818152604080832080546001600160a01b0319166001600160a01b0387169081179091558352600190915290208390556103fc60028361049e565b604080518481526001600160a01b038416602082015281517f7051aac27f9b76ec8f37bd5796f2dcf402bd840a1c45c952a6eeb0e11bde0996929181900390910190a1505050565b6000908152602081905260409020546001600160a01b031690565b6001600160a01b031660009081526001602052604090205490565b6001600160a01b031660009081526020919091526040902054421090565b3b151590565b6001600160a01b0381166104e35760405162461bcd60e51b81526004018080602001828103825260268152602001806105c16026913960400191505060405180910390fd5b6001600160a01b038116600090815260208390526040902054156105385760405162461bcd60e51b815260040180806020018281038252602381526020018061057b6023913960400191505060405180910390fd5b60028201546105695760018201546001600160a01b0382166000908152602084905260409020429091019055610576565b6002820180546000190190555b505056fe54686520636f6e747261637420697320616c72656164792071756172616e74696e656453686f756c64206e6f742072656769737465722077697468207661756c742049442030416e20656d70747920616464726573732063616e6e6f742062652071756172616e74696e65645468652063616c6c206973206e6f742066726f6d20612072656769737465726564207661756c7453686f756c64206e6f7420726567697374657220776974682061206e6f6e2d636f6e74726163742061646472657373546865207661756c7420636f6e747261637420697320616c72656164792072656769737465726564546865207661756c7420494420697320616c72656164792072656769737465726564a265627a7a723158200eb444c1ccb17d694437146eecc57c0a52ab7944357cb11502ea2a3c6e55116164736f6c634300050b0032",
  "source": "pragma solidity 0.5.11;\n\nimport \"../../../src/framework/registries/VaultRegistry.sol\";\n\ncontract VaultRegistryMock is VaultRegistry {\n    address private maintainer;\n\n    constructor (uint256 _minExitPeriod, uint256 _initialImmuneVaults)\n        public\n        VaultRegistry(_minExitPeriod, _initialImmuneVaults)\n    {\n    }\n\n    /** override to make it non-abstract contract */\n    function getMaintainer() public view returns (address) {\n        return maintainer;\n    }\n\n    /** test helper function */\n    function setMaintainer(address maintainerToSet) public {\n        maintainer = maintainerToSet;\n    }\n\n    function checkOnlyFromNonQuarantinedVault() public onlyFromNonQuarantinedVault view returns (bool) {\n        return true;\n    }\n}\n",
  "sourcePath": "/home/node/plasma-contracts/plasma_framework/contracts/mocks/framework/registries/VaultRegistryMock.sol",
  "compiler": {
    "name": "solc",
    "version": "0.5.11+commit.c082d0b4.Emscripten.clang"
  },
  "schemaVersion": "3.0.16",
  "updatedAt": "2020-04-07T14:07:49.561Z",
  "devdoc": {
    "methods": {
      "registerVault(uint256,address)": {
        "details": "emits VaultRegistered event to notify clients",
        "params": {
          "_vaultAddress": "Address of the vault contract",
          "_vaultId": "The ID for the vault contract to register"
        }
      }
    }
  },
  "userdoc": {
    "methods": {
      "getMaintainer()": {
        "notice": "override to make it non-abstract contract "
      },
      "registerVault(uint256,address)": {
        "notice": "Register a vault within the PlasmaFramework. Only a maintainer can make the call."
      },
      "setMaintainer(address)": {
        "notice": "test helper function "
      },
      "vaultToId(address)": {
        "notice": "Public getter for retrieving vault ID with vault address"
      },
      "vaults(uint256)": {
        "notice": "Public getter for retrieving vault address with vault ID"
      }
    }
  }
}